:100000000C94BF030C94F7030C94F7030C94F703C0
:100010000C94F7030C94F7030C94F7030C94F70378
:100020000C94F7030C94F7030C94E4100C948D17C4
:100030000C94EF230C94F7030C94F7030C94F70340
:100040000C94F7030C94F7030C94F7030C94F70348
:100050000C94F7030C94BD110C94F7030C94F70364
:100060000C94F7030C94F7030C94F7030C94F70328
:100070000C94F7030C94F7030C94F7030C94F70318
:100080000C94F7030C94F7030C94F7030C94F70308
:100090000C94F7030C94F7030C94F7030C94F703F8
:1000A0000C94F7030C94F7030C94F7030501090271
:1000B000A10185020901A1000509190129081500FE
:1000C0002501950875018102050109300931158165
:1000D000257F95027508810609381581257F9501D0
:1000E00075088106050C0A38021581257F95017572
:1000F000088106C0C005010980A101850319012AF4
:10010000B700150126B700950175108100C0050CD8
:100110000901A101850419012AA002150126A002E6
:10012000950175108100C005010906A1018506052C
:100130000719E029E71500250195087501810205D9
:1001400007190029EF1500250195F07501810205B9
:10015000081901290595057501910295017503910D
:1001600001C00660FF0961A1010962150026FF00B8
:100170009520750881020963150026FF00952075FA
:10018000089102C005010906A101050719E029E748
:1001900015002501950875018102950175088101F9
:1001A0000507190029FF150026FF0095067508812F
:1001B000000508190129059505750191029501753C
:1001C000039101C0000000000000000000000000DA
:1001D000000000000000000000000000000000001F
:1001E00000000000000000007E0F00D4FFFFFFC7EA
:1001F0000000007800000000000000002A2B28000A
:1002000000000000000000000000000000000029C5
:10021000000000002C1E3420212224342627252E05
:10022000362D3738271E1F2021222324252633333D
:10023000362E37381F0405060708090A0B0C0D0E69
:100240000F101112131415161718191A1B1C1D2F35
:100250003130232D350405060708090A0B0C0D0E55
:100260000F101112131415161718191A1B1C1D2F15
:100270003130354C0001010101010101010102028F
:100280000202020202020203030303030303030444
:10029000040404040404050505050506060606060F
:1002A000070707070708080808090909090A0A0AC9
:1002B0000B0B0B0C0C0C0D0D0D0E0E0E0F0F0F106B
:1002C00010111111121213131414151516161717F5
:1002D000181819191A1A1B1B1C1D1D1E1E1F202061
:1002E000212222232424252626272829292A2B2CAB
:1002F0002D2D2E2F30313232333435363738393ACE
:100300003B3C3D3E3F404142434445464748494AC5
:100310004C4D4E4F50515354555658595A5B5D5E93
:100320005F616264656668696B6C6D6F707273752E
:1003300077787A7B7D7E8082838587888A8C8E8F92
:1003400091939596989A9C9EA0A2A3A5A7A9ABADC0
:10035000AFB1B3B5B7BABCBEC0C2C4C6C9CBCDCFAE
:10036000D1D4D6D8DBDDDFE2E4E7E9EBEEF0F3F55C
:10037000F8FAFDFF009B8B7B00AB8A7A00AA9A7982
:1003800000A9998900A8988800A7978700A6968653
:1003900000A5958500A49484003C4C5C002C4D5D28
:1003A000002D3D5E002E3E4E003040500031415148
:1003B000002A3A4A00293949002838480027374797
:1003C0000026364600253556002445550034445451
:1003D00000AC9C8C00AD9D8D00AE9E8E00AF9F8FBB
:1003E00000B0A09000B1A19100324252002B3B4BD3
:1003F00001A9998901A8988801A7978701A69686DF
:1004000001A5958501A49484013C4C5C012C4D5DB3
:10041000012D3D5E012E3E4E012F3F4F01304050D9
:100420000033435301AB8A7A012838480127374704
:1004300001263646012535560124455501AC9C8CD4
:1004400001AD9D8D01AE9E8E01AF9F8F0131415157
:10045000013242520133435300B2A281019B8B7B94
:10046000012B3B4B012A3A4A0134445401B1A1917A
:1004700001B2A28101A3938300A3938300B392826C
:10048000167C1E001F0020002100220023002400F3
:100490002500260027002D002E002A004A002B00F0
:1004A00014001A000800150017001C0018000C00AA
:1004B000120013002F00300031004B0000570400E1
:1004C0001600070009000A000B000D000E000F00C7
:1004D00033003400000028004E00E1001D001B0026
:1004E0000600190005001100100036003700380022
:1004F0000157000052004D00E000E300E200000060
:1005000000002C000000000002570000E400500032
:10051000000051004F0035003A003B003C003D0018
:100520003E003F00400041004200430044004500BF
:100530004C00490001004A0052004D004B000100F0
:1005400001000100010001000100010001000100A3
:1005500046000100500051004F004E000100010014
:100560000100010001000100010000000100010084
:10057000010001000100B20001000100110A29037D
:100580000100010001000100000001000100010064
:1005900001000100000000004C000000000001000C
:1005A000000065210100000001000100350001008C
:1005B000010001000100010001005F006000610016
:1005C0000100560057004C02A60001004A005200EC
:1005D0004D004B00010001005C005D005E00010069
:1005E00055005400010001000100500051004F006F
:1005F0004E000100010059005A005B00010001009B
:10060000000001000100010001000100B200010032
:10061000010001006200620063005300010000005D
:100620000100010001000B7001000000000001004A
:1006300000000000010000000100010000000100B6
:10064000010020782B78010001001370AA00A90096
:10065000AE00A800010001000100010001002578A2
:100660000100010001000100010001000100010082
:1006700001000100010001000100007C267801005A
:100680000100010001000100010001000100010062
:100690000100010001000000037C2378010001003B
:1006A0000100010001000100010010030100010030
:1006B0000100010000002178247801000100010000
:1006C00000000000010000000000005200000100D6
:1006D000287800002278277809025B00030100A037
:1006E000FA090400000103010100092111010001C0
:1006F00022400007058103080001090401000203EC
:1007000000000009211101000122220007058203D7
:100710002000010705030320000109040200010372
:1007200000000009211101000122B6000705840321
:100730002000011201000200000008424B251202B5
:10074000000102000120036B0062006400360037E4
:10075000006D006B00690069007200670062002094
:100760000076003200000010034B00420044006697
:100770000061006E007300000004030904001124EE
:100780001FBECFEFDAE0DEBFCDBF04B603FE18C058
:100790008091840590918505A0918605B09187058B
:1007A0008730904BA740B04B59F4109284051092BB
:1007B00085051092860510928705E0E0F8E309951B
:1007C00012E0A0E0B1E0EEEEF7E502C005900D9278
:1007D000A23CB107D9F725E0A2ECB2E001C01D921E
:1007E000A438B207E1F70E9416240C948E2B0C94C7
:1007F0000000E8EDF0E080818E7F80831092E200BF
:100800001092DA001092E100A0EEB0E08C918160CD
:100810008C9380818F77808319BCA7EDB0E08C9199
:100820008E7F8C9380818F7E808310924C050895FB
:100830002091E4003091E50095E6A9012091EC00BB
:10084000822F817020FF06C08091E80080FF06C0E3
:1008500080E008952091E80022FD1AC08091710582
:10086000882389F0853089F08091EB0085FD0FC0E9
:100870002091E4003091E50042175307F9F29150BE
:10088000E1F684E0089582E0089583E0089581E030
:1008900008958091730587FF13C08091E80082FF5F
:1008A00006C08091E8008B778093E80004C08091B7
:1008B00071058111F2CF0895809171058823D9F3D4
:1008C0008091E80080FFF8CF8091E8008E77ECCF30
:1008D000982F9093E900242F762F50E0891731F05C
:1008E0007091EC002091ED005091F00021FD07C0C7
:1008F0009F5F973071F78093E90081E00895309110
:10090000EB003E7F3093EB003091ED003D7F309364
:10091000ED003091EB0031603093EB007093EC0010
:100920002093ED005093F0002091EE0027FDE0CFE2
:1009300080E00895B0E0A0E0E0EAF4E00C94CF2A73
:10094000C8EDD0E088818F7E8883E7EDF0E080817C
:100950008160808384E082BF81E080934C05888140
:100960008E7F888302EE10E0F80110821092DA0088
:1009700081EEC82ED12CF601108288818F77888372
:1009800088818068888388818F7D888319BC1092D4
:100990007105109272051092700510926F0590EE1D
:1009A000E92EF12CF70180818B7F80838881816023
:1009B000888342E060E080E00E946804F601808164
:1009C0008E7F8083F8018081816080838081886050
:1009D0008083F70180818E7F808388818061888316
:1009E000CDB7DEB7E8E00C94EB2AFC0180917905E5
:1009F00090917A0586179707A0F06115710529F483
:100A00009091E8009E779093E80090E06115710561
:100A100051F4911108C08091E80082FF34C080E059
:100A20000895BC01F2CF809171058823C1F1853012
:100A3000C1F18091E80083FD30C08091E80082FD23
:100A4000EACF8091E80080FFE1CF8091F300209110
:100A5000F200382F6115710519F02830310558F072
:100A600091E02830310509F090E02091E8002E77E0
:100A70002093E800CBCF81918093F1006150710900
:100A80002F5F3F4FE7CF80917105882341F085307C
:100A900041F08091E80083FFBECF81E0089582E0BD
:100AA000089583E0089580914E0508952FB7F89436
:100AB000609148057091490580914A0590914B05D8
:100AC0002FBF0895209143012223C1F02091820578
:100AD00027FF14C0E62FE695E695E695EE31F8F48B
:100AE000E80FF92FF11D677021E030E001C0220FFF
:100AF0006A95EAF78281822B82830895FC013296FF
:100B00002FEF30E04191641751F02F3F19F441115C
:100B100001C0232F3F5F3630A9F72F3F09F4089516
:100B2000820F911D27FD9A95FC0162830895A3E031
:100B3000B0E0EDE9F5E00C94D52A2091450530911F
:100B4000460528173907A1F090934605809345057F
:100B5000E0914305F0914405309751F024E029835A
:100B60009B838A830680F781E02DCE01019609954B
:100B70002396E2E00C94F12AA3E0B0E0E2ECF5E089
:100B80000C94D52A20914105309142052817390748
:100B9000A1F09093420580934105E0914305F091C7
:100BA0004405309751F023E029839B838A83068094
:100BB000F781E02DCE01019609952396E2E00C9491
:100BC000F12AE0914305F0914405309729F0019016
:100BD000F081E02D0995089580E00895CF93DF938B
:100BE000EC014091320550913305609134057091CC
:100BF00035052FB7F8948091480590914905A0914B
:100C00004A05B0914B052FBF841B950BA60BB70B64
:100C1000843F9140A105B10518F58091320590916E
:100C20003305A0913405B091350580932E0590933E
:100C30002F05A0933005B093310584EF91E0A0E03B
:100C4000B0E080932A0590932B05A0932C05B093D8
:100C50002D05D0933A05C0933905DF91CF910895C2
:100C60000E94560560932E0570932F0580933005E2
:100C70009093310582E390E0A0E0B0E0E2CFFC0188
:100C80008481862351F492819923B9F06923808568
:100C900083FF05C081E061110FC080E00895892FB6
:100CA0008F7092959F70982B862F8F7062956F70C2
:100CB000682B81E09613F1CF089581E0FDCFFA0112
:100CC000811101C0FB0109950895E8ECF3E024814E
:100CD00030E1231B08F420E024838091C703816066
:100CE0008093C7030895E8ECF3E0248130E1230FFB
:100CF00008F42FEF24838091C70381608093C7039A
:100D000008959091C803937059F08093C90360933C
:100D1000CA034093CB038091C703822B8093C70300
:100D20000895E8ECF3E0438120E1421B08F440E041
:100D3000818121E0628190E00E9481060895E8ECC3
:100D4000F3E0438120E1420F08F44FEF818121E07D
:100D5000628190E00E9481060895E8ECF3E06281F0
:100D600020E1621B08F460E0818121E0438190E092
:100D70000E9481060895E8ECF3E0628120E1620FB1
:100D800008F46FEF818121E0438190E00E948106A9
:100D90000895E8ECF3E0818121E04381628188508D
:100DA000990B0E9481060895E8ECF3E0818190E0C0
:100DB00021E04381628108960E9481060895809116
:100DC000C803837051F084608093C803109242017D
:100DD0008091C703862B8093C70308958091C80331
:100DE00086958695815009F481E061E00E94DF06D6
:100DF000089561E081E00E94DF0608950E94CC0D15
:100E00000895B0E0A0E0E7E0F7E00C94CA2A182FBC
:100E100080913E01811321C09091C803937020916D
:100E20003D0130E081E09217130609F480E0817003
:100E3000809341018091CD0390914001981739F042
:100E40008093400140E060E080E00E94FE061123B4
:100E500031F0113071F080E02DC081E0E8CF809159
:100E60004101882339F140E060E080E00E94FE0605
:100E7000F2CF90903F01990C990C04E0090D802E5F
:100E8000043410F023E4822E4091C903D090CA03A9
:100E9000E091CB03F0E0EC58FD4FD11023C0F4906B
:100EA000DF2DCF2DC92CD12CC81408F48FC081E0C0
:100EB000033488F690913F019F5F90933F01811129
:100EC0000CC082E08093420180914101811105C0F4
:100ED000111103C083E080934201CDB7DEB7EDE08E
:100EE0000C94E62AED2CF12CC4917C2EEC2FF0E032
:100EF00026E0429FC00111242FEF30E0B9010E948B
:100F0000B12A842F90E0880F991FA5E5A69FA00124
:100F1000A79F500D1124841B950BC82ECC0CC80E16
:100F2000D901AE19BF09AE9FA001AF9F500DBE9F62
:100F3000500D1124D52FDC9CD0011124AB2FBB27E1
:100F4000C9018A1B9B0B8E9FD0018F9FB00D9E9F66
:100F5000B00D11245901AC18B108AE9C6001AF9CD2
:100F6000D00CBE9CD00C1124CD2CDD242C193D09B5
:100F70002E9FC0012F9F900D3E9F900D1124F92EA2
:100F800062307105A1F050F46115710509F48ACF42
:100F90006130710581F0F52EDB2F84CF643071054F
:100FA00069F080F06630710509F47CCFF4CFFC2E37
:100FB000C52FD92F77CFFC2ECB2F74CFF52EDC2F5A
:100FC000C92F70CFC52FD72DFB2E6CCFF601E0595E
:100FD000FD4F808190914001892331F02D2F4F2DBD
:100FE0006C2FC6010E948E0D8FEFC81AD80A5CCFF5
:100FF00080918A0380FD16C081FD16C082FD16C057
:10100000809189038823A1F0883280F428E0829FB0
:10101000C001112468E270E00E94FC2A862F672B31
:1010200039F0089582E0089584E0089588E00895F5
:1010300081E0089580918A0380FD14C081FD14C071
:1010400082FD16C080918803882381F08E3180F460
:1010500020E5829FC00111246EE170E00E94FC2A0D
:10106000862F089584E1089588E2089588E0089520
:1010700080E5089580E00895F894E82FE295EF70F8
:10108000F0E031A1282F2F7081E090E001C0880F9F
:101090002A95EAF7982F9095932391A392A1892BF3
:1010A00082A3789408959091820592FF06C0282F1C
:1010B00028712830F9F4877F846093FF06C0282FB9
:1010C00028712831F1F4877E84612091830520FF07
:1010D00006C0382F38713830D9F4877F816021FFFE
:1010E00006C0282F28712831D1F4877E816194FDB4
:1010F000877E0895282F24712430F9F68B7F88602D
:10110000DCCF282F2471243101F78B7E8861DDCF5D
:10111000382F3171313019F78E7F8860E0CF282F5A
:101120002171213121F78E7E8861E1CFCF93DF934A
:10113000EC0182389105B9F108F041C08133910585
:1011400009F49FC050F58932910509F48FC08A9740
:1011500009F49EC0C11520E5D20708F0BDC0C11535
:1011600030E4D30708F00AC1C03ED10508F0A5C09D
:10117000CD3CD10508F000C1C83AD10508F08FC0B8
:10118000C53AD10508F0F0C0C130D10539F120973A
:1011900029F1C430D10510F546C08533910509F415
:1011A00060C0C997B9F680918205837009F044C187
:1011B0008091830583FF12C0C9E2D0E00FC0833E57
:1011C0009105A1F178F4803E910509F1823E9105E7
:1011D00009F0C0CF8091820582FD21C0CE01DF9150
:1011E000CF910895863E910561F1873E910571F199
:1011F000843E910509F0AECF8091830581FFEECF4B
:1012000080918205C7EED0E084FD0DC0E7CF8091CC
:10121000820580FD33C09091830590FFDFCFC3EE40
:10122000D0E084FFDBCFD0E0C0E0D8CF8091820552
:1012300082FDFFC09091830590FDFEC084FFCECF5C
:10124000F2CF8091820583FDDDCFC8CF80918205EA
:1012500083FDF5C09091830591FFF0CFC4EED0E0FF
:10126000BDCF8091820585FFB9CFA6CF8091820541
:1012700085FDE8C08091830583FFB0CFC9E3D0E04E
:10128000ADCF8091820586FFA9CFCAE2D0E0A6CF7C
:101290008091820586FFA2CFC1E3D0E09FCFC13C01
:1012A000D10508F6C85AD0E0CC0FDD1FC75ADE4F73
:1012B0000990D881C02DD46491CFC11540E2D407E4
:1012C00008F0AAC0C11581E0D80708F087CFC83E52
:1012D000D10508F483CFA7CFC03622E5D20718F591
:1012E000C03432E5D30708F053C0C03242E5D4071A
:1012F00008F047C0C11582E5D80708F47FC02C2F3D
:101300002695269540E2249F900111248C2F83700E
:10131000C1E0D0E002C0CC0FDD1F8A95E2F7C22BFE
:10132000D32BDD685BCFC03A22E5D20760F4C0382A
:1013300032E5D30708F441C0CF71D0E0DC2FCC27D1
:10134000C46FD06A4BCFC03C42E5D40708F44AC012
:10135000C03E82E5D80708F066CFDC2FCC27CC272B
:10136000DF71C06FD06A3ACFC55AD0E0CA5ADE4F9B
:10137000C881D0E0D06432CFD06530CFDF70D06A82
:101380002DCFCF71D0E0DC2FCC27C16FD06A26CF14
:101390002C2F26952695277080E2289F90011124F6
:1013A0008C2F8370C1E0D0E002C0CC0FDD1F8A9586
:1013B000E2F7C22BD32BDC6811CF2C2F2695269574
:1013C000277040E2249F900111248C2F8370C1E08C
:1013D000D0E002C0CC0FDD1F8A95E2F7C22BD32BE1
:1013E000DA68FCCE8C2F8F710E945308C82FD0E092
:1013F000DC2FCC27CC27DF71D062F0CE8C2F8F7101
:101400000E94530835E0D695C7953A95E1F7CF701D
:101410009C2FEC01D069E2CE8D2F8F710E94530872
:1014200090E0982F882788279F719C012C2BE90139
:10143000E3CFC2EED0E0D2CEC0EED0E0CFCEC6EE4B
:10144000D0E0CCCEC5E3D0E0C9CE80915F03882345
:1014500031F010925F0310925E0310925D030895C5
:10146000809590913E05982390933E050895909124
:1014700043019923D1F09091820597FF16C0E82F80
:10148000E695E695E695EE31E0F4F0E0EC53FD4F9D
:10149000282F277081E090E001C0880F2A95EAF795
:1014A00080959281892382830895E6ECF2E0919100
:1014B000891303C0DF0111971C9292E0EC3CF907FD
:1014C000B1F7089580913C0390910B03981301C0EC
:1014D00008958F5F8770FACF292F953078F58F3078
:1014E00068F590E03FE0239F800D911D1124682F47
:1014F000677023E0969587952A95E1F7FC01EE0F3A
:10150000FF1FE80FF91FE951FD4F50E040E080E078
:10151000219130E0062E02C0369527950A94E2F715
:1015200021703327042E01C0220F0A94EAF7822B80
:101530004F5F5F4F4330510559F7089580E008959C
:10154000292F953098F58F3088F590E03FE0239F64
:10155000800D911D1124282F277041E001C0440FF8
:101560002A95EAF723E0969587952A95E1F7FC01FD
:10157000EE0FFF1FE80FF91FE951FD4F30E020E0AB
:1015800070E05191DF011197CB01022E02C09695B8
:1015900087950A94E2F781708195852784238527B2
:1015A0008C932F5F3F4F2330310559F70895809377
:1015B0007E05089580917E05982F9670963021F4CF
:1015C00088600E94D70A0895877FFBCF21E030E032
:1015D00001C0220F8A95EAF7209580917E0582232B
:1015E0000E94D70A08959091810580958923809360
:1015F0008105282F2770B1F4282F082E000C330BFB
:101600009217130679F09091830592FF0BC0859590
:10161000859585950E94E60A1092810510928005B5
:1016200010927F05089521E030E001C0220F8A95D5
:10163000EAF780917E05822B0E94D70A0895809355
:1016400060030895982F92959F7011F0892F94E070
:10165000282F2695269511F09E5F822F869509F0FA
:101660009F5F892F08959C013A9521153F4150F5C0
:10167000FC01EE27F170BC0166277270AC014427B3
:1016800054709C012227387094FF0EC080E1EF2B2C
:1016900009F480E0672B09F08062452B09F0806433
:1016A000232B89F08068089581E0EF2B09F480E016
:1016B000672B09F08260452B09F08460232B19F019
:1016C0008860089580E0089580910701833019F4BF
:1016D00082E00E94E60A089580910501833019F4A2
:1016E00081E00E94E60A109205010895FC019281B2
:1016F000913029F4858180FF06C083E008959230FF
:1017000021F081E0089582E0089584E008950F9328
:101710001F93CF93DF938B01EA0190917105943071
:1017200061F58093E9008FEF9091E800815095FD7D
:1017300006C095ED9A95F1F700008111F5CF8091E3
:10174000E80085FF1AC00E941804811111C0809121
:10175000E80085FD06C08091E8008E778093E80060
:10176000F2CFF80181918F018093F100219779F7F1
:101770008091E8008E778093E800DF91CF911F91F0
:101780000F91089543E050E0BC0184E00E94870B74
:10179000089546E050E0BC0184E00E94870B089564
:1017A000CF93DF93EC0180914301811111C048E098
:1017B00050E0BE0181E00E94870B80E2FE01AFE4B1
:1017C000B5E001900D928A95E1F7DF91CF910895F0
:1017D0008091820587FF05C040E284E050E0BE01B1
:1017E000EACF48E081E0FACF81E08093E00080E238
:1017F0008093D8001092C9008FE19EE40197F1F721
:1018000000C0000087E090EBDC018093840590939A
:101810008505A0938605B093870588E19CE00FB607
:10182000F894A895809360000FBE90936000FFCF5E
:10183000CF93DF93CEE7D2E060E0CE010E946A2B27
:101840002196C11584E0D807B9F7DF91CF910895AB
:101850001F93CF93DF93122F8430E0F46530D0F4E0
:101860004F30C0F4C42FD0E0CC0FDD1F9EE1699F44
:10187000C00DD11D112496E9899FC00DD11D1124E1
:10188000632FCE0186960E946A2B612FCE01879628
:101890000E946A2BDF91CF911F910895AF92BF9262
:1018A000CF92DF92EF92FF921F93CF93DF9380E866
:1018B000C82E84E0D82ED0E07601C0E014C0F50137
:1018C00025913491412F6C2F8D2F0E94280C82E09E
:1018D000A80EB11C1F5F1F3091F78EE1E80EF11CBE
:1018E000CF5FC53019F0570110E0E9CFDF5F86E91F
:1018F000C80ED11CD43001F7DF91CF911F91FF901A
:10190000EF90DF90CF90BF90AF900895CF93C82F06
:101910006FEF811162E282E290E00E946A2B6FEF2A
:10192000C11162E183E290E00E946A2B6FEFC11166
:1019300067E184E290E00E946A2BCF91089580E0F5
:101940000E94860C60E085E290E00E946A2B0E9473
:101950004E0C0E94180C81E00E94860C08950F9393
:101960001F93CF93DF93843030F5653020F54F30EF
:1019700010F5C42FD0E0CC0FDD1F2EE1629FC00D0B
:10198000D11D112436E9839FC00DD11D1124CE0134
:1019900086960E944C2B082F10E0102F0027CE01B6
:1019A00087960E944C2B9801282BC901DF91CF917B
:1019B0001F910F91089590E080E0F8CF462F753089
:1019C00040F46F3030F4843020F4672F0E94AF0C65
:1019D000089590E080E00895CF92DF92FF920F93F8
:1019E0001F93CF93DF936C0100917E05809160037C
:1019F000082BC7E0D0E010E0FC2EC8010C2E02C07E
:101A0000959587950A94E2F780FD0CC02197A0F781
:101A1000F12C8F2DDF91CF911F910F91FF90DF90CF
:101A2000CF900895B6018C2F0E94DE0C0E9496087C
:101A3000019761F3EECFCF93DF93EC010E94EC0CA2
:101A4000BE010E94DE0C0E949608DF91CF9108959E
:101A5000FC0183819481892B29F0808191818923E4
:101A60008F3F51F480E00895843FE1F717C0883E2E
:101A7000A8F0813FB9F712C0808191810E941B0DAF
:101A800092959F70963099F358F4925F9F709230C0
:101A900048F7803F19F040F7883E20F781E008952D
:101AA0009A5FF4CFA5E0B0E0E8E5FDE00C94D42A1D
:101AB00049835A8389819A81662399F0222389F088
:101AC0000E94EC0C182F682F89819A810E94A00A2D
:101AD00069817A81812F0E94DE0C2596E3E00C94C7
:101AE000F02A0E946C0A182FF3CF82E290E00E9445
:101AF0004C2B823289F483E290E00E944C2B82319D
:101B000059F484E290E00E944C2B91E0873109F077
:101B100090E0892F8170089580E0FCCFA4E0B0E0D0
:101B2000E4E9FDE00C94D22AF62E042F122F833420
:101B3000910570F5880F991F880F991FBC016C588B
:101B40007C4F44E050E0CE0101960E941D2B89811C
:101B50008370EA81282F30E040E9849FC00111247E
:101B60008C519C4FE80FF92FF11DB497F082EB8157
:101B7000E80FF92FF11DB4970083EC81E80FF92FDE
:101B8000F11DB49710832E513C4F81E0F901808301
:101B90002496E5E00C94EE2AFF920F931F93CF93C7
:101BA000DF93182F062FF42ED0E0C0E02F2D402F0A
:101BB000612FCE010E948E0D2196C334D105B1F75D
:101BC000CDB7DEB7E5E00C94EE2A0F931F93CF93C9
:101BD000DF93082F000FEB0114E21093CE03EFEC1C
:101BE000F3E0DE018D91819383E0EF3DF807D1F7BB
:101BF00024E630E041E150E06EEC73E0802F0E947B
:101C0000902A105F6096143B41F7DF91CF911F91AE
:101C10000F9108958091E203882329F064EE73E028
:101C200084E70E94E50D1092E2038091E30388238C
:101C300029F064E774E087E70E94E50D1092E30362
:101C40000895EEECF3E06083418324E630E042E067
:101C500050E0BF01880F0E94902A0895EF92FF92F2
:101C60000F931F93CF93DF93E82E062F10E0085DAC
:101C70001A4FF8018081882381F0F2E16F9FE00123
:101C80001124CC5FDA4FF12C49916F2D8E2D0E94DB
:101C9000210EF39482E1F812F7CFF8011082CDB74C
:101CA000DEB7E6E00C94ED2ACF93DF93C82F4BE02C
:101CB0006DEF0E94210E40E06AE08C2F0E94210E01
:101CC0008FE39CE90197F1F700C0000040E060E07D
:101CD0008C2F0E94210E40E061E08C2F0E94210E8B
:101CE00040E066E08C2F0E94210E40E06DEF8C2FCB
:101CF0000E94210ED0E040E06D2F8C2F0E94210E1B
:101D0000DF5FD231C1F740E06D2F8C2F0E94210E92
:101D1000DF5FD432C1F740E06D2F8C2F0E94210E7F
:101D2000DF5FD43BC1F74BE06DEF8C2F0E94210E9B
:101D300041E06AE08C2F0E94210E40E06DEF8C2F75
:101D40000E94210EDF91CF910895A4E0B0E0EBEA6C
:101D5000FEE00C94C92A0E94F02984E70E94540EE8
:101D600087E70E94540E04E713E052E1752E68E005
:101D7000C62ED12CEE24E394F12C6624639444E027
:101D800050E0B801CE0101960E941D2B4A8150E01F
:101D9000CA0184972B81622F6452770B4B012C81EF
:101DA000E22FE452FF0B5F012981237030E0FC0138
:101DB00097FD379643E0F595E7954A95E1F7729ED2
:101DC000A001739E500D11244C5F5A4FE40FF52F64
:101DD000F11DB6010E94FC2AA70101C0440F8A959B
:101DE000EAF78081842B8083F40197FC379693E097
:101DF000F595E7959A95E1F7729EC001739E900D57
:101E000011248C5F9A4FE80FF92FF11DC401B60120
:101E10000E94FC2AA70101C0440F8A95EAF780813D
:101E2000842B8083F501B7FC379683E0F595E79521
:101E30008A95E1F7729EC001739E900D11248C5F0C
:101E40009A4FE80FF92FF11DC501B6010E94FC2A37
:101E5000A70101C0440F8A95EAF78081842B808313
:101E6000285D3A4FF90160820C5F1F4FF4E00038A3
:101E70001F0709F084CF60E084E70E942E0E61E026
:101E800087E70E942E0E2496EEE00C94E52A46E0A9
:101E900050E06CE170E088EC93E00E945A2B1092C5
:101EA000C70308954F925F926F927F928F929F9295
:101EB000AF92BF92CF92DF92EF92FF92CF93C090FA
:101EC000BE03D090BF03E090C003F090C1038FB772
:101ED000F894409048055090490560904A057090EC
:101EE0004B058FBF530142018C189D08AE08BF08F7
:101EF0000E9456056093BE037093BF038093C00396
:101F00009093C103A0919503E5E9F3E02A2F30E017
:101F10004FEFC40ED41EE11CF11CC418D508E6080E
:101F2000F708A31329C0209395032091C603C0E0AE
:101F3000211108C02091C803C22FC37019F0C22F0D
:101F4000C695C695209142012130B9F1222339F17D
:101F5000223009F471C0233009F479C0CF91FF9089
:101F6000EF90DF90CF90BF90AF909F908F907F9039
:101F70006F905F904F900895418D528D2A01712C82
:101F8000612CC414D504E604F70420F421503F5F0B
:101F90003296C7CF480D591D528F418FF8CF1092FE
:101FA0003F016093C2037093C3038093C403909373
:101FB000C50381E080934201D1CF8C2F0E9401079D
:101FC000CC2361F20E94E10581FF07C02FEF4FEFA4
:101FD0006FEF8EE190E00E948E0D80917E050E9451
:101FE000220B8130F9F0882349F0823009F18330E7
:101FF00009F0B4CF47E760E08EEE17C00E94E1051C
:1020000081FF08C02BEB46E660E08DE390E00E9484
:102010008E0DA4CF21E040E060E090E080E00E94DF
:1020200081069CCF41E16CEC8AEA0E94FE0696CFC5
:1020300040E069E98FEFF9CFC0933E018091C8037A
:10204000837080933D010E940A0E83E0B3CF80919C
:10205000C70381110E94470F4091C2035091C303EF
:102060006091C4037091C5032FB7F894809148051F
:1020700090914905A0914A05B0914B052FBF841B53
:10208000950BA60BB70B4A97A105B10508F466CFCF
:102090001092420163CFE8ECF3E085E08083809109
:1020A000440190914501A091460181839283A383CD
:1020B0008FE784838FEF85830E94470F0895909167
:1020C000830592FB222720F9281779F080FB92F9EB
:1020D00090938305609182057091830584E090E080
:1020E0000E94882B82E00E94F30A089590E080E02D
:1020F0000E94542B873E9E4F19F40E94750D08953F
:1021000080E0089567EE7EEF90E080E00E94882BEB
:1021100060E082E090E00E946A2B60E083E090E063
:102120000E946A2B1092600360E074E184E090E00A
:102130000E94882B60E086E090E00E946A2B6FEF9F
:1021400087E090E00E946A2B40E050E0BA0188E00E
:1021500090E00E947C2B60E08DE090E00E946A2B72
:1021600040E050E0BA0188E190E00E947C2B60E002
:1021700087E190E00E946A2B40E050E0BA018CE1D8
:1021800090E00E947C2B70E060E080E290E00E9492
:10219000882B40E050E0BA0188E190E00E947C2B5F
:1021A00080E00E94860C0E949F0C40E050E0BA0143
:1021B0008FE090E00E947C2B40E050E0BA0183E188
:1021C00090E00E947C2B08951F920F920FB60F9201
:1021D00011242F933F934F935F936F937F938F932C
:1021E0009F93AF93BF93EF93FF938091E10082FFA2
:1021F00009C08091E20082FF05C08091E1008B7FE1
:102200008093E1008091DA0080FF24C08091D800A3
:1022100080FF20C08091DA008E7F8093DA00809169
:10222000D90080FF9DC080E189BD82E189BD09B4EC
:1022300000FEFDCF81E08093710580914C058111F6
:1022400009C00E94F9030E949A048091E200846010
:102250008093E2008091E10080FF17C08091E2004E
:1022600080FF13C08091E2008E7F8093E200809116
:10227000E20080618093E2008091D80080628093C8
:10228000D80019BC85E0809371058091E10084FF3E
:102290002BC08091E20084FF27C080E189BD82E1EC
:1022A00089BD89B5982F917080FFFBCF8091D800B0
:1022B0008F7D8093D8008091E1008F7E8093E10034
:1022C0008091E2008F7E8093E2008091E200816045
:1022D0008093E20080917205882309F447C084E06E
:1022E00080937105809171058091E10083FF27C083
:1022F0008091E20083FF23C08091E100877F80937B
:10230000E10082E080937105109272058091E100F6
:102310008E7F8093E1008091E2008E7F8093E200C7
:102320008091E20080618093E20042E060E080E022
:102330000E9468048091F00088608093F000FF9113
:10234000EF91BF91AF919F918F917F916F915F912D
:102350004F913F912F910F900FBE0F901F901895A6
:1023600019BC1092710510924C0574CF8091E30056
:1023700087FD93E090937105B5CF78941F921FB6B7
:102380001F9211248F939F93AF93BF938091480521
:1023900090914905A0914A05B0914B050196A11D68
:1023A000B11D8093480590934905A0934A05B093C9
:1023B0004B05BF91AF919F918F911F901FBE1F90B2
:1023C00018959C014FB7F894809148059091490564
:1023D000A0914A05B0914B054FBF821B930B089506
:1023E0002FB7F8948091480590914905A0914A052E
:1023F000B0914B052FBF08959091830592FF10C0B7
:1024000098E0899F900111242360209381050E9408
:10241000130B0E94F0119093800580937F0508951F
:102420000E94130B08950E94760B8093070183305E
:10243000A1F0843041F0823099F40E94FC1181E0D7
:102440000E94F30A089580917E05882331F082FF6F
:1024500004C082E00E94E60A089582E00E94130B05
:1024600008950E94F0119C01909191038091920334
:10247000982B21F030938E0320938D03909193033A
:1024800080919403982B21F030938C0320938B033D
:10249000E0914305F0914405309749F082E0809344
:1024A0008F030480F581E02D8FE893E0099508956E
:1024B000662309F45DC08D3C41F40E941A088195A1
:1024C000809392030E94311208958E3C19F40E9469
:1024D0001A08F6CF8F3C31F40E941A088195809338
:1024E0009103F0CF803D19F40E941A08F8CF893D7E
:1024F00029F40E94F80780939303E4CF8A3D21F4E6
:102500000E94F8078195F7CF8B3D31F40E94F807C0
:10251000819580939403D6CF8C3D19F40E94F807DF
:10252000F8CF9FE2980F983070F4815D990B21E00D
:1025300030E001C0220F8A95EAF780919003822B48
:1025400080939003BFCF8D3D31F480918A038160E9
:1025500080938A03B7CF8E3D21F480918A038260F5
:10256000F7CF8F3D09F0AECF80918A038460F0CF22
:10257000409191038D3C59F48091920387FF0DC0E7
:102580001092920341110BC01092880308C08E3C38
:1025900081F48091920318169CF3442381F080917A
:1025A000930390919403892B09F08CCF10928903A7
:1025B00089CF8F3C49F447FFF0CF1092910380916F
:1025C00092038111ECCFE0CF803D19F41416ACF3E7
:1025D000E4CF90919303893D29F41916F4F61092F3
:1025E0009303DBCF8A3D19F497FFD7CFF8CF9091B3
:1025F00094038B3D29F497FFD0CF10929403CDCF55
:102600008C3D19F41916CCF3C8CF9FE2980F98307F
:1026100090F4815D990B21E030E0B90102C0660FB2
:10262000771F8A95E2F7CB018095909190038923DB
:1026300080939003B2CF8D3D31F480918A038E7FD9
:1026400080938A03AACF8E3D21F480918A038D7FE7
:10265000F7CF8F3D09F0A1CF80918A038B7FF0CF18
:10266000AAE0B0E0E6E3F3E10C94CB2A8E010F5F21
:102670001F4F8AE0F80111928A95E9F79BE8E92E4D
:1026800091E0F92E6801AA24A394B12CF70181915D
:102690007F018F3F09F446C0F894E82FE295EF7070
:1026A000F0E021A18F70A50102C0440F551F8A954B
:1026B000E2F7CA01922F982B91A392A180958923CA
:1026C00082A3789400C0E0E9F1E021E030E0912CB1
:1026D000812C41914F3F09F467C0A42FA295AF70A0
:1026E000B0E090968C9190E04F7002C095958795E0
:1026F0004A95E2F780FD58C0C901882A992A220F1D
:10270000331F51E0EF39F50721F7F7013197808149
:102710008F3F11F00E943C0880EA8A95F1F7F6019C
:1027200091828082F2E0CF0ED11C40E9E41641E0B4
:10273000F40609F0ABCF4AE050E0B80184E693E03C
:102740000E94262B892B99F18AE0F801A4E6B3E0D8
:1027500001900D928A95E1F781E0809363030E94D6
:10276000F0119093620380936103809161039091D3
:1027700062030E94E1110397F0F04AE050E064E642
:1027800073E08EE793E00E94262B892BC9F08AE044
:10279000E4E6F3E0AEE7B3E001900D928A95E1F74D
:1027A00081E01092630308C090E080E0A6CF8091A2
:1027B00063038111DACF80E02A96ECE00C94E72ADB
:1027C00080E0EFCFCF9380913E0590913D05892B1E
:1027D0008093C40280915F03882339F10E94F01135
:1027E00020915D0330915E03821B930B8C3D9540DD
:1027F00010F00E94250A8091C40290915F03892BFA
:102800008093C40280914301882309F447C08091DA
:10281000820587FF43C08EE1E6ECF2E090E0815054
:1028200008F03EC091110E94250AC0913605C0955E
:102830008091C402C82380913705C82BC093C4027D
:1028400040E250E06DE373E084EC92E00E94262BBE
:10285000892B11F180E2E4ECF2E0ADE3B3E001900A
:102860000D928A95E1F7E0914305F0914405309788
:1028700099F080914301882349F08091820587FF78
:1028800005C0C093C50286E08093C4020280F38134
:10289000E02D84EC92E00995CF91089586E0BCCFBD
:1028A0002191222309F4BBCF9F5FB9CFCF93DF9350
:1028B000EC01EA85FB85309719F06C857D850995DB
:1028C0008B81982F909580913D05892380933D05BC
:1028D0008C810E94300A0E94E21386E0FE01119270
:1028E0008A95E9F7DF91CF910895CF93DF93EC01BB
:1028F0008D8181FD18C082608D8380913D059B8113
:10290000892B80933D0580913E059C81892B809386
:102910003E050E94E213E885F985309721F06C8529
:102920007D85CE0109951092400510923F058D815D
:1029300080FD03C0CE010E945614DF91CF9108950F
:1029400010923E0580914301E6ECF2E0882329F1E4
:102950008091820587FF21C08EE1DF011D928A955B
:10296000E9F790E080E00E94BC0590E080E00E94E2
:10297000970510923D050E94E21386E0EFE8F3E030
:10298000DF011D928A95E9F710928803109289035E
:1029900010928A030E943112089586E0DECFAAE2E7
:1029A000B0E0E5EDF4E10C94D42A83E795E02091C2
:1029B000F100DC012D93CD01B5E08B379B07B9F712
:1029C00080917405833009F472C0B8F4813009F441
:1029D00049C0823009F4B3C08091E80083FF8BC204
:1029E00080917305909174059A3008F084C2E92FA4
:1029F000F0E0E057F44D0C94102B8A3009F48EC0AF
:102A00008B3009F471C0893039F7809173058132B8
:102A100019F78091770590917805009711F002974A
:102A2000D9F68091E800877F8093E8008091E800E4
:102A300082FF38C09091F3008091F200029731F448
:102A40008091F100813011F0863021F48091F10005
:102A500080934E058091E8008B778093E8000E9478
:102A60004904BACF80917305813A09F0B5CF8091BE
:102A7000E800877F8093E800809177059091780542
:102A8000892B61F460E28FE495E070E00E94F50428
:102A90008091E8008B778093E8009ECF60E090E023
:102AA00080E0F3CF809171058111C0CF95CF8091E7
:102AB0007305813A09F090CF809177059091780560
:102AC000892B09F089CF8091E800877F8093E80007
:102AD0008091E80080FFFCCF809143018093F1005A
:102AE0008091E8008E77B9CF80917305813209F02B
:102AF00073CF8091770590917805892B09F06CCF81
:102B00008091E800877F8093E8000E9449048091CB
:102B10007505809343010E94A0145ECF80917305D8
:102B2000813209F059CF8091E800877F8093E800D7
:102B30000E9449048091760580934D054DCF809188
:102B40007305813A09F048CF8091E800877F809330
:102B5000E8008091E80080FFFCCF80914D05BECF5A
:102B6000803899F0823809F0C6C1809177058F705E
:102B7000873008F0C0C18093E9008091EB0085FBAD
:102B8000882780F91092E90006C080916F05909126
:102B90007005911182609091E800977F9093E80012
:102BA0008093F1001092F1008091E8008E779FC130
:102BB000882309F48DC1823009F09DC1809175058B
:102BC000811190C1809177058F702FEF280F2630EB
:102BD00008F091C18093E9002091EB0020FF82C1B1
:102BE000933031F48091EB0080628093EB007AC1E6
:102BF0009091EB0090619093EB0021E030E001C0F8
:102C0000220F8A95EAF72093EA001092EA00809159
:102C1000EB008860EACF81116EC1109175051F77B6
:102C20008091E3008078812B8093E3008091E8001D
:102C3000877F8093E8000E9449048091E80080FF2C
:102C4000FCCF8091E30080688093E30082E0111163
:102C500083E0809371054FC18058823008F04BC1EA
:102C600020917505309176052C3DE3E03E07A1F5F6
:102C700083E08A838AE289834FB7F894DE01139652
:102C800020E03EE051E2E32FF0E050935700E49162
:102C900020FF03C0E295EF703F5FEF708E2F90E052
:102CA000EA30C0F0C7968D939D932F5F243159F77A
:102CB0004FBF8091E800877F8093E8006AE270E070
:102CC000CE0101960E94F5048091E8008B778093F5
:102CD000E80011C1C096E7CF809177059091780503
:102CE000432F55274330510509F44AC078F5413048
:102CF000510509F47AC08BE590E0E8EDF6E042304A
:102D0000510509F0F8C02091E800277F2093E800E2
:102D10002091790530917A058217930708F49C0178
:102D200040E02115310509F065C0411163C0809173
:102D3000E80082FDC9CF80917105882329F2853092
:102D400019F28091E80083FFF2CFBECF41325105E6
:102D500009F43CC04232510509F0CDC083309105E1
:102D600008F0C9C0FC01EE0FFF1FEA54FD4F0190AF
:102D7000F081E02D8D549D4FDC018C9190E01AC0C4
:102D8000332721303105D1F02115310561F0223092
:102D9000310509F0B0C0E5E4F7E0E4918E2F90E052
:102DA000E5E4F7E007C0E9E7F7E0E4918E2F90E073
:102DB000E9E7F7E0009709F49EC0A5CFE7E6F7E062
:102DC000E4918E2F90E0E7E6F7E0F4CF83309105B1
:102DD00008F091C0880F991FFC01E454FD4F019049
:102DE000F081E02D89E090E08ECF82E190E0E3E396
:102DF000F7E089CF80917105882309F465CF85308C
:102E000009F462CF8091E80083FD5ECF8091E800F5
:102E100082FD8DCF8091E80080FF83CF9091F300F9
:102E20008091F2002115310519F08830910550F09C
:102E300041E0089709F040E08091E8008E778093A8
:102E4000E8006FCF44914093F10031962150310951
:102E50000196E8CF803809F04EC08091E800877F66
:102E60008093E800809172058093F1009DCE8111DE
:102E700042C0109175051230F0F58091E800877F0F
:102E80008093E800109372050E944904112311F009
:102E900084E005C08091E30087FDFACF81E0809354
:102EA000710542E061EC81E00E94680442E261EC5D
:102EB00084E00E94680442E261EC82E00E946804BF
:102EC00042E260EC83E00E9468048091710513C0C7
:102ED00080917505813079F481E0933009F080E0CC
:102EE000809370051092E9008091E800877F8093BD
:102EF000E8000E9449048091E80083FF0AC08091A5
:102F0000E800877F8093E8008091EB0080628093E7
:102F1000EB00AA96E3E00C94F02A1F920F920FB6F2
:102F20000F9211242F933F934F935F936F937F934F
:102F30008F939F93AF93BF93CF93DF93EF93FF93C1
:102F4000D091E900DF708091EC00C82FC17080FD46
:102F5000C0E81092E9008091F000877F8093F00034
:102F600078940E94CF141092E9008091F00088605C
:102F70008093F000CD2BCF70C093E900FF91EF91CB
:102F8000DF91CF91BF91AF919F918F917F916F9181
:102F90005F914F913F912F910F900FBE0F901F9017
:102FA00018950E94A0142FEF84E39CE021508040EC
:102FB0009040E1F700C0000088E19CE00FB6F89473
:102FC000A895809360000FBE90936000FFCF882388
:102FD00039F090913D05982B90933D050E94E213A6
:102FE0000895882321F00E94300A0E94E213089578
:102FF000882339F090913E05982B90933E050E94CE
:10300000E2130895882381F19CEF980F913A28F4F8
:103010000E94370A0E94E213089590E2980F9830B8
:1030200050F4877091E001C0990F8A95EAF7892FD3
:103030000E94300AEFCF9BE5980F933028F490E080
:1030400080E00E94BC05089598E5980F993128F416
:1030500090E080E00E949705089593E3980F9331E4
:1030600018F460E00E9458120895FF920F931F9386
:10307000CF93DF93F82E00913B0510913C0501158D
:10308000110509F449C010923A05109239051092C1
:10309000360510923705D8011696CD91DC919E0128
:1030A0003A9521153F4108F4D07ED1E0C11101C00D
:1030B000D0E0D8011996ED91FC911A97309731F034
:1030C0001B966D917C9180E00995D823DD2339F022
:1030D0008CEF8C0F813A30F58C2F0E94370AFF203D
:1030E00099F0E0913B05F0913C05808584FD0CC092
:1030F00080913805882341F0808191819C01215085
:1031000031092F3F3D47A0F00E94E21310923C0589
:1031100010923B0510923805C801CDB7DEB7E5E047
:103120000C94EE2A0E94E2138C2F0E940218D7CF33
:103130000E94EE05E9CF80910901833019F485EEF4
:103140000E9402180895CF93C82F8823C1F18CEFF5
:103150008C0F813AB0F580914301882301F1809171
:10316000820587FF1CC0EC2FE695E695E695F0E01A
:10317000EC53FD4F828190E04C2F477021E030E00E
:1031800002C0220F331F4A95E2F782239323892B33
:1031900079F08C2F0E94370A0E94E21309C0E6ECF6
:1031A000F2E08191C817A9F382E0EC3CF807C9F777
:1031B0006C2F84EC92E00E9462050E94E213CF9192
:1031C000089580E28C0F883068F4C77021E030E009
:1031D00001C0220FCA95EAF780913E05822B8093A9
:1031E0003E05EBCFEBE5EC0FE33040F4F0E0EA5ABC
:1031F000FE4F808190E00E94BC05E1CFE8E5EC0F36
:10320000E93150F4F0E0EE0FFF1FE75AFE4F8081E6
:1032100091810E949705D3CF83E38C0F833178F699
:1032200061E08C2F0E945812CACF1F93CF93DF9377
:10323000182FD0E0C0E0893311F4C0E5D0E0812F31
:103240000E94A318209739F4812F0E940218DF9161
:10325000CF911F9108958FE99FE00197F1F700C08A
:1032600000002197EFCF0F931F93CF93DF93C62FCB
:10327000D42F022FFC0182818823A9F060937D0561
:103280000E94F01190937C0580937B05C77081E0CC
:1032900001C0880FCA95EAF70E94F817DF91CF9115
:1032A0001F910F91089580917D05681332C0809120
:1032B0007B0590917C050E94E111883C910548F5C1
:1032C00010E21D0FCD17B9F080E28C0F883040F46A
:1032D000C77081E001C0880FCA95EAF70E94F11714
:1032E000183048F481E09D2F977001C0880F9A959F
:1032F000EAF70E94F817802F0E941519183070F60F
:10330000D77081E001C0880FDA95EAF70E94F117C3
:10331000C5CFC77081E001C0880FCA95EAF7F6CF24
:103320000E94760B80930501833091F0843031F058
:10333000823089F489E30E941519089580917E05F1
:10334000882331F081FF04C081E00E94E60A0895DD
:1033500081E00E94130B08950E94760B809309016F
:10336000833059F0843069F08230C1F483E00E94E8
:10337000FC1181E00E94F30A089585EE0E94A318D3
:10338000089580917E05882331F083FF04C083E097
:103390000E94E60A089583E00E94130B0895ABE0B3
:1033A000B0E0E5EDF9E10C94C52A8C01DC0113963F
:1033B0008D919C911497892B49F04C9111965C91B9
:1033C0001197842F85238F3F09F093C62B96E2E156
:1033D0000C94E12AA114F4E0BF0699F1C5010E9402
:1033E0004C2B811101C0EA942FEFA21AB20AD5C664
:1033F0005601843009F006C752E0E52EF12C560143
:103400002FEFA21AB20AC6010E944C2BE1E0F0E0B5
:10341000EC0FFD1FEE0DFF1D8083882391F08C378C
:1034200041F4E2E0F0E0EC0FFD1FEE0DFF1D108215
:10343000E9C63FEFE31AF30A650187E0E816F104F5
:10344000F1F680918105877009F4C0CFD8011296FA
:103450008C91882309F4BACF8091830582FFB6CF7F
:1034600082E00E94F30AB2CF5701CCC6923049F4F1
:1034700022E0E20EF11C0E94A318EFEFEE1AFE0A02
:10348000C4C6933031F432E0E30EF11C0E940218FE
:10349000F4CF943021F08FEFE81AF80AEECF92E0E3
:1034A000E90EF11C30E020E0B7016F5F7F4FD701DC
:1034B00011964C918053990B8A30910550F0215010
:1034C0003109D8F2EFE9FFE03197F1F700C00000D1
:1034D000F6CF429EF001439EF00D11249C012E0F69
:1034E0003F1F842F7B01E0CFE22FF0E0EC50FE4F36
:1034F0005490822F86958695869590E0FC01EC513C
:10350000FE4F64902770712C022E02C07594679450
:103510000A94E2F731E063227724FC01EC52FE4F7B
:103520008490912C022E02C0959487940A94E2F71D
:10353000A1E08A229924FC01EC53FE4FC490D12CC7
:1035400002C0D594C7942A95E2F7B1E0CB22DD24DE
:103550006114710419F081EE0E94A3188114910482
:1035600019F086EE0E94A318852D0E94151981146A
:10357000910419F086EE0E9402186114710419F08A
:1035800081EE0E940218C114D10409F476CF8CE2B6
:103590004BC681E00E94130B0E94DA0A52CF81E0F1
:1035A0000E94E60AF9CF82E0F5CF82E0F9CF81E010
:1035B00080930A0146CF8095482225C5552009F4FD
:1035C00086C4F092E502E092E4020E945605609300
:1035D000320570933305809334059093350510922E
:1035E0003A05109239050FC582FB882780F94EC530
:1035F000552001F181704AC50E9402185DC60497EA
:10360000813A910558F46A2D84EC92E00E9462059B
:10361000552009F40FC40E94E21313CF0E94E21355
:103620008FE39CE90197F1F700C000008A2D0E940A
:10363000A318EECF99859F5F9987FDC4FC01208177
:103640003181E216F30609F0EEC35110EEC3109279
:10365000380580E00E943518EDC39E2D8F2D32C4B1
:10366000F901858181FF5EC4C9010E9456145AC4C4
:1036700026E241EE61EEC8010E943319E2CE27E254
:1036800045EE65EEF8CF26E241EE60EEF4CF27E29C
:1036900045EE64EEF0CF26E241EE62EEECCF27E29B
:1036A00045EE66EEE8CF28E241E0EBCF809182055F
:1036B00081608093820595C08091830588608093A6
:1036C00083058FC0809182058260F3CF809182054F
:1036D0008460EFCF809182058860EBCF8091830575
:1036E0008160EDCF809183058260E9CF8091820572
:1036F0008061DFCF809182058062DBCF809182057F
:103700008064D7CF0E94A014809182058068D1CFB9
:10371000809182058C60CDCF809183058360CFCF6F
:10372000809182058E7FC5CF80918305877FC7CF2B
:10373000809182058D7FBDCF809182058B7FB9CF2F
:1037400080918205877FB5CF809183058E7FB7CF2B
:10375000809183058D7FB3CF809182058F7EA9CF25
:10376000809182058F7DA5CF809182058F7BA1CF2F
:103770000E94A014809182058F779BCF8091820553
:10378000837F97CF809183058C7F99CF809182052D
:1037900082FB992790F921E0922790FB82F990FB18
:1037A00083F987CF80918305982F909591708E7FB4
:1037B000892B90FB81F983CF90918205892F8F7B94
:1037C00096FF806476CF0E94A01490918205892F85
:1037D00097FB87F980586DCF61E08EE090E00E9402
:1037E0006A2B609182057091830584E090E00E94CD
:1037F000882B0E94A01425CE60E0EFCF9091820527
:10380000892F8F7E94FF806154CF90918205892FFC
:103810008E7F90FF81604DCF90918305892F877FA8
:1038200093FF88604CCFB6E1EB16BCE7FB0609F0CE
:103830006DC080913E05982F9474A9F4982F9A7AC0
:10384000817109F090E0222381F081E0911101C0A3
:1038500080E08093E60269E2911165E384EC92E0F6
:103860000E946205D8CE90E0EBCF8091E6028111F4
:1038700004C089E20E94370ACECE85E3FBCF809157
:10388000C80391E089278093C80310924201809178
:10389000C70381608093C703D4CD4EEE56E069EF35
:1038A00076E00E945F06CDCD49EF56E06EEE76E001
:1038B000F8CF49EC56E064ED76E0F3CF44ED56E006
:1038C00069EC76E0EECF4DEA56E06BEB76E0E9CFBF
:1038D0004BEB56E06DEA76E0E4CF41E956E06FE964
:1038E00076E0DFCF4FE956E061E976E0DACF45E6F2
:1038F00056E063E776E0D5CF43E756E065E676E04D
:10390000D0CF61E081E00E94DF069BCDE3E0EE16C0
:10391000ECE7FE0609F477C008F056C0E1142CE786
:10392000F20609F463C031E0E3163CE7F30609F45C
:1039300070C0F8018281E080F180882309F477C0AB
:10394000C7010E94EC0CD82E682FC7010E94A00A64
:10395000B7018D2D0E94DE0C0E9496087C01882EF6
:10396000D8011296DC9012971596BC90B2943FE065
:10397000B322809181058770C1F0AD2CDD20B1F0BC
:103980008F2D807F803421F080E28E0D883068F0AA
:103990008091830582FF09C082E00E94F30A809132
:1039A00081058770AA24A3948111A12C9F2C929445
:1039B0002FE09222BBE0B91508F4A8C0E92DF0E091
:1039C000E656F44D0C94102B8BE5E8168CE7F806C0
:1039D00061F19CE5E9169CE7F906E9F0AAE5EA162B
:1039E000ACE7FA0609F0A5CF81E01CC00E94A01444
:1039F000BFEFE4E3FCE0B150E040F040E1F700C08D
:103A000000000E94F40B6FEF7FEF90E080E00E94D7
:103A1000882B0E94D1178091830582FB882780F92B
:103A200091E089270E945F1084CF80E0FBCFC7011F
:103A30000E946C0AD82E8CCFEF2DEF70CE2E8F2DDA
:103A4000807F19F0C29490EFC922DD20B9F0CC201C
:103A500069F080E28E0D883010F0811009C08091ED
:103A60003E05C82AC0923E050E94E2138E2D4CC02E
:103A700080913D05C82AC0923D05F6CF8E2D0E944B
:103A80000218CC2009F442C080E28E0D883010F07C
:103A9000811004C08C2D0E94300A06C0C094809111
:103AA0003D05C822C0923D050E94E2132FC0FF2DA4
:103AB000FF70CF2E8F2D807F803219F0C29480EF5F
:103AC000C822882089F021E0821609F47DC0DD201B
:103AD00009F486C0BB2009F450C0F801858180FF3D
:103AE000C5CF8F70858349C09091830592FD3EC0FC
:103AF000DD20B1F1CC2039F080913E05C82AC0927A
:103B00003E050E94E21380E00E94A318292D285050
:103B1000330B2430310510F40E94E105AA20B1F0E6
:103B20008091810580FD12C0D80112961C92859566
:103B3000859585950E94130BC8010E94CF1980912D
:103B400081058595859585950E94E60A20E0F80116
:103B5000408151816281738184810E94520D36CCF3
:103B600080E00E940218CC2089F294CFDD20D1F0B1
:103B700080915F03C82AB11004C08C2D0E94F817F1
:103B8000C5CF31E0B312F9CF92FFC0CFC81609F408
:103B9000BDCF0E94F01190935E0380935D03C092AD
:103BA0005F03B4CFB11006C00E94250A8C2D0E947D
:103BB000F117ACCF81E0B81609F4A8CF8C2D0E9484
:103BC000F1170E94250AA2CFDD2029F092E09B1573
:103BD00008F49CCFD2CFA1E0AB1508F497CFE6CF85
:103BE000BB2021F3F9E38F1209C02FEF37EE83E0FA
:103BF000215030408040E1F700C000008E2D0E942F
:103C0000021884CF8F2D86958695837061F0813060
:103C100009F07CCFC7019370D11002C080E090E022
:103C20000E94970573CFC7019370D11002C080E046
:103C300090E00E94BC056ACF6D2D8E2D0E94581217
:103C400065CF8F2D837091F5D11060CF4E2D4295A9
:103C500046954770440F440F8E2D8F70042E01C07F
:103C6000880F0A94EAF72E2D2071E4FE07C02FE09A
:103C700030E001C0220F4A95EAF720953F2D369596
:103C800036953370323069F050F440916003313032
:103C900029F0822B84230E941F0B38CF842B822B88
:103CA000FACF282B809160038227F5CF8695DD20FF
:103CB00011F08F2D8170882309F428CF4E2D429565
:103CC00046954770440F440F8E2D8F70042E01C00F
:103CD000880F0A94EAF72E2D2071E4FE07C02FE02A
:103CE00030E001C0220F4A95EAF720953F2D369526
:103CF00036953370323069F050F440917E053130A2
:103D000029F0822B84230E94D70A00CF842B822B98
:103D1000FACF282B80917E058227F5CF9F2D9F70AB
:103D2000F92EDD2029F0892F0E94130B8E2D26CF2E
:103D30008E2D0E94F1178F2D0E94E60AE7CE8E2D60
:103D4000A2EF8A16B1F1A81570F0B0EF8B16D1F082
:103D5000E1EF8E1691F0DD2009F455C0B11086CE4A
:103D60008F2D8F712AC0F3EF8F1651F124EF82123D
:103D7000F2CF8091830582FD2FC08F2D8F71DD20C2
:103D8000D9F21BC0DD2081F031E03B1508F4BECE36
:103D90002F2D2F7181E090E001C0880F2A95EAF75E
:103DA00090917E058927AFCF82E08B1508F4AECEC7
:103DB000EFCF8F2D8F71D110BFCF0E94130BA6CEE6
:103DC00080E0DD2009F49FCF9F2D9F7181E001C02D
:103DD000880F9A95EAF797CFDD2051F09F2D9F71BC
:103DE000F92E892F0E94130B8F2D0E94FC118ECE6D
:103DF00081E00E94F30AA1E0AB1508F087CE82E0D3
:103E00000E94F30A83CEBB2059F0893309F0F6CE25
:103E1000BFEFE7EEF3E0B150E040F040E1F7ECCE69
:103E20008F2D8F7189CF552029F0DC0118968C9148
:103E300085FF0FCCC70197558F3F910511F008F012
:103E4000F6C15701BB24BEE0EB9EF00111249F0197
:103E50002D5E3E4F6901D80112968C91E85EFE4FAF
:103E6000908180FB90F99083882309F4F9CB0E941C
:103E7000F01190937C0380937B03F60182818F5F26
:103E8000828380913D0590913E05892B83838091AB
:103E90005F0384830680F781E02D309731F0D601EF
:103EA0001C966D917C91C60109958EE08A9DF0016A
:103EB0008B9DF00D1124ED5EFE4F858181FFCDCBF2
:103EC00090E080E090933F05809340052BC0809167
:103ED000E4029091E502E816F90681F41092E502F9
:103EE0001092E402109232051092330510923405BC
:103EF0001092350510923A051092390580913B05D4
:103F000090913C05009709F495CFA8E08A1691049A
:103F100008F094CB642D0E943F06811103C081E01C
:103F20000E943518D80112962C91222309F48AC1D7
:103F300010927D05C7019057839708F074CC84E0F8
:103F400090E00E94542B9093830580938205F701A3
:103F5000E150F047E232F10508F0A8CBEA55F44D04
:103F60000C94102BE114B7E7FB0609F412CBE1E047
:103F7000EE16E7E7FE0609F416CBFEE5EF16FCE7C2
:103F8000FF0609F414CB2FE5E2162CE7F20651F0F8
:103F90003DE5E3163CE7F306B1F480910A0188237E
:103FA00009F405CB10920A0180E00E94351849CA35
:103FB000E114F7E7FF0609F4F2CA21E0E21627E769
:103FC000F20609F4F2CA80910A01882309F432CF7B
:103FD000470180EE881A910840905F0380913E056A
:103FE000482A98E08916910408F0E8CA97012770DA
:103FF000332781E090E001C0880F2A95EAF7552029
:1040000009F4D9CA482AD8018D919C910E946C0A62
:1040100021E030E0390102C0660C771C8A95E2F796
:10402000E0913B05F0913C05FB87EA872090E40294
:104030003090E50219862985E22FF0E0EE0FFF1F90
:10404000E050FF4FC080D180C114D10409F456CF95
:10405000411005C0D60112968C918111EBCAF60170
:10406000838190E086219721892B09F4E3CA80851A
:10407000982F977009F487E0F8E08F16910408F004
:10408000B7CA552009F4B0CA86958170882309F40F
:10409000D1CAD601AD90BC90EA14FB0419F45520A6
:1040A00009F4C8CAEA85FB85CE16DF0609F4C2CA40
:1040B000D6011D96ED91FC91309721F080818823E7
:1040C00009F4B8CA642DC6010E943F06882309F48A
:1040D000B1CAEA14FB0409F0C9C0E114F10409F4FF
:1040E000CAC05110CAC0A214B30409F0A3CA512C0B
:1040F000C4C021E012966C91129713967C9113978D
:1041000014968C910E94520D7C01F80182818823C3
:1041100069F180913F0590914005009739F18E1526
:104120009F0521F1BEE08B9FC0011124FC01E85ED8
:10413000FE4F2081246020838D5E9E4FFC01F18222
:10414000E0820E94751410923D0521E0D8014C9147
:1041500011965C91119712966C91129713967C911F
:10416000139714968C910E94520D7C01F801528095
:10417000552009F41DCFC70182509747409708F09A
:10418000F1CE8FEF93E00E944C2B81115AC9EA9433
:10419000EA947EE7A72E72E0B72EE1101BC9FE015C
:1041A000339686E0DF011D928A95E9F76AE0462E94
:1041B0007501BFEFEB1AFB0AC5010E944C2B8983E6
:1041C0001A82882309F43DC9813009F04DC965017F
:1041D000E2E0CE0ED11CC7010E944C2B8A838823BB
:1041E00009F42FC99FEF980F933008F001C9F3E04D
:1041F000AF0EB11CC6010E944C2B8B83882309F49F
:1042000020C91C82DE0111967D01F7012081222345
:1042100079F2213009F068C991818281913009F0E9
:1042200025C9F2E0EF0EF11C0E94151926C9F7010D
:10423000E851FC47E730F10508F074CEE853F44D3F
:104240000C94102BF6E1EF16FCE7FF0609F4F1CA17
:1042500080913E058272F701E052F847E531F105A1
:1042600008F067CBE153F44D0C94102BA114B1046A
:1042700009F039CF512CB12CA12C80E00E943518C7
:10428000D0923C05C0923B0581E080933805D60171
:1042900015968C918093360551100EC0AB2861F0B5
:1042A000F601808191819C0124503109213A310528
:1042B00008F0A2C90E94370AD6011696AD90BC90AC
:1042C000C5019A9581159F4110F4E0EEBE22772436
:1042D0007394C50101978F3F9D4708F0712CD6015B
:1042E0001996ED91FC911A97309731F01B966D91CC
:1042F0007C9181E009957822772079F0F60186811A
:1043000097810E94330B80933705C501F8E08F1623
:10431000910408F074C90E94EE050E94E21378C966
:104320001F93CF93DF9380910A03807F09F049C0E8
:1043300080910703882309F444C080913C03D09105
:104340000B036091050370910603A0910803B091DF
:104350000903C62FC72316E0D81799F190E01097EC
:1043600011F0CF3F19F401968770F6CF189F900196
:10437000199F300D1124F901E45FFC4F418147136F
:10438000F2CF40814613EFCF42814111ECCF438100
:1043900054814A1B5B0B483C510528F780910A0366
:1043A0008F70806180930A03F901EF5EFC4F80817A
:1043B0008F708061808385E093E00E94CF190E9416
:1043C000620ADF91CF911F910895A1E1B0E0EBEE79
:1043D000F1E20C94CD2A8C0185E0F801DE011D96F6
:1043E00001900D928A95E1F7F801E28085E0A82E10
:1043F00083E0B82E6091080370910903611571057F
:1044000009F426C19091050340910603892F842366
:104410008F3F09F41DC120813181C380D480F09089
:104420000703F601E61BF70BFF2009F4DCC08091BF
:104430000A03582F507FE83CF10508F09FC0511146
:104440006BC0FE2C431314C0921312C0E11010C0B5
:104450008F70806180930A03C5010E94CF198091FB
:104460000A03F80185838F2D6196EAE00C94E92A0E
:10447000C114D10429F0822F83238F3F09F003C197
:1044800080E0F82FF170DF2E80FF3CC080913C036C
:1044900040910B0356E0841315C02D873E878D8510
:1044A0009E850E941B0D292F22952F702230F0F03F
:1044B000243018F59F70F1F0F8019581907FD1F4C8
:1044C000D12C1EC090E0589FF001599FF00D11248F
:1044D000E45FFC4F6181361306C06081261303C080
:1044E0006281E6120FC001968770D5CF9F7011F0E0
:1044F000882331F3805E883018F3C8010E94CF19F9
:10450000FD2CB1CFEE2009F4AECF80910A0381607B
:1045100080930A03F12CA7CF431306C0921304C063
:10452000F801EE2009F479C0C8010E94280D882303
:1045300009F1EE20F9F080910A03803270F02091A9
:1045400005033091060338872F831986DB86CA86D8
:104550008C87CE0107960E94CF1986E0F801A5E06E
:10456000B3E001900D928A95E1F70E949021FF241B
:10457000F39479CFC8010E94CF19F9CF51110AC025
:1045800085E093E00E94CF1986E0F50111928A95AB
:10459000E9F7C0CF43130FC092130DC0E1100BC059
:1045A000F8018583C8010E94CF1986E0F5011192B8
:1045B0008A95E9F758CFC8010E94280D8823D1F2C7
:1045C000EE20C1F280910A03803238F22091050377
:1045D000309106033A8329831B82DD82CC828E834D
:1045E000CE010196B8CFE83CF105F8F6FE2CEE209E
:1045F00009F243131FC092131DC080910A0380FD6E
:1046000010C0982F907F69F0F8018583903F31F0BA
:10461000982F907F905F8F70892B8583C8010E94AF
:10462000CF1986E0F801A5E0B3E001900D928A95DC
:10463000E1F719CFC8010E94280D81118ECF80911A
:104640000A03816080930A03C8010E94CF190BCF2F
:10465000EE2009F48FCFC8010E94280DF82E882380
:1046600009F488CF86E0F801A5E0B3E001900D924F
:104670008A95E1F780910503909106030E941B0D36
:104680000E949021F0CE81E08E25FBCEA7E1B0E024
:10469000ECE4F3E20C94D42A4B8B5C8B6D8B7E8B19
:1046A0008F8B611110923D051A8A198A85E0FE01EF
:1046B0007396DE011D9601900D928A95E1F7809127
:1046C000830582FF1CC00E94F01120917F0530916C
:1046D0008005821B930B8C3D954020F080918105D5
:1046E00082FF79C00E94F01120915D0330915E033A
:1046F000821B930B8C3D954010F00E94250A86E0AA
:10470000FE013D96DE01179601900D928A95E1F724
:10471000CE0107960E94E521882359F016E080918A
:104720003C0390910B03891343C06796E3E00C941C
:10473000F02A86E0FE013796DE01119601900D9277
:104740008A95E1F78A859B85892B41F38F8198852E
:1047500089238F3F19F320910B0330E0C9010196A3
:104760008770992740913C034817190671F40E94FD
:10477000A01410920B0310923C0386E0E5E0F3E0F6
:10478000DF011D928A95E9F7C9CF96E0929FD0018B
:10479000939FB00D1124A45FBC4FFE013196019090
:1047A0000D929A95E1F780930B030E94620AB6CFAF
:1047B000819FC0011124845F9C4F0E94E5218823C2
:1047C00009F4B3CF80913C0390E00196877099275C
:1047D00080933C03A4CF82E00E94F30A83CF1F9210
:1047E0001FB61F9211248F939F93AF93BF93809115
:1047F0004705811113C08091480590914905A0910A
:104800004A05B0914B054196A11DB11D8093480505
:1048100090934905A0934A05B0934B05BF91AF9182
:104820009F918F911F901FBE1F901895CDB7DEB737
:10483000E1970FB6F894DEBF0FBECDBF85B7806895
:1048400085BF85B7806885BF84B7877F84BF0FB673
:10485000F894A89580916000886180936000109220
:1048600060000FBE80E890E00FB6F894809361007E
:10487000909361000FBE8AE398E09093C302809307
:10488000C2020E94F9030E949A048091E2008460AF
:104890008093E2007894809171058823A1F01091B3
:1048A000E9001F709091EC00892F817090FD80E8E5
:1048B000182B1092E9008091E80083FD0E94CF142C
:1048C0001F701093E90082E084BD93E095BD9AEFDC
:1048D00097BD80936E000E94750D811102C00E94E9
:1048E0009F0C0BE811E0D8018D918D018F3F11F0E5
:1048F0000E943C08B1E000391B07A9F700E911E06C
:10490000F80181918F018F3F11F00E943C08F1E086
:104910000F391F07A9F78AE0EEE7F3E0DF01282F40
:104920001D922A95E9F7E4E6F3E0DF011D928A95EE
:10493000E9F721E040E060E090E080E00E9481063D
:104940000E947610811102C00E94821082E090E0E5
:104950000E944C2B8093700384E090E00E94542BC3
:1049600090938305809382050E943013EFEBFDE561
:104970003197F1F700C000000E94301380917E0350
:1049800080FF08C06FEF7FEF90E080E00E94882BEF
:104990000E94F40B83E090E00E944C2B0E941F0BBE
:1049A0000E94A50E109295038FEF9FEF9093AF0397
:1049B0008093AE039093B1038093B0039093B303BD
:1049C0008093B2039093B5038093B4039093B7039D
:1049D0008093B6039093B9038093B8039093BB037D
:1049E0008093BA039093BD038093BC030E9476101A
:1049F000811104C00E9482100E944B1081E08093BC
:104A0000C70346E050E06CE170E088EC93E00E9460
:104A10003C2B1092C7038091C8038C7F11F40E9435
:104A20004B100E94E10580FF03C083E50E94151929
:104A30008BE091E090934405809343057724739431
:104A400080917105853089F400E4F02E83E0E82E32
:104A500000E112E180917105853009F4C8C00E941F
:104A6000A0140E94E1051092C6030E94301341E792
:104A700053E05CA74BA78EE793E09FA78EA7DC01CE
:104A8000FA01219131918D919D9143E0EB37F4072B
:104A900009F4FEC028173907A1F31FE9812E11E0A0
:104AA000912E612CAEA5BFA5ED90FD90BFA7AEA73E
:104AB000EBA5FCA581919191FCA7EBA78E159F0515
:104AC00009F48BC09C012E253F2539AB28AB14017E
:104AD000512CCC24C394D12C88A999A98C219D2137
:104AE000892B09F46CC087010C211D215EA26FA2E5
:104AF00081E00115110509F480E088A70E94F011FA
:104B00008160782F9AA789A74EA15FA168A58AA581
:104B10000E944623012B29F0D1018C918F3F09F08F
:104B200052C2412C042D10E080919503800F912FEB
:104B3000911D09976CF1E8E0AE2EB12CA01AB10AD4
:104B4000B8016A567C4FA50186E993E00E94332B99
:104B5000B80162567C4FA5018EE993E00E94332B89
:104B6000A501440F551FB801660F771F62557C4F92
:104B70008EEA93E00E94332BB8016A557C4FA50161
:104B800086EA93E00E94332B88E084198093950392
:104B90008091950390E0EDA5AE2FB0E09D01220F2E
:104BA000331F26513E4FAA0FBB1FBD0165517E4FDB
:104BB00041E0480F941508F40AC28093950353947A
:104BC000CC0CDD1CEFEF2E1A3E0AFFE05F1284CF03
:104BD000EBA5FCA53297F182E08263942FE0820E70
:104BE000911C35E063125ECF0E94560573C0809120
:104BF0007105843009F439C00E94520F8091C603B8
:104C000081110DC00E94010710923E018091C803DE
:104C1000837080933D010E940A0EE0924201F1E010
:104C2000F093C6031092470528E130E00FB6F894E0
:104C3000A895209360000FBEF092600083B7817F3B
:104C4000846083BF83B7816083BF7894889583B77E
:104C50008E7F83BF0FB6F894A8958091600088611D
:104C600080936000109260000FBE809170058823D1
:104C700009F4F0CE0E943013EEE7F3E081919191B8
:104C8000892B09F084C333E0E838F307B9F7E2CEA3
:104C90002817390709F001CF0E94F0118C0180918B
:104CA0006E0390916F0308171907A1F08FEF89A386
:104CB0008AA31BA20E94F0118160782F9DA38CA370
:104CC00049A15AA16BA18DA10E94462310936F03A5
:104CD00000936E038091390590913A05892B09F470
:104CE0004EC040912E0550912F0560913005709176
:104CF00031052FB7F8948091480590914905A0910E
:104D00004A05B0914B052FBF841B950BA60BB70B23
:104D100040912A0550912B0560912C0570912D052D
:104D200084179507A607B70750F100913905109130
:104D30003A05C8010E94330B9801205E31092830E2
:104D4000310520F00115110509F057C10E94F8172F
:104D5000802F0E94A31810923A05109239051092E4
:104D60002E0510922F0510923005109231051092E9
:104D70002A0510922B0510922C0510922D050091FA
:104D80003F051091400501151105B9F080917B0395
:104D900090917C030E94E111893C910570F04EE0F6
:104DA000049FC0011124FC01E85EFE4F208122FD1A
:104DB00004C08D5E9E4F0E9475140E94520F86E0C3
:104DC000EFE8F3E0DE01119601900D928A95E1F78C
:104DD00010929103109292031092930310929403F5
:104DE0008B819C81892B09F44AC080918D0390911D
:104DF0008E030E94E1119C0190918803992309F48C
:104E0000EAC225313105D8F19F3F19F09F5F909399
:104E100088031B81112359F00E941A089FEF111675
:104E20000CF491E0899F802D1124809391031C81C3
:104E3000112359F00E941A089FEF11160CF491E00B
:104E4000899F802D11248093920330919103332305
:104E5000B1F020919203222391F055EB3503C0016C
:104E60001124992309F4CCC09093910345EB2403BA
:104E700090011124332309F4C6C0309392038D812D
:104E80009E81892B09F44AC080918B0390918C03F9
:104E90000E94E1119C0190918903992309F496C223
:104EA00021353105D8F19F3F19F09F5F9093890319
:104EB0001D81112359F00E94F8079FEF11160CF481
:104EC00091E0899F802D1124809393031E811123EB
:104ED00059F00E94F8079FEF11160CF491E0899F9A
:104EE000802D112480939403309193033323B1F0E8
:104EF00020919403222391F055EB3503C001112436
:104F0000992309F483C09093930345EB2403900104
:104F10001124332309F47DC03093940346E050E01C
:104F2000BE016F5F7F4F8FE893E00E94262B892B95
:104F300061F48091910390919203892B9091930356
:104F4000892B90919403892B11F00E94311286E0F5
:104F5000FE013196AFE8B3E001900D928A95E1F73A
:104F60000E94E10590917D03891721F080937D03D4
:104F70000E94560580917105843009F061CD83E06F
:104F80008093E9008091E80082FF5ACD8091E8008B
:104F900090E085FF05C00E9418048823E9F191E0A4
:104FA0008091E8008B778093E800992309F448CD3D
:104FB0008981EFEFE80FE33108F057C0F0E0EC51E2
:104FC000F44D0C94102B8DA744244394ABCD90E06A
:104FD000FC01EB56FC4FD9015C915183DB015C91E4
:104FE0005187BDA5B18B880F991FFC01EB56FC4F73
:104FF000128E118E91E0842FDBCD0E94E717A8CE90
:105000007092910333CF7092920339CF70929303D1
:105010007CCF7092940382CF80E2E82EF12C8E0137
:105020000F5F1F4F8091E80085FD0AC08091E80066
:105030008B778093E8000E941804882399F3AFCF00
:105040008091F100D8018D938D01B1E0EB1AF10848
:1050500049F7A5CF1A828BE08B831BC08A818230EF
:1050600009F4ABC128F4813061F08FEF898311C05E
:105070008330C1F08430C9F71B821C821D821E82DE
:1050800008C00E9456050E94162B6B837C838D837B
:105090009E8340E250E0BE016F5F7F4F82E00E943E
:1050A000870BCECC80917E0390917F039827892730
:1050B00098279C838B83809180039091810398270C
:1050C000892798279E838D83809182039091830303
:1050D00098278927982798878F83809184039091B8
:1050E00085039827892798279A878987809186033F
:1050F000909187039827892798279C878B87C9CF0A
:105100008A81823061F0853009F0AFCF8091C80389
:10511000E1E08E278093C80310924201BACF6B81E1
:105120007C818D819E810E94162B85E290E00E94F9
:105130006A2BAFCF4C816B818A810E94AF0C98277C
:10514000892798279E838D83A4CF2D813E81322786
:10515000232732274C816B818A810E94280C99CFAA
:105160000E944E0C96CF9A81933009F07ECF883002
:1051700009F441C0893009F46BC08B818230E9F0B9
:1051800088F4813009F085CF4C812FEF429F412D6B
:1051900011248091C90320E06091CA0390E00E942D
:1051A000810677CF833019F1843009F072CF8C817A
:1051B00020E04091CB036D81F1CF8C819091C803A9
:1051C000292F2370811107C011F0109242019C7F9A
:1051D0009093C8035ECF211102C0109242019C7FC0
:1051E00091609093C80360E00E94DF0652CF8C81EB
:1051F0008093CC034ECF8B818230E1F078F4813004
:1052000009F047CF8091CB03FFEF8F9FC00111249E
:105210006FEF70E00E94B12A6C833BCF8330A9F01E
:10522000843009F036CF8091C9038C838091CA0302
:105230008D832FCF8091C803982F93708695869584
:10524000911101C080E08C8324CF8091CC03FBCFEF
:105250000E94470F1ECF80E18A831BCF7A8282E8AB
:10526000FBCE0A811B811027012710279E012F5F8B
:105270003F4F6901EC80A9014E0D511D7A01C80113
:1052800082589D4FEC14FD0409F403CF023851E01D
:10529000150758F40E944C2BD60114968C930F5F7F
:1052A0001F4FFFEFCF1ADF0AEACFF6011482F7CFC4
:1052B0000A811B811027012710279E012F5F3F4F76
:1052C0006901EC80E00EF12EF11CC80182589D4F5F
:1052D0000E151F0509F4DDCE023831E0130728F45E
:1052E000D60114966C910E946A2BBFEFCB1ADB0A91
:1052F0000F5F1F4FEACF0E94180CCBCE84E0ACCFDB
:105300000A811B81102701271027FE0131966F01AA
:10531000EC809F012E0D311D7901C8018696EC1499
:10532000FD0409F4B6CE083532E0130758F40E94A4
:105330004C2BD60114968C930F5F1F4FFFEFCF1AA3
:10534000DF0AEBCFF6011482F7CF0A811B81102709
:10535000012710279E012F5F3F4F6901EC80E00E6F
:10536000F12EF11CC80186960E151F0509F491CE89
:10537000083532E0130728F4D60114966C910E9488
:105380006A2BBFEFCB1ADB0A0F5F1F4FEBCF09BDB4
:1053900019BD09B400FEFDCF8091D8008F7D8093A8
:1053A000D8008091E00082608093E0008091E0006E
:1053B00081FDFCCF0E94A0144DCB85E290E00E94BD
:1053C0004C2B1B821C821D828E8363CE2B303105B9
:1053D00008F06BCDA3CD2B30310508F017CD4FCDA4
:1053E0001092B9008CE08093B8000895B0E0A0E07E
:1053F000ECEFF9E20C94CC2AB82EEB010E94F011EC
:105400006C01EE24E394F12CC431D10560F025E069
:10541000E22EF12CCF3FDC0731F0CE0164E170E0E9
:105420000E94B12A7B0184EAA82E94E8992E10925A
:10543000BC00A092BC000E94F0118C018091BC00C5
:1054400087FF0DC08091B900887F8830F9F0809186
:10545000B900887F8031D1F00FEF1FEF08C0C8017D
:105460000E94E111E816F90648F70EEF1FEFCF3F53
:10547000DC07E9F2C6010E94E111C817D907B8F6A6
:10548000C801CDB7DEB7EBE00C94E82AB092BB00C0
:105490009092BC000E94F0118C018091BC0087FFAB
:1054A0000AC08091B900887F883111F08034A1F65C
:1054B00010E000E0E5CFC8010E94E111E816F9060E
:1054C00060F7D3CF0F931F93CF93DF93EB018093BC
:1054D000BB0084E88093BC000E94F0118C01809195
:1054E000BC0087FF11C02091B900287F81E090E0C7
:1054F000283211F490E080E0919581959109DF9137
:10550000CF911F910F910895CF3FDC0741F3C80160
:105510000E94E111C817D90710F78EEF9FEFEFCF68
:10552000B0E0A0E0E6E9FAE20C94CF2A6B018A0130
:105530007901B9010E94F629E6010C0D1D1DC01765
:10554000D10711F097FF08C024E92093BC00CDB724
:10555000DEB7E8E00C94EB2AB70189910E94622A39
:10556000EECFAA1BBB1B51E107C0AA1FBB1FA6178A
:10557000B70710F0A61BB70B881F991F5A95A9F7FC
:1055800080959095BC01CD0108952F923F924F9246
:105590005F926F927F928F929F92AF92BF92CF92C3
:1055A000DF92EF92FF920F931F93CF93DF93CDB7CC
:1055B000DEB7CA1BDB0B0FB6F894DEBF0FBECDBF44
:1055C00009942A88398848885F846E847D848C8415
:1055D0009B84AA84B984C884DF80EE80FD800C811E
:1055E0001B81AA81B981CE0FD11D0FB6F894DEBF01
:1055F0000FBECDBFED01089597FB072E16F4009462
:1056000007D077FD09D00E94B12A07FC05D03EF4EF
:10561000909581959F4F0895709561957F4F08955E
:10562000EE0FFF1F0590F491E02D0994692796274E
:1056300069277827872778270895FB01DC0102C0B6
:1056400005900D9241505040D8F70895FB01DC01C0
:1056500004C08D910190801921F441505040C8F749
:10566000881B990B0895FB01DC0102C001900D928B
:1056700041505040D8F70895DC01CB01FC01F99965
:10568000FECF06C0F2BDE1BDF89A319600B40D928E
:1056900041505040B8F70895F999FECF92BD81BDB1
:1056A000F89A992780B50895A8E1B0E042E050E06B
:1056B0000C943E2BDC01A40FB51F4150504048F024
:1056C000CB01840F951F2E910E946B2B41505040AF
:1056D000D0F70895262FF999FECF92BD81BDF89A93
:1056E000019700B4021639F01FBA20BD0FB6F89426
:1056F000FA9AF99A0FBE08950396272F0E946B2BF2
:105700000E946A2B252F0E946B2B242F0C946B2B4D
:105710000196272F0E946B2B0C946A2BF894FFCFD5
:10572000B015D8157B17D8157B170B162C167B17C1
:105730002A1737171C1D1C1D571D571D021E1C1E26
:10574000861D861D211E8E1E9F1E9F1E901B051CE2
:10575000981B621B661B9C1B6A1BA01BAC1B761B49
:10576000FE1B7A1BB01B7E1BB41BDC1B821BB81BF1
:10577000E31B881BBE1BC61B6E1BA41B721BA81B36
:105780008C1BC21BD21BEC1BFC1B5C1B941B0C1C3C
:10579000431B471B381B3F1B4B1B4F1B531B3F1C03
:1057A0004D1C541C591C5E1C631C681C6D1C721C17
:1057B000771C7C1C811C211A211A211A211A211AFA
:1057C000211A211A211A211A2A282E2880289A28DB
:1057D000A528B028B328B328B328352835282B2985
:0E57E0002E29312958297B297E298029A529C7
:1057EE0047010000010001000100015305D00BC963
:1057FE000BC20B000000000000000090196C0B00A3
:10580E00000000000000000000AC199B1800000012
:10581E00000000000000001312640B0000FFFF00E8
:10582E00FF00030100FFFF2A0022FF00224C0007A9
:10583E00000000000000818283E200E900EA00B56A
:10584E0000B600B700CD008301CC008A019201940E
:10585E00012102230224022502260227022A02B374
:10586E0000B4006F0070009F01CB01F0F1F4C6662A
:10587E00F7F6F5673031323334979694959392005C
:10588E000102030405060708090A0B0C0D0E0F1082
:10589E001112131415161718191A1B1C1D1E1F2072
:1058AE00212223242526272829FF2A2B2C2D2E2F93
:1058BE003031323334353637FF38393A3B3CFFFF1F
:1058CE003DFFFF3EFF3F40FF414200000F001E0024
:1058DE002D003C004B005A006900780087009600AE
:1058EE00A500B400CB00E0000410171026103510F0
:1058FE00441053106210711080108F109E10AD1056
:10590E00BC10CE10E01006201A2029203820472087
:10591E0056206520742083209220A120B020C9201B
:10592E00E02009302230313040304F305E306D3063
:10593E007C308B309A30A930BD30D230E03002400E
:10594E001540274060409840AB40C340D240E040F5
:10595E000104040404040404040404040404010102
:10596E0004040404040404040404040404010104EF
:10597E0004040404040404040404040101040404DF
:10598E0004040404040404040401010101040101DB
:10599E000101014022B684016201AC00EA06030750
:0259AE002307CD
:00000001FF
