:100000000C940C040C9444040C9444040C94440488
:100010000C9444040C9444040C9444040C94440440
:100020000C9444040C9444040C948A310C94623271
:100030000C94D8130C9444040C9444040C9444047D
:100040000C9444040C9444040C9444040C94440410
:100050000C9444040C9466310C9444040C944404B1
:100060000C9444040C9444040C9444040C944404F0
:100070000C9444040C9444040C9444040C944404E0
:100080000C9444040C9444040C9444040C944404D0
:100090000C9444040C9444040C9444040C944404C0
:1000A0000C9444040C9444040C9444040501090287
:1000B000A10185020901A1000509190129081500FE
:1000C0002501950875018102050109300931158165
:1000D000257F95027508810609381581257F9501D0
:1000E00075088106050C0A38021581257F95017572
:1000F000088106C0C005010980A101850319012AF4
:10010000B700150126B700950175108100C0050CD8
:100110000901A101850419012AA002150126A002E6
:10012000950175108100C005010906A1018506052C
:100130000719E029E71500250195087501810205D9
:1001400007190029EF1500250195F07501810205B9
:10015000081901290595057501910295017503910D
:1001600001C00660FF0961A1010962150026FF00B8
:100170009520750881020963150026FF00952075FA
:10018000089102C005010906A101050719E029E748
:1001900015002501950875018102950175088101F9
:1001A0000507190029FF150026FF0095067508812F
:1001B000000508190129051500250195057501910E
:1001C00002950175039101C009025B00030100A0C3
:1001D000FA090400000103010100092111010001D5
:1001E00022440007058103080001090401000203FD
:1001F00000000009211101000122220007058203ED
:100200002000010705030320000109040200010387
:1002100000000009211101000122B6000705840336
:100220002000011201000200000008424B251202CA
:10023000000102000120036B0062006400360037F9
:10024000006D006B006900690072006700620020A9
:100250000076003200000010034B004200440066AC
:100260000061006E007300000004030904167C1E88
:10027000001F00200021002200230024002500266A
:100280000027002D002E002A004C002B0014001A1D
:10029000000800150017001C0018000C00120013C5
:1002A000002F0030003100035700570400160007EC
:1002B0000009000A000B000D000E000F003300348F
:1002C00000000028000457E1001D001B0006001973
:1002D00000050011001000360037003800E500006E
:1002E0000052000157E000E300E200000000002C93
:1002F000000000000002570000E400500000005120
:10030000004F0035003A003B003C003D003E003FFE
:10031000004000410042004300440045004C0049B9
:100320000001004A0052004D004B00010001000195
:100330000001000100010001000100010046000170
:1003400000500051004F004E00010001000100016B
:100350000001000100010000000100010001000196
:10036000000100B20001000100110A29030100018F
:10037000000100010000000100A8000100010001CF
:1003800000000000004C00000000000100000065BB
:100390002101000000010001003500010001000101
:1003A000000100010001005F0060006100010056D3
:1003B0000057004C02A60001004A0052004D004BBD
:1003C00000010001005C005D005E0001005500546A
:1003D00000010001000100500051004F004E0001DB
:1003E00000010059005A005B0001000100000001FB
:1003F000000100010001000100B200010001000144
:10040000006200620063005300010000000100016F
:100410000001000B7001000000000001000000005E
:1004200000010000000100010000000100010020A7
:10043000782B78010001001370AA00A900AE00A873
:100440000001000100010001000100257801000108
:100450000001000100010001000100010001000194
:1004600000010001000100007C267801000100016C
:100470000001000100010001000100010001000174
:100480000001000000037C2378010001000100014D
:100490000001000100010010030100010001000142
:1004A0000000002178247801000100010000000014
:1004B00000010000000000005200000452287800F3
:1004C0000022782778167C1E001F002000210022C1
:1004D00000230024002500260027002D002E002ADE
:1004E00000A8002B0014001A000800150017001CBB
:1004F0000018000C00120013002F003000310068BB
:1005000000390004001600070009000A000B000D66
:10051000000E000F0033003400000028006900E1E5
:10052000001D001B00060019000500110010003618
:100530000037003800E50000005200E300E0000052
:1005400000E200000000002C00000000000052004B
:1005500000E4005000000051004F00007767570092
:10056000876656008676550085756500847464003C
:100570008373630082726200817161008070600029
:10058000182838000829390009193A000A1A2A00DF
:100590000C1C2C000D1D2D0006162600051525002F
:1005A000041424000313230002122200011132005C
:1005B00000213100102030008878680089796900B6
:1005C0008A7A6A008B7B6B008C7C6C008D7D6D0061
:1005D0000E1E2E00071727018575650184746401BE
:1005E00083736301827262018171610180706001B5
:1005F000182838010829390109193A010A1A2A016B
:100600000B1B2B010C1C2C000F1F2F0187665601A2
:1006100004142401031323010212220101113201E7
:100620000021310188786801897969018A7A6A0133
:100630008B7B6B010D1D2D010E1E2E010F1F2F0038
:100640008E7E5D0177675701071727010616260181
:10065000102030018D7D6D018E7E5D017F6F5F000A
:100660007F6F5F008F6E5E000101010101010101DA
:100670000102020202020202020203030303030355
:100680000303040404040404040505050505060623
:1006900006060607070707070808080809090909E1
:1006A0000A0A0A0B0B0B0C0C0C0D0D0D0E0E0E0F87
:1006B0000F0F101011111112121313141415151617
:1006C000161717181819191A1A1B1B1C1D1D1E1E88
:1006D0001F202021222223242425262627282929D9
:1006E0002A2B2C2D2D2E2F30313232333435363704
:1006F00038393A3B3C3D3E3F404142434445464702
:1007000048494A4C4D4E4F50515354555658595ADA
:100710005B5D5E5F616264656668696B6C6D6F707E
:1007200072737577787A7B7D7E8082838587888AED
:100730008C8E8F91939596989A9C9EA0A2A3A5A724
:10074000A9ABADAFB1B3B5B7BABCBEC0C2C4C6C920
:10075000CBCDCFD1D4D6D8DBDDDFE2E4E7E9EBEED9
:10076000F0F3F5F8FAFDFF000000000000000000C3
:100770000000000000000000000000000000000079
:1007800000000000000000000000007E0F00D4FF09
:10079000FFFFC70000007800000000000000002AF2
:1007A0002B280000000000000000000000000000F6
:1007B000000029000000002C1E34202122243426B1
:1007C00027252E362D3738271E1F202122232425AA
:1007D000263333362E37381F0405060708090A0B5F
:1007E0000C0D0E0F101112131415161718191A1BD1
:1007F0001C1D2F3130232D350405060708090A0B6F
:100800000C0D0E0F101112131415161718191A1BB0
:100810001C1D2F3130354C0011241FBECFEFDAE004
:10082000DEBFCDBF04B603FE18C08091F1069091E3
:10083000F206A091F306B091F4068730904BA740E2
:10084000B04B59F41092F1061092F2061092F30692
:100850001092F406E0E0F8E3099513E0A0E0B1E0BF
:10086000E8E1FAE602C005900D92A232B107D9F78D
:1008700026E0A2E2B3E001C01D92A13FB207E1F77A
:100880000E947F2B0C9477340C940000FC01828131
:10089000813021F4858181708E5F0895823011F45A
:1008A00084E0089581E008959C019A9581159F4107
:1008B00018F5F901EE27F270832F8170B9016627D0
:1008C0007470A9014427587034FF0CC08295807F52
:1008D000EF2B09F08062672B09F08064452B69F0EB
:1008E00080680895EF2B09F08260672B09F084601F
:1008F000452B19F08860089580E00895CF93DF9329
:10090000EB010E945404FE010995DF91CF910895F7
:10091000982F82958F70882311F0982F84E0292FCB
:1009200026952695222311F08E5F922F9695911190
:100930008F5F08958093A60608958093F00608952A
:1009400021E030E001C0220F8A95EAF78091F0069D
:10095000822B0E949D04089521E030E0A90102C08D
:10096000440F551F8A95E2F7CA0180959091F006D1
:1009700089230E949D04089580917901833019F4A0
:1009800081E00E94AC041092790108958091770172
:10099000833019F482E00E94AC04089580917501BF
:1009A000833011F40E94AC040895292F953098F5F6
:1009B0008F3088F590E03FE0239F800D911D11243A
:1009C000282F277041E001C0440F2A95EAF723E061
:1009D000969587952A95E1F7FC01EE0FFF1FE80F2A
:1009E000F91FEF59F94F20E030E070E05191DF013D
:1009F0001197CB01022E02C0969587950A94E2F7D3
:100A0000817081958527842385278C932F5F3F4FA5
:100A10002330310559F70895292F953078F58F3017
:100A200068F590E03FE0239F800D911D1124682F11
:100A3000677023E0969587952A95E1F7FC01EE0F04
:100A4000FF1FE80FF91FEF59F94F40E050E080E039
:100A5000219130E0062E02C0369527950A94E2F7E0
:100A600021703327042E01C0220F0A94EAF7822B4B
:100A70004F5F5F4F4330510559F7089580E0089567
:100A80009091F00621E030E0F90101C0EE0F8A9567
:100A9000EAF7D90102C0AA0FBB1F6A95E2F7EA2B59
:100AA00001C0220F4A95EAF7892F8E23E81305C06B
:100AB000892F822B0E949D0408952095822F8923DF
:100AC000F9CF8091AE069091AD06981301C00895BC
:100AD0008F5F8770FACF9091A806809589238093C5
:100AE000A806282F2770211111C0891779F090913D
:100AF000EF0692FF0BC08695869586950E94AC0402
:100B00001092A8061092AA061092A9060895982F8E
:100B100090958091A30689238093A30608958091E0
:100B2000A406882331F01092A4061092AC0610920D
:100B3000AB060895803E9105D1F1C8F4813391054B
:100B400009F47FC048F48932910509F46FC08A32F4
:100B5000910509F47DC0089589339105E1F082384B
:100B60009105C9F08533910509F45BC00895843E71
:100B70009105D1F148F4823E910531F1833E910512
:100B800041F181EE90E00895863E9105C1F1873EE6
:100B90009105E1F108952091EE062370211165C0C1
:100BA0002091EF0623FF14C089E290E00895209180
:100BB000EE0620FD43C03091EF0630FF09C024FF50
:100BC0004EC080E090E008952091EE0622FDF7CF20
:100BD00008952091EE0622FD45C03091EF0630FDCC
:100BE00044C024FFF5CFEDCF2091EF0621FFF0CFD9
:100BF0008091EE0684FDE5CF87EE90E00895209188
:100C0000EE0623FFE5CF24FDDCCFF6CF2091EE06E4
:100C100023FD2EC03091EF0631FFE3CF84EE90E04C
:100C200008952091EE0625FFD3CFBECF2091EE068A
:100C300025FD21C02091EF0623FFCACF89E390E074
:100C400008952091EE0626FFC3CF8AE290E0089532
:100C50002091EE0626FFBCCF81E390E0089583EE5D
:100C600090E0089582EE90E0089580EE90E008957F
:100C700086EE90E0089585E390E0AACF9091EE068D
:100C800092FF10C041E0282F2471243009F040E089
:100C900031E0282F2871283009F030E0431711F097
:100CA0002CE0822793FF10C041E0282F24712431CB
:100CB00009F040E031E0282F2871283109F030E0B8
:100CC000431711F02CE082273091EF0630FF10C05F
:100CD00051E0282F2171213009F050E041E0282F08
:100CE0002871283009F040E0541711F029E08227DC
:100CF00031FF10C041E0282F2171213109F040E07F
:100D000031E0282F2871283109F030E0431711F025
:100D100029E0822794FD877E08951F93CF93DF9368
:100D20000E949A05EC01811522E5920708F053C054
:100D3000811540E5940708F0DDC0803E9105F8F488
:100D40008D3C910508F0AEC0883A910580F4853A53
:100D5000910508F099C08130910521F00497813AFE
:100D6000910550F4CE01DF91CF911F910895885ADB
:100D700091094B9708F48BC0C0E0D0E0F3CF811508
:100D800050E49507F8F4C11580E2D80708F0CBC00D
:100D9000C83ED10538F3CE019A9581159F4160F781
:100DA0008D2F0E943E06182FCE0199270E949A058A
:100DB000212F30E0322F2227E901CC27DF71C82B09
:100DC000D92BD0CF99270E949A05CC27DF70C82B4A
:100DD000D92BD06AC7CF803842E59407C8F5803652
:100DE00052E5950708F067C0C03482E5D807B0F037
:100DF0008C2F86958695877020E2829FC0011124F2
:100E0000C37021E030E0A90102C0440F551FCA950C
:100E1000E2F7EA01C82BD92BDC68A4CFC03252E537
:100E2000D50708F041C08C2F8695869520E2829FD9
:100E3000C0011124C37021E030E0A90102C0440FB9
:100E4000551FCA95E2F7EA01C82BD92BDD688ACF76
:100E5000803C52E5950760F48F71C03AD24508F0A6
:100E60003FC090E0982F8827EC01C46FD06A7ACFFA
:100E7000805C9245809708F07FCFDC2FCC27CC2771
:100E8000DF71C06FD06A6ECFA497D0646BCFC85AA1
:100E9000D0E0CC0FDD1FC551DD4F0990D881C02DAA
:100EA000D46460CFD0655ECFCF71D0E0DC2FCC278B
:100EB000C16FD06A57CF86958695877020E2829F52
:100EC000C0011124C37021E030E0A90102C0440F29
:100ED000551FCA95E2F7EA01C82BD92BDA6842CF31
:100EE0000E943E06C82FD0E0DC2FCC27CC27DF7134
:100EF000D06238CF8F710E943E0665E0D695C795C7
:100F00006A95E1F7CF70D0E0DC2FCC27282F30E0B6
:100F100084FF05C054E0220F331F5A95E1F7C22B1E
:100F2000D32BD0691FCF8D2F8F710E943E06182FB3
:100F3000CE0199270E949A05212F30E0322F2227D7
:100F400022273F71282B392BE901D2CF80E0089569
:100F5000F894E82FE295EF70F0E041A18F7021E066
:100F600030E0B90102C0660F771F8A95E2F7CB0126
:100F7000962F9095942391A392A1892B82A3789484
:100F80000895A0E0B0E0E7ECF7E00C94A433E82F7C
:100F9000F0E0E959F94F711109C0E4918E2F7E2FCD
:100FA0006E2FCDB7DEB7EAE00C94C033262F30E0C9
:100FB000C72FD0E0F491EF2F86E0829F8001839FBE
:100FC000100D1124EE24EA94F12CC801B7010E94FF
:100FD0008833AB01220F331F65E5649FC001659F15
:100FE000900D1124281B390B822F880F280FC70161
:100FF0008C1B9D0BF89FD001F99FB00D11248B2FF6
:101000002C9FB0012D9F700D1124672F772757015A
:10101000A61AB70AFA9D6001FB9DD00C11247D2D04
:101020005701A21AB10895012C9F50012D9FB00CB9
:101030003C9FB00C1124AB2CBB24EA18FB08FE9D8E
:10104000E001FF9DD00D112443305105C1F00C3F4C
:1010500093E0190750F44130510509F4A1CF423013
:10106000510589F07E2FED2F9BCF4430510571F053
:1010700046305105B9F3EB2F8D2D7F2F91CFED2DFC
:101080007B2F8F2F8DCF7B2F8D2F8ACF7D2FEB2F17
:10109000F8CF9C0180E090E0269F812D369F800D47
:1010A000911D112408959C018230910508F4089542
:1010B0009FEF213E8EE1380740F4C90145E0969547
:1010C00087954A95E1F798E0980F61E0E62FE90FE0
:1010D000FF27FF1FAF0155954795842F449FF001CF
:1010E000459FF00DF00D11242E173F0738F49FEFA8
:1010F000940F961758F78FEF860F08954F3FE9F337
:1011000061E0640FF6CF409113015091140125E086
:1011100038E0429FC001439F900D529F900D1124D3
:10112000875E994C9093140180931301890F089561
:10113000982FE82F96FDE0958E2F8F7096FD8F5F8C
:10114000E695E695E695E670F0E0E554FE4F2181E0
:10115000289F202D812D112422952F708295807F2C
:10116000282B8081820F97FD819580580895FC017E
:101170009B01009719F4832F80780895AC0197FFA5
:1011800004C044275527481B590BB901640F751F2C
:1011900037FD0FC0C901841B950BA5E0880F991F6F
:1011A000AA95E1F70E94D33380E2861BF7FD819573
:1011B0000895CB0165E0880F991F6A95E1F7BA01A0
:1011C000621B730B0E94D33380E6EFCF1F93182F5F
:1011D000822FE42FF0E0EE0FFF1FEE5DFD4F408108
:1011E00024EE429F412D1124E12FF0E050E09A01BE
:1011F000245E3F4F281B310937FF03C031952195ED
:10120000310983E0220F331F8A95E1F7CF01821B5A
:10121000930B9C0197FF02C020E030E0219F212D1D
:101220001124822F1F910895FF920F931F93CF9344
:10123000DF93D62FC72F182FBA01C901F12EF01A4C
:101240000E94B708982F990F990F082F091B0F0DAF
:10125000019F012D11246D2F7C2F802FCDB7DEB77C
:10126000E5E00C94C533EF920F931F93CF93DF9378
:10127000D62FC72F182FBA01C9010E19010F0E94CE
:10128000B708081B019F012D11246D2F7C2F802F83
:10129000DF91CF911F910F91EF900895622F0895E4
:1012A000E42FF0E0EE0FFF1FEE5DFD4F6081621B4B
:1012B0000895E42FF0E0EE0FFF1FED5DFD4F60811C
:1012C000621B0895322F50E0FA01EE0FFF1FED5D13
:1012D000FD4F9081905297FD9195440F551FFA0153
:1012E000EE5DFD4F2081231B330B290F311D97FD30
:1012F0003A95620F0895EF920F931F9310E09801B3
:10130000220F331F200F311F359527956E2D620F49
:101310001F910F91EF9008950F93CF93DF93D72FE5
:10132000C82FB90147FD419528E330E0241B31095E
:1013300047FD3395229FA001239F500D500D11248E
:10134000669FC001679F900D900D1124840F951F1B
:101350000E945308982F990F692F680F600F7D2FF7
:101360008C2FDF91CF910F9108950F93CF93DF933F
:10137000D72FC82FBA01C9010E94B708682F600F84
:101380007D2F8C2FDF91CF910F910895EF920F93C6
:10139000CF93DF93D72FC82FBA01C9010E190E942E
:1013A000B708602F681B7D2F8C2FDF91CF910F9195
:1013B000EF9008950F931F93522F10E0F801EE0F56
:1013C000FF1FED5DFD4FA081A052BB0B9D0152039D
:1013D000F001539FF00D1124000F111FD801AE5DD5
:1013E000BD4F2C912057330B4203D001439FB00DCA
:1013F00011249F012A0F3B1F37FF02C021583F4F86
:10140000220F232F221F330B620F1F910F9108957C
:101410000F931F93522F10E0F801EE0FFF1FED5DA9
:10142000FD4FA081A052BB0B9D015203F001539FC1
:10143000F00D1124000F111FD801AE5DBD4F2C918E
:101440002057330B4203D001439FB00D11249F015D
:101450002A0F3B1F37FF02C0215C3F4F96E03595B6
:1014600027959A95E1F7620F1F910F9108950F93B9
:101470001F93A42F10E0F801EE0FFF1FEE5DFD4F4C
:101480009081905797FD9195000F111FF801ED5D28
:10149000FD4F00810052110B2003A001219F500D30
:1014A000112428E330E0291B310997FD33951A2FC9
:1014B0001203F001139FF00D11244E0F5F1F9A01CC
:1014C000220F331F240F351F37FF02C021583F4F13
:1014D000220F232F221F330B620F1F910F910895AC
:1014E0000F931F93CF93DF93D62F072F182FC42F5F
:1014F000822F0E949808982FEC2FF0E0EE0FFF1F2C
:10150000EE5DFD4F80818058980F97FD9195990F62
:10151000292F3CE0239F212D1124622F6D0F702F66
:10152000812FDF91CF911F910F910895E42FF0E06B
:10153000EE0FFF1FEE5DFD4F9081921B97FD919581
:10154000292F38E1239F212D1124620F0895A4E053
:10155000B0E0EDEAFAE00C94AC3320919F0630E164
:10156000230F08F42FEF60E1822F90E00E944908DA
:10157000BC0188EB9BE00E948833CB01A0E0B0E087
:10158000BC01CD012496E2E00C94C8339091BF05D4
:10159000982B9093BF0508950E94681308950E94A8
:1015A000BF130895880F880F94E0980F943408F0C3
:1015B00093E40895982F862F20919B062370222371
:1015C00089F0992381F09A3180F49F73990F990FD4
:1015D00020919B062370922B90939B06109273018F
:1015E0000E94C60A089591E0F1CF99E1EFCF809172
:1015F0009B06869586958F5F8A3108F081E061E0D1
:101600000E94DA0A089590919B06969596958FEF21
:10161000890F913009F489E161E00E94DA0A0895A6
:10162000982F822F20919B062370222341F09093C4
:101630009C0660939D0640939E060E94C60A0895EC
:10164000EBE9F6E0818190E021E043816281089638
:101650000E94100B0895EBE9F6E0818121E04381BF
:1016600062818850990B0E94100B0895EBE9F6E017
:10167000628120E1620F08F46FEF818121E04381F4
:1016800090E00E94100B0895EBE9F6E0628120E102
:10169000621B08F460E0818121E0438190E00E94B8
:1016A000100B0895EBE9F6E0438120E1420F08F4C6
:1016B0004FEF818121E0628190E00E94100B08953C
:1016C000EBE9F6E0438120E1421B08F440E0818130
:1016D00021E0628190E00E94100B0895EBE9F6E0B2
:1016E000248130E1230F08F42FEF248381E00E944E
:1016F000C60A0895EBE9F6E0248130E1231B08F4E3
:1017000020E0248381E00E94C60A0895FA0188231C
:1017100011F009950895FB01FCCFFC01848186231B
:1017200081110AC082818823B9F06823908593FFD4
:1017300005C081E061110FC080E00895282F229537
:101740002F708F70282B962F92959F706F70962B0D
:1017500081E02913F1CF089581E0FDCF282F35EBEB
:101760002303C001112497FF04C080589109892FD9
:10177000089580589F4FFBCF8091810680FD14C053
:1017800081FD14C082FD16C080918006882381F0FF
:101790008E3180F420E5829FC00111246EE170E05B
:1017A0000E94D333862F089584E1089588E2089536
:1017B00088E0089580E508958091810680FD17C036
:1017C00081FD17C082FD19C080917F06882399F0A2
:1017D000883298F428E0829FC001112468E270E00A
:1017E0000E94D3336115710551F0862F089562E090
:1017F000FCCF64E0FACF61E0F8CF68E0F6CF81E09B
:101800000895FA01309709F009950895E091570677
:10181000F0915806309729F00190F081E02D09955C
:10182000089580E00895A3E0B0E0E9E1FCE00C94C5
:10183000AC339C01809168039091690382179307F0
:10184000A1F03093690320936803E0915706F0916B
:101850005806309751F083E089833B832A830084C4
:10186000F185E02DCE01019609952396E2E00C94D6
:10187000C833A3E0B0E0EFE3FCE00C94AC339C0190
:10188000809166039091670382179307A1F03093CC
:10189000670320936603E0915706F091580630974E
:1018A00051F084E089833B832A830084F185E02D15
:1018B000CE01019609952396E2E00C94C8339091ED
:1018C00021019923C1F09091EE0697FF14C0E82FF3
:1018D000E695E695E695803FF8F4F0E0E45DFC4F90
:1018E000877021E030E001C0220F8A95EAF78281FB
:1018F000822B82830895A6E2B3E0EFEF90E02D9172
:10190000821751F0EF3F19F4211101C0E92F9F5FB9
:101910009630A9F7EF3F09F408950E2E000CFF0B47
:10192000EC5DFC4FE6CF909121019923E1F090917D
:10193000EE0697FF18C0E82FE695E695E695803FFE
:10194000F0F4F0E0E45DFC4F877021E030E0A901A5
:1019500002C0440F551F8A95E2F7CA018095928113
:10196000892382830895E6E2F3E09191891303C00D
:10197000DF0111971C9253E0EC32F507B1F708959F
:10198000A4E0B0E0E6ECFCE00C94AC338FB7F89444
:101990002091190630911A0640911B0650911C06A1
:1019A00029833A834B835C838FBF69817A818B81E2
:1019B0009C812496E2E00C94C8330F931F93CF933D
:1019C000DF93D82FC92F40918F06509190066091D8
:1019D0009106709192062FB7F89480911906909114
:1019E0001A06A0911B06B0911C062FBF841B950BF5
:1019F000A60BB70B843F9140A105B10528F5609176
:101A00008F0670919006809191069091920604EF56
:101A100011E020E030E0609321067093220680936D
:101A200023069093240600931D0610931E06209310
:101A30001F0630932006D0938D06C0938E06DF914B
:101A4000CF911F910F9108950E94C00C02E310E006
:101A500020E030E0E0CF809165030895FC019B0118
:101A600080915B0390915C038617970740F0672B8A
:101A700029F48091E8008E778093E800C90140E066
:101A8000009741F4411106C08091E80082FF2FC009
:101A900080E00895209134062223A9F12530A9F190
:101AA0002091E80023FD2DC02091E80022FDECCF1D
:101AB0002091E80020FFE4CF3091F3002091F20064
:101AC000009719F02830310558F041E028303105F1
:101AD00009F040E02091E8002E772093E800D0CF75
:101AE00041914093F10001972F5F3F4FE9CF8091E3
:101AF0003406882341F0853041F08091E80083FF6F
:101B0000C3CF81E0089582E0089583E00895809135
:101B1000550387FF13C08091E80082FF06C08091C3
:101B2000E8008B778093E80004C08091340681112F
:101B3000F2CF0895809134068823D9F38091E8008C
:101B400080FFF8CF8091E8008E77ECCF2091E40001
:101B50003091E50095E6A9018091EC008170882321
:101B600031F08091E80080FF06C080E00895209168
:101B7000E80022FD1BC080913406882391F0853057
:101B800091F08091EB0085FD10C02091E400309130
:101B9000E5004217530701F391509111DCCF84E027
:101BA000089582E0089583E0089581E00895E8EDC6
:101BB000F0E080818E7F80831092E2001092DA0044
:101BC0001092E100A0EEB0E08C9181608C93808156
:101BD0008F77808319BCA7EDB0E08C918E7F8C93BA
:101BE00080818F7E8083109254030895AF92BF92BC
:101BF000DF92EF92FF920F931F93CF93DF935C01DD
:101C0000809110010E94D20AC82F192F60919F065F
:101C100066958091B1059091B2050E944908D82E31
:101C2000D0E0CE01880F991F9C012E5D3D4F7901B8
:101C3000C11770F081E0133408F080E0DF91CF919C
:101C40001F910F91FF90EF90DF90BF90AF9008959C
:101C5000FE01E855FD4F8081909111018923882371
:101C6000C1F0F70121812052330B40814057550BC1
:101C700060919C0670919D0680919E060D2DF50148
:101C800009950E94C107462F672F282FCE010E9479
:101C9000CC0AF2E0EF0EF11C2196CACFA0E0B0E032
:101CA000E4E5FEE00C94A0333C01809110010E9419
:101CB000D20AC82F192F60919F0666958091B105B1
:101CC0009091B2050E944908F82ED0E0CE01880F0D
:101CD000991F9C012E5D3D4F6901C11748F081E0BD
:101CE000133408F080E0CDB7DEB7EEE00C94BC33DF
:101CF000FE01E855FD4F80819091110189238823D1
:101D000079F1F6018081282F2057330B5901818109
:101D1000E82FE052FF0B4F01AA9C9001AB9C300DC5
:101D2000300D1124EE9FC001EF9F900D900D1124F6
:101D3000820F931F0E945308082F60919C06709198
:101D40009D0680919E06EF2C9401A501F301099553
:101D50000E94C107462F672F282FCE010E94CC0A70
:101D6000F2E0CF0ED11C2196B8CFA4E0B0E0EBEBAF
:101D7000FEE00C94A6336C01809110010E94D20AFF
:101D80008B83F92E60919F06669566958091B105CB
:101D90009091B2050E944908182F80E4810F0E949B
:101DA000980880588983812F0E94980880588A83D8
:101DB0009B81892F90E09C838B839B819F1548F0AA
:101DC00081E0E2E4EF1508F480E02496E8E00C946A
:101DD000C233EB81FC81E855FD4F80819091110168
:101DE00089238823A9F060919C0670919D068091BB
:101DF0009E06E12E0B812A814981F60109950E94F8
:101E0000C107462F672F282F8B819C810E94CC0A07
:101E10008B819C810196CFCFEF92FF920F931F93FE
:101E2000CF93DF937C01809110010E94D20AC82FCA
:101E3000192F60919F066695669521E0620F08F460
:101E40006FEF8091B1059091B2050E944908082F6B
:101E5000D0E0C11748F081E0133408F080E0CDB73E
:101E6000DEB7E6E00C94C433FE01E855FD4F8081F7
:101E7000909111018923882391F060919C067091C3
:101E80009D0680919E06202F4C2FF70109950E94F8
:101E9000C107462F672F282FCE010E94CC0A21961A
:101EA000D8CF982FE42FE2709093E900891308C0EF
:101EB000762F242F50E0E11111C091E0980FF4CF5C
:101EC0007091EC002091ED005091F00021FD06C0D2
:101ED0009F5F973049F78093E90008953091EB00B8
:101EE0003E7F3093EB003091ED003D7F3093ED006D
:101EF0003091EB0031603093EB007093EC00209355
:101F0000ED005093F0002091EE0027FDE1CF089501
:101F1000A0E0B0E0EEE8FFE00C94A633C8EDD0E01E
:101F200088818F7E8883E7EDF0E080818160808307
:101F300084E082BF81E08093540388818E7F888310
:101F400002EE10E0F80110821092DA0081EEC82E45
:101F5000D12CF601108288818F77888388818068F0
:101F6000888388818F7D888319BC109234061092F3
:101F700053031092C2051092520390EEE92EF12CF9
:101F8000F70180818B7F808388818160888342E034
:101F900060E080E00E94510FF60180818E7F808397
:101FA000F801808181608083808188608083F7016F
:101FB00080818E7F8083888180618883CDB7DEB702
:101FC000E8E00C94C233E091AE069091AD0627E0B4
:101FD000E91302C080E00895AE2FB0E02E9FF0011B
:101FE0001124E155F94F3181361306C03081381381
:101FF00003C03581341304C0FD013196E770E8CF8A
:1020000081E0089581E08093E00080E28093D80031
:102010001092C9008FE19EE40197F1F700C0000023
:1020200087E090EBDC018093F1069093F206A09399
:10203000F306B093F40688E19CE00FB6F894A895F7
:10204000809360000FBE90936000FFCF0F931F93AB
:10205000CF93DF93EB018A0190913406943079F5A8
:102060008093E9008FEF9091E80095FD07C095ED12
:102070009A95F1F7000081508111F5CF8091E80029
:1020800085FF1DC00E94A60D811114C08091E8003B
:1020900085FD06C08091E8008E778093E800F2CF3E
:1020A00088818093F100015011090115110511F08B
:1020B0002196ECCF8091E8008E778093E800DF9145
:1020C000CF911F910F910895CF93DF93D82FC92FF0
:1020D00048E050E0682F792F81E00E94261088E0C8
:1020E000ED2FFC2FADE5B3E001900D928A95E1F75D
:1020F000DF91CF910895BC0140E250E084E00E945E
:1021000026100895BC0146E050E084E00E942610AD
:102110000895BC0143E050E084E00E942610089539
:102120009091EF0692FB222720F9281779F080FB87
:1021300092F99093EF066091EE067091EF0684E0BD
:1021400090E00E94713482E00E946B0508951F9315
:10215000CF93DF93962F122F632F8530D8F49530CD
:10216000C8F44F30B8F4C42FD0E0CC0FDD1F2EE1FF
:10217000929FC00DD11D112496E9899FC00DD11DDC
:102180001124CE0188960E945334612FCE01899686
:102190000E945334DF91CF911F910895AF92BF9267
:1021A000CF92DF92FF920F931F93CF93DF93A12CD7
:1021B000B12C00E0650110E013C0FE0125913491BF
:1021C0004F2D612F802F0E94A7102296F3948FE04D
:1021D000F812F3CF8FE0C80ED11C1F5F153039F015
:1021E000E601CC0FDD1FC359DD4FF12CE6CF0F5FA9
:1021F0008BE4A80EB11C0530E9F6DF91CF911F9159
:102200000F91FF90DF90CF90BF90AF900895CF9344
:10221000DF93C6E1D3E060E0CE010E945334219603
:10222000C11584E0D807B9F7DF91CF9108958823CD
:1022300081F064E284E290E00E94533465E085E23C
:1022400090E00E94533462E186E290E00E945334B1
:1022500008956FEF84E290E00E9453346FEF85E2BF
:1022600090E00E9453346FEFEFCF80E00E9417118F
:1022700060E087E290E00E9453340E94CE100E94FA
:10228000071181E00E94171108950F931F93CF93B8
:10229000DF93853030F5653020F54F3010F5C42FD1
:1022A000D0E0CC0FDD1F2EE1629FC00DD11D1124A7
:1022B00036E9839FC00DD11D1124CE0188960E945E
:1022C0003534082F10E0102F0027CE0189960E9488
:1022D00035349801282BC901DF91CF911F910F91BF
:1022E000089580E090E0F8CF462F672F753038F4DE
:1022F0004F3028F4853018F40E944511089580E08D
:1023000090E00895A0E0B0E0E8E8F1E10C94A73394
:102310007C010091F0068091A606082BC4E0D0E075
:1023200010E0C8010C2E02C0959587950A94E2F73B
:1023300080FD09C02197A8F7D12C8D2DCDB7DEB730
:10234000E7E00C94C333DC2EB7018C2F0E9474118C
:102350000E948D06019771F3F0CF0F931F93CF93D7
:10236000FC01858100811181882391F0662381F031
:10237000C8010E948211C82F682FC8010E94D5048D
:10238000B8018C2F0E947411CF911F910F91089565
:10239000C8010E940C05C82FF3CFCF93DF93D82F2D
:1023A000C92F0E9482116D2F7C2F0E9474110E94F0
:1023B0008D06DF91CF910895FC0184818823A1F0DF
:1023C000808191810E94CD11282F92959F70963027
:1023D00091F060F4925F9F70923030F481E0203F82
:1023E00079F030F4283E30F080E004C09A5FF3CFFB
:1023F000243FD1F7089581E0283E18F0213FF9CF1E
:102400000895089584E290E00E943534843289F47E
:1024100085E290E00E943534853059F486E290E000
:102420000E94353491E0823109F090E0892F81706B
:10243000089580E0FCCF48E050E067E170E08BE970
:1024400096E00E9443341092BF050895A1E0B0E0E9
:10245000ECE2F2E10C94AA334983E82FF0E0E75470
:10246000FE4F808104E610E021E030E0AE014F5FD6
:102470005F4F880F0E9436332196E4E00C94C633F8
:10248000A3E0B0E0E6E4F2E10C94A6338AEF93E037
:102490009B838A8389EBE82E81E0F82EEA81FB8119
:1024A00080818823E1F06F01F0E9CF1AD10824E29E
:1024B0002983F701808104E610E020E130E0A601E5
:1024C0006981880F0E943633F981F05FF98320E13A
:1024D000C20ED11CF43B69F7EA81FB8110828A812C
:1024E0009B818C559F4F9B838A839FEFE91AF90A42
:1024F000EA81FB81E254F54089F62396E8E00C94EA
:10250000C233A4E0B0E0E7E8F2E10C94A6330E9405
:10251000003310E04BE06DEF812F0E94261240E067
:102520006AE0812F0E9426128FE39CE90197F1F760
:1025300000C0000040E060E0812F0E94261240E0D1
:1025400061E0812F0E94261240E066E0812F0E9408
:10255000261240E06DEF812F0E94261200E040E03D
:10256000602F812F0E9426120F5F0231C1F740E0D9
:10257000602F812F0E9426120F5F0432C1F740E0C6
:10258000602F812F0E9426120F5F043BC1F74BE0A2
:102590006DEF812F0E94261241E06AE0812F0E9498
:1025A000261240E06DEF812F0E942612112309F4BC
:1025B0008DC00BE515E024EAC22EEE24E394F12C45
:1025C000DD24D39444E050E0B801CE0101960E948E
:1025D000F4336A814B812C8189818370E62FE695E3
:1025E000E695E695C89EC001112486599C4FE80FD8
:1025F000F92FF11DEF56FF4F6770D70102C0AA0FE8
:10260000BB1F6A95E2F730813A2B3083E42FE695C1
:10261000E695E695E80FF92FF11DEF56FF4F47704D
:10262000B70102C0660F771F4A95E2F73081362B5B
:102630003083E22FE695E695E695E80FF92FF11D38
:10264000EF56FF4F2770D70102C0AA0FBB1F2A9574
:10265000E2F79D013081232B20838D559F4FFC0194
:10266000D0820C5F1F4FF6E007361F0709F0AACF94
:1026700080910D04882389F09BEFE92E93E0F92ED9
:1026800010E0D7014D917D01612F80E00E9426125C
:102690001F5F1231B1F710920D048091B1048823AD
:1026A00089F08FE9E82E84E0F82E10E0F7014191DF
:1026B0007F01612F81E00E9426121F5F1231B1F766
:1026C0001092B1042496E8E00C94C23311E022CFBA
:1026D000A4E0B0E0EEE6F3E10C94A933F62E042F6B
:1026E000122F8334910508F046C0BC01660F771F96
:1026F000660F771F655A7A4F44E050E0CE0101968D
:102700000E94F43389818370682F70E02A8130E061
:1027100044EA849FC001112486599C4FFC01E20FBA
:10272000F31FE0815B814C81EF110CC0FC01E50FD0
:10273000F11DE081E01306C0FC01E40FF11D808172
:102740008117C9F0E4EAE69FC001E79F900D1124CC
:1027500086599C4F280F391FF901F082FC01E50FC3
:10276000F11D0083FC01E40FF11D108380579F4F82
:1027700021E0FC0120832496E5E00C94C533FF9210
:102780000F931F93CF93DF93182F062FF42EC0E0E3
:10279000D0E02F2D402F612FCE010E94681321968B
:1027A000C334D105B1F7CDB7DEB7E5E00C94C5333E
:1027B0001F921FB61F9211248F939F93AF93BF93C5
:1027C0008091C005811113C08091190690911A065D
:1027D000A0911B06B0911C064196A11DB11D8093CE
:1027E000190690931A06A0931B06B0931C06BF917E
:1027F000AF919F918F911F901FBE1F9018952FB77B
:10280000F8948091190690911A06A0911B06B09138
:102810001C062FBF0895CF93DF93C091A30680912C
:10282000A706C82B8091A406882339F10E94FF13C4
:102830002091AB063091AC06821B930B8C3D9540EA
:1028400010F00E948F05D091A40680912101882369
:10285000F1F08091EE0687FF1AC08DE12EE233E0A1
:1028600090E0F90140812F5F3F4F41119F5F815000
:10287000C0F791110E948F05CD2B8091890680951C
:102880008C2390918806892BDF91CF91089585E064
:1028900026E233E0E5CF80912101882359F1809130
:1028A000EE0687FF27C00E940B1480932D0340E2A1
:1028B00050E067E376E08CE293E00E94FD33892BE1
:1028C000C1F080E2ECE2F3E0A7E3B6E001900D9204
:1028D0008A95E1F7E0915706F0915806309749F054
:1028E00086E080932C030480F581E02D8CE293E058
:1028F000099508950E940B148093240348E050E04A
:1029000069E576E084E293E00E94FD33892B89F348
:1029100088E0E4E2F3E0A9E5B6E001900D928A9543
:10292000E1F7E0915706F0915806309711F30280D5
:10293000F381E02D84E293E0DBCF882339F090919E
:10294000A306892B8093A3060E944B140895882325
:1029500039F09091A706892B8093A7060E944B140B
:102960000895882321F00E9487050E944B14089542
:10297000882341F080959091A70689238093A7062C
:102980000E944B140895CF93DF93EC014A855B8539
:102990006E857F850E94010C9B8190958091A70692
:1029A00089238093A7068C810E9487050E944B147F
:1029B00086E0FE0111928A95E9F7DF91CF910895A3
:1029C000CF93DF93EC018D8181FD17C082608D83F1
:1029D0008091A7069B81892B8093A7068091A306EF
:1029E0009C81892B8093A3060E944B1448855985AE
:1029F0006E857F85CE010E94010C10929606109282
:102A000095068D8180FD03C0CE010E94C314DF9125
:102A1000CF9108950E94FF1320918406309185067E
:102A2000232B222321F080932706909328062091C0
:102A3000860630918706232B222321F080932506DA
:102A400090932606E0915706F0915806309749F08A
:102A500082E0809382060680F781E02D82E896E08E
:102A600009950895209184069091870630918606F5
:102A7000662309F45AC040918506242B292B232B69
:102A8000222331F098E09093800691E090937F06A6
:102A90008D3C41F40E94BC0B8195809385060E9479
:102AA0000A150895E2E3E80FE231C8F7F0E0E758CD
:102AB000FB4C0C94E7330E94BC0BEFCF0E94BC0B85
:102AC000819580938406EBCF0E94BC0BFACF0E94C5
:102AD000DC0B80938606E3CF0E94DC0B8195F9CF57
:102AE0000E94DC0B819580938706D9CF0E94DC0B76
:102AF000FACF815D990B21E030E001C0220F8A9569
:102B0000EAF780918306822B80938306C8CF809159
:102B10008106816080938106C2CF809181068260A8
:102B2000F9CF809181068460F5CF8D3C59F4809176
:102B3000850687FF0DC010928506222359F4109256
:102B4000800608C08E3C81F48091850618169CF39F
:102B5000222381F08091860690918706892B81112E
:102B60009ECF10927F069BCF8F3C41F427FFF0CF82
:102B700010928406809185068823E0CF803D19F469
:102B80001216B4F3E5CF893D29F413160CF7109211
:102B90008606DECF8A3D19F437FFDACFF8CF8B3DBA
:102BA00029F497FFD5CF10928706D2CF8C3D19F428
:102BB0001916CCF3CDCF9FE2980F983090F4815D39
:102BC000990B41E050E0BA0102C0660F771F8A9569
:102BD000E2F7CB0180959091830689238093830649
:102BE000B7CF8D3D31F4809181068E7F8093810631
:102BF000AFCF8E3D21F4809181068D7FF7CF8F3D41
:102C000009F0A6CF809181068B7FF0CFCF93C82F9C
:102C10008823B1F18CEF8C0F813AA0F580912101CE
:102C2000882301F18091EE0687FF1CC0EC2FE6950A
:102C3000E695E695F0E0E45DFC4F828190E04C2F54
:102C4000477021E030E002C0220F331F4A95E2F7BF
:102C500082239323892B79F08C2F0E94930C0E945E
:102C60004B1409C0E6E2F3E08191C817A9F323E011
:102C7000EC32F207C9F78C2F0E945F0C0E944B14B4
:102C8000CF91089580E28C0F883068F4C77081E09E
:102C900090E001C0880FCA95EAF7C091A306C82B3F
:102CA000C093A306EBCF8BE58C0F833038F42C2F29
:102CB0002452330BC9010E94130CE2CFE8E5EC0F5C
:102CC000EB3150F4F0E0EE0FFF1FE551FD4F808136
:102CD00091810E94390CD4CF83E38C0F833180F62D
:102CE00061E08C2F0E943215CBCFCF93DF93EC01A4
:102CF000805E9109089720F067EA74E1209711F44B
:102D00006DE974E1CE010E947E048C2F0E940616AC
:102D1000DF91CF910895CF93DF93EC01FB018A817E
:102D2000823039F4828193810E9475168D81826090
:102D30008D83DF91CF910895FB01808191810E9465
:102D400075160895882381F19CEF980F913A28F425
:102D50000E94930C0E944B14089590E2980F9830B3
:102D600050F4877091E001C0990F8A95EAF7892F96
:102D70000E948705EFCF9BE5980F933028F480E001
:102D800090E00E94130C089598E5980F9B3128F469
:102D900080E090E00E94390C089593E3980F9331FE
:102DA00018F460E00E9432150895CF93DF93EC0190
:102DB0000E94A216CE01805E9109089720F068EB70
:102DC00074E1209711F461EB74E1CE010E947E045E
:102DD000DF91CF910895FB01DC0112968C91813037
:102DE00029F4808191810E94D51608958230E9F7F7
:102DF00082819381F8CF1F93CF93DF93182FEB013C
:102E00000E940616209739F4812F0E94A216DF91A6
:102E1000CF911F9108958FE99FE00197F1F700C0CE
:102E200000002197EFCF0E94460480937901833000
:102E3000A1F0843041F0823099F460E570E089E3DC
:102E40000E94FB1608958091F006882331F081FFDF
:102E500004C081E00E94AC04089581E00E94A004B7
:102E600008951F93CF93DF93182FA0918B06B091F5
:102E70008C06109709F44AC010928E0610928D06A7
:102E800010928906109288061696CD91DC911797BC
:102E9000CE019A9581159F4108F4D07ED1E0C111F1
:102EA00001C0D0E01996ED91FC911A97309731F05E
:102EB0001B966D917C9180E00995D823DD2339F034
:102EC0008CEF8C0F813A30F58C2F0E94930C1123DC
:102ED000A9F0E0918B06F0918C06808584FD0EC0F0
:102EE00080918A06882351F0808191819C01215034
:102EF00031092F333E4710F40E94DD0C0E944B1421
:102F000010928C0610928B0610928A06DF91CF9158
:102F10001F9108950E944B148C2F0E94A216D7CFA8
:102F20001092A30680912101882339F18091EE0649
:102F300087FF23C0EEE2F3E08EE1DF011D928A9568
:102F4000E9F780E090E00E94130C80E090E00E949E
:102F5000390C1092A7060E944B1486E0E2E8F6E0D6
:102F6000DF011D928A95E9F71092800610927F0684
:102F7000109281060E940A150895E6E2F3E086E0C9
:102F8000DCCF0E9490172FEF84E39CE0215080401B
:102F90009040E1F700C0000088E19CE00FB6F89493
:102FA000A895809360000FBE90936000FFCFAAE2C7
:102FB000B0E0EDEDF7E10C94AB3385E593E0FC0177
:102FC00001962091F100208323E08D359207B9F717
:102FD00080915603893009F456C0C8F4823009F450
:102FE000B3C0833009F482C0813071F18091E80070
:102FF00083FFE7C080915503909156039A3008F003
:10300000E0C0E92FF0E0E557FB4C0C94E7338A3041
:1030100009F489C08B3051F780915503813231F723
:103020008091590390915A03892B01F78091E80010
:10303000877F8093E8000E94870D809157038093DB
:1030400021010E949017D2CF80915503813A71F6E9
:103050008091E800877F8093E800809159039091E8
:103060005A03892B61F060E080E090E070E00E94FC
:103070002E0D8091E8008B778093E800B7CF68E051
:103080008DE593E0F3CF80915503813209F0AECF07
:103090008091590390915A038D7F892B09F0A6CF17
:1030A0008091E800877F8093E8008091E80082FFAC
:1030B00018C09091F3008091F200029731F4809152
:1030C000F100813011F0863021F48091F10080937D
:1030D00065038091E8008B778093E8000E94870D5C
:1030E00085CF809134068111E0CF80CF8091550348
:1030F000813A09F07BCF8091590390915A03892B33
:1031000009F074CF8091E800877F8093E800809178
:10311000E80080FFFCCF809121018093F100809135
:10312000E8008E77D9CF80915503813209F05ECFC8
:103130008091E800877F8093E8000E94870D80914E
:1031400058038093510352CF80915503813A09F07F
:103150004DCF8091E800877F8093E8008091E80060
:1031600080FFFCCF80915103D8CF803889F082381E
:1031700041F5809159038F70873018F58093E900ED
:103180008091EB0085FB882780F91092E90006C04A
:10319000809152039091C205911182609091E80054
:1031A000977F9093E8008093F1001092F100809156
:1031B000E8008E7723C0811116C0809157038130BB
:1031C00011F18091E80083FF0AC08091E800877FB9
:1031D0008093E8008091EB0080628093EB00AA96D8
:1031E000E3E00C94C733823061F780915703882362
:1031F00089F01092E9008091E800877F8093E800D1
:103200000E94870DDECF81E0933009F080E080934B
:10321000C205EFCF809159038F702FEF280F263012
:1032200080F68093E9002091EB0020FFE2CF9330FD
:1032300031F48091EB0080628093EB00DACF9091C3
:10324000EB0090619093EB0021E030E0A90102C017
:10325000440F551F8A95E2F74093EA001092EA0066
:103260008091EB008860E8CF8111ABCF10915703BC
:103270001F778091E3008078812B8093E300809119
:10328000E800877F8093E8000E94870D8091E80026
:1032900080FFFCCF8091E30080688093E30083E0AF
:1032A000111101C082E0809334068BCF80588230A8
:1032B00008F087CF40915703509158034C3D83E06D
:1032C000580799F583E08A838AE289834FB7F89497
:1032D000DE01139620E03EE051E2E32FF0E0509350
:1032E0005700849120FF03C082958F703F5F8F70DD
:1032F0008A30C8F0895C90E08D939D932F5F2431D4
:1033000061F74FBF8091E800877F8093E8006AE211
:1033100070E0CE0101960E942E0D8091E8008B771F
:103320008093E8004ECF805DE6CF80915903909165
:103330005A03252F33272330310509F44AC078F585
:103340002130310509F479C08BE590E0E8ECF1E03B
:103350002230310509F035CF2091E800277F2093F6
:10336000E80020915B0330915C038217930708F417
:103370009C0140E02115310509F064C0411162C093
:103380008091E80082FDC9CF80913406882329F21C
:10339000853019F28091E80083FFF2CFBECF213251
:1033A000310509F43BC02232310509F00ACF8330E0
:1033B000910508F006CFFC01EE0FFF1FE355FE4F0D
:1033C0000190F081E02D86559E4FDC018C9190E0BC
:1033D00011C0CA019927413089F082309105B1F0BE
:1033E000892B09F0EECEE9E6F2E0E4918E2F90E031
:1033F000E9E6F2E0009709F4E4CEAECFE7E5F2E0CB
:10340000E4918E2F90E0E7E5F2E0F4CFE5E3F2E01F
:10341000E4918E2F90E0E5E3F2E0ECCF833091056C
:1034200008F0CFCEFC01EE0FFF1FED54FE4F0190D0
:10343000F081E02D89E090E08FCF82E190E0E3E23F
:10344000F2E08ACF80913406882309F466CF853074
:1034500009F463CF8091E80083FD5FCF8091E8009D
:1034600082FD8ECF8091E80080FF84CF9091F300A1
:103470008091F2002115310519F08830910550F046
:1034800041E0089709F040E08091E8008E77809352
:10349000E80070CF44914093F100319621503109FA
:1034A0000196E8CF803809F08CCE8091E800877FC4
:1034B0008093E800809153038093F10078CE8111CE
:1034C00080CE10915703123008F07BCE8091E80037
:1034D000877F8093E800109353030E94870D112388
:1034E000D1F084E08093340642E061EC81E00E94F8
:1034F000510F42E261EC84E00E94510F42E261EC24
:1035000082E00E94510F42E260EC83E00E94510F82
:103510008091340656CE8091E30087FDE2CF81E0B2
:10352000E1CF9091EF0692FF10C098E0899F900143
:10353000112423602093A8060E94A0040E94FF1378
:103540009093AA068093A90608950E94A004089566
:103550000E944604809377018330A1F0843041F0CB
:10356000823099F40E94911A81E00E946B050895BF
:103570008091F006882331F082FF04C082E00E942F
:10358000AC04089582E00E94A00408950E944604BD
:10359000809375018330A9F0843049F08230A1F422
:1035A00083E00E94911A81E00E946B05089580914A
:1035B000F006882331F083FF04C083E00E94AC044E
:1035C000089583E00E94A00408959C014FB7F894E9
:1035D0008091190690911A06A0911B06B0911C06C5
:1035E0004FBF821B930B0895A5E0B0E0EAEFFAE12C
:1035F0000C949E338D83809120012D81821326C0EF
:1036000020919B06237030E040911F0150E081E043
:103610002417350709F480E08170809312018091AE
:10362000A00690911101981739F08093110140E0A4
:1036300060E080E00E94CF0A3D813A3108F077C215
:10364000E32FF0E0EB56FB4C0C94E73381E0E4CF42
:1036500080911201882309F444C440E060E080E0D6
:103660000E94CF0A809110018F5F8093100182E049
:103670008093730180911201882309F437C4D9C261
:10368000809110010E94D20A082F998360919C06B4
:1036900070919D0680919E060E94C107F62EE72E2E
:1036A000D82E10E04981041718F081E0423438C068
:1036B000F801E855FD4F80819091110189238823FD
:1036C00031F02D2D4F2D6E2DC8010E94CC0A0F5FB9
:1036D0001F4FE8CF809110010E94D20A082FD92EE7
:1036E00050919C065983F0909D0610919E06652F7F
:1036F0007F2D812F0E94C107C62EB72EA82E809144
:103700009F066981680F7F2D812F0E94C107698301
:10371000F72EE82E10E00D1538F081E092E49D15AB
:1037200008F0A5C080E0A3C0F801E855FD4F8081F6
:10373000309111013823332359F02E2D49816F2DFB
:1037400080FD03C02A2D4C2D6B2DC8010E94CC0A90
:103750000F5F1F4FE0CF809110010E94D20A998322
:10376000D0909D06C0909E0630919F0620E4239F36
:10377000212D1124082F10E0E22EF12CA9810A1727
:1037800018F081E0A234CCCFF801E855FD4F8081DC
:103790009091110189238823E9F0F801EE0FFF1FB2
:1037A000EE5DFD4F20812E9DC0012F9D900D1124B7
:1037B00075E0959587957A95E1F760919C06680F7D
:1037C0007D2D8C2D0E94C107462F672F282FC80101
:1037D0000E94CC0A0F5F1F4FD1CF809110010E9431
:1037E000D20A082F9983F0909C0610919D06E090D4
:1037F0009E0660919F066695669566958091B105D7
:103800009091B2050E9449080E949808805887FD4F
:103810008195880F282F3E2D239F212D1124822F43
:103820006F2D712F0E94C107F62EE72ED82E10E0C3
:103830004981041708F039CFF801E855FD4F808120
:10384000909111018923882331F02D2D4F2D6E2D5C
:10385000C8010E94CC0A0F5F1F4FEACF86EE98E0A6
:103860000E940C0F04C084E199E00E94F60D909133
:1038700010019F5F909310018111DBC182E0809362
:103880007301809112018111D4C15D815523F5CE60
:1038900083E399E00E944E0EEACF8EE499E0E0CFF8
:1038A00080E599E0DDCF89E599E0DACF82E699E01D
:1038B000D7CF8BE799E0EECF8CE899E0D6CF85EBB8
:1038C00099E0D3CF86EC99E0E5CF8AED99E00E94AC
:1038D000B50ECDCF88E09AE0FACF87E39AE0F7CF34
:1038E000809110010E94D20A082F9983E0909D06D2
:1038F000F0909E0610919C0660919F0666956695D5
:1039000066958091B1059091B2050E9449080E9488
:10391000980820E8280F27FD2195220F3CE0239FDF
:10392000212D1124612F620F7E2D8F2D0E94C10742
:10393000F62EE72ED82E10E05981051718F081E0F9
:103940005234EECEF801E855FD4F8081909111017F
:103950008923882331F02D2D4F2D6E2DC8010E9413
:10396000CC0A0F5F1F4FE8CF80E79AE079CF86E956
:103970009AE076CF809110010E94D20AF92E4091F0
:10398000B1055091B2056091B3057091B405809175
:10399000B6049091B704A091B804B091B90484170B
:1039A0009507A607B70708F051C00E94830893E463
:1039B000899F80011124012F110F110BF801E85587
:1039C000FD4F8081909111018923882309F43EC025
:1039D0000E94830881FD3EC00E94830889830E9463
:1039E0008308A0E88A9FC00111247FE7790F8091A6
:1039F0009E0669810E94C107462F672F282FC801A4
:103A00000E94CC0A20919F0630E1230F08F42FEF8B
:103A100060E1822F90E00E944908BC0184EF91E0B0
:103A20000E9488338091B1059091B205A091B305B1
:103A3000B091B405860F971FA11DB11D8093B604E8
:103A40009093B704A093B804B093B90481E0B2E4B2
:103A5000FB1666CE80E070E01982CBCF8091120118
:103A6000009183051091840520918505309186058C
:103A70004091B1055091B2056091B3057091B405C4
:103A8000401751076207730708F451C0811158C0ED
:103A9000809110010E94D20AF92EE82FF0E0FA83FB
:103AA000E9838F01000F111F0E0F1F1F06541B4FBC
:103AB000F981FF1508F484C022E42F1508F0B4C082
:103AC0008F2D90E0AC01440F551F480F591F4350F4
:103AD00051096DEB74E08AEB94E00E940A340E9475
:103AE000830881FF8AC01092800510928105109290
:103AF00082050E94A70A69837A838B839C838091C5
:103B0000B1059091B205A091B305B091B40529819A
:103B10003A814B815C81820F931FA41FB51F809354
:103B2000830590938405A0938505B09386058091C5
:103B300010018F5F8093100182E08093730179C040
:103B400040E060E080E00E94CF0A0AEB14E01A82B5
:103B500019820E94830881FF12C0D8011C9211961D
:103B60001C92119712961C92E981FA813196FA8380
:103B7000E9830D5F1F4FE334F10559F789CF0E94A8
:103B80008308F82E0E948308B0E88B9FC00111249F
:103B90007FE7790F89819A81880F991FE981FA81DE
:103BA0008E0F9F1F9C0126543B4F69016F2D809102
:103BB0009E060E94C107D6016D937D938C93D4CF4E
:103BC000E981FA81E855FD4F8081909111018923A7
:103BD000882359F0D80112962C9112974C91119686
:103BE0006C9189819A810E94CC0A0D5F1F4FE981F7
:103BF000FA813196FA83E9835BCF0E948308898337
:103C00000E94830830E8839FC00111247FE7790F69
:103C1000698180919E060E94C10760938005709320
:103C200081058093820565CF809110018F5F80931D
:103C300010012596E0E10C94BA338091120188239B
:103C400029F040E060E080E00E94CF0A80911001FE
:103C50000E94D20A592E4091B1055091B20560914F
:103C6000B3057091B4058091AA059091AB05A09120
:103C7000AC05B091AD0584179507A607B70708F006
:103C800081C060919C0670919D0680919E060E9465
:103C9000C1076983772E682E97E8E92E95E0F92E03
:103CA00007ED11E0580148016701412CD6012D9123
:103CB0006D01F40181914F0190E0222309F466C067
:103CC000262D4981672D0E94CC0AD5011E968C9124
:103CD000262D4981672D90E00E94CC0AD6018C9157
:103CE000F601319780834394B1E0AB1AB108E6E066
:103CF0004E12DCCFD80116968C9190E0F701268108
:103D0000222309F44EC0262D4981672D0E94CC0A3A
:103D1000D80118968C91262D4981672D90E00E943C
:103D2000CC0A0E948308837091E0811190E0D70152
:103D300016969C93B7E0EB0EF11C015F1F4FE2E07B
:103D400002321E0709F0AECF0E94A70A69837A8368
:103D50008B839C838091B1059091B205A091B305AE
:103D6000B091B40529813A814B815C81820F931F08
:103D7000A41FB51F8093AA059093AB05A093AC0533
:103D8000B093AD0581E032E45316CACC20E040E0A8
:103D900060E00E94CC0AF501868520E040E060E00A
:103DA0009ACF20E040E060E00E94CC0AF8018085D4
:103DB00020E040E060E0B2CF809110010E94D20A82
:103DC000682E092F80911201882361F040E060E0A5
:103DD00080E00E94CF0AE3ECF5E08BE4DF011D9266
:103DE0008A95E9F780911001811117C08091AF0584
:103DF0009091B0050E94E51A9C0181E029313105BE
:103E000008F480E08093AE052931310530F00E943E
:103E1000FF139093B0058093AF05A12CB12C712CAA
:103E20008AEA582E65014FE04983F601E952FE4FB8
:103E3000E080E61408F43EC0E01608F03BC0F12C28
:103E4000F701E855FD4F8081909111018923882366
:103E500009F42FC0F601ED53FA4F4F011081612F85
:103E600025E5621B08F460E070919D06352D310F49
:103E700008F43FEF40919E06232F220F230F2E5F61
:103E8000249F212D1124352D361B632F822F0E9454
:103E9000C107462F672F282FC7010E94CC0A8091A7
:103EA000AE05882331F041E0141B08F410E0D40182
:103EB0001C937394B981B150B983EFEFCE1ADE0A27
:103EC000B111B3CFFCE3AF16B10419F481E00234B1
:103ED00027CC2FE0A20EB11C33E0371508F0A2CF9B
:103EE000F5CF809110018F5F8093100183E025CE84
:103EF000CF930E94C00C6093B2047093B30480937C
:103F0000B4049093B5042091C105C0E0211109C00B
:103F100020919B06C22FC370CC2319F0C22FC695E7
:103F2000C69520917301223009F460C080F42111FC
:103F300013C0109210016093B1057093B205809385
:103F4000B3059093B40581E08093730103C02330DF
:103F500009F457C0CF9108958C2F0E94F41ACC23F6
:103F6000C9F380917301823059F40E94060C81FFDD
:103F700007C02FEF4FEF6FEF8EE190E00E94CC0A69
:103F80008091F0060E948804823021F1A0F421E2A1
:103F900045EA69ED811121C00E94060C2FEF4FEF19
:103FA00060E081FD1AC021E040E060E080E090E048
:103FB0000E94100BCFCF8330A9F0843059F623E351
:103FC00043E36EEE8BE390E00E94CC0A23E343E3ED
:103FD0006EEE03C020E04FEF60E88DE390E00E94BA
:103FE000CC0AB8CF2DE44CE76FEFF7CFC093200198
:103FF00080919B06837080931F010E94401283E092
:10400000A3CF8091BF0581110E941B124091B10581
:104010005091B2056091B3057091B4052FB7F89433
:104020008091190690911A06A0911B06B0911C066A
:104030002FBF841B950BA60BB70B4A97A105B105A3
:1040400008F488CF1092730185CF0F931F93CF93FD
:10405000DF93C62FD42F122F8823A9F060939906DF
:104060000E94FF139093500380934F03C77081E029
:1040700001C0880FCA95EAF70E949D14DF91CF9185
:104080001F910F91089580919906681336C0809111
:104090004F03909150030E94E51A883C910568F502
:1040A000CD130EC060E070E0812F0E94FB16D77028
:1040B00081E001C0880FDA95EAF70E94B114DECFE3
:1040C000C77001E0802F01C0880FCA95EAF70E94EF
:1040D000B11480E28D0F883050F48D2F877001C0AD
:1040E000000F8A95EAF7802F0E949D14DBCF60E0D5
:1040F00070E0812F0E94FB16C1CFC77081E001C024
:10410000880FCA95EAF7D9CFA9E0B0E0EAE8F0E273
:104110000C949C337C01DC0114968C91882309F467
:10412000DAC061E0C7010E94AD118C01F701858101
:10413000882319F180919506909196060097E9F0F1
:1041400008171907D1F0992754E0880F991F5A953D
:10415000E1F7FC01E85DFE4F2081246020838D5D46
:104160009E4FDC010D931C930E94E0141092A70651
:1041700061E0C7010E94AD118C01F7015580552007
:1041800009F46CC1C80197578038910508F04CC1FB
:10419000003108F090C08FEF93E00E943534811118
:1041A0008AC046E1C42E43E0D42E011153C01A82C6
:1041B0001982FE01339686E0DF011D928A95E9F7A8
:1041C0005601BFEFAB1ABB0AC6010E943534898382
:1041D0001A82882309F46FC0813009F080C08601FB
:1041E0000E5F1F4FC5010E9435348A83882309F46E
:1041F00062C09FEF980F9330E0F5E3E0CE0ED11C44
:10420000C8010E9435348B83882309F454C01C8272
:104210008E010F5F1F4FD8018C91882389F2813066
:1042200009F0A0C011968C911197813009F059C006
:104230005801B2E0AB0EB11CF801828160E070E081
:10424000893311F460E570E00E94FB1685010F5F71
:104250001F4FE1CFC114F4E0DF0669F1C6010E94EF
:10426000353496012F5F3F4F69018111F3CF015023
:104270009CCF8430B9F432E0C32ED12CC8010F5F3B
:104280001F4F0E943534E1E0F0E0EC0FFD1FEC0D14
:10429000FD1D8083882379F08C3731F4FE01EC0D0D
:1042A000FD1D12826801B4CFFFEFCF1ADF0A27E0AD
:1042B000C216D10419F78091A8068770882359F097
:1042C000F7018581882339F08091EF0682FF03C0D2
:1042D00082E00E946B052996E2E10C94B8336501F7
:1042E00097CF823049F45801F2E0AF0EB11C12961C
:1042F0008C910E940616AACF833049F45801B2E08F
:10430000AB0EB11CF80182810E94A2169FCF8430AF
:1043100019F00F5F1F4F9BCF12962C910E5F1F4F0E
:1043200080E090E06AE0A8014F5F5F4F2053330BBD
:104330002A30310558F0009709F489CFAFE9BFE082
:104340001197F1F700C000000197F5CF689FF001C9
:10435000699FF00D1124C9018E0F9F1FF801218163
:104360008A01E1CFE82FF0E0E956F84F6490282F5A
:1043700026952695269530E0F901E957F84F849067
:104380008770782E912C082E02C0959487940A94F9
:10439000E2F7B1E08B229924F901E958F84FA49093
:1043A000B12C02C0B594A7948A95E2F7E1E0AE2261
:1043B000BB24F901E959F84F54908114910449F54F
:1043C000AB2891F086EE0E94061660E070E0862D24
:1043D0000E94FB1686EE0E94A2168114910449F0F9
:1043E00081EE0E94A21605C060E070E0862D0E945A
:1043F000FB16E52DF0E0072C02C0F595E7950A9431
:10440000E2F7E0FF24CF60E070E08CE20E94FB1650
:104410001ECF81EE0E940616AB28A1F660E070E088
:10442000862D0E94FB16DCCF0E35FCE71F0791F0AE
:104430000F352CE7120741F00D353CE7130771F4F7
:1044400080912201882331F01092220180E00E94A5
:10445000311731CF81E0809322012DCF809122014D
:10446000882309F416C1480180EE881A910840900B
:10447000A5068091A306482A8091A406482A98E0C0
:104480008916910408F0E5C098012770332781E070
:1044900090E001C0880F2A95EAF7552009F4D6C0AC
:1044A000482AD7018D919C910E940C0521E030E0B3
:1044B000190102C0220C331C8A95E2F760908B062A
:1044C00070908C061986B985EB2FF0E0EE0FFF1F78
:1044D000E050FF4FC080D180C114D10409F479C1EC
:1044E000411004C0F6018281811135C1D6011396B5
:1044F0008C91139790E082219321892B09F42BC191
:1045000018968C91982F9770911129C1B8E08B164D
:10451000910408F01EC151102AC1F601A080B1809B
:104520000A151B0509F417C1C614D70409F413C1F1
:10453000D6011D96ED91FC91309721F08081882362
:1045400009F409C1642DC6010E948D0B882309F46A
:1045500002C10A151B0511F4511005C0A114B104C4
:1045600009F011C1512C80E00E943117D0928C06C5
:10457000C0928B0681E080938A06F6018581809344
:10458000890651100DC0AB2859F0808191819C01A2
:1045900024503109213A310508F0FDC00E94930CE6
:1045A000F601A680B780C5019A9581159F4110F448
:1045B00020EEB22277247394C50101978F339E4772
:1045C00008F0712CD6011996ED91FC911A9730974D
:1045D00031F01B966D917C9181E00995782281E004
:1045E0005826772009F4F2C0F601868197810E944F
:1045F000540480938806C501F8E08F16910408F0F2
:10460000CDC00E94DD0C0E944B14552009F4CFC090
:10461000D70115968C91882309F4D6C21092990679
:104620000631FCE71F0709F0EEC08091A306982F22
:104630009171911176C28A7A882309F472C291E04D
:1046400085E390939A060E945F0CB1C08095482242
:1046500028CF51106BC08091930690919406081753
:10466000190781F4109294061092930610928F0607
:1046700010929006109291061092920610928E0659
:1046800010928D06E0918B06F0918C06309709F020
:10469000E8C0F701858198013755F8012F3F3105B2
:1046A00011F008F01CC1FF2794E0EE0FFF1F9A9550
:1046B000E1F79F012D5D3E4F6901E85DFE4F90815E
:1046C00080FB90F99083882309F4EBC00E94FF13CC
:1046D0009093980680939706D60112968C91129724
:1046E0008F5F12968C9312978091A7069091A306E4
:1046F000892B13968C9313978091A40614968C9310
:10470000149716964D915C9117971E966D917C911A
:10471000C6010E94010CF601858181FDBFC0902F6A
:10472000812F909395068093960665C0109394060A
:10473000009393060E94C00C60938F0670939006BE
:10474000809391069093920610928E0610928D0699
:10475000A8CE51100CC0F985FF5FF987B4CEE8E010
:104760008E16910458F4552031F081FFF4CFD60114
:10477000AD90BC90D9CE82FFEECFCFCE552059F36D
:1047800080FFE9CFF4CF80919306909194068A152B
:104790009B0509F7E7CE0E94A21602CF0497813A43
:1047A000910540F48A2D0E945F0C511072CF0E9437
:1047B0004B1481CD0E944B14EFE3FCE93197F1F7E4
:1047C00000C000008A2D0E940616EFCF0E944B14F5
:1047D000ECCF6114710409F45CCF28E082169104D7
:1047E00008F04BC0642DC3010E948D0B81119DC048
:1047F00081E00E943117D70115968C91882309F426
:10480000ACC01092990607372CE7120709F438C29A
:1048100082E008373CE7130709F433C20A35ACE7F6
:104820001A0709F455C208F038C20130ECE71E0738
:1048300009F44CC20330FCE71F0709F441C201151B
:104840002CE7120709F0CBC10E9490179FEFA4E359
:10485000BCE09150A040B040E1F700C000000E94D1
:104860000210808191810817190709F012CF109268
:104870008A0680E00E9431170CCFF301808191817C
:104880000817190731F4552091F3808585FD01CF74
:10489000F0CF552009F4FDCE8085F8CF90E080E080
:1048A00040CFF9014485558566857785C9010E9409
:1048B000010CD60115968C9181FF37C0C6010E946C
:1048C000C31480919506909196060817190769F50B
:1048D0001092960610929506F70185819CCEE851BC
:1048E000FC47E730F10598F5E155FB4C0C94E733B4
:1048F00026E241EE61EE0E942520DDCC27E245EE66
:1049000065EEF9CF26E241EE60EEF5CF27E245EE07
:1049100064EEF1CF26E241EE62EEEDCF27E245EE06
:1049200066EEE9CF28E241E0EBCFD70115968C91F6
:10493000811174CE0631BCE71B0709F045C1809197
:104940009A068111F1C089E20E94930C30CF811147
:1049500012C00631ECE71E0791F38091A306827224
:10496000F801E052F847E531F10508F02DC1EA54AD
:10497000FB4C0C94E73310929906C801905783972B
:1049800008F04ECE84E090E00E943D349093EF0614
:104990008093EE06F801E150F047E232F10520F491
:1049A000E553FB4C0C94E7338091EE0681608093D5
:1049B000EE066091EE067091EF0684E090E00E94B2
:1049C00071340E94901777CC8091EF0688608093B5
:1049D000EF06EFCF8091EE068260E9CF8091EE0680
:1049E0008460E5CF8091EE068860E1CF8091EF068C
:1049F0008160EDCF8091EF068260E9CF8091EE0675
:104A00008061D5CF8091EE068062D1CF8091EE0695
:104A10008064CDCF0E9490178091EE068068C7CF4A
:104A20008091EE068C60C3CF8091EF068360CFCF7C
:104A30008091EE068E7FBBCF8091EF06877FC7CF38
:104A40008091EE068D7FB3CF8091EE068B7FAFCF46
:104A50008091EE06877FABCF8091EF068E7FB7CF38
:104A60008091EF068D7FB3CF8091EE068F7E9FCF32
:104A70008091EE068F7D9BCF8091EE068F7B97CF46
:104A80000E9490178091EE068F7791CF8091EE066D
:104A9000837F8DCF8091EF068C7F99CF8091EE063A
:104AA00082FB992790F921E0922790FB82F990FBF5
:104AB00083F97DCF8091EF06982F909591708E7F2E
:104AC000892B90FB81F983CF9091EE06892F8F7B04
:104AD00096FF80646CCF0E9490179091EE06892F0C
:104AE00097FB87F9805863CF61E08EE090E00E94E9
:104AF00053345FCF60E0F9CF9091EE06892F8F7E1F
:104B000094FF806154CF9091EE06892F8E7F90FFA5
:104B100081604DCF9091EF06892F877F93FF88604A
:104B200056CF90E089E28DCD85E30ECF80919B0634
:104B300091E0892780939B061092730181E00E9487
:104B4000C60AB9CB43E05BE067EF7AE00E94860BD0
:104B5000B2CB47EF5AE063E07BE0F8CF4BE25BE09B
:104B600060E27BE0F3CF40E25BE06BE27BE0EECF24
:104B700044E45BE066E37BE0E9CF46E35BE064E4CA
:104B80007BE0E4CF40E65BE062E57BE0DFCF42E53F
:104B90005BE060E67BE0DACF4AE75BE06EE67BE075
:104BA000D5CF4EE65BE06AE77BE0D0CF61E081E005
:104BB0000E94DA0A80CB61E084E0FACF61E089E00C
:104BC000F7CF61E08EE0F4CF07378CE7180709F4E0
:104BD00060C082E008379CE7190709F45BC0D70181
:104BE00015968C911597CD90DC90882309F474C0AC
:104BF000C6010E948211182F682FC6010E94D50499
:104C0000B601812F0E9474110E948D06C82E192FA3
:104C1000F701B580A680A2948FE0A8228091A80613
:104C20008770882309F1DB2CBB20F9F0892F807F66
:104C3000803469F080E28C0D8830B0F0892F807E5E
:104C4000803229F4F1E0FC1578F4AA2069F0809113
:104C5000EF0682FF09C082E00E946B058091A806E2
:104C60008770DD24D3948111D12CE12FE295EF7070
:104C7000103C08F098C0F0E0E351FB4C0C94E73393
:104C800081E00E94A00443E062E081E00E944005D0
:104C900012CB81E00E94AC04F6CF0B353CE7130742
:104CA000C9F00C358CE7180709F099CF8091EF0611
:104CB00082FB882780F991E089270E9490108FCF8E
:104CC0006FEF7FEF80E090E00E9471340E94C11787
:104CD00081E0F3CF80E0F1CFC6010E940C05182FD0
:104CE0008FCF012F0F70103110F00295007FBB2085
:104CF000B9F0002369F080E28C0D883010F0C1100B
:104D000009C08091A306802B8093A3060E944B14B8
:104D10008C2D41C08091A706802B8093A706F6CFEB
:104D20008C2D0E94A2160023F1F180E28C0D8830B8
:104D300010F0C11004C0802F0E94870506C00095A6
:104D40008091A70680238093A7060E944B142BC056
:104D5000012F0F70107F103211F00295007FCC20D0
:104D600051F021E0C21609F47DC0BB2009F489C0CE
:104D7000AA20D1F1CDCF8091EF0682FD31C0BB20BA
:104D800069F0002339F08091A306802B8093A3065D
:104D90000E944B1480E00E94061605C080E00E942D
:104DA000A2160111C8CFDD20B1F08091A80680FDC8
:104DB00012C0D70115961C928695869586950E94FD
:104DC000A004C7010E9484208091A806869586953C
:104DD00086950E94AC0460E0C7010E94AD117BCAB9
:104DE000BB20C9F0A11004C0802F0E949D14DBCF0E
:104DF00031E0A312D8CF1091A406802F8123081789
:104E000091F20E94FF139093AC068093AB06102B97
:104E10001093A406C8CFA110C6CF802F0E94B11452
:104E20009091A406802F8923882369F0802F809594
:104E300089238093A406882391F00E94FF13809316
:104E4000AB069093AC068091A506902F98239923EA
:104E500009F4A9CF009508230093A506A4CF80E00C
:104E600090E0EDCFBB2029F082E08A1508F49BCFBB
:104E7000BBCF91E09A1508F496CF802F0E94B11411
:104E800092CFAA20D1F3A9E3CA1209C0BFEFE7EE7F
:104E9000F3E0B150E040F040E1F700C000008C2D9D
:104EA0000E94A21680CF812F8695869583708823D5
:104EB00069F0813009F077CF8C2D912F9370B1106C
:104EC00002C080E090E00E94390C6DCF8C2D912FB4
:104ED0009370B11002C080E090E00E94130C63CF89
:104EE0006B2D8C2D0E9432155ECF812F8370811126
:104EF00037C0B1102AC04C2D429546954770440FDB
:104F0000440F2C2D2F70042E01C0220F0A94EAF7B3
:104F10009C2D9071992341F08FE090E001C0880FA3
:104F20004A95EAF7982F90951695169513701230BA
:104F300091F0892F822B133031F08091A606113029
:104F400039F0292B82230E949A040E94060C2BCF51
:104F5000822B892BF8CF292B8091A6068227F3CFAD
:104F6000BB2069F110FFF1CF4C2D4295469547705B
:104F7000440F440F2C2D2F70042E01C0220F0A94D1
:104F8000EAF79C2D9071992341F08FE090E001C0E9
:104F9000880F4A95EAF7982F9095169516951370F5
:104FA000123099F0892F822B133031F08091F00666
:104FB000113041F0292B82230E949D04C6CF8230FC
:104FC00020F2D2CF822B892BF7CF292B8091F006AC
:104FD0008227F2CF1F70BB2039F0812F0E94A004DE
:104FE0008C2D0E949D14B1CF8C2D0E94B114812F65
:104FF0000E94AC04AACF22EFC216A9F12C1588F0AA
:1050000030EFC316D9F081EFC81609F443C0BB20B6
:1050100009F45BC0AA2009F455C08C2D0E94061625
:1050200094CF93EFC91631F1A4EFCA1679F1B110FC
:10503000F1CFA11059C0812F8F71DACFBB2081F041
:10504000B1E0BA1508F481CF1F7181E090E0012E24
:1050500001C0880F0A94EAF79091F0068927ACCF37
:10506000E2E0AE16EFCF812F8F71B110C1CF0E9459
:10507000A0046BCF80E0BB2009F49ECF1F7181E0BC
:10508000012E01C0880F0A94EAF796CF8091EF06AF
:1050900082FD06C0812F8F71BB2009F4A9CFE7CF15
:1050A000BB2029F0812F8F710E94911A4ECF81E091
:1050B0000E946B05F1E0FA1508F047CF82E00E94EC
:1050C0006B0543CF812F8F71D2CFAA2009F4B3CFC4
:1050D00029E3C21209C03FEF87EE93E031508040D0
:1050E0009040E1F700C000008C2D0E94A2162DCF49
:1050F0008091ED06803178F48091EC06882359F098
:10510000E091AE062091AD063091E8064091E706A9
:1051100057E02E1301C008956E2F70E05E9FF001DE
:105120001124DF01A155B94F14968C91149788234F
:1051300061F111968C911197831327C08C91841380
:1051400024C015968C91159781111FC012968D91D0
:105150009C91A091E906B091EA068A1B9B0B883CC2
:10516000910598F48091ED068F7080618093ED0633
:10517000EB54F94F80818F708061808387EE96E0D9
:105180000E9484200E9461050895FB013196E7701A
:10519000C0CFADE0B0E0EFECF8E20C94A0338C01AE
:1051A00086E0F801DE01189601900D928A95E1F7EC
:1051B000F8017080F580A280B380848197EE892EFB
:1051C00096E0992E6090EB06611018C0882399F044
:1051D000FF2009F413C1C8010E94DC11882309F4DF
:1051E0000DC187E0F801A7EEB6E001900D928A9517
:1051F000E1F70E947828FF24F39453C0D090EC0686
:105200002091E9063091EA06A501421B530BDD20EF
:1052100009F4C4C0483C510508F07AC0882359F30A
:105220008091E806C180E090ED06FFE0FE1508F4ED
:1052300059C0C81215C08091E706871111C0F1103E
:105240004BC08E2D8F7080618093ED0687EE96E0C7
:105250000E9484208091ED06F8018683F12C21C004
:10526000F1103AC040E06C2D872D0E94E30F40E022
:105270006C2D872D0E94E30FF82E8111EFCF8885CA
:1052800099850E94CD11292F22952F70903470F4AA
:105290009F702230A0F09923B1F0F80196819031EF
:1052A00090F48F2D2D96EEE00C94BC332A5F2F7076
:1052B000223068F0C8010E948420FD2CF2CF99238F
:1052C00011F0882371F3805E883058F3F3CF803F6C
:1052D00040F3815F8230F9CF8091ED068160809349
:1052E000ED06BCCFC8123CC08091E706871138C0DC
:1052F000F11036C0F801E682C8010E94842087E0E0
:10530000F801A7EEB6E001900D928A95E1F773CF10
:10531000E090ED06FFE0FE1550F087EE96E00E946B
:10532000842087E0F40111928A95E9F797CF8823CA
:1053300009F461CF9091E806F8018181981310C0BB
:105340008091E70687110CC0F1100AC0E682C801FF
:105350000E94842087E0F40111928A95E9F74BCFEF
:10536000C8010E94DC11882309F448C0FF2009F419
:1053700045C08091ED06803208F433CF8091E70676
:105380009091E8069A838983BC82AB826D821E82EB
:10539000EF82CE0101960E94842023CF483C510524
:1053A00008F0BFCF882309F426CFFF2039F1909170
:1053B000E8068181981318C08091E706871114C010
:1053C0008091ED0680FD9BCF803108F498CF8683D5
:1053D000807F803F09F490CF8681982F907F905FE7
:1053E0008F70892B868388CFC8010E94DC118111C0
:1053F000F8CE8091ED0681608093ED06C8010E9491
:105400008420F9CEABE1B0E0E8E0FAE20C94AB33F3
:105410004E8B5F8B688F798F8A8F9B8F9111109243
:10542000A7061D8A86E0FE017696DE011F96019092
:105430000D928A95E1F78091EF0682FF1FC00E94CE
:10544000FF132091A9063091AA06821B930B8C3D75
:10545000954038F08091A80682FD03C082E00E944A
:105460006B050E94FF132091AB063091AC06821BA6
:10547000930B8C3D954010F00E948F058B898823FB
:1054800029F061E0CE010F960E94AD1187E0FE0188
:105490003F96DE01189601900D928A95E1F7CE01B4
:1054A00008960E94C928811110C087E0FE01389635
:1054B000DE01119601900D928A95E1F72091AD06DB
:1054C0004091AE068C8581110BC017E08091AE062D
:1054D0009091AD0689132EC06B96E3E00C94C73310
:1054E00030E0C90101968770992750E0841795072D
:1054F00071F40E9490171092AD061092AE0687E0EC
:10550000E7EEF6E0DF011D928A95E9F7DECF97E03E
:10551000929FD001939FB00D1124A155B94FFE0168
:10552000319601900D929A95E1F78093AD060E9415
:105530006105CBCF189FC00111248155994F0E945E
:10554000C928882349F28091AE0690E001968770C1
:1055500099278093AE06BACFA6E0B0E0E2EBFAE27C
:105560000C94AA330E94FF138C0180913506909110
:1055700036068017910779F019821A820E94FF136C
:10558000BC0149815A8180E090E00E94022A109378
:105590003606009335062696E4E00C94C633AAE05E
:1055A000B0E0E5EDFAE20C94A033FE0131968AE01A
:1055B000DF011D928A95E9F793ECA92E91E0B92EAF
:1055C0008F0128ECE22E21E0F22E3F01CC24C3947F
:1055D000D12CF50181915F018F3F09F447C0F89408
:1055E000E82FE295EF70F0E021A18F70A60102C0D4
:1055F000440F551F8A95E2F7CA01922F982B91A369
:1056000092A18095892382A3789400C0E8ECF1E010
:1056100021E030E0812C912C41914F3F09F44AC0A8
:10562000A42FA295AF70A05EB0E08C9190E04F7077
:1056300002C0959587954A95E2F7817081113AC02D
:10564000C901882A992A220F331F51E0E73DF50747
:1056500019F7F501319780818F3F11F00E94A8075B
:1056600080EA8A95F1F7D8018D929C920E5F1F4FC8
:10567000EA14FB0409F0ADCF4AE050E0B30185EB3A
:1056800095E00E94FD33892BC1F08AE0F301A5EB80
:10569000B5E001900D928A95E1F781E080934E0389
:1056A0000E94FF1390934D0380934C032A96EEE0E3
:1056B0000C94BC3380E090E0C4CF80914E038823EB
:1056C000A9F380914C0390914D030E94E51A039732
:1056D00068F34AE050E065EB75E08AE296E00E94EC
:1056E000FD33892B49F08AE0E5EBF5E0AAE2B6E06C
:1056F00001900D928A95E1F710924E03D7CFCDB766
:10570000DEB7AE970FB6F894DEBF0FBECDBF85B73C
:10571000806885BF85B7806885BF84B7877F84BF71
:105720000FB6F894A895809160008861809360001E
:10573000109260000FBE80E890E00FB6F89480935E
:105740006100909361000FBE86EA97E09093230377
:10575000809322030E94D70D0E94880F8091E2005F
:1057600084608093E200789480913406882399F0D5
:105770008091E9001091EC001795112717958F7013
:10578000182B1092E9008091E80083FD0E94D71742
:105790001F701093E90082E084BD93E095BD9AEFFD
:1057A00097BD80936E000E940212811102C00E9478
:1057B000351103EC11E0A8ECEA2EA1E0FA2ED80195
:1057C0008D918D018F3F11F00E94A807E016F10620
:1057D000B1F708EC11E0F80181918F018F3F11F0D2
:1057E0000E94A807F1E0073D1F07A9F78AE0EAE257
:1057F000F6E0DF01282F1D922A95E9F7E5EBF5E0A9
:10580000DF011D928A95E9F780E090E00E943D3427
:10581000853E9E4F21F40E940212811163C065EE05
:105820007EEF80E090E00E94713460E082E090E0E2
:105830000E94533481E08093A60661E083E090E00B
:105840000E94533460E074E184E090E00E9471347F
:1058500060E086E090E00E94533460E087E090E0F2
:105860000E94533440E050E0BA0188E090E00E948A
:10587000653460E083E290E00E94533460E08CE0A5
:1058800090E00E94533460E08DE090E00E94533439
:1058900019821A821B821C821D821E821F82188618
:1058A00048E050E067E170E0CE0101960E94433489
:1058B00040E050E0BA018FE190E00E94653480E062
:1058C0000E9417110E94351140E050E0BA018FE0AC
:1058D00090E00E94653440E050E0BA0183E190E03E
:1058E0000E94653482E090E00E94353480930E0679
:1058F00084E090E00E943D349093EF068093EE06A2
:105900000E94CF2AEFEBFDE53197F1F700C00000D0
:105910000E94CF2A80912A0680FF08C06FEF7FEF98
:1059200080E090E00E9471340E94021083E090E0D9
:105930000E9435340E949A040E94811281E0809373
:10594000BF0548E050E067E170E08BE996E00E9417
:1059500025341092BF0580919B068430B8F481E213
:1059600080939B0680917A0190917B01A0917C01AC
:1059700080939C0690939D06A0939E068FE780934C
:105980009F068FEF8093A0060E941B1221E040E04B
:1059900060E080E090E00E94100B85E191E0909340
:1059A0005806809357068091340613E0853009F439
:1059B00005C10E94CF2A8FE096E09AA389A3AAE2AC
:1059C000B6E0BEA3ADA349E156E0FC0121913191BF
:1059D0008D919D914E175F0709F414C1281739075F
:1059E000A9F3212C312C10E0EDA1FEA1E190F19062
:1059F000FEA3EDA3A9A1BAA18D919D91BAA3A9A3DC
:105A00008E159F0509F480C0FC01EE25FF25FAA73D
:105A1000E9A7610100E0AA24A394B12C89A59AA565
:105A20008A219B21892B09F461C047018A209B2090
:105A300009831A830E94FF139C838B83F1E0FD830B
:105A400091E08114910409F490E09E8349815A8188
:105A50006B817C818D810E94022A892809F446C0CD
:105A600080919B068C7F843609F040C0F601E95294
:105A7000FE4F80818F3F09F439C0612C712C412C7D
:105A800090E09C01220F331FA9014E5D5D4F5CA782
:105A90004BA7D901AD5DBD4FBEA7ADA7F601ED5334
:105AA000FA4FF8A7EFA34301512CF401E952FE4F3E
:105AB00080818F3F61F0141199C1501297C1AFA13D
:105AC000B8A52C9130E2230F08F42FEF2C935394B8
:105AD000FFEF8F1A9F0A2FE05212E7CF43943FE067
