:100000000C94BF030C9406040C9406040C94060490
:100010000C9406040C9406040C9406040C94060438
:100020000C9406040C9406040C9468130C94ED18BC
:100030000C942B300C9406040C9406040C940604C7
:100040000C9406040C9406040C9406040C94060408
:100050000C9406040C943F140C9406040C940604AF
:100060000C9406040C9406040C9406040C940604E8
:100070000C9406040C9406040C9406040C940604D8
:100080000C9406040C9406040C9406040C940604C8
:100090000C9406040C9406040C9406040C940604B8
:1000A0000C9406040C9406040C9406040501090241
:1000B000A10185020901A1000509190129081500FE
:1000C0002501950875018102050109300931158165
:1000D000257F95027508810609381581257F9501D0
:1000E00075088106050C0A38021581257F95017572
:1000F000088106C0C005010980A101850319012AF4
:10010000B700150126B700950175108100C0050CD8
:100110000901A101850419012AA002150126A002E6
:10012000950175108100C005010906A1018505052D
:100130000719E029E71500250195087501810205D9
:1001400007190029EF1500250195F07501810205B9
:10015000081901290595057501910295017503910D
:1001600001C00660FF0961A1010962150026FF00B8
:100170009520750881020963150026FF00952075FA
:10018000089102C005010906A101050719E029E748
:1001900015002501950875018102950175088101F9
:1001A0000507190029FF150026FF0095067508812F
:1001B000000508190129059505750191029501753C
:1001C000039101C0000101010101010101010202CD
:1001D00002020202020202030303030303030304F5
:1001E00004040404040405050505050606060606C0
:1001F000070707070708080808090909090A0A0A7A
:100200000B0B0B0C0C0C0D0D0D0E0E0E0F0F0F101B
:1002100010111111121213131414151516161717A5
:10022000181819191A1A1B1B1C1D1D1E1E1F202011
:10023000212222232424252626272829292A2B2C5B
:100240002D2D2E2F30313232333435363738393A7E
:100250003B3C3D3E3F404142434445464748494A76
:100260004C4D4E4F50515354555658595A5B5D5E44
:100270005F616264656668696B6C6D6F70727375DF
:1002800077787A7B7D7E8082838587888A8C8E8F43
:1002900091939596989A9C9EA0A2A3A5A7A9ABAD71
:1002A000AFB1B3B5B7BABCBEC0C2C4C6C9CBCDCF5F
:1002B000D1D4D6D8DBDDDFE2E4E7E9EBEEF0F3F50D
:1002C000F8FAFDFF009B8B7B00AB8A7A00AA9A7933
:1002D00000A9998900A8988800A7978700A6968604
:1002E00000A5958500A49484003C4C5C002C4D5DD9
:1002F000002D3D5E002E3E4E0030405000314151F9
:10030000002A3A4A00293949002838480027374747
:100310000026364600253556002445550034445401
:1003200000AC9C8C00AD9D8D00AE9E8E00AF9F8F6B
:1003300000B0A09000B1A19100324252002B3B4B83
:1003400001A9998901A8988801A7978701A696868F
:1003500001A5958501A49484013C4C5C012C4D5D64
:10036000012D3D5E012E3E4E012F3F4F013040508A
:100370000033435301AB8A7A0128384801273747B5
:1003800001263646012535560124455501AC9C8C85
:1003900001AD9D8D01AE9E8E01AF9F8F0131415108
:1003A000013242520133435300B2A281019B8B7B45
:1003B000012B3B4B012A3A4A0134445401B1A1912B
:1003C00001B2A28101A3938300A3938300B392821D
:1003D000165C1E001F0020002100220023002400C4
:1003E0002500260027002D002E002A004A002B00A1
:1003F00014001A000800150017001C0018000C005B
:10040000120013002F00300031004B000057040091
:100410001600070009000A000B000D000E000F0077
:1004200033003400000028004E00E1001D001B00D6
:1004300006001900050011001000360037003800D2
:100440000157000052004D00E000E300E200000010
:1004500000002C000000000002580000E4005000E2
:10046000000051004F0035003A003B003C003D00C9
:100470003E003F0040004100420043004400450070
:100480004C00490001004A0052004D004B000100A1
:100490000100010001000100010001000100010054
:1004A00046000100500051004F004E0001000100C5
:1004B0000100010001000100010000000100010035
:1004C000010001000100B200010001000100290348
:1004D0000100010001000100000001000100010015
:1004E0000100010000000000010000000000010008
:1004F00000006561010000000100010035000100FD
:10050000010001000100010001005F0060006100C6
:100510000100560057000100A60001000100520032
:1005200001000100010001005C005D005E000100AF
:1005300055005400010001000100500051004F001F
:1005400001000100010059005A005B000100010098
:10055000000001000100010001000100B2000100E3
:10056000010001006200620063005300010000000E
:100570000100010001000100010000000000010075
:100580000000000001000000010001000000010067
:100590000100C25CCD5C01000100145CAA00A9004E
:1005A000AE00A80001000100010001000100C75CCD
:1005B0000100010001000100010001000100010033
:1005C00001000100010001000100005CC85C0100A5
:1005D0000100010001000100010001000100010013
:1005E0000100010001000000DE5CC55C01000100AB
:1005F00001000100010001000100010001000100F3
:10060000010001000000C35CC65C010001000100A4
:1006100000000000010000000000010000000100D7
:10062000CA5C0000C45CC95C00000000000000005F
:1006300000000000000000000000000000000000BA
:100640000000000000000000000000007E0F00D449
:10065000FFFFFFC70000007800000000000000005E
:100660002A2B28000000000000000000000000000D
:1006700000000029000000002C1E34202122243418
:100680002627252E362D3738271E1F2021222324EA
:1006900025263333362E37381F0405060708090A86
:1006A0000B0C0D0E0F101112131415161718191A22
:1006B0001B1C1D2F3130232D350405060708090AA0
:1006C0000B0C0D0E0F101112131415161718191A02
:1006D0001B1C1D2F3130354C09025B00030100A0AB
:1006E000FA090400000103010100092111010001C0
:1006F0002240000705810308000A090401000203E3
:1007000000000009211101000122220007058203D7
:100710002000010705030320000109040200010372
:1007200000000009211101000122B6000705840321
:1007300020000A1201000200000008424B251202AC
:10074000000102000120036B0062006400360037E4
:10075000006D006B00690069007200670062002094
:100760000076003200000010034B00420044006697
:100770000061006E007300000004030904001124EE
:100780001FBECFEFDAE0DEBFCDBF04B603FE27C049
:100790008091970590919805A0919905B0919A053F
:1007A0008730904BA740B04BD1F410929705109230
:1007B00098051092990510929A0514BE84B7877F08
:1007C00084BF0FB6F894A8958091600088618093EB
:1007D0006000109260000FBEE0E0F8E3099512E0BF
:1007E000A0E0B1E0ECEAF4E602C005900D92AC3C6A
:1007F000B107D9F725E0ACECB2E001C01D92A739F2
:10080000B207E1F70E94DE270C9406320C94000038
:1008100090919005937051F0811109C0946090936C
:1008200090051092490181E080938F0508958731EA
:1008300010F09865F4CF880F880F982BF0CF909127
:100840009005937049F080939105609392054093D1
:10085000930581E080938F050895E8EDF0E08081B5
:100860008E7F80831092E2001092DA001092E100F5
:10087000A0EEB0E08C9181608C9380818F77808333
:1008800019BCA7EDB0E08C918E7F8C9380818F7E18
:1008900080831092590508952091E4003091E5007D
:1008A00095E6A9012091EC00822F817020FF06C0FF
:1008B0008091E80080FF06C080E008952091E80064
:1008C00022FD1AC080917E05882389F0853089F049
:1008D0008091EB0085FD0FC02091E4003091E50090
:1008E00042175307F9F29150E1F684E0089582E04F
:1008F000089583E0089581E00895EF92FF920F93A9
:100900001F93CF937C018B010E944C04C82F81114F
:1009100017C08091E80085FD0BC08091E8008E77BC
:100920008093E8000E944C04882399F3C82F08C0E4
:10093000F70181917F018093F1000150110949F77E
:100940008C2FCF911F910F91FF90EF900895809180
:10095000800587FF13C08091E80082FF06C0809168
:10096000E8008B778093E80004C080917E058111B8
:10097000F2CF089580917E058823D9F38091E80015
:1009800080FFF8CF8091E8008E77ECCF982F90937E
:10099000E900242F762F50E0891731F07091EC0098
:1009A0002091ED005091F00021FD07C09F5F97302E
:1009B00071F78093E90081E008953091EB003E7F6C
:1009C0003093EB003091ED003D7F3093ED0030919E
:1009D000EB0031603093EB007093EC002093ED005E
:1009E0005093F0002091EE0027FDE0CF80E00895C5
:1009F000CF92DF92EF92FF920F931F93CF93DF93EB
:100A0000C8EDD0E088818F7E8883E7EDF0E08081BB
:100A10008160808384E082BF81E080935905888172
:100A20008E7F888302EE10E0F80110821092DA00C7
:100A300081EEC82ED12CF601108288818F778883B1
:100A400088818068888388818F7D888319BC109213
:100A50007E0510927F0510927D0510927C0590EE28
:100A6000E92EF12CF70180818B7F80838881816062
:100A7000888342E060E080E00E94C604F601808145
:100A80008E7F8083F801808181608083808188608F
:100A90008083F70180818E7F808388818061888355
:100AA000DF91CF911F910F91FF90EF90DF90CF904A
:100AB0000895FC0180918605909187058617970718
:100AC000A0F06115710529F49091E8009E7790934C
:100AD000E80090E06115710551F4911108C0809112
:100AE000E80082FF34C080E00895BC01F2CF80911D
:100AF0007E058823C1F18530C1F18091E80083FD36
:100B000030C08091E80082FDEACF8091E80080FF4C
:100B1000E1CF8091F3002091F200382F611571052B
:100B200019F02830310558F091E02830310509F0EE
:100B300090E02091E8002E772093E800CBCF8191C0
:100B40008093F100615071092F5F3F4FE7CF809193
:100B50007E05882341F0853041F08091E80083FFD5
:100B6000BECF81E0089582E0089583E00895E42FE8
:100B7000F0E0EE0FFF1FED5FFD4F9081921B97FDA0
:100B80009195292F38E1239F212D1124620F08957B
:100B90000F931F9310E0F801EE0FFF1FED5FFD4F65
:100BA0009081905797FD9195000F111FF801EC5F10
:100BB000FD4F00810052110B2003F001219FF00D29
:100BC000112408E310E0091B110997FD1395400358
:100BD0009001419F300D1124E20FF31F9F01220F5E
:100BE000331F2E0F3F1F37FF02C021583F4F220FE8
:100BF000232F221F330B620F1F910F9108950F9324
:100C00001F93522F10E0F801EE0FFF1FEC5FFD4F16
:100C1000A081A052BB0B9D015203F001539FF00D28
:100C20001124000F111FD801AD5FBD4F0C9100576B
:100C3000110B40039001419F300D11242E0F3F1FD7
:100C400037FF02C0215C3F4F96E0359527959A9576
:100C5000E1F7620F1F910F9108950F931F93522F89
:100C600010E0F801EE0FFF1FEC5FFD4FA081A052D6
:100C7000BB0B9D015203F001539FF00D1124000F97
:100C8000111FD801AD5FBD4F0C910057110B4003F0
:100C90009001419F300D11242E0F3F1F37FF02C0DE
:100CA00021583F4F220F232F221F330B620F1F911A
:100CB0000F910895EF920F93972F23E0029FB001B9
:100CC0001124759567956E0D792F0F91EF9008950A
:100CD000322F50E0FA01EE0FFF1FEC5FFD4F9081C5
:100CE000905297FD9195440F551FFA01ED5FFD4F0E
:100CF0002081231B330B290F311D97FD3A95620F7D
:100D00000895E42FF0E0EE0FFF1FEC5FFD4F6081D0
:100D1000621B0895E42FF0E0EE0FFF1FED5FFD4F23
:100D20006081621B0895622F0895E42FF0E0EE0FBA
:100D3000FF1FED5FFD4F408134EE439F412D112495
:100D4000E82FF0E050E0445E5F4FDA01A21BB109EA
:100D50009D01B7FF03C031952195310993E0220F22
:100D6000331F9A95E1F7AF01421B530B9A0157FDD0
:100D700020E0582F259F212D1124822F089580E0F7
:100D8000089580915B0508952FB7F894609132051E
:100D90007091330580913405909135052FBF0895EA
:100DA000209145012223C1F02091CD0427FF14C0DA
:100DB000E62FE695E695E695EE31F8F4E80FF92F83
:100DC000F11D677021E030E001C0220F6A95EAF75B
:100DD0008281822B82830895FC0132962FEF30E0CE
:100DE0004191641751F02F3F19F4411101C0232F95
:100DF0003F5F3630A9F72F3F09F40895820F911D08
:100E000027FD9A95FC01628308958091C804882388
:100E100031F01092C8041092C7041092C6040895CD
:100E200080959091C50498239093C504089590915E
:100E300045019923D1F09091CD0497FF16C0E82F7A
:100E4000E695E695E695EE31E0F4F0E0E253FD4FED
:100E5000282F277081E090E001C0880F2A95EAF7DB
:100E600080959281892382830895E0EDF2E091914B
:100E7000891303C0DF0111971C9292E0E63DF90748
:100E8000B1F708952FE0929F800D1124982F97704D
:100E900086958695869523E0829FF0011124E05681
:100EA000FB4F50E040E080E0219130E0092E02C08D
:100EB000369527950A94E2F721703327042E01C056
:100EC000220F0A94EAF7822B4F5F5F4F43305105A0
:100ED00059F708952FE0929F800D1124982F977055
:100EE00041E001C0440F9A95EAF78695869586956C
:100EF00093E0899FF0011124E056FB4F90E080E0E1
:100F000070E05191DF0111979B01082E02C03695C8
:100F100027950A94E2F72170219525272423252778
:100F20002C9301968330910561F7089580919F0479
:100F300090916E04981301C008958F5F8770FACF67
:100F400020915704309158042817390771F0909375
:100F5000580480935704E091D904F091DA04309753
:100F600021F00084F185E02D099408952091550425
:100F7000309156042817390771F0909356048093E6
:100F80005504E091D904F091DA04309721F00680FD
:100F9000F781E02D09940895E091D904F091DA04E5
:100FA000309721F00190F081E02D099480E00895C0
:100FB000CF93DF93EC0140915E0450915F04609108
:100FC0006004709161042FB7F8948091320590917C
:100FD0003305A0913405B09135052FBF841B950BC7
:100FE000A60BB70B843F9140A105B10518F5809180
:100FF0005E0490915F04A0916004B09161048093BD
:10100000510490935204A0935304B093540484EF7A
:1010100091E0A0E0B0E080934D0490934E04A09343
:101020004F04B0935004D0935D04C0935C04DF91EF
:10103000CF9108950E94C4066093510470935204A6
:10104000809353049093540482E390E0A0E0B0E0D6
:10105000E2CFFC018481862351F492819923B9F077
:101060006923808583FF05C081E061110FC080E0A6
:101070000895892F8F7092959F70982B862F8F706F
:1010800062956F70682B81E09613F1CF089581E02F
:10109000FDCFFA01811101C0FB0109948334910550
:1010A00070F5FC01EE0FFF1FEE0FFF1FDF01AC53C9
:1010B000BD4FCD010296FC0154910196FC01349183
:1010C000FD0185918370E491A82FB0E0F0E98F9F36
:1010D000C0011124895F9C4FE80FF92FF11DB497CF
:1010E0006083FC01E50FF11DB4974083830F911DD0
:1010F000FC01B4972083AB5FBC4F81E08C930895D3
:10110000FF920F931F93CF93DF93182F062FF42E88
:10111000D0E0C0E02F2D402F612FCE010E944E085D
:101120002196C334D105B1F7DF91CF911F910F9173
:10113000FF900895E0E9F5E0248130E1231B08F4F5
:1011400020E0248381E080938F050895E0E9F5E0B5
:10115000248130E1230F08F42FEF248381E0809372
:101160008F050895E0E9F5E0438120E1421B08F492
:1011700040E08181628190E00C941F04E0E9F5E099
:10118000438120E1420F08F44FEF8181628190E0BA
:101190000C941F04E0E9F5E0628120E1621B08F491
:1011A00060E08181438190E00C941F04E0E9F5E068
:1011B000628120E1620F08F46FEF8181438190E04A
:1011C0000C941F04E0E9F5E081814381628188503D
:1011D000990B0C941F04E0E9F5E0818190E04381D4
:1011E000628108960C941F048091900586958695DF
:1011F000815009F486E10C9408048091900586954D
:1012000086958F5F873108F081E00C9408040C9478
:1012100080080C944E0822E8241B08F420E0620F9A
:101220000895FC019B01009729F480E077FF2BC013
:1012300080E80895AC0197FF04C044275527481B58
:10124000590BB901640F751F37FD10C0241B350BF6
:10125000C901A5E0880F991FAA95E1F70E943C31CA
:1012600080E2861BF7FF0FC081950895CB0165E0F2
:10127000880F991F6A95E1F7BA01621B730B0E94F0
:101280003C3180E6EECF0895EF920F93CF93DF933A
:10129000D72FC82FC9010E19BA010E941109602F5A
:1012A000681B7D2F8C2FDF91CF910F91EF900895C8
:1012B0000F93CF93DF93D72FC82FC901BA010E9494
:1012C0001109682F600F7D2F8C2FDF91CF910F9127
:1012D0000895EF920F931F93CF93DF93D62FC72FCD
:1012E000182FC9010E19010FBA010E941109081B1C
:1012F000202F219F212D1124822F6D2F7C2FDF91F4
:10130000CF911F910F91EF9008950F931F93CF935B
:10131000DF93D62FC72F182FC901212F201B022F93
:10132000BA010E941109982F990F990F891B800FFC
:10133000282F219F212D1124822F6D2F7C2FDF91AB
:10134000CF911F910F910895E82F86FDE0952E2FE4
:101350002F7086FD2F5FE695E695E695E670F0E046
:10136000E45AFE4F9181929F902D212D1124929548
:101370009F702295207F922B2081920F87FD91955F
:1013800080E8890F08950F931F93CF93DF938B010C
:10139000D82FC42F822F0E94A409EC2FF0E0EE0F6B
:1013A000FF1FED5FFD4F90819058890F87FD81955C
:1013B000880F682F2CE0629F612D1124600F712F20
:1013C0008D2FDF91CF911F910F910895AC01823045
:1013D000910508F408959FEF413E8EE1580740F4CF
:1013E0009A0195E0369527959A95E1F798E0920F46
:1013F00061E0E62FE90FFF27FF1F9F013595279535
:10140000822F229FF001239FF00DF00D11244E1723
:101410005F0738F49FEF920F961758F78FEF860FFC
:1014200008952F3FE9F361E0620FF6CF0F93CF935A
:10143000DF93D72FC82F47FD419588E390E0841BA9
:10144000910947FD9395889FB001899F700D700D9C
:101450001124229FC001239F900D900D1124860F0F
:10146000971F0E94E609982F990F890F682F600F28
:101470007D2F8C2FDF91CF910F91089530E020E0E8
:10148000869F212D969F200D311D1124C90108959D
:10149000AF92BF92CF92DF92FF920F931F93CF93A1
:1014A000DF93362F472FE82FF0E0EC53FE4F7111FA
:1014B0000FC0E4918E2F2E2F6E2F722FDF91CF91C0
:1014C0001F910F91FF90DF90CF90BF90AF90089544
:1014D000C72FD0E02491F22E022F10E056E0659F36
:1014E000C0011124EFEFF0E0BF010E942831832FEB
:1014F00090E0880F991F35E5369FD001379FB00DDA
:1015000011248A1B9B0B982F990F980F6F01CC1AEF
:10151000DD0AC09ED001C19EB00DD09EB00D112439
:101520008B2F499FA0011124452F55276F01C41A05
:10153000D50AC09EA001C19E500DD09E500D112411
:101540005F01A91AB108AC9E6001AD9ED00CBC9E93
:10155000D00C1124CD2CDD24EC19FD09E09FE00115
:10156000E19FD00DF09FD00D1124ED2F6230710559
:10157000A1F050F46115710509F49ECF6130710539
:1015800081F0EB2F852F98CF6430710569F080F0E2
:101590006630710509F490CFF4CFE22F2B2F8D2FF9
:1015A0008BCFE22F252F88CFEB2F822F2D2F84CFAB
:1015B0002B2F8F2DE52F80CF7F928F929F92AF920E
:1015C000BF92CF92DF92EF92FF920F931F93CF9330
:1015D000DF935C01C0914601CC0FCC0F14E01C0FCF
:1015E000F12E143410F033E4F32E609194056695D7
:1015F00080918805909189050E943E0A782ED0E05E
:10160000CF1590F081E0133408F080E0DF91CF91A6
:101610001F910F91FF90EF90DF90CF90BF90AF9010
:101620009F908F907F900895FE01E757FD4F808136
:10163000909147018923C9F1CE01880F991F8854E1
:101640009E4FFC01E55BFF4F2081422F4057550B19
:101650006A01845B9F4FFC018081282F2052330B4D
:101660004901449F9001459F300D300D1124889C05
:10167000C001899C900D900D1124820F931F0E9430
:10168000E609082F6091910570919205809193056C
:10169000E72C9401A601F50109950E94480A462FFE
:1016A000282F672FCE010E9409092196A9CFCF923A
:1016B000DF92EF92FF920F931F93CF93DF937C0102
:1016C000C0914601CC0FCC0F14E01C0FD12E143466
:1016D00010F033E4D32E60919405669580918805CF
:1016E000909189050E943E0AC82ED0E0CD1568F081
:1016F00081E0133408F080E0DF91CF911F910F91CA
:10170000FF90EF90DF90CF900895FE01E757FD4FD7
:10171000808190914701892311F1CE01880F991F93
:1017200088549E4FFC01E45BFF4F20812052330B15
:10173000855B9F4FFC0140814057550B609191059F
:1017400070919205809193050C2DF70109950E94E7
:10175000480A462F282F672FCE010E94090921969B
:10176000C5CFDF92EF92FF920F931F93CF93DF933A
:101770007C01C0914601CC0FCC0F14E01C0F012F4F
:10178000143408F003E4609194056695669521E0B1
:10179000620F08F46FEF80918805909189050E948F
:1017A0003E0AD82ED0E0C01760F081E0133408F074
:1017B00080E0DF91CF911F910F91FF90EF90DF902C
:1017C0000895FE01E757FD4F8081909147018923DD
:1017D00091F06091910570919205809193052D2D66
:1017E0004C2FF70109950E94480A462F282F672F92
:1017F000CE010E9409092196D6CF9F92AF92BF9247
:10180000CF92DF92EF92FF920F931F93CF93DF93CC
:101810006C01C0914601CC0FCC0F14E01C0FB12E0F
:10182000143410F033E4B32E6091940566956695F8
:1018300080918805909189050E943E0AF82E80E4E7
:101840008F0D0E94A40990E8A92EA80E8F2D0E944A
:10185000A40920E8922E980ED0E0CB1580F081E00C
:10186000133408F080E0DF91CF911F910F91FF902A
:10187000EF90DF90CF90BF90AF909F900895FE01C2
:10188000E757FD4F8081909147018923A1F0609136
:1018900091057091920580919305EF2C0C2F292DC5
:1018A0004A2DF60109950E94480A462F282F672FD6
:1018B000CE010E9409092196D0CF40913F05803F7B
:1018C00059F48091400587FF0DC0109240054111E9
:1018D0000BC010923A0508C0813F81F48091400509
:1018E00018169CF3442381F08091410590914205A4
:1018F000892B09F05AC0109237050895823F49F4A8
:1019000047FFF0CF10923F05809140058111ECCF49
:10191000E0CF833F19F41416ACF3E4CF9091410566
:10192000893F29F41916F4F610924105DBCF8A3F5E
:1019300019F497FFD7CFF8CF909142058B3F29F448
:1019400097FFD0CF10924205CDCF8C3F19F41916D6
:10195000CCF3C8CF9CE0980F953090F4845F990B3E
:1019600021E030E0B90102C0660F771F8A95E2F7E7
:10197000CB01809590913E05892380933E05B2CF9F
:101980008D3F31F4809167048E7F80936704AACFE6
:101990008E3F21F4809167048D7FF7CF8F3F09F050
:1019A000A1CF809167048B7FF0CF08958091670469
:1019B00080FD16C081FD16C082FD16C080913705DE
:1019C0008823A1F0883280F428E0829FC00111248E
:1019D00068E270E00E943C31862F672B39F0089551
:1019E00082E0089584E0089588E0089581E00895F4
:1019F0008091670480FD14C081FD14C082FD16C073
:101A000080913A05882381F0843180F422E3829F1B
:101A1000C001112464E170E00E943C31862F0895DA
:101A20008CE0089589E1089585E0089582E30895A2
:101A3000803F31F40E94F80C819580934005089511
:101A4000813F19F40E94F80CF8CF823F31F40E94D4
:101A5000F80C819580933F050895833F19F40E9407
:101A6000F80CF8CF893F29F40E94D60C80934105E9
:101A700008958A3F21F40E94D60C8195F7CF8B3FC1
:101A800031F40E94D60C81958093420508958C3FD5
:101A900019F40E94D60CF8CF9CE0980F953070F4A2
:101AA000845F990B21E030E001C0220F8A95EAF7AC
:101AB00080913E05822B80933E0508958D3F31F441
:101AC0008091670481608093670408958E3F21F4BC
:101AD000809167048260F7CF8F3FB9F780916704E8
:101AE0008460F1CFF894E82FE295EF70F0E031A137
:101AF000282F2F7081E090E001C0880F2A95EAF727
:101B0000982F9095932391A392A1892B82A37894E7
:101B100008959091CD0492FF06C0282F2871283097
:101B2000F9F4877F846093FF06C0282F287128313D
:101B3000F1F4877E84612091CE0420FF06C0382F07
:101B400038713830D9F4877F816021FF06C0282F93
:101B500028712831D1F4877E816194FD877E0895B4
:101B6000282F24712430F9F68B7F8860DCCF282F52
:101B70002471243101F78B7E8861DDCF382F3171DC
:101B8000313019F78E7F8860E0CF282F2171213105
:101B900021F78E7E8861E1CFCF93DF93EC0182380D
:101BA0009105A9F1D8F58133910509F496C048F55E
:101BB0008932910509F48AC08A9709F495C0C11544
:101BC00021E5D20708F0BCC0C11530E5D30708F005
:101BD00014C1C83ED10508F09CC0C03ED10560F5D7
:101BE000C83AD10508F087C0C53AD10508F0FDC054
:101BF000C130D10509F12097F9F0C430D105E0F4E6
:101C000040C08533910509F45AC0C997C1F6809147
:101C1000CD04837089F0C0EED0E00EC0833E910504
:101C200099F170F4803E910501F1823E910539F6FB
:101C30008091CD0482FD21C0CE01DF91CF91089526
:101C4000863E910561F1873E910571F1843E9105D3
:101C500009F0B5CF8091CE0481FFEECF8091CD0405
:101C6000C7EED0E084FD0DC0E7CF8091CD0480FDAC
:101C700012C19091CE0490FFDFCFC3EED0E084FF7D
:101C8000DBCFD0E0C0E0D8CF8091CD0482FD06C18B
:101C90009091CE0490FDBFCF84FFCECFF2CF809144
:101CA000CD0483FDDDCFC8CF8091CD0483FDF9C085
:101CB0009091CE0491FFF0CFC4EED0E0BDCF8091E3
:101CC000CD0485FFB9CFC9E2D0E0B6CF8091CD0475
:101CD00085FFB2CFC5E3D0E0AFCF8091CD0486FFC2
:101CE000ABCFCAE2D0E0A8CF8091CD0486FFA4CFCD
:101CF000C1E3D0E0A1CFCF3BD10518F6C85AD0E060
:101D0000CC0FDD1FC959DE4F0990D881C02DD46496
:101D100093CFC11540E2D40758F4C11581E0D8072C
:101D200008F08ACFC03FD10508F4ABCFD06584CF8F
:101D3000C11590E4D90708F4A4CFDF70D06A7CCF36
:101D4000C11525E5D20700F5C11534E5D30708F024
:101D50008AC0C11543E5D40708F071C0C11582E5FA
:101D6000D80708F467C0CE018370992721E030E0DE
:101D700002C0220F331F8A95E2F7C695C69580E20E
:101D8000C89FE001112452C0C11599E5D907A8F4F4
:101D9000C11528E5D20708F06BC0C11536E5D30799
:101DA00008F06FCF8C2F0E94890DC82FD0E0DC2F58
:101DB000CC27CC27DF71D0623FCFC1154AE5D407CD
:101DC00008F45BC0CE0190568115904208F059CFBF
:101DD0008D2F8F710E94890D90E0982F882788277A
:101DE0009F719C012C2BE901E6CFC55AD0E0CC595C
:101DF000DE4FC881D0E0D0641FCFCE01E4E09695DD
:101E00008795EA95E1F783702C2F26952695237008
:101E100040E2249F90011124382B8C2F8370C1E065
:101E2000D0E002C0CC0FDD1F8A95E2F7C22BD32B86
:101E3000DC6802CFDC2FCC27C16FD06AFDCECE018B
:101E40008370992721E030E002C0220F331F8A956A
:101E5000E2F7C695C69590E2C99FE0011124C22B16
:101E6000D32BDA68E9CEDC2FCC27C46FD06AE4CE5E
:101E7000DC2FCC27C06FD06ADFCE8C2F8F700E94F2
:101E8000890D34E0D695C7953A95E1F7CF709C2F30
:101E9000EC01D069D1CEC9E3D0E0CECEC2EED0E025
:101EA000CBCEC6EED0E0C8CE982F92959F7011F0A1
:101EB000892F94E0282F2695269511F09E5F822F7A
:101EC000869509F09F5F892F08959C013A95211509
:101ED0003F4150F5FC01EE27F170BC01662772709E
:101EE000AC01442754709C012227387094FF0EC027
:101EF00080E1EF2B09F480E0672B09F08062452B2D
:101F000009F08064232B89F08068089581E0EF2B2D
:101F100009F480E0672B09F08260452B09F08460AA
:101F2000232B19F08860089580E00895CF9384E012
:101F300090E00E94AE31C82F82E290E00E94AE3164
:101F4000982F8C2FCF9108950F931F93CF93DF93EA
:101F5000C42FD0E0CC0FDD1F2EE1629FC00DD11D3C
:101F6000112436E9839FC00DD11D1124CE0187961F
:101F70000E94AE31082F10E0102F0027CE01889666
:101F80000E94AE319801282BC901DF91CF911F919A
:101F90000F910895462F843038F4753028F46F304F
:101FA00018F4672F0C94A40F90E080E00895CF926E
:101FB000DF92FF920F931F93CF93DF936C010091F9
:101FC00096058091C904082BC7E0D0E010E0FC2EF4
:101FD000C8010C2E02C0959587950A94E2F780FD02
:101FE0000CC02197A0F7F12C8F2DDF91CF911F917D
:101FF0000F91FF90DF90CF900895B6018C2F0E9433
:10200000CA0F0E94CC0D019761F3EECFCF93DF93FF
:10201000EC010E94D70FBE010E94CA0FDF91CF9141
:102020000C94CC0DFC01808191810E940610292F17
:102030002F7092959F7092509E3078F4E92FF0E0C7
:10204000E85FFD4C0C946F31803F19F020F4883E1E
:1020500020F481E00895843FE1F380E00895883E14
:10206000C0F3813FD1F7F5CF822F8695869586956F
:1020700008956F927F928F929F92AF92BF92CF926C
:10208000DF92EF92FF920F931F93CF93DF9380ED38
:10209000C82E83E0D82E9BEDE92EF12CE701C6591E
:1020A000D10936011BC0F50185909490692DC801B6
:1020B0000E94CC31682DC80101960E94CC3182E08B
:1020C000A80EB11C0E5F1F4FC017D10761F78EE13C
:1020D000680E711C6E96CE15DF0529F08E010E512B
:1020E00011095301E0CF7E0186E9E80EF11C86E973
:1020F000C80ED11C83E3E81683E0F80679F6DF9179
:10210000CF911F910F91FF90EF90DF90CF90BF90F4
:10211000AF909F908F907F906F900895CF93C091D4
:10212000CE04C2FB992790F9981781F080FBC2F981
:10213000C093CE046091CD0484E090E00E94CC3145
:102140006C2F82E290E0CF910C94CC31CF91089526
:10215000CF93DF93CFE7D2E060E0CE010E94CC3195
:102160002196C11584E0D807B9F7DF91CF91089582
:10217000E0E9F5E081E2808380914A0190914B0192
:10218000A0914C0181839283A3838FE784838FEF97
:10219000858346E050E06CE170E0CF010C94BC31E7
:1021A00090917E05943029F58093CA047093CC04F5
:1021B0006093CB049093E9008FEF9091E8008150F9
:1021C00095FD06C095ED9A95F1F700008111F5CFC8
:1021D0008091E80085FF0DC050E040E063E070E0D2
:1021E0008AEC94E00E947D048091E8008E778093D1
:1021F000E8000895BC0184E00C94D010BC0183E099
:102200000C94D0109C0184E08093E9009FEF8091B2
:10221000E800915085FD06C085ED8A95F1F7000034
:102220009111F5CF8091E80085FF0CC050E040E0AF
:1022300066E070E0C9010E947D048091E8008E771D
:102240008093E8000895CF93DF93EC0180914501DE
:102250008823B1F18091CD0487FF32C060E284E031
:102260008093E9008FEF9091E800815095FD06C0C2
:1022700095ED9A95F1F700008111F5CF8091E80076
:1022800085FF1BC08091450170E050E040E0811166
:1022900004C050E040E068E070E0CE010E947D04A0
:1022A0008091E8008E778093E80080E2FE01ACE543
:1022B000B5E001900D928A95E1F7DF91CF910895F5
:1022C00068E081E0CDCF81E08093E00080E2809300
:1022D000D8001092C9008FE19EE40197F1F700C089
:1022E000000087E090EBDC018093970590939805C0
:1022F000A0939905B0939A0588E19CE00FB6F894F5
:10230000A895809360000FBE90936000FFCF6AEEA7
:102310007EEF90E080E00E94EA3160E082E090E0B1
:102320000E94CC3160E083E090E00E94CC311092BA
:10233000C90460E084E090E00E94CC3160E082E279
:1023400090E00E94CC3160E085E090E00E94CC31CA
:1023500060E086E090E00E94CC316FEF87E090E093
:102360000E94CC3140E050E0BA0188E090E00E9449
:10237000DE3160E08DE090E00E94CC3140E050E042
:10238000BA0188E190E00E94DE3160E087E190E0F0
:102390000E94CC3140E050E0BA018CE190E00E9414
:1023A000DE3170E060E080E290E00E94EA3140E0DF
:1023B00050E0BA0188E190E00E94DE3140E050E058
:1023C000BA018FE090E00E94DE3140E050E0BA01B7
:1023D00083E190E00C94DE310F931F93CF93DF9352
:1023E000082F000FEB0114E21093F102E2EFF2E08C
:1023F000DE018D91819383E0E230F807D1F724E686
:1024000030E041E150E061EF72E0802F0E94013145
:10241000105F6096143B41F7DF91CF911F910F91B0
:10242000089580910503882329F067E073E084E72D
:102430000E94EC111092050380910603882329F075
:1024400067E973E087E70E94EC1110920603089594
:10245000E1EFF2E06083418324E630E042E050E0C7
:10246000BF01880F0C940131EF92FF920F931F93DD
:10247000CF93DF93E82E062F10E0055B1B4FF8018A
:102480008081882381F0F2E16F9FE0011124C95D12
:10249000DB4FF12C49916F2D8E2D0E942812F39461
:1024A00082E1F812F7CFF8011082DF91CF911F91EE
:1024B0000F91FF90EF900895CF93DF93C82F4BE0DB
:1024C0006DEF0E94281240E06AE08C2F0E942812D3
:1024D0008FE39CE90197F1F700C0000040E060E065
:1024E0008C2F0E94281240E061E08C2F0E9428125D
:1024F00040E066E08C2F0E94281240E06DEF8C2FA8
:102500000E942812D0E040E06D2F8C2F0E942812EC
:10251000DF5FD231C1F740E06D2F8C2F0E9428126F
:10252000DF5FD432C1F740E06D2F8C2F0E9428125C
:10253000DF5FD43BC1F74BE06DEF8C2F0E94281278
:1025400041E06AE08C2F0E94281240E06DEF8C2F52
:10255000DF91CF910C9428126F927F928F929F926D
:10256000AF92BF92CF92DF92EF92FF920F931F93A1
:10257000CF93DF930E94523084E70E945C1287E77A
:102580000E945C1264ECE62E62E0F62ED12CC12C87
:1025900072E1772EE8E08E2E912CAA24A394B12C20
:1025A00066246394F7013196449150E0CA01849700
:1025B000319604910452110B3196C491C452DD0B33
:1025C000F601EE0FFF1FEE0FFF1FEC53FD4F24919E
:1025D000237030E0FC0197FD379643E0F595E795D1
:1025E0004A95E1F7729EA001739E500D1124495D3A
:1025F0005B4FE40FF52FF11DB4010E943C31A501A2
:1026000001C0440F8A95EAF78081842B8083F8010A
:1026100017FD379693E0F595E7959A95E1F7729E49
:10262000C001739E900D1124895D9B4FE80FF92F17
:10263000F11DC801B4010E943C31A50101C0440F45
:102640008A95EAF78081842B8083FE01D7FD379637
:1026500083E0F595E7958A95E1F7729EC001739E38
:10266000900D1124895D9B4FE80FF92FF11DCE01CC
:10267000B4010E943C31A50101C0440F8A95EAF7DC
:102680008081842B8083255B3B4FF9016082FFEFC3
:10269000CF1ADF0A84E0E80EF11CE3E4CE16D10481
:1026A00009F080CF60E084E70E94341261E087E7A0
:1026B000DF91CF911F910F91FF90EF90DF90CF901E
:1026C000BF90AF909F908F907F906F900C9434123A
:1026D0001F920F920FB60F9211242F933F934F9397
:1026E0005F936F937F938F939F93AF93BF93EF937A
:1026F000FF938091E10082FF09C08091E20082FF98
:1027000005C08091E1008B7F8093E1008091DA0029
:1027100080FF24C08091D80080FF20C08091DA0023
:102720008E7F8093DA008091D90080FF9BC080E18A
:1027300089BD82E189BD09B400FEFDCF81E08093AF
:102740007E0580915905811109C00E942D040E94C7
:10275000F8048091E20084608093E2008091E100BF
:1027600080FF17C08091E20080FF13C08091E200DB
:102770008E7F8093E2008091E20080618093E2008E
:102780008091D80080628093D80019BC85E0809346
:102790007E058091E10084FF29C08091E20084FFE2
:1027A00025C080E189BD82E189BD89B5982F9170EE
:1027B00080FFFBCF8091D8008F7D8093D8008091DF
:1027C000E1008F7E8093E1008091E2008F7E809314
:1027D000E2008091E20081608093E20080917F05B9
:1027E000882309F445C084E080937E058091E10050
:1027F00083FF27C08091E20083FF23C08091E10026
:10280000877F8093E10082E080937E0510927F05B0
:102810008091E1008E7F8093E1008091E2008E7FC5
:102820008093E2008091E20080618093E20042E0C8
:1028300060E080E00E94C6048091F0008860809390
:10284000F000FF91EF91BF91AF919F918F917F9198
:102850006F915F914F913F912F910F900FBE0F900D
:102860001F90189519BC10927E051092590576CFCD
:102870008091E30087FD93E090937E05B7CF789435
:102880001F921FB61F9211248F939F93AF93BF93F4
:102890008091320590913305A0913405B0913505B2
:1028A0000196A11DB11D8093320590933305A0932D
:1028B0003405B0933505BF91AF919F918F911F90D3
:1028C0001FBE1F9018959C014FB7F8948091320558
:1028D00090913305A0913405B09135054FBF821B0F
:1028E000930B08952FB7F89480913205909133059A
:1028F000A0913405B09135052FBF08958091C5048E
:102900009091C404892B9091C304892B8093CE02AB
:102910008091C804882329F10E9472142091C60472
:102920003091C704821B930B8838934110F00E94AA
:1029300005078091CE029091C804892B8093CE0226
:1029400080914501882389F18091CD0487FF2DC0B6
:102950008EE1E0EDF2E090E0815048F591110E94A7
:1029600005078091C20480959091CE0289239091B1
:10297000C104892B8093CE02E091D904F091DA044E
:102980003097D1F090914501992349F09091CD0471
:1029900097FF05C08093CF0285E08093CE0202802E
:1029A000F381E02D8EEC92E0099486E0D2CF219164
:1029B000222391F29F5FD0CF0895882341F0809524
:1029C0009091C40489238093C4040C947E140895C8
:1029D000882339F09091C404982B9093C4040C94EC
:1029E0007E140895882321F00E9410070C947E1411
:1029F0000895882339F09091C504982B9093C504CD
:102A00000C947E140895CF93DF93EC0181E0898BC1
:102A10008091C5049F81892B8093C5048091C40453
:102A20009885892B8093C4040E947E14EA81FB81DF
:102A3000309739F06C897D89CE010696DF91CF9170
:102A40000994DF91CF910895EF92FF920F931F9316
:102A5000CF93DF93EC018A85811139C0EB80FC8034
:102A600087E5F81A26E12E9DC0012F9D900D1124B7
:102A7000DC01A45FBE4F1496ED91FC911597309741
:102A800031F054966D917C918E5E9E4F099586E152
:102A90008E9D80018F9D100D1124045F1E4FF80143
:102AA00087810E941007F8018085982F909580916A
:102AB000C40489238093C4040E947E14188219865A
:102AC0001B861E821D821092650410926404DF91A1
:102AD000CF911F910F91FF90EF9008950E94721473
:102AE0009C0190913F0580914005982B21F03093F7
:102AF0003C0520933B059091410580914205982B20
:102B000021F03093390520933805E091D904F091F4
:102B1000DA04309749F082E080933D050480F58126
:102B2000E02D8DE395E00994089590E080E00E9407
:102B3000B60790E080E00E94A0071092C4041092B3
:102B4000C3040E947E1486E0EDE3F5E0DF011D92F0
:102B50008A95E9F710923A051092370510926704AA
:102B60000C946E15809396050C949515809196059E
:102B7000982F9670963019F488600C94B215877F60
:102B8000FCCF21E030E001C0220F8A95EAF7809166
:102B9000960582270C94B21521E030E001C0220F87
:102BA0008A95EAF720958091960582230C94B215B8
:102BB0009091C004809589238093C004282F2770AA
:102BC00039F4282F082E000C330B9217130621F42A
:102BD0009091CE0492FF0BC08595859585950E94B6
:102BE000CC151092C0041092BF041092BE04089538
:102BF00080910A01833019F481E00E94CC15109273
:102C00000A01089521E030E001C0220F8A95EAF719
:102C100080919605822B0C94B2158093C9040C9474
:102C200095151092C50480914501E0EDF2E08823EE
:102C300059F08091CD0487FF07C08EE1DF011D921E
:102C40008A95E9F70C94951586E0F8CF1F93CF93FA
:102C5000DF93CDB7DEB7AA970FB6F894DEBF0FBEED
:102C6000CDBF80E895E02091F100DC012D93CD01EE
:102C7000B5E088389B07B9F780918105833009F466
:102C800071C0B8F4813009F448C0823009F4B2C090
:102C90008091E80083FF3AC1809180059091810581
:102CA0009A3008F033C1E92FF0E0EA5EFD4C0C9455
:102CB0006F318A3009F48DC08B3009F470C08930CF
:102CC00039F780918005813219F7809184059091C0
:102CD0008505009711F00297D9F68091E800877F6B
:102CE0008093E8008091E80082FF37C09091F30064
:102CF0008091F200029729F48091F1008B7F81305E
:102D000021F48091F10080935B058091E8008B773E
:102D10008093E8000E94A704BBCF80918005813A90
:102D200009F0B6CF8091E800877F8093E80080911A
:102D3000840590918505892B61F460E28CE595E02E
:102D400070E00E9459058091E8008B778093E8003D
:102D50009FCF60E090E080E0F3CF80917E0581110D
:102D6000C1CF96CF80918005813A09F091CF8091B3
:102D7000840590918505892B09F08ACF8091E80020
:102D8000877F8093E8008091E80080FFFCCF8091EE
:102D900045018093F1008091E8008E77B9CF809152
:102DA0008005813209F074CF80918405909185056A
:102DB000892B09F06DCF8091E800877F8093E80030
:102DC0000E94A70480918205809345010E941116FC
:102DD0005FCF80918005813209F05ACF8091E80061
:102DE000877F8093E8000E94A704809183058093E9
:102DF0005A054ECF80918005813A09F049CF8091E4
:102E0000E800877F8093E8008091E80080FFFCCF96
:102E100080915A05BECF803899F0823809F076C08B
:102E2000809184058F70873008F070C08093E9002E
:102E30008091EB0085FB882780F91092E90006C09D
:102E400080917C0590917D05911182609091E800C0
:102E5000977F9093E8008093F1001092F1008091A9
:102E6000E8008E77B5C1882309F4A2C1823009F049
:102E70004DC0809182058111A6C1809184058F701B
:102E80002FEF280F263008F041C08093E9002091F1
:102E9000EB0020FF98C1933031F48091EB00806209
:102EA0008093EB0090C19091EB0090619093EB00C8
:102EB00021E030E001C0220F8A95EAF72093EA0072
:102EC0001092EA008091EB008860EACF81111EC069
:102ED000109182051F778091E3008078812B809389
:102EE000E3008091E800877F8093E8000E94A704B8
:102EF0008091E80080FFFCCF8091E30080688093A0
:102F0000E30082E0111183E080937E058091E80068
:102F100083FF0AC08091E800877F8093E80080915A
:102F2000EB0080628093EB00AA960FB6F894DEBFA8
:102F30000FBECDBFDF91CF911F9108958058823091
:102F400028F720918205309183052C3DE3E03E0770
:102F5000A1F583E08A838AE289834FB7F894DE0182
:102F6000139620E03EE051E2E32FF0E0509357004B
:102F7000E49120FF03C0E295EF703F5FEF708E2F6A
:102F800090E0EA30C0F0C7968D939D932F5F243177
:102F900059F74FBF8091E800877F8093E8006AE28D
:102FA00070E0CE0101960E9459058091E8008B7770
:102FB0008093E800ABCFC096E7CF809184059091D5
:102FC0008505432F55274330510509F44AC078F54C
:102FD0004130510509F47AC08BE590E0E8EDF6E068
:102FE0004230510509F092CF2091E800277F2093CD
:102FF000E80020918605309187058217930708F431
:103000009C0140E02115310509F065C0411163C004
:103010008091E80082FDC9CF80917E05882329F246
:10302000853019F28091E80083FFF2CFBECF4132A4
:10303000510509F43CC04232510509F067CF833095
:10304000910508F063CFFC01EE0FFF1FE455FE4F22
:103050000190F081E02D87559E4FDC018C9190E02E
:103060001AC0332721303105D1F02115310561F027
:103070002230310509F04ACFE5E4F7E0E4918E2FE4
:1030800090E0E5E4F7E007C0E9E7F7E0E4918E2F90
:1030900090E0E9E7F7E0009709F438CFA5CFE7E63D
:1030A000F7E0E4918E2F90E0E7E6F7E0F4CF83308D
:1030B000910508F02BCF880F991FFC01EE54FE4FAD
:1030C0000190F081E02D89E090E08ECF82E190E0E8
:1030D000E3E3F7E089CF80917E05882309F465CF8B
:1030E000853009F462CF8091E80083FD5ECF809146
:1030F000E80082FD8DCF8091E80080FF83CF909122
:10310000F3008091F2002115310519F08830910506
:1031100050F041E0089709F040E08091E8008E7798
:103120008093E8006FCF44914093F1003196215095
:1031300031090196E8CF803809F0E8CE8091E800A7
:10314000877F8093E80080917F058093F10087CE90
:103150008111DCCE10918205123008F0D7CE80911B
:10316000E800877F8093E80010937F050E94A70402
:10317000112311F084E005C08091E30087FDFACFB0
:1031800081E080937E0542E061EC81E00E94C6040C
:1031900042E261EC84E00E94C60442E261EC82E01B
:1031A0000E94C60442E260EC83E00E94C604AECEF8
:1031B00080918205813009F0A9CE81E0933009F039
:1031C00080E080937D051092E9008091E800877F80
:1031D0008093E8000E94A70499CE1F920F920FB629
:1031E0000F9211242F933F934F935F936F937F938D
:1031F0008F939F93AF93BF93CF93DF93EF93FF93FF
:10320000D091E900DF708091EC00C82FC17080FD83
:10321000C0E81092E9008091F000877F8093F00071
:1032200078940E9426161092E9008091F000886040
:103230008093F000CD2BCF70C093E900FF91EF9108
:10324000DF91CF91BF91AF919F918F917F916F91BE
:103250005F914F913F912F910F900FBE0F901F9054
:103260001895882361F19CEF980F913A20F40E9401
:1032700017070C947E1490E2980F983050F48770E2
:1032800091E001C0990F8A95EAF7892F0E941007F3
:10329000F0CF9BE5980F933020F490E080E00C9401
:1032A000B60798E5980F973120F490E080E00C94F1
:1032B000A007803F20F00E945D0C0C946E150895CD
:1032C000CF93DF93FC0180818130C9F4FB01C08181
:1032D000D1818C2F0E943119CE010E94650F9E0171
:1032E000205E31092830310510F0CD2B21F4DF911B
:1032F000CF910C94F214DF91CF910C94DD14DF91F7
:10330000CF910895FF920F931F93CF93DF93F82EE1
:1033100000915A0410915B040115110509F449C08C
:1033200010925D0410925C041092C2041092C104C9
:10333000D8011696CD91DC919E013A9521153F4119
:1033400008F4D07ED1E0C11101C0D0E0D8011996B7
:10335000ED91FC911A97309731F01B966D917C910D
:1033600080E00995D823DD2339F08CEF8C0F813A6A
:1033700038F58C2F0E941707FF2099F0E0915A042E
:10338000F0915B04808584FD0CC0809159048823F2
:1033900041F0808191819C012150310920363D45C9
:1033A000A8F00E947E1410925B0410925A041092AE
:1033B0005904C801DF91CF911F910F91FF9008959B
:1033C0000E947E148C2F0E943119D6CF0E94D807FC
:1033D000E8CFCF93C82F882309F46CC08CEF8C0FF3
:1033E000813AA8F580914501882301F18091CD04AF
:1033F00087FF1CC0EC2FE695E695E695F0E0E253DA
:10340000FD4F828190E04C2F477021E030E002C0F8
:10341000220F331F4A95E2F782239323892B79F0F9
:103420008C2F0E9417070E947E1409C0E0EDF2E085
:103430008191C817A9F382E0E63DF807C9F76C2F20
:103440008EEC92E00E94D006CF910C947E1480E224
:103450008C0F883068F4C77021E030E001C0220F83
:10346000CA95EAF78091C504822B8093C504ECCFFE
:10347000EBE5EC0FE33040F4F0E0EC59FE4F8081D7
:1034800090E0CF910C94B607E8E5EC0FE73150F4EB
:10349000F0E0EE0FFF1FE959FE4F80819181CF913F
:1034A0000C94A007C03F30F08C2F0E94180DCF91D4
:1034B0000C946E15CF9108951F93CF93DF93182F1F
:1034C000D0E0C0E0893311F4C0E5D0E0812F0E9444
:1034D000E919209731F4812FDF91CF911F910C943E
:1034E00031198FE99FE00197F1F700C000002197A3
:1034F000F0CF0F931F93CF93DF93C62FD42F022FBC
:10350000FC0182818823A1F060938E050E947214D1
:1035100090938D0580938C05C77081E001C0880F62
:10352000CA95EAF7DF91CF911F910F910C94F9148E
:1035300080918E05681335C080918C0590918D0522
:103540000E946314883C910560F510E21D0FCD17B1
:10355000B9F080E28C0F883040F4C77081E001C080
:10356000880FCA95EAF70E94F214183048F481E0F7
:103570009D2F977001C0880F9A95EAF70E94F91461
:10358000802F0E945C1A183098F4D77081E001C037
:10359000880FDA95EAF7DF91CF911F910F910C9484
:1035A000F214C77081E001C0880FCA95EAF7F3CF23
:1035B000DF91CF911F910F910895FC01908191307F
:1035C00049F48285811116C082E080930A0189E363
:1035D0000C945C1A923021F081E080930A010895E6
:1035E00084E080930A0180919605811107C081E0F3
:1035F0000C94021683E080930A01F9CF81FFF7CF84
:1036000081E00C94CC15CF93DF93EC010E94650F01
:103610009E01205E31092830310510F0209739F4E1
:103620000E94F9148C2FDF91CF910C94E9190E941C
:10363000E814F8CFDB01FC018081813021F48D9109
:103640009C910C94031B823039F41396ED91FC91FC
:10365000149712968C91099408952F923F924F924D
:103660005F926F927F928F929F92AF92BF92CF9212
:10367000DF92EF92FF920F931F93CF93DF93CDB71B
:10368000DEB728970FB6F894DEBF0FBECDBF8C0112
:10369000DC0113968D919C911497892B39F08C91B4
:1036A00011969C9189238F3F09F078C728960FB611
:1036B000F894DEBF0FBECDBFDF91CF911F910F9168
:1036C000FF90EF90DF90CF90BF90AF909F908F9042
:1036D0007F906F905F904F903F902F9008950E9441
:1036E000D70FF82E682F89819A810E946A07698115
:1036F0007A818F2D0E94CA0F7C01F801828181118D
:10370000A7C0D80112965C905110E4C0F0E1EF160A
:10371000FFE5FF0609F4F2C121E1E2162FE5F2060A
:1037200009F4F2C180910B01882309F43FC64701D7
:1037300080EE881A91084090C8048091C504482AF8
:1037400098E08916910408F0E8C1970127703327A3
:1037500081E090E001C0880F2A95EAF7552009F42E
:10376000D9C1482AD8018D919C910E94420721E03D
:1037700030E0390102C0660C771C8A95E2F7E091CF
:103780005A04F0915B04F887EF8320906204309034
:1037900063041E822E81E22FF0E0EE0FFF1FE05047
:1037A000FF4FC080D180C114D10409F4BAC64110C2
:1037B00005C0D60112968C918111EBC1F60183816F
:1037C00090E086219721892B09F4E3C18085982F09
:1037D000977009F487E0F8E08F16910408F0B7C1FC
:1037E000552009F4B0C186958170882309F4D1C1B0
:1037F000D601AD90BC90EA14FB0419F4552009F4ED
:10380000C8C1EF81F885CE16DF0609F4C2C1D60122
:103810001D96ED91FC91309721F08081882309F469
:10382000B8C1642DC6010E942908882309F4B1C1DA
:10383000EA14FB0409F0EBC6E114F10409F4ECC648
:103840005110ECC6A214B30409F0A3C1512CE6C672
:10385000809138018F3F09F454CF7CE0C72E71E08E
:10386000D72EB12CA12C9924939480913801082E45
:10387000000C990B8A159B050CF443CFF601868149
:10388000882309F1818592858E159F0539F48091F1
:103890006404909165048E159F05A9F0D6011F96CA
:1038A0009C921F971C96FC92EE921B9751968C91BE
:1038B000811103C0C6010E940315C60106960E942D
:1038C00024151092C404BFEFAB1ABB0AE6E1CE0E7A
:1038D000D11CCBCFC70182519F45409708F036C617
:1038E0008FEF93E00E94AE31FEEEEF0E6FE7862E73
:1038F00062E0962E882391F18091C004877009F4CC
:10390000D5CEF8018281882309F4D0CE82E02896B2
:103910000FB6F894DEBF0FBECDBFDF91CF911F91E0
:103920000F91FF90EF90DF90CF90BF90AF909F905E
:103930008F907F906F905F904F903F902F900C945E
:10394000D815811424E09206B9F2C4010E94AE3168
:10395000811101C0EA943FEF831A930AE110F1CF7D
:103960001C821B82442443945AE0352E74018FEF4D
:10397000E81AF80AC4010E94AE3189831A828823AA
:1039800009F4BACF9FEF980F933000F58A834982EC
:1039900092E0890E911CC7010E94AE318B8388236F
:1039A00009F4AACFDE0111967D01F70120812223BF
:1039B000E9F2213009F04AC091818281913041F4CD
:1039C000F2E0EF0EF11C0E945C1A09C04701EACF39
:1039D000923049F422E0E20EF11C0E94E919EFEF67
:1039E000EE1AFE0AE2CF933031F432E0E30EF11C1E
:1039F0000E943119F4CF943021F08FEFE81AF80AC1
:103A0000EECF92E0E90EF11C30E020E0B7016F5FED
:103A10007F4FD70111964C918053990B8A309105B5
:103A200050F021503109D8F2EFE9FFE03197F1F77A
:103A300000C00000F6CF329EF001339EF00D11243D
:103A40009C012E0F3F1F842F7B01E0CFE22FF0E07F
:103A5000E85AF94F5490822F86958695869590E086
:103A6000FC01E85BF94F64902770712C022E02C0B4
:103A7000759467940A94E2F731E063227724FC019D
:103A8000E85CF94FA490B12C022E02C0B594A79423
:103A90000A94E2F7A1E0AA22BB24FC01E85DF94FF9
:103AA000C490D12C02C0D594C7942A95E2F7B1E016
:103AB000CB22DD246114710419F081EE0E94E91912
:103AC000A114B10419F086EE0E94E919852D0E9417
:103AD0005C1AAB2819F086EE0E943119672819F09C
:103AE00081EE0E943119CD2809F479CF8CE26BCF99
:103AF00081E00E9402160E94B615FECE81E00E946F
:103B0000CC15F9CF82E0F5CF82E0F9CF81E0809348
:103B10000B01F2CE8095482225CE552009F4EAC447
:103B2000F0926304E09262040E94C40660935E0413
:103B300070935F04809360049093610410925D041D
:103B400010925C040FCE82FB882780F94ECE552060
:103B500001F181704ACE0E9431197FC50497813AE4
:103B6000910558F46A2D8EEC92E00E94D006552003
:103B700009F41CC40E947E14BFCE0E947E148FE301
:103B80009CE90197F1F700C000008A2D0E94E91915
:103B9000EECF9E819F5F9E83FDCDFC012081318110
:103BA000E216F30609F0FBC35110FBC3109259044F
:103BB00080E0C9C4882309F447C4F60181898823B9
:103BC00009F442C4C5018E5E9E4F0E9424153CC478
:103BD000F3EFEF16FCE5FF0661F1A0F438EDE31614
:103BE0003CE5F30611F189EDE8168CE5F80669F17C
:103BF00097EDE9169CE5F90609F026C426E241EEA8
:103C000061EE0FC0A5EFEA16ACE5FA06D1F0A8F018
:103C100027E245EE66EEE6EFEE16ECE5FE0609F06D
:103C200013C4C8010E94791A67CE27E245EE65EEFB
:103C3000F8CF26E241EE60EEF4CF27E245EE64EEE7
:103C4000F0CF26E241EE62EEECCF28E241E0EFCF8A
:103C50008091CD048061F6E0EF16FCE5FF0609F4E3
:103C60009FC08091CD04886027E0E2162CE5F20623
:103C700008F496C08091CD04806292C08091CD04FA
:103C80008D7F3CE0E3163CE5F30609F489C078F447
:103C90008091CD048C609AE0E9169CE5F90609F460
:103CA0007FC008F48CC08091CD048E7F79C0809154
:103CB000CD04877FBEE0EB16BCE5FB0609F470C0BF
:103CC0008091CD048B7FEFE0EE16ECE5FE0608F464
:103CD00067C08091CD048F7E63C0FBEFEF16FCE5DB
:103CE000FF0609F464C068F533E1E3163CE5F3062A
:103CF00009F477C090F491E1E9169CE5F90609F41E
:103D00006CC0A2E1EA16ACE5FA0609F0E3C30E9432
:103D100011168091CD048F7743C0B5E1EB16BCE559
:103D2000FB0609F466C008F47AC08091CE04816075
:103D3000FAEFEF16FCE5FF0609F0CCC38093CE0442
:103D4000C9C32FEFE2162CE5F20609F44EC088F441
:103D50008DEFE8168CE5F806C1F18091CE048E7FD8
:103D60009EEFE9169CE5F90648F38091CE04836046
:103D7000E5CFA1E0EA16ADE5FA0609F459C008F46A
:103D800044C060E0E2E0EE16EDE5FE0609F0A2C3F5
:103D90008EE090E00E94CC319DC38091CD04816083
:103DA0008093CD0497C38091CD048460F9CF809136
:103DB000CE048260C3CF8091CD048064F1CF0E9495
:103DC00011168091CD048068EBCF8091CE048D7F59
:103DD000B5CF8091CD048F7DE3CF8091CD048F7BD3
:103DE000DFCF8091CD04837FDBCF8091CE048C7FA9
:103DF000A5CF8091CD0482FB992790F921E09227ED
:103E000090FB82F990FB83F9CBCF8091CE04982F61
:103E1000909591708E7F892B90FB81F98FCF0E94B6
:103E200011169091CD04892F97FB87F98058B8CF50
:103E300061E0AECF90E0D3C380916604811104C0ED
:103E400089E20E94170796CE85E3FBCFF7ECEF16C9
:103E5000FCE5FF0609F465C008F45EC038ECE31623
:103E60003CE5F30609F462C042EB58E06EEB78E003
:103E700099ECE9169CE5F90609F04AC40E94490844
:103E80003BCDAFECEA16ACE5FA0609F465C0C0F428
:103E9000ECECEE16ECE5FE0609F457C008F450C051
:103EA0002DECE2162CE5F20609F454C084E03EEC59
:103EB000E3163CE5F30609F02BC40E9408041CCD70
:103EC00086EDE8168CE5F80638F48EE091EDE916FB
:103ED0009CE5F90690F310CDADE5EA16FA0609F473
:103EE0000BCD16C48091900591E0892780939005B1
:103EF0001092490190938F05FFCC44EF58E06DEF8D
:103F000078E0BCCF4DEF58E064EF78E0B7CF42EEF9
:103F100058E06BEE78E0B2CF4BEE58E062EE78E01E
:103F2000ADCF4AEC58E066ED78E0A8CF46ED58E01A
:103F30006AEC78E0A3CF4EEB58E062EB78E09ECFDE
:103F40004AE958E066EA78E099CF46EA58E06AE93B
:103F500078E094CF81E0B1CF89E0AFCF3BE5E316C5
:103F60003DE5F30611F18CE5E8168DE5F80609F05C
:103F7000E2C38091CE0482FB882780F991E08927F3
:103F80000E948E10D8C30E9411169FEFA4E3BCE0DC
:103F90009150A040B040E1F700C000000E946311C2
:103FA0000E948711A9CC81E0EBCF80E0E9CFC70167
:103FB0000E944207D82ED0C32F2D2F70C22E8F2DD6
:103FC000807F19F0C29490EFC922DD20C9F0CC2087
:103FD00069F080E28E0D883010F081100BC0809166
:103FE000C504C82AC092C5040E947E148E2D0E946A
:103FF000E91916C08091C404C82AC092C404F4CF41
:104000008E2D0E943119CC2059F080E28E0D88301F
:1040100010F081103CC08C2D0E9410070E947E146D
:10402000A92DA850BB0B149710F40E94CC07AA200E
:1040300009F43CCB8091C00480FD38CBF80112829A
:104040008595859585950E940216C8010E942D1BB5
:104050008091C00485958595859528960FB6F8942E
:10406000DEBF0FBECDBFDF91CF911F910F91FF90AB
:10407000EF90DF90CF90BF90AF909F908F907F9008
:104080006F905F904F903F902F900C94CC15C09400
:104090008091C404C822C092C404C0CF3F2D3F7099
:1040A000B32E8F2D807F803219F0B29480EFB8222A
:1040B000882091F081E08816D1F1DD2009F443C019
:1040C000CC2089F0D80115968C91159780FF8ECF62
:1040D0008F7015968C9307C0DD20E1F08091C804A5
:1040E000B82AC11004C08B2D0E94F91499CF91E019
:1040F000C912F9CF9091CE0492FD92CFB81609F46F
:104100008FCF0E9472149093C7048093C604B0921C
:10411000C80486CFC11006C00E9405078B2D0E94DF
:10412000F2147ECFA1E0CA1609F47ACFF5CFDD20D4
:1041300029F0B2E0BC1508F473CFD5CFE1E0EC155F
:1041400008F46ECFEBCFCC2049F3B9E38B1220C13A
:10415000EFEFF7EE23E0E150F0402040E1F700C040
:10416000000016C18F2D86958695837061F0813091
:1041700009F056CFC7019370D11002C090E080E0E3
:104180000E94A0074DCFC7019370D11002C090E0EC
:1041900080E00E94B60744CF8E2DDD2029F00E94DA
:1041A000180D0E946E153CCF0E945D0CFACF8F2D2A
:1041B000837091F5D11034CF4E2D429546954770BE
:1041C000440F440F8E2D8F70042E01C0880F0A9467
:1041D000EAF72E2D2071E4FE07C02FE030E001C089
:1041E000220F4A95EAF720953F2D36953695337084
:1041F000323069F050F44091C904313029F0822BFB
:1042000084230E940D160CCF842B822BFACF282BEF
:104210008091C9048227F5CF8695DD2011F08F2D7E
:104220008170882309F4FCCE4E2D42954695477047
:10423000440F440F8E2D8F70042E01C0880F0A94F6
:10424000EAF72E2D2071E4FE07C02FE030E001C018
:10425000220F4A95EAF720953F2D36953695337013
:10426000323069F050F440919605313029F0822BBC
:1042700084230E94B215D4CE842B822BFACF282B14
:10428000809196058227F5CF3F2D3F70F32EDD20DC
:1042900029F0832F0E9402168E2D26CF8E2D0E948C
:1042A000F2148F2D0E94CC15BBCE8E2D92EF891665
:1042B00009F44BC0981570F0A0EF8A1671F1B1EFB8
:1042C0008B16D9F1DD2009F45EC0C1108FCE8F2D81
:1042D0008F7138C0E3EF8E16E9F1F4EF8F12F2CF51
:1042E000DD2009F445C08F2D8F71F82E0E94021633
:1042F0008091CE0482FD3AC0A8E0FA9EC00111244C
:1043000083608093C0048F2D0E9402160E94721455
:104310009093BF048093BE0483CEDD2049F021E05A
:104320002C1508F47DCE8F2D8F710E94C11578CE8B
:1043300032E03C1508F474CEF6CF8F2D8F71DD205E
:1043400009F4B0CF0E9402166BCE8F2D8F71DD2045
:10435000C9F3A8CF80E0DD2009F48BCF9F2D9F719A
:1043600081E001C0880F9A95EAF783CF8F2DEACFBD
:1043700081E00E94D815B1E0BC1508F051CE82E072
:104380000E94D8154DCECC2039F0893309F4E0CE07
:104390008E2D0E94311944CE8F2D8F7183CF5520E1
:1043A00029F0DC0118968C9185FF02CCC701975546
:1043B0008F3F910511F008F00BCC20913801022EAF
:1043C000000C330B2817390714F480933801F801D7
:1043D000228136E1389F5001399FB00C1124C5016C
:1043E000845F9E4F6C01DC0150962C935097928114
:1043F00016968C911697992309F4DCCB1A96FC92A9
:10440000EE9219978F5F16968C930E947214F601A4
:10441000968785878091C80487838091C404909192
:10442000C504892B80870190F081E02D309741F001
:10443000D60154966D917C91C5018E5E9E4F099573
:10444000F0926504E0926404D80112962C91222324
:1044500009F4B7C010928E05B2E0EB16BCE5FB067E
:1044600008F42FC1E6E1EE16ECE5FE0630F0C701D8
:104470008A5F9C45099708F024C10E94960F90938B
:10448000CE048093CD04F0E1EF16FCE5FF0609F4BD
:10449000A0CC08F022CC38E0E3163CE5F30609F4A2
:1044A0008ACC08F0EBCB94E0E9169CE5F90609F418
:1044B0007ACC08F0CDCBB2E0EB16BCE5FB0609F4F4
:1044C0006CCC8091CD048260E3E0EE16ECE5FE0654
:1044D00009F466CC6091CD04F090CE0484E090E0C5
:1044E0000E94CC316F2D82E290E00E94CC310E947C
:1044F000111602CA8091620490916304E816F906CD
:1045000081F4109263041092620410925E0410927F
:104510005F04109260041092610410925D04109286
:104520005C0480915A0490915B04009709F43ECF9B
:10453000A8E08A16910408F030CB642D0E94290867
:10454000811134CF81E00E94821930CFB0E1EB16A7
:10455000BFE5FB0609F4CCCAE1E1EE16EFE5FE0685
:1045600009F4D0CAFFE5EF16FDE5FF0609F4CECA4F
:1045700020E6E2162DE5F20659F03EE5E3163DE5AC
:10458000F30609F0CFC880910B01882309F4BECA55
:1045900010920B0180E00E948219AEC985E0F801FB
:1045A000DE01119601900D928A95E1F7D8011296DD
:1045B0002C9189819A81211192C80E944207F82E7C
:1045C00096C8B6E1EB16BCE5FB0609F0B4C08091D5
:1045D000C504982F947409F02DCC982F9A7A382F0F
:1045E000317109F090E0827209F090E0222309F421
:1045F00023CC81E0911101C080E08093660469E2E0
:10460000911165E38EEC92E00E94D006B3CAA1142A
:10461000B10409F017C9512CB12CA12C80E00E94E3
:104620008219D0925B04C0925A0481E080935904AD
:10463000D60115968C918093C20451100EC0AB2800
:1046400061F0F601808191819C0124503109213A69
:10465000310508F080CA0E941707D6011696AD9062
:10466000BC90C5019A9581159F4110F4E0EEBE22E1
:1046700077247394C501019780369D4508F0712C0D
:10468000D6011996ED91FC911A97309731F01B964F
:104690006D917C9181E009957822772079F0F6017F
:1046A000868197810E94650F8093C104C501F8E05F
:1046B0008F16910408F052CA0E94D8070E947E14F7
:1046C00056CAE6E1EE16ECE5FE0609F480CF8091CD
:1046D000C5048272FAECEF16FCE5FF0609F42BCC58
:1046E00008F0CFCB35ECE3163CE5F30609F40FCC2C
:1046F00008F0ACCBA3ECEA16ACE5FA0609F4FDCB66
:1047000008F000CCE2ECEE16ECE5FE0609F4EACB8C
:10471000BAE5EB16BDE5FB0609F445CC08F01ECC66
:10472000E114FCE5FF0609F42ECC2EEDE2162CE593
:10473000F20609F435CCD80112968C911297ED90BF
:10474000FC90882309F433CCC7010E94D70FD82EE0
:10475000682FC7010E946A07B7018D2D0E94CA0FFA
:104760000E94CC0D7C01882EF801D280C580C294B5
:104770003FE0C3228091C0048770A1F0AD2CDD2002
:1047800091F08F2D807F803421F080E28E0D883073
:1047900048F082E00E94D8158091C0048770AA2456
:1047A000A3948111A12C9F2C92942FE09222FBE0E4
:1047B000F91508F435CCE92DF0E0E05EFD4C0C94E1
:1047C0006F311F93CF93DF9380916D04807FA9F4A5
:1047D00080916A04882389F080919F04D0916E04AF
:1047E0006091680470916904A0916B04B0916C04AD
:1047F000C62FC72316E0D81304C0DF91CF911F91B5
:10480000089590E0109711F0CF3F19F4019687704A
:10481000F2CF189F9001199F300D1124F901E15931
:10482000FB4F41814713F2CF40814613EFCF4281C6
:104830004111ECCF438154814A1B5B0B483C51052D
:1048400028F780916D048F70806180936D04F90169
:10485000EC58FB4F80818F708061808388E694E004
:104860000E942D1BDF91CF911F910C949607AF9260
:10487000BF92CF92DF92EF92FF920F931F93CF934D
:10488000DF93CDB7DEB761970FB6F894DEBF0FBEEA
:10489000CDBF8C0185E0F801DE011D9601900D92DF
:1048A0008A95E1F7F801E28088E6A82E84E0B82E28
:1048B00060916B0470916C046115710509F432C14B
:1048C0009091680440916904892F84238F3F09F4F3
:1048D00029C120813181C380D480F0906A04F6011F
:1048E000E61BF70BFF2009F4E8C080916D04582FF8
:1048F000507FE83CF10508F0ABC0511177C0FE2CA9
:10490000431321C092131FC0E1101DC08F7080613E
:1049100080936D04C5010E942D1B80916D04F801E8
:1049200085838F2D61960FB6F894DEBF0FBECDBF85
:10493000DF91CF911F910F91FF90EF90DF90CF907B
:10494000BF90AF900895CD2829F0822F83238F3F09
:1049500009F003C180E0F82FF170DF2E80FF3CC02A
:1049600080919F0440916E0456E0841315C02D87FA
:104970003E878D859E850E940610292F22952F70D7
:104980002230F0F0243018F59F70F1F0F801958195
:10499000907FD1F4D12C1EC090E0589FF001599F18
:1049A000F00D1124E159FB4F6181361306C060817F
:1049B000261303C06281E6120FC001968770D5CF1F
:1049C0009F7011F0882331F3805E883018F3C8019E
:1049D0000E942D1BFD2CA5CFEE2009F4A2CF8091C3
:1049E0006D04816080936D04F12C9BCF431306C04E
:1049F000921304C0F801EE2009F479C0C8010E94A6
:104A00001210882309F1EE20F9F080916D048032B4
:104A100070F0209168043091690438872F831986DB
:104A2000DB86CA868C87CE0107960E942D1B86E006
:104A3000F801A8E6B4E001900D928A95E1F70E9492
:104A4000E123FF24F3946DCFC8010E942D1BF9CF01
:104A500051110AC088E694E00E942D1B86E0F50102
:104A600011928A95E9F7C0CF43130FC092130DC07E
:104A7000E1100BC0F8018583C8010E942D1B86E060
:104A8000F50111928A95E9F74CCFC8010E941210E6
:104A90008823D1F2EE20C1F280916D04803238F289
:104AA00020916804309169043A8329831B82DD8256
:104AB000CC828E83CE010196B8CFE83CF105F8F6A2
:104AC000FE2CEE2009F243131FC092131DC08091EB
:104AD0006D0480FD10C0982F907F69F0F8018583E8
:104AE000903F31F0982F907F905F8F70892B858356
:104AF000C8010E942D1B86E0F801A8E6B4E00190F1
:104B00000D928A95E1F70DCFC8010E941210811114
:104B10008ECF80916D04816080936D04C8010E94E6
:104B20002D1BFFCEEE2009F48FCFC8010E9412107A
:104B3000F82E882309F488CF86E0F801A8E6B4E0CF
:104B400001900D928A95E1F7809168049091690433
:104B50000E9406100E94E123E4CE81E08E25FBCE68
:104B60001F93CF93DF93CDB7DEB767970FB6F89457
:104B7000DEBF0FBECDBF4B8B5C8B6D8B7E8B8F8B67
:104B800061111092C4041A8A198A85E0FE01739695
:104B9000DE011D9601900D928A95E1F70E94721434
:104BA0002091BE043091BF04821B930B883893413F
:104BB00020F08091C00482FF7FC00E947214209177
:104BC000C6043091C704821B930B8838934110F0C0
:104BD0000E94050786E0FE013D96DE0117960190D2
:104BE0000D928A95E1F7CE0107960E94372488231B
:104BF00089F016E080919F0490916E04891349C05A
:104C000067960FB6F894DEBF0FBECDBFDF91CF9190
:104C10001F91089586E0FE013796DE0111960190FE
:104C20000D928A95E1F78A859B85892B11F38F81F7
:104C3000988589238F3FE9F220916E0430E0C90105
:104C400001968770992740919F044817190671F4BF
:104C50000E94111610926E0410929F0486E0E8E6FE
:104C6000F4E0DF011D928A95E9F7C3CF96E0929FA9
:104C7000D001939FB00D1124A159BB4FFE01319675
:104C800001900D929A95E1F780936E040E94960729
:104C9000B0CF819FC001112481599B4F0E943724BE
:104CA000882309F4ADCF80919F0490E0019687702E
:104CB000992780939F049ECF82E00E94D8157DCFD4
:104CC0006F927F928F929F92AF92BF92CF92DF921C
:104CD000EF92FF920F931F93CF93DF93CDB7DEB781
:104CE0002A970FB6F894DEBF0FBECDBF8E010F5FBF
:104CF0001F4F8AE0F80111928A95E9F725E9E22E23
:104D000021E0F22E68013AE9632E31E0732E882407
:104D10008394912CF70181917F018F3F09F44BC05F
:104D2000F894E82FE295EF70F0E021A18F70A401D4
:104D300002C0440F551F8A95E2F7CA01922F982BA3
:104D400091A392A18095892382A3789400C0EAE977
:104D5000F1E030E020E0B12CA12C81918F3F09F4EB
:104D600084C0A82FA295AF70B0E090964C9150E00F
:104D70008F7002C0559547958A95E2F740FD75C042
:104D8000C401022E02C0880F991F0A94E2F7A82AD4
:104D9000B92A2F5F3F4F2F303105F9F6F7013197D0
:104DA00080818F3F11F00E94720D50EA5A95F1F701
:104DB000F601B182A082F2E0CF0ED11C6E147F0406
:104DC00009F0A8CF4AE050E0B8018FEC94E00E94CF
:104DD000F031FF24F394009709F4F12C892B09F4A6
:104DE00047C08AE0F801AFECB4E001900D928A95DB
:104DF000E1F781E08093F0020E9472149093EF0239
:104E00008093EE028091EE029091EF020E94631473
:104E1000039790F18091CF049091D0049093500526
:104E200080934F058091D1049091D20490935205C4
:104E3000809351058091D3049091D40490935405AC
:104E4000809353058091D5049091D6049093560594
:104E5000809355058091D7049091D804909358057C
:104E6000809357051092F00207C090E080E08FCF4A
:104E70008091F0028111C6CF80915C0490915D0415
:104E8000892B09F43EC04091510450915204609125
:104E90005304709154042FB7F89480913205909187
:104EA0003305A0913405B09135052FBF841B950BB8
:104EB000A60BB70B40914D0450914E0460914F04E6
:104EC0007091500484179507A607B707D0F080911A
:104ED0005C0490915D040E94031B10925D0410928B
:104EE0005C041092510410925204109253041092D8
:104EF000540410924D0410924E0410924F041092DC
:104F00005004809138018F3F09F054C08F2D2A96AC
:104F10000FB6F894DEBF0FBECDBFDF91CF911F91CA
:104F20000F91FF90EF90DF90CF90BF90AF909F9048
:104F30008F907F906F900895D29EF001D39EF00DD8
:104F40001124E45FFE4FA288B388A114B10419F4C0
:104F500098ECA92EB12CD29E8001D39E100D112465
:104F6000045F1E4FF80186818823C1F085859685F0
:104F70000E946314A816B90688F4ED9C5001112410
:104F8000F8018189811105C0C501845F9E4F0E948F
:104F90000315C5018E5E9E4F0E942415E3942E2DAD
:104FA00030E080913801082E000C990B821793078E
:104FB0001CF6ACCFE12C86E1D82EF1CFCDB7DEB711
:104FC000AE970FB6F894DEBF0FBECDBF84B7877F14
:104FD00084BF0FB6F894A895809160008861809393
:104FE0006000109260000FBE80E890E00FB6F89469
:104FF00080936100909361000FBE85B7806885BF84
:1050000085B7806885BF8FEB96E09093CD02809343
:10501000CC020E942D040E94F8048091E20084607A
:105020008093E200789480917E058823A1F010910E
:10503000E9001F709091EC00892F817090FD80E84D
:10504000182B1092E9008091E80083FD0E9426163B
:105050001F701093E90082E084BD93E095BD9AEF44
:1050600097BD80936E0005E911E0D8018D918D0107
:105070008F3F11F00E94720DB1E00A391B07A9F7AA
:105080000AE911E0F80181918F018F3F11F00E9430
:10509000720DF1E0093A1F07A9F71092D00410929F
:1050A000CF041092500510924F051092D204109226
:1050B000D10410925205109251051092D40410920E
:1050C000D30410925405109253051092D6041092F6
:1050D000D50410925605109255051092D8041092DE
:1050E000D704109258051092570590E080E00E9476
:1050F000B6318A3E9E4F11F00E94871182E090E007
:105100000E94AE31809344050E94960F9093CE0486
:105110008093CD040E9460268FEB9DE50197F1F707
:1051200000C000000E94602680914F0580FF17C0DC
:105130006FEF83E290E00E94CC316FEF84E290E069
:105140000E94CC316FEF85E290E00E94CC316FEF8E
:105150007FEF90E080E00E94EA310E94631183E0DB
:1051600090E00E94AE310E940D160E94AC12109287
:1051700009058FEF9FEF909323058093220590936D
:105180002505809324059093270580932605909309
:1051900029058093280590932B0580932A059093E9
:1051A0002D0580932C0590932F0580932E059093C9
:1051B0003105809330051092DC049093F6048093BF
:1051C000F5049093F8048093F7049093FA04809385
:1051D000F9049093FC048093FB049093FE04809365
:1051E000FD04909300058093FF0490930205809343
:1051F0000105909304058093030590E080E00E94F0
:10520000B6318A3E9E4F21F00E9487110E94B8104D
:1052100046E050E06CE170E080E995E00E949E314C
:10522000809190058C7F11F40E94B81083E290E089
:105230000E94AE31813209F0E2C684E290E00E9421
:10524000AE31883009F0DBC685E290E00E94AE31D5
:10525000863109F0D4C60E94CC0780FF03C083E5E5
:105260000E945C1A8BE391E09093DA048093D90456
:1052700028E1222E312CEE24E39480917E0590E4E7
:10528000F92E00E112E1853009F4D7C00E946026B2
:1052900081110E94C406EFE4F5E0A5E4B5E010E05A
:1052A00000E0602F819091902D913D912815390556
:1052B00009F444C228253925F12CAA24A394B12C41
:1052C000A9014A215B21452B09F432C2F9A26AA344
:1052D0008A209B2081E08114910409F480E08BA353
:1052E0000E9472148160782F9DA38CA349A15AA1BA
:1052F0006BA18DA10E94B025F801EE0FFF1FEB5BA3
:10530000FA4F80819181A826B926B182A08289288E
:1053100071F08FE0809FF001819FF00D1124E8541F
:10532000FE4FEF0DF11D80818F3F09F092C0F12CEF
:105330000F2D10E08091DC04800F912F911D0997B3
:105340006CF188E090E05C01A01AB10AB8016352E8
:105350007B4FA5018DED94E00E94FD31B8016B51AA
:105360007B4FA50185EE94E00E94FD31A501440F1D
:10537000551FB801660F771F6B507B4F85EF94E088
:105380000E94FD31B80163517B4FA5018DEE94E081
:105390000E94FD3188E08F198093DC048091DC0449
:1053A00090E0AD2DB0E09D01220F331F2D5F3D4FEA
:1053B000AA0FBB1FBD016C5F7D4F63C080917E054E
:1053C000843049F140E060E080E00E940709B1E0EC
:1053D000B09336051092DB040FB6F894A89520928E
:1053E00060000FBEF092600083B7817F846083BF4E
:1053F00083B7816083BF7894889583B78E7F83BF9E
:105400000FB6F894A8958091600088618093600041
:10541000109260000FBE80917D05882371F00E947C
:105420006026EFE4F5E081919191892B09F0D1C5D7
:1054300029E535E02E173F07B1F780917E058530CD
:1054400009F4BCCF0E9411160E94CC0710923605B9
:105450001DCFD82EFF24F3946BCF90E0FC01E452D3
:10546000FB4FD9015C915183DB015C915187D18A5B
:10547000880F991FFC01E452FB4F128E118E91E0B0
:10548000842F41E0480F9F1540F38093DC04809007
:10549000050590900605A0900705B09008058FB708
:1054A000F894409032055090330560903405709028
:1054B00035058FBFD301C20188199909AA09BB0913
:1054C0008BA79CA7ADA7BEA70E94C4066093050545
:1054D000709306058093070590930805A091DC045E
:1054E000ECEDF4E02A2F30E0BFEF8B0E9B1EA11CE9
:1054F000B11C84189508A608B708A31336C12093D9
:10550000DC0420913605F12C211109C02091900571
:10551000122F1370F12E19F0F22EF694F6942091BA
:105520004901213009F44CC1222309F433C122304E
:1055300009F4A9C3233009F4B3C386E0EDE3F5E031
:10554000DE01119601900D928A95E1F7F0903F05EA
:10555000C0904005109141050091420510923F0511
:105560001092400510924105109242058F2D8C2912
:1055700009F448C080913B0590913C050E9463145A
:105580009C0190913A05992309F460C523333105B4
:10559000C8F19F3F19F09F5F90933A05FF2059F0A3
:1055A0000E94F80C9FEF1F140CF491E0899F802D4E
:1055B000112480933F05CC2059F00E94F80C9FEFF6
:1055C0001C140CF491E0899F802D112480934005D8
:1055D00030913F053323B1F020914005222391F013
:1055E00045EB3403C0011124992309F486C3909339
:1055F0003F0545EB240390011124332309F480C3B4
:1056000030934005812F802B09F448C080913805E4
:10561000909139050E9463149C019091370599235C
:1056200009F40FC525363105C8F19F3F19F09F5F7A
:1056300090933705112359F00E94D60C9FEF111655
:105640000CF491E0899F802D112480934105002363
:1056500059F00E94D60C9FEF10160CF491E0899F30
:10566000802D112480934205309141053323B1F000
:1056700020914205222391F005EB3003C001112453
:10568000992309F440C39093410515EB2103900140
:105690001124332309F43AC33093420580913F0526
:1056A00090914005892B90914105892B909142055D
:1056B000892B11F00E946E1586E0FE013196ADE354
:1056C000B5E001900D928A95E1F70E94CC07909188
:1056D0004305891721F00E94CC07809343058091F0
:1056E0007E05843009F0C9CD83E08093E900809184
:1056F000E80082FFC2CD8091E80090E085FF06C0FF
:105700000E944C04882309F404C391E08091E800CE
:105710008B778093E800992309F4AFCDE981E150BC
:10572000E33108F08BC3F0E0E45DFD4C0C946F3185
:10573000F394AA0CBB1C4FE0F412C2CD0F5F1F4FB5
:105740000530110509F0ADCD8FEF8EA38FA318A6FC
:105750000E9472148160782F9AA789A74EA15FA139
:1057600068A58AA50E94B02592CE418D528D2A014E
:10577000712C612C84149504A604B70420F42150E4
:105780003F5F3296BACE0BA51CA5400F511F528F1A
:10579000418FF6CF1092460160938805709389057A
:1057A00080938A0590938B0589E2ECEDF4E0A9E003
:1057B000B5E001900D928A95E1F7E0924901BDCEE6
:1057C00080913A01F81224C0909190059370209135
:1057D000390130E081E09217130609F480E081700E
:1057E000809348018091950590914701981739F071
:1057F0008093470140E060E080E00E94070926E1D5
:105800002F1588F0EF2DF0E0E15CFD4C0C946F312A
:1058100081E0E5CF80914801882331F140E060E0EC
:1058200080E00E94070980E01FC000914601000F40
:10583000000FF4E0CF2EC00EBC2C33E43C1510F466
:10584000E3E4BE2E609191057091920580919305DD
:105850000E94480AA62E972E882E10E00B15A8F15C
:1058600081E042E44C15F8F2909146019F5F9093DD
:1058700046018111F8C182E080934901809148017D
:105880008111F1C1FF2009F407C20E94CC0781FFFA
:1058900007C02FEF4FEF6FEF8EE190E00E940909F4
:1058A000809196050E94540F823009F4E0C1833044
:1058B00009F4E3C1813009F040CE21E14CEC6AEA01
:1058C0008EE090E00E94090938CEF801E757FD4FBD
:1058D000808190914701892331F0282D4A2D692D2F
:1058E000C8010E9409090F5F1F4FB8CF0091460100
:1058F000000F000F74E0B72EB00EAB2C83E48B15B5
:1059000010F463E4A62E8090920590909305109178
:105910009105612F782D892D0E94480AC62E772E79
:10592000682E60919405610F782D892D0E94480A98
:10593000962E872E582E10E00A1530F081E092E462
:105940009B1508F091CF6FCFF801E757FD4F90817D
:1059500080914701892359F0252D492D682D90FD0F
:1059600003C0262D4C2D672DC8010E9409090F5F29
:105970001F4FE2CF00914601000F000F54E0C52EEB
:10598000C00EAC2CA3E4AC1510F443E4A42E90900C
:105990009205809093052091940530E4B32E1B2D41
:1059A000129F112D1124B12E10E00A1530F081E064
:1059B00022E42C1508F058CF36CFF801E757FD4FF9
:1059C0008081909147018923D9F0F801EE0FFF1FE4
:1059D000ED5FFD4F6081B69EB001112495E0759595
:1059E00067959A95E1F780919105680F792D882D3B
:1059F0000E94480A462F282F672FC8010E940909D4
:105A00000F5F1F4FD2CF00914601000F000FB4E08F
:105A1000CB2EC00EBC2C33E43C1510F4A3E4BA2EFC
:105A2000A090910510919205909093056091940536
:105A300066956695669580918805909189050E9486
:105A40003E0A0E94A409805887FD8195880F482F3F
:105A5000292D429F412D1124842F6A2D712F0E94E0
:105A6000480AA62E972E882E10E00B1530F081E004
:105A700032E43C1508F0F8CED6CEF801E757FD4FDA
:105A8000808190914701892331F0282D4A2D692D7D
:105A9000C8010E9409090F5F1F4FE7CF85E996E013
:105AA0000E94B10BE1CE85E899E00E94570BDCCE55
:105AB00089E699E00E94DC0AD7CE83E996E0F0CF30
:105AC0008AE896E0EDCF81E896E0EACF88E696E0B6
:105AD000E7CF8AE596E0EECF86E19AE0E6CF88E56B
