:100000000C94BF030C9406040C9406040C94060490
:100010000C9406040C9406040C9406040C94060438
:100020000C9406040C9406040C9468130C94D718D2
:100030000C94DA2F0C9406040C9406040C94060419
:100040000C9406040C9406040C9406040C94060408
:100050000C9406040C943F140C9406040C940604AF
:100060000C9406040C9406040C9406040C940604E8
:100070000C9406040C9406040C9406040C940604D8
:100080000C9406040C9406040C9406040C940604C8
:100090000C9406040C9406040C9406040C940604B8
:1000A0000C9406040C9406040C9406040501090241
:1000B000A10185020901A1000509190129081500FE
:1000C0002501950875018102050109300931158165
:1000D000257F95027508810609381581257F9501D0
:1000E00075088106050C0A38021581257F95017572
:1000F000088106C0C005010980A101850319012AF4
:10010000B700150126B700950175108100C0050CD8
:100110000901A101850419012AA002150126A002E6
:10012000950175108100C005010906A1018505052D
:100130000719E029E71500250195087501810205D9
:1001400007190029EF1500250195F07501810205B9
:10015000081901290595057501910295017503910D
:1001600001C00660FF0961A1010962150026FF00B8
:100170009520750881020963150026FF00952075FA
:10018000089102C005010906A101050719E029E748
:1001900015002501950875018102950175088101F9
:1001A0000507190029FF150026FF0095067508812F
:1001B000000508190129059505750191029501753C
:1001C000039101C0000101010101010101010202CD
:1001D00002020202020202030303030303030304F5
:1001E00004040404040405050505050606060606C0
:1001F000070707070708080808090909090A0A0A7A
:100200000B0B0B0C0C0C0D0D0D0E0E0E0F0F0F101B
:1002100010111111121213131414151516161717A5
:10022000181819191A1A1B1B1C1D1D1E1E1F202011
:10023000212222232424252626272829292A2B2C5B
:100240002D2D2E2F30313232333435363738393A7E
:100250003B3C3D3E3F404142434445464748494A76
:100260004C4D4E4F50515354555658595A5B5D5E44
:100270005F616264656668696B6C6D6F70727375DF
:1002800077787A7B7D7E8082838587888A8C8E8F43
:1002900091939596989A9C9EA0A2A3A5A7A9ABAD71
:1002A000AFB1B3B5B7BABCBEC0C2C4C6C9CBCDCF5F
:1002B000D1D4D6D8DBDDDFE2E4E7E9EBEEF0F3F50D
:1002C000F8FAFDFF009B8B7B00AB8A7A00AA9A7933
:1002D00000A9998900A8988800A7978700A6968604
:1002E00000A5958500A49484003C4C5C002C4D5DD9
:1002F000002D3D5E002E3E4E0030405000314151F9
:10030000002A3A4A00293949002838480027374747
:100310000026364600253556002445550034445401
:1003200000AC9C8C00AD9D8D00AE9E8E00AF9F8F6B
:1003300000B0A09000B1A19100324252002B3B4B83
:1003400001A9998901A8988801A7978701A696868F
:1003500001A5958501A49484013C4C5C012C4D5D64
:10036000012D3D5E012E3E4E012F3F4F013040508A
:100370000033435301AB8A7A0128384801273747B5
:1003800001263646012535560124455501AC9C8C85
:1003900001AD9D8D01AE9E8E01AF9F8F0131415108
:1003A000013242520133435300B2A281019B8B7B45
:1003B000012B3B4B012A3A4A0134445401B1A1912B
:1003C00001B2A28101A3938300A3938300B392821D
:1003D00029001E001F00200021002200230024000D
:1003E0002500260027002D002E002A004A002B00A1
:1003F00014001A000800150017001C0018000C005B
:10040000120013002F00300031004B000057040091
:100410001600070009000A000B000D000E000F0077
:1004200033003400000028004E00E1001D001B00D6
:1004300006001900050011001000360037003800D2
:100440000358000052004D00E000E300E20000000D
:1004500000002C000000000002580000E4005000E2
:10046000000051004F0035003A003B003C003D00C9
:100470003E003F0040004100420043004400450070
:100480004C00490001004A0052004D004B000100A1
:100490000100010001000100010001000100010054
:1004A00046001050500051004F004E000100010066
:1004B0000100010001000100010000000100010035
:1004C000010001000100B200010001000100290348
:1004D0000100010001000100000001000100010015
:1004E0000100010000000000010000000000010008
:1004F0000000656101000000010001000100010031
:10050000010001000100010001005F0060006100C6
:100510000100560057000100A60001000100520032
:1005200001000100010001005C005D005E000100AF
:1005300055005400010001001050500051004F00C0
:1005400001000100010059005A005B000100010098
:10055000000001000100010001000100B2000100E3
:10056000010001006200620063005300010000000E
:100570000100010001000100010000000000010075
:100580000000000001000000010001000000010067
:100590000100C25CCD5C01000100145CAA00A9004E
:1005A000AE00A80001000100010001000100C75CCD
:1005B0000100010001000100010001000100010033
:1005C00001000100010001000100005CC85C105046
:1005D0000100010001000100010001000100010013
:1005E0000100010001000000DE5CC55C01000100AB
:1005F00001000100010001000100010001000100F3
:10060000010001000000C35CC65C010001000100A4
:1006100000000000010000000000010000000100D7
:10062000CA5C0000C45CC95C00000000000000005F
:1006300000000000000000000000000000000000BA
:100640000000000000000000000000007E0F00D449
:10065000FFFFFFC70000007800000000000000005E
:100660002A2B28000000000000000000000000000D
:1006700000000029000000002C1E34202122243418
:100680002627252E362D3738271E1F2021222324EA
:1006900025263333362E37381F0405060708090A86
:1006A0000B0C0D0E0F101112131415161718191A22
:1006B0001B1C1D2F3130232D350405060708090AA0
:1006C0000B0C0D0E0F101112131415161718191A02
:1006D0001B1C1D2F3130354C09025B00030100A0AB
:1006E000FA090400000103010100092111010001C0
:1006F0002240000705810308000A090401000203E3
:1007000000000009211101000122220007058203D7
:100710002000010705030320000109040200010372
:1007200000000009211101000122B6000705840321
:1007300020000A1201000200000008424B251202AC
:10074000000102000120036B0062006400360037E4
:10075000006D006B00690069007200670062002094
:100760000076003200000010034B00420044006697
:100770000061006E007300000004030904001124EE
:100780001FBECFEFDAE0DEBFCDBF04B603FE27C049
:1007900080917D0590917E05A0917F05B0918005A7
:1007A0008730904BA740B04BD1F410927D0510924A
:1007B0007E0510927F051092800514BE84B7877F56
:1007C00084BF0FB6F894A8958091600088618093EB
:1007D0006000109260000FBEE0E0F8E3099512E0BF
:1007E000A0E0B1E0EAE0F4E602C005900D92A23B81
:1007F000B107D9F725E0A2EBB2E001C01D92AD37F9
:10080000B207E1F70E948D270C94B5310C940000DB
:1008100090917605937051F0811109C09460909386
:10082000760510922E0181E0809375050895873139
:1008300010F09865F4CF880F880F982BF0CF909127
:100840007605937049F0809377056093780540931F
:10085000790581E0809375050895E8EDF0E08081E9
:100860008E7F80831092E2001092DA001092E100F5
:10087000A0EEB0E08C9181608C9380818F77808333
:1008800019BCA7EDB0E08C918E7F8C9380818F7E18
:10089000808310923F0508952091E4003091E50097
:1008A00095E6A9012091EC00822F817020FF06C0FF
:1008B0008091E80080FF06C080E008952091E80064
:1008C00022FD1AC080916405882389F0853089F063
:1008D0008091EB0085FD0FC02091E4003091E50090
:1008E00042175307F9F29150E1F684E0089582E04F
:1008F000089583E0089581E00895EF92FF920F93A9
:100900001F93CF937C018B010E944C04C82F81114F
:1009100017C08091E80085FD0BC08091E8008E77BC
:100920008093E8000E944C04882399F3C82F08C0E4
:10093000F70181917F018093F1000150110949F77E
:100940008C2FCF911F910F91FF90EF900895809180
:10095000660587FF13C08091E80082FF06C0809182
:10096000E8008B778093E80004C0809164058111D2
:10097000F2CF0895809164058823D9F38091E8002F
:1009800080FFF8CF8091E8008E77ECCF982F90937E
:10099000E900242F762F50E0891731F07091EC0098
:1009A0002091ED005091F00021FD07C09F5F97302E
:1009B00071F78093E90081E008953091EB003E7F6C
:1009C0003093EB003091ED003D7F3093ED0030919E
:1009D000EB0031603093EB007093EC002093ED005E
:1009E0005093F0002091EE0027FDE0CF80E00895C5
:1009F000CF92DF92EF92FF920F931F93CF93DF93EB
:100A0000C8EDD0E088818F7E8883E7EDF0E08081BB
:100A10008160808384E082BF81E080933F0588818C
:100A20008E7F888302EE10E0F80110821092DA00C7
:100A300081EEC82ED12CF601108288818F778883B1
:100A400088818068888388818F7D888319BC109213
:100A5000640510926505109263051092620590EE90
:100A6000E92EF12CF70180818B7F80838881816062
:100A7000888342E060E080E00E94C604F601808145
:100A80008E7F8083F801808181608083808188608F
:100A90008083F70180818E7F808388818061888355
:100AA000DF91CF911F910F91FF90EF90DF90CF904A
:100AB0000895FC0180916C0590916D05861797074C
:100AC000A0F06115710529F49091E8009E7790934C
:100AD000E80090E06115710551F4911108C0809112
:100AE000E80082FF34C080E00895BC01F2CF80911D
:100AF00064058823C1F18530C1F18091E80083FD50
:100B000030C08091E80082FDEACF8091E80080FF4C
:100B1000E1CF8091F3002091F200382F611571052B
:100B200019F02830310558F091E02830310509F0EE
:100B300090E02091E8002E772093E800CBCF8191C0
:100B40008093F100615071092F5F3F4FE7CF809193
:100B50006405882341F0853041F08091E80083FFEF
:100B6000BECF81E0089582E0089583E00895E42FE8
:100B7000F0E0EE0FFF1FE851FE4F9081921B97FDB2
:100B80009195292F38E1239F212D1124620F08957B
:100B90000F931F9310E0F801EE0FFF1FE851FE4F77
:100BA0009081905797FD9195000F111FF801E75123
:100BB000FE4F00810052110B2003F001219FF00D28
:100BC000112408E310E0091B110997FD1395400358
:100BD0009001419F300D1124E20FF31F9F01220F5E
:100BE000331F2E0F3F1F37FF02C021583F4F220FE8
:100BF000232F221F330B620F1F910F9108950F9324
:100C00001F93522F10E0F801EE0FFF1FE751FE4F28
:100C1000A081A052BB0B9D015203F001539FF00D28
:100C20001124000F111FD801A851BE4F0C9100577D
:100C3000110B40039001419F300D11242E0F3F1FD7
:100C400037FF02C0215C3F4F96E0359527959A9576
:100C5000E1F7620F1F910F9108950F931F93522F89
:100C600010E0F801EE0FFF1FE751FE4FA081A052E8
:100C7000BB0B9D015203F001539FF00D1124000F97
:100C8000111FD801A851BE4F0C910057110B400302
:100C90009001419F300D11242E0F3F1F37FF02C0DE
:100CA00021583F4F220F232F221F330B620F1F911A
:100CB0000F910895EF920F93972F23E0029FB001B9
:100CC0001124759567956E0D792F0F91EF9008950A
:100CD000322F50E0FA01EE0FFF1FE751FE4F9081D7
:100CE000905297FD9195440F551FFA01E851FE4F20
:100CF0002081231B330B290F311D97FD3A95620F7D
:100D00000895E42FF0E0EE0FFF1FE751FE4F6081E2
:100D1000621B0895E42FF0E0EE0FFF1FE851FE4F35
:100D20006081621B0895622F0895E42FF0E0EE0FBA
:100D3000FF1FE851FE4F408134EE439F412D1124A7
:100D4000E82FF0E050E0445E5F4FDA01A21BB109EA
:100D50009D01B7FF03C031952195310993E0220F22
:100D6000331F9A95E1F7AF01421B530B9A0157FDD0
:100D700020E0582F259F212D1124822F089580E0F7
:100D800008958091410508952FB7F8946091180552
:100D90007091190580911A0590911B052FBF089538
:100DA00020912A012223C1F02091B30427FF14C00F
:100DB000E62FE695E695E695EE31F8F4E80FF92F83
:100DC000F11D677021E030E001C0220F6A95EAF75B
:100DD0008281822B82830895FC0132962FEF30E0CE
:100DE0004191641751F02F3F19F4411101C0232F95
:100DF0003F5F3630A9F72F3F09F40895820F911D08
:100E000027FD9A95FC01628308958091AE048823A2
:100E100031F01092AE041092AD041092AC0408951B
:100E200080959091AB0498239093AB040895909192
:100E30002A019923D1F09091B30497FF16C0E82FAF
:100E4000E695E695E695EE31E0F4F0E0EC54FD4FE2
:100E5000282F277081E090E001C0880F2A95EAF7DB
:100E600080959281892382830895E6EBF2E0919147
:100E7000891303C0DF0111971C9292E0EC3BF90744
:100E8000B1F708952FE0929F800D1124982F97704D
:100E900086958695869523E0829FF0011124EA5776
:100EA000FB4F50E040E080E0219130E0092E02C08D
:100EB000369527950A94E2F721703327042E01C056
:100EC000220F0A94EAF7822B4F5F5F4F43305105A0
:100ED00059F708952FE0929F800D1124982F977055
:100EE00041E001C0440F9A95EAF78695869586956C
:100EF00093E0899FF0011124EA57FB4F90E080E0D6
:100F000070E05191DF0111979B01082E02C03695C8
:100F100027950A94E2F72170219525272423252778
:100F20002C9301968330910561F708958091850493
:100F300090915404981301C008958F5F8770FACF81
:100F400020913D0430913E042817390771F09093A9
:100F50003E0480933D04E091BF04F091C0043097BB
:100F600021F00084F185E02D0994089520913B043F
:100F700030913C042817390771F090933C0480931A
:100F80003B04E091BF04F091C004309721F006804B
:100F9000F781E02D09940895E091BF04F091C00419
:100FA000309721F00190F081E02D099480E00895C0
:100FB000CF93DF93EC01409144045091450460913C
:100FC0004604709147042FB7F894809118059091CA
:100FD0001905A0911A05B0911B052FBF841B950B15
:100FE000A60BB70B843F9140A105B10518F5809180
:100FF000440490914504A0914604B0914704809325
:10100000370490933804A0933904B0933A0484EFE2
:1010100091E0A0E0B0E08093330490933404A09377
:101020003504B0933604D0934304C0934204DF9157
:10103000CF9108950E94C4066093370470933804DA
:101040008093390490933A0482E390E0A0E0B0E00A
:10105000E2CFFC018481862351F492819923B9F077
:101060006923808583FF05C081E061110FC080E0A6
:101070000895892F8F7092959F70982B862F8F706F
:1010800062956F70682B81E09613F1CF089581E02F
:10109000FDCFFA01811101C0FB0109948334910550
:1010A00070F5FC01EE0FFF1FEE0FFF1FDF01AC53C9
:1010B000BD4FCD010296FC0154910196FC01349183
:1010C000FD0185918370E491A82FB0E0F0E98F9F36
:1010D000C001112483519D4FE80FF92FF11DB497E2
:1010E0006083FC01E50FF11DB4974083830F911DD0
:1010F000FC01B4972083A551BD4F81E08C930895E6
:10110000FF920F931F93CF93DF93182F062FF42E88
:10111000D0E0C0E02F2D402F612FCE010E944E085D
:101120002196C334D105B1F7DF91CF911F910F9173
:10113000FF900895E6E7F5E0248130E1231B08F4F1
:1011400020E0248381E0809375050895E6E7F5E0CB
:10115000248130E1230F08F42FEF248381E0809372
:1011600075050895E6E7F5E0438120E1421B08F4A8
:1011700040E08181628190E00C941F04E6E7F5E095
:10118000438120E1420F08F44FEF8181628190E0BA
:101190000C941F04E6E7F5E0628120E1621B08F48D
:1011A00060E08181438190E00C941F04E6E7F5E064
:1011B000628120E1620F08F46FEF8181438190E04A
:1011C0000C941F04E6E7F5E0818143816281885039
:1011D000990B0C941F04E6E7F5E0818190E04381D0
:1011E000628108960C941F048091760586958695F9
:1011F000815009F486E10C94080480917605869567
:1012000086958F5F873108F081E00C9408040C9478
:1012100080080C944E0822E8241B08F420E0620F9A
:101220000895FC019B01009729F480E077FF2BC013
:1012300080E80895AC0197FF04C044275527481B58
:10124000590BB901640F751F37FD10C0241B350BF6
:10125000C901A5E0880F991FAA95E1F70E94EB301C
:1012600080E2861BF7FF0FC081950895CB0165E0F2
:10127000880F991F6A95E1F7BA01621B730B0E94F0
:10128000EB3080E6EECF0895EF920F93CF93DF938C
:10129000D72FC82FC9010E19BA010E941109602F5A
:1012A000681B7D2F8C2FDF91CF910F91EF900895C8
:1012B0000F93CF93DF93D72FC82FC901BA010E9494
:1012C0001109682F600F7D2F8C2FDF91CF910F9127
:1012D0000895EF920F931F93CF93DF93D62FC72FCD
:1012E000182FC9010E19010FBA010E941109081B1C
:1012F000202F219F212D1124822F6D2F7C2FDF91F4
:10130000CF911F910F91EF9008950F931F93CF935B
:10131000DF93D62FC72F182FC901212F201B022F93
:10132000BA010E941109982F990F990F891B800FFC
:10133000282F219F212D1124822F6D2F7C2FDF91AB
:10134000CF911F910F910895E82F86FDE0952E2FE4
:101350002F7086FD2F5FE695E695E695E670F0E046
:10136000EF5BFE4F9181929F902D212D112492953C
:101370009F702295207F922B2081920F87FD91955F
:1013800080E8890F08950F931F93CF93DF938B010C
:10139000D82FC42F822F0E94A409EC2FF0E0EE0F6B
:1013A000FF1FE851FE4F90819058890F87FD81956E
:1013B000880F682F2CE0629F612D1124600F712F20
:1013C0008D2FDF91CF911F910F910895AC01823045
:1013D000910508F408959FEF413E8EE1580740F4CF
:1013E0009A0195E0369527959A95E1F798E0920F46
:1013F00061E0E62FE90FFF27FF1F9F013595279535
:10140000822F229FF001239FF00DF00D11244E1723
:101410005F0738F49FEF920F961758F78FEF860FFC
:1014200008952F3FE9F361E0620FF6CF0F93CF935A
:10143000DF93D72FC82F47FD419588E390E0841BA9
:10144000910947FD9395889FB001899F700D700D9C
:101450001124229FC001239F900D900D1124860F0F
:10146000971F0E94E609982F990F890F682F600F28
:101470007D2F8C2FDF91CF910F91089530E020E0E8
:10148000869F212D969F200D311D1124C90108959D
:10149000AF92BF92CF92DF92FF920F931F93CF93A1
:1014A000DF93362F472FE82FF0E0EC53FE4F7111FA
:1014B0000FC0E4918E2F2E2F6E2F722FDF91CF91C0
:1014C0001F910F91FF90DF90CF90BF90AF90089544
:1014D000C72FD0E02491F22E022F10E056E0659F36
:1014E000C0011124EFEFF0E0BF010E94D730832F3D
:1014F00090E0880F991F35E5369FD001379FB00DDA
:1015000011248A1B9B0B982F990F980F6F01CC1AEF
:10151000DD0AC09ED001C19EB00DD09EB00D112439
:101520008B2F499FA0011124452F55276F01C41A05
:10153000D50AC09EA001C19E500DD09E500D112411
:101540005F01A91AB108AC9E6001AD9ED00CBC9E93
:10155000D00C1124CD2CDD24EC19FD09E09FE00115
:10156000E19FD00DF09FD00D1124ED2F6230710559
:10157000A1F050F46115710509F49ECF6130710539
:1015800081F0EB2F852F98CF6430710569F080F0E2
:101590006630710509F490CFF4CFE22F2B2F8D2FF9
:1015A0008BCFE22F252F88CFEB2F822F2D2F84CFAB
:1015B0002B2F8F2DE52F80CF7F928F929F92AF920E
:1015C000BF92CF92DF92EF92FF920F931F93CF9330
:1015D000DF935C01C0912B01CC0FCC0F14E01C0FEA
:1015E000F12E143410F033E4F32E60917A056695F1
:1015F00080916E0590916F050E943E0A782ED0E092
:10160000CF1590F081E0133408F080E0DF91CF91A6
:101610001F910F91FF90EF90DF90CF90BF90AF9010
:101620009F908F907F900895FE01E259FD4F808139
:1016300090912C018923C9F1CE01880F991F8356FF
:101640009E4FFC01E55BFF4F2081422F4057550B19
:101650006A01845B9F4FFC018081282F2052330B4D
:101660004901449F9001459F300D300D1124889C05
:10167000C001899C900D900D1124820F931F0E9430
:10168000E609082F609177057091780580917905BA
:10169000E72C9401A601F50109950E94480A462FFE
:1016A000282F672FCE010E9409092196A9CFCF923A
:1016B000DF92EF92FF920F931F93CF93DF937C0102
:1016C000C0912B01CC0FCC0F14E01C0FD12E143481
:1016D00010F033E4D32E60917A05669580916E0503
:1016E00090916F050E943E0AC82ED0E0CD1568F09B
:1016F00081E0133408F080E0DF91CF911F910F91CA
:10170000FF90EF90DF90CF900895FE01E259FD4FDA
:10171000808190912C01892311F1CE01880F991FAE
:1017200083569E4FFC01E45BFF4F20812052330B18
:10173000855B9F4FFC0140814057550B60917705B9
:1017400070917805809179050C2DF70109950E941B
:10175000480A462F282F672FCE010E94090921969B
:10176000C5CFDF92EF92FF920F931F93CF93DF933A
:101770007C01C0912B01CC0FCC0F14E01C0F012F6A
:10178000143408F003E460917A056695669521E0CB
:10179000620F08F46FEF80916E0590916F050E94C3
:1017A0003E0AD82ED0E0C01760F081E0133408F074
:1017B00080E0DF91CF911F910F91FF90EF90DF902C
:1017C0000895FE01E259FD4F808190912C018923FB
:1017D00091F06091770570917805809179052D2DB4
:1017E0004C2FF70109950E94480A462F282F672F92
:1017F000CE010E9409092196D6CF9F92AF92BF9247
:10180000CF92DF92EF92FF920F931F93CF93DF93CC
:101810006C01C0912B01CC0FCC0F14E01C0FB12E2A
:10182000143410F033E4B32E60917A056695669512
:1018300080916E0590916F050E943E0AF82E80E41B
:101840008F0D0E94A40990E8A92EA80E8F2D0E944A
:10185000A40920E8922E980ED0E0CB1580F081E00C
:10186000133408F080E0DF91CF911F910F91FF902A
:10187000EF90DF90CF90BF90AF909F900895FE01C2
:10188000E259FD4F808190912C018923A1F0609154
:1018900077057091780580917905EF2C0C2F292D13
:1018A0004A2DF60109950E94480A462F282F672FD6
:1018B000CE010E9409092196D0CF40912505803F95
:1018C00059F48091260587FF0DC01092260541111D
:1018D0000BC01092200508C0813F81F4809126053D
:1018E00018169CF3442381F08091270590912805D8
:1018F000892B09F05AC010921D050895823F49F4C2
:1019000047FFF0CF10922505809126058111ECCF7D
:10191000E0CF833F19F41416ACF3E4CF9091270580
:10192000893F29F41916F4F610922705DBCF8A3F78
:1019300019F497FFD7CFF8CF909128058B3F29F462
:1019400097FFD0CF10922805CDCF8C3F19F41916F0
:10195000CCF3C8CF9CE0980F953090F4845F990B3E
:1019600021E030E0B90102C0660F771F8A95E2F7E7
:10197000CB01809590912405892380932405B2CFD3
:101980008D3F31F480914D048E7F80934D04AACF1A
:101990008E3F21F480914D048D7FF7CF8F3F09F06A
:1019A000A1CF80914D048B7FF0CF089580914D049D
:1019B00080FD16C081FD16C082FD16C080911D05F8
:1019C0008823A1F0883280F428E0829FC00111248E
:1019D00068E270E00E94EB30862F672B39F00895A3
:1019E00082E0089584E0089588E0089581E00895F4
:1019F00080914D0480FD14C081FD14C082FD16C08D
:101A000080912005882381F0843180F422E3829F35
:101A1000C001112464E170E00E94EB30862F08952C
:101A20008CE0089589E1089585E0089582E30895A2
:101A3000803F31F40E94F80C81958093260508952B
:101A4000813F19F40E94F80CF8CF823F31F40E94D4
:101A5000F80C8195809325050895833F19F40E9421
:101A6000F80CF8CF893F29F40E94D60C8093270503
:101A700008958A3F21F40E94D60C8195F7CF8B3FC1
:101A800031F40E94D60C81958093280508958C3FEF
:101A900019F40E94D60CF8CF9CE0980F953070F4A2
:101AA000845F990B21E030E001C0220F8A95EAF7AC
:101AB00080912405822B8093240508958D3F31F475
:101AC00080914D04816080934D0408958E3F21F4F0
:101AD00080914D048260F7CF8F3FB9F780914D041C
:101AE0008460F1CFF894E82FE295EF70F0E031A137
:101AF000282F2F7081E090E001C0880F2A95EAF727
:101B0000982F9095932391A392A1892B82A37894E7
:101B100008959091B30492FF06C0282F28712830B1
:101B2000F9F4877F846093FF06C0282F287128313D
:101B3000F1F4877E84612091B40420FF06C0382F21
:101B400038713830D9F4877F816021FF06C0282F93
:101B500028712831D1F4877E816194FD877E0895B4
:101B6000282F24712430F9F68B7F8860DCCF282F52
:101B70002471243101F78B7E8861DDCF382F3171DC
:101B8000313019F78E7F8860E0CF282F2171213105
:101B900021F78E7E8861E1CFCF93DF93EC0182380D
:101BA0009105A9F1D8F58133910509F496C048F55E
:101BB0008932910509F48AC08A9709F495C0C11544
:101BC00021E5D20708F0BCC0C11530E5D30708F005
:101BD00014C1C83ED10508F09CC0C03ED10560F5D7
:101BE000C83AD10508F087C0C53AD10508F0FDC054
:101BF000C130D10509F12097F9F0C430D105E0F4E6
:101C000040C08533910509F45AC0C997C1F6809147
:101C1000B304837089F0C0EED0E00EC0833E91051E
:101C200099F170F4803E910501F1823E910539F6FB
:101C30008091B30482FD21C0CE01DF91CF91089540
:101C4000863E910561F1873E910571F1843E9105D3
:101C500009F0B5CF8091B40481FFEECF8091B30439
:101C6000C7EED0E084FD0DC0E7CF8091B30480FDC6
:101C700012C19091B40490FFDFCFC3EED0E084FF97
:101C8000DBCFD0E0C0E0D8CF8091B30482FD06C1A5
:101C90009091B40490FDBFCF84FFCECFF2CF80915E
:101CA000B30483FDDDCFC8CF8091B30483FDF9C0B9
:101CB0009091B40491FFF0CFC4EED0E0BDCF8091FD
:101CC000B30485FFB9CFC9E2D0E0B6CF8091B304A9
:101CD00085FFB2CFC5E3D0E0AFCF8091B30486FFDC
:101CE000ABCFCAE2D0E0A8CF8091B30486FFA4CFE7
:101CF000C1E3D0E0A1CFCF3BD10518F6C85AD0E060
:101D0000CC0FDD1FC45BDE4F0990D881C02DD46499
:101D100093CFC11540E2D40758F4C11581E0D8072C
:101D200008F08ACFC03FD10508F4ABCFD06584CF8F
:101D3000C11590E4D90708F4A4CFDF70D06A7CCF36
:101D4000C11525E5D20700F5C11534E5D30708F024
:101D50008AC0C11543E5D40708F071C0C11582E5FA
:101D6000D80708F467C0CE018370992721E030E0DE
:101D700002C0220F331F8A95E2F7C695C69580E20E
:101D8000C89FE001112452C0C11599E5D907A8F4F4
:101D9000C11528E5D20708F06BC0C11536E5D30799
:101DA00008F06FCF8C2F0E94890DC82FD0E0DC2F58
:101DB000CC27CC27DF71D0623FCFC1154AE5D407CD
:101DC00008F45BC0CE0190568115904208F059CFBF
:101DD0008D2F8F710E94890D90E0982F882788277A
:101DE0009F719C012C2BE901E6CFC55AD0E0C75B5F
:101DF000DE4FC881D0E0D0641FCFCE01E4E09695DD
:101E00008795EA95E1F783702C2F26952695237008
:101E100040E2249F90011124382B8C2F8370C1E065
:101E2000D0E002C0CC0FDD1F8A95E2F7C22BD32B86
:101E3000DC6802CFDC2FCC27C16FD06AFDCECE018B
:101E40008370992721E030E002C0220F331F8A956A
:101E5000E2F7C695C69590E2C99FE0011124C22B16
:101E6000D32BDA68E9CEDC2FCC27C46FD06AE4CE5E
:101E7000DC2FCC27C06FD06ADFCE8C2F8F700E94F2
:101E8000890D34E0D695C7953A95E1F7CF709C2F30
:101E9000EC01D069D1CEC9E3D0E0CECEC2EED0E025
:101EA000CBCEC6EED0E0C8CE982F92959F7011F0A1
:101EB000892F94E0282F2695269511F09E5F822F7A
:101EC000869509F09F5F892F08959C013A95211509
:101ED0003F4150F5FC01EE27F170BC01662772709E
:101EE000AC01442754709C012227387094FF0EC027
:101EF00080E1EF2B09F480E0672B09F08062452B2D
:101F000009F08064232B89F08068089581E0EF2B2D
:101F100009F480E0672B09F08260452B09F08460AA
:101F2000232B19F08860089580E00895CF9384E012
:101F300090E00E945D31C82F82E290E00E945D3106
:101F4000982F8C2FCF9108950F931F93CF93DF93EA
:101F5000C42FD0E0CC0FDD1F2EE1629FC00DD11D3C
:101F6000112436E9839FC00DD11D1124CE0187961F
:101F70000E945D31082F10E0102F0027CE018896B7
:101F80000E945D319801282BC901DF91CF911F91EB
:101F90000F910895462F843038F4753028F46F304F
:101FA00018F4672F0C94A40F90E080E00895CF926E
:101FB000DF92FF920F931F93CF93DF936C010091F9
:101FC0007C058091AF04082BC7E0D0E010E0FC2E28
:101FD000C8010C2E02C0959587950A94E2F780FD02
:101FE0000CC02197A0F7F12C8F2DDF91CF911F917D
:101FF0000F91FF90DF90CF900895B6018C2F0E9433
:10200000CA0F0E94CC0D019761F3EECFCF93DF93FF
:10201000EC010E94D70FBE010E94CA0FDF91CF9141
:102020000C94CC0DFC01808191810E940610292F17
:102030002F7092959F7092509E3078F4E92FF0E0C7
:10204000E954FE4C0C941E31803F19F020F4883E78
:1020500020F481E00895843FE1F380E00895883E14
:10206000C0F3813FD1F7F5CF822F8695869586956F
:1020700008956F927F928F929F92AF92BF92CF926C
:10208000DF92EF92FF920F931F93CF93DF9380ED38
:10209000C82E83E0D82E9BEDE92EF12CE701C6591E
:1020A000D10936011BC0F50185909490692DC801B6
:1020B0000E947B31682DC80101960E947B3182E02D
:1020C000A80EB11C0E5F1F4FC017D10761F78EE13C
:1020D000680E711C6E96CE15DF0529F08E010E512B
:1020E00011095301E0CF7E0186E9E80EF11C86E973
:1020F000C80ED11C83E3E81683E0F80679F6DF9179
:10210000CF911F910F91FF90EF90DF90CF90BF90F4
:10211000AF909F908F907F906F900895CF93C091D4
:10212000B404C2FB992790F9981781F080FBC2F99B
:10213000C093B4046091B30484E090E00E947B31CA
:102140006C2F82E290E0CF910C947B31CF91089577
:10215000CF93DF93CFE7D2E060E0CE010E947B31E6
:102160002196C11584E0D807B9F7DF91CF91089582
:10217000E6E7F5E081E2808380912F0190913001C4
:10218000A091310181839283A3838FE784838FEFB2
:10219000858346E050E06CE170E0CF010C946B3138
:1021A00090916405943029F58093B0047093B20443
:1021B0006093B1049093E9008FEF9091E800815013
:1021C00095FD06C095ED9A95F1F700008111F5CFC8
:1021D0008091E80085FF0DC050E040E063E070E0D2
:1021E00080EB94E00E947D048091E8008E778093DC
:1021F000E8000895BC0184E00C94D010BC0183E099
:102200000C94D0109C0184E08093E9009FEF8091B2
:10221000E800915085FD06C085ED8A95F1F7000034
:102220009111F5CF8091E80085FF0CC050E040E0AF
:1022300066E070E0C9010E947D048091E8008E771D
:102240008093E8000895CF93DF93EC0180912A01F9
:102250008823B1F18091B30487FF32C060E284E04B
:102260008093E9008FEF9091E800815095FD06C0C2
:1022700095ED9A95F1F700008111F5CF8091E80076
:1022800085FF1BC080912A0170E050E040E0811181
:1022900004C050E040E068E070E0CE010E947D04A0
:1022A0008091E8008E778093E80080E2FE01A2E44E
:1022B000B5E001900D928A95E1F7DF91CF910895F5
:1022C00068E081E0CDCF81E08093E00080E2809300
:1022D000D8001092C9008FE19EE40197F1F700C089
:1022E000000087E090EBDC0180937D0590937E05F4
:1022F000A0937F05B093800588E19CE00FB6F89429
:10230000A895809360000FBE90936000FFCF6AEEA7
:102310007EEF90E080E00E94993160E082E090E002
:102320000E947B3160E083E090E00E947B3110925C
:10233000AF0460E084E090E00E947B3160E082E2E4
:1023400090E00E947B3160E085E090E00E947B316C
:1023500060E086E090E00E947B316FEF87E090E0E4
:102360000E947B3140E050E0BA0188E090E00E949A
:102370008D3160E08DE090E00E947B3140E050E0E4
:10238000BA0188E190E00E948D3160E087E190E041
:102390000E947B3140E050E0BA018CE190E00E9465
:1023A0008D3170E060E080E290E00E94993140E081
:1023B00050E0BA0188E190E00E948D3140E050E0A9
:1023C000BA018FE090E00E948D3140E050E0BA0108
:1023D00083E190E00C948D310F931F93CF93DF93A3
:1023E000082F000FEB0114E21093D702E8EDF2E0A2
:1023F000DE018D91819382E0E83EF807D1F724E673
:1024000030E041E150E067ED72E0802F0E94B03093
:10241000105F6096143B41F7DF91CF911F910F91B0
:1024200008958091EB02882329F06DEE72E084E735
:102430000E94EC111092EB028091EC02882329F0AB
:102440006DE773E087E70E94EC111092EC020895AB
:10245000E7EDF2E06083418324E630E042E050E0C3
:10246000BF01880F0C94B030EF92FF920F931F932F
:10247000CF93DF93E82E062F10E00F5C1B4FF8017F
:102480008081882381F0F2E16F9FE0011124C35F16
:10249000DB4FF12C49916F2D8E2D0E942812F39461
:1024A00082E1F812F7CFF8011082DF91CF911F91EE
:1024B0000F91FF90EF900895CF93DF93C82F4BE0DB
:1024C0006DEF0E94281240E06AE08C2F0E942812D3
:1024D0008FE39CE90197F1F700C0000040E060E065
:1024E0008C2F0E94281240E061E08C2F0E9428125D
:1024F00040E066E08C2F0E94281240E06DEF8C2FA8
:102500000E942812D0E040E06D2F8C2F0E942812EC
:10251000DF5FD231C1F740E06D2F8C2F0E9428126F
:10252000DF5FD432C1F740E06D2F8C2F0E9428125C
:10253000DF5FD43BC1F74BE06DEF8C2F0E94281278
:1025400041E06AE08C2F0E94281240E06DEF8C2F52
:10255000DF91CF910C9428126F927F928F929F926D
:10256000AF92BF92CF92DF92EF92FF920F931F93A1
:10257000CF93DF930E94013084E70E945C1287E7CB
:102580000E945C1264ECE62E62E0F62ED12CC12C87
:1025900072E1772EE8E08E2E912CAA24A394B12C20
:1025A00066246394F7013196449150E0CA01849700
:1025B000319604910452110B3196C491C452DD0B33
:1025C000F601EE0FFF1FEE0FFF1FEC53FD4F24919E
:1025D000237030E0FC0197FD379643E0F595E795D1
:1025E0004A95E1F7729EA001739E500D1124435F3E
:1025F0005B4FE40FF52FF11DB4010E94EB30A501F4
:1026000001C0440F8A95EAF78081842B8083F8010A
:1026100017FD379693E0F595E7959A95E1F7729E49
:10262000C001739E900D1124835F9B4FE80FF92F1B
:10263000F11DC801B4010E94EB30A50101C0440F97
:102640008A95EAF78081842B8083FE01D7FD379637
:1026500083E0F595E7958A95E1F7729EC001739E38
:10266000900D1124835F9B4FE80FF92FF11DCE01D0
:10267000B4010E94EB30A50101C0440F8A95EAF72E
:102680008081842B80832F5C3B4FF9016082FFEFB8
:10269000CF1ADF0A84E0E80EF11CE3E4CE16D10481
:1026A00009F080CF60E084E70E94341261E087E7A0
:1026B000DF91CF911F910F91FF90EF90DF90CF901E
:1026C000BF90AF909F908F907F906F900C9434123A
:1026D0001F920F920FB60F9211242F933F934F9397
:1026E0005F936F937F938F939F93AF93BF93EF937A
:1026F000FF938091E10082FF09C08091E20082FF98
:1027000005C08091E1008B7F8093E1008091DA0029
:1027100080FF24C08091D80080FF20C08091DA0023
:102720008E7F8093DA008091D90080FF9BC080E18A
:1027300089BD82E189BD09B400FEFDCF81E08093AF
:10274000640580913F05811109C00E942D040E94FB
:10275000F8048091E20084608093E2008091E100BF
:1027600080FF17C08091E20080FF13C08091E200DB
:102770008E7F8093E2008091E20080618093E2008E
:102780008091D80080628093D80019BC85E0809346
:1027900064058091E10084FF29C08091E20084FFFC
:1027A00025C080E189BD82E189BD89B5982F9170EE
:1027B00080FFFBCF8091D8008F7D8093D8008091DF
:1027C000E1008F7E8093E1008091E2008F7E809314
:1027D000E2008091E20081608093E20080916505D3
:1027E000882309F445C084E0809364058091E1006A
:1027F00083FF27C08091E20083FF23C08091E10026
:10280000877F8093E10082E08093640510926505E4
:102810008091E1008E7F8093E1008091E2008E7FC5
:102820008093E2008091E20080618093E20042E0C8
:1028300060E080E00E94C6048091F0008860809390
:10284000F000FF91EF91BF91AF919F918F917F9198
:102850006F915F914F913F912F910F900FBE0F900D
:102860001F90189519BC1092640510923F0576CF01
:102870008091E30087FD93E090936405B7CF78944F
:102880001F921FB61F9211248F939F93AF93BF93F4
:102890008091180590911905A0911A05B0911B051A
:1028A0000196A11DB11D8093180590931905A09361
:1028B0001A05B0931B05BF91AF919F918F911F9007
:1028C0001FBE1F9018959C014FB7F8948091180572
:1028D00090911905A0911A05B0911B054FBF821B5D
:1028E000930B08952FB7F8948091180590911905CE
:1028F000A0911A05B0911B052FBF08958091AB04DC
:102900009091AA04892B9091A904892B8093B402F9
:102910008091AE04882329F10E9472142091AC04A6
:102920003091AD04821B930B8838934110F00E94C4
:1029300005078091B4029091AE04892B8093B40274
:1029400080912A01882389F18091B30487FF2DC0EB
:102950008EE1E6EBF2E090E0815048F591110E94A3
:1029600005078091A80480959091B40289239091E5
:10297000A704892B8093B402E091BF04F091C004B6
:102980003097D1F090912A01992349F09091B304A6
:1029900097FF05C08093B50285E08093B402028062
:1029A000F381E02D84EB92E0099486E0D2CF21916F
:1029B000222391F29F5FD0CF0895882339F0909120
:1029C000AA04982B9093AA040C947E14089588234B
:1029D00021F00E9410070C947E140895882339F08A
:1029E0009091AB04982B9093AB040C947E140895B3
:1029F000CF93DF93EC0181E0898B8091AB049F81C1
:102A0000892B8093AB048091AA049885892B8093AD
:102A1000AA040E947E14EA81FB81309739F06C8908
:102A20007D89CE010696DF91CF910994DF91CF91F8
:102A30000895EF92FF920F931F93CF93DF93EC01D2
:102A40008A85811139C0EB80FC8087E5F81A26E180
:102A50002E9DC0012F9D900D1124DC01A95FBE4F5A
:102A60001496ED91FC911597309731F054966D9135
:102A70007C91835F9E4F099586E18E9D80018F9D9D
:102A8000100D1124095F1E4FF80187810E94100765
:102A9000F8018085982F90958091AA0489238093CE
:102AA000AA040E947E14188219861B861E821D822B
:102AB00010924B0410924A04DF91CF911F910F9115
:102AC000FF90EF9008950E9472149C01909125054B
:102AD00080912605982B21F0309322052093210523
:102AE0009091270580912805982B21F030931F05A0
:102AF00020931E05E091BF04F091C004309749F087
:102B000082E0809323050480F581E02D83E295E047
:102B10000994089590E080E00E94B60790E080E07C
:102B20000E94A0071092AA041092A9040E947E1489
:102B300086E0E3E2F5E0DF011D928A95E9F7109265
:102B4000200510921D0510924D040C94631580937E
:102B50007C050C948A1580917C05982F9670963090
:102B600019F488600C94A715877FFCCF21E030E032
:102B700001C0220F8A95EAF7209580917C05822377
:102B80000C94A7159091A604809589238093A604A0
:102B9000282F277039F4282F082E000C330B92179A
:102BA000130621F49091B40492FF0BC0859585958E
:102BB00085950E94B6151092A6041092A504109255
:102BC000A404089580910501833019F481E00E94E6
:102BD000B61510920501089521E030E001C0220FE2
:102BE0008A95EAF780917C05822B0C94A715809337
:102BF000AF040C948A151092AB0480912A01E6EB85
:102C0000F2E0882359F08091B30487FF07C08EE17A
:102C1000DF011D928A95E9F70C948A1586E0F8CFBA
:102C20001F93CF93DF93CDB7DEB7AA970FB6F89473
:102C3000DEBF0FBECDBF86E695E02091F100DC013E
:102C40002D93CD01B5E08E369B07B9F780916705CE
:102C5000833009F471C0B8F4813009F448C082307F
:102C600009F4B2C08091E80083FF3AC18091660503
:102C7000909167059A3008F033C1E92FF0E0EB53EB
:102C8000FE4C0C941E318A3009F48DC08B3009F44F
:102C900070C0893039F780916605813219F78091CB
:102CA0006A0590916B05009711F00297D9F6809113
:102CB000E800877F8093E8008091E80082FF37C0BA
:102CC0009091F3008091F200029729F48091F10035
:102CD0008B7F813021F48091F100809341058091B8
:102CE000E8008B778093E8000E94A704BBCF809117
:102CF0006605813A09F0B6CF8091E800877F80931E
:102D0000E80080916A0590916B05892B61F460E27F
:102D100082E495E070E00E9459058091E8008B778D
:102D20008093E8009FCF60E090E080E0F3CF809157
:102D300064058111C1CF96CF80916605813A09F073
:102D400091CF80916A0590916B05892B09F08ACF0C
:102D50008091E800877F8093E8008091E80080FF01
:102D6000FCCF80912A018093F1008091E8008E775A
:102D7000B9CF80916605813209F074CF80916A05E0
:102D800090916B05892B09F06DCF8091E800877FCA
:102D90008093E8000E94A7048091680580932A012F
:102DA0000E94FB155FCF80916605813209F05ACFF2
:102DB0008091E800877F8093E8000E94A7048091BB
:102DC0006905809340054ECF80916605813A09F0F0
:102DD00049CF8091E800877F8093E8008091E800E8
:102DE00080FFFCCF80914005BECF803899F08238BB
:102DF00009F076C080916A058F70873008F070C046
:102E00008093E9008091EB0085FB882780F9109280
:102E1000E90006C08091620590916305911182607E
:102E20009091E800977F9093E8008093F1001092D2
:102E3000F1008091E8008E77B5C1882309F4A2C122
:102E4000823009F04DC0809168058111A6C1809142
:102E50006A058F702FEF280F263008F041C080934D
:102E6000E9002091EB0020FF98C1933031F480916C
:102E7000EB0080628093EB0090C19091EB00906139
:102E80009093EB0021E030E001C0220F8A95EAF731
:102E90002093EA001092EA008091EB008860EACF6C
:102EA00081111EC0109168051F778091E300807822
:102EB000812B8093E3008091E800877F8093E80076
:102EC0000E94A7048091E80080FFFCCF8091E3007E
:102ED00080688093E30082E0111183E080936405B1
:102EE0008091E80083FF0AC08091E800877F80938B
:102EF000E8008091EB0080628093EB00AA960FB609
:102F0000F894DEBF0FBECDBFDF91CF911F91089522
:102F10008058823028F720916805309169052C3D52
:102F2000E3E03E07A1F583E08A838AE289834FB715
:102F3000F894DE01139620E03EE051E2E32FF0E04A
:102F400050935700E49120FF03C0E295EF703F5F7C
:102F5000EF708E2F90E0EA30C0F0C7968D939D936E
:102F60002F5F243159F74FBF8091E800877F80930E
:102F7000E8006AE270E0CE0101960E945905809156
:102F8000E8008B778093E800ABCFC096E7CF8091C5
:102F90006A0590916B05432F55274330510509F47D
:102FA0004AC078F54130510509F47AC08BE590E0CC
:102FB000E8EDF6E04230510509F092CF2091E800AB
:102FC000277F2093E80020916C0530916D058217D2
:102FD000930708F49C0140E02115310509F065C014
:102FE000411163C08091E80082FDC9CF80916405E2
:102FF000882329F2853019F28091E80083FFF2CF0F
:10300000BECF4132510509F43CC04232510509F0AE
:1030100067CF8330910508F063CFFC01EE0FFF1FEF
:10302000EF56FE4F0190F081E02D82579E4FDC015C
:103030008C9190E01AC0332721303105D1F0211551
:10304000310561F02230310509F04ACFE5E4F7E0BF
:10305000E4918E2F90E0E5E4F7E007C0E9E7F7E0C0
:10306000E4918E2F90E0E9E7F7E0009709F438CF7C
:10307000A5CFE7E6F7E0E4918E2F90E0E7E6F7E0F2
:10308000F4CF8330910508F02BCF880F991FFC01F6
:10309000E956FE4F0190F081E02D89E090E08ECF5F
:1030A00082E190E0E3E3F7E089CF80916405882333
:1030B00009F465CF853009F462CF8091E80083FD83
:1030C0005ECF8091E80082FD8DCF8091E80080FF87
:1030D00083CF9091F3008091F2002115310519F012
:1030E0008830910550F041E0089709F040E0809168
:1030F000E8008E778093E8006FCF44914093F10011
:103100003196215031090196E8CF803809F0E8CE98
:103110008091E800877F8093E80080916505809327
:10312000F10087CE8111DCCE10916805123008F0D5
:10313000D7CE8091E800877F8093E80010936505E3
:103140000E94A704112311F084E005C08091E300E0
:1031500087FDFACF81E08093640542E061EC81E075
:103160000E94C60442E261EC84E00E94C60442E28E
:1031700061EC82E00E94C60442E260EC83E00E94BF
:10318000C604AECE80916805813009F0A9CE81E0F9
:10319000933009F080E0809363051092E9008091FC
:1031A000E800877F8093E8000E94A70499CE1F92D1
:1031B0000F920FB60F9211242F933F934F935F936B
:1031C0006F937F938F939F93AF93BF93CF93DF932F
:1031D000EF93FF93D091E900DF708091EC00C82F4E
:1031E000C17080FDC0E81092E9008091F000877FF7
:1031F0008093F00078940E9410161092E90080915C
:10320000F00088608093F000CD2BCF70C093E90070
:10321000FF91EF91DF91CF91BF91AF919F918F91EE
:103220007F916F915F914F913F912F910F900FBEC2
:103230000F901F901895882361F19CEF980F913A99
:1032400020F40E9417070C947E1490E2980F983097
:1032500050F4877091E001C0990F8A95EAF7892FA1
:103260000E941007F0CF9BE5980F933020F490E078
:1032700080E00C94B60798E5980F973120F490E021
:1032800080E00C94A007803F20F00E945D0C0C941D
:1032900063150895FF920F931F93CF93DF93F82E3A
:1032A00000914004109141040115110509F449C031
:1032B00010924304109242041092A8041092A704A2
:1032C000D8011696CD91DC919E013A9521153F418A
:1032D00008F4D07ED1E0C11101C0D0E0D801199628
:1032E000ED91FC911A97309731F01B966D917C917E
:1032F00080E00995D823DD2339F08CEF8C0F813ADB
:1033000038F58C2F0E941707FF2099F0E0914004B8
:10331000F0914104808584FD0CC080913F04882396
:1033200041F0808191819C012150310920363D4539
:10333000A8F00E947E141092410410924004109252
:103340003F04C801DF91CF911F910F91FF90089525
:103350000E947E148C2F0E941B19D6CF0E94D80782
:10336000E8CFCF93C82F882309F46CC08CEF8C0F63
:10337000813AA8F580912A01882301F18091B30454
:1033800087FF1CC0EC2FE695E695E695F0E0EC543F
:10339000FD4F828190E04C2F477021E030E002C069
:1033A000220F331F4A95E2F782239323892B79F06A
:1033B0008C2F0E9417070E947E1409C0E6EBF2E0F2
:1033C0008191C817A9F382E0EC3BF807C9F76C2F8D
:1033D00084EB92E00E94D006CF910C947E1480E2A0
:1033E0008C0F883068F4C77021E030E001C0220FF4
:1033F000CA95EAF78091AB04822B8093AB04ECCFA3
:10340000EBE5EC0FE33040F4F0E0E75BFE4F80814A
:1034100090E0CF910C94B607E8E5EC0FE73150F45B
:10342000F0E0EE0FFF1FE45BFE4F80819181CF91B2
:103430000C94A007C03F30F08C2F0E94180DCF9144
:103440000C946315CF9108951F93CF93DF93182F9A
:10345000D0E0C0E0893311F4C0E5D0E0812F0E94B4
:10346000B119209731F4812FDF91CF911F910C94E6
:103470001B198FE99FE00197F1F700C00000219729
:10348000F0CF0F931F93CF93DF93C62FD42F022F2C
:10349000FC0182818823A1F0609374050E9472145C
:1034A0009093730580937205C77081E001C0880F07
:1034B000CA95EAF7DF91CF911F910F910C94EE140A
:1034C00080917405681335C08091720590917305E1
:1034D0000E946314883C910560F510E21D0FCD1722
:1034E000B9F080E28C0F883040F4C77081E001C0F1
:1034F000880FCA95EAF70E94E714183048F481E073
:103500009D2F977001C0880F9A95EAF70E94EE14DC
:10351000802F0E94241A183098F4D77081E001C0DF
:10352000880FDA95EAF7DF91CF911F910F910C94F4
:10353000E714C77081E001C0880FCA95EAF7F3CF9E
:10354000DF91CF911F910F910895FC0190819130EF
:1035500049F48285811116C082E08093050189E3D8
:103560000C94241A923021F081E080930501089593
:1035700084E08093050180917C05811107C081E082
:103580000C94EC1583E080930501F9CF81FFF7CF10
:1035900081E00C94B6152F923F924F925F926F92FA
:1035A0007F928F929F92AF92BF92CF92DF92EF92D3
:1035B000FF920F931F93CF93DF93CDB7DEB728977A
:1035C0000FB6F894DEBF0FBECDBF8C01DC011396A1
:1035D0008D919C911497892B39F08C9111969C9127
:1035E00089238F3F09F081C728960FB6F894DEBF74
:1035F0000FBECDBFDF91CF911F910F91FF90EF9044
:10360000DF90CF90BF90AF909F908F907F906F9002
:103610005F904F903F902F9008950E94D70FF82E03
:10362000682F89819A810E946A0769817A818F2D2A
:103630000E94CA0F7C01F80182818111A7C0D801C4
:1036400012965C905110E4C0F0E1EF16FFE5FF0622
:1036500009F4F2C121E1E2162FE5F20609F4F2C104
:1036600080910601882309F448C6470180EE881A34
:1036700091084090AE048091AB04482A98E08916E6
:10368000910408F0E8C197012770332781E090E0AA
:1036900001C0880F2A95EAF7552009F4D9C1482AB4
:1036A000D8018D919C910E94420721E030E03901C0
:1036B00002C0660C771C8A95E2F7E0914004F09115
:1036C0004104F887EF8320904804309049041E821B
:1036D0002E81E22FF0E0EE0FFF1FE050FF4FC08081
:1036E000D180C114D10409F4C3C6411005C0D6016C
:1036F00012968C918111EBC1F601838190E08621B5
:103700009721892B09F4E3C18085982F977009F4DC
:1037100087E0F8E08F16910408F0B7C1552009F44E
:10372000B0C186958170882309F4D1C1D601AD90CE
:10373000BC90EA14FB0419F4552009F4C8C1EF81C8
:10374000F885CE16DF0609F4C2C1D6011D96ED91AB
:10375000FC91309721F08081882309F4B8C1642D51
:10376000C6010E942908882309F4B1C1EA14FB04A8
:1037700009F0F0C6E114F10409F4F1C65110F1C6E4
:10378000A214B30409F0A3C1512CEBC680911D0112
:103790008F3F09F454CF77E0C72E71E0D72EB12CBC
:1037A000A12C9924939480911D01082E000C990B53
:1037B0008A159B050CF443CFF6018681882309F115
:1037C000818592858E159F0539F480914A049091E8
:1037D0004B048E159F05A9F0D6011F969C921F974A
:1037E0001C96FC92EE921B9751968C91811103C00E
:1037F000C6010E94F814C60106960E94191510927F
:10380000AA04BFEFAB1ABB0AE6E1CE0ED11CCBCFA8
:10381000C70182519F45409708F03FC68FEF93E064
:103820000E945D31FEEEEF0E6FE7862E62E0962E6F
:10383000882391F18091A604877009F4D5CEF80110
:103840008281882309F4D0CE82E028960FB6F894BE
:10385000DEBF0FBECDBFDF91CF911F910F91FF90C3
:10386000EF90DF90CF90BF90AF909F908F907F9020
:103870006F905F904F903F902F900C94C2158114E1
:1038800024E09206B9F2C4010E945D31811101C0A9
:10389000EA943FEF831A930AE110F1CF1C821B8256
:1038A000442443945AE0352E74018FEFE81AF80A45
:1038B000C4010E945D3189831A82882309F4BACF3A
:1038C0009FEF980F933000F58A83498292E0890E2A
:1038D000911CC7010E945D318B83882309F4AACF14
:1038E000DE0111967D01F70120812223E9F22130CA
:1038F00009F04AC091818281913041F4F2E0EF0EEB
:10390000F11C0E94241A09C04701EACF923049F401
:1039100022E0E20EF11C0E94B119EFEFEE1AFE0A4E
:10392000E2CF933031F432E0E30EF11C0E941B1918
:10393000F4CF943021F08FEFE81AF80AEECF92E03E
:10394000E90EF11C30E020E0B7016F5F7F4FD70137
:1039500011964C918053990B8A30910550F021506B
:103960003109D8F2EFE9FFE03197F1F700C000002C
:10397000F6CF329EF001339EF00D11249C012E0FE4
:103980003F1F842F7B01E0CFE22FF0E0E85AF94F90
:103990005490822F86958695869590E0FC01E85B91
:1039A000F94F64902770712C022E02C075946794B1
:1039B0000A94E2F731E063227724FC01E85CF94FD6
:1039C000A490B12C022E02C0B594A7940A94E2F7F9
:1039D000A1E0AA22BB24FC01E85DF94FC490D12CE0
:1039E00002C0D594C7942A95E2F7B1E0CB22DD243A
:1039F0006114710419F081EE0E94B119A114B1048F
:103A000019F086EE0E94B119852D0E94241AAB2868
:103A100019F086EE0E941B19672819F081EE0E94AA
:103A20001B19CD2809F479CF8CE26BCF81E00E947D
:103A3000EC150E94AB15FECE81E00E94B615F9CFC1
:103A400082E0F5CF82E0F9CF81E080930601F2CEEB
:103A50008095482225CE552009F4F3C4F0924904FC
:103A6000E09248040E94C4066093440470934504A5
:103A700080934604909347041092430410924204AA
:103A80000FCE82FB882780F94ECE552001F1817040
:103A90004ACE0E941B1984C50497813A910558F4B7
:103AA0006A2D84EB92E00E94D006552009F425C4CB
:103AB0000E947E14BFCE0E947E148FE39CE9019782
:103AC000F1F700C000008A2D0E94B119EECF9E814F
:103AD0009F5F9E83FDCDFC0120813181E216F306BC
:103AE00009F004C4511004C410923F0480E0D2C411
:103AF000882309F450C4F6018189882309F44BC452
:103B0000C501835F9E4F0E94191545C4F3EFEF1660
:103B1000FCE5FF0661F1A0F438EDE3163CE5F306A1
:103B200011F189EDE8168CE5F80669F197EDE916D3
:103B30009CE5F90609F02FC426E241EE61EE0FC0C4
:103B4000A5EFEA16ACE5FA06D1F0A8F027E245EEBB
:103B500066EEE6EFEE16ECE5FE0609F01CC4C801C1
:103B60000E94411A67CE27E245EE65EEF8CF26E2C5
:103B700041EE60EEF4CF27E245EE64EEF0CF26E2B0
:103B800041EE62EEECCF28E241E0EFCF8091B3044A
:103B90008061F6E0EF16FCE5FF0609F49FC0809116
:103BA000B304886027E0E2162CE5F20608F496C01C
:103BB0008091B304806292C08091B3048D7F3CE019
:103BC000E3163CE5F30609F489C078F48091B30468
:103BD0008C609AE0E9169CE5F90609F47FC008F4C8
:103BE0008CC08091B3048E7F79C08091B304877FAD
:103BF000BEE0EB16BCE5FB0609F470C08091B3048F
:103C00008B7FEFE0EE16ECE5FE0608F467C08091CE
:103C1000B3048F7E63C0FBEFEF16FCE5FF0609F4EB
:103C200064C068F533E1E3163CE5F30609F477C0B8
:103C300090F491E1E9169CE5F90609F46CC0A2E163
:103C4000EA16ACE5FA0609F0ECC30E94FB15809178
:103C5000B3048F7743C0B5E1EB16BCE5FB0609F46E
:103C600066C008F47AC08091B4048160FAEFEF1660
:103C7000FCE5FF0609F0D5C38093B404D2C32FEF4F
:103C8000E2162CE5F20609F44EC088F48DEFE81632
:103C90008CE5F806C1F18091B4048E7F9EEFE916A1
:103CA0009CE5F90648F38091B4048360E5CFA1E078
:103CB000EA16ADE5FA0609F459C008F444C060E01C
:103CC000E2E0EE16EDE5FE0609F0ABC38EE090E013
:103CD0000E947B31A6C38091B30481608093B304BA
:103CE000A0C38091B3048460F9CF8091B404826052
:103CF000C3CF8091B3048064F1CF0E94FB15809103
:103D0000B3048068EBCF8091B4048D7FB5CF8091F0
:103D1000B3048F7DE3CF8091B3048F7BDFCF80919D
:103D2000B304837FDBCF8091B4048C7FA5CF8091D7
:103D3000B30482FB992790F921E0922790FB82F946
:103D400090FB83F9CBCF8091B404982F909591701C
:103D50008E7F892B90FB81F98FCF0E94FB1590916C
:103D6000B304892F97FB87F98058B8CF61E0AECFB5
:103D700090E0DCC380914C04811104C089E20E9470
:103D8000170796CE85E3FBCFF7ECEF16FCE5FF06B1
:103D900009F465C008F45EC038ECE3163CE5F306B0
:103DA00009F462C042EB58E06EEB78E099ECE9165A
:103DB0009CE5F90609F04FC40E9449083BCDAFECE1
:103DC000EA16ACE5FA0609F465C0C0F4ECECEE16B0
:103DD000ECE5FE0609F457C008F450C02DECE216DD
:103DE0002CE5F20609F454C084E03EECE3163CE511
:103DF000F30609F030C40E9408041CCD86EDE816D5
:103E00008CE5F80638F48EE091EDE9169CE5F906AC
:103E100090F310CDADE5EA16FA0609F40BCD1BC4FC
:103E20008091760591E089278093760510922E0186
:103E300090937505FFCC44EF58E06DEF78E0BCCF70
:103E40004DEF58E064EF78E0B7CF42EE58E06BEE0C
:103E500078E0B2CF4BEE58E062EE78E0ADCF4AECBE
:103E600058E066ED78E0A8CF46ED58E06AEC78E0DF
:103E7000A3CF4EEB58E062EB78E09ECF4AE958E0E2
:103E800066EA78E099CF46EA58E06AE978E094CFAC
:103E900081E0B1CF89E0AFCF3BE5E3163DE5F30626
:103EA00011F18CE5E8168DE5F80609F0E7C380917D
:103EB000B40482FB882780F991E089270E948E1044
:103EC000DDC30E94FB159FEFA4E3BCE09150A0402E
:103ED000B040E1F700C000000E9463110E9487110A
:103EE000A9CC81E0EBCF80E0E9CFC7010E94420777
:103EF000D82ED5C32F2D2F70C22E8F2D807F19F075
:103F0000C29490EFC922DD20C9F0CC2069F080E294
:103F10008E0D883010F081100BC08091AB04C82A40
:103F2000C092AB040E947E148E2D0E94B11916C05F
:103F30008091AA04C82AC092AA04F4CF8E2D0E94B0
:103F40001B19CC2059F080E28E0D883010F08110C2
:103F50003CC08C2D0E9410070E947E14A92DA850F1
:103F6000BB0B149710F40E94CC07AA2009F43CCB99
:103F70008091A60480FD38CBF80112828595859545
:103F800085950E94EC15C8010E94CB1A8091A60469
:103F900085958595859528960FB6F894DEBF0FBE5A
:103FA000CDBFDF91CF911F910F91FF90EF90DF90E8
:103FB000CF90BF90AF909F908F907F906F905F90C9
:103FC0004F903F902F900C94B615C0948091AA0406
:103FD000C822C092AA04C0CF3F2D3F70B32E8F2DB0
:103FE000807F803219F0B29480EFB822882091F05F
:103FF00081E08816D1F1DD2009F443C0CC2089F09E
:10400000D80115968C91159780FF8ECF8F701596DD
:104010008C9307C0DD20E1F08091AE04B82AC11076
:1040200004C08B2D0E94EE1499CF91E0C912F9CFF4
:104030009091B40492FD92CF8B1509F48FCF0E941A
:1040400072149093AD048093AC04B092AE0486CF0A
:10405000C11006C00E9405078B2D0E94E7147ECF79
:10406000A1E0CA1609F47ACFF5CFDD2029F0B2E03D
:10407000BC1508F473CFD5CFE1E0EC1508F46ECF92
:10408000EBCFCC2049F3B9E38B1229C1EFEFF7EE68
:1040900023E0E150F0402040E1F700C000001FC1E4
:1040A0008F2D86958695837061F0813009F056CF0B
:1040B000C7019370D11002C090E080E00E94A00779
:1040C0004DCFC7019370D11002C090E080E00E94F4
:1040D000B60744CF8E2DDD2029F00E94180D0E94D6
:1040E00063153CCF0E945D0CFACF8F2D837091F544
:1040F000D11034CF4E2D429546954770440F440F52
:104100008E2D8F70042E01C0880F0A94EAF72E2D91
:104110002071E4FE07C02FE030E001C0220F4A9575
:10412000EAF720953F2D369536953370323069F099
:1041300050F44091AF04313029F0822B84230E9447
:10414000F7150CCF842B822BFACF282B8091AF044C
:104150008227F5CF8695DD2011F08F2D8170882381
:1041600009F4FCCE4E2D429546954770440F440FFE
:104170008E2D8F70042E01C0880F0A94EAF72E2D21
:104180002071E4FE07C02FE030E001C0220F4A9505
:10419000EAF720953F2D369536953370323069F029
:1041A00050F440917C05313029F0822B84230E9409
:1041B000A715D4CE842B822BFACF282B80917C0597
:1041C0008227F5CF3F2D3F70F32EDD2029F0832F7E
:1041D0000E94EC158E2D26CF8E2D0E94E7148F2D78
:1041E0000E94B615BBCE8E2D92EF891609F454C0ED
:1041F000981578F0A0EF8A1681F1B1EF8B1609F4CB
:1042000043C0DD2009F466C0C1108ECE8F2D8F71A2
:1042100040C0E3EF8E1609F444C0F4EF8F12F1CFE3
:10422000DD2009F44CC08F2D8F71F82E0E94EC1503
:104230008091B40482FD41C0A8E0FA9EC00111241F
:1042400083608093A6048F2D0E94EC150E94721447
:104250009093A5048093A40481CEDD2081F021E019
:104260002C1508F47BCE2F2D2F7181E090E001C03A
:10427000880F2A95EAF790917C05892798CF32E03C
:104280003C1508F46BCEEFCF8F2D8F71DD2009F434
:10429000A7CF0E94EC1562CE8F2D8F71DD20C9F360
:1042A0009FCF80E0DD2009F482CF9F2D9F7181E0B8
:1042B00001C0880F9A95EAF77ACF8F2DEACF81E077
:1042C0000E94C215B1E0BC1508F048CE82E00E9401
:1042D000C21544CECC2039F0893309F4D7CE8E2DC7
:1042E0000E941B193BCE8F2D8F717ACF552029F05C
:1042F000DC0118968C9185FFF9CBC70197558F3F4C
:10430000910511F008F002CC20911D01022E000C45
:10431000330B2817390714F480931D01F80122810B
:1043200036E1389F5001399FB00C1124C501895FD7
:104330009E4F6C01DC0150962C93509792811696FB
:104340008C911697992309F4D3CB1A96FC92EE928E
:1043500019978F5F16968C930E947214F6019687B8
:1043600085878091AE0487838091AA049091AB04E5
:10437000892B80870190F081E02D309741F0D601A4
:1043800054966D917C91C501835F9E4F0995F09283
:104390004B04E0924A04D80112962C91222309F48E
:1043A000B7C010927405B2E0EB16BCE5FB0608F44A
:1043B0002BC1E6E1EE16ECE5FE0630F0C7018A5FA0
:1043C0009C45099708F020C10E94960F9093B40471
:1043D0008093B304F0E1EF16FCE5FF0609F497CCF7
:1043E00008F019CC38E0E3163CE5F30609F481CC7B
:1043F00008F0E2CB94E0E9169CE5F90609F471CCEB
:1044000008F0C4CBB2E0EB16BCE5FB0609F463CCC4
:104410008091B3048260E3E0EE16ECE5FE0609F459
:104420005DCC6091B304F090B40484E090E00E940D
:104430007B316F2D82E290E00E947B310E94FB1560
:10444000F9C98091480490914904E816F90681F46D
:1044500010924904109248041092440410924504AA
:1044600010924604109247041092430410924204A2
:104470008091400490914104009709F43ECFA8E058
:104480008A16910408F027CB642D0E942908811117
:1044900034CF81E00E944A1930CFB0E1EB16BFE57E
:1044A000FB0609F4C3CAE1E1EE16EFE5FE0609F4E6
:1044B000C7CAFFE5EF16FDE5FF0609F4C5CA20E609
:1044C000E2162DE5F20659F03EE5E3163DE5F3066A
:1044D00009F0C6C880910601882309F4B5CA109274
:1044E000060180E00E944A19A5C985E0F801DE01B5
:1044F000119601900D928A95E1F7D80112962C91B0
:1045000089819A81211189C80E944207F82E8DC89D
:10451000B6E1EB16BCE5FB0609F0B0C08091AB0438
:10452000982F947409F024CC982F9A7A817109F00D
:1045300090E0222309F41ECC81E0911101C080E0BB
:1045400080934C0469E2911165E384EB92E00E9450
:10455000D006AECAA114B10409F012C9512CB12C75
:10456000A12C80E00E944A19D0924104C0924004DC
:1045700081E080933F04D60115968C918093A80426
:1045800051100EC0AB2861F0F601808191819C0131
:1045900024503109213A310508F07BCA0E941707DF
:1045A000D6011696AD90BC90C5019A9581159F4194
:1045B00010F4E0EEBE2277247394C5010197803693
:1045C0009D4508F0712CD6011996ED91FC911A9732
:1045D000309731F01B966D917C9181E0099578229E
:1045E000772079F0F601868197810E94650F80938C
:1045F000A704C501F8E08F16910408F04DCA0E9487
:10460000D8070E947E1451CAE6E1EE16ECE5FE06DC
:1046100009F484CF8091AB048272FAECEF16FCE5CA
:10462000FF0609F426CC08F0CACB35ECE3163CE5CE
:10463000F30609F40ACC08F0A7CBA3ECEA16ACE524
:10464000FA0609F4F8CB08F0FBCBE2ECEE16ECE549
:10465000FE0609F4E5CBBAE5EB16BDE5FB0609F469
:1046600040CC08F019CCE114FCE5FF0609F429CC94
:104670002EEDE2162CE5F20609F430CCD8011296A4
:104680008C911297ED90FC90882309F42ECCC701F1
:104690000E94D70FD82E682FC7010E946A07B70162
:1046A0008D2D0E94CA0F0E94CC0D7C01882EF8012E
:1046B000D280C580C2943FE0C3228091A604877057
:1046C000A1F0AD2CDD2091F08F2D807F803421F082
:1046D00080E28E0D883048F082E00E94C215809101
:1046E000A6048770AA24A3948111A12C9F2C9294D4
:1046F0002FE09222FBE0F91508F430CCE92DF0E030
:10470000E153FE4C0C941E311F93CF93DF938091A5
:104710005304807FA9F480915004882389F080910C
:104720008504D091540460914E0470914F04A0917F
:104730005104B0915204C62FC72316E0D81304C009
:10474000DF91CF911F91089590E0109711F0CF3F26
:1047500019F401968770F2CF189F9001199F300DC0
:104760001124F901EB5AFB4F41814713F2CF4081ED
:104770004613EFCF42814111ECCF438154814A1B54
:104780005B0B483C510528F7809153048F70806182
:1047900080935304F901E65AFB4F80818F7080614A
:1047A00080838EE494E00E94CB1ADF91CF911F9119
:1047B0000C949607AF92BF92CF92DF92EF92FF9246
:1047C0000F931F93CF93DF93CDB7DEB761970FB6EB
:1047D000F894DEBF0FBECDBF8C0185E0F801DE018D
:1047E0001D9601900D928A95E1F7F801E2808EE422
:1047F000A82E84E0B82E6091510470915204611586
:10480000710509F432C190914E0440914F04892FF3
:1048100084238F3F09F429C120813181C380D48052
:10482000F0905004F601E61BF70BFF2009F4E8C0F6
:1048300080915304582F507FE83CF10508F0ABC03D
:10484000511177C0FE2C431321C092131FC0E110F9
:104850001DC08F70806180935304C5010E94CB1AE4
:1048600080915304F80185838F2D61960FB6F894DB
:10487000DEBF0FBECDBFDF91CF911F910F91FF9093
:10488000EF90DF90CF90BF90AF900895CD2829F0A2
:10489000822F83238F3F09F003C180E0F82FF1704E
:1048A000DF2E80FF3CC0809185044091540456E087
:1048B000841315C02D873E878D859E850E94061026
:1048C000292F22952F702230F0F0243018F59F7098
:1048D000F1F0F8019581907FD1F4D12C1EC090E0C9
:1048E000589FF001599FF00D1124EB5AFB4F618145
:1048F000361306C06081261303C06281E6120FC022
:1049000001968770D5CF9F7011F0882331F3805EB8
:10491000883018F3C8010E94CB1AFD2CA5CFEE20D9
:1049200009F4A2CF80915304816080935304F12C49
:104930009BCF431306C0921304C0F801EE2009F484
:1049400079C0C8010E941210882309F1EE20F9F005
:1049500080915304803270F020914E0430914F04C6
:1049600038872F831986DB86CA868C87CE01079607
:104970000E94CB1A86E0F801AEE4B4E001900D92FB
:104980008A95E1F70E948423FF24F3946DCFC80138
:104990000E94CB1AF9CF51110AC08EE494E00E9414
:1049A000CB1A86E0F50111928A95E9F7C0CF43133F
:1049B0000FC092130DC0E1100BC0F8018583C80130
:1049C0000E94CB1A86E0F50111928A95E9F74CCF47
:1049D000C8010E9412108823D1F2EE20C1F280910A
:1049E0005304803238F220914E0430914F043A83C0
:1049F00029831B82DD82CC828E83CE010196B8CFC3
:104A0000E83CF105F8F6FE2CEE2009F243131FC036
:104A100092131DC08091530480FD10C0982F907F89
:104A200069F0F8018583903F31F0982F907F905F77
:104A30008F70892B8583C8010E94CB1A86E0F8010C
:104A4000AEE4B4E001900D928A95E1F70DCFC80174
:104A50000E94121081118ECF809153048160809347
:104A60005304C8010E94CB1AFFCEEE2009F48FCF69
:104A7000C8010E941210F82E882309F488CF86E01E
:104A8000F801AEE4B4E001900D928A95E1F78091CF
:104A90004E0490914F040E9406100E948423E4CE9D
:104AA00081E08E25FBCE1F93CF93DF93CDB7DEB78A
:104AB00067970FB6F894DEBF0FBECDBF4B8B5C8BF4
:104AC0006D8B7E8B8F8B61111092AA041A8A198AC2
:104AD00085E0FE017396DE011D9601900D928A9588
:104AE000E1F70E9472142091A4043091A504821B66
:104AF000930B8838934120F08091A60482FF7FC0F9
:104B00000E9472142091AC043091AD04821B930B6F
:104B10008838934110F00E94050786E0FE013D961B
:104B2000DE01179601900D928A95E1F7CE01079666
:104B30000E94DA23882389F016E080918504909101
:104B40005404891349C067960FB6F894DEBF0FBEB0
:104B5000CDBFDF91CF911F91089586E0FE0137967A
:104B6000DE01119601900D928A95E1F78A859B8569
:104B7000892B11F38F81988589238F3FE9F220914A
:104B8000540430E0C901019687709927409185044B
:104B90004817190671F40E94FB15109254041092E4
:104BA000850486E0EEE4F4E0DF011D928A95E9F7E2
:104BB000C3CF96E0929FD001939FB00D1124AB5AC2
:104BC000BB4FFE01319601900D929A95E1F78093CB
:104BD00054040E949607B0CF819FC00111248B5AC4
:104BE0009B4F0E94DA23882309F4ADCF809185047E
:104BF00090E0019687709927809385049ECF82E08C
:104C00000E94C2157DCF8F929F92AF92BF92CF929A
:104C1000DF92EF92FF920F931F93CF93DF93CDB765
:104C2000DEB72A970FB6F894DEBF0FBECDBF8E0158
:104C30000F5F1F4F8AE0F80111928A95E9F72AE782
:104C4000E22E21E0F22E6801AA24A394B12CF701F0
:104C500081917F018F3F09F44BC0F894E82FE295D2
:104C6000EF70F0E021A18F70A50102C0440F551F25
:104C70008A95E2F7CA01922F982B91A392A1809571
:104C8000892382A3789400C0EFE7F1E030E020E0D0
:104C9000912C812C81918F3F09F486C0A82FA29579
:104CA000AF70B0E090964C9150E08F7002C0559577
:104CB00047958A95E2F740FD77C0C501022E02C0F4
:104CC000880F991F0A94E2F7882A992A2F5F3F4F8D
:104CD0002F303105F9F6F701319780818F3F11F0C0
:104CE0000E94720D50EA5A95F1F7F6019182808286
:104CF000F2E0CF0ED11C4FE7E41641E0F40609F0D4
:104D0000A6CF4AE050E0B80185EB94E00E949F31C5
:104D1000FF24F394009709F4F12C892B09F447C080
:104D20008AE0F801A5EBB4E001900D928A95E1F7D5
:104D300081E08093D6020E9472149093D5028093F2
:104D4000D4028091D4029091D5020E9463140397FB
:104D500090F18091B5049091B604909336058093BC
:104D600035058091B7049091B804909338058093ED
:104D700037058091B9049091BA0490933A058093D5
:104D800039058091BB049091BC0490933C058093BD
:104D90003B058091BD049091BE0490933E058093A5
:104DA0003D051092D60207C090E080E08DCF809143
:104DB000D6028111C6CF8091420490914304892B81
:104DC00009F44DC040913704509138046091390482
:104DD00070913A042FB7F8948091180590911905B5
:104DE000A0911A05B0911B052FBF841B950BA60B34
:104DF000B70B4091330450913404609135047091A5
:104E0000360484179507A607B70748F100914204B6
:104E100010914304C8010E94650F9801205E31097A
:104E20002830310518F00115110591F50E94EE1496
:104E3000802F0E94B11910924304109242041092E4
:104E40003704109238041092390410923A041092E8
:104E50003304109234041092350410923604809179
:104E60001D018F3F09F055C08F2D2A960FB6F8947B
:104E7000DEBF0FBECDBFDF91CF911F910F91FF908D
:104E8000EF90DF90CF90BF90AF909F908F9008955C
:104E90000E94DD14CDCFD29EF001D39EF00D1124DF
:104EA000E95FFE4FA288B388A114B10419F498EC0D
:104EB000A92EB12CD29E8001D39E100D1124095F22
:104EC0001E4FF80186818823C1F0858596850E9452
:104ED0006314A816B90688F4ED9C50011124F8015A
:104EE0008189811105C0C501895F9E4F0E94F81418
:104EF000C501835F9E4F0E941915E3942E2D30E06B
:104F000080911D01082E000C990B821793071CF647
:104F1000ABCFE12C86E1D82EF1CFCDB7DEB7AE977F
:104F20000FB6F894DEBF0FBECDBF84B7877F84BFB6
:104F30000FB6F894A8958091600088618093600016
:104F4000109260000FBE80E890E00FB6F894809356
:104F50006100909361000FBE85B7806885BF85B7FB
:104F6000806885BF8FEB96E09093B3028093B20286
:104F70000E942D040E94F8048091E20084608093D6
:104F8000E2007894809164058823A1F01091E900F3
:104F90001F709091EC00892F817090FD80E8182B94
:104FA0001092E9008091E80083FD0E9410161F70A6
:104FB0001093E90082E084BD93E095BD9AEF97BD20
:104FC00080936E000AE711E0D8018D918D018F3F2B
:104FD00011F00E94720DB1E00F371B07A9F70FE720
:104FE00011E0F80181918F018F3F11F00E94720D45
:104FF000F1E00E381F07A9F71092B6041092B5041D
:1050000010923605109235051092B8041092B7042C
:1050100010923805109237051092BA041092B90414
:1050200010923A05109239051092BC041092BB04FC
:1050300010923C0510923B051092BE041092BD04E4
:1050400010923E0510923D0590E080E00E9465318F
:105050008A3E9E4F11F00E94871182E090E00E94EC
:105060005D3180932A050E94960F9093B40480933B
:10507000B3040E9403268FEB9DE50197F1F700C072
:1050800000000E9403268091350580FF17C06FEF56
:1050900083E290E00E947B316FEF84E290E00E9417
:1050A0007B316FEF85E290E00E947B316FEF7FEF05
:1050B00090E080E00E9499310E94631183E090E0CB
:1050C0000E945D310E94F7150E94AC121092EF040D
:1050D0008FEF9FEF909309058093080590930B0540
:1050E00080930A0590930D0580930C0590930F050E
:1050F00080930E05909311058093100590931305EE
:1051000080931205909315058093140590931705CD
:10511000809316051092C2049093DC048093DB0404
:105120009093DE048093DD049093E0048093DF0489
:105130009093E2048093E1049093E4048093E30469
:105140009093E6048093E5049093E8048093E70449
:105150009093EA048093E90490E080E00E94653136
:105160008A3E9E4F21F00E9487110E94B81046E0AF
:1051700050E06CE170E086E795E00E944D3180914F
:1051800076058C7F11F40E94B81083E290E00E94B3
:105190005D31813209F0E2C684E290E00E945D3127
:1051A000883009F0DBC685E290E00E945D318031F5
:1051B00009F0D4C60E94CC0780FF03C083E50E949B
:1051C000241A80E291E09093C0048093BF0428E108
:1051D000222E312CEE24E3948091640590E4F92E84
:1051E00000E112E1853009F4D7C00E940326811145
:1051F0000E94C406E5E3F5E0ABE2B5E010E000E0B4
:10520000602F819091902D913D912815390509F4D9
:1052100044C228253925F12CAA24A394B12CA90134
:105220004A215B21452B09F432C2F9A26AA38A20E4
:105230009B2081E08114910409F480E08BA30E94FB
:1052400072148160782F9DA38CA349A15AA16BA1F0
:105250008DA10E945325F801EE0FFF1FE55DFA4F67
:1052600080819181A826B926B182A082892871F017
:105270008FE0809FF001819FF00D1124E356FE4FD7
:10528000EF0DF11D80818F3F09F092C0F12C0F2DA1
:1052900010E08091C204800F912F911D09976CF14D
:1052A00088E090E05C01A01AB10AB8016D537B4F11
:1052B000A50183EC94E00E94AC31B80165537B4FAB
:1052C000A5018BEC94E00E94AC31A501440F551F61
:1052D000B801660F771F65527B4F8BED94E00E94FB
:1052E000AC31B8016D527B4FA50183ED94E00E9473
:1052F000AC3188E08F198093C2048091C20490E0A1
:10530000AD2DB0E09D01220F331F28513E4FAA0F53
:10531000BB1FBD0167517E4F63C08091640584301F
:1053200049F140E060E080E00E940709B1E0B093FD
:105330001C051092C1040FB6F894A8952092600045
:105340000FBEF092600083B7817F846083BF83B714
:10535000816083BF7894889583B78E7F83BF0FB6B3
:10536000F894A89580916000886180936000109205
:1053700060000FBE80916305882371F00E940326B0
:10538000E5E3F5E081919191892B09F0D1C52FE3F7
:1053900035E02E173F07B1F780916405853009F499
:1053A000BCCF0E94FB150E94CC0710921C051DCF9C
:1053B000D82EFF24F3946BCF90E0FC01EE53FB4F0B
:1053C000D9015C915183DB015C915187D18A880FAF
:1053D000991FFC01EE53FB4F128E118E91E0842F2A
:1053E00041E0480F9F1540F38093C2048090EB0486
:1053F0009090EC04A090ED04B090EE048FB7F89478
:10540000409018055090190560901A0570901B0582
:105410008FBFD301C20188199909AA09BB098BA7BB
:105420009CA7ADA7BEA70E94C4066093EB0470932F
:10543000EC048093ED049093EE04A091C204E2EC9E
:10544000F4E02A2F30E0BFEF8B0E9B1EA11CB11C95
:1054500084189508A608B708A31336C12093C20480
:1054600020911C05F12C211109C020917605122FE5
:105470001370F12E19F0F22EF694F69420912E016D
:10548000213009F44CC1222309F433C1223009F43C
:10549000A9C3233009F4B3C386E0E3E2F5E0DE01FB
:1054A000119601900D928A95E1F7F0902505C09034
:1054B00026051091270500912805109225051092C8
:1054C000260510922705109228058F2D8C2909F4A6
:1054D00048C080912105909122050E9463149C018F
:1054E00090912005992309F460C523333105C8F153
:1054F0009F3F19F09F5F90932005FF2059F00E9475
:10550000F80C9FEF1F140CF491E0899F802D11245B
:1055100080932505CC2059F00E94F80C9FEF1C14B5
:105520000CF491E0899F802D112480932605309101
:1055300025053323B1F020912605222391F045EB78
:105540003403C0011124992309F486C390932505DF
:1055500045EB240390011124332309F480C33093D5
:105560002605812F802B09F448C080911E0590915B
:105570001F050E9463149C0190911D05992309F455
:105580000FC525363105C8F19F3F19F09F5F9093F5
:105590001D05112359F00E94D60C9FEF11160CF433
:1055A00091E0899F802D112480932705002359F0D5
:1055B0000E94D60C9FEF10160CF491E0899F802D6D
:1055C000112480932805309127053323B1F02091D1
:1055D0002805222391F005EB3003C0011124992303
:1055E00009F440C39093270515EB21039001112482
:1055F000332309F43AC3309328058091250590910F
:105600002605892B90912705892B90912805892BB8
:1056100011F00E94631586E0FE013196A3E2B5E029
:1056200001900D928A95E1F70E94CC07909129058F
:10563000891721F00E94CC07809329058091640589
:10564000843009F0C9CD83E08093E9008091E800BF
:1056500082FFC2CD8091E80090E085FF06C00E94E5
:105660004C04882309F404C391E08091E8008B770F
:105670008093E800992309F4AFCDE981E150E3314B
:1056800008F08BC3F0E0E552FE4C0C941E31F3940D
:10569000AA0CBB1C4FE0F412C2CD0F5F1F4F0530A8
:1056A000110509F0ADCD8FEF8EA38FA318A60E9430
:1056B00072148160782F9AA789A74EA15FA168A56F
:1056C0008AA50E94532592CE418D528D2A01712CBC
:1056D000612C84149504A604B70420F421503F5F84
:1056E0003296BACE0BA51CA5400F511F528F418F89
:1056F000F6CF10922B0160936E0570936F05809327
:1057000070059093710589E2E2ECF4E0AFEEB4E04D
:1057100001900D928A95E1F7E0922E01BDCE809125
:105720001F01F81224C090917605937020911E01FC
:1057300030E081E09217130609F480E081708093D5
:105740002D0180917B0590912C01981739F0809361
:105750002C0140E060E080E00E94070926E12F155F
:1057600088F0EF2DF0E0E251FE4C0C941E3181E008
:10577000E5CF80912D01882331F140E060E080E0A9
:105780000E94070980E01FC000912B01000F000F4D
:10579000F4E0CF2EC00EBC2C33E43C1510F4E3E44F
:1057A000BE2E6091770570917805809179050E94F1
:1057B000480AA62E972E882E10E00B15A8F181E03E
:1057C00042E44C15F8F290912B019F5F90932B01CE
:1057D0008111F8C182E080932E0180912D01811109
:1057E000F1C1FF2009F407C20E94CC0781FF07C066
:1057F0002FEF4FEF6FEF8EE190E00E94090980914B
:105800007C050E94540F823009F4E0C1833009F412
:10581000E3C1813009F040CE21E14CEC6AEA8EE030
:1058200090E00E94090938CEF801E259FD4F8081CD
:1058300090912C01892331F0282D4A2D692DC80122
:105840000E9409090F5F1F4FB8CF00912B01000F75
:10585000000F74E0B72EB00EAB2C83E48B1510F460
:1058600063E4A62E809078059090790510917705D5
:10587000612F782D892D0E94480AC62E772E682E1A
:1058800060917A05610F782D892D0E94480A962E25
:10589000872E582E10E00A1530F081E092E49B1517
:1058A00008F091CF6FCFF801E259FD4F90818091C0
:1058B0002C01892359F0252D492D682D90FD03C019
:1058C000262D4C2D672DC8010E9409090F5F1F4F1F
:1058D000E2CF00912B01000F000F54E0C52EC00E47
:1058E000AC2CA3E4AC1510F443E4A42E90907805FE
:1058F0008090790520917A0530E4B32E1B2D129FFC
:10590000112D1124B12E10E00A1530F081E022E4AF
:105910002C1508F058CF36CFF801E259FD4F8081A1
:1059200090912C018923D9F0F801EE0FFF1FE85167
:10593000FE4F6081B69EB001112495E07595679584
:105940009A95E1F780917705680F792D882D0E944F
:10595000480A462F282F672FC8010E9409090F5FA8
:105960001F4FD2CF00912B01000F000FB4E0CB2EC0
:10597000C00EBC2C33E43C1510F4A3E4BA2EA09066
:105980007705109178059090790560917A05669574
:105990006695669580916E0590916F050E943E0A0E
:1059A0000E94A409805887FD8195880F482F292DD2
:1059B000429F412D1124842F6A2D712F0E94480A85
:1059C000A62E972E882E10E00B1530F081E032E4E1
:1059D0003C1508F0F8CED6CEF801E259FD4F808193
:1059E00090912C01892331F0282D4A2D692DC80171
:1059F0000E9409090F5F1F4FE7CF85E996E00E94DB
:105A0000B10BE1CE85E899E00E94570BDCCE89E628
:105A100099E00E94DC0AD7CE83E996E0F0CF8AE8CD
:105A200096E0EDCF81E896E0EACF88E696E0E7CF12
:105A30008AE596E0EECF86E19AE0E6CF88E599E048
:105A4000E3CF84E499E0E5CF8DE296E00E94FD0B80
:105A5000BACE8FEF95E0FACF88EC95E0F7CF0091C2
:105A60002B01000F000FF4E0CF2EC00EBC2C43E43E
:105A70004C1510F4E3E4BE2E90907805A0907905C3
:105A80001091770560917A05669566956695809187
:105A90006E0590916F050E943E0A0E94A4098058ED
:105AA00087FD8195880F682F2CE0629F612D11245E
:105AB000610F792D8A2D0E94480AA62E972E882ED6
:105AC00010E00B1530F081E092E49C1508F07BCEDD
:105AD00059CEF801E259FD4F808190912C01892324
