:100000000BC4000042C4000040C400003EC4000015
:100010003CC400003AC4000038C4000036C40000EC
:1000200034C4000032C400000C94FA280C94E22975
:100030000C940D122AC4000028C4000026C400003D
:1000400024C4000022C4000020C400001EC400001C
:100050001CC400000C94D62818C4000016C400006C
:1000600014C4000012C4000010C400000EC400003C
:100070000CC400000AC4000008C4000006C400004C
:1000800004C4000002C4000000C40000FEC300005D
:10009000FCC30000FAC30000F8C30000F6C3000070
:1000A000F4C30000F2C30000F0C300000501090220
:1000B000A10185020901A1000509190129081500FE
:1000C0002501950875018102050109300931158165
:1000D000257F95027508810609381581257F9501D0
:1000E00075088106050C0A38021581257F95017572
:1000F000088106C0C005010980A101850319012AF4
:10010000B700150126B700950175108100C0050CD8
:100110000901A101850419012AA002150126A002E6
:10012000950175108100C005010906A1018506052C
:100130000719E029E71500250195087501810205D9
:1001400007190029EF1500250195F07501810205B9
:10015000081901290595057501910295017503910D
:1001600001C00660FF0961A1010962150026FF00B8
:100170009520750881020963150026FF00952075FA
:10018000089102C005010906A101050719E029E748
:1001900015002501950875018102950175088101F9
:1001A0000507190029FF150026FF0095067508812F
:1001B000000508190129051500250195057501910E
:1001C00002950175039101C009025B00030100A0C3
:1001D000FA090400000103010100092111010001D5
:1001E00022440007058103080001090401000203FD
:1001F00000000009211101000122220007058203ED
:100200002000010705030320000109040200010387
:1002100000000009211101000122B6000705840336
:100220002000011201000200000008424B251202CA
:10023000000102000120036B0062006400360037F9
:10024000006D006B006900690072006700620020A9
:100250000076003200000010034B004200440066AC
:100260000061006E007300000004030904167C1E88
:10027000001F00200021002200230024002500266A
:100280000027002D002E002A004C002B0014001A1D
:10029000000800150017001C0018000C00120013C5
:1002A000002F0030003100035700570400160007EC
:1002B0000009000A000B000D000E000F003300348F
:1002C00000000028000457E1001D001B0006001973
:1002D00000050011001000360037003800E500006E
:1002E0000052000157E000E300E200000000002C93
:1002F000000000000002570000E400500000005120
:10030000004F0035003A003B003C003D003E003FFE
:10031000004000410042004300440045004C0049B9
:100320000001004A0052004D004B00010001000195
:100330000001000100010001000100010046000170
:1003400000500051004F004E0001005009500A4F6C
:100350000A4F09010001000000010001000100B680
:10036000002A00B70001000100110A290301000161
:10037000000100010000000100A8000100010001CF
:1003800000000000004C00000000000100000065BB
:1003900021010000000100010035001E001F0020A7
:1003A0000001000100010001000100010001000145
:1003B0000001004C02A60001002100220023004B96
:1003C0000001000100010001000100010001000125
:1003D000000100010001002400250026004E00015C
:1003E0000001000100010001000100010000000106
:1003F000000100010027000100B20001000100011E
:10040000002903010001000100010000002A000191
:100410000001000B700100000000004C0000000013
:1004200000010000000100B60000003E00B70042DD
:1004300078A800AA00A900AC00AE00AB0001000142
:100440000001000100680069000100477801000117
:100450000001000100010001000100010001000194
:1004600000010001000100007C487801000100014A
:100470000001000100010001000100010001000174
:100480000001000000037C4578010001000100012B
:100490000001000100010010030100010001000142
:1004A0007C00004378467801000100010000000054
:1004B000000100000000000052000004524A7800D1
:1004C0000044784978167C1E001F0020002100227D
:1004D00000230024002500260027002D002E002ADE
:1004E00000A8002B0014001A000800150017001CBB
:1004F0000018000C00120013002F003000310068BB
:1005000000390004001600070009000A000B000D66
:10051000000E000F0033003400000028006900E1E5
:10052000001D001B00060019000500110010003618
:100530000037003800E50000005200E300E0000052
:1005400000E200000000002C00000000000052004B
:1005500000E4005000000051004F00007767570092
:10056000876656008676550085756500847464003C
:100570008373630082726200817161008070600029
:10058000182838000829390009193A000A1A2A00DF
:100590000C1C2C000D1D2D0006162600051525002F
:1005A000041424000313230002122200011132005C
:1005B00000213100102030008878680089796900B6
:1005C0008A7A6A008B7B6B008C7C6C008D7D6D0061
:1005D0000E1E2E00071727018575650184746401BE
:1005E00083736301827262018171610180706001B5
:1005F000182838010829390109193A010A1A2A016B
:100600000B1B2B010C1C2C000F1F2F0187665601A2
:1006100004142401031323010212220101113201E7
:100620000021310188786801897969018A7A6A0133
:100630008B7B6B010D1D2D010E1E2E010F1F2F0038
:100640008E7E5D0177675701071727010616260181
:10065000102030018D7D6D018E7E5D017F6F5F000A
:100660007F6F5F008F6E5E000101010101010101DA
:100670000102020202020202020203030303030355
:100680000303040404040404040505050505060623
:1006900006060607070707070808080809090909E1
:1006A0000A0A0A0B0B0B0C0C0C0D0D0D0E0E0E0F87
:1006B0000F0F101011111112121313141415151617
:1006C000161717181819191A1A1B1B1C1D1D1E1E88
:1006D0001F202021222223242425262627282929D9
:1006E0002A2B2C2D2D2E2F30313232333435363704
:1006F00038393A3B3C3D3E3F404142434445464702
:1007000048494A4C4D4E4F50515354555658595ADA
:100710005B5D5E5F616264656668696B6C6D6F707E
:1007200072737577787A7B7D7E8082838587888AED
:100730008C8E8F91939596989A9C9EA0A2A3A5A724
:10074000A9ABADAFB1B3B5B7BABCBEC0C2C4C6C920
:10075000CBCDCFD1D4D6D8DBDDDFE2E4E7E9EBEED9
:10076000F0F3F5F8FAFDFF000000000000000000C3
:100770000000000000000000000000000000000079
:1007800000000000000000000000007E0F00D4FF09
:10079000FFFFC70000007800000000000000002AF2
:1007A0002B280000000000000000000000000000F6
:1007B000000029000000002C1E34202122243426B1
:1007C00027252E362D3738271E1F202122232425AA
:1007D000263333362E37381F0405060708090A0B5F
:1007E0000C0D0E0F101112131415161718191A1BD1
:1007F0001C1D2F3130232D350405060708090A0B6F
:100800000C0D0E0F101112131415161718191A1BB0
:100810001C1D2F3130354C0011241FBECFEFDAE004
:10082000DEBFCDBF04B603FE19C08091EF059091E5
:10083000F005A091F105B091F2058730904BA740EB
:10084000B04B61F41092EF051092F0051092F10593
:100850001092F205E0E0F8E3099500C013E0A0E093
:10086000B1E0E6E8F8E502C005900D92A834B107C2
:10087000D9F725E0A8E4B3E001C01D92AF3EB2076E
:10088000E1F70E94B3230C94C22BBACBFC019281F6
:10089000913021F4858181708E5F0895923011F43A
:1008A00084E0089581E008959C0191509F31B0F457
:1008B000832F817034FF0AC08295807F31FD806272
:1008C00032FD806433FF0BC08068089531FD826083
:1008D00032FD846033FF03C08860089580E008958E
:1008E000CF93DF93EB01E0DFFE010995DF91CF911C
:1008F0000895982F92959F7061F420E0982F892F8A
:100900008695869511F02E5F982F892F8695820FF8
:10091000089524E0F4CF8093A40508958093EE0514
:10092000089521E001C0220F8A95EAF78091EE0533
:10093000822BF4CF21E001C0220F8A95EAF7822FA3
:1009400080959091EE058923E9CF809156018330FF
:1009500011F481E0EFDF1092560108958091540167
:10096000833011F482E0E6CF089580915201833004
:1009700009F4E0CF0895292F953090F58F3080F558
:1009800090E03FE0239F800D911D112451E081FDF7
:1009900054E080FD550F82FD529523E09695879592
:1009A0002A95E1F7FC01EE0FFF1FE80FF91FE95947
:1009B000FA4F20E030E070E04191DF01CB01022EE0
:1009C00002C0969587950A94E2F78695880B84274E
:1009D000852384278E932F5F3F4F2330310561F7A6
:1009E0000895292F953070F58F3060F590E03FE045
:1009F000239F800D911D1124682F677023E0969529
:100A000087952A95E1F7FC01EE0FFF1FE80FF91F0C
:100A1000E959FA4F40E050E080E0219130E0062EA5
:100A200002C0369527950A94E2F72170042E01C082
:100A3000220F0A94EAF7822B4F5F5F4F4330510534
:100A400061F7089580E008959091EE0521E030E08F
:100A5000F90101C0EE0F8A95EAF7D90101C0AA0F8A
:100A60006A95EAF7EA2B01C0220F4A95EAF7892F27
:100A70008E23E81303C0892F822B50CF2095822F1D
:100A80008923FBCFE091AC059091AB05E91302C03F
:100A900080E008959F0157E0E59FF0011124E355A0
:100AA000FA4F5181561306C05081581303C0558127
:100AB000541305C02F5F3F4FF901E770E7CF81E086
:100AC00008958091AC052091AB05281301C00895CD
:100AD00001968770FACF9091A6058095892380931F
:100AE000A605282F277081F4891771F09091ED05E4
:100AF00092FF0AC08695869586951CDF1092A60502
:100B00001092A7051092A80508958095982F8091BE
:100B1000A10589238093A10508958091A2058115DF
:100B200031F01092A2051092A9051092AA0508951D
:100B3000803E9105D1F1C8F48133910509F481C05B
:100B400048F48932910509F471C08A32910509F49B
:100B50007FC0089589339105E1F082389105C9F08D
:100B60008533910509F45DC00895843E9105D1F166
:100B700048F4823E910531F1833E910541F181EEC9
:100B800090E00895863E9105C1F1873E9105F1F10F
:100B900008952091EC05237009F064C02091ED05C3
:100BA00023FF14C089E290E008952091EC0520FD18
:100BB00045C03091ED0530FF09C024FD24C083EE0F
:100BC00090E008952091EC0522FDF7CF0895209143
:100BD000EC0522FD44C03091ED0530FD43C024FFFB
:100BE000F5CF11C02091ED0521FFF0CF8091EC05EC
:100BF00084FD09C087EE90E008952091EC0523FF65
:100C0000E5CF24FFF7CF80E090E008952091EC0538
:100C100023FD2BC03091ED0531FFE1CF84EE90E054
:100C200008952091EC0525FFD1CFBCCF2091EC0594
:100C300025FD1EC02091ED0523FFC8CF89E390E07C
:100C400008952091EC0526FFC1CF8AE290E0089537
:100C50002091EC0526FFBACF81E390E0089582EE63
:100C600090E0089580EE90E0089586EE90E008957B
:100C700085E390E008959091EC0592FF10C041E06B
:100C8000282F2471243009F040E031E0282F28710A
:100C9000283009F030E0431711F02CE0822793FF51
:100CA00010C041E0282F2471243109F040E031E0E8
:100CB000282F2871283109F030E0431711F02CE07B
:100CC00082273091ED0530FF10C051E0282F2171AF
:100CD000213009F050E041E0282F2871283009F038
:100CE00040E0541711F029E0822731FF10C041E0A5
:100CF000282F2171213109F040E031E0282F28719F
:100D0000283109F030E0431711F029E0822794FFE1
:100D100002C083FD877E08950F931F93CF93DF93C7
:100D200007DFEC01D23508F04DC0D03508F0C3C064
:100D3000C03ED10530F5CD3CD10508F09AC0C83A87
:100D4000D10578F4C53AD10508F090C0C130D1057D
:100D500099F1CE010497813A910570F1C0E0D0E09D
:100D60002BC0CE01885A91094B97C0F7C85AD0E0E2
:100D7000CC0FDD1FCF52DD4F0990D881C02DD46438
:100D80001BC0D03490F4D03208F0A8C0C83ED105C2
:100D900098F0CE0191509F3108F78D2F6CDF082F0E
:100DA0008C2F90E0C5DE902B54C08C2F90E0C0DEDD
:100DB000DF70C82FD92BD06ACE01DF91CF911F9160
:100DC0000F910895C03882E5D807B8F5C03682E59E
:100DD000D80708F056C0C03482E5D807C8F4C0323E
:100DE00082E5D80708F047C08C2F8695869520E2CB
:100DF000829FC0011124C37021E030E002C0220FA5
:100E0000331FCA95E2F7E901C82BD92BDD68D4CF8F
:100E10008C2F86958695877020E2829FC0011124D1
:100E2000C37021E030E002C0220F331FCA95E2F701
:100E3000E901C82BD92BDC68BFCFC03C82E5D807BD
:100E400050F48C2F8F71C03AD24580F5982F84EFE3
:100E5000906AEC01B1CFCE01805C9245809708F09A
:100E60007DCFDC2FDF71C0EFD06AA6CFA497D0640E
:100E7000A3CFD065A1CF8C2F8F71D82FC1EFD06AAF
:100E80009BCF8C2F86958695877020E2829FC0012C
:100E90001124C37021E030E002C0220F331FCA9535
:100EA000E2F7E901C82BD92BDA6886CFE4DEC0E08F
:100EB000D82FD06281CF8C2F8F71DDDE93E0CC0FE5
:100EC000DD1F9A95E1F7DF70282F84FF04C090E1C1
:100ED000899F90011124C22FD0696ECF8D2F8F7101
:100EE000CADE082F8C2F90E023DE902BEC01E1CF9F
:100EF00080E00895F894E82FE295EF70F0E041A1CA
:100F00008F7021E001C0220F8A95EAF7922F909509
:100F1000942391A392A1822F892B82A37894089580
:100F2000CF92DF92EF92FF921F93CF93DF93462FE2
:100F3000172FE82FF0E0E959F94F71110CC0E49137
:100F40008E2F7E2F6E2FDF91CF911F91FF90EF900C
:100F5000DF90CF900895F491EF2F86E0689FE00135
:100F600011242FEF30E0CE01B9010E94F72ADB01F6
:100F7000CA01880F991F65E56A9FA0016B9F500DFC
:100F80001124841B482F440F480FC901811B91096C
:100F9000F89F7001F99FF00C11248F2D149FB00160
:100FA0001124672F70E06901C61AD70AB601F69FAF
:100FB0006001F79FD00C1124A330B10549F1B901AC
:100FC000641B7109AB01149FB001159F700D1124B2
:100FD000672F70E0261B370BF29FA001F39F500D87
:100FE0001124752FCC3FD34050F4A130B105A1F0AE
:100FF000129709F0A7CFEF2D852F7F2FA3CFA43015
:10100000B10569F0169709F49DCF7F2D8D2D9ACFEC
:101010007D2DEF2D8F2F96CF7F2FED2D93CFE52FA9
:101020007F2DF8CFEF920F93CF93DF93C72FD82F59
:101030000E19652F607821153105E1F0F90137FFB0
:1010400004C0EE27FF27E21BF30BBA016E0F7F1FD0
:1010500057FD19C04E1B5F0BE0E25E9F902D4E9F27
:10106000802D912911240E94422B80E2861B682F3B
:1010700037FD6195061B602F7C2F8D2FDF91CF915F
:101080000F91EF900895CB0160E2969F902D869F7F
:10109000802D91291124BF01641B750B0E94422BE6
:1010A00080E6E4CF9091F504982B9093F504089591
:1010B0000C94A81108950C94F5110895A0E0B0E0E7
:1010C000E4E6F8E00C94142B182F80911901811399
:1010D00028C090911B0593702091180130E081E0A9
:1010E0009217130609F480E080930A01809120058D
:1010F00090910901981731F08093090140E060E078
:1011000080E0D9DF123009F44FC068F4111110C02B
:1011100080910A01811551F040E060E080E0CBDF72
:1011200005C081E0E1CF1F3F09F4C5C080E01BC0CE
:10113000C0910801CC0FCC0F0C2F0C5FF02E0434A3
:1011400010F043E4F42E60911C0570911D05809110
:101150001E05E6DEE62ED72EC82ED0E0CF15A8F06D
:1011600081E0033418F7909108019F5F9093080184
:101170008111CAC082E08093170180910A01811118
:10118000C3C01111C1C083E0BDC0FE01E658FD4FD0
:10119000808190910901892329F02C2D4D2D6E2DF0
:1011A000CE0186DF2196DACFC0910801CC0FCC0F9B
:1011B0008C2F8C5FB82EF82E843410F033E4F32E8D
:1011C0004091F1045091F20420911F05269580E092
:1011D00090E0429F040E811D529F800D911D1124AD
:1011E000850F911DE82ED0E0CE01880F991F8C50FD
:1011F0009E4F6C01CF1520F081E09B2D9334B2CF30
:10120000FE01E658FD4F808190910901892309F480
:1012100048C0F60140814057550B21812052330BC5
:10122000449FC001459F900D900D1124229FB00155
:10123000239F700D700D1124860F971F082F823089
:10124000910518F1EFEF813E6EE1960738F4FC014D
:10125000B5E0F695E795BA95E1F7E85FF1E06F2F15
:101260006E0F7727771F75956795062F669FD001BC
:10127000679FB00DB00D11248A179B07B8F4E62FB5
:10128000E150EF1760F7F1500F2F60911C0570913E
:101290001D0580911E05C6DE43DE472F282FCE0197
:1012A00007DF219682E0C80ED11CA4CF6F3F69F3FF
:1012B000F62FFF5FE6CF9091F204A091F304B09176
:1012C000F404892F9A2FAB2FA69597958795A6950D
:1012D00097958795837090E0A0E0B0E0823091050B
:1012E000A105B105B1F083309105A105B105A1F0CB
:1012F00040E060E010979040814081F464E180E03C
:10130000DADE82E080931701CDB7DEB7E9E00C9416
:10131000302B44E160E0F3CF44E164E184E1F0CFBD
:1013200090911B0521E0922790931B0510921701C5
:10133000B9CE80911B05837011F410921701809132
:101340001B058C7F816080931B05089580911B0590
:10135000837011F01092170180911B058C7F809390
:101360001B05089590911B05937091F0811589F0EC
:10137000833088F48F73880F880F982F20911B0576
:101380002370922B90931B0510921701862F8ACE03
:10139000089581E0F0CF82E0EECF80911B05869525
:1013A00086958F5F833008F081E061E0DBCF80912C
:1013B0001B0586958695815009F482E061E0D2CFC5
:1013C00090911B05937041F080931C0560931D055F
:1013D00040931E05822F66CE0895EBE1F5E08181F2
:1013E00090E021E0438162810896EACFEBE1F5E0ED
:1013F000818121E0438162818850990BE1CFEBE14B
:10140000F5E0628120E1620F08F46FEF818121E055
:10141000438190E0D5CFEBE1F5E0628120E1621BF2
:1014200008F460E0818121E0438190E0C9CFEBE1E5
:10143000F5E0438120E1420F08F44FEF818121E084
:10144000628190E0BDCFEBE1F5E0438120E1421BFA
:1014500008F440E0818121E0628190E0B1CF2091E9
:101460001F0530E1230F08F42FEF20931F0581E0C3
:1014700019CE20911F0530E1231B08F420E02093B2
:101480001F0581E00FCE81E090E0209120052F3FE5
:1014900009F080E089559E4FFC01808180932005F2
:1014A00081E000CE81E090E0209120052F3F09F0FF
:1014B00080E089559E4FFC0180818093200581E06A
:1014C000F1CDFC018481862351F492819115B9F00C
:1014D0006923808583FF05C081E061110FC080E032
:1014E0000895292F22952F709F70292B962F929562
:1014F0009F706F70962B81E02913F1CF089581E0E2
:101500000895382F25EB3203C001112497FF04C042
:1015100080589109892F089580589F4FFBCF809163
:10152000870580FD14C081FD14C082FD16C0809126
:101530008605811581F08E3180F420E5829FC001FF
:1015400011246EE170E00E94422B862F089584E101
:10155000089588E2089588E0089580E508958091CF
:10156000870580FD17C081FD17C082FD19C08091DD
:101570008505811599F0883298F428E0829FC00192
:10158000112468E270E00E94422B6115710551F050
:10159000862F089562E0FCCF64E0FACF61E0F8CFD7
:1015A00068E0F6CF81E00895853068F5EDE8F3E076
:1015B00040E050E097E0949F9001959F300D1124FA
:1015C000D901AE56BC4F7C9173FF07C0768178136A
:1015D00004C0C90183579C4F08954F5F5F4F3796F2
:1015E0004330510541F7611571F09091920393FFDB
:1015F0000DC09091990393FF1CC09091A00342E00D
:1016000050E093FF05C080E090E0089540E050E096
:1016100097E0949FD001959FB00D1124FD01E357F1
:10162000FC4F8683AE56BC4F8C9188608C93CF0163
:10163000089541E050E0ECCF4115510511F0FA0159
:1016400009950895E0915D05F0915E05309739F0B8
:101650000190F081E02D309711F00995089580E018
:101660000895A3E0B0E0E7E3FBE00C941B2B20918E
:101670008B0330918C0328173907B1F080938B03CB
:1016800090938C03E0915D05F0915E05309761F0D9
:101690000084F185E02D309739F023E029838A8397
:1016A0009B83CE01019609952396E2E00C94372B9B
:1016B000A3E0B0E0EEE5FBE00C941B2B2091890346
:1016C00030918A0328173907B1F0809389039093EA
:1016D0008A03E0915D05F0915E05309761F000842A
:1016E000F185E02D309739F024E029838A839B83AC
:1016F000CE01019609952396E2E00C94372B909148
:101700001C01913099F0ACE4B3E0EFEF90E02C9144
:10171000821759F01196EF3F19F4211101C0E92FFA
:101720009F5F9630A1F7EF3FC1F408959091EC05CB
:1017300097FFE9CFE82FE695E695E695803FA8F775
:10174000F0E0EE5AFC4F877021E001C0220F8A952D
:10175000EAF78281822B82830895FE2FFF0FFF0B11
:10176000E65BFC4FF8CF90911C01913021F49091F1
:10177000EC0597FD0CC0ECE4F3E09191891302C0F5
:10178000DF011E9293E0E235F907B9F70895E82FDB
:10179000E695E695E695803FC8F7F0E0EE5AFC4FF7
:1017A0009DEF81FD97EF80FF959582FD9295828157
:1017B00089238283089580911B0108952FB7F8949F
:1017C00060918503709186038091870390918803CF
:1017D0002FBF0895CF92DF92EF92FF92CF93DF93C6
:1017E000EC01C0909505D0909605E0909705F0909B
:1017F0009805E4DFDC01CB018C199D09AE09BF0916
:10180000843F9140A105B10508F1D8DF6B017C014F
:1018100082E390E0C0921205D0921305E092140585
:10182000F092150580930E0590930F051092100508
:1018300010921105CE01C093930590939405DF910A
:10184000CF91FF90EF90DF90CF90089584EF91E0DB
:10185000E1CFFC0120917B0330917C0326173707F1
:1018600048F06115710529F49091E8009E779093F6
:10187000E8009B0190E02115310541F4911106C06B
:101880008091E80082FF32C080E0089580912305B6
:101890008115C1F18530C1F18091E80083FD30C030
:1018A0008091E80082FDECCF8091E80080FFE3CFDB
:1018B0008091F3004091F200582F2115310519F065
:1018C0004830510558F091E04830510509F090E05A
:1018D0004091E8004E774093E800CDCF819180930E
:1018E000F100215031094F5F5F4FE7CF8091230511
:1018F000811541F0853041F08091E80083FFC0CF31
:1019000081E0089582E0089583E00895982F9093F0
:10191000E900891771F07091EC002091ED00509171
:10192000F00021FD09C09F5F973089F78093E9009F
:101930000895762F242F50E03091EB003E7F3093B6
:10194000EB003091ED003D7F3093ED003091EB00E6
:1019500031603093EB007093EC002093ED005093D6
:10196000F0002091EE0027FDDECF089580917503F1
:1019700087FF13C08091E80082FF06C08091E800D5
:101980008B778093E8000895809123058111F2CF31
:101990000895809123058115D9F38091E80080FF97
:1019A000F8CF8091E8008E77ECCF2091E400309161
:1019B000E50095E6A9012091EC00822F817020FFBF
:1019C00006C08091E80080FF06C080E00895209165
:1019D000E80022FD1AC080912305811589F0853029
:1019E00089F08091EB0085FD0FC02091E4003091DB
:1019F000E50042175307F9F29150E1F684E00895AB
:101A000082E0089583E0089581E00895CF93DF9305
:101A1000C8EDD0E088818F7E8883E7EDF0E080819B
:101A20008160808384E082BF81E080937403888139
:101A30008E7F8883E2EE10821092DA00A1EEB0E091
:101A40001C9288818F7788838881806888838881C9
:101A50008F7D888319BC1092230510927303109216
:101A6000F80410927203A0EE8C918B7F8C93888186
:101A70008160888342E060E080E048DFA1EEB0E072
:101A80008C918E7F8C93E2EEF0E080818160808388
:101A9000808188608083E0EE80818E7F8083888172
:101AA00080618883DF91CF910895E8EDF0E0808137
:101AB0008E7F80831092E2001092DA001092E10093
:101AC000A0EEB0E08C9181608C9380818F778083D1
:101AD00019BCA7ED8C918E7F8C9380818F7E808343
:101AE00010927403089581E08093E00080E2809377
:101AF000D8001092C9008FE19EE40197F1F700C071
:101B00000000A7E0B0EBCD018093EF059093F005C6
:101B1000A093F105B093F20588E19CE00FB6F8942C
:101B2000A895809360000FBE90936000FFCF0F9345
:101B30001F93CF93DF93EB018A019091230594309B
:101B400059F58093E9008FEF9091E80095FD06C06C
:101B500095ED9A95F1F700008150B1F78091E8007A
:101B600085FF1AC022DF811112C08091E80085FD37
:101B700006C08091E8008E778093E800F3CF8881DB
:101B80008093F1000150104011F02196EECF80912A
:101B9000E8008E778093E800DF91CF911F910F913D
:101BA0000895603229F440E250E0BC0182E0BFCFEA
:101BB0000895CF93DF93EC0148E050E0BC0181E051
:101BC000B6DF88E0FE01ADE7B3E001900D928A95A3
:101BD000E1F7DF91CF91089540E250E0BC0184E04D
:101BE000A6CF46E050E0BC0184E0A1CF43E050E046
:101BF000BC0184E09CCF9091ED0592FB222720F957
:101C0000281779F080FB92F99093ED056091EC052F
:101C10007091ED0584E090E00E94BE2B82E00C9470
:101C20006B0508951F93CF93DF93122F8530E0F457
:101C30006530D0F44F30C0F4C42FD0E0CC0FDD1F9E
:101C40002EE1629FC00DD11D112496E9899FC00D20
:101C5000D11D1124632FCE0189960E94A42B612FE0
:101C6000CE018A960E94A42BDF91CF911F910895F7
:101C7000AF92BF92CF92DF92FF920F931F93CF93B9
:101C8000DF93A12CB12C00E0650110E012C0FE0131
:101C9000259135914F2D612F802FC4DF2296F3942B
:101CA0008F2D8F30A1F78FE0C80ED11C1F5F15302C
:101CB00039F0E601CC0FDD1FC359DD4FF12CE7CF22
:101CC0000F5F8BE4A80EB11C0530F1F6DF91CF91C8
:101CD0001F910F91FF90DF90CF90BF90AF9008952C
:101CE0000F931F93CF93DF93853008F56530F8F499
:101CF0004F30E8F4C42FD0E0CC0FDD1F9EE1699F88
:101D0000C00DD11D112496E9899FC00DD11D11244C
:101D1000CE0189960E94882B082FCE018A960E94B8
:101D2000882B902FDF91CF911F910F91089580E024
:101D300090E0F8CF462F753030F46F3020F48530C6
:101D400010F4672FCDCF80E090E00895CF92DF921E
:101D5000FF920F931F93CF93DF936C010091EE05D9
:101D60008091A405082BC4E0D0E010E0C8010C2E3F
:101D700002C0959587950A94E2F780FD0CC02197E3
:101D8000A8F7F12C8F2DDF91CF911F910F91FF902C
:101D9000DF90CF900895FC2EB6018C2FCBDF0E94F0
:101DA0008C06019761F3EECF1F93CF93DF93FC0175
:101DB0002581C081D181CE01211579F0611569F0AD
:101DC000C5DF182F682FCE010E94BB04BE01812FF2
:101DD000B1DFDF91CF911F9108950E94F104182F78
:101DE000F5CFCF93DF93EC01B1DFBE01A3DF0E94FB
:101DF0008C06DF91CF910895FC012481211599F083
:101E000080819181EEDF282F92959F70963099F016
:101E100060F4925F9F70923030F4203FB1F038F45C
:101E200081E0283E38F080E008959A5FF3CF81E0AA
:101E3000243FC9F7089591E0213F09F090E081E047
:101E4000283E08F080E0892B089581E00895693EDE
:101E500071058105910528F4CB01895E9C4F0C9496
:101E6000882B80E00895CF92DF92EF92FF92CF937C
:101E7000DF93EC01C880D980EA80FB80B601C701FE
:101E8000E6DF9FEFC91AD90AE90AF90AC882D9829E
:101E9000EA82FB82DF91CF91FF90EF90DF90CF90AD
:101EA000089585E290E00E94882B853269F486E2ED
:101EB00090E00E94882B823139F487E290E00E9402
:101EC000882B91E0863109F090E0892F8170089588
:101ED00048E050E067E170E08BE195E00E94952BCF
:101EE0001092F504089589E080931B0580915701B5
:101EF00090915801A091590180931C0590931D0564
:101F0000A0931E058FE780931F058FEF8093200518
:101F1000DFCFCF92DF92EF92FF92CF934FDCAB01F6
:101F2000BC014093EC045093ED048093EE04709355
:101F3000EF04C091F00480911701823009F46AC067
:101F4000F0F4811125C0109208014093F1045093E0
:101F5000F2046093F3047093F4049091F7049111E8
:101F600008C080911B05837021F080911B05869528
:101F700086958093F00481E08093170103C083303D
:101F800009F452C0CF91FF90EF90DF90CF90089569
:101F90008C2F94D8C115B1F380911701823049F488
:101FA00051DB81FF06C02FEF4FEF6FEF8EE190E026
:101FB0007FD88091EE050E947904823001F188F487
:101FC00021E245EA69ED81111DC03CDB2FEF4FEFA7
:101FD00081FD1EC021E040E060E080E090E0F0D9AB
:101FE000D1CF833099F0843069F623E343E36EEE7A
:101FF0008BE390E05DD823E343E36EEE03C020E083
:102000004FEF60E88DE390E053D8BCCF2DE44CE770
:102010006FEFF8CFC093190180911B0583708093F7
:10202000180195D083E0A8CF8091F504811150DF8D
:10203000C090F104D090F204E090F304F090F40426
:10204000BDDBDC01CB018C199D09AE09BF094A97A4
:10205000A105B10508F496CF1092170193CFA0E126
:10206000B0E0E5E3F0E10C940D2BFE013196DF01C9
:1020700080E11D928A95E9F70FE010E097E1A92E23
:1020800093E0B92E612C712C23014A189E2E8F2EBD
:102090006201730181E148165104610471041CF06E
:1020A00080E1C82ED12CA601B501892D982D0E9462
:1020B000952BAC0CBD1C0D2C000C00084C185D08B9
:1020C000600870080150104019F76096E0E10C9428
:1020D000292B6FEF85E290E00E94A42B6FEF86E240
:1020E00090E00E94A42B6FEF87E290E00E94A42B67
:1020F00060E088E290E00E94A42BBADDB0DF65E2E8
:1021000085E290E00E94A42B62E186E290E00E94CA
:10211000A42B66E187E290E00C94A42BA1E0B0E050
:10212000E4E9F0E10C94192B4983E82FF0E0EB553A
:10213000FE4F808104E610E09D01AE014F5F5F4FCE
:10214000880F0E94A92A2196E4E00C94352BA0E088
:10215000B0E0EDEAF0E10C94142BC4E3D4E095EA8E
:10216000E92E91E0F92E88818115D9F06E0180E980
:10217000C81AD10884E2B82EF701808104E610E085
:1021800020E130E0A6016B2D880F0E94A92A8B2D3B
:10219000805FB82E80E1C80ED11C8B2D843B61F787
:1021A0001882CC55DF4F8FEFE81AF80A85E0CC375C
:1021B000D807C9F6CDB7DEB7E9E00C94302BA4E020
:1021C000B0E0E5EEF0E10C94152B0E94762A10E0C9
:1021D0004BE06DEF812FA2DF40E06AE0812F9EDFB0
:1021E0008FE39CE90197F1F700C0000040E060E058
:1021F000812F94DF40E061E0812F90DF40E066E0D6
:10220000812F8CDF40E06DEF812F88DF00E040E020
:10221000602F812F83DF0F5F0231C9F740E0602F0D
:10222000812F7CDF0F5F0432C9F740E0602F812FE0
:1022300075DF0F5F043BC9F74BE06DEF812F6EDF59
:1022400041E06AE0812F6ADF40E06DEF812F66DFB9
:10225000812F11E0813009F0BBCF0BE515E081E063
:10226000E82EF12CDE2C44E050E0B801CE010196BE
:102270000E94622B6A814B812C8189818370E62FB9
:10228000E695E695E69534EA839FC00111248C55C6
:102290009C4FE80FF92FF11DEF56FF4F6770D701E4
:1022A00001C0AA0F6A95EAF730813A2B3083E42FF8
:1022B000E695E695E695E80FF92FF11DEF56FF4FED
:1022C0004770B70101C0660F4A95EAF73081362B97
:1022D0003083E22FE695E695E695E80FF92FF11D9C
:1022E000EF56FF4F27704E2D01C0440F2A95EAF795
:1022F0003081242F232B20838D559F4FFC01D082CA
:102300000C5F1F4F86E00736180709F0ACCF05E3D6
:1023100014E0F12CF8018289811579F06801E12C33
:10232000F60141916F016E2D8F2DF8DE8E2D8F5F9E
:10233000E82E8231A9F7F801128A8F2D0C551F4F14
:10234000FF24F394813031F72496E8E00C94312B8C
:10235000A4E0B0E0EEEAF1E10C94182BF62E042F85
:10236000122F83349105E8F5880F991F880F991F64
:10237000855A9A4FBC01AD01CE0101960E94622B95
:10238000898183706A815B814C8124EA829FC001CC
:1023900011249C012C553C4FF901E60FF11D708171
:1023A0007F110CC0F901E50FF11D7081701306C09B
:1023B000240F311DF9012081211799F08C559C4F74
:1023C000FC01E60FF11DF082FC01E50FF11D008319
:1023D000FC01E40FF11D108380579F4F21E0FC01A9
:1023E00020832496E5E00C94342BFF920F931F93E7
:1023F000CF93DF93182F062FF42EC0E0D0E02F2DBF
:10240000402F612FCE01A4DF2196C334D105B9F747
:10241000CDB7DEB7E5E00C94342B1F921FB61F92A8
:1024200011248F939F93AF93BF938091F6048111F2
:1024300013C08091850390918603A0918703B0918A
:1024400088034196A11DB11D809385039093860357
:10245000A0938703B0938803BF91AF919F918F9111
:102460001F901FBE1F9018952FB7F8948091850379
:1024700090918603A0918703B09188032FBF0895A0
:10248000CF93C091A1058091A505C82B8091A2058D
:10249000811539F1E9DF2091A9053091AA05821B48
:1024A000930B8C3D954010F00E948D058091A20504
:1024B000C82B80911C01813021F48091EC0587FDAF
:1024C00019C086E02CE433E090E08150F9014081AE
:1024D0002F5F3F4F41119F5F8111F7CF91110E94F4
:1024E0008D0580918F0580958C2390918E05892B89
:1024F000CF9108958EE124E533E0E6CF80911C0171
:10250000813061F58091EC0587FF28C0B9DF8093A9
:10251000530340E250E06DE375E082E593E00E94F2
:102520006B2B892BD1F080E2E2E5F3E0ADE3B5E07F
:1025300001900D928A95E1F7E0915D05F0915E05BD
:10254000309759F00480F581E02D309731F086E026
:102550008093520382E593E00995089591DF80937B
:102560004A0348E050E06FE575E08AE493E00E949A
:102570006B2B892B91F388E0EAE4F3E0AFE5B5E05B
:1025800001900D928A95E1F7E0915D05F0915E056D
:10259000309719F30280F381E02D3097F1F28AE44D
:1025A00093E0DACF811531F09091A105982B9093AB
:1025B000A105A4CF0895811531F09091A505982B20
:1025C0009093A5059BCF0895811519F00E9485056C
:1025D00095CF0895811539F080959091A5058923AF
:1025E0008093A5058BCF0895CF93DF93EB01FC017A
:1025F0004481558160857185CE011ED89B8190955F
:102600008091A50589238093A5058C810E9485056D
:1026100075DF87E019928A95E9F7DF91CF910895E8
:102620000F931F93CF93DF938C01EB018D8181FD7D
:1026300017C082608D838091A5059B81892B809333
:10264000A5058091A1059C81892B8093A10556DF6A
:10265000F8014281538160857185CE010E941C0B77
:1026600010929B0510929C058D8180FD03C0BE01D8
:10267000C801BADFDF91CF911F910F91089590911A
:10268000ED0592FF0FC0982F990F990F990F936046
:102690009093A6050E949104E7DE8093A70590938E
:1026A000A80508950C9491040E9446048093540157
:1026B000833089F0843031F0823081F4E0DF81E0D2
:1026C0000C946B058091EE05811529F082FF03C003
:1026D00082E00C949A0482E00C94910408950E9484
:1026E000460480935201833099F0843039F082306F
:1026F00089F483E0C4DF81E00C946B058091EE05E2
:10270000811529F083FF03C083E00C949A0483E0D1
:102710000C9491040895CF93DF93EC01A5DE8C1BFC
:102720009D0BDF91CF910895AAE0B0E0EAE9F3E1D3
:102730000C94132BFE013196DF018AE01D928A95DD
:10274000E9F79DEBE92E92E0F92E8F01BE2EA12E26
:10275000F70181917F018F3F09F444C0F894E82F7D
:10276000E295EF70F0E021A18F7041E001C0440FCD
:102770008A95EAF7922F942B91A392A1842F8095AA
:10278000892382A3789400C0E2ECF2E021E030E0FB
:10279000C12CD12C41914F3F79F0A42FA295AF705D
:1027A000A05EB0E08C9190E04F7002C09595879547
:1027B0004A95E2F780FF3DC080E090E0C82AD92A20
:1027C000220F331F82E0E13DF80721F7F7018291E4
:1027D0008F3F11F00E947A0780EA8A95F1F7F8019D
:1027E000C082D1820E5F1F4F82ECE81682E0F806AD
:1027F00009F0AECF4AE050E06B2D7A2D81E395E0F1
:102800000E946B2B892BB9F08AE0EB2DFA2DA1E306
:10281000B5E001900D928A95E1F781E0809326055D
:1028200023DE80932405909325052A96EAE00C94F4
:102830002F2BC901C3CF809126058115B1F30091DB
:1028400024051091250510DE801B910B039768F37A
:102850004AE050E061E375E087E295E00E946B2B6F
:10286000892B49F08AE0E1E3F5E0A7E2B5E00190C9
:102870000D928A95E1F710922605D7CFF5DD9C01E0
:1028800090918A0580918B05982B21F02093180553
:102890003093190590918C0580918D05982B21F02E
:1028A0002093160530931705E0915D05F0915E05C4
:1028B000309759F00680F781E02D309731F082E0B3
:1028C0008093880588E895E009950895611509F4D5
:1028D00048C0E82FED5CE33150F4F0E0EC53F44DE8
:1028E0000C94552B0E948F0A819580938B05C6CF3F
:1028F0000E948F0AFACF0E948F0A819580938A05E1
:10290000F6CF0E948F0AFACF0E94AF0A80938C05FF
:10291000EECF0E94AF0A8195F9CF0E94AF0A819550
:1029200080938D05E4CF0E94AF0AFACF815D990BA9
:1029300021E001C0220F8A95EAF780918905822B58
:1029400080938905D4CF8091870581608093870526
:10295000CECF809187058260F9CF80918705846012
:10296000F5CF40918A058D3C59F480918B0587FF06
:102970000DC010928B05411559F41092860508C0C0
:102980008E3C81F480918B0518169CF3411581F0E3
:1029900080918C0590918D05892B09F0A8CF10921C
:1029A0008505A5CF8F3C41F447FFF0CF10928A05F3
:1029B00080918B058115E0CF803D19F41416B4F396
:1029C000E5CF90918C05893D29F41916FCF61092FB
:1029D0008C05DCCF8A3D19F497FFD8CFF8CF9091C2
:1029E0008D058B3D29F497FFD1CF10928D05CECF69
:1029F0008C3D19F41916CCF3C9CF982F915D9830FE
:102A000078F4815D990B21E001C0220F8A95EAF7E5
:102A1000822F809590918905892380938905B6CF6F
:102A20008D3D31F4809187058E7F80938705AECFF1
:102A30008E3D21F4809187058D7FF7CF8F3D09F082
:102A4000A5CF809187058B7FF0CFCF93C82F8115BD
:102A5000C9F08450813A80F580911C01813021F4C5
:102A60008091EC0587FD10C0ECE4F3E08081C8178D
:102A7000F1F0319683E0E235F807C1F78C2F0E9420
:102A80007F0B3CDDCF910895EC2FE695E695E6951A
:102A9000F0E0EE5AFC4F828190E04C2F477021E02D
:102AA00001C0220F4A95EAF78223892B39F38C2F34
:102AB0000E94B30B23DDE2CF8C2F805E883060F460
:102AC000C77081E001C0880FCA95EAF7C091A105DF
:102AD000C82BC093A105D5CF8C2F855A833030F4F5
:102AE0008C2F8452990B0E94310BCCCFEC2FE85ADB
:102AF000EB3150F4F0E0EE0FFF1FE95FFC4F8081F7
:102B000091810E94580BBECF8C2F8D5C833108F0D1
:102B1000B9CF61E08C2FDADEB5CFCF93DF93EC0134
:102B2000805E9109089720F06BED72E1209711F417
:102B300062ED72E1CE010E9470048C2F86DFDF917E
:102B4000CF910895CF93DF93EC018A81823039F4DD
:102B5000FB0182819381E1DF8D8182608D83DF9132
:102B6000CF910895FB0180819181D7CF811561F1CB
:102B7000982F9450913A18F40E94B30BBFCC982F21
:102B8000905E983058F4982F81E091FD84E090FD9C
:102B9000880F92FD82950E948505F0CF982F955A57
:102BA000933020F480E090E00C94310B982F985AE9
:102BB0009B3120F480E090E00C94580B982F9D5CA2
:102BC000933110F460E082CE0895CF93DF93EC014F
:102BD000CDDFCE01805E9109089720F06AEE72E1A8
:102BE000209711F464EE72E1CE010E947004DF912F
:102BF000CF910895FC018281813029F4FB0180810D
:102C00009181E3CF08958230E9F7FB0182819381BE
:102C1000F8CF1F93CF93DF93182FEB0116DF209788
:102C200031F4812FA3DFDF91CF911F9108958FE9B8
:102C30009FE00197F1F700C000002197F0CF0E94BC
:102C4000460480935601833089F0843031F082301D
:102C500081F460E570E089E3DCCF8091EE058115B9
:102C600029F081FF03C081E00C949A0481E00C9468
:102C7000910408951F93CF93DF93182FA09191058E
:102C8000B0919205109709F447C0109293051092E5
:102C9000940510928F0510928E051696CD91DD91B8
:102CA00018979E0131503F3100F4D1E0C11101C0AD
:102CB000D0E01996ED91FD911B97309731F01B965E
:102CC0006D917D9180E00995D823D11539F08C2F35
:102CD0008450813A28F58C2F0E94B30B1115A9F06E
:102CE000E0919105F0919205808584FD0EC0809160
:102CF0009005811551F0808191819C01215031090D
:102D00002F333E4710F40E94EA0BF8DB1092910536
:102D10001092920510929005DF91CF911F91089526
:102D2000EDDB8C2F23DFDACF1092A10580911C01FF
:102D3000813011F58091EC0587FF1EC0E4E5F3E0DA
:102D40008EE111928A95E9F780E090E00E94310BC4
:102D500080E090E00E94580B1092A505CFDBE8E8D8
:102D6000F5E086E011928A95E9F7109286051092B7
:102D700085051092870582CDECE4F3E086E0E1CF93
:102D8000D3DF8FEF94E32CE0815090402040E1F7B7
:102D900000C0000088E19CE00FB6F894A8958093ED
:102DA00060000FBE90936000FFCFAAE2B0E0EBEDB1
:102DB000F6E10C941A2B85E793E0FC010196209133
:102DC000F100208323E08D379207B9F780917603D5
:102DD000893009F459C0C8F4823009F4B7C083308F
:102DE00009F486C0813089F18091E80083FFEBC04F
:102DF00080917503909176039A3008F0E4C0E92F32
:102E0000F0E0E952F44D0C94552B8A3009F48DC052
:102E10008B3051F780917503813231F780917903BE
:102E200090917A03892B01F78091E800877F809346
:102E3000E8000E94B60C81E090917703911101C0E7
:102E400080E080931C0170DFCFCF80917503813AC1
:102E500059F68091E800877F8093E800809179039C
:102E600090917A03892B61F060E080E090E070E05F
:102E70000E94290C8091E8008B778093E800B4CF02
:102E800068E08DE793E0F3CF80917503813209F01C
:102E9000ABCF8091790390917A038D7F892B09F0D4
:102EA000A3CF8091E800877F8093E8008091E800BD
:102EB00082FF19C02091F3008091F200922F0297B7
:102EC00031F48091F100813011F0863021F480914D
:102ED000F10080931B018091E8008B778093E800DC
:102EE0000E94B60C81CF809123058111DFCF7CCF6A
:102EF00080917503813A09F077CF809179039091A1
:102F00007A03892B09F070CF8091E800877F809346
:102F1000E8008091E80080FFFCCF80911C01809345
:102F2000F1008091E8008E77D9CF809175038132CE
:102F300009F05ACF8091E800877F8093E8000E94D3
:102F4000B60C8091780380931A014ECF809175035F
:102F5000813A09F049CF8091E800877F8093E800AB
:102F60008091E80080FFFCCF80911A01D8CF803893
:102F700089F0823841F5809179038F70873018F598
:102F80008093E9008091EB0085FB882780F91092FF
:102F9000E90006C08091F804880F90917203892B94
:102FA0009091E800977F9093E8008093F100109251
:102FB000F1008091E8008E7723C0811116C08091C6
:102FC0007703813011F18091E80083FF0AC080917E
:102FD000E800877F8093E8008091EB008062809317
:102FE000EB00AA96E3E00C94362B823061F78091D7
:102FF0007703811581F01092E9008091E800877FC6
:103000008093E8000E94B60CDECF933009F080E098
:103010008093F804F0CF809179038F70282F21508E
:10302000263088F68093E9002091EB0020FFE3CF63
:10303000933031F48091EB0080628093EB00DBCF22
:103040009091EB0090619093EB0021E001C0220F82
:103050008A95EAF72093EA001092EA008091EB004B
:103060008860EBCF8111AFCF809177038F77182FD6
:103070008091E3008078812B8093E3008091E800C9
:10308000877F8093E8000E94B60C8091E80080FF63
:10309000FCCF8091E30080688093E30083E011110E
:1030A00001C082E0809323058ECF8058823008F0E3
:1030B0008ACF80917703909178038C3D23E092072B
:1030C00091F583E08A838AE289834FB7F894DE0121
:1030D000139620E03EE051E2E32FF0E050935700DA
:1030E000849120FF03C082958F703F5F8F708A307C
:1030F000C0F0895C8D931D922F5F243169F74FBF1B
:103100008091E800877F8093E8006AE270E0CE015A
:1031100001960E94290C8091E8008B778093E8004B
:1031200052CF805DE7CF292F30E02330310509F4FD
:103130004DC078F52130310509F47CC08BE590E075
:10314000E8ECF1E02230310509F03DCF2091E800B4
:10315000277F2093E80020917B0330917C03821726
:10316000930708F49C0140E02115310509F067C080
:10317000411165C08091E80082FDCDCF809123058B
:10318000811549F2853039F28091E80083FFF2CF52
:10319000C2CF8091790390917A0321323105D9F120
:1031A0002232310509F00FCF8330910508F00BCFA3
:1031B000FC01EE0FFF1FE756FE4F0190F081E02D5E
:1031C0008A569E4FDC018C9190E011C0282F30E090
:1031D000813089F022303105B1F0232B09F0F3CE94
:1031E000E9E6F2E0E4918E2F90E0E9E6F2E0009764
:1031F00009F4E9CEABCFE7E5F2E0E4918E2F90E061
:10320000E7E5F2E0F4CFE5E3F2E0E4918E2F90E021
:10321000E5E3F2E0ECCF8330910508F0D4CE880FDF
:10322000991FFC01E156FE4F0190F081E02D89E0ED
:1032300090E08CCF82E190E0E3E2F2E087CF8091F2
:103240002305811509F467CF853009F464CF809197
:10325000E80083FD60CF8091E80082FD8BCF8091F4
:10326000E80080FF81CF4091F3008091F200942F1D
:103270002115310519F08830910550F041E008978B
:1032800009F040E08091E8008E778093E8006CCFF1
:1032900044914093F1003196215031090196E8CFD5
:1032A000803809F090CE8091E800877F8093E80015
:1032B000809173038093F1007CCE811184CE809144
:1032C0007703182F823008F07ECE8091E800877F48
:1032D0008093E800109373030E94B60C1115F9F067
:1032E00084E08093230542E061EC81E00E94860C3B
:1032F00042E261EC84E00E94860C42E261EC82E0F2
:103300000E94860C42E260EC83E00E94860C809171
:103310002305843051F482E080931D0154CE8091C6
:10332000E30087FDDDCF81E0DCCF81E0F5CFFF92C8
:103330000F931F93CF93DF93C62FD42FF22E8115B7
:10334000A1F060939F0590D88093A2039093A3036C
:1033500081E0C1FD84E0C0FD880FC2FD829522D9C5
:10336000CDB7DEB7E5E00C94342B80919F05681350
:103370002FC00091A2031091A30376D8801B910B5C
:10338000883C910528F51D2F105ECD1791F0C77070
:1033900001E0802F01C0880FCA95EAF715D91830CF
:1033A00040F48D2F877001C0000F8A95EAF7802FB7
:1033B000F9D860E070E08F2D2CDC81E0D1FD84E055
:1033C000D0FD880FD2FD8295183050F6FDD8C8CFB9
:1033D00081E0C1FD84E0C0FD880FC2FD8295F6CF7B
:1033E000ABE0B0E0E6EFF9E10C940B2B6C01FC01D3
:1033F0008481811509F4B9C061E0C6010E94D40E30
:103400005C01F6018581811501F1E0909B05F0904A
:103410009C05E114F104C9F0AE14BF04B9F08E2D7F
:1034200090E000E010E0853040F42AE0289F800121
:10343000299F100D1124015E1E4F60E08E2D0E9409
:10344000D40AFC01892B09F03EC07501F6013580D4
:10345000311409F408C1C70197578038910508F065
:10346000E6C01E2D103108F071C068EE70E080E0FB
:1034700090E00E94270F811169C0A12CB12C450159
:10348000111131C089829A82AB82BC828E010F5F9A
:103490001F4FC8010E94330FB02EA12E813008F4B7
:1034A00055C009F07EC0C8010E94330F813071F50C
:1034B000C8010E94330F60E570E0893311F060E0CD
:1034C00070E0A7DBE6CF858184608583A082B1822E
:1034D000BF01C801A5D81092A50561E0C6010E94F0
:1034E000D40E7C01B3CF89EE88169104A104B104F7
:1034F00069F1B401C5010E94270F9FEF891A990A4B
:10350000A90AB90A8111EFCF1150BACF823029F43C
:10351000C8010E94330F99DABCCF833029F4C80167
:103520000E94330F23DBB5CF843071F4C8010E94B1
:10353000330FE12CF12C282F2053330B2A30310587
:10354000C0F0E114F10419F58111A3CF8091A60513
:10355000877059F0F6018581811539F08091ED056C
:1035600082FF03C082E00E946B052B96E2E10C947F
:10357000272B4AE04E9DC0014F9D900D1124280F2E
:10358000391F79018B2D9A2D0E94330FD4CFEFE98B
:10359000FFE03197F1F700C0000091E0E91AF1086F
:1035A000D0CFE82FF0E0E956F84F9491792E282FEC
:1035B00026952695269530E0F901E957F84FE490D5
:1035C0008770F12C082E02C0F594E7940A94E2F774
:1035D000F901E958F84FA490B12C082E02C0B59417
:1035E000A7940A94E2F72959384FF9018490912C55
:1035F00002C0959487948A95E2F7E0FE02C081EEBE
:1036000024DAA0FE02C086EE20DA60E070E0872DAA
:1036100000DBA0FE02C086EEA9DAE0FE02C081EE69
:10362000A5DA80FE36CF60E070E08CE24ACF8EE50E
:10363000E8168CE7F80699F08FE5E8168CE7F806AF
:1036400049F08DE5E8168CE7F80669F480911E01D3
:10365000811529F010921E0180E00CDB77CF81E00C
:1036600080931E0173CF80911E01811149C09F2D4F
:10367000975509F0F7C18E2C912C8E2D853008F0CE
:1036800065CFF60165810E94D40A8C01892B09F46B
:103690005DCFF6018581F801958180FB90F99583D6
:1036A000811509F4B9C10E94341280939D0590934D
:1036B0009E05F80182818F5F82838091A50590919C
:1036C000A105892B83838091A20584838AE0889D4C
:1036D000F001899DF00D1124E15EFE4F4081518182
:1036E00060857185C8010E941C0BF801858181FDF0
:1036F00090C19E2D8F2D90939B0580939C059DC01E
:10370000370180EE681A71089091A3058091A10598
:10371000982B8091A205982B9D8388E068167104F0
:1037200008F05FC09701277081E001C0880F2A95DB
:10373000EAF7311409F450C02D81282B2D83F601AE
:10374000808191810E94F10421E030E002C0220FCB
:10375000331F8A95E2F72A873B87809191059091E4
:1037600092058E839F838091990590919A05888711
:1037700099879DE3492E93E0592E07E413E0F20167
:10378000A080B180A114B10409F444C08D818111DD
:1037900004C0F5018281811118C0F501838190E098
:1037A0002A858223892B89F08085982F977009F4C8
:1037B00087E098E06916710408F076C0311409F4C6
:1037C0006FC086958170811174C082E0480E511CD3
:1037D00004151505A1F61EC080959D8198239D8333
:1037E000AECF31104AC08091990590919A05E816A4
:1037F000F90681F41092990510929A051092950598
:1038000010929605109297051092980510929305C4
:10381000109294058091910590919205009709F47A
:1038200026CF28E06216710408F0DEC06D810E9488
:10383000610A811102C081E01DDAF60195819115BE
:1038400009F409C510929F059701305723323105BD
:1038500008F01EC584E090E00E94902B8093EC0558
:103860009093ED05F701E150F047E232F10508F0E1
:1038700022C1EF51F44D0C94552BE0929905F09232
:103880009A050E94DE0B60939505709396058093D0
:1038900097059093980510929305109294054FCF39
:1038A00082FB882780F98FCF311409F48ECF80FFF7
:1038B0008CCFF50180809180E814F90419F431145B
:1038C00009F483CF8E819F818A159B0509F47DCFF2
:1038D000F5010584F685E02D309721F08081811572
:1038E00009F473CF6D81C5010E94610A811509F445
:1038F0006CCF81E0E814F90409F080E08321282EE0
:103900008114910441F0811106C08885998588163B
:10391000990609F05ACF80E0ADD9A0929105B092F6
:10392000920581E080939005F501858180938F0554
:1039300021100DC08114910451F0808191819C016E
:1039400024503109213A3105A0F50E94B30BF5014D
:1039500006811781C80191509F3108F4107E992487
:103960009394C80101978F339E4708F0912CF5017D
:103970000184F285E02D309749F0D5011B966D91B9
:103980007D9181E00995992D9823992E911471F0DC
:10399000F501868197810E94540480938E0588E00A
:1039A0006816710440F4C8010E94EA0B0E947E125E
:1039B0000AC0DCD8CCCFC8010497813A910548F4FD
:1039C000802F0E947F0B211409F451CE0E947E1299
:1039D000BDCD0E947E128FE39CE90197F1F700C0F4
:1039E0000000802F32D8EFCFFC0120813181E21618
:1039F000F30639F4311008C01092900580E03AD9EE
:103A000036CE311409F433CEFC01808585FD2FCEEE
:103A1000F5CF80E090E06FCE2AE0289DC001299D7F
:103A2000900D1124815E9E4F5C01FC0146815781FF
:103A300060857185C8010E941C0BF801858181FF9A
:103A4000FCCEB801C5010E94F41280919B059091B3
:103A50009C05E816F90609F0F0CE10929B0510922D
:103A60009C05EBCEF6018581F701E851FC47E73074
:103A7000F10508F0E2CEED5FF34D0C94552B26E2F4
:103A800041EE61EE54DC62CD27E245EE65EEFACF01
:103A900026E241EE60EEF6CF27E245EE64EEF2CF8D
:103AA00026E241EE62EEEECF27E245EE66EEEACF89
:103AB00028E241E0EBCF8091EC0581608093EC053A
:103AC0006091EC057091ED0584E090E00E94BE2BC2
:103AD0002BD93CCD8091ED0588608093ED05F0CF2A
:103AE0008091EC058260EACF8091EC058460E6CF9E
:103AF0008091EC058860E2CF8091ED058160EDCF8B
:103B00008091ED058260E9CF8091EC058061D6CF90
:103B10008091EC058062D2CF8091EC058064CECF9D
:103B200003D98091EC058068C9CF8091EC058C6049
:103B3000C5CF8091ED058360D0CF8091EC058E7F5D
:103B4000BDCF8091ED05877FC8CF8091EC058D7F3B
:103B5000B5CF8091EC058B7FB1CF8091EC05877F4D
:103B6000ADCF8091ED058E7FB8CF8091ED058D7F33
:103B7000B4CF8091EC058F7EA1CF8091EC058F7D35
:103B80009DCF8091EC058F7B99CFCED88091EC05AD
:103B90008F7794CF8091EC05837F90CF8091ED0556
:103BA0008C7F9BCF9091EC05892F8B7F92FF846057
:103BB000877F92FF886082CF8091ED05982F909546
:103BC00090FB80F990FB81F988CF9091EC05892FCB
:103BD0008F7B96FF806472CFA7D89091EC05892FD8
:103BE00097FB87F980586ACF61E08EE090E00E94F1
:103BF000A42B66CF60E0F9CF9091EC05892F8F7EE2
:103C000094FF80615BCF9091EC05892F8E7F90FFB0
:103C1000816054CF9091ED05892F877F93FF886055
:103C20005CCF80E025C389E230C38091A005811577
:103C300021F085E30E94B30BC9CE89E2FBCF81E07E
:103C40000E94900983CC811579F10E94D7097ECC1E
:103C5000811579F10E94F60979CC811579F10E94DC
:103C60000B0A74CC811579F10E94230A6FCC81155F
:103C700079F10E94390A6ACC8091A1058272F7011C
:103C8000E054F847EF30F10580F5E65FF34D0C9412
:103C9000552B0E94990981E00E94520857CC0E943E
:103CA000A609F9CF811589F20E94CD094FCC811563
:103CB00089F20E94ED094ACC811589F20E94FF0920
:103CC00045CC811589F20E94170A40CC811589F2F2
:103CD0000E942F0A3BCC811529F00E94520A36CC53
:103CE0008115D9F30E94430A31CC87E7E8168CE7A7
:103CF000F80601F188E7E8168CE7F80631F197013C
:103D0000205E32452032310528F591113AC08FE10D
:103D1000E82281E090E002C0880F991FEA94E2F760
:103D20007C01682F83E090E00E94A42B8E2D0E94DE
:103D30008B040CCC81E0911551F00E94910443E07A
:103D400062E081E00E94240501CC82E0F4CF0E9471
:103D50009A04F5CF911509F43FC08BE5E8168CE77E
:103D6000F80681F18CE5E8168CE7F80601F18AE5A2
:103D7000E8168CE7F80621F181E0E8168CE7F806F2
:103D800049F183E0E8168CE7F806F1F0E1148CE7DE
:103D9000F80611F50E9494168FEF94E32CE0815001
:103DA00090402040E1F700C000000E94730D809118
:103DB000ED05002482FF0394802D0E94FB0DC6CBED
:103DC00081E0FBCF80E0F9CF6FEF7FEF80E090E004
:103DD0000E94BE2B0E94C016F60100811181911530
:103DE00009F447C0C8010E94A60EF82E682FC8012A
:103DF0000E94BB04B8018F2D0E949A0E0E948C066F
:103E0000182FA92EF601B580F680F2948FE0F822E3
:103E10008091A605877001F1EB2CB114F1F0892F88
:103E2000807F803461F0812F805E8830A8F0892FF8
:103E3000807E803221F4123078F0F11469F08091A4
:103E4000ED0582FF09C082E00E946B058091A60506
:103E50008770EE24E3948111E12CEA2DE295EF7056
:103E60008A2D803C08F06AC0F0E0E75EF34D0C94C8
:103E7000552BC8010E94F104F82EBCCF0A2D0F70FB
:103E8000803110F00295007FB114B9F0011569F08E
:103E9000812F805E883010F0111109C08091A1053A
:103EA000802B8093A1050E947E12812F3FC08091BC
:103EB000A505802B8093A505F6CF812F0E94B6150E
:103EC0000115E1F1812F805E883010F0111104C0DE
:103ED000802F0E94850506C000958091A50580234E
:103EE0008093A5050E947E1229C00A2D0F70807F45
:103EF000803211F00295007F113040F009F474C057
:103F0000B11409F47FC0F114A9F1CFCF8091ED0570
:103F100082FD2CC0B11469F0011539F08091A10522
:103F2000802B8093A1050E947E1280E00E942515BF
:103F300005C080E00E94B6150111CACFE11409F452
:103F4000C0C08091A60580FDBCC0F6011582869593
:103F5000869586950E949104C60142DA8091A60555
:103F60008695869586950E949A04ABC0B114D1F0CF
:103F7000F11004C0802F0E94D212E0CF8F2D81302B
:103F8000E9F68091A205182F80230817B9F20E9444
:103F900034128093A9059093AA05812F802B8093DA
:103FA000A205CCCFF110CACF802F0E94E4129091CD
:103FB000A205802F892369F0802F80958923809323
:103FC000A20590E081110E9434128093A90590937C
:103FD000AA058091A305902F982309F4AFCF0095EF
:103FE00008230093A305AACF8F2DB11421F08330AD
:103FF00008F0A4CFBFCF823008F0A0CF802F0E945E
:10400000E4129CCFF114D1F3193349F48FEF97EEFA
:1040100023E0815090402040E1F700C00000812F54
:104020000E94B6158BCF869586958370813060F09F
:1040300009F084CF812F9A2D9370B11002C080E0D7
:1040400090E00E94580B7ACF812F9A2D9370B11077
:1040500002C080E090E00E94310B70CF6B2D812F69
:104060000E9466146BCF8370E1F5B11028C0812FD8
:10407000829586958770880F880F412F4F70082E84
:1040800001C0440F0A94EAF7212F207114FF06C0E3
:104090002FE001C0220F8A95EAF720958A2D869598
:1040A00086958370982F8230A1F08330B9F080918B
:1040B000A405913059F0242B82230E948B040E9486
:1040C000220B60E0C6010E94D40E4FCA842B822BC3
:1040D000F4CF242B8091A4058227EFCF822F842B4D
:1040E000ECCFB11459F1A0FEEACF812F82958695CD
:1040F0008770880F880F412F4F70082E01C0440F22
:104100000A94EAF7212F207114FF06C02FE001C0A6
:10411000220F8A95EAF720958A2D869586958370D9
:10412000982F823089F08330A1F08091EE05913094
:1041300041F0242B82230E948E04C1CF8230A8F646
:10414000BECF842B822BF7CF242B8091EE058227C4
:10415000F2CF822F842BEFCF8F70082FB11431F064
:104160000E949104812F0E94D212A9CF812F0E9418
:10417000E412802F0E949A04A2CF123F81F170F4C2
:10418000103FC9F0113F91F0B11409F450C0F1147F
:1041900009F44AC0812F0E94251591CF133F29F1C0
:1041A000143F91F78091ED0582FD2CC08A2D8F710F
:1041B000B11401F317C08F2DB11479F0823008F0DB
:1041C0007ECF8A2D8F71282F81E001C0880F2A951C
:1041D000EAF79091EE058927AECF8330F0CF8F714B
:1041E000B110C8CF0E9491046ACF80E0B11409F4E5
:1041F000A2CF8A2D8F71982F81E001C0880F9A95E8
:10420000EAF799CFB11429F08A2D8F710E943F13DC
:1042100056CF81E00E946B058F2D823008F44FCF7E
:1042200082E00E946B054BCF8A2D8F71DBCFF1149A
:1042300079F0193349F48FEF97EE23E081509040E5
:104240002040E1F700C00000812F0E94B61537CF53
:104250008A2D8F718FCF86E1E8168CE7F80609F07A
:104260000BCD8091A105282F217109F0DACC8A7A33
:10427000911509F4DACC91E0811101C090E090939E
:10428000A005811509F4CFCC85E30E947F0B9ECB5E
:1042900086E1E8168CE7F80621F38091A105827289
:1042A000F701E052F847EB30F10508F01ECDEB5D69
:1042B000F34D0C94552B8091EB05803170F4809177
:1042C000EA05811551F0E091AC052091AB053091E4
:1042D000E6054091E5052E1301C00895BF0187E072
:1042E000E89FF0011124DF01A355BA4F14968C9179
:1042F0001497811551F111968C911197831325C054
:104300008C91841322C015968C91159781111DC034
:1043100012968D919D91A091E705B091E8058A1BB9
:104320009B0B883C910588F48091EB058F70806130
:104330008093EB05ED54FA4F80818F70806180830C
:1043400085EE95E04DD80C9461056F5F7F4FFB01C2
:10435000E770C1CFADE0B0E0E0EBF1E20C94102BE0
:104360008C0186E0F801DE01189601900D928A9585
:10437000E1F7F801F580848195EE892E95E0992E7C
:104380007090E905711017C0811591F0F11409F4CE
:1043900014C1C8010E94FC0E811509F40EC187E00A
:1043A000F801A5EEB5E001900D928A95E1F783DF63
:1043B000FF24F39456C0D080A280B380C090EA0559
:1043C0002091E7053091E805A501421B530BC1146C
:1043D00009F4C3C0483C510508F079C0811541F388
:1043E0008091E6059180E090EB059E2D903108F0DC
:1043F00059C0981215C08091E5058D1111C0F110BA
:104400004BC08E2D8F7080618093EB0585EE95E01B
:104410000E94F0198091EB05F8018683F12C21C0F0
:10442000F1103AC040E0692D8D2D0E94420540E018
:10443000692D8D2D0E944205F82E8111EFCF8885C0
:1044400099850E94F10E292F22952F70903470F4D7
:104450009F702230A0F09115B1F0F8019681903153
:1044600090F48F2D2D96EDE00C942C2B2A5F2F705D
:10447000223068F0C8010E94F019FC2CF2CF91158F
:1044800011F0811571F3805E883058F3F3CF803FCF
:1044900040F3815F8330F9CF8091EB058160809399
:1044A000EB05BCCF98123AC08091E5058D1136C05E
:1044B000F11034C0E682C8010E94F01987E0F801CB
:1044C000A5EEB5E001900D928A95E1F771CFE090ED
:1044D000EB059E2D903150F485EE95E00E94F01989
:1044E000F40187E011928A95E9F798CF811509F4D4
:1044F0005FCF9091E6058181981310C08091E5050A
:104500008D110CC0F1100AC0E682C8010E94F0199A
:10451000F40187E011928A95E9F74ACFC8010E9419
:10452000FC0E811509F449C0F11409F446C08E2D22
:10453000803208F434CF8091E5059091E6058983B7
:104540009A83AB82BC827D821E828091EB058F8331
:10455000CE0101960E94F01922CF483C510508F087
:10456000BFCF811509F424CFF11439F19091E605FC
:104570008181981318C08091E5058D1114C0809138
:10458000EB0580FD9BCF803108F498CF8683807F38
:10459000803F09F490CF8681982F907F905F8F7035
:1045A000892B868388CFC8010E94FC0E8111F7CE2B
:1045B0008091EB0581608093EB05C8010E94F019A2
:1045C000F7CEABE1B0E0E7EEF2E20C94192B4E8BA4
:1045D0005F8B688F798F8A8F192F9B8F9111109223
:1045E000A5051D8A86E0FE017696DE011F960190E4
:1045F0000D928A95E1F70A8D8091ED0582FF1FC02B
:104600000E9434122091A7053091A805821B930BBC
:104610008C3D954038F08091A60582FD03C082E074
:104620000E946B050E9434122091A9053091AA05C1
:10463000821B930B8C3D954010F00E948D05011557
:1046400061F00B8B1C8B61E0CE010F960E94D40EA3
:1046500061E0CE010F960E94D40E0B8B1C8B87E07D
:10466000FE013F96DE01189601900D928A95E1F7C2
:10467000CE0108966FDE811128C02091AB053091E4
:10468000AC0587E0AE01485F5F4FFA014750510922
:10469000DA0101900D928A95E1F78C858115A9F0D8
:1046A000822F90E08395877090E0AC013417150657
:1046B000A9F40E9494161092AB051092AC05E5EE99
:1046C000F5E087E011928A95E9F78091AC05909129
:1046D000AB05891316C06B96E4E0C7C797E0929FBD
:1046E000D0011124A355BA4F9E012F5F3F4FF9010E
:1046F00001900D929A95E1F74093AB050E946105F8
:10470000E4CF27E0829FC001112483559A4F22DE17
:10471000811509F38091AC059091AD0501968770E4
:104720008093AC05D2CFA6E0B0E0E8E9F3E281C720
:104730000E9434128C0180913B0590913C058017BA
:10474000910771F019821A820E943412BC014981CA
:104750005A8180E090E035DF00933B0510933C05E3
:104760002696E4E082C7CDB7DEB7A5970FB6F894DA
:10477000DEBF0FBECDBF85B7806885BF85B78068B7
:1047800085BF84B7877F84BF0FB6F894A8958091C2
:104790006000886180936000109260000FBE80E826
:1047A00090E00FB6F89480936100909361000FBE83
:1047B00081E080931D0188E797E080934803909300
:1047C00049030E94550D0E94060D8091E20084600D
:1047D0008093E200789480912305811599F080916F
:1047E000E9001091EC008F7010FB112717F9182BBE
:1047F0001092E9008091E80083FD0E94D5161F7099
:104800001093E90082E084BD93E095BD9AEF97BDD7
:1048100080936E000E94510F811102C00E946910A6
:104820007DEBE72E72E0F72E02EC12E0F7018191AA
:104830007F018F3F11F00E947A070E151F05B1F717
:1048400062ECE62E62E0F62E01ED12E0F7018191B6
:104850007F018F3F11F00E947A070E151F05B1F7F7
:10486000E7E2F5E08AE011928A95E9F7E1E3F5E005
:104870008AE011928A95E9F780E090E051D7833E73
:104880009E4F21F40E94510F811127C063EE7EEFED
:1048900080E090E073D760E082E090E055D781E05F
:1048A0008093A40561E083E090E04ED760E074E17E
:1048B00084E090E063D70E94730F0E94691060E06B
:1048C00070E0AB018FE090E051D760E070E0AB01A9
:1048D00083E190E04BD70E94680F82E090E018D708
:1048E0008093030584E090E01BD78093EC059093C0
:1048F000ED050E9494138FEB9DE50197F1F700C041
:1049000000000E9494138091270580FF07C06FEF7D
:104910007FEF80E090E032D70E94730D83E090E05B
:10492000F7D60E948B040E94DF1081E08093F5048B
:1049300048E050E067E170E08BE195E0D9D6109255
:10494000F50480911B05843010F40E94730F21E060
:1049500040E060E080E090E00E94E0098BE091E0C0
:1049600080935D0590935E054E018FEF881A980A3B
:104970008091230500E113E052E1F52E853009F422
:10498000F1C00E94941344E0442E45E0542E87E287
:1049900095E08AA39BA3FC01D2012D913D918081DA
:1049A000918145E0AE30B40709F4E8C0329628178B
:1049B000390799F309EF14E019A2EAA1FBA1C1900C
:1049C000D190EAA3FBA3F201819191912F018C1563
:1049D0009D0509F44EC08C259D258CA39DA3E12C3B
:1049E000F12C5701A3948CA19DA18A219B21892B95
:1049F00099F135016C207D2021E0222E312C0E2CE6
:104A000002C0220C331C0A94E2F7F80180819181E4
:104A100082219321892BA9F4E98289A18A830E94AA
:104A200034128B839C8381E08D8391E06114710447
:104A300009F490E09E8349815A816B817C818D814C
:104A4000C0DD672849F420943094F8018081918179
:104A50008221932180839183AA0CBB1C8FEFE81ADB
:104A6000F80A8FE0E816F10409F0BDCFF201D29206
:104A7000C29289A18F5F89A30E5F1F4F853009F015
:104A80009CCF0E94DE0B7FC080912305843009F407
:104A90003AC00E94890F8091F70481110DC00E94D5
:104AA0005E081092190180911B0583708093180194
:104AB0000E94A7101093170181E08093F7041092D1
:104AC000F60488E190E020E40FB6F894A89580936E
:104AD00060000FBE2093600083B7817F846083BF36
:104AE00083B7816083BF7894889583B78E7F83BFB7
:104AF0000FB6F894A895809160008861809360005B
:104B0000109260000FBE0E949413E7E2F5E0A9EF57
:104B1000B4E080E0219131912D933D9391E0232BDE
:104B200009F490E0892B95E0E133F90799F78115B5
:104B3000C9F08091F8048115A9F009BDF9BC09B448
:104B400000FEFDCF8091D8008F7D8093D8008091AA
:104B5000E00082608093E0008091E00081FDFCCF66
:104B60000E94941680912305853009F48DCF0E9410
:104B700094160E94220B1092F70403CF28173907CE
:104B800009F018CFD0DD009193051091940501151F
:104B90001105A1F1C0901205D0901305E090140505
:104BA000F09015050E94DE0BDC01CB018C199D09EC
:104BB000AE09BF0940910E0550910F056091100597
:104BC0007091110584179507A607B707B8F0C801BB
:104BD0000E948D1510929305109294051092120563
:104BE00010921305109214051092150510920E05DF
:104BF00010920F051092100510921105E0909B0580
:104C0000F0909C05E114F10439F100919D0510919B
:104C10009E050E943412801B910B893C9105E0F0A7
:104C20008E2D90E000E010E0853040F42AE0289FCF
:104C30008001299F100D1124015E1E4F60E08E2D12
:104C40000E94D40A009741F0FC01258122FD04C096
:104C5000BC01C8010E9410130E94890F86E0E8E899
:104C6000F5E0D40101900D928A95E1F7B0908905A5
:104C7000D0908A05F0908B05C0908C05E0908D0552
:104C800010928A0510928B0510928C0510928D055A
:104C90008F2D8D2909F441C0009118051091190537
:104CA0000E943412801B910B9C01909186059115F6
:104CB00009F477C22531310580F19F3F19F09F5FDC
:104CC00090938605D11459F00E948F0A91E01D142B
:104CD0000CF09FEF899F802D112480938A05F11499
:104CE00059F00E948F0A91E01F140CF09FEF899FEA
:104CF000802D112480938B0580918A05811569F0A0
:104D000010918B05111549F00E94810A80938A0544
:104D1000812F0E94810A80938B058C2D8E2909F4A6
:104D200041C000911605109117050E943412801B96
:104D3000910B9C0190918505911509F42DC22135A7
:104D4000310580F19F3F19F09F5F90938505C11455
:104D500059F00E94AF0A91E01C140CF09FEF899F5C
:104D6000802D112480938C05E11459F00E94AF0A24
:104D700091E01E140CF09FEF899F802D11248093E9
:104D80008D0580918C05811569F010918D051115A7
:104D900049F00E94810A80938C05812F0E94810A2C
:104DA00080938D05809189058B1119C080918A05AA
:104DB000811511F08D1113C020918B05211511F073
:104DC0002F110DC090918D05911511F09E1107C006
:104DD00030918C05311103C0822B892B11F00E9478
:104DE0003E1486E0F401A8E8B5E001900D928A95A2
:104DF000E1F70E94220B90911A05891721F0809308
:104E00001A050E94DE0B80912305843009F0B0CD95
:104E100083E08093E9008091E80082FFA9CD809132
:104E2000E80090E085FF05C00E94D50C811591F047
:104E300091E08091E8008B778093E800911509F468
:104E400097CD8981E82FE150E33168F5F0E0E05D2E
:104E5000F34D2BC480E2E82EF12C84018091E80010
:104E600085FD0AC08091E8008B778093E8000E945E
:104E7000D50C811599F3DCCF8091F100F801808386
:104E800081E0E81AF108A1F20F5F1F4FE7CF1A8205
:104E90008CE08B8319C08A81833079F138F48130BA
:104EA00021F1823051F08FEF89830EC08430D9F721
:104EB0001B821C821D821E8207C088E290E028D4DB
:104EC0001B821C821D828E83E0915D05F0915E0540
:104ED000309709F44DCD0284F385E02D309709F425
:104EE00047CD60E2C401099543CD0E94DE0BE3D3B8
:104EF0006B837C838D839E83E7CF8B8190E0F4016D
:104F0000853091050CF73296118212820196F8CF06
:104F10008A81823031F0853031F680E00E9490093C
:104F2000D3CF6B817C818D819E81C5D388E290E057
:104F30000BD4CACF4C816B818A810E94700E982756
:104F4000892798278D839E83BFCF2D813E8132276D
:104F5000232732274C816B818A810E94120EB4CFA5
:104F60000E94380EB1CF9A81933009F09CCF8830DF
:104F700009F439C0893009F45AC08B81833061F15A
:104F800058F4813091F0823009F09ECF8C818111EC
:104F90001CC00E94A60998CF843009F095CF8C815F
:104FA00020E040911E056D810CC04C812FEF429F87
:104FB000040E40E0411D112480911C0520E0609109
:104FC0001D0590E00E94E0097FCF0E94990960E0F2
:104FD0008C810E94B20978CF8C8180931F0580E07C
:104FE0000E94520871CF8B818330F1F068F48130D8
:104FF000A9F0823009F068CF80911B05982F93703B
:1050000089F0869586950CC0843009F05DCF80913B
:105010001C058C8380911D058D8356CF80911E05C4
:105020008C8352CF80E0FCCF80911F05F9CF0E9486
:10503000680F4ACF80E18A8347CF1A8289EE29CF51
:105040004A805B80542445245424612C712C8401B3
:105050008C817401E80EF11C0E151F0509F434CF84
:1050600089EE481651046104710470F4C201895E2E
:105070009C4F4ED3F80184830F5F1F4F8FEF481A68
:10508000580A680A780AE8CF80E0F4CFBC80CA806A
:10509000DB80DC24CD24DC24E12CF12C84012701ED
:1050A00032014B1451046104710408F00DCF89EEF4
:1050B000C816D104E104F10430F4F8016481C6019A
:1050C000895E9C4F41D38FEF481A580A680A780AC4
:1050D0008FEFC81AD80AE80AF80A0F5F1F4FE1CF0E
:1050E0000E942F10F1CE85E0A6CFBC80CA80DB8065
:1050F000DC24CD24DC24E12CF12C270132018E01AB
:105100000B5F1F4F4B1451046104710408F0DCCE97
:105110008EEEC81682E0D806E104F10488F4C601D8
:105120008996F6D2F80181938F018FEF481A580AB9
:10513000680A780A8FEFC81AD80AE80AF80AE2CF94
:1051400080E0F0CFBC80CA80DB80DC24CD24DC246E
:10515000E12CF12C8401270132014B14510461042C
:10516000710408F0B1CE8EEEC81682E0D806E104D4
:10517000F10428F4F8016481C6018996E5D28FEF25
:10518000481A580A680A780A8FEFC81AD80AE80A33
:10519000F80A0F5F1F4FE1CF2B30310508F0D4CD57
:1051A00001CE2B30310508F08ACDB7CD78941F920F
:1051B0001FB61F9211248F939F93AF93BF9380913B
:1051C000850390918603A0918703B091880301968F
:1051D000A11DB11D8093850390938603A09387033F
:1051E000B0938803BF91AF919F918F911F901FBE85
:1051F0001F9018951F920F920FB60F9211242F93A4
:105200003F934F935F936F937F938F939F93AF934E
:10521000BF93EF93FF938091E10082FF09C08091DB
:10522000E20082FF05C08091E1008B7F8093E10066
:105230008091DA0080FF24C08091D80080FF20C0D8
:105240008091DA008E7F8093DA008091D90080FF10
:10525000A9C080E189BD82E189BD09B400FEFDCF0E
:1052600081E08093230580917403811109C00E941D
:10527000550D0E94060D8091E20084608093E2004B
:105280008091E10080FF1AC08091E20080FF16C08B
:105290008091E2008E7F8093E2008091E200806145
:1052A0008093E2008091D80080628093D80019BC7E
:1052B00085E08093230583E080931D018091E100C8
:1052C00084FF2FC08091E20084FF2BC080E189BD64
:1052D00082E189BD09B400FEFDCF8091D8008F7DA9
:1052E0008093D8008091E1008F7E8093E1008091CF
:1052F000E2008F7E8093E2008091E20081608093E3
:10530000E20080917303811509F452C084E0809318
:10531000230580912305843009F052C082E08093F8
:105320001D018091E10083FF2CC08091E20083FF8A
:1053300028C08091E100877F8093E10082E0809324
:105340002305109273038091E1008E7F8093E1002A
:105350008091E2008E7F8093E2008091E200806184
:105360008093E20042E060E080E00E94860C809141
:10537000F00088608093F00081E080931D018093AD
:105380001C01FF91EF91BF91AF919F918F917F9100
:105390006F915F914F913F912F910F900FBE0F90A2
:1053A0001F90189519BC109223051092740368CFB2
:1053B0008091E30087FF02C083E0A9CF81E0A7CFFF
:1053C00081E0ADCF1F920F920FB60F9211241F9361
:1053D0002F933F934F935F936F937F938F939F93FD
:1053E000AF93BF93CF93DF93EF93FF93E9EEF0E09A
:1053F00080811091EC008F7010FB112717F9182B8A
:105400001082C0EFD0E08881877F888378940E94E3
:10541000D516E9EEF0E010828881886088831F70DD
:105420001083FF91EF91DF91CF91BF91AF919F9149
:105430008F917F916F915F914F913F912F911F912C
:105440000F900FBE0F901F901895EF92FF921F9331
:10545000CF93DF93182FEB011092BC0084EA809366
:10546000BC000E9434127C018091BC0087FF26C0E2
:105470008091B900887F883029F08091B900887FB9
:10548000803189F51093BB0084E88093BC000E94B2
:1054900034127C018091BC0087FF1EC02091B900AE
:1054A000287F80E090E0283189F081E090E020348E
:1054B00009F480E091958195910908C0C7010E9487
:1054C0008B13C817D90780F68EEF9FEFDF91CF912E
:1054D0001F91FF90EF900895C7010E948B13C8178A
:1054E000D907C0F6F1CF8FEF9FEFF0CF1092B90040
:1054F0008CE08093B80008950F931F93CF93DF93B0
:10550000EB018093BB0084E88093BC000E943412BE
:105510008C018091BC0087FF10C02091B900287FCA
:1055200081E090E0283209F480E09195819591091D
:10553000DF91CF911F910F910895CF3FDC0749F381
:10554000C8010E948B13C817D90718F78EEF9FEF79
:10555000EFCFA0E0B0E0EEEAFAE261C0982E862E2E
:10556000742E652E6901E8010E9434125C01043139
:10557000110508F10F3F100711F1C80164E170E057
:1055800036D0F62EE72E6F2D7E2D892D5EDF8C0115
:10559000892BC1F0CF3FDC07B1F3C5010E948B130B
:1055A000C817D90780F784E98093BC00C801CDB73C
:1055B000DEB7EEE050C0FF24F394E12CE4CF85E0A9
:1055C000F82EFBCFBE01882D97DF8C01E72CF62C3F
:1055D000CE0CDF1CEC14FD0431F30115110519F795
:1055E000BE01F70181917F0187DF8C01F3CFAA1BF8
:1055F000BB1B51E107C0AA1FBB1FA617B70710F0BE
:10560000A61BB70B881F991F5A95A9F780959095EF
:10561000BC01CD0108952F923F924F925F926F92FD
:105620007F928F929F92AF92BF92CF92DF92EF9232
:10563000FF920F931F93CF93DF93CDB7DEB7CA1BB3
:10564000DB0B0FB6F894DEBF0FBECDBF09942A88DE
:10565000398848885F846E847D848C849B84AA8486
:10566000B984C884DF80EE80FD800C811B81AA8113
:10567000B981CE0FD11D0FB6F894DEBF0FBECDBFDE
:10568000ED01089597FB072E16F4009406D077FDE0
:1056900008D0ADDF07FC05D03EF4909581959F4F73
:1056A0000895709561957F4F0895EE0FFF1F059047
:1056B000F491E02D09946927962769277827872791
:1056C00078270895FB01DC0102C005900D9241503E
:1056D0005040D8F70895FB01DC0104C08D91019082
:1056E000801921F441505040C8F7881B990B089548
:1056F000DC01CB01FC01F999FECF06C0F2BDE1BD92
:10570000F89A319600B40D9241505040B8F7089580
:10571000F999FECF92BD81BDF89A992780B5089579
:10572000A8E1B0E042E050E0E5CFDC01A40FB51FF6
:105730004150504040F0CB01840F951F2E9105D071
:1057400041505040D8F70895262FF999FECF92BDC9
:1057500081BDF89A019700B4021639F01FBA20BD36
:105760000FB6F894FA9AF99A0FBE08950396272F68
:10577000ECDFEADF252FE9DF242FE7CF0196272F83
:10578000E4DFE2CFF894FFCF721478147B14811415
:1057900096149614961496149614961496149614B9
:1057A000841489148D149314A314A914AD14B71779
:1057B000DD17E317DD17E31732185518E3175019F3
:1057C0005D199D1D031EA51D701D741DA91D781D4D
:1057D000AD1DB91D841DFC1D881DBD1D8C1DC11D69
:1057E000E51D901DC51DEC1D951DCA1DD21D7C1DFE
:1057F000B11D801DB51D991DCE1DDC1DF41DFA1DAA
:105800006A1DA11D0A1E481D4C1D3F1D441D501D33
:10581000541D581D491E4F1E1F1E231E521E281E9A
:10582000571E2D1E5C1E321E611E371E661E6B1E0D
:10583000701E3E1F3E1F751F751F13202E209E1FBA
:105840009E1F3320AC20BD20BD201F1E231E521ED4
:10585000281E571E2D1E5C1E321E611E371E661E20
:1058600047274B2788279A27A527B027B327B32791
:10587000B327532753271A281D2820284628702885
:0658800073287528A22820
:105886004E004D004B004A0000FF00DB0BD90DEC2B
:105896000DF10DF60DD10D03FFFF00000100010013
:1058A600001F16A5040000000000006F13B50400D9
:1058B60000000000005413AE0400000000A215B260
:1058C60015FA1500000401A215B215FA150000001C
:1058D6000101000100010000FFFF167C10FF00100F
:1058E6003501070000000000002D0010FF001045E4
:1058F60002070000000000002E0004FF000445041B
:10590600070000000000002A0022FF00224C0007CA
:105916000000000000004422B684016201AC00DAF7
:1059260001F30113027477FF000001020304050668
:105936000708090A0B0C0D0E0F1011121314151679
:105946001718191A1B1C1D1E1F2021222324252669
:10595600272829FF2A2B2C2D2E2F30313233343590
:105966003637FF38393A3B3CFFFF3DFFFF3EFF3FEE
:1059760040FF414200000F001E002D003C004B007E
:105986005A006900780087009600A500B400CB0095
:10599600E000041017102610351044105310621042
:1059A600711080108F109E10AD10BC10CE10E0103C
:1059B60006201A20292038204720562065207420EA
:1059C60083209220A120B020C920E0200930223077
:1059D600313040304F305E306D307C308B309A3015
:1059E600A930BD30D230E03002401540274060403B
:1059F6009840AB40C340D240E04001040404040494
:105A06000404040404040404010104040404040456
:105A16000404040404040401010404040404040446
:105A26000404040404010104040404040404040436
:105A360004040401010101040101010101F0F1F472
:105A4600C666F7F6F56730313233349796949593F8
:105A560092E200E900EA00B500B600B700CD008387
:105A660001CC008A0192019401210223022402251D
:105A760002260227022A02B300B4006F0070009FBC
:105A860001CB019F02A002E200E900EA00B500B6E0
:105A960000B700CD008301CC008A01920194012158
:105AA60002230224022502260227022A02B300B498
:105AB600006F0070009F01CB019F02A00287017852
:085AC6000169015A0100000012
:00000001FF
