:100000000BC4000041C400003FC400003DC4000018
:100010003BC4000039C4000037C4000035C40000F0
:1000200033C4000031C400000C94A5280C948D2921
:100030000C94DB1129C4000027C4000025C4000073
:1000400023C4000021C400001FC400001DC4000020
:100050001BC400000C94812817C4000015C40000C4
:1000600013C4000011C400000FC400000DC4000040
:100070000BC4000009C4000007C4000005C4000050
:1000800003C4000001C40000FFC30000FDC3000062
:10009000FBC30000F9C30000F7C30000F5C3000074
:1000A000F3C30000F1C30000EFC300000501090223
:1000B000A10185020901A1000509190129081500FE
:1000C0002501950875018102050109300931158165
:1000D000257F95027508810609381581257F9501D0
:1000E00075088106050C0A38021581257F95017572
:1000F000088106C0C005010980A101850319012AF4
:10010000B700150126B700950175108100C0050CD8
:100110000901A101850419012AA002150126A002E6
:10012000950175108100C005010906A1018506052C
:100130000719E029E71500250195087501810205D9
:1001400007190029EF1500250195F07501810205B9
:10015000081901290595057501910295017503910D
:1001600001C00660FF0961A1010962150026FF00B8
:100170009520750881020963150026FF00952075FA
:10018000089102C005010906A101050719E029E748
:1001900015002501950875018102950175088101F9
:1001A0000507190029FF150026FF0095067508812F
:1001B000000508190129051500250195057501910E
:1001C00002950175039101C009025B00030100A0C3
:1001D000FA090400000103010100092111010001D5
:1001E00022440007058103080001090401000203FD
:1001F00000000009211101000122220007058203ED
:100200002000010705030320000109040200010387
:1002100000000009211101000122B6000705840336
:100220002000011201000200000008424B251202CA
:10023000000102000120036B0062006400360037F9
:10024000006D006B006900690072006700620020A9
:100250000076003200000010034B004200440066AC
:100260000061006E007300000004030904167C1E88
:10027000001F00200021002200230024002500266A
:100280000027002D002E002A004C002B0014001A1D
:10029000000800150017001C0018000C00120013C5
:1002A000002F0030003100035700570400160007EC
:1002B0000009000A000B000D000E000F003300348F
:1002C00000000028000457E1001D001B0006001973
:1002D00000050011001000360037003800E500006E
:1002E0000052000157E000E300E200000000002C93
:1002F000000000000002570000E400500000005120
:10030000004F0035003A003B003C003D003E003FFE
:10031000004000410042004300440045004C0049B9
:100320000001004A0052004D004B00010001000195
:100330000001000100010001000100010046000170
:1003400000500051004F004E0001005009500A4F6C
:100350000A4F09010001000000010001000100B680
:10036000002A00B70001000100110A290301000161
:10037000000100010000000100A8000100010001CF
:1003800000000000004C00000000000100000065BB
:1003900021010000000100010035001E001F0020A7
:1003A0000001000100010001000100010001000145
:1003B0000001004C02A60001002100220023004B96
:1003C0000001000100010001000100010001000125
:1003D000000100010001002400250026004E00015C
:1003E000005009500A4F0A4F0901000100000001A6
:1003F000000100010027000100B20001000100011E
:10040000002903010001000100010000002A000191
:100410000001000B7001000000000001000000005E
:1004200000010000000100B60000003E00B70020FF
:10043000782B78010001001370AA00A900AE00A873
:100440000001000100010001000100257801000108
:100450000001000100010001000100010001000194
:1004600000010001000100007C267801000100016C
:100470000001000100010001000100010001000174
:100480000001000000037C2378010001000100014D
:100490000001000100010010030100010001000142
:1004A0007C00002178247801000100010000000098
:1004B00000010000000000005200000452287800F3
:1004C0000022782778167C1E001F002000210022C1
:1004D00000230024002500260027002D002E002ADE
:1004E00000A8002B0014001A000800150017001CBB
:1004F0000018000C00120013002F003000310068BB
:1005000000390004001600070009000A000B000D66
:10051000000E000F0033003400000028006900E1E5
:10052000001D001B00060019000500110010003618
:100530000037003800E50000005200E300E0000052
:1005400000E200000000002C00000000000052004B
:1005500000E4005000000051004F00007767570092
:10056000876656008676550085756500847464003C
:100570008373630082726200817161008070600029
:10058000182838000829390009193A000A1A2A00DF
:100590000C1C2C000D1D2D0006162600051525002F
:1005A000041424000313230002122200011132005C
:1005B00000213100102030008878680089796900B6
:1005C0008A7A6A008B7B6B008C7C6C008D7D6D0061
:1005D0000E1E2E00071727018575650184746401BE
:1005E00083736301827262018171610180706001B5
:1005F000182838010829390109193A010A1A2A016B
:100600000B1B2B010C1C2C000F1F2F0187665601A2
:1006100004142401031323010212220101113201E7
:100620000021310188786801897969018A7A6A0133
:100630008B7B6B010D1D2D010E1E2E010F1F2F0038
:100640008E7E5D0177675701071727010616260181
:10065000102030018D7D6D018E7E5D017F6F5F000A
:100660007F6F5F008F6E5E000101010101010101DA
:100670000102020202020202020203030303030355
:100680000303040404040404040505050505060623
:1006900006060607070707070808080809090909E1
:1006A0000A0A0A0B0B0B0C0C0C0D0D0D0E0E0E0F87
:1006B0000F0F101011111112121313141415151617
:1006C000161717181819191A1A1B1B1C1D1D1E1E88
:1006D0001F202021222223242425262627282929D9
:1006E0002A2B2C2D2D2E2F30313232333435363704
:1006F00038393A3B3C3D3E3F404142434445464702
:1007000048494A4C4D4E4F50515354555658595ADA
:100710005B5D5E5F616264656668696B6C6D6F707E
:1007200072737577787A7B7D7E8082838587888AED
:100730008C8E8F91939596989A9C9EA0A2A3A5A724
:10074000A9ABADAFB1B3B5B7BABCBEC0C2C4C6C920
:10075000CBCDCFD1D4D6D8DBDDDFE2E4E7E9EBEED9
:10076000F0F3F5F8FAFDFF000000000000000000C3
:100770000000000000000000000000000000000079
:1007800000000000000000000000007E0F00D4FF09
:10079000FFFFC70000007800000000000000002AF2
:1007A0002B280000000000000000000000000000F6
:1007B000000029000000002C1E34202122243426B1
:1007C00027252E362D3738271E1F202122232425AA
:1007D000263333362E37381F0405060708090A0B5F
:1007E0000C0D0E0F101112131415161718191A1BD1
:1007F0001C1D2F3130232D350405060708090A0B6F
:100800000C0D0E0F101112131415161718191A1BB0
:100810001C1D2F3130354C0011241FBECFEFDAE004
:10082000DEBFCDBF04B603FE18C08091EB059091EA
:10083000EC05A091ED05B091EE058730904BA740F7
:10084000B04B59F41092EB051092EC051092ED05A7
:100850001092EE05E0E0F8E3099513E0A0E0B1E0C6
:10086000E0EFF7E502C005900D92A436B107D9F785
:1008700025E0A4E6B3E001C01D92AB3EB207E1F76C
:100880000E9482230C94792BBBCBFC0182818130A6
:1008900021F4858181708E5F0895823011F484E0A7
:1008A000089581E008959C019A9581159F4118F55E
:1008B000F32FF270EE27832F8170732F74706627E9
:1008C000532F5870442734FF0CC08295807FEF2B44
:1008D00009F08062672B09F08064452B69F080681D
:1008E0000895EF2B09F08260672B09F08460452B97
:1008F00019F08860089580E00895CF93DF93EB01AD
:10090000D2DFFE010995DF91CF910895982F92953E
:100910009F7024E0911102C020E0982F892F8695C6
:100920008695811511F02E5F982F892F8695820F5D
:1009300008958093A00508958093EA05089521E025
:1009400030E001C0220F8A95EAF78091EA05822BF8
:10095000F3CF21E030E0A90102C0440F551F8A9572
:10096000E2F7CA0180959091EA058923E5CF80914D
:100970007401833011F481E0ECDF1092740108956A
:1009800080917201833011F482E0E3CF0895809169
:100990007001833009F4DDCF0895292F953090F54B
:1009A0008F3080F590E03FE0239F800D911D112452
:1009B000282F277041E001C0440F2A95EAF723E071
:1009C000969587952A95E1F7FC01EE0FFF1FE80F3A
:1009D000F91FED59FA4F20E030E070E05191DF014E
:1009E000CB01022E02C0969587950A94E2F781709A
:1009F00081958527842385278E932F5F3F4F233052
:100A0000310561F70895292F953078F58F3068F515
:100A100090E03FE0239F800D911D1124682F6770A7
:100A200023E0969587952A95E1F7FC01EE0FFF1FCD
:100A3000E80FF91FED59FA4F40E050E080E02191B6
:100A400030E0062E02C0369527950A94E2F7217011
:100A50003327042E01C0220F0A94EAF7822B4F5F3E
:100A60005F4F4330510559F7089580E00895909104
:100A7000EA0521E030E0F90101C0EE0F8A95EAF7BE
:100A8000D90102C0AA0FBB1F6A95E2F7EA2B01C089
:100A9000220F4A95EAF7892F8E23E81303C0892F86
:100AA000822B4ACF2095822F8923FBCF8091A805E6
:100AB0009091A705981301C008958F5F8770FACFB2
:100AC0009091A205809589238093A205282F2770F5
:100AD000211110C0891771F09091E90592FF0AC0A9
:100AE00086958695869535DF1092A2051092A4050D
:100AF0001092A3050895982F909580919D058923C4
:100B000080939D05089580919E05811531F0109286
:100B10009E051092A6051092A50508959C01803EA1
:100B2000910509F448C0D8F48133910509F47DC0DA
:100B300048F48932910509F46DC08A9709F47CC0A4
:100B4000C90108958933910551F18238910539F130
:100B5000C597B1F78091E80585FFF2CF29C0843EA3
:100B6000910509F447C048F4823E910599F1833E0E
:100B70009105A9F121EE30E0E3CF863E910509F41D
:100B800044C0873E9105E1F68091E80583FD61C090
:100B90009091E90591FF2BC024EE30E0D1CF8091F8
:100BA000E8058370811152C08091E90583FFC8CFA9
:100BB00029E230E0C5CF8091E80580FD33C09091F7
:100BC000E90590FFBDCF23EE30E084FFB9CF20E0F0
:100BD00030E0B6CF8091E80582FDF5CFB1CF8091AE
:100BE000E80582FD30C09091E90590FD2FC084FF9B
:100BF000A7CFEDCF8091E90581FFA2CF8091E805D5
:100C000027EE30E084FDE3CF9BCF8091E80583FDA4
:100C1000F7CF96CF8091E80585FD1EC08091E9054C
:100C200083FF8ECF29E330E08BCF8091E80586FFEC
:100C300087CF2AE230E084CF8091E80586FF80CF1D
:100C400021E330E07DCF22EE30E07ACF20EE30E0BD
:100C500077CF26EE30E074CF25E330E071CF90916E
:100C6000E80592FF10C041E0282F2471243009F0DC
:100C700040E031E0282F2871283009F030E0431798
:100C800011F02CE0822793FF10C041E0282F24713F
:100C9000243109F040E031E0282F2871283109F093
:100CA00030E0431711F02CE082273091E90530FF46
:100CB00010C051E0282F2171213009F050E041E0AF
:100CC000282F2871283009F040E0541711F029E04E
:100CD000822731FF10C041E0282F2171213109F016
:100CE00040E031E0282F2871283109F030E0431727
:100CF00011F029E0822794FD877E08951F93CF93FA
:100D0000DF930CDFEC01811522E5920708F052C059
:100D1000811540E5940708F0CDC0803E910520F58F
:100D20008D3C910508F0A1C0883A910570F4853A90
:100D3000910508F097C081309105B9F10497813A87
:100D4000910598F1C0E0D0E030C0885A91094B97E6
:100D5000C8F7C85AD0E0CC0FDD1FC351DD4F099052
:100D6000D881C02DD46421C0811550E49507B0F41A
:100D7000C11580E2D80708F0B3C0C83ED105A8F07D
:100D8000CE019A9581159F41E8F68D2F68DF182FC7
:100D9000CE019927C3DEEC01D12B07C09927BEDE17
:100DA000CC27DF70C82BD92BD06ACE01DF91CF9131
:100DB0001F910895803842E59407C8F5803652E5C2
:100DC000950708F05BC0C03482E5D807D0F4C03284
:100DD00092E5D90708F04BC08C2F8695869520E2C6
:100DE000829FC0011124C37021E030E0A90102C03C
:100DF000440F551FCA95E2F7EA01C82BD92BDD68CD
:100E0000D4CF8C2F86958695877050E2859FC00140
:100E10001124C37021E030E0A90102C0440F551F26
:100E2000CA95E2F7EA01C82BD92BDC68BECF803C1B
:100E300052E5950758F48F71C03AD245A0F590E07D
:100E4000982F8827EC01C46FD06AAFCF805C9245A1
:100E5000809708F077CFDC2FCC27CC27DF71C06FCD
:100E6000D06AA3CFA497D064A0CFD0659ECFCF7116
:100E7000D0E0DC2FCC27C16FD06A97CF86958695BE
:100E8000877020E2829FC0011124C37021E030E00E
:100E9000A90102C0440F551FCA95E2F7EA01C82B09
:100EA000D92BDA6882CFDBDEC82FD0E0DC2FCC274D
:100EB000D0627BCF8F71D3DE93E0CC0FDD1F9A958C
:100EC000E1F7CC27DF70282F30E084FF05C050E128
:100ED000859F900111243327C22BD32BD06965CF76
:100EE0008D2F8F71BCDE182FCE01992717DEEC01F4
:100EF000D12BDECF80E00895F894E82FE295EF70D3
:100F0000F0E041A18F7021E030E0B90102C0660F2E
:100F1000771F8A95E2F7CB01962F9095942391A3A2
:100F200092A1892B82A378940895CF92DF92EF92B9
:100F3000FF921F93CF93DF93172FE82FF0E0E9592B
:100F4000F94F71110CC0E4918E2F7E2F6E2FDF911F
:100F5000CF911F91FF90EF90DF90CF900895E62EF4
:100F6000F12CC72ED12CF491EF2F86E0689F9001D1
:100F70001124CFEFD0E0C901BE010E94AE2AAB011F
:100F8000EE0CFF1C65E5649FC001659F900D112468
:100F9000E81AF90A6E2D660F6E0D7E01EC18FD0839
:100FA000FE9DD001FF9DB00D11248B2F169F700167
:100FB0001124EF2CFF246E01CE18DF087601FE9D70
:100FC0006001FF9DD00C11247E01E61AF108B701E3
:100FD000169F7001179FF00C1124EF2CFF24CE19DF
:100FE000DF09FC9F7001FD9FF00C11247F2D433021
:100FF0005105C1F02C3F334058F441305105B1F058
:101000004230510509F0A2CFEB2F8F2D7F2F9ECFBD
:101010004430510571F04630510509F497CF7B2FCC
:101020008D2D94CF7D2DEB2F8F2F90CF7F2FED2DFA
:101030008DCFEF2D7B2FF8CFEF920F93CF93DF93D0
:10104000D72FC82FDA01F9010E199B2F907830970E
:10105000C9F037FF04C0222733272E1B3F0BBD01E9
:10106000620F731FB7FD17C0CD01821B930B55E0B4
:10107000880F991F5A95E1F70E94F92A90E2961B72
:10108000F7FD9195602F691B7D2F8C2FDF91CF91FC
:101090000F91EF900895CB0145E0880F991F4A9575
:1010A000E1F7B9016A1B7B0B0E94F92A90E6E7CFB2
:1010B00090910805982B9093080508950C94701151
:1010C00008950C94C3110895A0E0B0E0EAE6F8E0BA
:1010D0000C94CA2A182F8091190181132AC090916B
:1010E000240593702091180130E081E092171306D7
:1010F00009F480E080930A0180912905909109010B
:10110000981731F08093090140E060E080E0D9DF7A
:10111000113089F0123009F451C0111108C08091CA
:101120000A01811521F040E060E080E0CADF80E044
:101130001DC081E0DFCFC0910801CC0FCC0F04E0CF
:101140000C0FB02E043410F053E4B52E6091250539
:101150007091260580912705E8DEF62ED72EC82E41
:10116000D0E0CB15D8F081E0033408F79091080166
:101170009F5F9093080181110CC082E0809317015A
:1011800080910A01811105C0111103C083E0809391
:101190001701CDB7DEB7EAE00C94E62AFE01EA5665
:1011A000FD4F8081909109018923811529F02C2D13
:1011B0004D2D6F2DCE0182DF2196D3CFC091080136
:1011C000CC0FCC0F44E0B42EBC0EAB2C34E4B316E1
:1011D00010F033E4A32E4091FA045091FB042091C7
:1011E0002805269580E090E0429F040E811D529FC5
:1011F000800D911D1124850F911DF82ED0E0CE0198
:10120000880F991FDC01A05FBD4F6D01CA1520F04A
:1012100081E0F3E4BF16A9CFFE01EA56FD4F8081BD
:10122000909109018923811509F44AC0F601408192
:101230004057550B21812052330B449FC001459FDD
:10124000900D900D1124229FB001239F700D700D01
:101250001124860F971F082F8230910520F1EFEFA0
:10126000813EFEE19F0738F4FC01B5E0F695E79575
:10127000BA95E1F7E85FF1E0AF2FAE0FBB27BB1FD8
:10128000BD0175956795062F669FD001679FB00DCC
:10129000B00D11248A179B07C0F4EFEFE60FEF178C
:1012A00058F70FEF0F0F609125057091260580917B
:1012B0002705EF2CC1DE39DE472F282FCE01FEDEB9
:1012C0002196B2E0CB0ED11CA1CF6F3F61F3F1E0CC
:1012D000F60FE5CFE4E2F5E0908121E092279083DC
:1012E00010921701E5CE809124058370811102C010
:1012F00010921701809124058C7F816080932405D2
:1013000008958091240583708111109217018091B6
:1013100024058C7F809324050895982F862F209193
:1013200024052370211581F0911579F0933078F41C
:101330009F73990F990F209124052370922B9093FE
:10134000240510921701B4CE089591E0F2CF92E0F7
:10135000F0CF80912405869586958F5F833008F0C5
:1013600081E061E0DACF80912405869586958A95A3
:1013700009F482E061E0D1CF982F822F20912405DB
:101380002370211539F0909325056093260540932D
:1013900027058ECE0895E4E2F5E0818190E021E01A
:1013A000438162810896E8CFE4E2F5E0818121E0A3
:1013B000438162818850990BDFCFE4E2F5E06281DE
:1013C00020E1620F08F46FEF818121E0438190E01A
:1013D000D3CFE4E2F5E0628120E1621B08F460E033
:1013E000818121E0438190E0C7CFE4E2F5E04381D1
:1013F00020E1420F08F44FEF818121E0628190E00B
:10140000BBCFE4E2F5E0438120E1421B08F440E079
:10141000818121E0628190E0AFCFE4E2F5E02481B8
:1014200030E1230F08F42FEF248381E041CEE4E282
:10143000F5E0248130E1231B08F420E0248381E0DF
:1014400037CEFC018481862381110AC082818115F7
:10145000B9F06823908593FF05C081E061110FC04A
:1014600080E00895282F22952F708F70282B962FBB
:1014700092959F706F70962B81E02913F1CF08959C
:1014800081E00895282F35EB2303C001112497FF35
:1014900004C080589109892F089580589F4FFBCF31
:1014A0008091830580FD14C081FD14C082FD16C0AB
:1014B00080918205811581F08E3180F420E5829F34
:1014C000C00111246EE170E00E94F92A862F089570
:1014D00084E1089588E2089588E0089580E50895FC
:1014E0008091830580FD17C081FD17C082FD19C062
:1014F00080918105811599F0883298F428E0829FC7
:10150000C001112468E270E00E94F92A611571059A
:1015100051F0862F089562E0FCCF64E0FACF61E0DD
:10152000F8CF68E0F6CF81E00895FA01309709F02E
:1015300009950895E0915905F0915A05309739F0D1
:101540000190F081E02D309711F00995089580E029
:101550000895A3E0B0E0EFEAFAE00C94D22A9C01EF
:101560008091AC039091AD0382179307B1F0309353
:10157000AD032093AC03E0915905F0915A053097E3
:1015800061F00084F185E02D309739F083E08983A4
:101590003B832A83CE01019609952396E2E00C94C1
:1015A000EE2AA3E0B0E0E7EDFAE00C94D22A9C0129
:1015B0008091AA039091AB0382179307B1F0309307
:1015C000AB032093AA03E0915905F0915A05309797
:1015D00061F00084F185E02D309739F084E0898353
:1015E0003B832A83CE01019609952396E2E00C9471
:1015F000EE2A90911C01913091F0A8E6B3E0EFEF54
:1016000090E02D91821751F0EF3F19F4211101C0A4
:10161000E92F9F5F9630A9F7EF3FC9F408959091A5
:10162000E80597FFEACFE82FE695E695E695803F37
:10163000A8F7F0E0E259FC4F877021E030E001C0EC
:10164000220F8A95EAF78281822B828308950E2EDB
:10165000000CFF0BEA59FC4FF8CF90911C01913020
:1016600021F49091E80597FD0CC0E8E6F3E0919134
:10167000891302C0DF011E9253E0EE36F507B9F779
:101680000895E82FE695E695E695803FC8F7F0E0E7
:10169000E259FC4F877021E030E0A90102C0440FFD
:1016A000551F8A95E2F7CA0180959281892382832A
:1016B000089580911B0108952FB7F8946091A603B7
:1016C0007091A7038091A8039091A9032FBF08955B
:1016D000CF92DF92EF92FF92CF93DF93D82FC92F53
:1016E000C0909105D0909205E0909305F0909405FC
:1016F000E3DF6C197D098E099F09643F7140810504
:10170000910510F1D9DF6B017C0182E390E0A0E04C
:10171000B0E0C0921B05D0921C05E0921D05F0922E
:101720001E058093170590931805A0931905B09393
:101730001A05D0938F05C0939005DF91CF91FF904C
:10174000EF90DF90CF90089584EF91E0A0E0B0E0BB
:10175000E0CFFC019B0180919C0390919D03861733
:10176000970740F0672B29F48091E8008E778093EB
:10177000E800C90140E0009741F4411106C08091A2
:10178000E80082FF2FC080E00895209136052115E2
:10179000A9F12530A9F12091E80023FD2DC0209169
:1017A000E80022FDECCF2091E80020FFE4CF30914B
:1017B000F3002091F200009719F02830310558F01D
:1017C00041E02830310509F040E02091E8002E7713
:1017D0002093E800D0CF41914093F10001972F5F13
:1017E0003F4FE9CF80913605811541F0853041F0BA
:1017F0008091E80083FFC3CF81E0089582E00895DF
:1018000083E008958091960387FF13C08091E800DC
:1018100082FF06C08091E8008B778093E8000895EE
:10182000809136058111F2CF08958091360581159A
:10183000D9F38091E80080FFF8CF8091E8008E779F
:10184000ECCF2091E4003091E50095E6A9012091CC
:10185000EC00822F817020FF06C08091E80080FF9D
:1018600006C080E008952091E80022FD1AC0809112
:101870003605811589F0853089F08091EB0085FD72
:101880000FC02091E4003091E50042175307F9F2B0
:101890009A95E1F684E0089582E0089583E0089542
:1018A00081E00895E8EDF0E080818E7F80831092E2
:1018B000E2001092DA001092E100A0EEB0E08C910C
:1018C00081608C9380818F77808319BCA7EDB0E015
:1018D0008C918E7F8C9380818F7E80831092950374
:1018E0000895982F9093E900891771F07091EC009A
:1018F0002091ED005091F00021FD09C09F5F9730CD
:1019000089F78093E9000895762F242F50E03091D5
:10191000EB003E7F3093EB003091ED003D7F309344
:10192000ED003091EB0031603093EB007093EC00F0
:101930002093ED005093F0002091EE0027FDDECFC4
:101940000895A0E0B0E0E7EAFCE00C94CC2AC8EDF2
:10195000D0E088818F7E8883E7EDF0E08081816030
:10196000808384E082BF81E08093950388818E7FAD
:10197000888302EE10E0F80110821092DA0081EE06
:10198000C82ED12CF601108288818F7788838881B8
:101990008068888388818F7D888319BC1092360582
:1019A0001092940310920B051092930390EEE92E7F
:1019B000F12CF70180818B7F80838881816088830F
:1019C00042E060E080E08DDFF60180818E7F8083E1
:1019D000F801808181608083808188608083F70145
:1019E00080818E7F8083888180618883CDB7DEB7D8
:1019F000E8E00C94E82AE091A8059091A70527E07B
:101A0000E91302C080E00895AE2FB0E02E9FF001F0
:101A10001124E755FA4F3181361306C0308138134F
:101A200003C03581341304C0FD013196E770E8CF5F
:101A300081E0089581E08093E00080E28093D80007
:101A40001092C9008FE19EE40197F1F700C00000F9
:101A500087E090EBDC018093EB059093EC05A0937D
:101A6000ED05B093EE0588E19CE00FB6F894A895DB
:101A7000809360000FBE90936000FFCF0F931F9381
:101A8000CF93DF938B01EA0190913605943051F5A5
:101A90008093E9008FEF9091E80095FD06C095EDE9
:101AA0009A95F1F700008A95B1F78091E80085FFDB
:101AB00019C0C7DE811111C08091E80085FD06C004
:101AC0008091E8008E778093E800F3CFF801819150
:101AD0008F018093F100219779F78091E8008E774C
:101AE0008093E800DF91CF911F910F910895792F96
:101AF000603229F440E250E0682F82E0BFCF0895C1
:101B0000CF93DF93D82FC92F48E050E0682F792F6B
:101B100081E0B4DF88E0ED2FFC2FAEE9B3E0019067
:101B20000D928A95E1F7DF91CF910895BC0140E2D3
:101B300050E084E0A3CFBC0146E050E084E09ECFBB
:101B4000BC0143E050E084E099CF9091E90592FB1D
:101B5000222720F9281779F080FB92F99093E90564
:101B60006091E8057091E90584E090E00E94752B92
:101B700082E00C94600508951F93CF93DF93962F16
:101B8000122F632F8530D8F49530C8F44F30B8F455
:101B9000C42FD0E0CC0FDD1F2EE1929FC00DD11DD0
:101BA000112496E9899FC00DD11D1124CE0189967B
:101BB0000E945B2B612FCE018A960E945B2BDF91E6
:101BC000CF911F910895AF92BF92CF92DF92FF9273
:101BD0000F931F93CF93DF93A12CB12C00E06501ED
:101BE00010E012C0FE01259134914F2D612F802FFE
:101BF000C3DF2296F3948FE0F812F4CF8FE0C80E83
:101C0000D11C1F5F153039F0E601CC0FDD1FC35921
:101C1000DD4FF12CE7CF0F5F8BE4A80EB11C053030
:101C2000F1F6DF91CF911F910F91FF90DF90CF9050
:101C3000BF90AF9008950F931F93CF93DF9385309C
:101C400030F5653020F54F3010F5C42FD0E0CC0FC3
:101C5000DD1F2EE1629FC00DD11D112436E9839F47
:101C6000C00DD11D1124CE0189960E943F2B082F53
:101C700010E0102F0027CE018A960E943F2B98017A
:101C8000282BC901DF91CF911F910F91089580E01A
:101C900090E0F8CF462F672F753028F44F3018F4B6
:101CA000853008F4C8CF80E090E00895A0E0B0E06F
:101CB000ECE5FEE00C94CD2A7C010091EA058091D0
:101CC000A005082BC4E0D0E010E0C8010C2E02C033
:101CD000959587950A94E2F780FD09C02197A8F7AA
:101CE000D12C8D2DCDB7DEB7E7E00C94E92ADC2EA0
:101CF000B7018C2FCFDF02D8019781F3F2CF0F937A
:101D00001F93CF93FC01858100811181811581F0A2
:101D1000611571F0C801CADFC82F682FC8010E9481
:101D2000CD04B8018C2FB6DFCF911F910F9108958C
:101D3000C8010E940305C82FF4CFCF93DF93D82F9B
:101D4000C92FB4DF6D2F7C2FA5DF0E947E06DF91A7
:101D5000CF910895FC018481811599F08081918152
:101D6000ECDF282F92959F70963099F060F4925F87
:101D70009F70923030F4203FB1F038F481E0283E7B
:101D800038F080E008959A5FF3CF81E0243FC9F7EF
:101D9000089591E0213F09F090E081E0283E08F0AD
:101DA00080E0892B089581E008950F931F938B01A4
:101DB0009C0180E0093E11052105310528F4CB0185
:101DC000895E9C4F0E943F2B1F910F910895CF92E7
:101DD000DF92EF92FF92CF93DF93EC01C880D9801E
:101DE000EA80FB80C701B601E0DF9FEFC91AD90A7C
:101DF000E90AF90AC882D982EA82FB82DF91CF918F
:101E0000FF90EF90DF90CF90089585E290E00E94E0
:101E10003F2B853289F486E290E00E943F2B873089
:101E200059F487E290E00E943F2B91E0823109F063
:101E300090E0892F8170089580E0FCCF48E050E069
:101E400067E170E084E295E00E944C2B1092080557
:101E50000895E4E2F5E089E0808380917501909136
:101E60007601A091770181839283A3838FE7848396
:101E70008FEF8583E3CFCF92DF92EF92FF92CF93E4
:101E80001BDC6093F6047093F7048093F80490933E
:101E9000F90420910A05C0E0211109C02091240510
:101EA000C22FC370C11519F0C22FC695C6952091D7
:101EB0001701223009F45DC080F4211117C010927F
:101EC00008016093FA047093FB048093FC049093E0
:101ED000FD0481E08093170103C0233009F453C04F
:101EE000CF91FF90EF90DF90CF9008958C2FECD89A
:101EF000C115B1F380911701823049F41BDB81FFDA
:101F000006C02FEF4FEF6FEF8EE190E0D7D88091B2
:101F1000EA050E948604823009F190F421E245EA44
:101F200069ED81111EC006DB2FEF4FEF60E081FDF0
:101F300018C021E040E060E080E090E01DDAD0CF02
:101F4000833099F0843061F623E343E36EEE8BE354
:101F500090E0B4D823E343E36EEE03C020E04FEFFC
:101F600060E88DE390E0AAD8BBCF2DE44CE76FEF9B
:101F7000F8CFC093190180912405837080931801D4
:101F800095D083E0A7CF80910805811157DFC090DD
:101F9000FA04D090FB04E090FC04F090FD048CDB8C
:101FA0006C197D098E099F096A31710581059105BA
:101FB00008F496CF1092170193CFA0E1B0E0E3EEC2
:101FC000FFE00C94C42AFE01319680E1DF011D92EE
:101FD0008A95E9F70FE010E097E1A92E93E0B92E7A
:101FE00029EE422E512C612C712C4F01730162019C
:101FF000B1E14B165104610471041CF080E1C82E5C
:10200000D12CA601B501C4010E944C2BAC0CBD1C07
:102010000D2C000CEE08FF084C185D086E087F08B8
:102020000150104019F76096E0E10C94E02A6FEF40
:1020300085E290E00E945B2B6FEF86E290E00E94C9
:102040005B2B6FEF87E290E00E945B2B60E088E201
:1020500090E00E945B2BB7DDB0DF65E285E290E0A7
:102060000E945B2B67E086E290E00E945B2B62E1BE
:1020700087E290E00C945B2BA1E0B0E0E2E4F0E1B9
:102080000C94D02A4983E82FF0E0ED53FE4F808175
:1020900004E610E021E030E0AE014F5F5F4F880FB3
:1020A0000E94622A2196E4E00C94EC2AA3E0B0E0BE
:1020B000ECE5F0E10C94CC2A8EE394E09B838A83D8
:1020C00083ECE82E81E0F82EEA81FB818081811586
:1020D000D9F0E059F1096F0124E22983F7018081E9
:1020E00004E610E020E130E0A6016981880F0E943B
:1020F000622AF981F05FF98320E1C20ED11CF43B22
:1021000069F7EA81FB8110828A819B818C559F4F00
:102110009B838A839FEFE91AF90AEA81FB81E658DB
:10212000F54091F62396E8E00C94E82AA4E0B0E0AC
:10213000ECE9F0E10C94CC2A0E942C2A10E04BE050
:102140006DEF812F99DF40E06AE0812F95DF8FE30B
:102150009CE90197F1F700C0000040E060E0812FAA
:102160008BDF40E061E0812F87DF40E066E0812F78
:1021700083DF40E06DEF812F7FDF00E040E0602FE4
:10218000812F7ADF0F5F0231C9F740E0602F812F86
:1021900073DF0F5F0432C9F740E0602F812F6CDFDF
:1021A0000F5F043BC9F74BE06DEF812F65DF41E026
:1021B0006AE0812F61DF40E06DEF812F5DDF81E01C
:1021C000810F11E0823009F0BACF0BE515E024EA67
:1021D000C22EEE24E394F12CDD24D39444E050E0AD
:1021E000B801CE0101960E94192B6A814B812C8186
:1021F00089818370E62FE695E695E695C89EC00135
:10220000112482559C4FE80FF92FF11DEF56FF4F17
:102210006770D70102C0AA0FBB1F6A95E2F7308131
:102220003A2B3083E42FE695E695E695E80FF92FF3
:10223000F11DEF56FF4F4770B70102C0660F771FC1
:102240004A95E2F73081362B3083E22FE695E6950A
:10225000E695E80FF92FF11DEF56FF4F2770D701D4
:1022600002C0AA0FBB1F2A95E2F79D013081232BE4
:1022700020838D559F4FFC01D0820C5F1F4FF6E0ED
:1022800007361F0709F0AACF80915104811581F00C
:102290009FE3E92E94E0F92E10E0D7014D917D01E6
:1022A000612F80E0E9DE1F5F1231B9F7109251040F
:1022B0008091F504811581F083EEE82E84E0F82EFC
:1022C00010E0F70141917F01612F81E0D5DE1F5FB2
:1022D0001231B9F71092F5042496E8E00C94E82A3C
:1022E000A4E0B0E0E6E7F1E10C94CF2AFC01F62E81
:1022F000042F122F8334910508F041C0EE0FFF1F09
:10230000EE0FFF1FBF01655A7A4F44E050E0CE0147
:1023100001960E94192B89818370AA814A2F50E06F
:102320002B8130E0EC81F0E064EA869FC00111244B
:10233000BC0162557C4FA60FB72FB11DAC91AF11F8
:102340000CC0DB01A20FB31FAC91A01306C0DB01D0
:10235000AE0FBF1F6C91611791F082559C4FDC014D
:10236000A40FB51FFC92280F391FD9010C93E80F59
:10237000F91F108380579F4F21E0FC012083249692
:10238000E5E00C94EB2AFF920F931F93CF93DF931A
:10239000182F062FF42EC0E0D0E02F2D402F612FF4
:1023A000CE019EDF2196C334D105B9F7CDB7DEB794
:1023B000E5E00C94EB2A1F921FB61F9211248F9315
:1023C0009F93AF93BF9380910905811113C08091B2
:1023D000A6039091A703A091A803B091A9034196E9
:1023E000A11DB11D8093A6039093A703A093A803FA
:1023F000B093A903BF91AF919F918F911F901FBE82
:102400001F9018952FB7F8948091A6039091A70379
:10241000A091A803B091A9032FBF0895CF93DF9394
:10242000C0919D058091A105C82B80919E058115C5
:1024300001F1E8DF2091A5053091A605821B930BE1
:102440008C3D954010F00E948305D0919E058091AF
:102450001C01813021F48091E80587FD14C086E0DD
:1024600028E633E090E0815090F491110E948305BA
:10247000CD2B80918B0580958C2390918A05892B9B
:10248000DF91CF9108958EE120E733E0EBCFF901A2
:1024900041919F01411539F39F5FE5CF80911C0168
:1024A000813061F58091E80587FF28C0B7DF809310
:1024B0006F0340E250E069E375E08EE693E00E942E
:1024C000222B892BD1F080E2EEE6F3E0A9E3B5E020
:1024D00001900D928A95E1F7E0915905F0915A0526
:1024E000309759F00480F581E02D309731F086E087
:1024F00080936E038EE693E0099508958FDF8093B5
:10250000660348E050E06BE575E086E693E00E94E4
:10251000222B892B91F388E0E6E6F3E0ABE5B5E00A
:1025200001900D928A95E1F7E0915905F0915A05D5
:10253000309719F30280F381E02D3097F1F286E6AF
:1025400093E0DACF811531F090919D05892B80932E
:102550009D05A4CF0895811531F09091A105892B97
:102560008093A1059BCF0895811519F00E947B05EA
:1025700095CF0895811539F080959091A105892313
:102580008093A1058BCF0895CF93DF93EC014A850B
:102590005B856E857F850E94950A9B8190958091D1
:1025A000A10589238093A1058C810E947B0576DF9C
:1025B00086E0FE0111928A95E9F7DF91CF910895A7
:1025C000CF93DF93EC018D8181FD16C082608D83F6
:1025D0008091A1059B81892B8093A10580919D0508
:1025E0009C81892B80939D0559DF488559856E858F
:1025F0007F85CE010E94950A10929805109297054A
:102600008D8180FD02C0CE01BFDFDF91CF910895A3
:10261000CF93DF93EC01F6DE8C1B9D0BDF91CF9106
:102620000895F0DE2091860530918705232B211532
:1026300021F0809321059093220520918805309107
:102640008905232B211521F080931F0590932005E8
:10265000E0915905F0915A05309759F00680F781BD
:10266000E02D309731F082E08093840584E895E096
:1026700009950895611509F449C0E3E3E80FE331D2
:1026800050F4F0E0E558F44D0C940C2B0E94500AE5
:10269000819580938705C5CF0E94500AFACF0E948A
:1026A000500A819580938605F6CF0E94500AFACF92
:1026B0000E94700A80938805EECF0E94700A81956F
:1026C000F9CF0E94700A819580938905E4CF0E941A
:1026D000700AFACF815D990B21E030E001C0220F32
:1026E0008A95EAF780918505822B80938505D3CF63
:1026F00080918305816080938305CDCF8091830590
:102700008260F9CF809183058460F5CF4091860582
:102710008D3C59F48091870587FF0DC01092870585
:10272000411559F41092820508C08E3C81F48091C5
:10273000870518169CF3411581F0809188059091CA
:102740008905892B8111A7CF10928105A4CF8F3CD9
:1027500041F447FFF0CF10928605809187058115DF
:10276000E0CF803D19F41416B4F3E5CF90918805BD
:10277000893D29F41916FCF610928805DCCF8A3DB4
:1027800019F497FFD8CFF8CF909189058B3D29F4A4
:1027900097FFD1CF10928905CECF8C3D19F4191631
:1027A000CCF3C9CF9FE2980F983090F4815D990BDC
:1027B00021E030E0B90102C0660F771F8A95E2F789
:1027C000CB01809590918505892380938505B3CFB2
:1027D0008D3D31F4809183058E7F80938305ABCF4F
:1027E0008E3D21F4809183058D7FF7CF8F3D09F0D9
:1027F000A2CF809183058B7FF0CFCF93C82F811517
:10280000C9F08CEF8C0F813A90F580911C018130DA
:1028100021F48091E80587FD0FC0E8E6F3E081919F
:10282000C81701F123E0EE36F207C9F78C2F0E949A
:10283000F90A34DECF910895EC2FE695E695E695FA
:10284000F0E0E259FC4F828190E04C2F477021E08C
:1028500030E002C0220F331F4A95E2F78223932310
:10286000892B21F38C2F0E942D0B18DEDFCF80E205
:102870008C0F883068F4C77081E090E001C0880F49
:10288000CA95EAF7C0919D05C82BC0939D05D1CF8D
:102890008BE58C0F833038F42C2F2452330BC90175
:1028A0000E94A90AC7CFE8E5EC0FEB3150F4F0E045
:1028B000EE0FFF1FED5DFC4F808191810E94D10AD8
:1028C000B9CF83E38C0F833108F0B4CF61E08C2F54
:1028D000D1DEB0CFCF93DF93EC01805E91090897F2
:1028E00020F06BEA72E1209711F462EA72E1CE0106
:1028F0000E947D048C2F81DFDF91CF910895CF93CB
:10290000DF93EC01FB018A81823031F48281938173
:10291000E1DF8D8182608D83DF91CF910895FB018E
:1029200080819181D7CF811559F19CEF980F913A11
:1029300018F40E942D0BB2CD90E2980F983050F40D
:10294000877091E001C0990F8A95EAF7892F0E945C
:102950007B05F1CF9BE5980F933020F480E090E069
:102960000C94A90A98E5980F9B3120F480E090E040
:102970000C94D10A93E3980F933110F460E07ACE6F
:102980000895CF93DF93EC01CEDFCE01805E9109F5
:10299000089720F06AEB72E1209711F464EB72E182
:1029A000CE010E947D04DF91CF910895FB01DC01EF
:1029B00012968C91813021F480819181E2CF08952B
:1029C0008230E9F782819381F9CF0F931F93CF93E0
:1029D000C82F8B0112DF0115110531F48C2FA3DFF5
:1029E000CF911F910F9108958FE99FE00197F1F723
:1029F00000C0000001501109EECF0E9445048093F1
:102A00007401833089F0843031F0823081F460E5E4
:102A100070E089E3DACF8091EA05811529F081FF22
:102A200003C081E00C94A90481E00C949F040895F4
:102A30001F93CF93DF93182FA0918D05B0918E0532
:102A4000109709F449C01092900510928F051092CA
:102A50008B0510928A051696CD91DC911797CE01C1
:102A60009A9581159F4108F4D07ED1E0C11101C033
:102A7000D0E01996ED91FC911A97309731F01B96A2
:102A80006D917C9180E00995D823D11539F08CEFB8
:102A90008C0F813A28F58C2F0E942D0B1115A9F06F
:102AA000E0918D05F0918E05808584FD0EC08091AA
:102AB0008C05811551F0808191819C012150310953
:102AC0002F333E4710F40E94680BE8DC10928E050D
:102AD00010928D0510928C05DF91CF911F91089572
:102AE000DDDC8C2F20DFDACF10929D0580911C0158
:102AF000813021F58091E80587FF20C0E0E7F3E011
:102B00008EE1DF011D928A95E9F780E090E00E9456
:102B1000A90A80E090E00E94D10A1092A105BEDCD3
:102B200086E0E4E8F5E0DF011D928A95E9F710926E
:102B30008205109281051092830573CDE8E6F3E0DB
:102B400086E0DFCFD1DF2FEF84E39CE0215080408F
:102B50009040E1F700C0000088E19CE00FB6F894D7
:102B6000A895809360000FBE90936000FFCFAAE20B
:102B7000B0E0EDEBF5E10C94D12A86E993E0FC019D
:102B800001962091F100208323E08E399207B9F756
:102B900080919703893009F459C0C8F4823009F450
:102BA000B6C0833009F485C0813089F18091E80096
:102BB00083FFEAC080919603909197039A3008F0C2
:102BC000E3C0E92FF0E0E257F44D0C940C2B8A306F
:102BD00009F48CC08B3051F780919603813231F724
:102BE00080919A0390919B03892B01F78091E800D3
:102BF000877F8093E8000E94020C81E09091980307
:102C0000911101C080E080931C016EDFCFCF8091D5
:102C10009603813A59F68091E800877F8093E80017
:102C200080919A0390919B03892B61F060E080E092
:102C300090E070E00E94A90B8091E8008B77809370
:102C4000E800B4CF68E08EE993E0F3CF809196037B
:102C5000813209F0ABCF80919A0390919B038D7FD5
:102C6000892B09F0A3CF8091E800877F8093E8004B
:102C70008091E80082FF18C09091F3008091F200EB
:102C8000029731F48091F100813011F0863021F407
:102C90008091F10080931B018091E8008B778093F5
:102CA000E8000E94020C82CF809136058111E0CFAE
:102CB0007DCF80919603813A09F078CF80919A0375
:102CC00090919B03892B09F071CF8091E800877F59
:102CD0008093E8008091E80080FFFCCF80911C0188
:102CE0008093F1008091E8008E77D9CF8091960390
:102CF000813209F05BCF8091E800877F8093E80004
:102D00000E94020C8091990380931A014FCF809109
:102D10009603813A09F04ACF8091E800877F80933B
:102D2000E8008091E80080FFFCCF80911A01D8CFA5
:102D3000803889F0823841F580919A038F7087300E
:102D400018F58093E9008091EB0085FB882780F9D6
:102D50001092E90006C080910B05880F90919303B3
:102D6000892B9091E800977F9093E8008093F10081
:102D70001092F1008091E8008E7723C0811116C077
:102D800080919803813011F18091E80083FF0AC09F
:102D90008091E800877F8093E8008091EB0080625B
:102DA0008093EB00AA96E3E00C94ED2A823061F761
:102DB00080919803811589F01092E9008091E800D4
:102DC000877F8093E8000E94020CDECF81E0933081
:102DD00009F080E080930B05EFCF80919A038F700C
:102DE0002FEF280F263080F68093E9002091EB002A
:102DF00020FFE2CF933031F48091EB00806280932A
:102E0000EB00DACF9091EB0090619093EB0021E022
:102E100030E0A90102C0440F551F8A95E2F74093A4
:102E2000EA001092EA008091EB008860E8CF8111FF
:102E3000ABCF109198031F778091E3008078812BAE
:102E40008093E3008091E800877F8093E8000E94F0
:102E5000020C8091E80080FFFCCF8091E300806845
:102E60008093E30083E0111101C082E08093360576
:102E70008BCF8058823008F087CF80919803909153
:102E800099038C3D53E0950799F583E08A838AE2A4
:102E900089834FB7F894DE01139620E03EE051E2BB
:102EA000E32FF0E050935700849120FF03C08295F8
:102EB0008F703F5F8F708A30C8F0895C90E08D938F
:102EC0009D932F5F243161F74FBF8091E800877F8A
:102ED0008093E8006AE270E0CE0101960E94A90B9F
:102EE0008091E8008B778093E8004ECF805DE6CF3D
:102EF000292F33272330310509F44EC078F52130CE
:102F0000310509F47DC08BE590E0E8ECF1E022307A
:102F1000310509F039CF2091E800277F2093E800A0
:102F200020919C0330919D038217930708F49C0124
:102F300040E02115310509F068C0411166C080915B
:102F4000E80082FDCDCF80913605811549F28530AC
:102F500039F28091E80083FFF2CFC2CF80919A03CB
:102F600090919B032132310509F43BC02232310597
:102F700009F00ACF8330910508F006CFFC01EE0F6F
:102F8000FF1FE954FE4F0190F081E02D8C549E4FBD
:102F9000DC018C9190E011C09C013327813089F0D5
:102FA00022303105B1F0232B09F0EECEE9E6F2E054
:102FB000E4918E2F90E0E9E6F2E0009709F4E4CE88
:102FC000AACFE7E5F2E0E4918E2F90E0E7E5F2E0AA
:102FD000F4CFE5E3F2E0E4918E2F90E0E5E3F2E058
:102FE000ECCF8330910508F0CFCEFC01EE0FFF1F30
:102FF000E354FE4F0190F081E02D89E090E08BCF0B
:1030000082E190E0E3E2F2E086CF8091360581151F
:1030100009F466CF853009F463CF8091E80083FD21
:103020005FCF8091E80082FD8ACF8091E80080FF29
:1030300080CF9091F3008091F2002115310519F0B5
:103040008830910550F041E0089709F040E0809108
:10305000E8008E778093E8006CCF44914093F100B4
:103060003196215031090196E8CF803809F08CCE95
:103070008091E800877F8093E8008091940380939B
:10308000F10078CE811180CE10919803123008F0B3
:103090007BCE8091E800877F8093E80010939403B3
:1030A0000E94020C1115F9F084E08093360542E08D
:1030B00061EC81E00E94710C42E261EC84E00E94CC
:1030C000710C42E261EC82E00E94710C42E260EC21
:1030D00083E00E94710C80913605843051F482E0C7
:1030E00080931D0151CE8091E30087FDDDCF81E00B
:1030F000DCCF81E0F5CF9091E90592FF0FC0982FCA
:10310000990F990F990F93609093A2050E949F04C5
:1031100079D99093A4058093A30508950C949F04F6
:103120000E94450480937201833089F0843031F02D
:10313000823081F4E0DF81E00C9460058091EA0543
:10314000811529F082FF03C082E00C94A90482E07B
:103150000C949F0408950E9445048093700183306D
:1031600091F0843039F0823089F483E0C4DF81E06B
:103170000C9460058091EA05811529F083FF03C056
:1031800083E00C94A90483E00C949F040895EF92CB
:10319000FF920F931F93CF93DF93C62FD42F122F3D
:1031A000811599F060939B052DD99093920380939C
:1031B0009103C77081E001C0880FCA95EAF7C2D9B0
:1031C000CDB7DEB7E6E00C94EA2A80919B05681340
:1031D0002FC0E0909103F090920314D98E199F09AB
:1031E000883C910528F500E20D0FCD1799F0C770C6
:1031F000FF24F3948F2D01C0880FCA95EAF7B4D944
:10320000083040F48D2F877001C0FF0C8A95EAF7D3
:103210008F2D98D960E070E0812FD7DB083080F6E1
:10322000D77081E001C0880FDA95EAF79DD9C8CF41
:10323000C77081E001C0880FCA95EAF7F7CFAAE00E
:10324000B0E0E5E2F9E10C94C32A7C01DC011496BC
:103250008C91811509F4B4C061E0C7010E947F0E12
:103260008C01F7018581811519F180919705909165
:1032700098050097E9F008171907D1F0FC01FF271E
:10328000853008F053C064E0EE0FFF1F6A95E1F748
:10329000E15EFE4F85818460858311830083CF01C9
:1032A0008FD91092A10561E0C7010E947F0E8C01A9
:1032B000D70115963C90311409F40DC1C8019757F8
:1032C0008038910508F0EEC0003108F068C068EE63
:1032D00070E080E090E00E94D50E811160C0812CEA
:1032E000912C5401011125C089829A82AB82BC8243
:1032F0008E010F5F1F4FC8010E94E70EA02E912E76
:10330000811509F44CC0813009F075C0C8010E94D4
:10331000E70E813009F5C8010E94E70E60E570E014
:10332000893311F060E070E050DBE5CFE0E0F0E0E1
:10333000B1CFB9EE8B169104A104B10481F1C5019E
:10334000B4010E94D50EEFEF8E1A9E0AAE0ABE0A95
:103350008111EFCF0150C6CF823029F4C8010E94FD
:10336000E70E4BDAC8CF833029F4C8010E94E70E7C
:10337000DADAC1CF843089F4C8010E94E70EC12C8B
:10338000D12C5AE0B52E482F4053550B9A014A30A4
:103390005105D0F0C114D10421F58111ACCF809139
:1033A000A2058770811561F0D70115968C91811562
:1033B00039F08091E90582FF03C082E00E94600538
:1033C0002A96E1E10C94DF2ABC9CC001BD9C900DC3
:1033D00011246901C80ED91E8A2D992D0E94E70E6D
:1033E000D2CFAFE9BFE01197F1F700C00000B1E024
:1033F000CB1AD108CFCFE82FF0E0E956F84F749000
:10340000282F26952695269530E0F901E957F84FA3
:10341000C4908770D12C082E02C0D594C7940A940A
:10342000E2F7C0FACC24DD24C0F8F901E958F84FDE
:10343000A490B12C082E02C0B594A7940A94E2F788
:10344000A0FAAA24BB24A0F8F901E959F84F849006
:10345000912C02C0959487948A95E2F780FA88248B
:10346000992480F8C114D10411F081EEC6D9A114B9
:10347000B10411F086EEC1D960E070E0872DA5DAC5
:10348000A114B10411F086EE4EDAC114D10411F08A
:1034900081EE49DA8114910409F42DCF60E070E0E7
:1034A0008CE242CF0E35ECE71E0789F00F35FCE7C2
:1034B0001F0741F00D352CE7120769F480911E01BA
:1034C000811529F010921E0180E0B2DA68CF81E008
:1034D00080931E0164CF80911E01811146C0C801F6
:1034E00097558115914008F0EDC1F801FF2705308F
:1034F00008F055CF34E0EE0FFF1F3A95E1F79F013A
:10350000215E3E4F6901D70115968C91EC5DFE4F0F
:10351000908180FB90F99083811509F4B6C10E94D7
:10352000021290939A0580939905F60182818F5F2C
:1035300082838091A10590919D05892B8383809141
:103540009E0584834681578166857785C6010E94E2
:10355000950AD60115968C9181FD94C1902F812FEB
:1035600090939705809398059EC0480140EE841A79
:10357000910850909F0580919D05582A80919E0545
:10358000582A58E08516910408F061C09801277008
:10359000332781E090E001C0880F2A95EAF73114C3
:1035A00009F452C0582AD7018D919C910E940305BD
:1035B00021E030E0F90102C0EE0FFF1F8A95E2F72B
:1035C000FA87E98720918D0530918E053E832D8302
:1035D000409195055091960558874F8349E5642E93
:1035E00043E0742ED301CD90DD903D01C114D10490
:1035F00009F446C0511004C0F601828181111EC039
:10360000D60113968C91139790E0E985FA858E2365
:103610009F23892B99F018968C91982F9770911170
:1036200001C087E0F8E08F16910408F074C03114EF
:1036300009F46DC086958170811172C0A3E6B3E074
:10364000A615B70579F61CC080955822ACCF31106D
:103650004BC080919505909196050817190781F444
:103660001092960510929505109291051092920570
:1036700010929305109294051092900510928F0568
:1036800080918D0590918E05009709F428CFB8E0C0
:103690008B16910408F0E0C0652D0E94210A81116B
:1036A00002C081E0C5D9D70115969C91911509F406
:1036B0000BC510929B05980130572332310508F055
:1036C000F1C484E090E00E94472B9093E905809339
:1036D000E805F801E150F047E232F10508F01BC1BE
:1036E000E856F44D0C940C2B109396050093950519
:1036F0000E945C0B609391057093920580939305F3
:10370000909394051092900510928F054CCF82FBF8
:10371000882780F991CF311409F490CF80FF8ECFA4
:10372000D601AD90BC900A151B0519F4311409F4AB
:1037300085CFED81FE81EC15FD0509F47FCFD60123
:103740001D96ED91FC91309721F08081811509F44F
:1037500075CF652DC6010E94210A811509F46ECF2F
:1037600081E00A151B0509F080E0482E4320A114D2
:10377000B10441F0411006C0EF81F885AE16BF06D6
:1037800009F05CCF80E054D9D0928E05C0928D05AF
:1037900081E080938C05D60115968C9115978093C6
:1037A0008B0541100CC0AB2851F08D919C919C0170
:1037B00024503109213A3105A0F50E942D0BF60164
:1037C000A680B780C5019A9581159F4110F420EE1F
:1037D000B22277247394C50101978F339E4708F076
:1037E000712CD6011996ED91FC911A97309731F012
:1037F0001B966D917C9181E009957822711471F08E
:10380000F601868197810E94530480938A05C50141
:10381000F8E08F16910438F40E94680B0E944E1253
:1038200009C081D8CCCF0497813A910548F48A2DFC
:103830000E94F90A411409F452CE0E944E12AFCDF3
:103840000E944E128FE39CE90197F1F700C000003F
:103850008A2D0E94FD13EECFFC01208131810217D9
:10386000130739F4311008C010928C0580E0E0D8BD
:1038700036CE311409F433CEDC0118968C9185FDD7
:103880002ECEF4CF90E080E06BCEF90144855585D3
:1038900066857785C9010E94950AD60115968C9197
:1038A00081FF01CFC6010E94C412809197059091BB
:1038B00098050817190709F0F6CE1092980510928E
:1038C0009705F1CEF7018581F801E851FC47E73013
:1038D000F10508F0E8CEE654F44D0C940C2B26E2EA
:1038E00041EE61EE54DC5BCD27E245EE65EEFACFAA
:1038F00026E241EE60EEF6CF27E245EE64EEF2CF2F
:1039000026E241EE62EEEECF27E245EE66EEEACF2A
:1039100028E241E0EBCF8091E80581608093E805E3
:103920006091E8057091E90584E090E00E94752BB4
:10393000DBD835CD8091E90588608093E905F0CF2B
:103940008091E8058260EACF8091E8058460E6CF47
:103950008091E8058860E2CF8091E9058160EDCF34
:103960008091E9058260E9CF8091E8058061D6CF3A
:103970008091E8058062D2CF8091E8058064CECF47
:10398000B3D88091E8058068C9CF8091E8058C6044
:10399000C5CF8091E9058360D0CF8091E8058E7F07
:1039A000BDCF8091E905877FC8CF8091E8058D7FE5
:1039B000B5CF8091E8058B7FB1CF8091E805877FF7
:1039C000ADCF8091E9058E7FB8CF8091E9058D7FDD
:1039D000B4CF8091E8058F7EA1CF8091E8058F7DDF
:1039E0009DCF8091E8058F7B99CF7ED88091E805A7
:1039F0008F7794CF8091E805837F90CF8091E90500
:103A00008C7F9BCF8091E805992782FF939590FB4F
:103A100082F990FB83F982CF8091E905982F9095E8
:103A200090FB80F990FB81F988CF9091E805892F70
:103A30008F7B96FF806472CF57D89091E805892FCD
:103A400097FB87F980586ACF61E08EE090E00E9492
:103A50005B2B66CF60E0F9CF9091E805892F8F7ED0
:103A600094FF80615BCF9091E805892F8E7F90FF56
:103A7000816054CF9091E905892F877F93FF8860FB
:103A80005CCF89E23AC380919C05811521F085E3E2
:103A90000E942D0BD2CE89E2FBCF81E00E946A0901
:103AA0007ECC811579F10E94B30979CC811579F129
:103AB0000E94D40974CC811579F10E94E9096FCC78
:103AC000811579F10E94010A6ACC811579F10E9471
:103AD000170A65CC80919D058272F801E054F84781
:103AE000ED30F10530F5EF53F44D0C940C2B0E94A2
:103AF000730981E00E94580852CC0E948109F9CFD5
:103B0000811589F20E94A9094ACC811589F20E9487
:103B1000CB0945CC811589F20E94DD0940CC811585
:103B200089F20E94F5093BCC811589F20E940D0AA9
:103B300036CC0737BCE71B07F9F00837ECE71E0760
:103B400031F19801205E32452032310528F591117E
:103B50003AC00F7181E090E09C0102C0220F331F38
:103B60000A95E2F78901622F83E090E00E945B2BC7
:103B7000802F0E94990413CC81E0911551F00E948E
:103B80009F0443E062E081E00E94370508CC82E0B8
:103B9000F4CF0E94A904F5CF9115A9F00A353CE7AE
:103BA000130709F486C008F05EC001305CE7150712
:103BB00009F47DC003308CE7180709F472C00115C1
:103BC0001C4709F461C0F7018581C080D18081154F
:103BD00009F473C0C6010E94560E182F682FC60143
:103BE0000E94CD04B601812F0E944A0E0E947E06DB
:103BF0008C01D7011596BC9015971696AC90A2949F
:103C00002FE0A2228091A2058770811501F1CB2CB3
:103C1000B114F1F0812F807F803461F080E2800F59
:103C20008830A8F0812F807E803221F4023078F035
:103C3000A11469F08091E90582FF09C082E00E9429
:103C400060058091A2058770CC24C3948111C12C9A
:103C5000E12FE295EF70103C08F09AC0F0E0E253DB
:103C6000F44D0C940C2B0B35ACE71A0721F1809125
:103C7000E905002482FF0394802D0C351C4709F0D0
:103C8000A2CF0E94A50D9FCF0E947415EFEFF4E321
:103C90002CE0E150F0402040E1F700C000000E941D
:103CA0001A0D6FEF7FEF80E090E00E94752B0E946D
:103CB000A21581E0E6CF80E0E4CFC6010E940305B3
:103CC000182F90CFB12FBF70DB2E103118F0D29487
:103CD00090EFD922B114B9F0D11469F080E2800FCD
:103CE000883010F0011109C080919D058D298093C5
:103CF0009D050E944E12802F43C08091A1058D2901
:103D00008093A105F6CF802F0E949314D11409F45B
:103D10003FC080E2800F883010F0011104C08D2D6B
:103D20000E947B0506C0D0948091A1058D218093CF
:103D3000A1050E944E122CC0E12FEF70DE2E107FE5
:103D4000103219F0D29480EFD822011549F00130D9
:103D500009F479C0B11409F485C0A114B1F1CBCF35
:103D60008091E90582FD2DC0B11469F0D11439F0BC
:103D700080919D058D2980939D050E944E1280E0C3
:103D80000E94FD1305C080E00E949314D110C7CF9C
:103D9000C11409F4C7C08091A20580FDC3C0D7013A
:103DA00015961C928695869586950E949F04C7015C
:103DB00046DA8091A2058695869586950E94A9048B
:103DC000B1C0B114C9F0A11004C08D2D0E94A2127F
:103DD000DFCFF1E0AF12DCCF10919E058D2D812356
:103DE000D816B1F20E9402129093A6058093A50501
:103DF0001D2910939E05CCCFA110CACF8D2D0E94F6
:103E0000B41290919E058D2D8923811569F08D2D19
:103E10008095892380939E05811591F00E9402125E
:103E20008093A5059093A60580919F059D2D9823CD
:103E3000911509F4ADCFD094D822D0929F05A8CF88
:103E400080E090E0EDCFB11429F023E0A21608F055
:103E50009FCFBBCF32E0A31608F09ACF8D2D0E94E2
:103E6000B41296CFA114D1F3093349F44FEF57EEB2
:103E700083E0415050408040E1F700C00000802FB7
:103E80000E94931485CF812F869586958370811526
:103E900061F0813009F07CCFC8019370B11002C08D
:103EA00080E090E00E94D10A73CFC8019370B110F6
:103EB00002C080E090E00E94A90A6ACF6B2D802F9B
:103EC0000E943A1365CF812F8370811138C0B110E1
:103ED00027C0402F429546954770440F440F802FCE
:103EE0008F70042E01C0880F0A94EAF7202F2071EA
:103EF00004FF07C02FE030E001C0220F4A95EAF727
:103F000020951695169513701230A1F0133081F09C
:103F10003091A005113059F0822B83230E9499041F
:103F20000E949A0A60E0C7010E947F0E49CA832B53
:103F3000822BF4CF822B9091A0058927EFCFB1146B
:103F400051F110FFEDCF402F429546954770440F39
:103F5000440F802F8F70042E01C0880F0A94EAF757
:103F6000202F207104FF07C02FE030E001C0220F96
:103F70004A95EAF72095169516951370123089F038
:103F8000133069F03091EA05113041F0822B832320
:103F90000E949C04C5CF823018F2D5CF832B822B90
:103FA000F7CF822B9091EA058927F2CF1F70B114C9
:103FB00039F0812F0E949F04802F0E94A212B0CF5F
:103FC000802F0E94B412812F0E94A904A9CF023F22
:103FD00071F170F4003FC9F0013F91F0B11409F4A0
:103FE0004DC0A11409F447C0802F0E94FD1398CF43
:103FF000033F21F1043F91F78091E90582FD2AC03A
:10400000812F8F71B11401F316C0B11469F092E0E1
:10401000A91608F085CF1F7181E090E0012E01C044
:10402000880F0A94EAF7BECFA3E0AA16F2CF812F39
:104030008F71B110C9CF0E949F0472CF80E0B1147C
:1040400009F4A6CF1F7181E0012E01C0880F0A94E8
:10405000EAF79ECFB11421F0812F8F714CD860CF39
:1040600081E00E946005B2E0AB1608F459CF82E00F
:104070000E94600555CF812F8F71DDCFA11479F09B
:10408000093349F4EFEFF7EE23E0E150F040204030
:10409000E1F700C00000802F0E94931441CF812FD0
:1040A0008F7192CF0631BCE71B0799F080919D0577
:1040B0008272F801E052F847EB30F10508F039CD93
:1040C000E652F44D0C940C2B0631ECE71E0709F078
:1040D00001CD80919D05282F21718A7A211180E0E0
:1040E000911509F4D0CC91E0811101C090E090933A
:1040F0009C05811509F4C5CC85E30E94F90A9DCB86
:104100008091E705803178F48091E605811559F0BA
:10411000E091A8052091A7053091E2054091E105C5
:1041200057E02E1301C008956E2F70E05E9FF001DE
:104130001124DF01A755BA4F14968C91149781155D
:1041400051F111968C911197831325C08C91841392
:1041500022C015968C91159781111DC012968D91D4
:104160009C91A091E305B091E4058A1B9B0B883CD0
:10417000910588F48091E7058F7080618093E70551
:10418000E155FA4F80818F708061808381EE95E0E8
:1041900056D80C945605FB013196E770C2CFADE0BE
:1041A000B0E0E5EDF0E20C94C62A8C0186E0F8015F
:1041B000DE01189601900D928A95E1F7F801F580DD
:1041C000848191EE892E95E0992E6090E50561102D
:1041D00017C0811591F0F11409F414C1C8010E94AF
:1041E000AA0E811509F40EC187E0F801A1EEB5E031
:1041F00001900D928A95E1F783DFFF24F39456C076
:104200007080A280B380D090E6052091E3053091C4
:10421000E405A501421B530BD11409F4C3C0483C6B
:10422000510508F079C0811541F38091E205C18004
:10423000E090E70550E1E51608F059C0C81215C036
:104240008091E105871111C0F1104BC08E2D8F7048
:1042500080618093E70581EE95E00E941F198091AF
:10426000E705F8018683F12C21C0F1103AC040E047
:104270006C2D872D0E94FB0C40E06C2D872D0E9439
:10428000FB0CF82E8111EFCF888599850E949D0E39
:10429000292F22952F70903470F49F702230A0F057
:1042A0009115B1F0F8019681903190F48F2D2D96F3
:1042B000EEE00C94E22A2A5F2F70223068F0C801E9
:1042C0000E941F19FD2CF2CF911511F0811571F389
:1042D000805E883058F3F3CF803F40F3815F8330B6
:1042E000F9CF8091E70581608093E705BCCFC812C4
:1042F0003BC08091E105871137C0F11035C0E682DF
:10430000C8010E941F1987E0F801A1EEB5E00190F5
:104310000D928A95E1F771CFE090E705F0E1EF1695
:1043200050F481EE95E00E941F1987E0F40111928C
:104330008A95E9F798CF811509F45FCF9091E2054E
:10434000F8018181981310C08091E10587110CC09C
:10435000F1100AC0E682C8010E941F1987E0F4012B
:1043600011928A95E9F749CFC8010E94AA0E8115DA
:1043700009F448C0F11409F445C08091E705803282
:1043800008F432CF8091E1059091E2059A83898308
:10439000BC82AB826D821E82EF82CE0101960E94AA
:1043A0001F1922CF483C510508F0BFCF811509F4F1
:1043B00024CFF11439F19091E2058181981318C04E
:1043C0008091E105871114C08091E70580FD9BCFA6
:1043D000803108F498CF8683807F803F09F490CFA6
:1043E0008681982F907F905F8F70892B868388CFEE
:1043F000C8010E94AA0E8111F7CE8091E705816065
:104400008093E705C8010E941F19F7CEABE1B0E029
:10441000ECE0F2E20C94D02A4E8B5F8B688F798FA0
:104420008A8F192F9B8F91111092A1051D8A86E00A
:10443000FE017696DE011F9601900D928A95E1F7B6
:104440000A8D8091E90582FF1FC00E94021220910F
:10445000A3053091A405821B930B8C3D954038F049
:104460008091A20582FD03C082E00E9460050E9447
:1044700002122091A5053091A605821B930B8C3D5D
:10448000954010F00E948305011561F00B8B1C8B89
:1044900061E0CE010F960E947F0E61E0CE010F9683
:1044A0000E947F0E0B8B1C8B87E0FE013F96DE0186
:1044B000189601900D928A95E1F7CE0108966FDE6D
:1044C000811110C02091A7053091A80587E0FE0159
:1044D0003896DE01119601900D928A95E1F78C8550
:1044E00081110BC017E08091A8059091A705891351
:1044F0002BC06B96E4E00C94EC2A822F90E001969E
:10450000877099273817190671F40E947415109254
:10451000A7051092A80587E0E1EEF5E0DF011D9206
:104520008A95E9F7DFCF97E0929FD0011124A75534
:10453000BA4FFE01319601900D929A95E1F7809362
:10454000A7050E945605CECF189FC001112487559C
:104550009A4F25DE811569F28091A80590E00196B9
:10456000877099278093A805BECFA6E0B0E0EBEB5B
:10457000F2E20C94D02A0E9402128C01809137053D
:10458000909138058017910771F019821A820E9464
:104590000212BC0149815A8180E090E037DF10931C
:1045A0003805009337052696E4E00C94EC2AAAE03F
:1045B000B0E0ECEDF2E2E8C7FE0131968AE0DF01FF
:1045C0001D928A95E9F799EDC92E92E0D92E8F01B7
:1045D0002F0166246394712C3DEE832E32E0932EDE
:1045E000F60181916F018F3F09F445C0F894E82FDF
:1045F000E295EF70F0E021A18F70A30102C0440F9B
:10460000551F8A95E2F7CA01922F982B91A392A188
:104610008095892382A3789400C0EEEDF2E021E03A
:1046200030E0A12CB12C41914F3F81F0A42FA295F5
:10463000AF70A05EB0E08C9190E04F7002C0959595
:1046400087954A95E2F7790180FF02C0E12CF12CB1
:10465000AE28BF28220F331F8E169F0621F7F601C2
:1046600082918F3F11F00E947C0750EA5A95F1F732
:10467000D801AD92BC920E5F1F4FBEEDCB16B2E0DB
:10468000DB0609F0ADCF4AE050E0B2018EEF94E0D6
:10469000D9D7892BA1F08AE0F201AEEFB4E0019006
:1046A0000D928A95E1F781E0809390030E940212B7
:1046B00090938F0380938E032A96E0E181C78091C7
:1046C00090038115C9F300918E0310918F030E940E
:1046D0000212801B910B039778F34AE050E06EEFD3
:1046E00074E08CE295E0AED7892B49F08AE0EEEFDA
:1046F000F4E0ACE2B5E001900D928A95E1F71092FA
:104700009003DACFCDB7DEB7A0970FB6F894DEBF2F
:104710000FBECDBF85B7806885BF85B7806885BF70
:1047200084B7877F84BF0FB6F894A8958091600006
:10473000886180936000109260000FBE80E890E076
:104740000FB6F89480936100909361000FBE81E0F2
:1047500080931D018AE797E090936503809364033B
:104760000E94520C0E94A10C8091E2008460809310
:10477000E200789480913605811599F08091E900E6
:104780001091EC008F70179511271795182B109228
:10479000E9008091E80083FD0E94B7151F70109317
:1047A000E90082E084BD93E095BD9AEF97BD8093C8
:1047B0006E000E94050F811102C00E94171009EDC2
:1047C00012E0D8018D918D018F3F11F00E947C077E
:1047D000B2E00E3D1B07A9F70EED12E0F801819142
:1047E0008F018F3F11F00E947C07F2E00D3E1F0702
:1047F000A9F78AE0ECE2F5E0DF01282F1D922A9567
:10480000E9F7EEEFF4E0DF011D928A95E9F780E029
:1048100090E03DD7833E9E4F21F40E94050F811109
:1048200027C063EE7EEF80E090E05FD760E082E03B
:1048300090E041D781E08093A00561E083E090E0C3
:104840003AD760E074E184E090E04FD70E94290FEE
:104850000E94171040E050E0BA018FE090E03DD791
:1048600040E050E0BA0183E190E037D70E941E0F8C
:1048700082E090E004D780930C0584E090E007D7B5
:104880009093E9058093E80592DEEFEBFDE5319723
:10489000F1F700C000008BDE80912C0580FF07C07F
:1048A0006FEF7FEF80E090E020D70E941A0D83E049
:1048B00090E0E5D60E9499040E94961081E08093D2
:1048C000080548E050E067E170E084E295E0C7D673
:1048D0001092080580912405843010F40E94290F5D
:1048E00021E040E060E080E090E00E94BC098BE0C5
:1048F00091E090935A0580935905F7E16F2EF5E00A
:104900007F2E8091360510E403E0853009F49EC0C7
:104910004EDE7DE0A72E75E0B72EECE28E2EE5E0B0
:104920009E2ED401F501219131918D919D916E16AC
:104930007F0609F497C028173907A9F3512CD40131
:104940000D911D914D01F501C190D1905F01C016EF
:10495000D10651F1C026D126412CEE24E394F12C4E
:10496000C6018E219F21892BB1F049825A820E9473
:1049700002129C838B83F1E0FD8391E098012E214C
:104980003F21232B09F490E09E8349815A816B815A
:104990007C818D813BDD4394EE0CFF1C2FE04212A5
:1049A000DFCFF50112930293539485E05812C7CFDD
:1049B0000E945C0B5CC080913605843009F439C0DC
:1049C0000E943B0F80910A0581110DC00E9464086E
:1049D00010921901809124058370809318010E9420
:1049E000561000931701F1E0F0930A0510920905A3
:1049F00088E190E00FB6F894A895809360000FBE10
:104A00001093600083B7817F846083BF83B7816028
:104A100083BF7894889583B78E7F83BF0FB6F89451
:104A2000A89580916000886180936000109260007A
:104A30000FBEBDDDECE2F5E081919191892B09F08B
:104A400043C3A6E3B5E0AE17BF07B1F780913605C3
:104A5000853009F4B0CF0E9474150E949A0A109212
:104A60000A0556CF2817390709F068CF7EDD009177
:104A70008F05109190050115110591F1C0901B054E
:104A8000D0901C05E0901D05F0901E050E945C0B67
:104A90006C197D098E099F09C0901705D0901805E3
:104AA000E0901905F0901A056C157D058E059F059F
:104AB000B8F0C8010E946A141092900510928F05F8
:104AC00010921B0510921C0510921D0510921E05D8
:104AD00010921705109218051092190510921A05D8
:104AE000E0909705F0909805E114F104E9F0009149
:104AF000990510919A050E940212801B910B893C26
:104B0000910590F0C7019927A5E0EA1608F014C1B5
:104B100044E0880F991F4A95E1F7815E9E4FFC01A2
:104B2000258122FF0E94E0120E943B0F86E0E4E80C
:104B3000F5E0DE01119601900D928A95E1F7B090B3
:104B40008505D090860510918705C0908805009155
:104B5000890510928605109287051092880510929B
:104B60008905812F8D29811509F441C0E090210527
:104B7000F09022050E9402129C012E193F0990918B
:104B80008205911509F49BC22531310580F19F3FC3
:104B900019F09F5F90938205D11459F00E94500A3A
:104BA00091E01D140CF09FEF899F802D11248093BC
:104BB0008605111559F00E94500A91E011160CF06B
:104BC0009FEF899F802D1124809387058091860512
:104BD000811569F0F0908705F11449F00E94420AAE
:104BE000809386058F2D0E94420A809387058C2D25
:104BF000802B811509F441C0E0901F05F09020053D
:104C00000E9402129C012E193F0990918105911575
:104C100009F450C22135310580F19F3F19F09F5FA3
:104C200090938105C11459F00E94700A91E01C1400
:104C30000CF09FEF899F802D11248093880501152A
:104C400059F00E94700A91E010160CF09FEF899FB6
:104C5000802D11248093890580918805811569F044
:104C6000F0908905F11449F00E94420A809388056A
:104C70008F2D0E94420A8093890580918505B81284
:104C800019C080918605811511F08D1113C02091F6
:104C90008705211511F021130DC0909189059115FB
:104CA00011F0901307C030918805311103C0822B99
:104CB000892B81110E94111386E0FE013196A4E830
:104CC000B5E001900D928A95E1F70E949A0A9091C1
:104CD0002305891721F0809323050E945C0B8091A6
:104CE0003605843009F00DCE83E08093E900809191
:104CF000E80082FF06CE8091E80090E085FF0BC0BF
:104D00000E94210C30E2E32EF12C8E010F5F1F4F29
:104D10008115F1F091E08091E8008B778093E800B5
:104D2000911509F4EECD8981EFEFE80FE33150F5ED
:104D3000F0E0EB51F44D70C480E090E0F0CE809153
:104D4000F100D8018D938D01B1E0EB1AF10811F358
:104D50008091E80085FDF3CF8091E8008B77809308
:104D6000E8000E94210C811599F3D4CF1A828CE0BF
:104D70008B8319C08A81833081F138F4813061F0EE
:104D8000823019F18FEF89830EC08430D9F71B82EE
:104D90001C821D821E8207C00E945C0B43D46B8361
:104DA0007C838D839E83E0915905F0915A0530975D
:104DB00009F4A7CD0284F385E02D309709F4A1CD45
:104DC00060E2CE01019609959CCD88E290E057D42F
:104DD0001B821C821D828E83E6CF8B8190E0FE01B8
:104DE0003196329685309105F4F6DC01AA0FBB1F8F
:104DF000A45DBA4F2C9111963C9131832283019688
:104E0000F0CF8A81823039F0853009F0BBCF80E065
:104E10000E946A09C8CF6B817C818D819E8102D4FA
:104E200088E290E048D4BFCF4C816B818A810E9498
:104E30001B0E9827892798279E838D83B4CF2D81B9
:104E40003E813227232732274C816B818A810E9441
:104E5000BC0DA9CF0E94E30DA6CF9A81933009F033
:104E600091CF883009F439C0893009F45AC08B8158
:104E7000833061F158F4813091F0823009F093CFA2
:104E80008C8181111CC00E9481098DCF843009F072
:104E90008ACF8C8120E0409127056D810CC04C8128
:104EA0002FEF429F040E40E0411D11248091250503
:104EB00020E06091260590E00E94BC0974CF0E941A
:104EC000730960E08C810E948D096DCF8C81809385
:104ED000280580E00E94580866CF8B818330F1F06E
:104EE00078F48130B9F0823009F05DCF80912405EB
:104EF000982F93708695869591110EC080E00CC016
:104F0000843009F050CF809125058C83809126054F
:104F10008D8349CF809127058C8345CF80912805CB
:104F2000FBCF0E941E0F3FCF80E18A833CCF1A82C5
:104F300089EE1ECF8A809B80982489249824A12CF6
:104F4000B12CFE0131967F018C818F01080F111D5C
:104F5000E016F10609F427CF80E0F9EE8F169104F0
:104F6000A104B10420F4C401895E9C4F88D3D70109
:104F700014968C93BFEFEB1AFB0AEFEF8E1A9E0A82
:104F8000AE0ABE0AE5CF8C80912CA12CB12CCA8030
:104F9000DB80DC24CD24DC24E12CF12C8E010F5F9E
:104FA0001F4F212C312C2101281439044A045B04A1
:104FB00008F0F9CEF9EECF16D104E104F10438F48B
:104FC000D80114966C91C601895E9C4F74D3BFEFD3
:104FD0002B1A3B0A4B0A5B0AEFEFCE1ADE0AEE0AE7
:104FE000FE0A0F5F1F4FE0CF0E94DD0FDCCE85E091
:104FF0009CCF8C80912CA12CB12CCA80DB80DC242E
:10500000CD24DC24E12CF12C212C312C21018E012A
:105010000B5F1F4F281439044A045B0408F0C3CE09
:1050200080E0FEEECF16F2E0DF06E104F10418F4B2
:10503000C601899624D3D8018D938D01BFEF2B1A19
:105040003B0A4B0A5B0AEFEFCE1ADE0AEE0AFE0AB3
:10505000E1CF8C80912CA12CB12CCA80DB80DC2488
:10506000CD24DC24E12CF12C8E010F5F1F4F212C6D
:10507000312C2101281439044A045B0408F093CE32
:10508000FEEECF16F2E0DF06E104F10430F4D801C1
:1050900014966C91C60189960ED3BFEF2B1A3B0A6A
:1050A0004B0A5B0AEFEFCE1ADE0AEE0AFE0A0F5F2A
:1050B0001F4FE0CF2B30310508F0B1CDDECD2B30C6
:1050C000310508F066CD93CD80910B05811509F46B
:1050D000BDCCB0E1B9BDE2E1E9BD09B400FEFDCF50
:1050E0008091D8008F7D8093D8008091E00082600D
:1050F0008093E0008091E00081FDFCCF0E94741558
:10510000A5CC78941F921FB61F9211248F939F9362
:10511000AF93BF938091A6039091A703A091A8039A
:10512000B091A9030196A11DB11D8093A603909390
:10513000A703A093A803B093A903BF91AF919F9138
:105140008F911F901FBE1F9018951F920F920FB640
:105150000F9211242F933F934F935F936F937F93FD
:105160008F939F93AF93BF93EF93FF938091E10051
:1051700082FF09C08091E20082FF05C08091E100BA
:105180008B7F8093E1008091DA0080FF24C08091C2
:10519000D80080FF20C08091DA008E7F8093DA00F3
:1051A0008091D90080FFA9C080E189BD82E189BDDD
:1051B00009B400FEFDCF81E0809336058091950310
:1051C000811109C00E94520C0E94A10C8091E20042
:1051D00084608093E2008091E10080FF1AC080919A
:1051E000E20080FF16C08091E2008E7F8093E20093
:1051F0008091E20080618093E2008091D80080621B
:105200008093D80019BC85E08093360583E08093B5
:105210001D018091E10084FF2FC08091E20084FF96
:105220002BC080E189BD82E189BD09B400FEFDCFBC
:105230008091D8008F7D8093D8008091E1008F7E8F
:105240008093E1008091E2008F7E8093E200809164
:10525000E20081608093E20080919403811509F45B
:1052600052C084E08093360580913605843009F081
:1052700052C082E080931D018091E10083FF2CC029
:105280008091E20083FF28C08091E100877F8093B6
:10529000E10082E080933605109294038091E10052
:1052A0008E7F8093E1008091E2008E7F8093E20008
:1052B0008091E20080618093E20042E060E080E063
:1052C0000E94710C8091F00088608093F00081E072
:1052D00080931D0180931C01FF91EF91BF91AF91CD
:1052E0009F918F917F916F915F914F913F912F91FE
:1052F0000F900FBE0F901F90189519BC1092360595
:105300001092950368CF8091E30087FF02C083E08D
:10531000A9CF81E0A7CF81E0ADCF1F920F920FB64A
:105320000F921124EF92FF920F931F932F933F93AD
:105330004F935F936F937F938F939F93AF93BF939D
:10534000CF93EF93FF9309EE10E0F8018081C091B5
:10535000EC008F70C795CC27C795C82B108280EFC3
:10536000E82EF12CF7018081877F808378940E945A
:10537000B715F8011082F701808188608083CF70B3
:10538000F801C083FF91EF91CF91BF91AF919F91B1
:105390008F917F916F915F914F913F912F911F91CD
:1053A0000F91FF90EF900F900FBE0F901F901895E8
:1053B000FF920F931F93CF93DF93182FEB0110925F
:1053C000BC0084EA8093BC000E940212082FF92ED0
:1053D0008091BC0087FF28C08091B900887F883009
:1053E00029F08091B900887F803199F51093BB0036
:1053F00084E88093BC000E940212182F092F80912C
:10540000BC0087FF1EC02091B900287F80E090E09B
:10541000283199F081E090E0203411F480E090E0B0
:1054200091958195910909C0802F9F2D0E940813A5
:10543000C817D90768F68EEF9FEFCDB7DEB7E5E066
:10544000CAC0812F902F0E940813C817D907B8F639
:10545000F2CF8FEF9FEFF1CF1092B9008CE08093E5
:10546000B80008950F931F93CF93DF93EB018093C0
:10547000BB0084E88093BC000E940212182F092F01
:105480008091BC0087FF11C02091B900287F81E086
:1054900090E0283211F480E090E091958195910997
:1054A000DF91CF911F910F910895CF3FDC0741F31A
:1054B000812F902F0E940813C817D90708F78EEF85
:1054C0009FEFEECFA0E0B0E0E7E6FAE25FC0682E23
:1054D000962E5A01690178010E940212782E892EB7
:1054E0000431110518F10F3F100719F1C80164E1EB
:1054F00070E034D0162F072F612F702F862D58DFC4
:10550000EC01892BC1F0FFEFEF16FF06A9F3872D01
:10551000982D0E940813E816F90670F784E9809325
:10552000BC00CE01CDB7DEB7EEE04CC011E000E02C
:10553000E3CF15E0FCCFB701892D94DFEC018501A5
:10554000CA0CDB1C0C151D0549F3209739F7B70170
:10555000F80181918F0186DFEC01F4CFAA1BBB1B00
:1055600051E107C0AA1FBB1FA617B70710F0A61B63
:10557000B70B881F991F5A95A9F780959095BC0184
:10558000CD0108952F923F924F925F926F927F923A
:105590008F929F92AF92BF92CF92DF92EF92FF9243
:1055A0000F931F93CF93DF93CDB7DEB7CA1BDB0BEF
:1055B0000FB6F894DEBF0FBECDBF09942A88398894
:1055C00048885F846E847D848C849B84AA84B9849B
:1055D000C884DF80EE80FD800C811B81AA81B981A7
:1055E000CE0FD11D0FB6F894DEBF0FBECDBFED01BB
:1055F000089597FB072E16F4009406D077FD08D087
:10560000ADDF07FC05D03EF4909581959F4F08953E
:10561000709561957F4F0895EE0FFF1F0590F491EF
:10562000E02D099469279627692778278727782707
:105630000895FB01DC0102C005900D9241505040DD
:10564000D8F70895FB01DC0104C08D910190801909
:1056500021F441505040C8F7881B990B0895DC0194
:10566000CB01FC01F999FECF06C0F2BDE1BDF89A6D
:10567000319600B40D9241505040B8F70895F99911
:10568000FECF92BD81BDF89A992780B50895A8E113
:10569000B0E042E050E0E5CFDC01A40FB51F41507F
:1056A000504040F0CB01840F951F2E9105D0415002
:1056B0005040D8F70895262FF999FECF92BD81BDAD
:1056C000F89A019700B4021639F01FBA20BD0FB640
:1056D000F894FA9AF99A0FBE08950396272FECDFF3
:1056E000EADF252FE9DF242FE7CF0196272FE4DF1C
:1056F000E2CFF894FFCF46134C134F1355136A13A0
:105700006A136A136A136A136A136A136A135813C3
:105710005D136113671378137E1382139816BE16F8
:10572000C416BE16C41617173917C41635184218F2
:10573000CD1C331DD51CA01CA41CD91CA81CDD1C11
:10574000E91CB41C2C1DB81CED1CBC1CF11C151D47
:10575000C01CF51C1C1DC51CFA1C021DAC1CE11C48
:10576000B01CE51CC91CFE1C0C1D241D2A1D9A1C06
:10577000D11C3A1D781C7C1C6F1C741C801C841C62
:10578000881C771D7D1D4D1D511D801D561D851DBD
:105790005B1D8A1D601D8F1D651D941D621E621E8E
:1057A0009C1E9C1E431F5E1FC81EC81E631FD61F63
:1057B000E71FE71F4D1D511D801D561D851D5B1DDB
:1057C0008A1D601D8F1D651D941DB626BA260127F2
:1057D00014271F272A272D272D272D27C226C2262B
:1057E000942797279A27C327F427F727F9272928EB
:1057F0004E004D004B004A0000FF00590B800D96F3
:105800000D9B0DA00D770D03FFFF000001000100AF
:1058100000000000000000FD14B7040000000000BC
:1058200000000000000000AB18C7040000000000EA
:10583000000000000000009018C0040000000000FC
:1058400000000000007F148F14D614000004010033
:1058500000000000007F148F14D614000000010126
:10586000000100010000FFFF167C10FF0010350151
:10587000070000000000002D0010FF001045020787
:105880000000000000002E0004FF00044504070093
:1058900000000000002A0022FF00224C0007000048
:1058A000000000004422B684016201AC00DA01F37A
:1058B0000113027477000102030405060708090AB0
:1058C0000B0C0D0E0F101112131415161718191AB0
:1058D0001B1C1D1E1F20212223242526272829FFCB
:1058E0002A2B2C2D2E2F3031323334353637FF38DA
:1058F000393A3B3CFFFF3DFFFF3EFF3F40FF414247
:1059000000000F001E002D003C004B005A006900F3
:10591000780087009600A500B400CB00E0000410DA
:10592000171026103510441053106210711080109B
:105930008F109E10AD10BC10CE10E01006201A2063
:10594000292038204720562065207420832092206B
:10595000A120B020C920E020093022303130403071
:105960004F305E306D307C308B309A30A930BD3096
:10597000D230E03002401540274060409840AB40B4
:10598000C340D240E04001040404040404040404BD
:1059900004040404010104040404040404040404CD
:1059A00004040401010404040404040404040404BD
:1059B00004010104040404040404040404040401B0
:1059C000010101040101010101F0F1F4C666F7F6DD
:1059D000F5673031323334979694959392E200E92B
:1059E00000EA00B500B600B700CD008301CC008A04
:1059F000019201940121022302240225022602279A
:105A0000022A02B300B4006F0070009F01CB019F17
:105A100002A002E200E900EA00B500B600B700CD3E
:105A2000008301CC008A0192019401210223022407
:105A3000022502260227022A02B300B4006F00707A
:105A4000009F01CB019F02A002A50196018701786A
:045A50000100000051
:00000001FF
