:100000000C940C040C9444040C9444040C94440488
:100010000C9444040C9444040C9444040C94440440
:100020000C9444040C9444040C94E7290C94BF2AC7
:100030000C9408120C9444040C9444040C9444044E
:100040000C9444040C9444040C9444040C94440410
:100050000C9444040C94C3290C9444040C9444045C
:100060000C9444040C9444040C9444040C944404F0
:100070000C9444040C9444040C9444040C944404E0
:100080000C9444040C9444040C9444040C944404D0
:100090000C9444040C9444040C9444040C944404C0
:1000A0000C9444040C9444040C9444040501090287
:1000B000A10185020901A1000509190129081500FE
:1000C0002501950875018102050109300931158165
:1000D000257F95027508810609381581257F9501D0
:1000E00075088106050C0A38021581257F95017572
:1000F000088106C0C005010980A101850319012AF4
:10010000B700150126B700950175108100C0050CD8
:100110000901A101850419012AA002150126A002E6
:10012000950175108100C005010906A1018506052C
:100130000719E029E71500250195087501810205D9
:1001400007190029EF1500250195F07501810205B9
:10015000081901290595057501910295017503910D
:1001600001C00660FF0961A1010962150026FF00B8
:100170009520750881020963150026FF00952075FA
:10018000089102C005010906A101050719E029E748
:1001900015002501950875018102950175088101F9
:1001A0000507190029FF150026FF0095067508812F
:1001B000000508190129051500250195057501910E
:1001C00002950175039101C009025B00030100A0C3
:1001D000FA090400000103010100092111010001D5
:1001E00022440007058103080001090401000203FD
:1001F00000000009211101000122220007058203ED
:100200002000010705030320000109040200010387
:1002100000000009211101000122B6000705840336
:100220002000011201000200000008424B251202CA
:10023000000102000120036B0062006400360037F9
:10024000006D006B006900690072006700620020A9
:100250000076003200000010034B004200440066AC
:100260000061006E007300000004030904167C1E88
:10027000001F00200021002200230024002500266A
:100280000027002D002E002A004C002B0014001A1D
:10029000000800150017001C0018000C00120013C5
:1002A000002F0030003100035700570400160007EC
:1002B0000009000A000B000D000E000F003300348F
:1002C00000000028000457E1001D001B0006001973
:1002D00000050011001000360037003800E500006E
:1002E0000052000157E000E300E200000000002C93
:1002F000000000000002570000E400500000005120
:10030000004F0035003A003B003C003D003E003FFE
:10031000004000410042004300440045004C0049B9
:100320000001004A0052004D004B00010001000195
:100330000001000100010001000100010046000170
:1003400000500051004F004E0001005009500A4F6C
:100350000A4F09010001000000010001000100B680
:10036000002A00B70001000100110A290301000161
:10037000000100010000000100A8000100010001CF
:1003800000000000004C00000000000100000065BB
:1003900021010000000100010035001E001F0020A7
:1003A0000001000100010001000100010001000145
:1003B0000001004C02A60001002100220023004B96
:1003C0000001000100010001000100010001000125
:1003D000000100010001002400250026004E00015C
:1003E000005009500A4F0A4F0901000100000001A6
:1003F000000100010027000100B20001000100011E
:10040000002903010001000100010000002A000191
:100410000001000B7001000000000001000000005E
:1004200000010000000100B60000003E00B70020FF
:10043000782B78010001001370AA00A900AE00A873
:100440000001000100010001000100257801000108
:100450000001000100010001000100010001000194
:1004600000010001000100007C267801000100016C
:100470000001000100010001000100010001000174
:100480000001000000037C2378010001000100014D
:100490000001000100010010030100010001000142
:1004A0007C00002178247801000100010000000098
:1004B00000010000000000005200000452287800F3
:1004C0000022782778167C1E001F002000210022C1
:1004D00000230024002500260027002D002E002ADE
:1004E00000A8002B0014001A000800150017001CBB
:1004F0000018000C00120013002F003000310068BB
:1005000000390004001600070009000A000B000D66
:10051000000E000F0033003400000028006900E1E5
:10052000001D001B00060019000500110010003618
:100530000037003800E50000005200E300E0000052
:1005400000E200000000002C00000000000052004B
:1005500000E4005000000051004F00007767570092
:10056000876656008676550085756500847464003C
:100570008373630082726200817161008070600029
:10058000182838000829390009193A000A1A2A00DF
:100590000C1C2C000D1D2D0006162600051525002F
:1005A000041424000313230002122200011132005C
:1005B00000213100102030008878680089796900B6
:1005C0008A7A6A008B7B6B008C7C6C008D7D6D0061
:1005D0000E1E2E00071727018575650184746401BE
:1005E00083736301827262018171610180706001B5
:1005F000182838010829390109193A010A1A2A016B
:100600000B1B2B010C1C2C000F1F2F0187665601A2
:1006100004142401031323010212220101113201E7
:100620000021310188786801897969018A7A6A0133
:100630008B7B6B010D1D2D010E1E2E010F1F2F0038
:100640008E7E5D0177675701071727010616260181
:10065000102030018D7D6D018E7E5D017F6F5F000A
:100660007F6F5F008F6E5E000101010101010101DA
:100670000102020202020202020203030303030355
:100680000303040404040404040505050505060623
:1006900006060607070707070808080809090909E1
:1006A0000A0A0A0B0B0B0C0C0C0D0D0D0E0E0E0F87
:1006B0000F0F101011111112121313141415151617
:1006C000161717181819191A1A1B1B1C1D1D1E1E88
:1006D0001F202021222223242425262627282929D9
:1006E0002A2B2C2D2D2E2F30313232333435363704
:1006F00038393A3B3C3D3E3F404142434445464702
:1007000048494A4C4D4E4F50515354555658595ADA
:100710005B5D5E5F616264656668696B6C6D6F707E
:1007200072737577787A7B7D7E8082838587888AED
:100730008C8E8F91939596989A9C9EA0A2A3A5A724
:10074000A9ABADAFB1B3B5B7BABCBEC0C2C4C6C920
:10075000CBCDCFD1D4D6D8DBDDDFE2E4E7E9EBEED9
:10076000F0F3F5F8FAFDFF000000000000000000C3
:100770000000000000000000000000000000000079
:1007800000000000000000000000007E0F00D4FF09
:10079000FFFFC70000007800000000000000002AF2
:1007A0002B280000000000000000000000000000F6
:1007B000000029000000002C1E34202122243426B1
:1007C00027252E362D3738271E1F202122232425AA
:1007D000263333362E37381F0405060708090A0B5F
:1007E0000C0D0E0F101112131415161718191A1BD1
:1007F0001C1D2F3130232D350405060708090A0B6F
:100800000C0D0E0F101112131415161718191A1BB0
:100810001C1D2F3130354C0011241FBECFEFDAE004
:10082000DEBFCDBF04B603FE18C08091A105909134
:10083000A205A091A305B091A4058730904BA740D5
:10084000B04B59F41092A1051092A2051092A30585
:100850001092A405E0E0F8E3099513E0A0E0B1E010
:10086000EAE6FAE502C005900D92A831B107D9F782
:1008700025E0A8E1B3E001C01D92A13AB207E1F77B
:100880000E946D240C94B92C0C940000FC01828110
:10089000813021F4858181708E5F0895823011F45A
:1008A00084E0089581E008959C019A9581159F4107
:1008B00018F5F901EE27F270832F8170B9016627D0
:1008C0007470A9014427587034FF0CC08295807F52
:1008D000EF2B09F08062672B09F08064452B69F0EB
:1008E00080680895EF2B09F08260672B09F084601F
:1008F000452B19F08860089580E00895CF93DF9329
:10090000EB010E945404FE010995DF91CF910895F7
:10091000982F82958F70882311F0982F84E0292FCB
:1009200026952695222311F08E5F922F9695911190
:100930008F5F08958093560508958093A0050895CC
:1009400021E030E001C0220F8A95EAF78091A005EE
:10095000822B0E949D04089521E030E0A90102C08D
:10096000440F551F8A95E2F7CA0180959091A00522
:1009700089230E949D04089580916F01833019F4AA
:1009800081E00E94AC0410926F01089580916D0186
:10099000833019F482E00E94AC04089580916B01C9
:1009A000833011F40E94AC040895292F953098F5F6
:1009B0008F3088F590E03FE0239F800D911D11243A
:1009C000282F277041E001C0440F2A95EAF723E061
:1009D000969587952A95E1F7FC01EE0FFF1FE80F2A
:1009E000F91FEF5EFA4F20E030E070E05191DF0137
:1009F0001197CB01022E02C0969587950A94E2F7D3
:100A0000817081958527842385278C932F5F3F4FA5
:100A10002330310559F70895292F953078F58F3017
:100A200068F590E03FE0239F800D911D1124682F11
:100A3000677023E0969587952A95E1F7FC01EE0F04
:100A4000FF1FE80FF91FEF5EFA4F40E050E080E033
:100A5000219130E0062E02C0369527950A94E2F7E0
:100A600021703327042E01C0220F0A94EAF7822B4B
:100A70004F5F5F4F4330510559F7089580E0089567
:100A80009091A00521E030E0F90101C0EE0F8A95B8
:100A9000EAF7D90102C0AA0FBB1F6A95E2F7EA2B59
:100AA00001C0220F4A95EAF7892F8E23E81305C06B
:100AB000892F822B0E949D0408952095822F8923DF
:100AC000F9CF80915E0590915D05981301C008955E
:100AD0008F5F8770FACF9091580580958923809316
:100AE0005805282F2770211111C0891779F090918E
:100AF0009F0592FF0BC08695869586950E94AC0453
:100B00001092580510925A05109259050895982F81
:100B10009095809153058923809353050895809182
:100B20005405882331F01092540510925C05109200
:100B30005B050895803E9105D1F1C8F4813391059C
:100B400009F47FC048F48932910509F46FC08A32F4
:100B5000910509F47DC0089589339105E1F082384B
:100B60009105C9F08533910509F45BC00895843E71
:100B70009105D1F148F4823E910531F1833E910512
:100B800041F181EE90E00895863E9105C1F1873EE6
:100B90009105E1F1089520919E052370211165C012
:100BA00020919F0523FF14C089E290E008952091D1
:100BB0009E0520FD43C030919F0530FF09C024FFF2
:100BC0004EC080E090E0089520919E0522FDF7CF71
:100BD000089520919E0522FD45C030919F0530FD6E
:100BE00044C024FFF5CFEDCF20919F0521FFF0CF2A
:100BF00080919E0584FDE5CF87EE90E008952091D9
:100C00009E0523FFE5CF24FDDCCFF6CF20919E0586
:100C100023FD2EC030919F0531FFE3CF84EE90E09D
:100C2000089520919E0525FFD3CFBECF20919E052C
:100C300025FD21C020919F0523FFCACF89E390E0C5
:100C4000089520919E0526FFC3CF8AE290E0089583
:100C500020919E0526FFBCCF81E390E0089583EEAE
:100C600090E0089582EE90E0089580EE90E008957F
:100C700086EE90E0089585E390E0AACF90919E05DE
:100C800092FF10C041E0282F2471243009F040E089
:100C900031E0282F2871283009F030E0431711F097
:100CA0002CE0822793FF10C041E0282F24712431CB
:100CB00009F040E031E0282F2871283109F030E0B8
:100CC000431711F02CE0822730919F0530FF10C0B0
:100CD00051E0282F2171213009F050E041E0282F08
:100CE0002871283009F040E0541711F029E08227DC
:100CF00031FF10C041E0282F2171213109F040E07F
:100D000031E0282F2871283109F030E0431711F025
:100D100029E0822794FD877E08951F93CF93DF9368
:100D20000E949A05EC01811522E5920708F053C054
:100D3000811540E5940708F0DDC0803E9105F8F488
:100D40008D3C910508F0AEC0883A910580F4853A53
:100D5000910508F099C08130910521F00497813AFE
:100D6000910550F4CE01DF91CF911F910895885ADB
:100D700091094B9708F48BC0C0E0D0E0F3CF811508
:100D800050E49507F8F4C11580E2D80708F0CBC00D
:100D9000C83ED10538F3CE019A9581159F4160F781
:100DA0008D2F0E943E06182FCE0199270E949A058A
:100DB000212F30E0322F2227E901CC27DF71C82B09
:100DC000D92BD0CF99270E949A05CC27DF70C82B4A
:100DD000D92BD06AC7CF803842E59407C8F5803652
:100DE00052E5950708F067C0C03482E5D807B0F037
:100DF0008C2F86958695877020E2829FC0011124F2
:100E0000C37021E030E0A90102C0440F551FCA950C
:100E1000E2F7EA01C82BD92BDC68A4CFC03252E537
:100E2000D50708F041C08C2F8695869520E2829FD9
:100E3000C0011124C37021E030E0A90102C0440FB9
:100E4000551FCA95E2F7EA01C82BD92BDD688ACF76
:100E5000803C52E5950760F48F71C03AD24508F0A6
:100E60003FC090E0982F8827EC01C46FD06A7ACFFA
:100E7000805C9245809708F07FCFDC2FCC27CC2771
:100E8000DF71C06FD06A6ECFA497D0646BCFC85AA1
:100E9000D0E0CC0FDD1FC752DD4F0990D881C02DA7
:100EA000D46460CFD0655ECFCF71D0E0DC2FCC278B
:100EB000C16FD06A57CF86958695877020E2829F52
:100EC000C0011124C37021E030E0A90102C0440F29
:100ED000551FCA95E2F7EA01C82BD92BDA6842CF31
:100EE0000E943E06C82FD0E0DC2FCC27CC27DF7134
:100EF000D06238CF8F710E943E0665E0D695C795C7
:100F00006A95E1F7CF70D0E0DC2FCC27282F30E0B6
:100F100084FF05C054E0220F331F5A95E1F7C22B1E
:100F2000D32BD0691FCF8D2F8F710E943E06182FB3
:100F3000CE0199270E949A05212F30E0322F2227D7
:100F400022273F71282B392BE901D2CF80E0089569
:100F5000F894E82FE295EF70F0E041A18F7021E066
:100F600030E0B90102C0660F771F8A95E2F7CB0126
:100F7000962F9095942391A392A1892B82A3789484
:100F80000895A0E0B0E0E7ECF7E00C94012CE82F26
:100F9000F0E0E959F94F711109C0E4918E2F7E2FCD
:100FA0006E2FCDB7DEB7EAE00C941D2C262F30E073
:100FB000C72FD0E0F491EF2F86E0829F8001839FBE
:100FC000100D1124EE24EA94F12CC801B7010E94FF
:100FD000E52BAB01220F331F65E5649FC001659FC0
:100FE000900D1124281B390B822F880F280FC70161
:100FF0008C1B9D0BF89FD001F99FB00D11248B2FF6
:101000002C9FB0012D9F700D1124672F772757015A
:10101000A61AB70AFA9D6001FB9DD00C11247D2D04
:101020005701A21AB10895012C9F50012D9FB00CB9
:101030003C9FB00C1124AB2CBB24EA18FB08FE9D8E
:10104000E001FF9DD00D112443305105C1F00C3F4C
:1010500093E0190750F44130510509F4A1CF423013
:10106000510589F07E2FED2F9BCF4430510571F053
:1010700046305105B9F3EB2F8D2D7F2F91CFED2DFC
:101080007B2F8F2F8DCF7B2F8D2F8ACF7D2FEB2F17
:10109000F8CFEF920F93CF93DF93D72FC82FDA01BA
:1010A000F9010E199B2F90783097C9F037FF04C0D3
:1010B000222733272E1B3F0BBD01620F731FB7FD85
:1010C00017C0CD01821B930B55E0880F991F5A95CD
:1010D000E1F70E94302C90E2961BF7FD9195602F6E
:1010E000691B7D2F8C2FDF91CF910F91EF90089589
:1010F000CB0145E0880F991F4A95E1F7B9016A1BBA
:101100007B0B0E94302C90E6E7CF9091BA04982B8D
:101110009093BA0408950E94981108950E94EF11C7
:101120000895A0E0B0E0E7E9F8E00C94012C182F56
:101130008091160181133FC020914B05237030E050
:101140004091150150E081E02417350709F480E053
:10115000817080930A018091500590910901981740
:1011600039F08093090140E060E080E00E948E0841
:10117000113019F1123009F45EC01111E9C08091EB
:101180000A01882309F4EDC040E060E080E00E949D
:101190008E08809108018F5F8093080182E0809320
:1011A000690180910A01882309F4E0C0CDB7DEB758
:1011B000EAE00C941D2C81E0CBCFC0910801CC0F4C
:1011C000CC0F04E00C0FB02E043410F053E4B52E15
:1011D00060914C0570914D0580914E050E94C107AC
:1011E000F62ED72EC82ED0E0CB15A0F081E0033428
:1011F00008F080E0909108019F5F909308018111B1
:10120000D5CF82E08093690180910A018111CECF10
:101210001123CACFFE01EE57FD4F80819091090145
:101220008923882331F02C2D4F2D6D2DCE010E9466
:101230008B082196D9CFC0910801CC0FCC0F44E088
:10124000B42EBC0EAB2C33E43B1510F433E4A32EC8
:101250004091AC045091AD0420914F05269580E05B
:1012600090E0429F812D529F800D911D1124F82EF8
:10127000D0E0CE01880F991FDC01A450BE4F6D0154
:10128000CA1520F081E0F2E4BF16B2CFFE01EE579E
:10129000FD4F8081909109018923882309F44EC074
:1012A000F60140814057550B21812052330B449F5A
:1012B000C001459F900D900D1124229FB001239FE6
:1012C000700D700D1124860F971F082F8230910525
:1012D00020F1EFEF813EFEE19F0738F4FC01B5E01D
:1012E000F695E795BA95E1F7E85FF1E0AF2FAE0F1D
:1012F000BB27BB1FBD0175956795062F669FD00163
:10130000679FB00DB00D11248A179B07E0F4EFEF33
:10131000E60FEF1758F70FEF0F0F60914C05709124
:101320004D0580914E05EF2C0E9449080E94C1078F
:10133000462F672F282FCE010E948B082196B2E0FE
:10134000CB0ED11C9DCF6F3F41F3F1E0F60FE1CF03
:10135000809108018F5F8093080182E0809369018A
:1013600025CF809108018F5F8093080183E0F6CF3D
:10137000982F862F20914B052370222389F09923E3
:1013800081F0933080F49F73990F990F20914B0552
:101390002370922B90934B05109269010E9485084F
:1013A000089591E0F1CF92E0EFCF80914B058695C3
:1013B00086958F5F833008F081E061E00E94B80974
:1013C000089590914B05969596958FEF890F9130E2
:1013D00009F482E061E00E94B8090895982F822FF5
:1013E00020914B052370222341F090934C0560938C
:1013F0004D0540934E050E9485080895EBE4F5E005
:10140000818190E021E04381628108960E94EE098B
:101410000895EBE4F5E0818121E043816281885009
:10142000990B0E94EE090895EBE4F5E0628120E15A
:10143000620F08F46FEF818121E0438190E00E9408
:10144000EE090895EBE4F5E0628120E1621B08F407
:1014500060E0818121E0438190E00E94EE090895DF
:10146000EBE4F5E0438120E1420F08F44FEF818186
:1014700021E0628190E00E94EE090895EBE4F5E03E
:10148000438120E1421B08F440E0818121E0628138
:1014900090E00E94EE090895EBE4F5E0248130E14C
:1014A000230F08F42FEF248381E00E94850808951C
:1014B000EBE4F5E0248130E1231B08F420E02483F1
:1014C00081E00E9485080895FA01882311F00995AA
:1014D0000895FB01FCCFFC018481862381110AC0A1
:1014E00082818823B9F06823908593FF05C081E04D
:1014F00061110FC080E00895282F22952F708F7002
:10150000282B962F92959F706F70962B81E0291350
:10151000F1CF089581E0FDCF282F35EB2303C001E3
:10152000112497FF04C080589109892F089580588D
:101530009F4FFBCF8091310580FD14C081FD14C009
:1015400082FD16C080913005882381F08E3180F4B1
:1015500020E5829FC00111246EE170E00E94302CD2
:10156000862F089584E1089588E2089588E008951B
:1015700080E508958091310580FD17C081FD17C079
:1015800082FD19C080912F05882399F0883298F444
:1015900028E0829FC001112468E270E00E94302C94
:1015A0006115710551F0862F089562E0FCCF64E06B
:1015B000FACF61E0F8CF68E0F6CF81E00895FA0154
:1015C000309709F009950895E0910705F091080515
:1015D000309729F00190F081E02D0995089580E081
:1015E0000895A3E0B0E0E7EFFAE00C94092C9C0129
:1015F00080915E0390915F0382179307A1F030936F
:101600005F0320935E03E0910705F0910805309792
:1016100051F083E089833B832A830084F185E02DA8
:10162000CE01019609952396E2E00C94252CA3E0C7
:10163000B0E0EDE1FBE00C94092C9C0180915C038F
:1016400090915D0382179307A1F030935D0320937F
:101650005C03E0910705F0910805309751F084E0B4
:1016600089833B832A830084F185E02DCE01019696
:1016700009952396E2E00C94252C9091170199236B
:10168000C1F090919E0597FF14C0E82FE695E6956E
:10169000E695803FF8F4F0E0EE5DFC4F877021E0C6
:1016A00030E001C0220F8A95EAF78281822B828383
:1016B0000895ACE1B3E0EFEF90E02D91821751F087
:1016C000EF3F19F4211101C0E92F9F5F9630A9F770
:1016D000EF3F09F408950E2E000CFF0BE65EFC4F61
:1016E000E6CF909117019923E1F090919E0597FF25
:1016F00018C0E82FE695E695E695803FF0F4F0E017
:10170000EE5DFC4F877021E030E0A90102C0440F7C
:10171000551F8A95E2F7CA018095928189238283B9
:101720000895ECE1F3E09191891303C0DF01119773
:101730001C9253E0E232F507B1F70895A4E0B0E05F
:10174000E4EAFBE00C94092C8FB7F8942091C904CB
:101750003091CA044091CB045091CC0429833A8340
:101760004B835C838FBF69817A818B819C812496B6
:10177000E2E00C94252C0F931F93CF93DF93D82F87
:10178000C92F40913F0550914005609141057091EE
:1017900042052FB7F8948091C9049091CA04A09192
:1017A000CB04B091CC042FBF841B950BA60BB70BB9
:1017B000843F9140A105B10528F560913F057091E6
:1017C0004005809141059091420504EF11E020E031
:1017D00030E06093D1047093D2048093D30490934B
:1017E000D4040093CD041093CE042093CF043093FF
:1017F000D004D0933D05C0933E05DF91CF911F915A
:101800000F9108950E949E0B02E310E020E030E06B
:10181000E0CF80915B030895FC019B01809151030F
:10182000909152038617970740F0672B29F4809117
:10183000E8008E778093E800C90140E0009741F40A
:10184000411106C08091E80082FF2FC080E008951A
:101850002091E4042223A9F12530A9F12091E80088
:1018600023FD2DC02091E80022FDECCF2091E8005F
:1018700020FFE4CF3091F3002091F200009719F09F
:101880002830310558F041E02830310509F040E0BA
:101890002091E8002E772093E800D0CF419140932B
:1018A000F10001972F5F3F4FE9CF8091E404882337
:1018B00041F0853041F08091E80083FFC3CF81E0A3
:1018C000089582E0089583E0089580914B0387FF97
:1018D00013C08091E80082FF06C08091E8008B77FA
:1018E0008093E80004C08091E4048111F2CF089550
:1018F0008091E4048823D9F38091E80080FFF8CF39
:101900008091E8008E77ECCF2091E4003091E500E3
:1019100095E6A9018091EC008170882331F08091D7
:10192000E80080FF06C080E008952091E80022FDD5
:101930001BC08091E404882391F0853091F0809160
:10194000EB0085FD10C02091E4003091E5004217C6
:10195000530701F391509111DCCF84E0089582E0A8
:10196000089583E0089581E00895E8EDF0E0808136
:101970008E7F80831092E2001092DA001092E100D4
:10198000A0EEB0E08C9181608C9380818F77808312
:1019900019BCA7EDB0E08C918E7F8C9380818F7EF7
:1019A000808310924A030895982FE42FE270909359
:1019B000E900891308C0762F242F50E0E11111C0EF
:1019C00091E0980FF4CF7091EC002091ED005091D0
:1019D000F00021FD06C09F5F973049F78093E90032
:1019E00008953091EB003E7F3093EB003091ED0095
:1019F0003D7F3093ED003091EB0031603093EB0090
:101A00007093EC002093ED005093F0002091EE00D5
:101A100027FDE1CF0895A0E0B0E0E1E1FDE00C9406
:101A2000032CC8EDD0E088818F7E8883E7EDF0E05D
:101A300080818160808384E082BF81E080934A035B
:101A400088818E7F888302EE10E0F8011082109268
:101A5000DA0081EEC82ED12CF601108288818F77B2
:101A6000888388818068888388818F7D888319BC7A
:101A70001092E404109249031092BD04109248039E
:101A800090EEE92EF12CF70180818B7F8083888195
:101A90008160888342E060E080E00E94D40CF6011F
:101AA00080818E7F8083F801808181608083808146
:101AB00088608083F70180818E7F80838881806148
:101AC0008883CDB7DEB7E8E00C941F2CE0915E056B
:101AD00090915D0527E0E91302C080E00895AE2FE4
:101AE000B0E02E9FF0011124E15AFA4F31813613F4
:101AF00006C03081381303C03581341304C0FD01A2
:101B00003196E770E8CF81E0089581E08093E000AE
:101B100080E28093D8001092C9008FE19EE4019783
:101B2000F1F700C0000087E090EBDC018093A10595
:101B30009093A205A093A305B093A40588E19CE02F
:101B40000FB6F894A895809360000FBE9093600044
:101B5000FFCF0F931F93CF93DF93EB018A019091F7
:101B6000E404943079F58093E9008FEF9091E800D8
:101B700095FD07C095ED9A95F1F700008150811110
:101B8000F5CF8091E80085FF1DC00E94840C811173
:101B900014C08091E80085FD06C08091E8008E7732
:101BA0008093E800F2CF88818093F1000150110901
:101BB0000115110511F02196ECCF8091E8008E7788
:101BC0008093E800DF91CF911F910F910895CF93FB
:101BD000DF93D82FC92F48E050E0682F792F81E09C
:101BE0000E94A90D88E0ED2FFC2FA3E5B3E0019042
:101BF0000D928A95E1F7DF91CF910895BC0140E203
:101C000050E084E00E94A90D0895BC0146E050E038
:101C100084E00E94A90D0895BC0143E050E084E0F7
:101C20000E94A90D089590919F0592FB222720F90B
:101C3000281779F080FB92F990939F0560919E059B
:101C400070919F0584E090E00E94B32C82E00E9496
:101C50006B0508951F93CF93DF93962F122F632F59
:101C60008530D8F49530C8F44F30B8F4C42FD0E0A4
:101C7000CC0FDD1F2EE1929FC00DD11D112496E9DE
:101C8000899FC00DD11D1124CE0188960E94952CEC
:101C9000612FCE0189960E94952CDF91CF911F91E3
:101CA0000895AF92BF92CF92DF92FF920F931F934E
:101CB000CF93DF93A12CB12C00E0650110E013C09D
:101CC000FE01259134914F2D612F802F0E942A0E05
:101CD0002296F3948FE0F812F3CF8FE0C80ED11C58
:101CE0001F5F153039F0E601CC0FDD1FC359DD4F02
:101CF000F12CE6CF0F5F8BE4A80EB11C0530E9F69E
:101D0000DF91CF911F910F91FF90DF90CF90BF9007
:101D1000AF900895CF93DF93C6E1D3E060E0CE01AA
:101D20000E94952C2196C11584E0D807B9F7DF9160
:101D3000CF910895882381F064E284E290E00E94CC
:101D4000952C69E085E290E00E94952C62E086E2A5
:101D500090E00E94952C08956FEF84E290E00E943D
:101D6000952C6FEF85E290E00E94952C6FEFEFCFFE
:101D700080E00E949A0E60E087E290E00E94952C3D
:101D80000E94510E0E948A0E81E00E949A0E0895D0
:101D90000F931F93CF93DF93853030F5653020F597
:101DA0004F3010F5C42FD0E0CC0FDD1F2EE1629F25
:101DB000C00DD11D112436E9839FC00DD11D112402
:101DC000CE0188960E94772C082F10E0102F002754
:101DD000CE0189960E94772C9801282BC901DF91AA
:101DE000CF911F910F91089580E090E0F8CF462F9A
:101DF000672F753038F44F3028F4853018F40E947E
:101E0000C80E089580E090E00895A0E0B0E0EBE017
:101E1000FFE00C94042C7C010091A00580915605F4
:101E2000082BC4E0D0E010E0C8010C2E02C095954C
:101E300087950A94E2F780FD09C02197A8F7D12C75
:101E40008D2DCDB7DEB7E7E00C94202CDC2EB7014A
:101E50008C2F0E94F70E0E948D06019771F3F0CF30
:101E60000F931F93CF93FC018581008111818823FB
:101E700091F0662381F0C8010E94050FC82F682FDA
:101E8000C8010E94D504B8018C2F0E94F70ECF9193
:101E90001F910F910895C8010E940C05C82FF3CF20
:101EA000CF93DF93D82FC92F0E94050F6D2F7C2F62
:101EB0000E94F70E0E948D06DF91CF910895FC01DC
:101EC00084818823A1F0808191810E94500F282F66
:101ED00092959F70963091F060F4925F9F7092306F
:101EE00030F481E0203F79F030F4283E30F080E09B
:101EF00004C09A5FF3CF243FD1F7089581E0283ED4
:101F000018F0213FF9CF0895089584E290E00E94EF
:101F1000772C843289F485E290E00E94772C893016
:101F200059F486E290E00E94772C91E0823009F02B
:101F300090E0892F8170089580E0FCCF48E050E068
:101F400067E170E08BE495E00E94852C1092BA0462
:101F50000895CF930E949E0B6093A8047093A904E8
:101F60008093AA049093AB042091BC04C0E021119B
:101F700009C020914B05C22FC370CC2319F0C22F8A
:101F8000C695C69520916901223009F460C080F49D
:101F9000211113C0109208016093AC047093AD043A
:101FA0008093AE049093AF0481E08093690103C0F5
:101FB000233009F457C0CF9108958C2F0E949108C7
:101FC000CC23C9F380916901823059F40E94E40A5C
:101FD00081FF07C02FEF4FEF6FEF8EE190E00E947F
:101FE0008B088091A0050E948804823021F1A0F422
:101FF00021E245EA69ED811121C00E94E40A2FEF38
:102000004FEF60E081FD1AC021E040E060E080E039
:1020100090E00E94EE09CFCF8330A9F0843059F6CA
:1020200023E343E36EEE8BE390E00E948B0823E30F
:1020300043E36EEE03C020E04FEF60E88DE390E0F5
:102040000E948B08B8CF2DE44CE76FEFF7CFC09319
:10205000160180914B058370809315010E947010CA
:1020600083E0A3CF8091BA0481110E949E0F40911A
:10207000AC045091AD046091AE047091AF042FB7E1
:10208000F8948091C9049091CA04A091CB04B091B6
:10209000CC042FBF841B950BA60BB70B4A97A10549
:1020A000B10508F488CF1092690185CFA1E0B0E0B6
:1020B000ECE5F0E10C94072C4983E82FF0E0E155C2
:1020C000FE4F808104E610E021E030E0AE014F5F7A
:1020D0005F4F880F0E94932B2196E4E00C94232CF1
:1020E000A3E0B0E0E6E7F0E10C94032C80EF93E08E
:1020F0009B838A838FEAE82E81E0F82EEA81FB81B8
:1021000080818823E1F06F01F0E9CF1AD10824E241
:102110002983F701808104E610E020E130E0A60188
:102120006981880F0E94932BF981F05FF98320E188
:10213000C20ED11CF43B69F7EA81FB8110828A81CF
:102140009B818C559F4F9B838A839FEFE91AF90AE5
:10215000EA81FB81E853F54089F62396E8E00C9488
:102160001F2CA4E0B0E0E7EBF0E10C94032C0E94FC
:102170005D2B10E04BE06DEF812F0E94561040E088
:102180006AE0812F0E9456108FE39CE90197F1F7D6
:1021900000C0000040E060E0812F0E94561040E047
:1021A00061E0812F0E94561040E066E0812F0E947E
:1021B000561040E06DEF812F0E94561000E040E085
:1021C000602F812F0E9456100F5F0231C1F740E04F
:1021D000602F812F0E9456100F5F0432C1F740E03C
:1021E000602F812F0E9456100F5F043BC1F74BE018
:1021F0006DEF812F0E94561041E06AE0812F0E940E
:10220000561040E06DEF812F0E945610112309F403
:102210008DC00BE515E024EAC22EEE24E394F12CE8
:10222000DD24D39444E050E0B801CE0101960E9431
:10223000512C6A814B812C8189818370E62FE69530
:10224000E695E695C89EC0011124805A9C4FE80F80
:10225000F92FF11DEF56FF4F6770D70102C0AA0F8B
:10226000BB1F6A95E2F730813A2B3083E42FE69565
:10227000E695E695E80FF92FF11DEF56FF4F4770F1
:10228000B70102C0660F771F4A95E2F73081362BFF
:102290003083E22FE695E695E695E80FF92FF11DDC
:1022A000EF56FF4F2770D70102C0AA0FBB1F2A9518
:1022B000E2F79D013081232B20838D559F4FFC0138
:1022C000D0820C5F1F4FF6E007361F0709F0AACF38
:1022D00080910304882389F091EFE92E93E0F92E91
:1022E00010E0D7014D917D01612F80E00E945610D2
:1022F0001F5F1231B1F7109203048091A704882365
:1023000089F085E9E82E84E0F82E10E0F70141918C
:102310007F01612F81E00E9456101F5F1231B1F7DB
:102320001092A7042496E8E00C941F2C11E022CF11
:10233000A4E0B0E0EEE9F1E10C94062CF62E042FB7
:10234000122F8334910508F046C0BC01660F771F39
:10235000660F771F655A7A4F44E050E0CE01019630
:102360000E94512C89818370682F70E02A8130E0AF
:1023700044EA849FC0011124805A9C4FFC01E20F63
:10238000F31FE0815B814C81EF110CC0FC01E50F74
:10239000F11DE081E01306C0FC01E40FF11D808116
:1023A0008117C9F0E4EAE69FC001E79F900D112470
:1023B000805A9C4F280F391FF901F082FC01E50F6C
:1023C000F11D0083FC01E40FF11D108380579F4F26
:1023D00021E0FC0120832496E5E00C94222CFF925E
:1023E0000F931F93CF93DF93182F062FF42EC0E087
:1023F000D0E02F2D402F612FCE010E949811219601
:10240000C334D105B1F7CDB7DEB7E5E00C94222C8B
:102410001F921FB61F9211248F939F93AF93BF9368
:102420008091BB04811113C08091C9049091CA04AA
:10243000A091CB04B091CC044196A11DB11D809315
:10244000C9049093CA04A093CB04B093CC04BF9169
:10245000AF919F918F911F901FBE1F9018952FB71E
:10246000F8948091C9049091CA04A091CB04B091D2
:10247000CC042FBF0895CF93DF93C0915305809173
:102480005705C82B80915405882339F10E942F12DB
:1024900020915B0530915C05821B930B8C3D954030
:1024A00010F00E948F05D091540580911701882368
:1024B000F1F080919E0587FF1AC08DE124E233E0A0
:1024C00090E0F90140812F5F3F4F41119F5F8150A4
:1024D000C0F791110E948F05CD2B80913905809511
:1024E0008C2390913805892BDF91CF91089585E059
:1024F0002CE133E0E5CF80911701882359F18091D9
:102500009E0587FF27C00E943B128093230340E271
:1025100050E067EE74E082E293E00E945A2C892B2F
:10252000C1F080E2E2E2F3E0A7EEB4E001900D92A8
:102530008A95E1F7E0910705F0910805309749F099
:1025400086E0809322030480F581E02D82E293E00F
:10255000099508950E943B1280931A0348E050E0C9
:1025600069E075E08AE193E00E945A2C892B89F397
:1025700088E0EAE1F3E0A9E0B5E001900D928A95E8
:10258000E1F7E0910705F0910805309711F302801B
:10259000F381E02D8AE193E0DBCF882339F090913D
:1025A0005305892B809353050E947B12089588233D
:1025B00039F090915705892B809357050E947B1223
:1025C0000895882321F00E9487050E947B120895B8
:1025D000882341F080959091570589238093570572
:1025E0000E947B120895CF93DF93EC014A855B85AF
:1025F0006E857F850E94DF0A9B81909580915705AB
:102600008923809357058C810E9487050E947B1245
:1026100086E0FE0111928A95E9F7DF91CF91089546
:10262000CF93DF93EC018D8181FD17C082608D8394
:10263000809157059B81892B809357058091530585
:102640009C81892B809353050E947B124885598574
:102650006E857F85CE010E94DF0A1092460510929A
:1026600045058D8180FD03C0CE010E94F312DF91EC
:10267000CF9108950E942F12209134053091350595
:10268000232B222321F08093D7049093D804209108
:10269000360530913705232B222321F08093D50472
:1026A0009093D604E0910705F0910805309749F022
:1026B00082E0809332050680F781E02D82E395E089
:1026C00009950895662309F44BC0E3E3E80FE3316D
:1026D00050F4F0E0E554F34D0C94442C0E949A0A17
:1026E0008195809335050E943A1308950E949A0AB5
:1026F000F8CF0E949A0A819580933405F4CF0E9406
:102700009A0AFACF0E94BA0A80933605ECCF0E944B
:10271000BA0A8195F9CF0E94BA0A8195809337054C
:10272000E2CF0E94BA0AFACF815D990B21E030E036
:1027300001C0220F8A95EAF780913305822B80939E
:102740003305D1CF80913105816080933105CBCFA6
:10275000809131058260F9CF809131058460F5CF99
:10276000409134058D3C59F48091350587FF0DC0AB
:1027700010923505442359F41092300508C08E3C60
:1027800081F48091350518169CF3442381F08091E3
:10279000360590913705892B8111A5CF10922F0511
:1027A000A2CF8F3C41F447FFF0CF109234058091C7
:1027B00035058823E0CF803D19F41416B4F3E5CF36
:1027C00090913605893D29F41916FCF610923605CC
:1027D000DCCF8A3D19F497FFD8CFF8CF9091370519
:1027E0008B3D29F497FFD1CF10923705CECF8C3D8A
:1027F00019F41916CCF3C9CF9FE2980F983090F4D2
:10280000815D990B21E030E0B90102C0660F771FAE
:102810008A95E2F7CB0180959091330589238093C7
:102820003305B3CF8D3D31F4809131058E7F809398
:102830003105ABCF8E3D21F4809131058D7FF7CFEF
:102840008F3D09F0A2CF809131058B7FF0CFCF93E0
:10285000C82F8823B1F18CEF8C0F813AA0F58091BD
:102860001701882301F180919E0587FF1CC0EC2F82
:10287000E695E695E695F0E0EE5DFC4F828190E00E
:102880004C2F477021E030E002C0220F331F4A95E1
:10289000E2F782239323892B79F08C2F0E94710B0E
:1028A0000E947B1209C0ECE1F3E08191C817A9F303
:1028B00023E0E232F207C9F78C2F0E943D0B0E9401
:1028C0007B12CF91089580E28C0F883068F4C77036
:1028D00081E090E001C0880FCA95EAF7C0915305E6
:1028E000C82BC0935305EBCF8BE58C0F833038F4A6
:1028F0002C2F2452330BC9010E94F10AE2CFE8E5E4
:10290000EC0FEB3150F4F0E0EE0FFF1FE752FD4FFC
:10291000808191810E94170BD4CF83E38C0F833188
:1029200080F661E08C2F0E946213CBCFCF93DF93B0
:10293000EC01805E9109089720F067ED72E1209725
:1029400011F46DEC72E1CE010E947E048C2F0E9486
:102950002714DF91CF910895CF93DF93EC01FB0112
:102960008A81823039F4828193810E9496148D810C
:1029700082608D83DF91CF910895FB0180819181E9
:102980000E9496140895882381F19CEF980F913A44
:1029900028F40E94710B0E947B12089590E2980F18
:1029A000983050F4877091E001C0990F8A95EAF74A
:1029B000892F0E948705EFCF9BE5980F933028F46D
:1029C00080E090E00E94F10A089598E5980F9B310D
:1029D00028F480E090E00E94170B089593E3980F8D
:1029E000933118F460E00E9462130895CF93DF934F
:1029F000EC010E94C314CE01805E9109089720F07B
:102A000068EE72E1209711F461EE72E1CE010E944E
:102A10007E04DF91CF910895FB01DC0112968C9129
:102A2000813029F4808191810E94F61408958230CA
:102A3000E9F782819381F8CF1F93CF93DF93182F0B
:102A4000EB010E942714209739F4812F0E94C314B0
:102A5000DF91CF911F9108958FE99FE00197F1F7E2
:102A600000C000002197EFCF0E94460480936F01C1
:102A70008330A1F0843041F0823099F460E570E059
:102A800089E30E941C1508958091A005882331F0E8
:102A900081FF04C081E00E94AC04089581E00E949F
:102AA000A00408951F93CF93DF93182FA0913B05A7
:102AB000B0913C05109709F44AC010923E0510925F
:102AC0003D0510923905109238051696CD91DC918E
:102AD0001797CE019A9581159F4108F4D07ED1E0D9
:102AE000C11101C0D0E01996ED91FC911A97309771
:102AF00031F01B966D917C9180E00995D823DD2300
:102B000039F08CEF8C0F813A30F58C2F0E94710BCD
:102B10001123A9F0E0913B05F0913C05808584FDEF
:102B20000EC080913A05882351F0808191819C01EB
:102B3000215031092F333E4710F40E94BB0B0E94F5
:102B40007B1210923C0510923B0510923A05DF91E2
:102B5000CF911F9108950E947B128C2F0E94C31465
:102B6000D7CF1092530580911701882339F18091B6
:102B70009E0587FF23C0E4E2F3E08EE1DF011D92B2
:102B80008A95E9F780E090E00E94F10A80E090E009
:102B90000E94170B109257050E947B1286E0E2E319
:102BA000F5E0DF011D928A95E9F710923005109249
:102BB0002F05109231050E943A130895ECE1F3E0DD
:102BC00086E0DCCF0E94B1152FEF84E39CE021501A
:102BD00080409040E1F700C0000088E19CE00FB623
:102BE000F894A895809360000FBE90936000FFCF8B
:102BF000AAE2B0E0EEEFF5E10C94082C8BE493E050
:102C0000FC0101962091F100208323E08335920797
:102C1000B9F780914C03893009F456C0C8F482306A
:102C200009F4B3C0833009F482C0813071F180911E
:102C3000E80083FFE7C080914B0390914C039A30EA
:102C400008F0E0C0E92FF0E0E253F34D0C94442C7F
:102C50008A3009F489C08B3051F780914B0381325F
:102C600031F780914F0390915003892B01F78091A8
:102C7000E800877F8093E8000E94650C80914D03F7
:102C8000809317010E94B115D2CF80914B03813AF6
:102C900071F68091E800877F8093E80080914F0370
:102CA00090915003892B61F060E080E090E070E04B
:102CB0000E940C0C8091E8008B778093E800B7CFDE
:102CC00068E083E593E0F3CF80914B03813209F014
:102CD000AECF80914F03909150038D7F892B09F0E7
:102CE000A6CF8091E800877F8093E8008091E8007C
:102CF00082FF18C09091F3008091F200029731F4A6
:102D00008091F100813011F0863021F48091F10042
:102D100080935B038091E8008B778093E8000E94AA
:102D2000650C85CF8091E4048111E0CF80CF809144
:102D30004B03813A09F07BCF80914F039091500370
:102D4000892B09F074CF8091E800877F8093E80099
:102D50008091E80080FFFCCF809117018093F10003
:102D60008091E8008E77D9CF80914B03813209F0B2
:102D70005ECF8091E800877F8093E8000E94650C19
:102D800080914E038093470352CF80914B03813A49
:102D900009F04DCF8091E800877F8093E800809113
:102DA000E80080FFFCCF80914703D8CF803889F0BE
:102DB000823841F580914F038F70873018F58093EA
:102DC000E9008091EB0085FB882780F91092E900EB
:102DD00006C0809148039091BD049111826090914A
:102DE000E800977F9093E8008093F1001092F10043
:102DF0008091E8008E7723C0811116C080914D0329
:102E0000813011F18091E80083FF0AC08091E800D1
:102E1000877F8093E8008091EB0080628093EB00D5
:102E2000AA96E3E00C94242C823061F780914D0344
:102E3000882389F01092E9008091E800877F8093D1
:102E4000E8000E94650CDECF81E0933009F080E05D
:102E50008093BD04EFCF80914F038F702FEF280F29
:102E6000263080F68093E9002091EB0020FFE2CF2E
:102E7000933031F48091EB0080628093EB00DACFE5
:102E80009091EB0090619093EB0021E030E0A9017C
:102E900002C0440F551F8A95E2F74093EA00109252
:102EA000EA008091EB008860E8CF8111ABCF1091F0
:102EB0004D031F778091E3008078812B8093E3009E
:102EC0008091E800877F8093E8000E94650C8091E4
:102ED000E80080FFFCCF8091E30080688093E300EE
:102EE00083E0111101C082E08093E4048BCF80580D
:102EF000823008F087CF40914D0350914E034C3DF6
:102F000083E0580799F583E08A838AE289834FB783
:102F1000F894DE01139620E03EE051E2E32FF0E06A
:102F200050935700849120FF03C082958F703F5FBC
:102F30008F708A30C8F0895C90E08D939D932F5FED
:102F4000243161F74FBF8091E800877F8093E800CC
:102F50006AE270E0CE0101960E940C0C8091E800BC
:102F60008B778093E8004ECF805DE6CF80914F0352
:102F700090915003252F33272330310509F44AC09F
:102F800078F52130310509F479C08BE590E0E8EC63
:102F9000F1E02230310509F035CF2091E800277F9C
:102FA0002093E80020915103309152038217930738
:102FB00008F49C0140E02115310509F064C041117D
:102FC00062C08091E80082FDC9CF8091E40488232B
:102FD00029F2853019F28091E80083FFF2CFBECF4D
:102FE0002132310509F43BC02232310509F00ACF04
:102FF0008330910508F006CFFC01EE0FFF1FED5561
:10300000FE4F0190F081E02D80569E4FDC018C91A7
:1030100090E011C0CA019927413089F082309105B2
:10302000B1F0892B09F0EECEE9E6F2E0E4918E2FC3
:1030300090E0E9E6F2E0009709F4E4CEAECFE7E5F0
:10304000F2E0E4918E2F90E0E7E5F2E0F4CFE5E3E3
:10305000F2E0E4918E2F90E0E5E3F2E0ECCF8330F4
:10306000910508F0CFCEFC01EE0FFF1FE755FE4F94
:103070000190F081E02D89E090E08FCF82E190E037
:10308000E3E2F2E08ACF8091E404882309F466CF7A
:10309000853009F463CF8091E80083FD5FCF809194
:1030A000E80082FD8ECF8091E80080FF84CF909170
:1030B000F3008091F2002115310519F08830910557
:1030C00050F041E0089709F040E08091E8008E77E9
:1030D0008093E80070CF44914093F10031962150E5
:1030E00031090196E8CF803809F08CCE8091E80054
:1030F000877F8093E800809149038093F10078CE28
:10310000811180CE10914D03123008F07BCE80915A
:10311000E800877F8093E800109349030E94650CC4
:103120001123D1F084E08093E40442E061EC81E07B
:103130000E94D40C42E261EC84E00E94D40C42E292
:1031400061EC82E00E94D40C42E260EC83E00E94D9
:10315000D40C8091E40456CE8091E30087FDE2CF49
:1031600081E0E1CF90919F0592FF10C098E0899F88
:10317000900111242360209358050E94A0040E940E
:103180002F1290935A058093590508950E94A00428
:1031900008950E94460480936D018330A1F084302D
:1031A00041F0823099F40E94B21881E00E946B05D0
:1031B00008958091A005882331F082FF04C082E049
:1031C0000E94AC04089582E00E94A00408950E9429
:1031D000460480936B018330A9F0843049F082303B
:1031E000A1F483E00E94B21881E00E946B0508956B
:1031F0008091A005882331F083FF04C083E00E9402
:10320000AC04089583E00E94A00408959C014FB788
:10321000F8948091C9049091CA04A091CB04B09114
:10322000CC044FBF821B930B08950F931F93CF9332
:10323000DF93C62FD42F122F8823A9F0609349055E
:103240000E942F129093460380934503C77081E03C
:1032500001C0880FCA95EAF70E94CD12DF91CF9185
:103260001F910F91089580914905681336C0809190
:103270004503909146030E940619883C910568F524
:10328000CD130EC060E070E0812F0E941C15D77036
:1032900081E001C0880FDA95EAF70E94E112DECFE3
:1032A000C77001E0802F01C0880FCA95EAF70E941D
:1032B000E11280E28D0F883050F48D2F877001C0AD
:1032C000000F8A95EAF7802F0E94CD12DBCF60E0D5
:1032D00070E0812F0E941C15C1CFC77081E001C032
:1032E000880FCA95EAF7D9CFAAE0B0E0EAE7F9E19A
:1032F0000C94F92B7C01DC0114968C91882309F441
:10330000DFC061E0C7010E94300F8C01F7018581A9
:10331000882321F180914505909146050097F1F0B1
:1033200008171907D9F0FC01FF27853008F084C081
:1033300054E0EE0FFF1F5A95E1F7E75EFE4F8581DF
:103340008460858311830083CF010E941013109243
:10335000570561E0C7010E94300F8C01D701159617
:103360005C90552009F46FC1C801975780389105CA
:1033700008F04FC1003108F092C08FEF93E00E9437
:10338000772C81118CC046E1C42E43E0D42E01116C
:1033900056C01A821982FE01339686E0DF011D9223
:1033A0008A95E9F75601BFEFAB1ABB0AC6010E9426
:1033B000772C89831A82882309F471C0813009F03F
:1033C00083C086010E5F1F4FC5010E94772C8A8340
:1033D000882309F464C09FEF980F9330F0F5E3E081
:1033E000CE0ED11CC8010E94772C8B83882309F450
:1033F00056C01C828E010F5F1F4FD8018C9188230D
:1034000089F2813009F0A3C011968C911197813017
:1034100009F05CC05801B2E0AB0EB11CF80182812A
:1034200060E070E0893311F460E570E00E941C15E3
:1034300085010F5F1F4FE1CFE0E0F0E080CFC114C6
:10344000B4E0DB0661F1C6010E94772CF6013196EB
:103450006F018111F4CF01509ACF8430B9F432E07A
:10346000C32ED12CC8010F5F1F4F0E94772CE1E0C3
:10347000F0E0EC0FFD1FEC0DFD1D8083882379F03B
:103480008C3731F4FE01EC0DFD1D12826801B2CFC4
:10349000FFEFCF1ADF0A27E0C216D10419F7809197
:1034A00058058770882361F0D70115968C91882381
:1034B00039F080919F0582FF03C082E00E946B0576
:1034C0002A96E2E10C94152C650194CF823049F4E0
:1034D0005801F2E0AF0EB11C12968C910E94271495
:1034E000A7CF833049F45801B2E0AB0EB11CF8010C
:1034F00082810E94C3149CCF843019F00F5F1F4F4C
:1035000098CF12962C910E5F1F4F80E090E06AE0FA
:10351000A8014F5F5F4F2053330B2A30310558F01D
:10352000009709F486CFAFE9BFE01197F1F700C02B
:1035300000000197F5CF689FF001699FF00D1124FD
:10354000C9018E0F9F1FF80121818A01E1CFE82F69
:10355000F0E0E956F84F6490282F26952695269599
:1035600030E0F901E957F84F84908770782E912C5C
:10357000082E02C0959487940A94E2F7B1E08B225A
:103580009924F901E958F84FA490B12C02C0B594E0
:10359000A7948A95E2F7E1E0AE22BB24F901E9594C
:1035A000F84F54908114910449F5AB2891F086EEC0
:1035B0000E94271460E070E0862D0E941C1586EEA4
:1035C0000E94C3148114910449F081EE0E94C31437
:1035D00005C060E070E0862D0E941C15E52DF0E02E
:1035E000072C02C0F595E7950A94E2F7E0FF21CF9A
:1035F00060E070E08CE20E941C151BCF81EE0E94FF
:103600002714AB28A1F660E070E0862D0E941C15FF
:10361000DCCF0E35FCE71F0791F00F352CE71207C2
:1036200041F00D353CE7130771F4809118018823B0
:1036300031F01092180180E00E94521530CF81E0E5
:10364000809318012CCF80911801882309F4FEC0C3
:10365000480140EE841A9108409055058091530529
:10366000482A80915405482A58E08516910408F0AC
:10367000CDC098012770332781E090E001C0880F0A
:103680002A95EAF7552009F4BEC0482AD7018D9142
:103690009C910E940C0521E030E0F90102C0EE0F80
:1036A000FF1F8A95E2F7FA87E98760903B057090E3
:1036B0003C052FE0222E23E0322ED101CD90DD906B
:1036C0001D01C114D10409F43FC1411004C0F60129
:1036D0008281811133C1D60113968C91139790E0AA
:1036E000E985FA858E239F23892B09F427C1189633
:1036F0008C91982F977091116DC1F8E08F169104FD
:1037000008F01AC151106EC1F601A080B1800A15EF
:103710001B0509F413C16C147D0409F40FC1D60113
:103720001D96ED91FC91309721F08081882309F45A
:1037300005C1642DC6010E946B0A882309F4FEC0EE
:103740000A151B0511F4511005C0A114B10409F0AC
:1037500056C1512C80E00E945215D0923C05C09277
:103760003B0581E080933A05F60185818093390518
:1037700051100DC0AB2859F0808191819C012450DB
:103780003109213A310508F043C10E94710BF6015D
:10379000A680B780C5019A9581159F4110F420EE4F
:1037A000B22277247394C50101978F339E4708F0A6
:1037B000712CD6011996ED91FC911A97309731F042
:1037C0001B966D917C9181E00995782281E05826C5
:1037D000772009F438C1F601868197810E9454044C
:1037E00080933805C501F8E08F16910408F013C1E5
:1037F0000E94BB0B0E947B12552009F415C1D70112
:1038000015968C916BC08095482240CF511081C095
:1038100080914305909144050817190781F410928F
:1038200044051092430510923F05109240051092F6
:1038300041051092420510923E0510923D05E0911F
:103840003B05F0913C05309709F014C1C80197552C
:103850008F3F910511F008F04CC1F801FF270530AA
:1038600008F01DCE94E0EE0FFF1F9A95E1F79F013F
:10387000275E3E4F6901D70115968C91E25EFE4F9F
:10388000908180FB90F99083882309F413C10E94F2
:103890002F129093480580934705F60182818F5F30
:1038A00082838091570590915305892B8383809162
:1038B000540584834681578166857785C6010E94B9
:1038C000DF0AD60115968C9181FDF1C0902F812FD2
:1038D0009093450580934605F7018581882309F477
:1038E00060C21092490506312CE7120709F044C066
:1038F00080915305982F91719111FBC18A7A882389
:1039000009F4F7C191E085E390934A050E943D0BCD
:103910008BC010934405009343050E949E0B609357
:103920003F057093400580934105909342051092A6
:103930003E0510923D05AACE511054C027E133E058
:103940002215330509F0B9CE6114710409F47ECF54
:1039500038E08316910408F099C0642DC3010E94D9
:103960006B0A882309F472C0D70115968C918823BD
:1039700009F4C4C11092490507373CE7130709F45D
:103980006CC282E008374CE7140709F467C20A35B5
:103990009CE7190709F48BC208F06EC20130BCE73E
:1039A0001B0709F482C20330ECE71E0709F477C253
:1039B0000115FCE71F0709F0FEC10E94B1154FEF8A
:1039C00054E38CE0415050408040E1F700C00000DB
:1039D0000E94850D28E08216910458F4552031F09C
:1039E00081FFACCFD601AD90BC9095CE82FFA6CF23
:1039F0008BCE552009F4A2CF80FFA0CFF3CF8091CA
:103A00004305909144058A159B0509F097CFA1CEF7
:103A10000E94C314BCCE0497813A910540F48A2DCC
:103A20000E943D0B511012CF0E947B1238CD0E9494
:103A30007B12EFE3FCE93197F1F700C000008A2D1B
:103A40000E942714EFCF0E947B12ECCF81E00E94EE
:103A50005215F7018581811176C00631FCE71F07F9
:103A600009F04CC180914A05811146C189E20E944A
:103A7000710BDACF808191810817190709F0E6CE22
:103A800010923A0580E00E945215E0CEF301808149
:103A900091810817190731F4552091F3808585FD30
:103AA000D5CEF0CF552009F4D1CE8085F8CF90E067
:103AB00080E00ECFD9011C964D915C911D971E960A
:103AC0006D917C91C9010E94DF0AF601858181FF19
:103AD00096CEC6010E94F31280914505909146054D
:103AE0000817190709F08BCE10924605109245056C
:103AF0003BCFF7018581F801E851FC47E730F1053C
:103B000008F0A7CFE852F34D0C94442C26E241EE86
:103B100061EE0E941519C3CC27E245EE65EEF9CFA0
:103B200026E241EE60EEF5CF27E245EE64EEF1CFFE
:103B300026E241EE62EEEDCF27E245EE66EEE9CFFA
:103B400028E241E0EBCF10924905C80190578397D6
:103B500008F0C9CE84E090E00E947F2C90939F05EE
:103B600080939E05F801E150F047E232F10520F420
:103B7000E152F34D0C94442C80919E05816080931A
:103B80009E0560919E0570919F0584E090E00E94E3
:103B9000B32C0E94B11583CC80919F0588608093DF
:103BA0009F05EFCF80919E058260E9CF80919E05B1
:103BB0008460E5CF80919E058860E1CF80919F056C
:103BC0008160EDCF80919F058260E9CF80919E0555
:103BD0008061D5CF80919E058062D1CF80919E0576
:103BE0008064CDCF0E94B11580919E058068C7CFBB
:103BF00080919E058C60C3CF80919F058360CFCF5D
:103C000080919E058E7FBBCF80919F05877FC7CF18
:103C100080919E058D7FB3CF80919E058B7FAFCF26
:103C200080919E05877FABCF80919F058E7FB7CF18
:103C300080919F058D7FB3CF80919E058F7E9FCF12
:103C400080919E058F7D9BCF80919E058F7B97CF26
:103C50000E94B11580919E058F7791CF80919E052E
:103C6000837F8DCF80919F058C7F99CF80919E051A
:103C700082FB992790F921E0922790FB82F990FB33
:103C800083F97DCF80919F05982F909591708E7FBD
:103C9000892B90FB81F983CF90919E05892F8F7B93
:103CA00096FF80646CCF0E94B11590919E05892F7C
:103CB00097FB87F9805863CF61E08EE090E00E9427
:103CC000952C5FCF60E0F9CF90919E05892F8F7E74
:103CD00094FF806154CF90919E05892F8E7F90FF35
:103CE00081604DCF90919F05892F877F93FF8860DA
:103CF00056CF90E089E208CE85E3B9CE8091530596
:103D00008272F801E052F847E531F10508F049C048
:103D1000EF5FF24D0C94442C80914B0591E0892784
:103D200080934B051092690181E00E948508B7CB12
:103D300041EE59E065ED79E00E94640AB0CB45EDB3
:103D400059E061EE79E0F8CF49E05AE06EEF79E0B2
:103D5000F3CF4EEF59E069E07AE0EECF42E25AE06D
:103D600064E17AE0E9CF44E15AE062E27AE0E4CF4C
:103D70004EE35AE060E37AE0DFCF40E35AE06EE3DF
:103D80007AE0DACF48E55AE06CE47AE0D5CF4CE44B
:103D90005AE068E57AE0D0CF61E081E00E94B8099E
:103DA0007ECB07375CE7150709F460C008378CE75E
:103DB000180709F45FC0F7018581C080D18088238E
:103DC00009F479C0C6010E94050F182F682FC6019B
:103DD0000E94D504B601812F0E94F70E0E948D0625
:103DE000C82E192FD7011596BC9015971696AC9032
:103DF000A2948FE0A822809158058770882309F14A
:103E0000DB2CBB20F9F0892F807F803469F080E2C1
:103E10008C0D8830B0F0892F807E803229F4B1E09B
:103E2000BC1578F4AA2069F080919F0582FF09C033
:103E300082E00E946B05809158058770DD24D39441
:103E40008111D12CE12FE295EF70103C08F09AC05F
:103E5000F0E0EA5EF24D0C94442C81E00E94A00454
:103E600043E062E081E00E94400519CB81E00E94BE
:103E7000AC04F6CF82E0FBCF0B352CE71207C9F07C
:103E80000C353CE7130709F096CF80919F0582FB24
:103E9000882780F991E089270E94130E8CCF6FEF5D
:103EA0007FEF80E090E00E94B32C0E94E21581E059
:103EB000F3CF80E0F1CFC6010E940C05182F8ACF06
:103EC000012F0F70103110F00295007FBB20B9F068
:103ED000002369F080E28C0D883010F0C11009C019
:103EE00080915305802B809353050E947B128C2D6B
:103EF00041C080915705802B80935705F6CF8C2DBC
:103F00000E94C3140023F1F180E28C0D883010F080
:103F1000C11004C0802F0E94870506C000958091C3
:103F200057058023809357050E947B122BC0012FD9
:103F30000F70107F103211F00295007FCC2051F0ED
:103F4000E1E0CE1609F47CC0BB2009F488C0AA20A9
:103F5000C9F1CDCF80919F0582FD30C0BB2069F0B3
:103F6000002339F080915305802B809353050E94E4
:103F70007B1280E00E94271405C080E00E94C314D9
:103F80000111C8CFDD20A9F08091580580FD11C036
:103F9000F70115828695869586950E94A004C70133
:103FA0000E947419809158058695869586950E9481
:103FB000AC0460E0C7010E94300F82CABB20C9F088
:103FC000A11004C0802F0E94CD12DCCFF1E0AF120F
:103FD000D9CF10915405802F8123081799F20E94A0
:103FE0002F1290935C0580935B05102B1093540562
:103FF000C9CFA110C7CF802F0E94E1129091540524
:10400000802F8923882369F0802F809589238093CE
:104010005405882391F00E942F1280935B059093A2
:104020005C0580915505902F9823992309F4AACF18
:104030000095082300935505A5CF80E090E0EDCFD3
:10404000BB2029F022E02A1508F49CCFBBCF31E039
:104050003A1508F497CF802F0E94E11293CFAA203F
:10406000D1F349E3C41209C05FEF87EE93E05150EA
:1040700080409040E1F700C000008C2D0E94C314E6
:1040800081CF812F869586958370882369F0813052
:1040900009F078CF8C2D912F9370B11002C080E081
:1040A00090E00E94170B6ECF8C2D912F9370B11062
:1040B00002C080E090E00E94F10A64CF6B2D8C2D4D
:1040C0000E9462135FCF812F8370811137C0B110BE
:1040D0002AC04C2D429546954770440F440F2C2D15
:1040E0002F70042E01C0220F0A94EAF79C2D9071C4
:1040F000992341F08FE090E001C0880F4A95EAF7DC
:10410000982F9095169516951370123091F0892F6F
:10411000822B133031F080915605113039F0292B64
:1041200082230E949A040E94E40A2CCF822B892BBE
:10413000F8CF292B809156058227F3CFBB2069F158
:1041400010FFF1CF4C2D429546954770440F440F18
:104150002C2D2F70042E01C0220F0A94EAF79C2DFB
:104160009071992341F08FE090E001C0880F4A954B
:10417000EAF7982F9095169516951370123099F0CE
:10418000892F822B133031F08091A005113041F03E
:10419000292B82230E949D04C6CF823020F2D2CFE9
:1041A000822B892BF7CF292B8091A0058227F2CF74
:1041B0001F70BB2039F0812F0E94A0048C2D0E941B
:1041C000CD12B1CF8C2D0E94E112812F0E94AC0440
:1041D000AACFA2EFCA16A9F1AC1588F0B0EFCB16A2
:1041E000D9F0E1EFCE1609F443C0BB2009F45BC05F
:1041F000AA2009F455C08C2D0E94271494CFF3EF08
:10420000CF1631F124EFC21679F1B110F1CFA11020
:1042100059C0812F8F71DACFBB2081F031E03A1580
:1042200008F481CF1F7181E090E0012E01C0880F5A
:104230000A94EAF79091A0058927ACCF42E0A41632
:10424000EFCF812F8F71B110C1CF0E94A0046BCF2F
:1042500080E0BB2009F49ECF1F7181E0012E01C0D8
:10426000880F0A94EAF796CF80919F0582FD06C0D9
:10427000812F8F71BB2009F4A9CFE7CFBB2029F094
:10428000812F8F710E94B2184ECF81E00E946B0582
:1042900051E05A1508F047CF82E00E946B0543CFEA
:1042A000812F8F71D2CFAA2009F4B3CF89E3C8122E
:1042B00009C09FEFA7EEB3E09150A040B040E1F7F6
:1042C00000C000008C2D0E94C3142DCF80919D054D
:1042D000803178F480919C05882359F0E0915E0547
:1042E00020915D05309198054091970557E02E1378
:1042F00001C008956E2F70E05E9FF0011124DF0170
:10430000A15ABA4F14968C911497882361F1119693
:104310008C911197831327C08C91841324C0159618
:104320008C91159781111FC012968D919C91A0912F
:104330009905B0919A058A1B9B0B883C910598F4CE
:1043400080919D058F70806180939D05EB59FA4F98
:1043500080818F708061808387E995E00E94741965
:104360000E9461050895FB013196E770C0CFADE072
:10437000B0E0EDEBF1E20C94FD2B8C0186E0F8014E
:10438000DE01189601900D928A95E1F7F801708090
:10439000F580A280B380848197E9892E95E0992EDB
:1043A00060909B05611018C0882399F0FF2009F4E4
:1043B00013C1C8010E945F0F882309F40DC187E073
:1043C000F801A7E9B5E001900D928A95E1F70E9406
:1043D0006621FF24F39453C0D0909C052091990549
:1043E00030919A05A501421B530BDD2009F4C4C08E
:1043F000483C510508F07AC0882359F3809198050C
:10440000C180E0909D05FFE0FE1508F459C0C81278
:1044100015C080919705871111C0F1104BC08E2DEA
:104420008F70806180939D0587E995E00E947419E3
:1044300080919D05F8018683F12C21C0F1103AC0CE
:1044400040E06C2D872D0E94660D40E06C2D872D7D
:104450000E94660DF82E8111EFCF888599850E9404
:10446000500F292F22952F70903470F49F702230B6
:10447000A0F09923B1F0F8019681903190F48F2D3E
:104480002D96EEE00C94192C2A5F2F70223068F0E4
:10449000C8010E947419FD2CF2CF992311F08823D2
:1044A00071F3805E883058F3F3CF803F40F3815F33
:1044B0008230F9CF80919D05816080939D05BCCFAE
:1044C000C8123CC080919705871138C0F11036C0E2
:1044D000F801E682C8010E94741987E0F801A7E993
:1044E000B5E001900D928A95E1F773CFE0909D05BC
:1044F000FFE0FE1550F087E995E00E94741987E00F
:10450000F40111928A95E9F797CF882309F461CFD6
:1045100090919805F8018181981310C080919705BA
:1045200087110CC0F1100AC0E682C8010E947419FC
:1045300087E0F40111928A95E9F74BCFC8010E94F8
:104540005F0F882309F448C0FF2009F445C080911B
:104550009D05803208F433CF80919705909198059E
:104560009A838983BC82AB826D821E82EF82CE01E8
:1045700001960E94741923CF483C510508F0BFCF23
:10458000882309F426CFFF2039F190919805818185
:10459000981318C080919705871114C080919D05CC
:1045A00080FD9BCF803108F498CF8683807F803F49
:1045B00009F490CF8681982F907F905F8F70892B20
:1045C000868388CFC8010E945F0F8111F8CE809149
:1045D0009D05816080939D05C8010E947419F9CEE4
:1045E000ABE1B0E0E6EFF2E20C94082C4E8B5F8B6F
:1045F000688F798F8A8F9B8F9111109257051D8A32
:1046000086E0FE017696DE011F9601900D928A9556
:10461000E1F780919F0582FF1FC00E942F12209119
:10462000590530915A05821B930B8C3D954038F00B
:104630008091580582FD03C082E00E946B050E94B4
:104640002F1220915B0530915C05821B930B8C3DF2
:10465000954010F00E948F058B89882329F061E036
:10466000CE010F960E94300F87E0FE013F96DE01DB
:10467000189601900D928A95E1F7CE0108960E9456
:10468000B721811110C087E0FE013896DE01119636
:1046900001900D928A95E1F720915D0540915E05AC
:1046A0008C8581110BC017E080915E0590915D05AE
:1046B00089132EC06B96E3E00C94242C30E0C901E2
:1046C00001968770992750E08417950771F40E942E
:1046D000B11510925D0510925E0587E0E7E9F5E0FF
:1046E000DF011D928A95E9F7DECF97E0929FD00116
:1046F000939FB00D1124A15ABA4FFE01319601903B
:104700000D929A95E1F780935D050E946105CBCFEC
:10471000189FC0011124815A9A4F0E94B721882303
:1047200049F280915E0590E0019687709927809309
:104730005E05BACFA6E0B0E0E0EAF3E20C94072C05
:104740000E942F128C018091E5049091E60480175D
:10475000910779F019821A820E942F12BC014981B7
:104760005A8180E090E00E94F0221093E6040093CA
:10477000E5042696E4E00C94232CAAE0B0E0E3ECF8
:10478000F3E20C94FD2BFE0131968AE0DF011D92CD
:104790008A95E9F795ECA92E92E0B92E8F012AECC3
:1047A000E22E22E0F22E3F01CC24C394D12CF5015D
:1047B00081915F018F3F09F447C0F894E82FE2959B
:1047C000EF70F0E021A18F70A60102C0440F551FC9
:1047D0008A95E2F7CA01922F982B91A392A1809516
:1047E000892382A3789400C0EAECF2E021E030E073
:1047F000812C912C41914F3F09F44AC0A42FA295DE
:10480000AF70A05EB0E08C9190E04F7002C09595C3
:1048100087954A95E2F7817081113AC0C901882ACB
:10482000992A220F331F52E0E93DF50719F7F501E8
:10483000319780818F3F11F00E94A80780EA8A9506
:10484000F1F7D8018D929C920E5F1F4FEA14FB0482
:1048500009F0ADCF4AE050E0B30180EB94E00E9454
:104860005A2C892BC1F08AE0F301A0EBB4E001904F
:104870000D928A95E1F781E0809344030E942F1204
:1048800090934303809342032A96EEE00C94192CF4
:1048900080E090E0C4CF809144038823A9F3809105
:1048A0004203909143030E940619039768F34AE07C
:1048B00050E060EB74E08AED94E00E945A2C892B62
:1048C00049F08AE0E0EBF4E0AAEDB4E001900D924B
:1048D0008A95E1F710924403D7CFCDB7DEB7A497FE
:1048E0000FB6F894DEBF0FBECDBF85B7806885BF19
:1048F00085B7806885BF84B7877F84BF0FB6F8947B
:10490000A89580916000886180936000109260009B
:104910000FBE80E890E00FB6F8948093610090930A
:1049200061000FBE86EA97E0909319038093180305
:104930000E94B50C0E940B0D8091E2008460809370
:10494000E20078948091E404882399F08091E90052
:104950001091EC001795112717958F70182B109256
:10496000E9008091E80083FD0E94F8151F70109304
:10497000E90082E084BD93E095BD9AEF97BD8093F6
:104980006E000E94850F811102C00E94B80E05ECD6
:1049900012E0D8018D918D018F3F11F00E94A80780
:1049A000B2E00A3C1B07A9F70AEC12E0A9EDEA2ED7
:1049B000A2E0FA2EF80181918F018F3F11F00E9441
:1049C000A807E016F106B1F78AE0EAEDF4E0DF01AE
:1049D000282F1D922A95E9F7E0EBF4E0DF011D9204
:1049E0008A95E9F780E090E00E947F2C853E9E4FFB
:1049F00021F40E94850F811163C065EE7EEF80E097
:104A000090E00E94B32C60E082E090E00E94952C40
:104A100081E08093560561E083E090E00E94952C50
:104A200060E074E184E090E00E94B32C60E086E0F6
:104A300090E00E94952C60E087E090E00E94952C29
:104A400040E050E0BA0188E090E00E94A72C60E0CE
:104A500083E290E00E94952C60E08CE090E00E9460
:104A6000952C60E08DE090E00E94952C19821A82CE
:104A70001B821C821D821E821F82188648E050E025
:104A800067E170E0CE0101960E94852C40E050E085
:104A9000BA018FE190E00E94A72C80E00E949A0E5C
:104AA0000E94B80E40E050E0BA018FE090E00E9412
:104AB000A72C40E050E0BA0183E190E00E94A72CCF
:104AC00082E090E00E94772C8093BE0484E090E026
:104AD0000E947F2C90939F0580939E050E94BD238A
:104AE000EFEBFDE53197F1F700C000000E94BD2318
:104AF0008091DA0480FF08C06FEF7FEF80E090E0E4
:104B00000E94B32C0E94850D83E090E00E94772CD8
:104B10000E949A040E94B11081E08093BA0448E098
:104B200050E067E170E08BE495E00E94672C109202
:104B3000BA0480914B058430B8F489E080934B052A
:104B40008091700190917101A091720180934C0548
:104B500090934D05A0934E058FE780934F058FEFFF
:104B6000809350050E949E0F21E040E060E080E0CD
:104B700090E00E94EE098BE091E09093080580930D
:104B8000070533243394F9EC6F2EF4E07F2E2224B2
:104B900023948091E40413E0853009F4A0C00E94BE
:104BA000BD237FEBA72E74E0B72EEAED8E2EE4E056
:104BB0009E2ED401F501219131918D919D916E161A
:104BC0007F0609F498C028173907A9F3512CD4019E
:104BD0000D911D914D01F501C190D1905F01C0165D
:104BE000D10659F1C026D126412CEE24E394F12CB4
:104BF000C6018E219F21892BB1F049825A820E94E1
:104C00002F129C838B832D8291E098012E213F21CE
:104C1000232B09F490E09E8349815A816B817C812A
:104C20008D810E94F0224394EE0CFF1CFFE04F1296
:104C3000DFCFF501329711830083539425E05212A0
:104C4000C6CF0E949E0B5DC08091E404843009F4BD
:104C500039C00E94A90F8091BC0481110DC00E942F
:104C600091081092160180914B0583708093150175
:104C70000E947010109369013092BC041092BB0422
:104C800088E190E0A0E40FB6F894A89580936000C6
:104C90000FBEA093600083B7817F846083BF83B71A
:104CA000816083BF7894889583B78E7F83BF0FB66A
:104CB000F894A895809160008861809360001092BC
:104CC00060000FBE0E94BD23EAEDF4E08191919156
:104CD000892B09F03BC3B4E0E43EFB07B9F78091B0
:104CE000E404853009F4B0CF0E94B1150E94E40AB3
:104CF0001092BC0454CF2817390709F067CF0E94DF
:104D00009A2380913D0590913E05892B09F43EC080
:104D10004091D1045091D2046091D3047091D40495
:104D20002FB7F8948091C9049091CA04A091CB0444
:104D3000B091CC042FBF841B950BA60BB70B4091F1
:104D4000CD045091CE046091CF047091D0048417AB
:104D50009507A607B707D0F080913D0590913E05D5
:104D60000E94961410923E0510923D051092D104B7
:104D70001092D2041092D3041092D4041092CD0455
:104D80001092CE041092CF041092D00400914505E9
:104D90001091460501151105D9F0809147059091B4
:104DA00048050E940619893C910590F0C801992791
:104DB000053008F095C044E0880F991F4A95E1F747
:104DC000875E9E4FDC0115962C9122FF0E941013E6
:104DD0000E94A90F86E0E2E3F5E0DE011196019062
:104DE0000D928A95E1F7F09033050091340510910A
:104DF0003505D0903605E0903705109234051092B5
:104E000035051092360510923705812F802B8823A7
:104E100079F08091D7049091D8040E9406199C01E2
:104E20008091300581115FC02B30310508F061C0E1
:104E30008D2D8E29882379F08091D5049091D60408
:104E40000E9406199C0180912F0581118BC02B3087
:104E5000310508F08DC080913305F81216C080919D
:104E60003405882311F0801310C0909135059923E3
:104E700011F091130AC020913705211106C020912D
:104E80003605211102C0892B81110E943A1386E058
:104E9000FE013196A2E3B5E001900D928A95E1F70B
:104EA0000E94E40A9091D904891721F08093D904D3
:104EB0000E949E0B8091E404843009F06ACE83E066
:104EC0008093E9008091E80082FF63CE8091E80042
:104ED00085FD87C08091E8008B778093E80059CEEC
:104EE00080E090E06FCF2531310508F4A1CF8F3FEE
:104EF00019F08F5F80933005002359F00E949A0AC1
:104F00009FEF10160CF491E0899F802D112480935F
:104F10003405112359F00E949A0A91E011160CF001
:104F20009FEF899F802D1124809335058091340552
:104F3000882309F47DCFC0903505CC2009F478CFC3
:104F40000E948C0A811101C081E0809334058C2D70
:104F50000E948C0A882319F08093350569CF30921E
:104F6000350566CF2135310508F475CF8F3F19F02F
:104F70008F5F80932F05DD2059F00E94BA0A9FEFC2
:104F80001D140CF491E0899F802D11248093360527
:104F9000EE2059F00E94BA0A91E01E140CF09FEF27
:104FA000899F802D112480933705809136058823B1
:104FB00009F451CFE0903705EE2009F44CCF0E9460
:104FC0008C0A811101C081E0809336058E2D0E94EC
:104FD0008C0A882319F0809337053DCF309237052E
:104FE0003ACF0E94840C30E2E32EF12C8E010F5F49
:104FF0001F4F8823D9F08091E8008B778093E800D9
:105000008981EFEFE80FE33158F5F0E0EE5DF24D06
:105010000C94442C8091F100F8018083F1E0EF1AA8
:10502000F108E114F10439F30F5F1F4F8091E8009C
:1050300085FDF0CF8091E8008B778093E8000E9497
:10504000840C882399F3D7CF1A828CE08B831AC003
:105050008A81833049F138F4813061F08230D9F0AF
:105060008FEF89830FC08430D9F71B821C821D8289
:105070001E8208C00E949E0B0E944A2C6B837C8378
:105080008D839E8340E250E0BE016F5F7F4F82E0E0
:105090000E94A90D7ECD87E290E00E94772C1B82B2
:1050A0001C821D828E83EECF8B8190E0DE011196F3
:1050B00012968530910534F7FC01FF27EE0FFF1F94
:1050C000E652FB4F2081318111963C931197129645
:1050D0002C9312970196ECCF8A81823079F085303B
:1050E00009F0BECF80914B0591E0892780934B0555
:1050F0001092690180E00E948508C4CF8B819C8159
:10510000AD81BE8189A39AA3ABA3BCA3BC01CD0191
:105110000E944A2C87E290E00E94952CB3CF4C81EC
:105120006B818A810E94C80E9827892798279E83C1
:105130008D83A8CF2D813E813227232732274C81B2
:105140006B818A810E942A0E9DCF0E94510E9ACFB8
:105150009A81933009F084CF883009F441C08930B6
:1051600009F462C08B818330B9F198F48130D1F0B9
:10517000823009F087CF8C8190914B05292F2370C5
:1051800081111EC02111109269019C7F90934B05E3
:1051900079CF843009F076CF8C8120E040914E05A4
:1051A0006D810AC04C812FEF429F412D11248091C7
:1051B0004C0520E060914D0590E00E94EE0962CF21
:1051C000211102C0109269019C7F916090934B0560
:1051D00060E00E94B80956CF8C8180934F058ACF3A
:1051E0008B818330F1F078F48130B9F0823009F0AE
:1051F00049CF80914B05982F937086958695911194
:105200000EC080E00CC0843009F03CCF80914C058A
:105210008C8380914D058D8335CF80914E058C8395
:1052200031CF80914F05FBCF0E949E0F2BCF80E1A5
:105230008A8328CF1A828AEE09CFCA80DB80DC24D9
:10524000CD24DC248C817601E80EF11C8E010B5FED
:105250001F4FCE14DF0409F415CF80E09AEEC91673
:10526000D10428F4C6018A5E9C4F0E94772CD80195
:105270008D938D01BFEFCB1ADB0AEBCF0A811B8127
:10528000102701271027FE0131966F018C817F01C5
:10529000E80EF11CCE14DF0409F4F4CE0A3E110529
:1052A00040F4D60114966C91C8018A5E9C4F0E940E
:1052B000952C0F5F1F4FBFEFCB1ADB0AEBCF0E947D
:1052C0008A0EE0CE85E0B4CFCA80DB80DC24CD241A
:1052D000DC248C817601E80EF11C8E010B5F1F4FE0
:1052E000CE14DF0409F4CECE80E0EEEECE16E2E07E
:1052F000DE0620F4C60188960E94772CD8018D9393
:105300008D01BFEFCB1ADB0AEBCF0A811B8110277F
:1053100001271027FE0131966F018C817F01E80E75
:10532000F11CCE14DF0409F4ADCE0E3EF2E01F07EF
:1053300038F4D60114966C91C80188960E94952C79
:105340000F5F1F4FBFEFCB1ADB0AEBCF8091BD047D
:10535000882309F4C4CCE0E1E9BDF2E1F9BD09B468
:1053600000FEFDCF8091D8008F7D8093D800809182
:10537000E00082608093E0008091E00081FDFCCF3E
:105380000E94B115ACCC78941F921FB61F921124C5
:105390008F939F93AF93BF938091C9049091CA0458
:1053A000A091CB04B091CC040196A11DB11D8093B6
:1053B000C9049093CA04A093CB04B093CC04BF91CA
:1053C000AF919F918F911F901FBE1F9018951F92B4
:1053D0000F920FB60F9211242F933F934F935F9329
:1053E0006F937F938F939F93AF93BF93EF93FF93AD
:1053F0008091E10082FF09C08091E20082FF05C038
:105400008091E1008B7F8093E1008091DA0080FF42
:1054100024C08091D80080FF20C08091DA008E7F68
:105420008093DA008091D90080FF9BC080E189BD24
:1054300082E189BD09B400FEFDCF81E08093E404E0
:1054400080914A03811109C00E94B50C0E940B0D86
:105450008091E20084608093E2008091E10080FF0F
:1054600017C08091E20080FF13C08091E2008E7F20
:105470008093E2008091E20080618093E20080915D
:10548000D80080628093D80019BC85E08093E40442
:105490008091E10084FF29C08091E20084FF25C053
:1054A00080E189BD82E189BD09B400FEFDCF809114
:1054B000D8008F7D8093D8008091E1008F7E80930B
:1054C000E1008091E2008F7E8093E2008091E20013
:1054D00081608093E20080914903882309F447C0EA
:1054E00084E08093E4048091E4048091E10083FFF0
:1054F00027C08091E20083FF23C08091E100877F75
:105500008093E10082E08093E4041092490380914B
:10551000E1008E7F8093E1008091E2008E7F809396
:10552000E2008091E20080618093E20042E060E06E
:1055300080E00E94D40C8091F00088608093F0009D
:10554000FF91EF91BF91AF919F918F917F916F915B
:105550005F914F913F912F910F900FBE0F901F9031
:10556000189519BC1092E40410924A0376CF8091EA
:10557000E30087FF02C083E0B4CF81E0B2CF1F9287
:105580000F920FB60F921124FF920F931F932F9338
:105590003F934F935F936F937F938F939F93AF93BB
:1055A000BF93CF93DF93EF93FF9309EE10E0F801E1
:1055B0008081C091EC00C795CC27C7958F70FC2ED9
:1055C000F82A1082C0EFD0E08881877F88837894A2
:1055D0000E94F815F8011082888188608883CF2D99
:1055E000CF70C083FF91EF91DF91CF91BF91AF91C9
:1055F0009F918F917F916F915F914F913F912F91EB
:105600001F910F91FF900F900FBE0F901F90189554
:10561000FF920F931F93CF93DF93182FEB011092FC
:10562000BC0084EA8093BC000E942F12082FF92E40
:105630008091BC0087FF28C08091B900887F8830A6
:1056400029F08091B900887F8031A1F51093BB00CB
:1056500084E88093BC000E942F12182F092F80919C
:10566000BC0087FF1FC02091B900287F80E090E038
:10567000283199F081E090E0203411F480E090E04E
:1056800091958195910909C0802F9F2D0E9406193F
:10569000C817D90768F68EEF9FEFCDB7DEB7E5E004
:1056A0000C94222C812F902F0E940619C817D9071D
:1056B000B0F6F1CF8FEF9FEFF0CF1092B9008CE0F2
:1056C0008093B80008950F931F93CF93DF93EB015E
:1056D0008093BB0084E88093BC000E942F12182F97
:1056E000092F8091BC0087FF11C02091B900287F4D
:1056F00081E090E0283211F480E090E0919581956E
:105700009109DF91CF911F910F910895CF3FDC0751
:1057100041F3812F902F0E940619C817D90708F767
:105720008EEF9FEFEECFA0E0B0E0E9E9FBE20C9452
:10573000FD2B682E962E5A01690178010E942F12C6
:10574000782E892E0431110530F10F3F100731F109
:10575000C80164E170E00E94E52B162F072F612F2E
:10576000702F862D0E94082BEC0197FF19C0FFEFC8
:10577000EF16FF06A1F3872D982D0E940619E81653
:10578000F90668F784E98093BC00CE01CDB7DEB797
:10579000EEE00C94192C11E000E0E1CF15E0FCCF15
:1057A000B701892D0E94632BEC018501CA0CDB1C1B
:1057B0000C151D0539F3D7FDE5CFB701F80181912F
:1057C0008F010E94632BEC01F3CFAA1BBB1B51E19D
:1057D00007C0AA1FBB1FA617B70710F0A61BB70B61
:1057E000881F991F5A95A9F780959095BC01CD0106
:1057F00008952F923F924F925F926F927F928F9275
:105800009F92AF92BF92CF92DF92EF92FF920F934F
:105810001F93CF93DF93CDB7DEB7CA1BDB0B0FB659
:10582000F894DEBF0FBECDBF09942A883988488816
:105830005F846E847D848C849B84AA84B984C884AC
:10584000DF80EE80FD800C811B81AA81B981CE0FA3
:10585000D11D0FB6F894DEBF0FBECDBFED01089588
:1058600097FB072E16F4009407D077FD09D00E940D
:10587000E52B07FC05D03EF4909581959F4F089548
:10588000709561957F4F0895EE0FFF1F0590F4917D
:10589000E02D099469279627692778278727782795
:1058A0000895FB01DC0102C005900D92415050406B
:1058B000D8F70895FB01DC0104C08D910190801997
:1058C00021F441505040C8F7881B990B0895DC0122
:1058D000CB01FC01F999FECF06C0F2BDE1BDF89AFB
:1058E000319600B40D9241505040B8F70895F9999F
:1058F000FECF92BD81BDF89A992780B50895A8E1A1
:10590000B0E042E050E00C94692CDC01A40FB51F1C
:105910004150504048F0CB01840F951F2E910E94BA
:10592000962C41505040D0F70895262FF999FECF7C
:1059300092BD81BDF89A019700B4021639F01FBAE2
:1059400020BD0FB6F894FA9AF99A0FBE08950396FF
:10595000272F0E94962C0E94952C252F0E94962C72
:10596000242F0C94962C0196272F0E94962C0C9491
:10597000952CF894FFCF6E13761379137F1394133D
:1059800094139413941394139413941394138213F1
:1059900087138B139113A213A813AC13D616FC16FE
:1059A0000217FC160217551777170217731880187D
:1059B000901D941D861D8C1D981D9C1DA01D001EF4
:1059C0006B1E081ED21DD61D0C1EDA1D101E1C1EBD
:1059D000E61D641EEA1D201EEE1D241E4C1EF21D37
:1059E000281E531EF81D2E1E361EDE1D141EE21D1F
:1059F000181EFC1D321E421E5C1E621ECC1D041EA3
:105A0000721E8C1E981E9F1EA41EA91EAE1EB31EC3
:105A1000B81EBD1EC21EC71ECC1E4F1A4F1A4F1AEB
:105A20004F1A4F1A4F1A4F1A4F1A4F1A601F601F02
:105A3000971F971F41205E20C21FC21F6320D820DE
:105A4000E920E920242828286C288F289A28A528CE
:105A5000A828A828A8283028302817291A291D295D
:0A5A60003E295F2962296429852987
:105A6A004E004D004B004A0000FF00090CE70DFEF6
:105A7A000D050E0C0EFFFF010100000000000000E2
:105A8A00003415BC04000000000000000000000003
:105A9A0000E718CE0400000000000000000000002B
:105AAA0000C918C60400000000000000000000AC95
:105ABA0014BD140C1500000401000000000000AC25
:105ACA0014BD140C150000000103010001000100BF
