:100000000C940C040C9444040C9444040C94440488
:100010000C9444040C9444040C9444040C94440440
:100020000C9444040C9444040C9461110C944D18E9
:100030000C9409250C9444040C9444040C9444043A
:100040000C9444040C9444040C9444040C94440410
:100050000C9444040C943A120C9444040C944404FC
:100060000C9444040C9444040C9444040C944404F0
:100070000C9444040C9444040C9444040C944404E0
:100080000C9444040C9444040C9444040C944404D0
:100090000C9444040C9444040C9444040C944404C0
:1000A0000C9444040C9444040C9444040501090287
:1000B000A10185020901A1000509190129081500FE
:1000C0002501950875018102050109300931158165
:1000D000257F95027508810609381581257F9501D0
:1000E00075088106050C0A38021581257F95017572
:1000F000088106C0C005010980A101850319012AF4
:10010000B700150126B700950175108100C0050CD8
:100110000901A101850419012AA002150126A002E6
:10012000950175108100C005010906A1018506052C
:100130000719E029E71500250195087501810205D9
:1001400007190029EF1500250195F07501810205B9
:10015000081901290595057501910295017503910D
:1001600001C00660FF0961A1010962150026FF00B8
:100170009520750881020963150026FF00952075FA
:10018000089102C005010906A101050719E029E748
:1001900015002501950875018102950175088101F9
:1001A0000507190029FF150026FF0095067508812F
:1001B000000508190129051500250195057501910E
:1001C00002950175039101C00000000000000000CD
:1001D000000000000000000000000000000000001F
:1001E0000000000000000000000000007E0F00D4AE
:1001F000FFFFFFC7000000780000000000000000C3
:100200002A2B280000000000000000000000000071
:1002100000000029000000002C1E3420212224347C
:100220002627252E362D3738271E1F20212223244E
:1002300025263333362E37381F0405060708090AEA
:100240000B0C0D0E0F101112131415161718191A86
:100250001B1C1D2F3130232D350405060708090A04
:100260000B0C0D0E0F101112131415161718191A66
:100270001B1C1D2F3130354C000101010101010112
:10028000010102020202020202020203030303034B
:10029000030303040404040404040505050505061A
:1002A00006060606070707070708080808090909D8
:1002B000090A0A0A0B0B0B0C0C0C0D0D0D0E0E0E81
:1002C0000F0F0F1010111111121213131414151512
:1002D00016161717181819191A1A1B1B1C1D1D1E84
:1002E0001E1F2020212222232424252626272829D8
:1002F000292A2B2C2D2D2E2F303132323334353606
:100300003738393A3B3C3D3E3F4041424344454605
:100310004748494A4C4D4E4F5051535455565859E1
:100320005A5B5D5E5F616264656668696B6C6D6F88
:100330007072737577787A7B7D7E808283858788FB
:100340008A8C8E8F91939596989A9C9EA0A2A3A535
:10035000A7A9ABADAFB1B3B5B7BABCBEC0C2C4C636
:10036000C9CBCDCFD1D4D6D8DBDDDFE2E4E7E9EBF2
:10037000EEF0F3F5F8FAFDFF009B8B7B00AB8A7A79
:1003800000AA9A7900A9998900A8988800A7978758
:1003900000A6968600A5958500A49484003C4C5C3C
:1003A000002C4D5D002D3D5E002E3E4E0030405035
:1003B00000314151002A3A4A002939490028384879
:1003C0000027374700263646002535560024455578
:1003D0000034445400AC9C8C00AD9D8D00AE9E8ECC
:1003E00000AF9F8F00B0A09000B1A19100324252A7
:1003F000002B3B4B01A9998901A8988801A79787F1
:1004000001A6968601A5958501A49484013C4C5CC7
:10041000012C4D5D012D3D5E012E3E4E012F3F4FC3
:10042000013040500033435301AB8A7A01283848E9
:100430000127374701263646012535560124455503
:1004400001AC9C8C01AD9D8D01AE9E8E01AF9F8F46
:1004500001314151013242520133435300B2A28172
:10046000019B8B7B012B3B4B012A3A4A01344454BC
:1004700001B1A19101B2A28101A3938300A393834F
:1004800000B39282167C1E001F0020002100220073
:10049000230024002500260027002D002E002A001E
:1004A0004C002B0014001A000800150017001C0057
:1004B00018000C00120013002F0030003100035709
:1004C000005704001600070009000A000B000D0089
:1004D0000E000F0033003400000028000457E10034
:1004E0001D001B0006001900050011001000360059
:1004F00037003800E500000052000157E000E3003B
:10050000E200000000002C00000000000257000084
:10051000E4005000000051004F0035003A003B005D
:100520003C003D003E003F004000410042004300CF
:10053000440045004C00490001004A0052004D00B3
:100540004B00010001000100010001000100010059
:100550000100010046000100500051004F004E0014
:100560000100010001000100010001000100000084
:1005700001000100010001000100B20001000100C2
:10058000110A29030100010001000100000001001F
:10059000A800010001000100000000004C00000064
:1005A00000000100000065210100000001000100C1
:1005B00035000100010001000100010001005F00A1
:1005C000600061000100560057004C02A6000100C7
:1005D0004A0052004D004B00010001005C005D002C
:1005E0005E000100550054000100010001005000B0
:1005F00051004F004E000100010059005A005B00FD
:1006000001000100000001000100010001000100E3
:10061000B2000100010001006200620063005300AB
:10062000010000000100010001000B70010000004A
:1006300000000100000000000100000001000100B6
:1006400000000100010020782B78010001001370E8
:10065000AA00A900AE00A8000100010001000100ED
:1006600001002578010001000100010001000100E6
:100670000100010001000100010001000100007CF7
:1006800026780100010001000100010001000100C5
:10069000010001000100010001000000037C23783B
:1006A0000100010001000100010001000100100330
:1006B0000100010001000100000021782478010000
:1006C00001000100000000000100000000000052D5
:1006D000000004522878000022782778167C1E003B
:1006E0001F002000210022002300240025002600F6
:1006F00027002D002E002A00A8002B0014001A004D
:100700000800150017001C0018000C001200130050
:100710002F00300031006800390004001600070087
:1007200009000A000B000D000E000F00330034001A
:10073000000028006900E1001D001B0006001900F0
:10074000050011001000360037003800E5000000F9
:100750005200E300E0000000E200000000002C0076
:100760000000000000520000E400500000005100B2
:100770004F0009025B00030100A0FA090400000118
:100780000301010009211101000122440007058134
:1007900003080001090401000203000000092111FF
:1007A0000100012222000705820320000107050342
:1007B00003200001090402000103000000092111C7
:1007C00001000122B6000705840320000112010088
:1007D0000200000008424B25120200010200012025
:1007E000036B0062006400360037006D006B006927
:1007F000006900720067006200200076003200008D
:100800000010034B0042004400660061006E00735C
:10081000000000040309040011241FBECFEFDAE03A
:10082000DEBFCDBF04B603FE18C08091DE059091F7
:10083000DF05A091E005B091E1058730904BA7401E
:10084000B04B59F41092DE051092DF051092E005CE
:100850001092E105E0E0F8E3099513E0A0E0B1E0D3
:10086000E2E9FAE502C005900D92A831B107D9F787
:1008700025E0A8E1B3E001C01D92AE3DB207E1F76B
:100880000E9430250C94E02C0C940000482F2091FD
:10089000D50590919C0557E0291302C080E008958A
:1008A00030E0529FF001539FF00D1124E356FA4FB0
:1008B0008181681306C08081481303C0858181113E
:1008C000EECF2F5F3F4F2770E7CFE8EDF0E080815C
:1008D0008E7F80831092E2001092DA001092E10085
:1008E000A0EEB0E08C9181608C9380818F778083C3
:1008F00019BCA7EDB0E08C918E7F8C9380818F7EA8
:1009000080831092850508952091E4003091E500E0
:1009100095E6A9012091EC00822F817020FF06C08E
:100920008091E80080FF06C080E008952091E800F3
:1009300022FD1AC080919205882389F0853089F0C4
:100940008091EB0085FD0FC02091E4003091E5001F
:1009500042175307F9F29150E1F684E0089582E0DE
:10096000089583E0089581E008958091940587FFBC
:1009700013C08091E80082FF06C08091E8008B7769
:100980008093E80004C0809192058111F2CF089510
:10099000809192058823D9F38091E80080FFF8CFF9
:1009A0008091E8008E77ECCF982F9093E900242F68
:1009B000762F50E0891731F07091EC002091ED0016
:1009C0005091F00021FD07C09F5F973071F7809331
:1009D000E90081E008953091EB003E7F3093EB0019
:1009E0003091ED003D7F3093ED003091EB003160B0
:1009F0003093EB007093EC002093ED005093F000E7
:100A00002091EE0027FDE0CF80E00895B0E0A0E067
:100A1000ECE0F5E00C94212CC8EDD0E088818F7ECD
:100A20008883E7EDF0E080818160808384E082BF8D
:100A300081E08093850588818E7F888302EE10E0B7
:100A4000F80110821092DA0081EEC82ED12CF60146
:100A5000108288818F7788838881806888838881E5
:100A60008F7D888319BC1092920510929305109285
:100A700091051092900590EEE92EF12CF7018081FE
:100A80008B7F808388818160888342E060E080E0A2
:100A90000E94D404F60180818E7F8083F8018081DA
:100AA00081608083808188608083F70180818E7F70
:100AB0008083888180618883CDB7DEB7E8E00C94BD
:100AC0003D2CFC0180919A0590919B058617970714
:100AD000A0F06115710529F49091E8009E7790933C
:100AE000E80090E06115710551F4911108C0809102
:100AF000E80082FF34C080E00895BC01F2CF80910D
:100B000092058823C1F18530C1F18091E80083FD11
:100B100030C08091E80082FDEACF8091E80080FF3C
:100B2000E1CF8091F3002091F200382F611571051B
:100B300019F02830310558F091E02830310509F0DE
:100B400090E02091E8002E772093E800CBCF8191B0
:100B50008093F100615071092F5F3F4FE7CF809183
:100B60009205882341F0853041F08091E80083FFB1
:100B7000BECF81E0089582E0089583E008958091DA
:100B8000870508952FB7F8946091810570918205CB
:100B900080918305909184052FBF089590917701EE
:100BA0009923D1F09091DC0597FF16C0E82FE695C8
:100BB000E695E695EE31E0F4F0E0EE5DFC4F282F8F
:100BC000277081E090E001C0880F2A95EAF78095B0
:100BD0009281892382830895ECE1F3E09191891356
:100BE00003C0DF0111971C9293E0E232F907B1F7DD
:100BF0000895909177019923C1F09091DC0597FFBA
:100C000014C0E82FE695E695E695EE31F8F4F0E0AD
:100C1000EE5DFC4F877021E030E001C0220F8A9525
:100C2000EAF78281822B82830895ACE1B3E0EFEF93
:100C300090E02D91821751F0EF3F19F4211101C07E
:100C4000E92F9F5F9630A9F7EF3F09F408950E2E24
:100C5000000CFF0BE65EFC4FE6CFA3E0B0E0E3E361
:100C6000F6E00C94272C20917E0530917F05281703
:100C70003907A1F090937F0580937E05E0917C0574
:100C8000F0917D05309751F024E029839B838A837E
:100C90000084F185E02DCE01019609952396E2E0CE
:100CA0000C94432CA3E0B0E0E8E5F6E00C94272C8C
:100CB00020917A0530917B0528173907A1F0909390
:100CC0007B0580937A05E0917C05F0917D05309756
:100CD00051F023E029839B838A830084F185E02DF2
:100CE000CE01019609952396E2E00C94432CE09105
:100CF0007C05F0917D05309729F00190F081E02D81
:100D00000995089580E008954115510511F0FA0103
:100D10000995089580916B0580FD16C081FD16C070
:100D200082FD16C080916A058823A1F0883280F484
:100D300028E0829FC001112468E270E00E944E2CDE
:100D4000862F672B39F0089582E0089584E0089596
:100D500088E0089581E0089580916B0580FD14C0BE
:100D600081FD14C082FD16C080916905882381F041
:100D70008E3180F420E5829FC00111246EE170E085
:100D80000E944E2C862F089584E1089588E20895EC
:100D900088E0089580E50895282F35EB2303C001EE
:100DA000112497FF04C080589109892F0895805815
:100DB0009F4FFBCFCF93DF93EC0140915E055091A5
:100DC0005F0560916005709161052FB7F89480917F
:100DD000810590918205A0918305B09184052FBF74
:100DE000841B950BA60BB70B843F9140A105B10561
:100DF00018F580915E0590915F05A0916005B09116
:100E0000610580935A0590935B05A0935C05B093B0
:100E10005D0584EF91E0A0E0B0E0809356059093EB
:100E20005705A0935805B0935905D0936605C09314
:100E30006505DF91CF9108950E94C20560935A0520
:100E400070935B0580935C0590935D0582E390E071
:100E5000A0E0B0E0E2CFFC018481862351F49281CE
:100E60009923B9F06923808583FF05C081E0611172
:100E70000FC080E00895892F8F7092959F70982BF6
:100E8000862F8F7062956F70682B81E09613F1CF7B
:100E9000089581E0FDCFFA01811101C0FB010995A0
:100EA0000895E2EFF3E0248130E1231B08F420E011
:100EB00024838091F10381608093F1030895E2EF30
:100EC000F3E0248130E1230F08F42FEF2483809195
:100ED000F10381608093F10308959091F203937080
:100EE00059F08093F3036093F4034093F5038091EA
:100EF000F103822B8093F1030895E2EFF3E0438145
:100F000020E1421B08F440E0818121E0628190E011
:100F10000E946D070895E2EFF3E0438120E1420F64
:100F200008F44FEF818121E0628190E00E946D071B
:100F30000895E2EFF3E0628120E1621B08F460E0D3
:100F4000818121E0438190E00E946D070895E2EFE6
:100F5000F3E0628120E1620F08F46FEF818121E00C
:100F6000438190E00E946D070895E2EFF3E08181F4
:100F700021E0438162818850990B0E946D0708959A
:100F8000E2EFF3E0818190E021E043816281089605
:100F90000E946D0708958091F203837051F0846080
:100FA0008093F203109276018091F103862B809357
:100FB000F10308958091F20386958695815009F496
:100FC00081E061E00E94CB07089561E081E00E942A
:100FD000CB0708950E94BD0E08950E94620E0895E9
:100FE000B0E0A0E0E6EFF7E00C941C2C182F809105
:100FF0007201811321C09091F203937020917101CD
:1010000030E081E09217130609F480E0817080934C
:1010100075018091F70390917401981739F08093CE
:10102000740140E060E080E00E94EA07112331F0A3
:10103000113071F080E02DC081E0E8CF8091750122
:10104000882339F140E060E080E00E94EA07F2CFB7
:1010500090907301990C990C04E0090D802E0434D2
:1010600010F023E4822E4091F303D090F403E0913A
:10107000F503F0E0E858FD4FD11023C0F490DF2DC8
:10108000CF2DC92CD12CC81408F48FC081E00334B3
:1010900088F6909173019F5F9093730181110CC04A
:1010A00082E08093760180917501811105C0111154
:1010B00003C083E080937601CDB7DEB7EDE00C94FA
:1010C000382CED2CF12CC4917C2EEC2FF0E026E096
:1010D000429FC00111242FEF30E0B9010E94032C80
:1010E000842F90E0880F991FA5E5A69FA001A79FD8
:1010F000500D1124841B950BC82ECC0CC80ED901A1
:10110000AE19BF09AE9FA001AF9F500DBE9F500DFD
:101110001124D52FDC9CD0011124AB2FBB27C90192
:101120008A1B9B0B8E9FD0018F9FB00D9E9FB00D91
:1011300011245901AC18B108AE9C6001AF9CD00CD1
:10114000BE9CD00C1124CD2CDD242C193D092E9FE2
:10115000C0012F9F900D3E9F900D1124F92E6230FB
:101160007105A1F050F46115710509F48ACF613061
:10117000710581F0F52EDB2F84CF6430710569F0A5
:1011800080F06630710509F47CCFF4CFFC2EC52FBA
:10119000D92F77CFFC2ECB2F74CFF52EDC2FC92F74
:1011A00070CFC52FD72DFB2E6CCFF601EA53FD4F24
:1011B000808190917401892331F02D2F4F2D6C2F58
:1011C000C6010E94ED078FEFC81AD80A5CCF80E0F5
:1011D0000895F894E82FE295EF70F0E031A1282F00
:1011E0002F7081E090E001C0880F2A95EAF7982FD0
:1011F0009095932391A392A1892B82A3789408952B
:101200009091DC0592FF10C041E0282F247124301A
:1012100009F040E031E0282F2871283009F030E053
:10122000431711F02CE0822793FF10C041E0282FD4
:101230002471243109F040E031E0282F2871283151
:1012400009F030E0431711F02CE082273091DD05E2
:1012500030FF10C051E0282F2171213009F050E0FB
:1012600041E0282F2871283009F040E0541711F090
:1012700029E0822731FF10C041E0282F2171213160
:1012800009F040E031E0282F2871283109F030E0E2
:10129000431711F029E0822794FD877E0895823854
:1012A0009105B9F1B0F48133910509F47DC048F49A
:1012B0008932910509F46DC08A32910509F47BC029
:1012C00008958533910509F45FC08933910509F1CB
:1012D0000895833E9105D9F138F4803E910529F1B6
:1012E000823E910579F10895863E9105D9F1873EB8
:1012F000910509F43EC0843E910541F52091DD053C
:1013000021FF24C08091DC0584FD19C087EE90E0A8
:1013100008952091DC05237009F05AC02091DD0565
:1013200023FF14C089E290E008952091DC0520FDA0
:1013300038C03091DD0530FF09C024FF43C090E084
:1013400080E008952091DC0522FDF7CF08952091DB
:10135000DC0522FD3AC03091DD0530FD39C024FFA7
:10136000F5CFEDCF2091DC0523FFF0CF24FDE7CFB3
:10137000CDCF2091DC0523FD2EC03091DD0531FF5E
:10138000EECF84EE90E008952091DC0525FFDECFBE
:10139000C9CF2091DC0525FD21C02091DD0523FF6B
:1013A000D5CF89E390E0D2CF2091DC0526FFCECFC8
:1013B0008AE290E008952091DC0526FFC7CF81E303
:1013C00090E0089583EE90E0089582EE90E0089515
:1013D00080EE90E0089586EE90E0089585E390E039
:1013E00008951F93CF93DF930E944F09EC01C1151D
:1013F00080E5D807F0F5C11580E4D80708F09CC057
:10140000C03ED10520F5CD3CD10508F082C0C83AD8
:10141000D10578F4C53AD10508F073C0C130D105C3
:1014200019F1209709F1C430D105F0F4D0E0C0E003
:101430001BC0C33CD105D0F7C85AD0E0CC0FDD1F8C
:10144000C555DE4F0990D881C02DD4640DC0C1159B
:1014500080E2D80708F0D1C0C11581E0D80708F0B4
:101460005AC0C83ED10510F7CE01DF91CF911F9130
:101470000895C03682E5D80718F5C03482E5D8074C
:1014800008F06BC0C03282E5D80708F05FC0C11514
:1014900082E5D80708F497C02C2F2695269580E280
:1014A000289F900111248C2F8370C1E0D0E002C0EE
:1014B000CC0FDD1F8A95E2F7C22BD32BDD68D4CF8A
:1014C000C03A82E5D80760F4C03882E5D80708F44E
:1014D00059C0CF71D0E0DC2FCC27C46FD06AC4CF05
:1014E000C03C82E5D80708F462C0C03E82E5D80758
:1014F00008F09CCFDC2FCC27CC27DF71C06FD06ADF
:10150000B3CFC55AD0E0C855DE4FC881D0E0D06413
:10151000ABCFD065A9CF8D2F0E940009182FCE0127
:1015200099270E944F09C12FD0E0DC2FCC27CC2770
:10153000DF71C82BD92B98CFCE0199270E944F0974
:10154000CC27DF70C82BD92BD06A8ECFCF71D0E0DB
:10155000DC2FCC27C16FD06A87CF2C2F26952695FC
:10156000277080E2289F900111248C2F8370C1E0A6
:10157000D0E002C0CC0FDD1F8A95E2F7C22BD32B3F
:10158000DC6872CF2C2F26952695277080E2289F45
:10159000900111248C2F8370C1E0D0E002C0CC0FE9
:1015A000DD1F8A95E2F7C22BD32BDA685DCF8C2F33
:1015B0008F710E940009C82FD0E0DC2FCC27CC27E8
:1015C000DF71D06251CF8C2F8F710E94000955E0DE
:1015D000D695C7955A95E1F7CF70D0E0DC2FCC2790
:1015E000282F30E084FF05C044E0220F331F4A95C6
:1015F000E1F7C22BD32BD06937CF8D2F8F710E948B
:101600000009182FCE0199270E944F09C12FD0E061
:10161000DC2FCC27CC27DF71C82BD92BD2CF8091E0
:101620009503882331F01092950310929403109241
:10163000930308958095909176059823909376056D
:101640000895809590917705982390937705089554
:101650008091D50590919C05981301C008958F5FE6
:101660008770FACF292F953078F58F3068F590E0A4
:101670003FE0239F800D911D1124682F677023E0A8
:10168000969587952A95E1F7FC01EE0FFF1FE80F6D
:10169000F91FEA5BFC4F50E040E080E0219130E030
:1016A000062E02C0369527950A94E2F7217033275B
:1016B000042E01C0220F0A94EAF7822B4F5F5F4F7E
:1016C0004330510559F7089580E00895292F95304A
:1016D00098F58F3088F590E03FE0239F800D911DB5
:1016E0001124282F277041E001C0440F2A95EAF702
:1016F00023E0969587952A95E1F7FC01EE0FFF1FF1
:10170000E80FF91FEA5BFC4F30E020E070E05191F8
:10171000DF011197CB01022E02C0969587950A949E
:10172000E2F7817081958527842385278C932F5F2D
:101730003F4F2330310559F708958093EB03089507
:101740009091EB0321E030E0F90101C0EE0F8A95A2
:10175000EAF7D90102C0AA0FBB1F6A95E2F7EA2B8C
:1017600001C0220F4A95EAF7892F8E23E81305C09E
:10177000292B822F0E949D0B089520952923F9CFB4
:1017800021E030E001C0220F8A95EAF72095809190
:10179000EB0382230E949D0B08959091DB058095B9
:1017A00089238093DB05282F277089F4891779F026
:1017B0009091DD0592FF0BC08695869586950E94D7
:1017C000C00B1092DB051092DA051092D90508952E
:1017D00021E030E001C0220F8A95EAF78091EB0307
:1017E000822B0E949D0B08958093A5030895982F46
:1017F00092959F7011F0892F94E0282F26952695B9
:1018000011F09E5F822F869509F09F5F892F0895C2
:101810009C013A9521153F4150F5FC01EE27F170EE
:10182000BC0166277270AC01442754709C012227CA
:10183000387094FF0EC080E1EF2B09F480E0672B35
:1018400009F08062452B09F08064232B89F08068C1
:10185000089581E0EF2B09F480E0672B09F08260A6
:10186000452B09F08460232B19F08860089580E0EF
:10187000089580911501833011F40E94C00B0895E2
:1018800080911301833019F482E00E94C00B089507
:1018900080911101833019F481E00E94C00B1092F5
:1018A00011010895FC019281913029F4858180FF16
:1018B00006C083E00895923021F081E0089582E02F
:1018C000089584E008950F931F93CF93DF938B01C6
:1018D000EA0190919205943061F58093E9008FEFD1
:1018E0009091E800815095FD06C095ED9A95F1F72D
:1018F00000008111F5CF8091E80085FF1AC00E9499
:101900008404811111C08091E80085FD06C080919A
:10191000E8008E778093E800F2CFF80181918F0183
:101920008093F100219779F78091E8008E7780937A
:10193000E800DF91CF911F910F91089543E050E0AF
:10194000BC0184E00E94630C089546E050E0BC01B5
:1019500084E00E94630C089540E250E0BC0184E002
:101960000E94630C0895CF93DF93EC0148E050E0B0
:10197000BC0181E00E94630C88E0FE01A8E8B5E0AC
:1019800001900D928A95E1F7DF91CF91089581E062
:101990008093E00080E28093D8001092C9008FE12C
:1019A0009EE40197F1F700C0000087E090EBDC01B6
:1019B0008093DE059093DF05A093E005B093E105E9
:1019C00088E19CE00FB6F894A895809360000FBE64
:1019D00090936000FFCFCF93C82F6FEF811163E228
:1019E00085E290E00E94BC2C6FEFC11162E186E2BB
:1019F00090E00E94BC2C6FEFC11168E187E290E09B
:101A00000E94BC2CCF910895CF93DF93C7E1D3E020
:101A100060E0CE010E94BC2C2196C11584E0D8075D
:101A2000B9F7DF91CF9108951F93CF93DF93122FD2
:101A30008530E0F46530D0F44F30C0F4C42FD0E0EE
:101A4000CC0FDD1F9EE1699FC00DD11D112496E9C9
:101A5000899FC00DD11D1124632FCE0189960E944C
:101A6000BC2C612FCE018A960E94BC2CDF91CF91B5
:101A70001F910895AF92BF92CF92DF92EF92FF92A3
:101A80001F93CF93DF9384E8C82E84E0D82ED0E054
:101A90007601C0E014C0F50125913491412F6C2FDF
:101AA0008D2F0E94140D82E0A80EB11C1F5F1F3005
:101AB00091F78EE1E80EF11CCF5FC53019F05701A8
:101AC00010E0E9CFDF5F86E9C80ED11CD53001F701
:101AD000DF91CF911F91FF90EF90DF90CF90BF905B
:101AE000AF90089580E00E94EB0C60E088E290E007
:101AF0000E94BC2C0E943A0D0E94040D81E00E94BD
:101B0000EB0C089585E290E00E949E2C833289F4CC
:101B100086E290E00E949E2C823159F487E290E0A8
:101B20000E949E2C91E0883109F090E0892F81700D
:101B3000089580E0FCCF0F931F93CF93DF93853000
:101B400030F5653020F54F3010F5C42FD0E0CC0FC4
:101B5000DD1F2EE1629FC00DD11D112436E9839F48
:101B6000C00DD11D1124CE0189960E949E2C082FF4
:101B700010E0102F0027CE018A960E949E2C98011B
:101B8000282BC901DF91CF911F910F91089590E00B
:101B900080E0F8CF462F753040F46F3030F4853058
:101BA00020F4672F0E949B0D089590E080E0089537
:101BB000CF92DF92FF920F931F93CF93DF936C012D
:101BC0000091EB038091A503082BC4E0D0E010E066
:101BD000FC2EC8010C2E02C0959587950A94E2F759
:101BE00080FD0CC02197A0F7F12C8F2DDF91CF91B4
:101BF0001F910F91FF90DF90CF900895B6018C2F29
:101C00000E94CA0D0E94F109019761F3EECFCF93B4
:101C1000DF93EC010E94D80DBE010E94CA0D0E9404
:101C2000F109DF91CF910895FC0124812223C1F0B5
:101C3000808191810E94070E92959F70963091F05D
:101C400058F4925F9F70923058F4803F19F030F44E
:101C5000883E30F481E008959A5FF4CF843FD1F359
:101C600080E00895883EB0F3813FD1F7F3CFA6E03E
:101C7000B0E0EDE3FEE00C94262C26E0FC01DE0152
:101C8000119601900D922A95E1F7FC012581898139
:101C90009A81222399F0662389F00E94D80D182F8B
:101CA000682F89819A810E94660B69817A81812FD0
:101CB0000E94CA0D2696E3E00C94422C0E94320B3F
:101CC000182FF3CFA4E0B0E0E8E6FEE00C94232C5C
:101CD000F62E042F122F8334910508F04AC0880F86
:101CE000991F880F991FBC0168587C4F44E050E051
:101CF000CE0101960E946F2C898183706A816452A3
:101D0000770B282F30E040E9849FC00111248C5CC0
:101D10009B4FFC01E60FF71F5081EB804C815F1158
:101D20000EC0FC01EE0DF11DB4975081501307C099
:101D3000840F911DFC01B49780818117D1F080E957
:101D4000829FF001839FF00D1124EC5CFB4F6E0F1E
:101D50007F1FDB01FC92DF01AE0DB11D94970C9348
:101D6000E40FF11DB49710832C5A3A4F81E0F9012A
:101D700080832496E6E00C943F2CFF920F931F93F0
:101D8000CF93DF93182F062FF42ED0E0C0E02F2D35
:101D9000402F612FCE010E94620E2196C334D105DF
:101DA000B1F7CDB7DEB7E5E00C94402CEAEFF3E0F5
:101DB0006083418324E630E042E050E0BF01880FB9
:101DC0000E94E22B0895EF92FF920F931F93CF93FF
:101DD000DF93E82E062F10E00E5C1B4FF801808188
:101DE000882381F0F2E16F9FE0011124C25FDB4F95
:101DF000F12C49916F2D8E2D0E94D60EF39482E125
:101E0000F812F7CFF8011082CDB7DEB7E6E00C94F8
:101E10003F2CCF93DF93C82F4BE06DEF0E94D60E7F
:101E200040E06AE08C2F0E94D60E8FE39CE9019778
:101E3000F1F700C0000040E060E08C2F0E94D60E59
:101E400040E061E08C2F0E94D60E40E066E08C2FCF
:101E50000E94D60E40E06DEF8C2F0E94D60ED0E08F
:101E600040E06D2F8C2F0E94D60EDF5FD231C1F77C
:101E700040E06D2F8C2F0E94D60EDF5FD432C1F769
:101E800040E06D2F8C2F0E94D60EDF5FD43BC1F750
:101E90004BE06DEF8C2F0E94D60E41E06AE08C2F54
:101EA0000E94D60E40E06DEF8C2F0E94D60EDF917F
:101EB000CF910895A4E0B0E0E0E6FFE00C941B2C85
:101EC0000E94422B84E70E94090F87E70E94090FB6
:101ED00008E713E052E1752E68E0C62ED12CEE24FF
:101EE000E394F12C6624639444E050E0B801CE0101
:101EF00001960E946F2C4A8150E0CA0184972B8181
:101F0000622F6452770B4B012C81E22FE452FF0BBE
:101F10005F012981237030E0FC0197FD379643E093
:101F2000F595E7954A95E1F7729EA001739E500DD5
:101F30001124425F5B4FE40FF52FF11DB6010E94A3
:101F40004E2CA70101C0440F8A95EAF78081842BAB
:101F50008083F40197FC379693E0F595E7959A9581
:101F6000E1F7729EC001739E900D1124825F9B4F1A
:101F7000E80FF92FF11DC401B6010E944E2CA701F4
:101F800001C0440F8A95EAF78081842B8083F50194
:101F9000B7FC379683E0F595E7958A95E1F7729E51
:101FA000C001739E900D1124825F9B4FE80FF92FA3
:101FB000F11DC501B6010E944E2CA70101C0440FBE
:101FC0008A95EAF78081842B80832E5C3B4FF90150
:101FD00060820C5F1F4FF4E004381F0709F084CFC4
:101FE00060E084E70E94E30E61E087E70E94E30E71
:101FF0002496EEE00C94372C0F931F93CF93DF932E
:10200000082F000FEB0114E21093FA0380E1FE01A8
:10201000ABEFB3E001900D928A95E1F724E630E052
:1020200041E150E06AEF73E0802F0E94E22B105FE5
:102030006096143B49F7DF91CF911F910F9108955E
:1020400080915405882329F064E374E084E70E94BA
:10205000FC0F1092540580915505882329F064ECFB
:1020600074E087E70E94FC0F10925505089548E040
:1020700050E068E170E082EF93E00E94AC2C109297
:10208000F10308954F925F926F927F928F929F9289
:10209000AF92BF92CF92DF92EF92FF92CF93C09018
:1020A000E703D090E803E090E903F090EA038FB7EC
:1020B000F89440908105509082056090830570905F
:1020C00084058FBF530142018C189D08AE08BF08DC
:1020D0000E94C2056093E7037093E8038093E903CD
:1020E0009093EA03A091BE03EEEBF3E02A2F30E0D9
:1020F0004FEFC40ED41EE11CF11CC418D508E6082D
:10210000F708A31329C02093BE032091F003C0E079
:10211000211108C02091F203C22FC37019F0C22F01
:10212000C695C695209176012130B9F1222339F167
:10213000223009F480C0233009F488C0CF91FF9089
:10214000EF90DF90CF90BF90AF909F908F907F9057
:102150006F905F904F900895418D528D2A01712CA0
:10216000612CC414D504E604F70420F421503F5F29
:102170003296C7CF480D591D528F418FF8CF10921C
:1021800073016093EC037093ED038093EE039093DF
:10219000EF0381E080937601D1CF8C2F0E94F0076E
:1021A000CC2361F280917601823059F40E94770647
:1021B00081FF07C02FEF4FEF6FEF8EE190E00E949D
:1021C000ED078091EB030E94F70B823061F168F418
:1021D0008823D1F021E14CEC6AEA813009F0AECFDE
:1021E0008DE390E00E94ED07A9CF833001F18430A8
:1021F00009F0A4CF23E343E36EEE8BE390E00E946B
:10220000ED0723E343E315C00E9477062BEB46E678
:1022100060E081FDE5CF21E040E060E090E080E01B
:102220000E946D078BCF20E049E96FEFD9CF27E7F8
:1022300040E06EEED5CFC09372018091F2038370BF
:10224000809371010E94201083E0A4CF8091F1035C
:1022500081110E9437104091EC035091ED03609181
:10226000EE037091EF032FB7F89480918105909160
:102270008205A0918305B09184052FBF841B950B27
:10228000A60BB70B4A97A105B10508F457CF1092DA
:10229000760154CF9091DD0592FB222720F9281773
:1022A00079F080FB92F99093DD056091DC057091E7
:1022B000DD0584E090E00E94DA2C82E00E94CD0BE4
:1022C00008951F920F920FB60F9211242F933F93F0
:1022D0004F935F936F937F938F939F93AF93BF932E
:1022E000EF93FF938091E10082FF09C08091E200AB
:1022F00082FF05C08091E1008B7F8093E100809197
:10230000DA0080FF24C08091D80080FF20C0809137
:10231000DA008E7F8093DA008091D90080FF9DC023
:1023200080E189BD82E189BD09B400FEFDCF81E075
:102330008093920580918505811109C00E946504F2
:102340000E9406058091E20084608093E200809103
:10235000E10080FF17C08091E20080FF13C08091F0
:10236000E2008E7F8093E2008091E20080618093A2
:10237000E2008091D80080628093D80019BC85E08B
:10238000809392058091E10084FF2BC08091E20050
:1023900084FF27C080E189BD82E189BD89B5982F7E
:1023A000917080FFFBCF8091D8008F7D8093D80003
:1023B0008091E1008F7E8093E1008091E2008F7E2A
:1023C0008093E2008091E20081608093E20080913E
:1023D0009305882309F447C084E080939205809197
:1023E00092058091E10083FF27C08091E20083FF86
:1023F00023C08091E100877F8093E10082E0809399
:102400009205109293058091E1008E7F8093E10008
:102410008091E2008E7F8093E2008091E2008061F3
:102420008093E20042E060E080E00E94D40480916A
:10243000F00088608093F000FF91EF91BF91AF9121
:102440009F918F917F916F915F914F913F912F91CC
:102450000F900FBE0F901F90189519BC1092920507
:102460001092850574CF8091E30087FD93E09093EF
:102470009205B5CF78941F921FB61F9211248F93A7
:102480009F93AF93BF938091810590918205A09116
:102490008305B09184050196A11DB11D809381052E
:1024A00090938205A0938305B0938405BF91AF916B
:1024B0009F918F911F901FBE1F9018959C014FB741
:1024C000F8948091810590918205A0918305B09147
:1024D00084054FBF821B930B08952FB7F89480910A
:1024E000810590918205A0918305B09184052FBF4D
:1024F00008959091DD0592FF10C098E0899F9001AA
:10250000112423602093DB050E94E80B0E946D12CA
:102510009093DA058093D90508950E94E80B0895F9
:102520000E94520C809315018330A9F0843049F049
:102530008230A1F483E00E94791281E00E94CD0BE9
:1025400008958091EB03882331F083FF04C083E07A
:102550000E94C00B089583E00E94E80B08950E943A
:10256000520C809313018330A1F0843041F082300B
:1025700099F40E94791281E00E94CD0B0895809118
:10258000EB03882331F082FF04C082E00E94C00B7D
:10259000089582E00E94E80B08950E946D129C014C
:1025A0009091720580917305982B21F030936F05FF
:1025B00020936E059091740580917505982B21F0FC
:1025C00030936D0520936C05E0917C05F0917D05BD
:1025D000309749F082E0809370050680F781E02D06
:1025E00080E795E0099508954091720590917405F2
:1025F00020917505662309F469C0942B922B2091D4
:102600007305922B31F098E09093690591E09093D7
:102610006A058D3C41F40E94AC0681958093730558
:102620000E94CD1208958E3C19F40E94AC06F6CF9C
:102630008F3C31F40E94AC06819580937205F0CFF7
:10264000803D19F40E94AC06F8CF893D29F40E9420
:102650008A0680937405E4CF8A3D21F40E948A069D
:102660008195F7CF8B3D31F40E948A068195809346
:102670007505D6CF8C3D19F40E948A06F8CF9FE2EB
:10268000980F983070F4815D990B21E030E001C023
:10269000220F8A95EAF780917105822B809371054C
:1026A000BFCF8D3D31F480916B05816080936B05C8
:1026B000B7CF8E3D21F480916B058260F7CF8F3DBF
:1026C00009F0AECF80916B058460F0CF8D3C59F45A
:1026D0008091730587FF0DC01092730541110BC0E7
:1026E0001092690508C08E3C81F48091730518161C
:1026F0009CF3442381F08091740590917505892B9A
:1027000009F08ECF10926A058BCF8F3C49F447FFBA
:10271000F0CF10927205809173058111ECCFE0CF5C
:10272000803D19F41416ACF3E4CF893D29F4191651
:1027300004F710927405DDCF8A3D19F497FFD9CFC5
:10274000F8CF8B3D29F427FFD4CF10927505D1CF58
:102750008C3D19F41216CCF3CCCF9FE2980F983031
:1027600090F4815D990B21E030E0B90102C0660F61
:10277000771F8A95E2F7CB018095909171058923A7
:1027800080937105B6CF8D3D31F480916B058E7FBE
:1027900080936B05AECF8E3D21F480916B058D7FCC
:1027A000F7CF8F3D09F0A5CF80916B058B7FF0CFE0
:1027B000AAE0B0E0EEEDF3E10C941D2C8E010F5F6A
:1027C0001F4F8AE0F80111928A95E9F791EEE92E00
:1027D00091E0F92E6801AA24A394B12CF70181910C
:1027E0007F018F3F09F446C0F894E82FE295EF701F
:1027F000F0E021A18F70A50102C0440F551F8A95FA
:10280000E2F7CA01922F982B91A392A18095892378
:1028100082A3789400C0E6EEF1E021E030E0912C54
:10282000812C41914F3F09F44EC0A42FA295AF7067
:10283000B0E090968C9190E04F7002C0959587958E
:102840004A95E2F780FD3FC0C901882A992A220FE4
:10285000331F51E0E53FF50721F7F70131978081FC
:102860008F3F11F00E94E90880EA8A95F1F7F6019E
:1028700091828082F2E0CF0ED11C46EEE41641E058
:10288000F40609F0ABCF4AE050E0B8018BE993E0E1
:102890000E94782C892BE1F08AE0F801ABE9B3E0E3
:1028A00001900D928A95E1F781E080939A030E944E
:1028B0006D12909399038093980310E0812F2A96CC
:1028C000ECE00C94392C90E080E0BFCF10E01FC00A
:1028D00010919A03112389F38091980390919903A1
:1028E0000E945E12039748F34AE050E06BE973E000
:1028F00084EB93E00E94782C892B41F38AE0EBE98A
:10290000F3E0A4EBB3E001900D928A95E1F7109209
:102910009A03D4CFCF9380917705C0917605C82BC9
:1029200080919503882309F10E946D1220919303F1
:1029300030919403821B930B8C3D954010F00E94C4
:102940000F0B80919503C82B809177018823B1F0FC
:102950008091DC0587FF12C08EE124E233E090E035
:10296000815080F491110E940F0B80916205809537
:102970008C2390916305892BCF91089586E02CE1FB
:1029800033E0EDCFF90141919F01442349F39F5F6B
:10299000E7CF80917701882359F18091DC0587FF8B
:1029A00027C00E948A148093230340E250E06BE624
:1029B00073E082E293E00E94782C892BC1F080E2E0
:1029C000E2E2F3E0ABE6B3E001900D928A95E1F725
:1029D000E0917C05F0917D05309749F086E0809389
:1029E00022030480F581E02D82E293E009950895A9
:1029F0000E948A1480931A0348E050E06BE873E069
:102A00008AE193E00E94782C892B89F388E0EAE13F
:102A1000F3E0ABE8B3E001900D928A95E1F7E09125
:102A20007C05F0917D05309711F30280F381E02D54
:102A30008AE193E0DBCFCF93DF93EC014A855B859E
:102A40006E857F850E9484068B810E941A0B8C8183
:102A50000E94210B0E94C91486E0FE0111928A9502
:102A6000E9F7DF91CF910895CF93DF93EC018D814A
:102A700081FD17C082608D83809176059B81892BB3
:102A800080937605809177059C81892B80937705CB
:102A90000E94C914488559856E857F85CE010E94A4
:102AA000840610927905109278058D8180FD03C00F
:102AB000CE010E941B15DF91CF91089510927705EA
:102AC00080917701882339F18091DC0587FF23C04D
:102AD000E4E2F3E08EE1DF011D928A95E9F790E0F0
:102AE00080E00E94520690E080E00E942D06109245
:102AF00076050E94C91486E0E0E7F5E0DF011D924B
:102B00008A95E9F71092690510926A0510926B0593
:102B10000E94CD120895ECE1F3E086E0DCCFAAE25A
:102B2000B0E0E5E9F5E10C94262C84E995E02091EC
:102B3000F100DC012D93CD01B5E08C399B07B9F78D
:102B400080919505833009F472C0B8F4813009F49E
:102B500049C0823009F4B3C08091E80083FF8BC282
:102B600080919405909195059A3008F084C2E92FE0
:102B7000F0E0EE51F34D0C94622C8A3009F48EC0D3
:102B80008B3009F471C0893039F780919405813216
:102B900019F78091980590919905009711F0029787
:102BA000D9F68091E800877F8093E8008091E80063
:102BB00082FF38C09091F3008091F200029731F4C7
:102BC0008091F100813011F0863021F48091F10084
:102BD000809387058091E8008B778093E8000E94BE
:102BE000B504BACF80919405813A09F0B5CF8091B0
:102BF000E800877F8093E80080919805909199057F
:102C0000892B61F468E088E895E070E00E94610536
:102C10008091E8008B778093E8009ECF60E090E0A1
:102C200080E0F3CF809192058111C0CF95CF809144
:102C30009405813A09F090CF80919805909199057B
:102C4000892B09F089CF8091E800877F8093E80085
:102C50008091E80080FFFCCF809177018093F100A4
:102C60008091E8008E77B9CF80919405813209F088
:102C700073CF8091980590919905892B09F06CCFBD
:102C80008091E800877F8093E8000E94B5048091DE
:102C90009605809377010E945E155ECF8091940522
:102CA000813209F059CF8091E800877F8093E80056
:102CB0000E94B50480919705809386054DCF809141
:102CC0009405813A09F048CF8091E800877F80938E
:102CD000E8008091E80080FFFCCF80918605BECFA0
:102CE000803899F0823809F0C6C1809198058F70BC
:102CF000873008F0C0C18093E9008091EB0085FB2C
:102D0000882780F91092E90006C080919005909183
:102D10009105911182609091E800977F9093E8006F
:102D20008093F1001092F1008091E8008E779FC1AE
:102D3000882309F48DC1823009F09DC180919605E8
:102D4000811190C1809198058F702FEF280F263048
:102D500008F091C18093E9002091EB0020FF82C12F
:102D6000933031F48091EB0080628093EB007AC164
:102D70009091EB0090619093EB0021E030E001C076
:102D8000220F8A95EAF72093EA001092EA008091D8
:102D9000EB008860EACF81116EC1109196051F7714
:102DA0008091E3008078812B8093E3008091E8009C
:102DB000877F8093E8000E94B5048091E80080FF3F
:102DC000FCCF8091E30080688093E30082E01111E2
:102DD00083E0809392054FC18058823008F04BC148
:102DE00020919605309197052C3DE3E03E07A1F533
:102DF00083E08A838AE289834FB7F894DE011396D1
:102E000020E03EE051E2E32FF0E050935700E491E0
:102E100020FF03C0E295EF703F5FEF708E2F90E0D0
:102E2000EA30C0F0C7968D939D932F5F243159F7F8
:102E30004FBF8091E800877F8093E8006AE270E0EE
:102E4000CE0101960E9461058091E8008B77809306
:102E5000E80011C1C096E7CF80919805909199053F
:102E6000432F55274330510509F44AC078F54130C6
:102E7000510509F47AC08BE590E0E2E7F7E04230D3
:102E8000510509F0F8C02091E800277F2093E80061
:102E900020919A0530919B058217930708F49C01B5
:102EA00040E02115310509F065C0411163C08091F2
:102EB000E80082FDC9CF80919205882329F28530F0
:102EC00019F28091E80083FFF2CFBECF4132510565
:102ED00009F43CC04232510509F0CDC08330910560
:102EE00008F0C9C0FC01EE0FFF1FE45FFC4F01902A
:102EF000F081E02D875F9C4FDC018C9190E01AC03F
:102F0000332721303105D1F02115310561F0223010
:102F1000310509F0B0C0EFEDF7E0E4918E2F90E0BD
:102F2000EFEDF7E007C0E3E1F8E0E4918E2F90E0E9
:102F3000E3E1F8E0009709F49EC0A5CFE1E0F8E0F6
:102F4000E4918E2F90E0E1E0F8E0F4CF833091053A
:102F500008F091C0880F991FFC01EE5EFC4F0190B4
:102F6000F081E02D89E090E08ECF82E190E0EDEC01
:102F7000F7E089CF80919205882309F465CF8530E9
:102F800009F462CF8091E80083FD5ECF8091E80074
:102F900082FD8DCF8091E80080FF83CF9091F30078
:102FA0008091F2002115310519F08830910550F01B
:102FB00041E0089709F040E08091E8008E77809327
:102FC000E8006FCF44914093F100319621503109D0
:102FD0000196E8CF803809F04EC08091E800877FE5
:102FE0008093E800809193058093F1009DCE81113C
:102FF00042C0109196051230F0F58091E800877F6D
:103000008093E800109393050E94B504112311F0FA
:1030100084E005C08091E30087FDFACF81E08093D2
:10302000920542E061EC81E00E94D40442E261EC4E
:1030300084E00E94D40442E261EC82E00E94D40465
:1030400042E260EC83E00E94D4048091920513C0B8
:1030500080919605813079F481E0933009F080E029
:10306000809391051092E9008091E800877F80931A
:10307000E8000E94B5048091E80083FF0AC08091B7
:10308000E800877F8093E8008091EB008062809366
:10309000EB00AA96E3E00C94422C1F920F920FB61D
:1030A0000F9211242F933F934F935F936F937F93CE
:1030B0008F939F93AF93BF93CF93DF93EF93FF9340
:1030C000D091E900DF708091EC00C82FC17080FDC5
:1030D000C0E81092E9008091F000877F8093F000B3
:1030E00078940E948F151092E9008091F00088601A
:1030F0008093F000CD2BCF70C093E900FF91EF914A
:10310000DF91CF91BF91AF919F918F917F916F91FF
:103110005F914F913F912F910F900FBE0F901F9095
:1031200018950E945E152FEF84E39CE021508040AB
:103130009040E1F700C0000088E19CE00FB6F894F1
:10314000A895809360000FBE90936000FFCF882306
:1031500021F00E941A0B0E94C9140895882339F0A7
:1031600090917605982B909376050E94C914089546
:10317000882321F00E94210B0E94C91408958823FE
:1031800039F090917705982B909377050E94C91498
:103190000895882381F19CEF980F913A28F40E94BA
:1031A000CE050E94C914089590E2980F983050F40B
:1031B000877091E001C0990F8A95EAF7892F0E94E4
:1031C000210BEFCF9BE5980F933028F490E080E03F
:1031D0000E945206089598E5980F9B3128F490E0DC
:1031E00080E00E942D06089593E3980F933118F420
:1031F00060E00E94F4120895FF920F931F93CF9303
:10320000DF93F82E009167051091680501151105EF
:1032100009F449C010926605109265051092620586
:1032200010926305D8011696CD91DC919E013A95D6
:1032300021153F4108F4D07ED1E0C11101C0D0E09A
:10324000D8011996ED91FC911A97309731F01B96A1
:103250006D917C9180E00995D823DD2339F08CEFC6
:103260008C0F813A30F58C2F0E94CE05FF2099F00B
:10327000E0916705F0916805808584FD0CC0809120
:103280006405882341F0808191819C01215031099E
:103290002F333E47A0F00E94C91410926805109287
:1032A000670510926405C801CDB7DEB7E5E00C9460
:1032B000402C0E94C9148C2F0E94C918D7CF0E949D
:1032C000DA06E9CFCF93DF93EC010E94C918CE0153
:1032D0000E94080C9E01205E31092830310510F053
:1032E000CD2B29F40E94B818DF91CF9108950E9448
:1032F000A718FACFFC018281813031F4FB01808173
:1033000091810E94621908958230E9F7FB01828160
:103310009381F7CFCF93C82F8823B1F18CEF8C0F17
:10332000813AA0F580917701882301F18091DC0535
:1033300087FF1CC0EC2FE695E695E695F0E0EE5D84
:10334000FC4F828190E04C2F477021E030E002C0BA
:10335000220F331F4A95E2F782239323892B79F0BA
:103360008C2F0E94CE050E94C91409C0ECE1F3E045
:103370008191C817A9F383E0E232F807C9F78C2FCF
:103380000E94F9050E94C914CF91089580E28C0F24
:10339000883068F4C77021E030E001C0220FCA9580
:1033A000EAF780917705822B80937705EBCFEBE5E9
:1033B000EC0FE33040F4F0E0E855FE4F808190E000
:1033C0000E945206E1CFE8E5EC0FEB3150F4F0E05B
:1033D000EE0FFF1FE555FE4F808191810E942D0663
:1033E000D3CF83E38C0F833178F661E08C2F0E947A
:1033F000F412CACF1F93CF93DF93182FD0E0C0E011
:10340000893311F4C0E5D0E0812F0E948A192097FA
:1034100039F4812F0E94C918DF91CF911F9108952F
:103420008FE99FE00197F1F700C000002197EFCFEF
:103430000F931F93CF93DF93C62FD42F022FFC013E
:1034400085818823A9F06093D8050E946D1290931E
:10345000D7058093D605C77081E001C0880FCA9553
:10346000EAF70E94BF18DF91CF911F910F91089545
:103470008091D805681332C08091D6059091D70508
:103480000E945E12883C910548F510E21D0FCD1791
:10349000B9F080E28C0F883040F4C77081E001C041
:1034A000880FCA95EAF70E94B818183048F481E0EE
:1034B0009D2F977001C0880F9A95EAF70E94BF1858
:1034C000802F0E94FA19183070F6D77081E001C081
:1034D000880FDA95EAF70E94B818C5CFC77081E067
:1034E00001C0880FCA95EAF7F6CF0E94520C80936C
:1034F0001101833091F0843031F0823089F489E316
:103500000E94FA1908958091EB03882331F081FF1E
:1035100004C081E00E94C00B089581E00E94E80B86
:103520000895CF93DF93EC010E94080C9E01205E6A
:1035300031092830310510F0209741F40E94BF185E
:103540008C2F0E948A19DF91CF9108950E94AE18A6
:10355000F7CFFB01808191810E94911A0895CF934A
:10356000DF93EC018A81823041F4FB0182819381F7
:103570000E94911A8D8182608D83DF91CF91089591
:10358000ABE0B0E0E6ECFAE10C94172C8C01DC0126
:1035900014968C91882309F4D4C061E0C8010E947C
:1035A000370E7C01F8018581882319F18091780517
:1035B000909179050097E9F0E816F906D1F099277E
:1035C000F4E0880F991FFA95E1F7FC01EA5DFE4FE0
:1035D0002081246020838F5D9E4FDC01ED92FC9260
:1035E0000E9434151092760561E0C8010E94370EE2
:1035F0007C01F8015580552009F459C1C70197573E
:103600008038910508F036C1FFE0FE1508F489C046
:103610008FEF93E00E949E2C811183C0E7E1AE2ED4
:10362000E3E0BE2EE11047C0FE01339686E0DF01E5
:103630001D928A95E9F77AE0472E7501BFEFEB1AE4
:10364000FB0AC5010E949E2C89831A82882309F4F3
:1036500068C0813009F079C06501E2E0CE0ED11C6E
:10366000C7010E949E2C8A83882309F45AC09FEFC9
:10367000980F933070F5F3E0AF0EB11CC6010E94B5
:103680009E2C8B83882309F44CC01C82DE0111968A
:103690007D01F7012081222381F2213009F095C0BC
:1036A00091818281913009F052C0F2E0EF0EF11C5D
:1036B0000E94FA1953C0A11424E0B20691F1C50189
:1036C0000E949E2C811101C0EA943FEFA31AB30A15
:1036D000A9CF56018430D1F662E0E62EF12C5601D6
:1036E0002FEFA21AB20AC6010E949E2CE1E0F0E080
:1036F000EC0FFD1FEE0DFF1D8083882391F08C37AA
:1037000041F4E2E0F0E0EC0FFD1FEE0DFF1D108232
:10371000BDCF3FEFE31AF30A650187E0E816F10435
:10372000F1F68091DB05877061F0D80115968C91D8
:10373000882339F08091DD0582FF03C082E00E947A
:10374000CD0B2B96E2E10C94332C57019FCF923096
:1037500049F422E0E20EF11C0E948A19EFEFEE1A02
:10376000FE0A97CF933031F432E0E30EF11C0E9451
:10377000C918F4CF943021F08FEFE81AF80AEECF91
:1037800092E0E90EF11C30E020E0B7016F5F7F4F5F
:10379000D70111964C918053990B8A30910550F0C6
:1037A00021503109D8F2EFE9FFE03197F1F700C07D
:1037B0000000F6CF429EF001439EF00D11249C01C3
:1037C0002E0F3F1F842F7B01E0CFE22FF0E0E85067
:1037D000FE4F5490822F86958695869590E0FC0149
:1037E000E851FE4F64902770712C022E02C0759430
:1037F00067940A94E2F731E063227724FC01E852EF
:10380000FE4F8490912C022E02C0959487940A94C6
:10381000E2F7A1E08A229924FC01E853FE4FC4900C
:10382000D12C02C0D594C7942A95E2F7B1E0CB22FF
:10383000DD246114710419F081EE0E948A1981144B
:10384000910419F086EE0E948A19852D0E94FA19BA
:103850008114910419F086EE0E94C9186114710454
:1038600019F081EE0E94C918C114D10409F476CF71
:103870008CE21ECFFEE5EF16FCE7FF06A1F02FE578
:10388000E2162CE7F20649F03DE5E3163CE7F306C5
:1038900071F480911601882331F01092160180E0B6
:1038A0000E94FC183ECF81E0809316013ACF8091B0
:1038B0001601882309F4F6C4470180EE881A91089E
:1038C0004090950380914503482A80917705482AC6
:1038D00098E08916910408F086C097012770332775
:1038E00081E090E001C0880F2A95EAF7552009F49D
:1038F00077C0482AD8018D919C910E94320B21E01B
:1039000030E0390102C0660C771C8A95E2F7E0913D
:103910006705F0916805FB87EA87209042033090A5
:10392000430319862985E22FF0E0EE0FFF1FE050D8
:10393000FF4FC080D180C114D10409F40EC54110DD
:1039400005C0D60112968C91811187C0F601838142
:1039500090E086219721892B09F47FC08085982FDC
:10396000977009F487E0F8E08F16910408F055C0CD
:10397000552009F44EC086958170882309F46DC0E6
:10398000D601AD90BC90EA14FB0419F4552009F45B
:1039900064C0EA85FB85CE16DF0609F45EC0D60159
:1039A0001D96ED91FC91309721F08081882309F4D8
:1039B00054C0642DC6010E942B07882309F44DC012
:1039C000EA14FB0409F03CC5E114F10409F43DC517
:1039D00051103DC5A214B30409F03FC0512C37C5A6
:1039E0008095482287CF552009F4A0C4F092430364
:1039F000E09242030E94C20560935E0570935F05EA
:103A0000809360059093610510926605109265059C
:103A100071CF82FB882780F9B0CF5520F1F08170FB
:103A2000ACCF0E94C91831C50497813A910548F47A
:103A30008A2D0E94F905552009F434C40E94C91446
:103A400070CE0E94C9148FE39CE90197F1F700C082
:103A500000008A2D0E948A19EECF99859F5F998771
:103A600061CFFC0120813181E216F30609F013C415
:103A7000511013C41092640580E00E94FC1812C417
:103A80009E2D8F2D4EC4F901448555856685778519
:103A9000C9010E948406D60115968C9181FF71C4DC
:103AA000C6010E941B158091780590917905E81652
:103AB000F90609F066C4109279051092780561C480
:103AC00026E241EE61EEC8010E94181A2ACE27E2D2
:103AD00045EE65EEF8CF26E241EE60EEF4CF27E248
:103AE00045EE64EEF0CF26E241EE62EEECCF27E247
:103AF00045EE66EEE8CF28E241E0EBCF8091DC05B1
:103B000081608093DC0595C08091DD05886080939D
:103B1000DD058FC08091DC058260F3CF8091DC05EC
:103B20008460EFCF8091DC058860EBCF8091DD056C
:103B30008160EDCF8091DD058260E9CF8091DC0569
:103B40008061DFCF8091DC058062DBCF8091DC0576
:103B50008064D7CF0E945E158091DC058068D1CF4C
:103B60008091DC058C60CDCF8091DD058360CFCF67
:103B70008091DC058E7FC5CF8091DD05877FC7CF23
:103B80008091DC058D7FBDCF8091DC058B7FB9CF27
:103B90008091DC05877FB5CF8091DD058E7FB7CF23
:103BA0008091DD058D7FB3CF8091DC058F7EA9CF1D
:103BB0008091DC058F7DA5CF8091DC058F7BA1CF27
:103BC0000E945E158091DC058F779BCF8091DC058C
:103BD000837F97CF8091DD058C7F99CF8091DC0525
:103BE00082FB992790F921E0922790FB82F990FBC4
:103BF00083F987CF8091DD05982F909591708E7F06
:103C0000892B90FB81F983CF9091DC05892F8F7BE5
:103C100096FF806476CF0E945E159091DC05892F17
:103C200097FB87F980586DCF61E08EE090E00E94AD
:103C3000BC2C6091DC057091DD0584E090E00E9471
:103C4000DA2C0E945E156DCD60E0EFCF9091DC051F
:103C5000892F8F7E94FF806154CF9091DC05892F4E
:103C60008E7F90FF81604DCF9091DD05892F877FFA
:103C700093FF88604CCFF6E1EF16FCE7FF0609F0F2
:103C8000A9C380917705282F21718A7A211180E0BC
:103C9000992371F091E0811101C090E09093440369
:103CA000811104C089E20E94F905C8CE85E3FBCFEB
:103CB00080914403811104C089E20E94CE05BECEEA
:103CC00085E3FBCF8091F20391E089278093F20393
:103CD000109276018091F10381608093F10321CDF0
:103CE0004AED57E065EE77E00E944B071ACD45EEAE
:103CF00057E06AED77E0F8CF45EB57E060EC77E00E
:103D0000F3CF40EC57E065EB77E0EECF49E957E0C1
:103D100067EA77E0E9CF47EA57E069E977E0E4CF7F
:103D20004DE757E06BE877E0DFCF4BE857E06DE712
:103D300077E0DACF41E557E06FE577E0D5CF4FE5A3
:103D400057E061E577E0D0CF61E081E00E94CB07EA
:103D5000E8CC27E7E2162CE7F20609F463C038E75F
:103D6000E3163CE7F30609F461C0F8018581E080C1
:103D7000F180882309F48EC0C7010E94D80DD82E87
:103D8000682FC7010E94660BB7018D2D0E94CA0DD6
:103D90000E94F1097C01882ED8011596AC901597E8
:103DA00016969C9092943FE093228091DB05877059
:103DB00009F1CA2CAA20F9F08F2D807F803469F098
:103DC00080E28E0D8830B0F08F2D807E803229F415
:103DD000B1E0BE1578F4992069F08091DD0582FF8D
:103DE00009C082E00E94CD0B8091DB058770CC2456
:103DF000C3948111C12CBF2CB2942FE0B222EBE00E
:103E0000EB1508F4ACC0EB2DF0E0E451F34D0C944D
:103E1000622C81E00E94E80B43E062E081E00E94B6
:103E2000A00B7FCC81E00E94C00BF6CF82E0FBCFDD
:103E3000EBE5EE16ECE7FE0659F1FCE5EF16FCE7C4
:103E4000FF06E1F02AE5E2162CE7F20609F08DCF35
:103E500081E01BC00E945E153FEF84E39CE031507F
:103E600080409040E1F700C000000E94C70C6FEF57
:103E70007FEF90E080E00E94DA2CCCC28091DD05DB
:103E800082FB882780F991E089270E944A116DCF33
:103E900080E0FBCFC7010E94320BD82E75CFFF2DDB
:103EA000FF70DF2E8F2D807F19F0D29490EFD922F2
:103EB000AA20B9F0DD2069F080E28E0D883010F084
:103EC000811009C080917705D82AD09277050E9489
:103ED000C9148E2D42C080917605D82AD0927605DD
:103EE000F6CF8E2D0E94C918DD20C9F180E28E0D1B
:103EF000883010F0811004C08D2D0E94210B03C06A
:103F00008D2D0E941A0B0E94C91429C02F2D2F70CD
:103F1000D22E8F2D807F803219F0D29480EFD8225C
:103F2000882059F031E0831609F484C0AA2009F4EE
:103F300090C0992009F442C0CCCF8091DD0582FD6C
:103F400039C0AA2089F1DD2039F080917705D82A7F
:103F5000D09277050E94C91480E00E948A192B2D07
:103F60002850330B2430310510F40E947706CC2002
:103F7000B1F08091DB0580FD12C0D80115961C922E
:103F80008695869586950E94E80BC8010E94C01A06
:103F90008091DB058695869586950E94C00B60E032
:103FA000C8010E94370ECDCB80E00E94C918DD20E9
:103FB000B1F2A2CFAA20C9F0911004C08D2D0E94A9
:103FC000BF18CDCF81E09812CACFF09095038D2D08
:103FD0008F21D81621F20E946D1290939403809342
:103FE0009303DF28D0929503BACF9110B8CF8D2DCF
:103FF0000E94B818909195038D2D892369F08D2D1D
:104000008095892380939503882389F00E946D12FF
:104010009093940380939303809145039D2D98235F
:1040200009F49DCFD094D822D092450398CF90E048
:1040300080E0EECFAA2029F092E0991508F48FCF06
:10404000BDCFA1E0A91508F48ACF8D2D0E94B81824
:1040500086CF9920D1F3B9E38B1209C0EFEFF7EEC9
:1040600023E0E150F0402040E1F700C000008E2D39
:104070000E94C91874CF8F2D86958695837061F044
:10408000813009F06CCFC7019370A11002C080E0AD
:1040900090E00E942D0663CFC7019370A11002C06B
:1040A00080E090E00E9452065ACF6A2D8E2D0E9429
:1040B000F41255CF8F2D837091F5A11050CF4E2D56
:1040C000429546954770440F440F8E2D8F70042EF5
:1040D00001C0880F0A94EAF72E2D2071E4FE07C074
:1040E0002FE030E001C0220F4A95EAF720953F2DDE
:1040F000369536953370323069F050F44091A5030F
:10410000313029F0822B84230E94F40B28CF842B9A
:10411000822BFACF282B8091A5038227F5CF869595
:10412000AA2011F08F2D8170882309F418CF4E2D0D
:10413000429546954770440F440F8E2D8F70042E84
:1041400001C0880F0A94EAF72E2D2071E4FE07C003
:104150002FE030E001C0220F4A95EAF720953F2D6D
:10416000369536953370323069F050F44091EB0358
:10417000313029F0822B84230E949D0BF0CE842BBA
:10418000822BFACF282B8091EB038227F5CF3F2D8E
:104190003F70F32EAA2029F0832F0E94E80B8E2D6A
:1041A0000ECF8E2D0E94B8188F2D0E94C00BD7CE37
:1041B0008E2D92EF8916B1F1981570F0A0EF8A1646
:1041C000D1F0B1EF8B1691F0AA2009F454C09110F0
:1041D00080CE8F2D8F712AC0E3EF8E1651F1F4EF50
:1041E0008F12F2CF8091DD0582FD2FC08F2D8F7150
:1041F000AA20D9F21BC0AA2081F021E0291508F4D9
:10420000AECE2F2D2F7181E090E001C0880F2A954E
:10421000EAF79091EB038927AFCF32E0391508F424
:104220009ECEEFCF8F2D8F71A110BFCF0E94E80BD4
:1042300096CE80E0AA2009F49FCF9F2D9F7181E048
:1042400001C0880F9A95EAF797CFAA2049F08F2DE1
:104250008F71F82E0E94E80B8F2D0E9479127FCE6D
:1042600081E00E94CD0B91E0991508F078CE82E0B4
:104270000E94CD0B74CE992059F0893309F0F7CE06
:10428000AFEFB7EEE3E0A150B040E040E1F7EDCE94
:104290008F2D8F718ACF552029F0DC0118968C91D3
:1042A00085FFEACBC7019755F7018F3F910511F0C4
:1042B00008F087C0FF2744E0EE0FFF1F4A95E1F7A3
:1042C0009F012F5D3E4F6901D80115968C91EA5DE3
:1042D000FE4F908180FB90F99083882309F4D3CB23
:1042E0000E946D129093B2038093B103F601828114
:1042F0008F5F82838091760590917705892B8383E8
:104300008091950384834681578166857785C601B0
:104310000E948406D60115968C9181FFB1CB90E066
:1043200080E090937805809379052BC080914203BB
:1043300090914303E816F90681F41092430310921A
:10434000420310925E0510925F0510926005109274
:104350006105109266051092650580916705909140
:104360006805009709F49ECFA8E08A16910408F02A
:1043700078CB642D0E942B07811103C081E00E943D
:10438000FC18F8019581992309F446C01092D805CC
:10439000970130572332310508F06DCC84E090E06E
:1043A0000E94A62C9093DD058093DC05F701E15077
:1043B000F047E232F10508F0A1CBE850F34D0C9440
:1043C000622CE851FC47E730F105D8F6E65EF24D85
:1043D0000C94622CF7E7EF16FCE7FF0609F419CD01
:1043E00082E028E7E2162CE7F20609F413CD83E019
:1043F000E8168CE7F80609F43ACD08F019CDE11477
:10440000ACE7FA0609F426CDB1E0EB16BCE7FB06F3
:1044100009F0ABCC0E94911836E1E3163CE7F306B5
:1044200009F42FCC809177058272F701E052F847AA
:10443000E531F10508F08DCCEF5DF24D0C94622C66
:10444000A114B10409F0C6CA512CB12CA12C80E0F2
:104450000E94FC18D0926805C092670581E08093A5
:104460006405F60185818093620551100EC0AB286A
:1044700061F0F601808191819C0124503109213A3B
:10448000310508F0CECA0E94CE05D6011696AD9031
:10449000BC90C5019A9581159F4110F4E0EEBE22B3
:1044A00077247394C50101978F339E4708F0712CD0
:1044B000D6011996ED91FC911A97309731F01B9621
:1044C0006D917C9181E009957822772079F0F60151
:1044D000868197810E94080C80936305C501F8E0EE
:1044E0008F16910408F0A0CA0E94DA060E94C9142F
:1044F000A2CACF93DF9380916A03807F09F04DC0F9
:1045000080916903882309F448C0E091D505509152
:104510009C05C0916503D09164036091660370911E
:10452000670347E05E17C9F18E2F90E0E49FF0012A
:104530001124E356FA4F2481222391F1489FF00180
:10454000499FF00D1124DF01A356BA4F11962C910B
:1045500011972C1325C02C912D1322C015962C9148
:10456000159721111DC012962D913C91261B370BDA
:10457000283C3105A8F480916A038F708061809394
:104580006A03ED55FA4F80818F708061808384E6E5
:1045900093E00E94C01A0E94280BDF91CF910895EA
:1045A000FC013196E770BECFA4E1B0E0EAEDF2E2A3
:1045B0000C941D2C8C0186E0F801DE011F96019001
:1045C0000D928A95E1F7F8018481E58094E6A92EA1
:1045D00093E0B92E90916803911128C0882319F1B6
:1045E000EE20F1F0C8010E94140EF82E8823C1F0CD
:1045F00087E0F801D50101900D928A95E1F780914D
:104600006803813031F480916403909165030E94C6
:10461000070E0E9479228F2D6496ECE00C94392CC1
:10462000C8010E94C01AFF24F394F5CFD080C18046
:1046300082809380F0906903209166033091670334
:10464000A401421B530BFF2009F4D9C0483C51057B
:1046500008F092C08823F9F29091650380916A0373
:10466000282F207F09F056C0C91214C0909164030E
:10467000D91210C0E11048C08F70806180936A0326
:1046800084E693E00E94C01A80916A03F801868351
:10469000F12CC1CFE11038C06C2D8D2D0E94460445
:1046A0006C2D8D2D0E944604E82E8111F1CFDF86FE
:1046B000C88A8F8598890E94070E292F22952F700E
:1046C000243058F49F70223088F0992399F0F80133
:1046D0009681907F79F4FE2C9ECF2A5F2F70223036
:1046E00068F0C8010E94C01AEF2CF5CF992311F091
:1046F000882389F3805E883070F3F3CF803F58F3CE
:10470000815F833070F7E7CF80916A038160809387
:104710006A03BECFC91207C090916403D91203C0C7
:10472000EE2009F48DC0C8010E94140E882309F4FC
:1047300077CFEE2009F474CF80916A03803288F03D
:104740002091640330916503398728879B868A8688
:10475000909168039C871D868E87CE0108960E94E3
:10476000C01A87E0F801A4E6B3E001900D928A95A3
:10477000E1F70E94792257CF90916A03292F207F79
:1047800051F484E693E00E94C01A87E0F50111928B
:104790008A95E9F77DCF882309F43DCF80916503A1
:1047A0008C1110C080916403D8120CC0E1100AC0B3
:1047B0009683C8010E94C01A87E0F50111928A957C
:1047C000E9F729CFC8010E94140E882309F428CFE5
:1047D000EE2009F425CF80916A03803210F22091F7
:1047E0006403309165033A8329839C828B82909184
:1047F00068039D831E828F83CE010196B0CF483C13
:104800005105D0F6882309F40ECFFE2CEE2009F4D2
:1048100007CF809165038C1120C080916403D8126A
:104820001CC080916A0380FD0FC0982F907F61F0BB
:104830008683903F31F0982F907F905F8F70892B07
:104840008683C8010E94C01A87E0F801A4E6B3E09D
:1048500001900D928A95E1F7DECEC8010E94140EF8
:1048600081117FCF80916A03816080936A03C801C0
:104870000E94C01AD0CEABE1B0E0E1E4F4E20C94C7
:10488000262C4E8B5F8B688F798F8A8F9B8F91112F
:10489000109276051D8A86E0FE017696DE011F964F
:1048A00001900D928A95E1F78091DD0582FF1CC091
:1048B0000E946D122091D9053091DA05821B930B6D
:1048C0008C3D954020F08091DB0582FF7AC00E94EC
:1048D0006D122091930330919403821B930B8C3DB6
:1048E000954010F00E940F0B8B89882329F061E01E
:1048F000CE010F960E94370E87E0FE013F96DE0143
:10490000189601900D928A95E1F7CE0108960E94C3
:10491000D42281110CC087E0FE013896DE01119689
:1049200001900D928A95E1F78C8581110BC017E0FB
:104930008091D50590919C05891331C06B96E3E079
:104940000C94422C20919C0530E0C901019687709F
:1049500099274091D5054817190699F097E0929F3D
:10496000D001939FB00D1124A356BA4FFE0131968A
:1049700001900D929A95E1F780939C050E94280B77
:10498000D6CF0E945E1510929C051092D50587E047
:10499000E4E6F3E0DF011D928A95E9F7C8CF819F35
:1049A000C001112483569A4F0E94D422882331F2E9
:1049B0008091D50590E00196877099278093D50561
:1049C000B7CF82E00E94CD0B82CFA6E0B0E0EBEE45
:1049D000F4E20C94252C0E946D128C0180919603B8
:1049E000909197038017910781F019821A820E9493
:1049F0006D12682F49815A81792F80E090E00E94E2
:104A00003B2410939703009396032696E4E00C94BE
:104A1000412C1F921FB61F9211248F939F93AF9327
:104A2000BF9380918005811113C080918105909181
:104A30008205A0918305B09184054196A11DB11D09
:104A40008093810590938205A0938305B09384059C
:104A5000BF91AF919F918F911F901FBE1F9018958E
:104A6000CDB7DEB7AD970FB6F894DEBF0FBECDBFA2
:104A700085B7806885BF85B7806885BF84B7877F25
:104A800084BF0FB6F894A8958091600088618093E8
:104A90006000109260000FBE80E890E00FB6F894BE
:104AA00080936100909361000FBE87EE98E0909331
:104AB0001903809318030E9465040E9406058091E3
:104AC000E20084608093E2007894809192058823CC
:104AD000A1F01091E9001F709091EC00892F817076
:104AE00090FD80E8182B1092E9008091E80083FD8A
:104AF0000E948F151F701093E90082E084BD93E03F
:104B000095BD9AEF97BD80936E000E94820D811132
:104B100002C00E94720D01EE11E076EEE72E71E008
:104B2000F72ED8018D918D018F3F11F00E94E90879
:104B3000E016F106B1F706EE11E0F80181918F0160
:104B40008F3F11F00E94E908F1E0053F1F07A9F728
:104B50008AE0E4EBF3E0DF01282F1D922A95E9F7C4
:104B6000EBE9F3E0DF011D928A95E9F790E080E040
:104B70000E94A62C863E9E4F21F40E94820D811138
:104B800068C066EE7EEF90E080E00E94DA2C60E084
:104B900082E090E00E94BC2C81E08093A50361E05C
:104BA00083E090E00E94BC2C60E074E184E090E03F
:104BB0000E94DA2C60E086E090E00E94BC2C6FEF4F
:104BC00087E090E00E94BC2C40E050E0BA0188E011
:104BD00090E00E94CE2C60E084E290E00E94BC2C29
:104BE00060E087E190E00E94BC2C60E08CE090E007
:104BF0000E94BC2C60E08DE090E00E94BC2C1982E9
:104C00001A821B821C821D821E821F82188648E027
:104C100050E068E170E0CE0101960E94AC2C40E0CB
:104C200050E0BA0180E290E00E94CE2C80E00E9429
:104C3000EB0C0E94720D40E050E0BA018FE090E072
:104C40000E94CE2C40E050E0BA0183E190E00E9447
:104C5000CE2C82E090E00E949E2C8093A60384E0FC
:104C600090E00E94A62C9093DD058093DC050E94C5
:104C7000D813EFEBFDE53197F1F700C000000E947B
:104C8000D8138091B40380FF08C06FEF7FEF90E0EE
:104C900080E00E94DA2C0E94C70C83E090E00E9422
:104CA0009E2C0E94F40B0E945A0F1092BE038FEFAD
:104CB0009FEF9093D8038093D7039093DA03809368
:104CC000D9039093DC038093DB039093DE038093FE
:104CD000DD039093E0038093DF039093E2038093DE
:104CE000E1039093E4038093E3039093E6038093BE
:104CF000E50381E08093F10348E050E068E170E073
:104D000082EF93E00E948E2C1092F1038091F203C7
:104D10008C7FB9F485E08093F203809178019091C3
:104D20007901A0917A018093F3039093F403A09307
:104D3000F5038FE78093F6038FEF8093F7030E94CC
:104D4000371021E040E060E090E080E00E946D07D5
:104D500087E191E090937D0580937C05772473949F
:104D600080919205853089F450E4F52E63E0E62EBB
:104D700000E112E180919205853009F4C9C00E94DA
:104D80005E150E9477061092F0030E94D81347EA3E
:104D900053E058A74FA384EB93E09AA789A7DC01BF
:104DA000FA01219131918D919D9143E0E13BF4070E
:104DB00009F4FFC028173907A1F345EF842E41E01D
:104DC000942E612CA9A5BAA5ED90FD90BAA7A9A72C
:104DD000EFA1F8A581919191F8A7EFA38E159F05FA
:104DE00009F48CC09C012E253F253DA72CA714015A
:104DF000512CCC24C394D12C8CA59DA58C219D2114
:104E0000892B09F46DC087010C211D2159A26AA2CA
:104E10000E946D129CA38BA331E03DA391E001158C
:104E2000110509F490E09EA349A15AA16BA17CA1B0
:104E30008DA10E943B24012B29F0D1018C918F3F41
:104E400009F02BC2412C042D10E08091BE03800F8D
:104E5000912F911D09976CF188E0A82EB12CA01A12
:104E6000B10AB80161547C4FA5018FEB93E00E9419
:104E7000852CB80169537C4FA50187EC93E00E9413
:104E8000852CA501440F551FB801660F771F695285
:104E90007C4F87ED93E00E94852CB80161537C4FD5
:104EA000A5018FEC93E00E94852C88E08419809303
:104EB000BE038091BE0390E0EBA5AE2FB0E09D0154
:104EC000220F331F205C3D4FAA0FBB1FBD016F5B3C
:104ED0007D4F41E0480F941508F4E3C18093BE0371
:104EE0005394CC0CDD1CEFEF2E1A3E0AFFE05F124C
:104EF00083CFEFA1F8A53297F182E08263942FE08F
:104F0000820E911C35E063125DCF0E94C20557C02E
:104F100080919205843009F439C00E94421080913A
:104F2000F00381110DC00E94F00710927201809170
:104F3000F2038370809371010E942010E092760149
:104F4000F1E0F093F0031092800528E130E00FB615
:104F5000F894A895209360000FBEF092600083B78C
:104F6000817F846083BF83B7816083BF7894889595
:104F700083B78E7F83BF0FB6F894A89580916000A9
:104F8000886180936000109260000FBE809191054F
:104F9000882309F4EFCE0E94D813E4EBF3E081916B
:104FA0009191892B09F040C333E0EE3BF307B9F749
:104FB000E1CE2817390709F000CF0E94E52480913F
:104FC000650590916605892B09F43EC040915A050C
:104FD00050915B0560915C0570915D052FB7F89469
:104FE0008091810590918205A0918305B0918405FF
:104FF0002FBF841B950BA60BB70B40915605509104
:105000005705609158057091590584179507A607B3
:10501000B707D0F080916505909166050E94911ABE
:10502000109266051092650510925A0510925B0564
:1050300010925C0510925D0510925605109257056E
:105040001092580510925905009178051091790534
:1050500001151105D1F08091B1039091B2030E9426
:105060005E12893C910588F0C801992744E0880FB9
:10507000991F4A95E1F7FC01EA5DFE4F208122FD70
:1050800004C08F5D9E4F0E9434150E94421086E03E
:10509000E0E7F5E0DE01119601900D928A95E1F7C7
:1050A000C090710510917205F0907305E090740541
:1050B0000091750510927205109273051092740597
:1050C00010927505812F8F2909F445C080916E05D6
:1050D00090916F050E945E129C0190916905992341
:1050E00009F4CBC225313105B0F19F3F19F09F5F24
:1050F00090936905112359F00E94AC069FEF111699
:105100000CF491E0899F802D112480937205FF207B
:1051100059F00E94AC0691E01F140CF09FEF899F9C
:10512000802D11248093730580917205882399F056
:10513000D0907305DD2079F00E94CC06882309F415
:10514000C6C0809372058D2D0E94CC06882309F479
:10515000C1C0809373058E2D802B09F445C08091CA
:105160006C0590916D050E945E129C0190916A05FC
:10517000992309F47DC221353105B0F19F3F19F023
:105180009F5F90936A05EE2059F00E948A069FEF78
:105190001E140CF491E0899F802D112480937405D6
:1051A000002359F00E948A0691E010160CF09FEF40
:1051B000899F802D11248093750580917405882323
:1051C00099F0E0907505EE2079F00E94CC068823D6
:1051D00009F483C0809374058E2D0E94CC06882329
:1051E00009F47EC08093750580917105C81217C0BF
:1051F00080917205882311F0181311C02091730556
:10520000222311F02F110BC090917505992311F0F5
:10521000901305C030917405332309F41BC20E941A
:10522000CD1286E0FE013196A0E7B5E001900D9227
:105230008A95E1F70E9477069091B303891721F0D0
:105240008093B3030E94C20580919205843009F0D7
:1052500087CD83E08093E9008091E80082FF80CDD4
:105260008091E80090E085FF05C00E9484048823B7
:10527000D1F191E08091E8008B778093E800992349
:1052800009F46ECD8981EFEFE80FE33108F053C0E8
:10529000F0E0EA5CF24D0C94622C8BA7442443941A
:1052A000D2CD90E0FC01E254FC4FD9015C915183D6
:1052B000DB015C915187BBA5B18B880F991FFC0165
:1052C000E254FC4F128E118E91E0842F02CE709228
:1052D000720539CF709273053ECF709274057CCF02
:1052E0007092750581CF00E210E0AE014F5F5F4F15
:1052F0007A018091E80085FD0AC08091E8008B77F3
:105300008093E8000E948404882399F3B2CF8091AF
:10531000F100D7018D937D010150110951F7A9CFFB
:105320001A828CE08B831BC08A81823009F497C17A
:1053300028F4813061F08FEF898311C08330C1F090
:105340008430C9F71B821C821D821E8208C00E9405
:10535000C2050E94682C6B837C838D839E8340E210
:1053600050E0BE016F5F7F4F82E00E94630CF8CC7B
:105370002B81822F90E0FE013196225F85309105CE
:1053800070F7DC01AA0FBB1FAC54BC4F3C911196C7
:105390004C9143833483019632962813EFCFDFCFAD
:1053A0008A81823059F0853031F68091F203B1E084
:1053B0008B278093F20310927601D1CF6B817C8191
:1053C0008D819E810E94682C88E290E00E94BC2C16
:1053D000C6CF4C816B818A810E949B0D98278927BB
:1053E00098279E838D83BBCF2D813E813227232733
:1053F00032274C816B818A810E94140DB0CF0E94AC
:105400003A0DADCF9A81933009F095CF883009F4E9
:1054100041C0893009F46BC08B818230E9F088F497
:10542000813009F09CCF4C812FEF429F412D1124F8
:105430008091F30320E06091F40390E00E946D07F7
:105440008ECF833019F1843009F089CF8C8120E030
:105450004091F5036D81F1CF8C819091F203292F5A
:105460002370811107C011F0109276019C7F9093F8
:10547000F20375CF211102C0109276019C7F9160DA
:105480009093F20360E00E94CB0769CF8C818093F8
:10549000F60365CF8B818230E1F078F4813009F03A
:1054A0005ECF8091F503EFEF8E9FC00111246FEF67
:1054B00070E00E94032C6C8352CF8330A9F08430BB
:1054C00009F04DCF8091F3038C838091F4038D8399
:1054D00046CF8091F203982F93708695869591110F
:1054E00001C080E08C833BCF8091F603FBCF0E940C
:1054F000371035CF80E18A8332CF1A8289EE12CFFE
:105500000A811B811027012710279E012F5F3F4F23
:105510006901EC80A9014E0D511D7A01C801895E17
:105520009C4FEC14FD0409F41ACF093E110558F400
:105530000E949E2CD60114968C930F5F1F4FFFEF95
:10554000CF1ADF0AEBCFF6011482F7CF0A811B8155
:105550001027012710279E012F5F3F4F6901EC8024
:10556000E00EF12EF11CC801895E9C4FE016F10699
:1055700009F4F5CE093E110528F4D60114966C9174
:105580000E94BC2CBFEFCB1ADB0A0F5F1F4FEBCF83
:105590000E94040DE4CE85E0AECF0A811B81102766
:1055A00001271027FE0131966F01EC809F012E0D1F
:1055B000311D7901C8018996CE14DF0409F4CFCEDC
:1055C0000E3E32E0130758F40E949E2CD60114962A
:1055D0008C930F5F1F4FFFEFCF1ADF0AEBCFF6015F
:1055E0001482F7CF0A811B811027012710279E0103
:1055F0002F5F3F4F6901EC80E00EF12EF11CC801D6
:1056000089960E151F0509F4AACE0E3E32E0130747
:1056100028F4D60114966C910E94BC2CBFEFCB1AD3
:10562000DB0A0F5F1F4FEBCF09BD19BD09B400FEA8
:10563000FDCF8091D8008F7D8093D8008091E000CD
:1056400082608093E0008091E00081FDFCCF0E94A9
:105650005E1590CB822B892B09F4E3CDE0CD88E257
:1056600090E00E949E2C1B821C821D828E8377CE2E
:105670002B30310508F084CDB7CD2B30310508F043
:1056800036CD69CD1092B9008CE08093B8000895B2
:10569000B0E0A0E0EEE4FBE20C941E2CB82EEB018F
:1056A0000E946D126C01EE24E394F12CC431D105FB
:1056B00060F025E0E22EF12CCF3FDC0731F0CE0187
:1056C00064E170E00E94032C7B0184EAA82E94E838
:1056D000992E1092BC00A092BC000E946D128C0109
:1056E0008091BC0087FF0DC08091B900887F883011
:1056F000F9F08091B900887F8031D1F00FEF1FEF72
:1057000008C0C8010E945E12E816F90648F70EEFBD
:105710001FEFCF3FDC07E9F2C6010E945E12C817F7
:10572000D907B8F6C801CDB7DEB7EBE00C943A2C38
:10573000B092BB009092BC000E946D128C018091CF
:10574000BC0087FF0AC08091B900887F883111F0C2
:105750008034A1F610E000E0E5CFC8010E945E129F
:10576000E816F90660F7D3CF0F931F93CF93DF931B
:10577000EB018093BB0084E88093BC000E946D1213
:105780008C018091BC0087FF11C02091B900287F57
:1057900081E090E0283211F490E080E091958195CD
:1057A0009109DF91CF911F910F910895CF3FDC07B1
:1057B00041F3C8010E945E12C817D90710F78EEF97
:1057C0009FEFEFCFB0E0A0E0E8EEFBE20C94212CDD
:1057D0006B018A017901B9010E94482BE6010C0D89
:1057E0001D1DC017D10711F097FF08C024E92093B1
:1057F000BC00CDB7DEB7E8E00C943D2CB701899131
:105800000E94B42BEECFAA1BBB1B51E107C0AA1FFD
:10581000BB1FA617B70710F0A61BB70B881F991F51
:105820005A95A9F780959095BC01CD0108952F92C6
:105830003F924F925F926F927F928F929F92AF9220
:10584000BF92CF92DF92EF92FF920F931F93CF936D
:10585000DF93CDB7DEB7CA1BDB0B0FB6F894DEBF04
:105860000FBECDBF09942A88398848885F846E842A
:105870007D848C849B84AA84B984C884DF80EE8074
:10588000FD800C811B81AA81B981CE0FD11D0FB67D
:10589000F894DEBF0FBECDBFED01089597FB072E34
:1058A00016F4009407D077FD09D00E94032C07FC62
:1058B00005D03EF4909581959F4F08957095619520
:1058C0007F4F0895EE0FFF1F0590F491E02D09948E
:1058D0006927962769277827872778270895FB0166
:1058E000DC0102C005900D9241505040D8F7089558
:1058F000FB01DC0104C08D910190801921F441501D
:105900005040C8F7881B990B0895FB01DC0102C0C9
:1059100001900D9241505040D8F70895DC01CB0121
:10592000FC01F999FECF06C0F2BDE1BDF89A3196AF
:1059300000B40D9241505040B8F70895F999FECF48
:1059400092BD81BDF89A992780B50895A8E1B0E08D
:1059500042E050E00C94902CDC01A40FB51F4150A4
:10596000504048F0CB01840F951F2E910E94BD2C12
:1059700041505040D0F70895262FF999FECF92BD9F
:1059800081BDF89A019700B4021639F01FBA20BD04
:105990000FB6F894FA9AF99A0FBE08950396272F36
:1059A0000E94BD2C0E94BC2C252F0E94BD2C242FB0
:1059B0000C94BD2C0196272F0E94BD2C0C94BC2C5E
:1059C000F894FFCF701698163B1898163B18CB1614
:1059D000EC163B18EA17F7174F1F4F1F861F861F3D
:1059E0003B205520AF1FAF1F5A20C720D820D820FA
:1059F000B81D2D1EC01D8A1D8E1DC41D921DC81DE3
:105A0000D41D9E1D261EA21DD81DA61DDC1D041E14
:105A1000AA1DE01D0B1EB01DE61DEE1D961DCC1D22
:105A20009A1DD01DB41DEA1DFA1D141E241E841DCE
:105A3000BC1D341E6B1D6F1D601D671D731D771D02
:105A40007B1D621E701E771E7C1E811E861E8B1E95
:105A5000901E951E9A1E9F1EA41E911B911B911BAA
:105A6000911B911B911B911B911B911B90299429B8
:105A7000D029E929F429FF29022A022A022A9B298E
:105A80009B297A2A7D2A802AA62AC82ACB2ACD2AAF
:025A9000F22AF8
:105A920099018A017B0100004E004D004B004A0033
:105AA20001000100010001BF05B30CAC0CA50C9E66
:105AB2000C0000000000000000751A480C000000F5
:105AC2000000000000000000009012390C000000ED
:105AD200000000000000000000AF12400C000000B7
