:100000000C940A040C9442040C9442040C94420490
:100010000C9442040C9442040C9442040C94420448
:100020000C9442040C9442040C94F4110C94B718F0
:100030000C9468250C9442040C9442040C944204E1
:100040000C9442040C9442040C9442040C94420418
:100050000C9442040C94CD120C9442040C9442046F
:100060000C9442040C9442040C9442040C944204F8
:100070000C9442040C9442040C9442040C944204E8
:100080000C9442040C9442040C9442040C944204D8
:100090000C9442040C9442040C9442040C944204C8
:1000A0000C9442040C9442040C944204050109028D
:1000B000A10185020901A1000509190129081500FE
:1000C0002501950875018102050109300931158165
:1000D000257F95027508810609381581257F9501D0
:1000E00075088106050C0A38021581257F95017572
:1000F000088106C0C005010980A101850319012AF4
:10010000B700150126B700950175108100C0050CD8
:100110000901A101850419012AA002150126A002E6
:10012000950175108100C005010906A1018506052C
:100130000719E029E71500250195087501810205D9
:1001400007190029EF1500250195F07501810205B9
:10015000081901290595057501910295017503910D
:1001600001C00660FF0961A1010962150026FF00B8
:100170009520750881020963150026FF00952075FA
:10018000089102C005010906A101050719E029E748
:1001900015002501950875018102950175088101F9
:1001A0000507190029FF150026FF0095067508812F
:1001B000000508190129059505750191029501753C
:1001C000039101C0000000000000000000000000DA
:1001D000000000000000000000000000000000001F
:1001E00000000000000000007E0F00D4FFFFFFC7EA
:1001F0000000007800000000000000002A2B28000A
:1002000000000000000000000000000000000029C5
:10021000000000002C1E3420212224342627252E05
:10022000362D3738271E1F2021222324252633333D
:10023000362E37381F0405060708090A0B0C0D0E69
:100240000F101112131415161718191A1B1C1D2F35
:100250003130232D350405060708090A0B0C0D0E55
:100260000F101112131415161718191A1B1C1D2F15
:100270003130354C0001010101010101010102028F
:100280000202020202020203030303030303030444
:10029000040404040404050505050506060606060F
:1002A000070707070708080808090909090A0A0AC9
:1002B0000B0B0B0C0C0C0D0D0D0E0E0E0F0F0F106B
:1002C00010111111121213131414151516161717F5
:1002D000181819191A1A1B1B1C1D1D1E1E1F202061
:1002E000212222232424252626272829292A2B2CAB
:1002F0002D2D2E2F30313232333435363738393ACE
:100300003B3C3D3E3F404142434445464748494AC5
:100310004C4D4E4F50515354555658595A5B5D5E93
:100320005F616264656668696B6C6D6F707273752E
:1003300077787A7B7D7E8082838587888A8C8E8F92
:1003400091939596989A9C9EA0A2A3A5A7A9ABADC0
:10035000AFB1B3B5B7BABCBEC0C2C4C6C9CBCDCFAE
:10036000D1D4D6D8DBDDDFE2E4E7E9EBEEF0F3F55C
:10037000F8FAFDFF009B8B7B00AB8A7A00AA9A7982
:1003800000A9998900A8988800A7978700A6968653
:1003900000A5958500A49484003C4C5C002C4D5D28
:1003A000002D3D5E002E3E4E003040500031415148
:1003B000002A3A4A00293949002838480027374797
:1003C0000026364600253556002445550034445451
:1003D00000AC9C8C00AD9D8D00AE9E8E00AF9F8FBB
:1003E00000B0A09000B1A19100324252002B3B4BD3
:1003F00001A9998901A8988801A7978701A69686DF
:1004000001A5958501A49484013C4C5C012C4D5DB3
:10041000012D3D5E012E3E4E012F3F4F01304050D9
:100420000033435301AB8A7A012838480127374704
:1004300001263646012535560124455501AC9C8CD4
:1004400001AD9D8D01AE9E8E01AF9F8F0131415157
:10045000013242520133435300B2A281019B8B7B94
:10046000012B3B4B012A3A4A0134445401B1A1917A
:1004700001B2A28101A3938300A3938300B392826C
:10048000167C1E001F0020002100220023002400F3
:100490002500260027002D002E002A004C002B00EE
:1004A00014001A000800150017001C0018000C00AA
:1004B000120013002F0030003100035700570400D2
:1004C0001600070009000A000B000D000E000F00C7
:1004D00033003400000028000457E1001D001B0019
:1004E0000600190005001100100036003700380022
:1004F000E500000052000157E000E300E2000000C8
:1005000000002C000000000002570000E400500032
:10051000000051004F0035003A003B003C003D0018
:100520003E003F00400041004200430044004500BF
:100530004C00490001004A0052004D004B000100F0
:1005400001000100010001000100010001000100A3
:1005500046000100500051004F004E000100010014
:100560000100010001000100010000000100010084
:10057000010001000100B20001000100110A29037D
:100580000100010001000100000001000100010064
:1005900001000100000000004C000000000001000C
:1005A000000065210100000001000100350001008C
:1005B000010001000100010001005F006000610016
:1005C0000100560057004C02A60001004A005200EC
:1005D0004D004B00010001005C005D005E00010069
:1005E00055005400010001000100500051004F006F
:1005F0004E000100010059005A005B00010001009B
:10060000000001000100010001000100B200010032
:10061000010001006200620063005300010000005D
:100620000100010001000B7001000000000001004A
:1006300000000000010000000100010000000100B6
:10064000010020782B78010001001370AA00A90096
:10065000AE00A800010001000100010001002578A2
:100660000100010001000100010001000100010082
:1006700001000100010001000100007C267801005A
:100680000100010001000100010001000100010062
:100690000100010001000000037C2378010001003B
:1006A0000100010001000100010010030100010030
:1006B0000100010000002178247801000100010000
:1006C0000000000001000000000000520000045281
:1006D0002878000022782778167C1E001F00200052
:1006E00021002200230024002500260027002D00E1
:1006F0002E002A00A8002B0014001A000800150084
:1007000017001C0018000C00120013002F0030000E
:1007100031006800390004001600070009000A00D3
:100720000B000D000E000F00330034000000280005
:100730006900E1001D001B00060019000500110002
:100740001000360037003800E50000005200E300DA
:10075000E0000000E200000000002C0000000000AB
:1007600000520000E4005000000051004F00090258
:100770005B00030100A0FA0904000001030101006D
:100780000921110100012240000705810308000131
:1007900009040100020300000009211101000122E7
:1007A0002200070582032000010705030320000142
:1007B00009040200010300000009211101000122C7
:1007C000B6000705840320000112010002000000AA
:1007D00008424B251202000102000120036B006257
:1007E000006400360037006D006B0069006900721C
:1007F0000067006200200076003200000010034B0A
:100800000042004400660061006E007300000004B6
:100810000309040011241FBECFEFDAE0DEBFCDBF15
:1008200004B603FE18C08091DA059091DB05A09113
:10083000DC05B091DD058730904BA740B04B59F4F3
:100840001092DA051092DB051092DC051092DD059E
:10085000E0E0F8E3099513E0A0E0B1E0EAE3FAE5AF
:1008600002C005900D92AC30B107D9F725E0ACE09D
:10087000B3E001C01D92AA3DB207E1F70E948F25A7
:100880000C94B42C0C940000482F2091D105909129
:10089000980557E0291302C080E0089530E0529F88
:1008A000F001539FF00D1124E756FA4F8181681330
:1008B00006C08081481303C085818111EECF2F5F70
:1008C0003F4F2770E7CFE8EDF0E080818E7F808397
:1008D0001092E2001092DA001092E100A0EEB0E077
:1008E0008C9181608C9380818F77808319BCA7ED78
:1008F000B0E08C918E7F8C9380818F7E808310926C
:10090000690508952091E4003091E50095E6A9017C
:100910002091EC00822F817020FF06C08091E800BA
:1009200080FF06C080E008952091E80022FD1AC0F3
:1009300080918E05882389F0853089F08091EB00C5
:1009400085FD0FC02091E4003091E5004217530768
:10095000F9F29150E1F684E0089582E0089583E091
:10096000089581E008958091900587FF13C08091DC
:10097000E80082FF06C08091E8008B778093E80052
:1009800004C080918E058111F2CF089580918E056B
:100990008823D9F38091E80080FFF8CF8091E800A8
:1009A0008E77ECCF982F9093E900242F762F50E08C
:1009B000891731F07091EC002091ED005091F0001A
:1009C00021FD07C09F5F973071F78093E90081E0B8
:1009D00008953091EB003E7F3093EB003091ED00B5
:1009E0003D7F3093ED003091EB0031603093EB00B0
:1009F0007093EC002093ED005093F0002091EE00F6
:100A000027FDE0CF80E00895B0E0A0E0EAE0F5E067
:100A10000C94F52BC8EDD0E088818F7E8883E7EDBC
:100A2000F0E080818160808384E082BF81E08093F8
:100A3000690588818E7F888302EE10E0F8011082BC
:100A40001092DA0081EEC82ED12CF6011082888136
:100A50008F77888388818068888388818F7D888369
:100A600019BC10928E0510928F0510928D05109270
:100A70008C0590EEE92EF12CF70180818B7F80832D
:100A800088818160888342E060E080E00E94D20437
:100A9000F60180818E7F8083F80180818160808370
:100AA000808188608083F70180818E7F8083888148
:100AB00080618883CDB7DEB7E8E00C94112CFC018F
:100AC000809196059091970586179707A0F061157C
:100AD000710529F49091E8009E779093E80090E0EA
:100AE0006115710551F4911108C08091E80082FFF1
:100AF00034C080E00895BC01F2CF80918E05882338
:100B0000C1F18530C1F18091E80083FD30C0809152
:100B1000E80082FDEACF8091E80080FFE1CF80917C
:100B2000F3002091F200382F6115710519F028307B
:100B3000310558F091E02830310509F090E020911E
:100B4000E8002E772093E800CBCF81918093F100CD
:100B5000615071092F5F3F4FE7CF80918E05882349
:100B600041F0853041F08091E80083FFBECF81E005
:100B7000089582E0089583E0089580916B050895BB
:100B80002FB7F894609165057091660580916705AF
:100B9000909168052FBF089520916B012223C1F029
:100BA0002091D80527FF14C0E62FE695E695E69537
:100BB000EE31F8F4E80FF92FF11D677021E030E015
:100BC00001C0220F6A95EAF78281822B8283089501
:100BD000FC0132962FEF30E04191641751F02F3F26
:100BE00019F4411101C0232F3F5F3630A9F72F3F81
:100BF00009F40895820F911D27FD9A95FC016283E7
:100C00000895A3E0B0E0E7E0F6E00C94FB2B209120
:100C100062053091630528173907A1F090936305A9
:100C200080936205E0916005F0916105309751F085
:100C300024E029839B838A830680F781E02DCE01FF
:100C4000019609952396E2E00C94172CA3E0B0E0FE
:100C5000ECE2F6E00C94FB2B20915E0530915F05F1
:100C600028173907A1F090935F0580935E05E09106
:100C70006005F0916105309751F023E029839B8353
:100C80008A830680F781E02DCE010196099523968F
:100C9000E2E00C94172CE0916005F091610530972B
:100CA00029F00190F081E02D0995089580E00895E4
:100CB000CF93DF93EC0140914F0550915005609127
:100CC0005105709152052FB7F89480916505909168
:100CD0006605A0916705B09168052FBF841B950B31
:100CE000A60BB70B843F9140A105B10518F5809183
:100CF0004F0590915005A0915105B09152058093F8
:100D00004B0590934C05A0934D05B0934E0584EF91
:100D100091E0A0E0B0E08093470590934805A09350
:100D20004905B0934A05D0935705C0935605DF9106
:100D3000CF9108950E94C00560934B0570934C05B8
:100D400080934D0590934E0582E390E0A0E0B0E0E3
:100D5000E2CFFC018481862351F492819923B9F07A
:100D60006923808583FF05C081E061110FC080E0A9
:100D70000895892F8F7092959F70982B862F8F7072
:100D800062956F70682B81E09613F1CF089581E032
:100D9000FDCFFA01811101C0FB0109950895E3EE31
:100DA000F3E0248130E1231B08F420E024838091C8
:100DB000E20381608093E2030895E3EEF3E024818F
:100DC00030E1230F08F42FEF24838091E203816048
:100DD0008093E20308959091E303937059F0809318
:100DE000E4036093E5034093E6038091E203822BE2
:100DF0008093E2030895E3EEF3E0438120E1421B98
:100E000008F440E0818121E0628190E00E94EB06DD
:100E10000895E3EEF3E0438120E1420F08F44FEF41
:100E2000818121E0628190E00E94EB060895E3EE6B
:100E3000F3E0628120E1621B08F460E0818121E03F
:100E4000438190E00E94EB060895E3EEF3E06281B7
:100E500020E1620F08F46FEF818121E0438190E08F
:100E60000E94EB060895E3EEF3E0818121E04381E7
:100E700062818850990B0E94EB060895E3EEF3E03F
:100E8000818190E021E04381628108960E94EB0617
:100E900008958091E303837051F084608093E303AD
:100EA00010926A018091E203862B8093E2030895F9
:100EB0008091E30386958695815009F481E061E095
:100EC0000E944907089561E081E00E944907089562
:100ED0000E94BF0E08950E94640E0895B0E0A0E045
:100EE000E4E7F7E00C94F02B182F80916601811352
:100EF00021C09091E30393702091650130E081E07F
:100F00009217130609F480E0817080936901809143
:100F1000E80390916801981739F08093680140E0E8
:100F200060E080E00E946807112331F0113071F019
:100F300080E02DC081E0E8CF80916901882339F1FC
:100F400040E060E080E00E946807F2CF9090670187
:100F5000990C990C04E0090D802E043410F023E460
:100F6000822E4091E403D090E503E091E603F0E0A7
:100F7000EC58FD4FD11023C0F490DF2DCF2DC92C9C
:100F8000D12CC81408F48FC081E0033488F6909106
:100F900067019F5F9093670181110CC082E080938D
:100FA0006A0180916901811105C0111103C083E0BC
:100FB00080936A01CDB7DEB7EDE00C940C2CED2CDC
:100FC000F12CC4917C2EEC2FF0E026E0429FC00172
:100FD00011242FEF30E0B9010E94D72B842F90E02D
:100FE000880F991FA5E5A69FA001A79F500D11246A
:100FF000841B950BC82ECC0CC80ED901AE19BF09A5
:10100000AE9FA001AF9F500DBE9F500D1124D52F54
:10101000DC9CD0011124AB2FBB27C9018A1B9B0B81
:101020008E9FD0018F9FB00D9E9FB00D112459014E
:10103000AC18B108AE9C6001AF9CD00CBE9CD00C2B
:101040001124CD2CDD242C193D092E9FC0012F9F8A
:10105000900D3E9F900D1124F92E62307105A1F084
:1010600050F46115710509F48ACF6130710581F082
:10107000F52EDB2F84CF6430710569F080F0663087
:10108000710509F47CCFF4CFFC2EC52FD92F77CF73
:10109000FC2ECB2F74CFF52EDC2FC92F70CFC52F90
:1010A000D72DFB2E6CCFF601E654FD4F8081909139
:1010B0006801892331F02D2F4F2D6C2FC6010E941E
:1010C0006B078FEFC81AD80A5CCF8091A40380FD0C
:1010D00016C081FD16C082FD16C08091A30388232F
:1010E000A1F0883280F428E0829FC001112468E2D8
:1010F00070E00E94222C862F672B39F0089582E041
:10110000089584E0089588E0089581E0089580912D
:10111000A40380FD14C081FD14C082FD16C080911F
:10112000A203882381F08E3180F420E5829FC001E4
:1011300011246EE170E00E94222C862F089584E134
:10114000089588E2089588E0089580E50895282F9D
:1011500035EB2303C001112497FF04C08058910987
:10116000892F089580589F4FFBCF80E00895F89411
:10117000E82FE295EF70F0E031A1282F2F7081E089
:1011800090E001C0880F2A95EAF7982F9095932355
:1011900091A392A1892B82A3789408959091D80568
:1011A00092FF10C041E0282F2471243009F040E064
:1011B00031E0282F2871283009F030E0431711F072
:1011C0002CE0822793FF10C041E0282F24712431A6
:1011D00009F040E031E0282F2871283109F030E093
:1011E000431711F02CE082273091D90530FF10C051
:1011F00051E0282F2171213009F050E041E0282FE3
:101200002871283009F040E0541711F029E08227B6
:1012100031FF10C041E0282F2171213109F040E059
:1012200031E0282F2871283109F030E0431711F000
:1012300029E0822794FD877E089582389105B9F1CF
:10124000B0F48133910509F47DC048F489329105E9
:1012500009F46DC08A32910509F47BC00895853385
:10126000910509F45FC08933910509F10895833E22
:101270009105D9F138F4803E910529F1823E91051E
:1012800079F10895863E9105D9F1873E910509F4DB
:101290003EC0843E910541F52091D90521FF24C02F
:1012A0008091D80584FD19C087EE90E008952091C3
:1012B000D805237009F05AC02091D90523FF14C026
:1012C00089E290E008952091D80520FD38C0309142
:1012D000D90530FF09C024FF43C090E080E00895A5
:1012E0002091D80522FDF7CF08952091D80522FD41
:1012F0003AC03091D90530FD39C024FFF5CFEDCF8C
:101300002091D80523FFF0CF24FDE7CFCDCF20914A
:10131000D80523FD2EC03091D90531FFEECF84EEE4
:1013200090E008952091D80525FFDECFC9CF209108
:10133000D80525FD21C02091D90523FFD5CF89E30C
:1013400090E0D2CF2091D80526FFCECF8AE290E060
:1013500008952091D80526FFC7CF81E390E0089536
:1013600083EE90E0089582EE90E0089580EE90E0A4
:10137000089586EE90E0089585E390E008951F9328
:10138000CF93DF930E941D09EC01C11580E5D807BA
:10139000F0F5C11580E4D80708F09CC0C03ED10527
:1013A00020F5CD3CD10508F082C0C83AD10578F4CB
:1013B000C53AD10508F073C0C130D10519F12097A5
:1013C00009F1C430D105F0F4D0E0C0E01BC0C33C4B
:1013D000D105D0F7C85AD0E0CC0FDD1FC156DE4F83
:1013E0000990D881C02DD4640DC0C11580E2D80702
:1013F00008F0D1C0C11581E0D80708F05AC0C83E36
:10140000D10510F7CE01DF91CF911F910895C0361D
:1014100082E5D80718F5C03482E5D80708F06BC01C
:10142000C03282E5D80708F05FC0C11582E5D80751
:1014300008F497C02C2F2695269580E2289F9001CE
:1014400011248C2F8370C1E0D0E002C0CC0FDD1FCF
:101450008A95E2F7C22BD32BDD68D4CFC03A82E560
:10146000D80760F4C03882E5D80708F459C0CF71B6
:10147000D0E0DC2FCC27C46FD06AC4CFC03C82E55B
:10148000D80708F462C0C03E82E5D80708F09CCFB8
:10149000DC2FCC27CC27DF71C06FD06AB3CFC55A01
:1014A000D0E0C456DE4FC881D0E0D064ABCFD06569
:1014B000A9CF8D2F0E94CE08182FCE0199270E9408
:1014C0001D09C12FD0E0DC2FCC27CC27DF71C82B22
:1014D000D92B98CFCE0199270E941D09CC27DF7008
:1014E000C82BD92BD06A8ECFCF71D0E0DC2FCC2780
:1014F000C16FD06A87CF2C2F26952695277080E262
:10150000289F900111248C2F8370C1E0D0E002C08D
:10151000CC0FDD1F8A95E2F7C22BD32BDC6872CF8C
:101520002C2F26952695277080E2289F9001112464
:101530008C2F8370C1E0D0E002C0CC0FDD1F8A95F4
:10154000E2F7C22BD32BDA685DCF8C2F8F710E940C
:10155000CE08C82FD0E0DC2FCC27CC27DF71D0629B
:1015600051CF8C2F8F710E94CE0855E0D695C7952C
:101570005A95E1F7CF70D0E0DC2FCC27282F30E050
:1015800084FF05C044E0220F331F4A95E1F7C22BC8
:10159000D32BD06937CF8D2F8F710E94CE08182F93
:1015A000CE0199270E941D09C12FD0E0DC2FCC2746
:1015B000CC27DF71C82BD92BD2CF80917903882318
:1015C00031F0109279031092780310927703089506
:1015D000809590915A05982390935A050895809587
:1015E00090915B05982390935B05089590916B0112
:1015F0009923D1F09091D80597FF16C0E82FE69572
:10160000E695E695EE31E0F4F0E0E25FFC4F282F3E
:10161000277081E090E001C0880F2A95EAF7809555
:101620009281892382830895E0E1F3E09191891307
:1016300003C0DF0111971C9293E0E631F907B1F77F
:1016400008958091D10590919805981301C008954F
:101650008F5F8770FACF292F953078F58F3068F536
:1016600090E03FE0239F800D911D1124682F67704B
:1016700023E0969587952A95E1F7FC01EE0FFF1F71
:10168000E80FF91FEE5CFC4F50E040E080E0219154
:1016900030E0062E02C0369527950A94E2F72170B5
:1016A0003327042E01C0220F0A94EAF7822B4F5FE2
:1016B0005F4F4330510559F7089580E00895292F71
:1016C000953098F58F3088F590E03FE0239F800DAE
:1016D000911D1124282F277041E001C0440F2A9545
:1016E000EAF723E0969587952A95E1F7FC01EE0F3E
:1016F000FF1FE80FF91FEE5CFC4F30E020E070E0C8
:101700005191DF011197CB01022E02C0969587956A
:101710000A94E2F7817081958527842385278C932D
:101720002F5F3F4F2330310559F708958093DC0335
:1017300008959091DC0321E030E0F90101C0EE0F43
:101740008A95EAF7D90102C0AA0FBB1F6A95E2F792
:10175000EA2B01C0220F4A95EAF7892F8E23E8135E
:1017600005C0292B822F0E94960B089520952923CE
:10177000F9CF21E030E001C0220F8A95EAF72095E9
:101780008091DC0382230E94960B08959091D705E7
:10179000809589238093D705282F277089F489178E
:1017A00079F09091D90592FF0BC086958695869524
:1017B0000E94B90B1092D7051092D6051092D5054C
:1017C000089521E030E001C0220F8A95EAF7809168
:1017D000DC03822B0E94960B089580937A03089570
:1017E000982F92959F7011F0892F94E0282F2695BD
:1017F000269511F09E5F822F869509F09F5F892FB5
:1018000008959C013A9521153F4150F5FC01EE27C2
:10181000F170BC0166277270AC01442754709C01C2
:101820002227387094FF0EC080E1EF2B09F480E08E
:10183000672B09F08062452B09F08064232B89F027
:101840008068089581E0EF2B09F480E0672B09F0B0
:101850008260452B09F08460232B19F0886008957D
:1018600080E0089580911501833011F40E94B90B36
:10187000089580911301833019F482E00E94B90B1E
:10188000089580911101833019F481E00E94B90B11
:10189000109211010895FC019281913029F4858103
:1018A00080FF06C083E00895923021F081E0089522
:1018B00082E0089584E008950F931F93CF93DF9300
:1018C0008B01EA0190918E05943061F58093E900D7
:1018D0008FEF9091E800815095FD06C095ED9A95A7
:1018E000F1F700008111F5CF8091E80085FF1AC063
:1018F0000E948204811111C08091E80085FD06C01C
:101900008091E8008E778093E800F2CFF801819112
:101910008F018093F100219779F78091E8008E770D
:101920008093E800DF91CF911F910F91089543E0DC
:1019300050E0BC0184E00E945C0C089546E050E059
:10194000BC0184E00E945C0C0895CF93DF93EC010E
:1019500080916B01811111C048E050E0BE0181E02F
:101960000E945C0C80E2FE01ACE6B5E001900D92B5
:101970008A95E1F7DF91CF9108958091D80587FF8F
:1019800005C040E284E050E0BE01EACF48E081E0DB
:10199000FACF81E08093E00080E28093D80010923B
:1019A000C9008FE19EE40197F1F700C0000087E0D5
:1019B00090EBDC018093DA059093DB05A093DC05C6
:1019C000B093DD0588E19CE00FB6F894A89580936C
:1019D00060000FBE90936000FFCFCF93DF93C7E10D
:1019E000D3E060E0CE010E94902C2196C11584E0E6
:1019F000D807B9F7DF91CF9108951F93CF93DF9365
:101A0000122F8530E0F46530D0F44F30C0F4C42F8D
:101A1000D0E0CC0FDD1F9EE1699FC00DD11D1124C8
:101A200096E9899FC00DD11D1124632FCE0189969F
:101A30000E94902C612FCE018A960E94902CDF91FB
:101A4000CF911F910895AF92BF92CF92DF92EF9204
:101A5000FF921F93CF93DF9380E8C82E84E0D82EA7
:101A6000D0E07601C0E014C0F50125913491412FFA
:101A70006C2F8D2F0E94FD0C82E0A80EB11C1F5F01
:101A80001F3091F78EE1E80EF11CCF5FC53019F0E1
:101A9000570110E0E9CFDF5F86E9C80ED11CD530D1
:101AA00001F7DF91CF911F91FF90EF90DF90CF90E2
:101AB000BF90AF900895CF93C82F6FEF811163E26D
:101AC00085E290E00E94902C6FEFC11167E086E202
:101AD00090E00E94902C6FEFC11160E387E290E0EC
:101AE0000E94902CCF91089580E00E945B0D60E0F1
:101AF00088E290E00E94902C0E94230D0E94ED0C41
:101B000081E00E945B0D08950F931F93CF93DF93A5
:101B1000853030F5653020F54F3010F5C42FD0E01A
:101B2000CC0FDD1F2EE1629FC00DD11D112436E9BF
:101B3000839FC00DD11D1124CE0189960E94722C65
:101B4000082F10E0102F0027CE018A960E94722CD9
:101B50009801282BC901DF91CF911F910F91089512
:101B600090E080E0F8CF462F753040F46F3030F4CD
:101B7000853020F4672F0E94840D089590E080E066
:101B80000895CF92DF92FF920F931F93CF93DF932D
:101B90006C010091DC0380917A03082BC4E0D0E053
:101BA00010E0FC2EC8010C2E02C0959587950A9472
:101BB000E2F780FD0CC02197A0F7F12C8F2DDF916B
:101BC000CF911F910F91FF90DF90CF900895B601B4
:101BD0008C2F0E94B30D0E94BF09019761F3EECFD5
:101BE000CF93DF93EC010E94C10DBE010E94B30DA3
:101BF0000E94BF09DF91CF910895FC012481222327
:101C0000C1F0808191810E94F00D92959F70963075
:101C100091F058F4925F9F70923058F4803F19F021
:101C200030F4883E30F481E008959A5FF4CF843F29
:101C3000D1F380E00895883EB0F3813FD1F7F3CF30
:101C4000A6E0B0E0E6E2FEE00C94FA2B26E0FC0110
:101C5000DE01119601900D922A95E1F7FC01258194
:101C600089819A81222399F0662389F00E94C10D0F
:101C7000182F682F89819A810E945F0B69817A8170
:101C8000812F0E94B30D2696E3E00C94162C0E943F
:101C90002B0B182FF3CF85E290E00E94722C833239
:101CA00089F486E290E00E94722C873059F487E232
:101CB00090E00E94722C91E0803309F090E0892F2F
:101CC0008170089580E0FCCFA4E0B0E0EAE6FEE099
:101CD0000C94F72BF62E042F122F8334910508F065
:101CE0004AC0880F991F880F991FBC016C587C4F00
:101CF00044E050E0CE0101960E94432C898183701C
:101D00006A816452770B282F30E040E9849FC0013C
:101D100011248F5F9B4FFC01E60FF71F5081EB8072
:101D20004C815F110EC0FC01EE0DF11DB497508186
:101D3000501307C0840F911DFC01B4978081811757
:101D4000D1F080E9829FF001839FF00D1124EF5FB5
:101D5000FB4F6E0F7F1FDB01FC92DF01AE0DB11D4B
:101D600094970C93E40FF11DB497108321503C4FCE
:101D700081E0F90180832496E6E00C94132CFF9215
:101D80000F931F93CF93DF93182F062FF42ED0E0DD
:101D9000C0E02F2D402F612FCE010E94640E2196AE
:101DA000C334D105B1F7CDB7DEB7E5E00C94142C00
:101DB000EBEEF3E06083418324E630E042E050E064
:101DC000BF01880F0E94B62B0895EF92FF920F93E8
:101DD0001F93CF93DF93E82E062F10E00B5B1A4F73
:101DE000F8018081882381F0F2E16F9FE0011124E6
:101DF000CF5DDA4FF12C49916F2D8E2D0E94D80EB8
:101E0000F39482E1F812F7CFF8011082CDB7DEB774
:101E1000E6E00C94132CCF93DF93C82F4BE06DEFCB
:101E20000E94D80E40E06AE08C2F0E94D80E8FE30B
:101E30009CE90197F1F700C0000040E060E08C2FC2
:101E40000E94D80E40E061E08C2F0E94D80E40E046
:101E500066E08C2F0E94D80E40E06DEF8C2F0E9420
:101E6000D80ED0E040E06D2F8C2F0E94D80EDF5F9F
:101E7000D231C1F740E06D2F8C2F0E94D80EDF5F6A
:101E8000D432C1F740E06D2F8C2F0E94D80EDF5F57
:101E9000D43BC1F74BE06DEF8C2F0E94D80E41E090
:101EA0006AE08C2F0E94D80E40E06DEF8C2F0E94CC
:101EB000D80EDF91CF9108950F931F93CF93DF93A7
:101EC000082F000FEB0114E21093EB0380E1FE01F9
:101ED000ACEEB3E001900D928A95E1F724E630E094
:101EE00041E150E06BEE73E0802F0E94B62B105F53
:101EF0006096143B49F7DF91CF911F910F910895A0
:101F00008091FF03882329F061E074E084E70E9458
:101F10005C0F1092FF0380910004882329F061E98F
:101F200074E087E70E945C0F109200040895A4E01B
:101F3000B0E0EDE9FFE00C94EF2B0E94162B84E754
:101F40000E940B0F87E70E940B0F04E713E052E19A
:101F5000752E68E0C62ED12CEE24E394F12C662475
:101F6000639444E050E0B801CE0101960E94432CF6
:101F70004A8150E0CA0184972B81622F6452770B0B
:101F80004B012C81E22FE452FF0B5F01298123706A
:101F900030E0FC0197FD379643E0F595E7954A95CB
:101FA000E1F7729EA001739E500D11244F5D5A4FB0
:101FB000E40FF52FF11DB6010E94222CA70101C0EC
:101FC000440F8A95EAF78081842B8083F40197FC83
:101FD000379693E0F595E7959A95E1F7729EC001E3
:101FE000739E900D11248F5D9A4FE80FF92FF11D0C
:101FF000C401B6010E94222CA70101C0440F8A959A
:10200000EAF78081842B8083F501B7FC379683E063
:10201000F595E7958A95E1F7729EC001739E900D44
:1020200011248F5D9A4FE80FF92FF11DC501B601FC
:102030000E94222CA70101C0440F8A95EAF78081F3
:10204000842B80832B5B3A4FF90160820C5F1F4F1A
:10205000F4E000381F0709F084CF60E084E70E94B5
:10206000E50E61E087E70E94E50E2496EEE00C9411
:102070000B2C48E050E068E170E083EE93E00E94B2
:10208000802C1092E20308954F925F926F927F929C
:102090008F929F92AF92BF92CF92DF92EF92FF9278
:1020A000CF93C090D803D090D903E090DA03F0909A
:1020B000DB038FB7F89440906505509066056090FB
:1020C0006705709068058FBF530142018C189D0809
:1020D000AE08BF080E94C0056093D8037093D9036F
:1020E0008093DA039093DB03A091AF03EFEAF3E070
:1020F0002A2F30E04FEFC40ED41EE11CF11CC4188F
:10210000D508E608F708A31329C02093AF03209150
:10211000E103C0E0211108C02091E303C22FC37086
:1021200019F0C22FC695C69520916A012130B9F1E8
:10213000222339F1223009F480C0233009F488C009
:10214000CF91FF90EF90DF90CF90BF90AF909F9096
:102150008F907F906F905F904F900895418D528D3A
:102160002A01712C612CC414D504E604F70420F470
:1021700021503F5F3296C7CF480D591D528F418F76
:10218000F8CF109267016093DD037093DE038093B4
:10219000DF039093E00381E080936A01D1CF8C2F1D
:1021A0000E946E07CC2361F280916701813159F45E
:1021B0000E944B0681FF07C02FEF4FEF6FEF8EE1BC
:1021C00090E00E946B078091DC030E94F00B82304C
:1021D00061F168F48823D1F021E14CEC6AEA8130A6
:1021E00009F0AECF8DE390E00E946B07A9CF83305A
:1021F00001F1843009F0A4CF23E343E36EEE8BE3D7
:1022000090E00E946B0723E343E315C00E944B0656
:102210002BEB46E660E081FDE5CF21E040E060E0A9
:1022200090E080E00E94EB068BCF20E049E96FEF61
:10223000D9CF27E740E06EEED5CFC09366018091FD
:10224000E3038370809365010E94800F83E0A4CF35
:102250008091E20381110E9439104091DD03509179
:10226000DE036091DF037091E0032FB7F894809153
:10227000650590916605A0916705B09168052FBF2F
:10228000841B950BA60BB70B4A97A105B10508F463
:1022900057CF10926A0154CFE3EEF3E085E08083DC
:1022A00080916C0190916D01A0916E018183928368
:1022B000A3838FE784838FEF85830E94391008956D
:1022C0009091D90592FB222720F9281779F080FBFD
:1022D00092F99093D9056091D8057091D90584E061
:1022E00090E00E94AE2C82E00E94C60B089590E020
:1022F00080E00E947A2C863E9E4F19F40E944B0E7D
:10230000089580E00895A8E0B0E0E9E8F1E10C94D8
:10231000FB2B66EE7EEF90E080E00E94AE2C60E04A
:1023200082E090E00E94902C60E083E090E00E94C8
:10233000902C10927A0360E074E184E090E00E94B7
:10234000AE2C60E086E090E00E94902C6FEF87E07A
:1023500090E00E94902C40E050E0BA0188E090E0CC
:102360000E94A22C60E084E290E00E94902C60E049
:1023700087E190E00E94902C60E08CE090E00E9469
:10238000902C60E08DE090E00E94902C19821A82DF
:102390001B821C821D821E821F82188648E050E02C
:1023A00068E170E0CE0101960E94802C40E050E090
:1023B000BA0180E290E00E94A22C80E00E945B0DB6
:1023C0000E94740D40E050E0BA018FE090E00E945E
:1023D000A22C40E050E0BA0183E190E00E94A22CE0
:1023E0002896E2E00C94172C1F920F920FB60F92D2
:1023F00011242F933F934F935F936F937F938F930A
:102400009F93AF93BF93EF93FF938091E10082FF7F
:1024100009C08091E20082FF05C08091E1008B7FBE
:102420008093E1008091DA0080FF24C08091D80081
:1024300080FF20C08091DA008E7F8093DA00809147
:10244000D90080FF9DC080E189BD82E189BD09B4CA
:1024500000FEFDCF81E080938E058091690581119A
:1024600009C00E9463040E9404058091E200846018
:102470008093E2008091E10080FF17C08091E2002C
:1024800080FF13C08091E2008E7F8093E2008091F4
:10249000E20080618093E2008091D80080628093A6
:1024A000D80019BC85E080938E058091E10084FFFF
:1024B0002BC08091E20084FF27C080E189BD82E1CA
:1024C00089BD89B5982F917080FFFBCF8091D8008E
:1024D0008F7D8093D8008091E1008F7E8093E10012
:1024E0008091E2008F7E8093E2008091E200816023
:1024F0008093E20080918F05882309F447C084E02F
:1025000080938E0580918E058091E10083FF27C026
:102510008091E20083FF23C08091E100877F809358
:10252000E10082E080938E0510928F058091E1009A
:102530008E7F8093E1008091E2008E7F8093E200A5
:102540008091E20080618093E20042E060E080E000
:102550000E94D2048091F00088608093F000FF9187
:10256000EF91BF91AF919F918F917F916F915F910B
:102570004F913F912F910F900FBE0F901F90189584
:1025800019BC10928E051092690574CF8091E300FA
:1025900087FD93E090938E05B5CF78941F921FB678
:1025A0001F9211248F939F93AF93BF9380916505E2
:1025B00090916605A0916705B09168050196A11DEF
:1025C000B11D8093650590936605A0936705B09350
:1025D0006805BF91AF919F918F911F901FBE1F9073
:1025E00018959C014FB7F894809165059091660508
:1025F000A0916705B09168054FBF821B930B0895AA
:102600002FB7F8948091650590916605A0916705B4
:10261000B09168052FBF08959091D90592FF10C021
:1026200098E0899F9001112423602093D7050E9490
:10263000E10B0E9400139093D6058093D505089571
:102640000E94E10B08950E944B0C8093150183308A
:10265000A9F0843049F08230A1F483E00E940C1389
:1026600081E00E94C60B08958091DC03882331F03D
:1026700083FF04C083E00E94B90B089583E00E94A9
:10268000E10B08950E944B0C809313018330A1F05D
:10269000843041F0823099F40E940C1381E00E9452
:1026A000C60B08958091DC03882331F082FF04C0BB
:1026B00082E00E94B90B089582E00E94E10B089528
:1026C0000E9400139C019091AB038091AC03982B66
:1026D00021F03093A8032093A7039091AD0380913C
:1026E000AE03982B21F03093A6032093A503E0912D
:1026F0006005F0916105309749F082E08093A9036D
:102700000480F581E02D89EA93E009950895662318
:1027100009F45DC08D3C41F40E9487088195809347
:10272000AC030E94601308958E3C19F40E94870840
:10273000F6CF8F3C31F40E94870881958093AB03DC
:10274000F0CF803D19F40E948708F8CF893D29F425
:102750000E9465088093AD03E4CF8A3D21F40E9476
:1027600065088195F7CF8B3D31F40E94650881950E
:102770008093AE03D6CF8C3D19F40E946508F8CF44
:102780009FE2980F983070F4815D990B21E030E062
:1027900001C0220F8A95EAF78091AA03822B8093C9
:1027A000AA03BFCF8D3D31F48091A4038160809353
:1027B000A403B7CF8E3D21F48091A4038260F7CFAC
:1027C0008F3D09F0AECF8091A4038460F0CF40919B
:1027D000AB038D3C59F48091AC0387FF0DC0109280
:1027E000AC0341110BC01092A20308C08E3C81F4CF
:1027F0008091AC0318169CF3442381F08091AD03C3
:102800009091AE03892B09F08CCF1092A30389CF4E
:102810008F3C49F447FFF0CF1092AB038091AC039B
:102820008111ECCFE0CF803D19F41416ACF3E4CF66
:102830009091AD03893D29F41916F4F61092AD0379
:10284000DBCF8A3D19F497FFD7CFF8CF9091AE0335
:102850008B3D29F497FFD0CF1092AE03CDCF8C3DA6
:1028600019F41916CCF3C8CF9FE2980F983090F462
:10287000815D990B21E030E0B90102C0660F771F3E
:102880008A95E2F7CB0180959091AA0389238093E2
:10289000AA03B2CF8D3D31F48091A4038E7F809343
:1028A000A403AACF8E3D21F48091A4038D7FF7CF9E
:1028B0008F3D09F0A1CF8091A4038B7FF0CFAAE0D8
:1028C000B0E0E5E6F4E10C94F12B8E010F5F1F4FB1
:1028D0008AE0F80111928A95E9F795EDE92E91E0E9
:1028E000F92E6801AA24A394B12CF70181917F01EC
:1028F0008F3F09F446C0F894E82FE295EF70F0E0BE
:1029000021A18F70A50102C0440F551F8A95E2F7DF
:10291000CA01922F982B91A392A18095892382A31B
:10292000789400C0EAEDF1E021E030E0912C812CB8
:1029300041914F3F09F467C0A42FA295AF70B0E05A
:1029400090968C9190E04F7002C0959587954A952E
:10295000E2F780FD58C0C901882A992A220F331F47
:1029600051E0E93EF50721F7F701319780818F3F6C
:1029700011F00E94B70880EA8A95F1F7F60191827A
:102980008082F2E0CF0ED11C4AEDE41641E0F4065D
:1029900009F0ABCF4AE050E0B80180E893E00E9434
:1029A0004C2C892B99F18AE0F801A0E8B3E0019062
:1029B0000D928A95E1F781E080937F030E940013D6
:1029C00090937E0380937D0380917D0390917E039D
:1029D0000E94F1120397F0F04AE050E060E873E0E3
:1029E00088E993E00E944C2C892BC9F08AE0E0E84A
:1029F000F3E0A8E9B3E001900D928A95E1F781E058
:102A000010927F0308C090E080E0A6CF80917F0302
:102A10008111DACF80E02A96ECE00C940D2C80E056
:102A2000EFCFCF9380915B0590915A05892B8093CE
:102A30000E0380917903882339F10E9400132091BD
:102A4000770330917803821B930B8C3D954010F0F7
:102A50000E94DD0A80910E0390917903892B809367
:102A60000E0380916B01882309F447C08091D8053B
:102A700087FF43C08EE1E0E1F3E090E0815008F091
:102A80003EC091110E94DD0AC0915305C09580910E
:102A90000E03C82380915405C82BC0930E0340E257
:102AA00050E067E573E08EE093E00E944C2C892BA8
:102AB00011F180E2EEE0F3E0A7E5B3E001900D92C2
:102AC0008A95E1F7E0916005F0916105309799F002
:102AD00080916B01882349F08091D80587FF05C05C
:102AE000C0930F0386E080930E030280F381E02DF4
:102AF0008EE093E00995CF91089586E0BCCF2191B7
:102B0000222309F4BBCF9F5FB9CFCF93DF93EC01B2
:102B1000EA85FB85309719F06C857D8509958B8159
:102B20000E94E80A8C810E94EF0A0E94111586E03B
:102B3000FE0111928A95E9F7DF91CF910895CF9325
:102B4000DF93EC018D8181FD18C082608D838091BF
:102B50005A059B81892B80935A0580915B059C8146
:102B6000892B80935B050E941115E885F9853097C4
:102B700021F06C857D85CE01099510925D0510923E
:102B80005C058D8180FD03C0CE010E948515DF911B
:102B9000CF91089510925B0580916B01E0E1F3E025
:102BA000882329F18091D80587FF21C08EE1DF01BC
:102BB0001D928A95E9F790E080E00E94260690E059
:102BC00080E00E94010610925A050E94111586E0CD
:102BD000E9EAF3E0DF011D928A95E9F71092A2037A
:102BE0001092A3031092A4030E946013089586E03C
:102BF000DECFAAE2B0E0EFEFF5E10C94FA2B80E92A
:102C000095E02091F100DC012D93CD01B5E08839EC
:102C10009B07B9F780919105833009F472C0B8F42D
:102C2000813009F449C0823009F4B3C08091E800D2
:102C300083FF8BC280919005909191059A3008F0A6
:102C400084C2E92FF0E0EA54F34D0C94362C8A301C
:102C500009F48EC08B3009F471C0893039F7809146
:102C60009005813219F78091940590919505009710
:102C700011F00297D9F68091E800877F8093E800F1
:102C80008091E80082FF38C09091F3008091F200BB
:102C9000029731F48091F100813011F0863021F4F7
:102CA0008091F10080936B058091E8008B77809391
:102CB000E8000E94B304BACF80919005813A09F0F0
:102CC000B5CF8091E800877F8093E80080919405DC
:102CD00090919505892B61F460E28CE695E070E0B7
:102CE0000E945F058091E8008B778093E8009ECF7B
:102CF00060E090E080E0F3CF80918E058111C0CF3D
:102D000095CF80919005813A09F090CF80919405FC
:102D100090919505892B09F089CF8091E800877FF4
:102D20008093E8008091E80080FFFCCF80916B01E8
:102D30008093F1008091E8008E77B9CF8091900563
:102D4000813209F073CF8091940590919505892B7C
:102D500009F06CCF8091E800877F8093E8000E94A3
:102D6000B3048091920580936B010E94CA155ECFD7
:102D700080919005813209F059CF8091E800877FDA
:102D80008093E8000E94B3048091930580936A05C4
:102D90004DCF80919005813A09F048CF8091E800AD
:102DA000877F8093E8008091E80080FFFCCF8091CE
:102DB0006A05BECF803899F0823809F0C6C180918B
:102DC00094058F70873008F0C0C18093E90080912E
:102DD000EB0085FB882780F91092E90006C08091FE
:102DE0008C0590918D05911182609091E800977FFC
:102DF0009093E8008093F1001092F1008091E80038
:102E00008E779FC1882309F48DC1823009F09DC15E
:102E100080919205811190C1809194058F702FEF60
:102E2000280F263008F091C18093E9002091EB0033
:102E300020FF82C1933031F48091EB008062809357
:102E4000EB007AC19091EB0090619093EB0021E050
:102E500030E001C0220F8A95EAF72093EA00109231
:102E6000EA008091EB008860EACF81116EC1109179
:102E700092051F778091E3008078812B8093E30097
:102E80008091E800877F8093E8000E94B3048091DE
:102E9000E80080FFFCCF8091E30080688093E3002E
:102EA00082E0111183E080938E054FC180588230FB
:102EB00008F04BC120919205309193052C3DE3E041
:102EC0003E07A1F583E08A838AE289834FB7F894AD
:102ED000DE01139620E03EE051E2E32FF0E0509354
:102EE0005700E49120FF03C0E295EF703F5FEF7061
:102EF0008E2F90E0EA30C0F0C7968D939D932F5FA0
:102F0000243159F74FBF8091E800877F8093E80014
:102F10006AE270E0CE0101960E945F058091E800B0
:102F20008B778093E80011C1C096E7CF809194051C
:102F300090919505432F55274330510509F44AC018
:102F400078F54130510509F47AC08BE590E0EEE662
:102F5000F7E04230510509F0F8C02091E800277FE2
:102F60002093E800209196053091970582179307EA
:102F700008F49C0140E02115310509F065C04111BC
:102F800063C08091E80082FDC9CF80918E058823BF
:102F900029F2853019F28091E80083FFF2CFBECF8D
:102FA0004132510509F43CC04232510509F0CDC00F
:102FB0008330910508F0C9C0FC01EE0FFF1FE050FF
:102FC000FD4F0190F081E02D83509D4FDC018C91ED
:102FD00090E01AC0332721303105D1F02115310599
:102FE00061F02230310509F0B0C0EBEDF7E0E4917B
:102FF0008E2F90E0EBEDF7E007C0EFE0F8E0E49112
:103000008E2F90E0EFE0F8E0009709F49EC0A5CF86
:10301000EDEFF7E0E4918E2F90E0EDEFF7E0F4CFE5
:103020008330910508F091C0880F991FFC01EA5F79
:10303000FC4F0190F081E02D89E090E08ECF82E19D
:1030400090E0E9ECF7E089CF80918E05882309F4C0
:1030500065CF853009F462CF8091E80083FD5ECFB3
:103060008091E80082FD8DCF8091E80080FF83CFC2
:103070009091F3008091F2002115310519F088300C
:10308000910550F041E0089709F040E08091E80098
:103090008E778093E8006FCF44914093F100319692
:1030A000215031090196E8CF803809F04EC0809157
:1030B000E800877F8093E80080918F058093F1007E
:1030C0009DCE811142C0109192051230F0F5809191
:1030D000E800877F8093E80010938F050E94B30477
:1030E000112311F084E005C08091E30087FDFACF41
:1030F00081E080938E0542E061EC81E00E94D20481
:1031000042E261EC84E00E94D20442E261EC82E09F
:103110000E94D20442E260EC83E00E94D2048091DB
:103120008E0513C080919205813079F481E093304F
:1031300009F080E080938D051092E9008091E8000D
:10314000877F8093E8000E94B3048091E80083FFAA
:103150000AC08091E800877F8093E8008091EB00AF
:1031600080628093EB00AA96E3E00C94162C1F92E9
:103170000F920FB60F9211242F933F934F935F93AB
:103180006F937F938F939F93AF93BF93CF93DF936F
:10319000EF93FF93D091E900DF708091EC00C82F8E
:1031A000C17080FDC0E81092E9008091F000877F37
:1031B0008093F00078940E94F9151092E9008091B4
:1031C000F00088608093F000CD2BCF70C093E900B1
:1031D000FF91EF91DF91CF91BF91AF919F918F912F
:1031E0007F916F915F914F913F912F910F900FBE03
:1031F0000F901F9018950E94CA152FEF84E39CE052
:10320000215080409040E1F700C0000088E19CE040
:103210000FB6F894A895809360000FBE909360005D
:10322000FFCF882321F00E94E80A0E94111508951B
:10323000882339F090915A05982B90935A050E9453
:1032400011150895882321F00E94EF0A0E9411159C
:103250000895882339F090915B05982B90935B0536
:103260000E9411150895882381F19CEF980F913ADF
:1032700028F40E94F60A0E941115089590E2980F12
:10328000983050F4877091E001C0990F8A95EAF761
:10329000892F0E94EF0AEFCF9BE5980F933028F417
:1032A00090E080E00E942606089598E5980F9B31F3
:1032B00028F490E080E00E940106089593E3980FBF
:1032C000933118F460E00E9487130895FF920F93E2
:1032D0001F93CF93DF93F82E009158051091590555
:1032E0000115110509F449C01092570510925605B1
:1032F0001092530510925405D8011696CD91DC9189
:103300009E013A9521153F4108F4D07ED1E0C111CC
:1033100001C0D0E0D8011996ED91FC911A97309731
:1033200031F01B966D917C9180E00995D823DD23C7
:1033300039F08CEF8C0F813A30F58C2F0E94F60A11
:10334000FF2099F0E0915805F0915905808584FDA2
:103350000CC080915505882341F0808191819C01AA
:10336000215031092F333E47A0F00E9411151092D1
:1033700059051092580510925505C801CDB7DEB712
:10338000E5E00C94142C0E9411158C2F0E94331927
:10339000D7CF0E945806E9CFCF93DF93EC010E946C
:1033A0003319CE010E94010C9E01205E31092830A4
:1033B000310510F0CD2B29F40E942219DF91CF9115
:1033C00008950E941119FACFFC018281813031F4F5
:1033D000FB01808191810E94CC1908958230E9F728
:1033E000FB0182819381F7CFCF93C82F8823C1F14E
:1033F0008CEF8C0F813AB0F580916B01882301F13D
:103400008091D80587FF1CC0EC2FE695E695E695E0
:10341000F0E0E25FFC4F828190E04C2F477021E0AA
:1034200030E002C0220F331F4A95E2F78223932334
:10343000892B79F08C2F0E94F60A0E94111509C081
:10344000E0E1F3E08191C817A9F383E0E631F807E2
:10345000C9F76C2F8EE093E00E94CC050E941115F5
:10346000CF91089580E28C0F883068F4C77021E016
:1034700030E001C0220FCA95EAF780915B05822BEC
:1034800080935B05EBCFEBE5EC0FE33040F4F0E02D
:10349000E456FE4F808190E00E942606E1CFE8E5E9
:1034A000EC0FEB3150F4F0E0EE0FFF1FE156FE4F52
:1034B000808191810E940106D3CF83E38C0F8331F9
:1034C00078F661E08C2F0E948713CACF1F93CF93A9
:1034D000DF93182FD0E0C0E0893311F4C0E5D0E0CD
:1034E000812F0E94F419209739F4812F0E943319FB
:1034F000DF91CF911F9108958FE99FE00197F1F738
:1035000000C000002197EFCF0F931F93CF93DF935D
:10351000C62FD42F022FFC0185818823A9F0609348
:10352000D4050E9400139093D3058093D205C770F1
:1035300081E001C0880FCA95EAF70E942919DF913E
:10354000CF911F910F9108958091D405681332C0D7
:103550008091D2059091D3050E94F112883C91058B
:1035600048F510E21D0FCD17B9F080E28C0F8830BE
:1035700040F4C77081E001C0880FCA95EAF70E9445
:103580002219183048F481E09D2F977001C0880FF0
:103590009A95EAF70E942919802F0E94661A18301E
:1035A00070F6D77081E001C0880FDA95EAF70E94C3
:1035B0002219C5CFC77081E001C0880FCA95EAF70C
:1035C000F6CF0E944B0C80931101833091F0843030
:1035D00031F0823089F489E30E94661A089580915F
:1035E000DC03882331F081FF04C081E00E94B90B25
:1035F000089581E00E94E10B0895CF93DF93EC01E1
:103600000E94010C9E01205E31092830310510F026
:10361000209741F40E9429198C2F0E94F419DF9100
:10362000CF9108950E941819F7CFFB0180819181F5
:103630000E94FD1A0895CF93DF93EC018A818230B6
:1036400041F4FB01828193810E94FD1A8D81826089
:103650008D83DF91CF910895ABE0B0E0E2E3FBE131
:103660000C94EB2B8C01DC0114968C91882309F4CB
:10367000D2C061E0C8010E94200E7C01F801858162
:10368000882309F180915C0590915D050097D9F040
:10369000E816F906C1F0FEE08F9FC0011124FC017D
:1036A000EC5DFE4F208124602083815E9E4FDC0113
:1036B000ED92FC920E949F1510925A0561E0C8019C
:1036C0000E94200E7C01F8015580552009F459C153
:1036D000C70197578038910508F036C1FFE0FE1505
:1036E00008F489C08FEF93E00E94722C811183C08F
:1036F00077E1A72E73E0B72EE11047C0FE013396A5
:1037000086E0DF011D928A95E9F76AE0462E750191
:10371000BFEFEB1AFB0AC5010E94722C89831A8243
:10372000882309F468C0813009F079C06501E2E0BE
:10373000CE0ED11CC7010E94722C8A83882309F403
:103740005AC09FEF980F933070F5F3E0AF0EB11CA5
:10375000C6010E94722C8B83882309F44CC01C8202
:10376000DE0111967D01F7012081222381F22130B3
:1037700009F095C091818281913009F052C0F2E048
:10378000EF0EF11C0E94661A53C0A11424E0B20689
:1037900091F1C5010E94722C811101C0EA943FEFA2
:1037A000A31AB30AA9CF56018430D1F652E0E52E10
:1037B000F12C56012FEFA21AB20AC6010E94722CF8
:1037C000E1E0F0E0EC0FFD1FEE0DFF1D808388238C
:1037D00091F08C3741F4E2E0F0E0EC0FFD1FEE0DCC
:1037E000FF1D1082BDCF3FEFE31AF30A650187E0AA
:1037F000E816F104F1F68091D705877061F0D801E1
:1038000015968C91882339F08091D90582FF03C0E9
:1038100082E00E94C60B2B96E2E10C94072C570124
:103820009FCF923049F422E0E20EF11C0E94F4197D
:10383000EFEFEE1AFE0A97CF933031F432E0E30E49
:10384000F11C0E943319F4CF943021F08FEFE81A65
:10385000F80AEECF92E0E90EF11C30E020E0B7016B
:103860006F5F7F4FD70111964C918053990B8A302F
:10387000910550F021503109D8F2EFE9FFE031977E
:10388000F1F700C00000F6CF429EF001439EF00D1C
:1038900011249C012E0F3F1F842F7B01E0CFE22FCC
:1038A000F0E0EC50FE4F5490822F869586958695D9
:1038B00090E0FC01EC51FE4F64902770712C022EB9
:1038C00002C0759467940A94E2F731E0632277248A
:1038D000FC01EC52FE4F8490912C022E02C0959474
:1038E00087940A94E2F7A1E08A229924FC01EC5320
:1038F000FE4FC490D12C02C0D594C7942A95E2F70C
:10390000B1E0CB22DD246114710419F081EE0E9434
:10391000F4198114910419F086EE0E94F419852D92
:103920000E94661A8114910419F086EE0E943319E0
:103930006114710419F081EE0E943319C114D1048D
:1039400009F476CF8CE21ECFFEE5EF16FCE7FF060A
:10395000A1F02FE5E2162CE7F20649F03DE5E3166B
:103960003CE7F30671F480911601882331F0109240
:10397000160180E00E9466193ECF81E08093160117
:103980003ACF80911601882309F4E0C4470180EE04
:10399000881A91084090790380913103482A8091D8
:1039A0005B05482A98E08916910408F086C09701C3
:1039B0002770332781E090E001C0880F2A95EAF74D
:1039C000552009F477C0482AD8018D919C910E9416
:1039D0002B0B21E030E0390102C0660C771C8A9580
:1039E000E2F7E0915805F0915905FB87EA872090AE
:1039F0002E0330902F0319862985E22FF0E0EE0F79
:103A0000FF1FE050FF4FC080D180C114D10409F4E2
:103A100001C5411005C0D60112968C91811189C053
:103A2000F601838190E086219721892B09F481C0DA
:103A30008085982F977009F487E0F8E08F1691043D
:103A400008F055C0552009F44EC086958170882332
:103A500009F46FC0D601AD90BC90EA14FB0419F4D0
:103A6000552009F466C0EA85FB85CE16DF0609F409
:103A700060C0D6011D96ED91FC91309721F08081B8
:103A8000882309F456C0642DC6010E94A906882324
:103A900009F44FC0EA14FB0409F031C5E114F10444
:103AA00009F432C5511032C5A214B30409F041C063
:103AB000512C2CC58095482287CF552009F493C4FA
:103AC000F0922F03E0922E030E94C00560934F05F1
:103AD00070935005809351059093520510925705AD
:103AE0001092560571CF82FB882780F9B0CF552000
:103AF00001F18170ACCF0E94331926C50497813A39
:103B0000910558F46A2D8EE093E00E94CC05552073
:103B100009F41CC40E9411156ECE0E9411158FE38A
:103B20009CE90197F1F700C000008A2D0E94F4196A
:103B3000EECF99859F5F99875FCFFC01208131810E
:103B4000E216F30609F0FBC35110FBC310925505B2
:103B500080E00E946619FAC39E2D8F2D3FC4F901A3
:103B6000858181FF6BC4C9010E94851567C426E267
:103B700041EE61EEC8010E94841A3DCE27E245EE77
:103B800065EEF8CF26E241EE60EEF4CF27E245EE97
:103B900064EEF0CF26E241EE62EEECCF27E245EE96
:103BA00066EEE8CF28E241E0EBCF8091D805816056
:103BB0008093D80595C08091D90588608093D905F8
:103BC0008FC08091D8058260F3CF8091D805846042
:103BD000EFCF8091D8058860EBCF8091D9058160C7
:103BE000EDCF8091D9058260E9CF8091D8058061C1
:103BF000DFCF8091D8058062DBCF8091D8058064CB
:103C0000D7CF0E94CA158091D8058068D1CF809106
:103C1000D8058C60CDCF8091D9058360CFCF8091BE
:103C2000D8058E7FC5CF8091D905877FC7CF80917A
:103C3000D8058D7FBDCF8091D8058B7FB9CF80917E
:103C4000D805877FB5CF8091D9058E7FB7CF80917A
:103C5000D9058D7FB3CF8091D8058F7EA9CF809174
:103C6000D8058F7DA5CF8091D8058F7BA1CF0E94ED
:103C7000CA158091D8058F779BCF8091D805837F17
:103C800097CF8091D9058C7F99CF8091D80582FB01
:103C9000992790F921E0922790FB82F990FB83F914
:103CA00087CF8091D905982F909591708E7F892B21
:103CB00090FB81F983CF9091D805892F8F7B96FF58
:103CC000806476CF0E94CA159091D805892F97FB02
:103CD00087F980586DCF61E08EE090E00E94902CD3
:103CE0006091D8057091D90584E090E00E94AE2CD7
:103CF0000E94CA1580CD60E0EFCF9091D805892F42
:103D00008F7E94FF806154CF9091D805892F8E7F4C
:103D100090FF81604DCF9091D905892F877F93FFC8
:103D200088604CCFB6E1EB16BCE7FB0609F0B1C3E7
:103D300080915B05282F21718A7A211180E09923D7
:103D400071F091E0811101C090E09093300369E23D
:103D5000811165E38EE093E00E94CC05DBCE80917B
:103D60003003811104C089E20E94F60AD3CE85E3B4
:103D7000FBCF8091E30391E089278093E3031092C6
:103D80006A018091E20381608093E20334CD48E5CB
:103D900057E063E677E00E94C9062DCD43E657E081
:103DA00068E577E0F8CF43E357E06EE377E0F3CFE1
:103DB0004EE357E063E377E0EECF47E157E065E29B
:103DC00077E0E9CF45E257E067E177E0E4CF4BEFFA
:103DD00056E069E077E0DFCF49E057E06BEF76E04F
:103DE000DACF4FEC56E06DED76E0D5CF4DED56E0F5
:103DF0006FEC76E0D0CF61E081E00E944907FBCC18
:103E0000E7E7EE16ECE7FE0609F460C0F8E7EF1608
:103E1000FCE7FF0609F45EC0F8018581E080F180CF
:103E2000882309F48BC0C7010E94C10DD82E682FCA
:103E3000C7010E945F0BB7018D2D0E94B30D0E9438
:103E4000BF097C01882ED8011596AC90159716965F
:103E50009C9092943FE093228091D7058770F1F077
:103E6000CA2CAA20E1F08F2D807F803451F080E2AF
:103E70008E0D883098F0911004C08F2D807E803296
:103E800069F08091D90582FF09C082E00E94C60BCB
:103E90008091D7058770CC24C3948111C12CBF2C8D
:103EA000B2942FE0B222BBE0BB1508F4ACC0EB2DFE
:103EB000F0E0E054F34D0C94362C81E00E94E10BCD
:103EC00043E062E081E00E94990B95CC81E00E9482
:103ED000B90BF6CF82E0FBCFABE5EA16ACE7FA060A
:103EE00059F1BCE5EB16BCE7FB06E1F0EAE5EE169E
:103EF000ECE7FE0609F090CF81E01BC00E94CA15D6
:103F0000FFEF24E33CE0F15020403040E1F700C0F7
:103F100000000E94C90C6FEF7FEF90E080E00E94EC
:103F2000AE2CD7C28091D90582FB882780F991E019
:103F300089270E94601170CF80E0FBCFC7010E94EB
:103F40002B0BD82E78CFEF2DEF70DE2E8F2D807FAC
:103F500019F0D29490EFD922AA20B9F0DD2069F0AF
:103F600080E28E0D883010F0811009C080915B05D1
:103F7000D82AD0925B050E9411158E2D42C08091E7
:103F80005A05D82AD0925A05F6CF8E2D0E943319A1
:103F9000DD20C9F180E28E0D883010F0811004C060
:103FA0008D2D0E94EF0A03C08D2D0E94E80A0E9409
:103FB000111529C0FF2DFF70DF2E8F2D807F8032DD
:103FC00019F0D29480EFD822882059F021E082168F
:103FD00009F483C0AA2009F48FC0992009F441C0D4
:103FE000CCCF8091D90582FD38C0AA2081F1DD2097
:103FF00039F080915B05D82AD0925B050E9411159B
:1040000080E00E94F419EB2DE850FF0B349710F478
:104010000E944B06CC20B1F08091D70580FD12C0E4
:10402000D80115961C928695869586950E94E10B7F
:10403000C8010E942C1B8091D70586958695869590
:104040000E94B90B60E0C8010E94200EE4CB80E022
:104050000E943319DD20B9F2A3CFAA20C9F0911034
:1040600004C08D2D0E942919CECF31E09312CBCF01
:10407000F09079038D2D8F21D81629F20E9400131C
:104080009093780380937703DF28D0927903BBCF96
:104090009110B9CF8D2D0E942219909179038D2D09
:1040A000892369F08D2D8095892380937903882356
:1040B00089F00E9400139093780380937703809196
:1040C00031039D2D982309F49ECFD094D822D0920D
:1040D000310399CF90E080E0EECFAA2029F082E072
:1040E000891508F490CFBDCF91E0991508F48BCFD6
:1040F0008D2D0E94221987CF9920D1F3A9E38A122E
:1041000009C0BFEFE7EEF3E0B150E040F040E1F767
:1041100000C000008E2D0E94331975CF8F2D86951B
:104120008695837061F0813009F06DCFC70193707F
:10413000A11002C080E090E00E94010664CFC70198
:104140009370A11002C080E090E00E9426065BCF31
:104150006A2D8E2D0E94871356CF8F2D837091F577
:10416000A11051CF4E2D429546954770440F440FF4
:104170008E2D8F70042E01C0880F0A94EAF72E2D21
:104180002071E4FE07C02FE030E001C0220F4A9505
:10419000EAF720953F2D369536953370323069F029
:1041A00050F440917A03313029F0822B84230E940D
:1041B000ED0B29CF842B822BFACF282B80917A0309
:1041C0008227F5CF8695AA2011F08F2D8170882344
:1041D00009F419CF4E2D429546954770440F440F70
:1041E0008E2D8F70042E01C0880F0A94EAF72E2DB1
:1041F0002071E4FE07C02FE030E001C0220F4A9595
:10420000EAF720953F2D369536953370323069F0B8
:1042100050F44091DC03313029F0822B84230E943A
:10422000960BF1CE842B822BFACF282B8091DC03C6
:104230008227F5CF2F2D2F70F22EAA2029F0822F62
:104240000E94E10B8E2D0ECF8E2D0E9422198F2DF4
:104250000E94B90BD8CE8E2D32EF8316B1F13815EE
:1042600070F090EF8916D1F0A1EF8A1691F0AA2094
:1042700009F455C0911081CE8F2D8F712AC0B3EFF4
:104280008B1651F1E4EF8E12F2CF8091D90582FDA9
:104290002FC08F2D8F71AA20D9F21BC0AA2081F0C8
:1042A000F1E0F91508F4AFCE2F2D2F7181E090E0E9
:1042B00001C0880F2A95EAF79091DC038927AFCFD8
:1042C00022E0291508F49FCEEFCF8F2D8F71A1101A
:1042D000BFCF0E94E10B97CE80E0AA2009F49FCFC8
:1042E0009F2D9F7181E001C0880F9A95EAF797CFC3
:1042F000AA2051F03F2D3F71F32E832F0E94E10B36
:104300008F2D0E940C137FCE81E00E94C60B81E0AE
:10431000891508F078CE82E00E94C60B74CE9920F1
:1043200059F0893309F0F6CE9FEFA7EEB3E0915034
:10433000A040B040E1F7ECCE8F2D8F7189CF552092
:1043400029F0DC0118968C9185FF02CCC7019755A6
:104350008F3F910511F008F092C05701BB24BEE0D9
:10436000EB9EF00111249F01215E3E4F6901D801AF
:1043700015968C91EC5DFE4F908180FB90F99083B7
:10438000882309F4ECCB0E9400139093960380934A
:104390009503F60182818F5F828380915A05909107
:1043A0005B05892B83838091790384830680F78161
:1043B000E02D309731F0D6011C966D917C91C601AD
:1043C00009958EE08A9DF0018B9DF00D1124E15E30
:1043D000FE4F858181FFC0CB90E080E090935C052B
:1043E00080935D052BC080912E0390912F03E816DA
:1043F000F90681F410922F0310922E0310924F05AC
:1044000010925005109251051092520510925705C6
:10441000109256058091580590915905009709F41E
:1044200095CFA8E08A16910408F087CB642D0E94EE
:10443000A906811103C081E00E946619D801159672
:104440009C91992309F447C01092D40597013057E5
:104450002332310508F066CC84E090E00E947A2C8B
:104460009093D9058093D805F701E150F047E232E7
:10447000F10508F09ACBE453F34D0C94362CF70178
:10448000E851FC47E730F105C8F6E251F34D0C94D2
:10449000362CF7E7EF16FCE7FF0609F40ECD82E0B5
:1044A00028E7E2162CE7F20609F408CD23E0E2162D
:1044B0002CE7F20609F42FCD08F00ECDE1148CE7BD
:1044C000F80609F41BCD91E0E9169CE7F90609F01E
:1044D000A3CC0E94FB1836E1E3163CE7F30609F48F
:1044E00027CC80915B058272F701E052F847E531F5
:1044F000F10508F085CCEB50F34D0C94362CA1144B
:10450000B10409F0D1CA512CB12CA12C80E00E9439
:104510006619D0925905C092580581E080935505DF
:10452000F60185818093530551100EC0AB2861F0D0
:10453000F601808191819C0124503109213A310595
:1045400008F0D9CA0E94F60AD6011696AD90BC9022
:10455000C5019A9581159F4110F4E0EEBE227724A3
:104560007394C50101978F339E4708F0712CD601D3
:104570001996ED91FC911A97309731F01B966D9139
:104580007C9181E009957822772079F0F601868187
:1045900097810E94010C80935405C501F8E08F16A5
:1045A000910408F0ABCA0E9458060E941115AFCAC8
:1045B000CF93DF9380915603807F09F04DC08091A7
:1045C0005503882309F448C0E091D105509198051E
:1045D000C0915103D09150036091520370915303E5
:1045E00047E05E17C9F18E2F90E0E49FF00111249F
:1045F000E756FA4F2481222391F1489FF001499F09
:10460000F00D1124DF01A756BA4F11962C91119786
:104610002C1325C02C912D1322C015962C91159783
:1046200021111DC012962D913C91261B370B283C61
:104630003105A8F4809156038F70806180935603F2
:10464000E156FA4F80818F708061808380E593E02E
:104650000E942C1B0E94210BDF91CF910895FC0139
:104660003196E770BECFA4E1B0E0E9E3F3E20C9449
:10467000F12B8C0186E0F801DE011F9601900D926E
:104680008A95E1F7F8018481E58090E5A92E93E011
:10469000B92E90915403911128C0882319F1EE206E
:1046A000F1F0C8010E94FD0DF82E8823C1F087E0CB
:1046B000F801D50101900D928A95E1F7809154039C
:1046C000813031F480915003909151030E94F00D9C
:1046D0000E94D8228F2D6496ECE00C940D2CC8011A
:1046E0000E942C1BFF24F394F5CFD080C1808280E0
:1046F0009380F09055032091520330915303A4010D
:10470000421B530BFF2009F4D9C0483C510508F067
:1047100092C08823F9F29091510380915603282F7B
:10472000207F09F056C0C91214C090915003D912CD
:1047300010C0E11048C08F7080618093560380E5FF
:1047400093E00E942C1B80915603F8018683F12C84
:10475000C1CFE11038C06C2D8D2D0E9444046C2D0A
:104760008D2D0E944404E82E8111F1CFDF86C88A86
:104770008F8598890E94F00D292F22952F70243063
:1047800058F49F70223088F0992399F0F8019681AF
:10479000907F79F4FE2C9ECF2A5F2F70223068F034
:1047A000C8010E942C1BEF2CF5CF992311F0882310
:1047B00089F3805E883070F3F3CF803F58F3815FD8
:1047C000833070F7E7CF8091560381608093560362
:1047D000BECFC91207C090915003D91203C0EE207A
:1047E00009F48DC0C8010E94FD0D882309F477CF1C
:1047F000EE2009F474CF80915603803288F0209126
:10480000500330915103398728879B868A8690917F
:1048100054039C871D868E87CE0108960E942C1B10
:1048200087E0F801A0E5B3E001900D928A95E1F7E9
:104830000E94D82257CF90915603292F207F51F400
:1048400080E593E00E942C1B87E0F50111928A9588
:10485000E9F77DCF882309F43DCF809151038C1176
:1048600010C080915003D8120CC0E1100AC096838A
:10487000C8010E942C1B87E0F50111928A95E9F787
:1048800029CFC8010E94FD0D882309F428CFEE200E
:1048900009F425CF80915603803210F22091500305
:1048A000309151033A8329839C828B8290915403E7
:1048B0009D831E828F83CE010196B0CF483C510567
:1048C000D0F6882309F40ECFFE2CEE2009F407CF92
:1048D000809151038C1120C080915003D8121CC0CC
:1048E0008091560380FD0FC0982F907F61F08683E2
:1048F000903F31F0982F907F905F8F70892B868347
:10490000C8010E942C1B87E0F801A0E5B3E00190EC
:104910000D928A95E1F7DECEC8010E94FD0D81114E
:104920007FCF80915603816080935603C8010E9417
:104930002C1BD0CEABE1B0E0E0EAF4E20C94FA2B11
:104940004E8B5F8B688F798F8A8F9B8F911110921E
:104950005A051D8A86E0FE017696DE011F960190BB
:104960000D928A95E1F78091D90582FF1CC00E94C3
:1049700000132091D5053091D605821B930B8C3DF9
:10498000954020F08091D70582FF7AC00E940013E5
:104990002091770330917803821B930B8C3D9540D7
:1049A00010F00E94DD0A8B89882329F061E0CE0196
:1049B0000F960E94200E87E0FE013F96DE011896BA
:1049C00001900D928A95E1F7CE0108960E9433235B
:1049D00081110CC087E0FE013896DE01119601902E
:1049E0000D928A95E1F78C8581110BC017E08091BB
:1049F000D10590919805891331C06B96E3E00C9432
:104A0000162C2091980530E0C901019687709927EE
:104A10004091D1054817190699F097E0929FD0016F
:104A2000939FB00D1124A756BA4FFE013196019005
:104A30000D929A95E1F7809398050E94210BD6CFAD
:104A40000E94CA15109298051092D10587E0E0E502
:104A5000F3E0DF011D928A95E9F7C8CF819FC0017D
:104A6000112487569A4F0E943323882331F2809174
:104A7000D10590E00196877099278093D105B7CF33
:104A800082E00E94C60B82CFA6E0B0E0EAE4F5E245
:104A90000C94F92B0E9400138C0180917B03909160
:104AA0007C038017910781F019821A820E940013FB
:104AB000682F49815A81792F80E090E00E949A24E2
:104AC00010937C0300937B032696E4E00C94152C52
:104AD0001F921FB61F9211248F939F93AF93BF9382
:104AE00080916405811113C08091650590916605E0
:104AF000A0916705B09168054196A11DB11D8093F5
:104B0000650590936605A0936705B0936805BF910E
:104B1000AF919F918F911F901FBE1F901895CDB799
:104B2000DEB7AD970FB6F894DEBF0FBECDBF85B729
:104B3000806885BF85B7806885BF84B7877F84BF5D
:104B40000FB6F894A895809160008861809360000A
:104B5000109260000FBE80E890E00FB6F89480934A
:104B60006100909361000FBE85EB98E090930D0378
:104B700080930C030E9463040E9404058091E2006C
:104B800084608093E200789480918E058823A1F060
:104B90001091E9001F709091EC00892F817090FDB9
:104BA00080E8182B1092E9008091E80083FD0E94B4
:104BB000F9151F701093E90082E084BD93E095BD64
:104BC0009AEF97BD80936E000E944B0E811102C038
:104BD0000E94740D05ED11E0D8018D918D018F3F7C
:104BE00011F00E94B708B1E00A3D1B07A9F70AEDD2
:104BF00011E099EEE92E91E0F92EF80181918F01F3
:104C00008F3F11F00E94B708E016F106B1F78AE075
:104C1000E8E9F3E0DF01282F1D922A95E9F7E0E8A3
:104C2000F3E0DF011D928A95E9F70E947711811167
:104C300002C00E94831182E090E00E94722C809357
:104C40008A0384E090E00E947A2C9093D9058093A7
:104C5000D8050E945F14EFEBFDE53197F1F700C036
:104C600000000E945F148091980380FF08C06FEFDE
:104C70007FEF90E080E00E94AE2C0E94C90C83E0A0
:104C800090E00E94722C0E94ED0B0E94970F1092F0
:104C9000AF038FEF9FEF9093C9038093C803909366
:104CA000CB038093CA039093CD038093CC0390935E
:104CB000CF038093CE039093D1038093D00390933E
:104CC000D3038093D2039093D5038093D40390931E
:104CD000D7038093D6030E947711811104C00E94EC
:104CE00083110E944C1181E08093E20348E050E080
:104CF00068E170E083EE93E00E94622C1092E20380
:104D00008091E3038C7F11F40E944C1121E040E07C
:104D100060E090E080E00E94EB0687E191E09093F4
:104D20006105809360057724739480918E058530AA
:104D300089F400E4F02E83E0E82E00E112E1809196
:104D40008E05853009F4C9C00E94CA150E944B0621
:104D50001092E1030E945F144BE853E058A74FA361
:104D600088E993E09BA78AA7DC01FA0121913191A0
:104D70008D919D9143E0E539F40709F4FFC02817B0
:104D80003907A1F319EE812E11E0912E612CAAA50D
:104D9000BBA5ED90FD90BBA7AAA7EFA1F8A58191B7
:104DA0009191F8A7EFA38E159F0509F48CC09C0183
:104DB0002E253F253DA72CA71401512CCC24C394AC
:104DC000D12C8CA59DA58C219D21892B09F46DC02A
:104DD00087010C211D2159A26AA20E9400139CA3E5
:104DE0008BA331E03DA391E00115110509F490E09A
:104DF0009EA349A15AA16BA17CA18DA10E949A24D6
:104E0000012B29F0D1018C918F3F09F020C2412C58
:104E1000042D10E08091AF03800F912F911D099711
:104E20006CF1E8E0AE2EB12CA01AB10AB8016055C1
:104E30007C4FA50180EB93E00E94592CB801685487
:104E40007C4FA50188EB93E00E94592CA501440FEB
:104E5000551FB801660F771F68537C4F88EC93E0AD
:104E60000E94592CB80160547C4FA50180EC93E05E
:104E70000E94592C88E084198093AF038091AF037E
:104E800090E0E9A5AE2FB0E09D01220F331F2C5C0E
:104E90003D4FAA0FBB1FBD016B5C7D4F41E0480F2A
:104EA000941508F4D8C18093AF035394CC0CDD1C47
:104EB000EFEF2E1A3E0AFFE05F1283CFEFA1F8A5B5
:104EC0003297F182E08263942FE0820E911C35E0EC
:104ED00063125DCF0E94C00557C080918E0584305B
:104EE00009F439C00E9444108091E10381110DC082
:104EF0000E946E07109266018091E3038370809395
:104F000065010E94800FE0926A01F1E0F093E103F5
:104F10001092640528E130E00FB6F894A89520932C
:104F200060000FBEF092600083B7817F846083BF12
:104F300083B7816083BF7894889583B78E7F83BF62
:104F40000FB6F894A8958091600088618093600006
:104F5000109260000FBE80918D05882309F4EFCE7A
:104F60000E945F14E8E9F3E081919191892B09F0A7
:104F700034C333E0E23AF307B9F7E1CE2817390733
:104F800009F000CF0E944425809156059091570565
:104F9000892B09F43EC040914B0550914C0560911E
:104FA0004D0570914E052FB7F8948091650590914D
:104FB0006605A0916705B09168052FBF841B950B0E
:104FC000A60BB70B409147055091480560914905E4
:104FD00070914A0584179507A607B707D0F080910E
:104FE0005605909157050E94FD1A10925705109290
:104FF000560510924B0510924C0510924D051092DB
:105000004E051092470510924805109249051092DE
:105010004A0500915C0510915D0501151105B9F077
:1050200080919503909196030E94F112893C91051D
:1050300070F04EE0049FC0011124FC01EC5DFE4FB6
:10504000208122FD04C0815E9E4F0E949F150E9418
:10505000441086E0E9EAF3E0DE01119601900D923A
:105060008A95E1F71092AB031092AC031092AD0356
:105070001092AE038B819C81892B09F447C08091EB
:10508000A7039091A8030E94F1129C019091A203A2
:10509000992309F4C6C225313105C0F19F3F19F0AB
:1050A0009F5F9093A2031B81112359F00E948708F0
:1050B0009FEF11160CF491E0899F802D11248093AD
:1050C000AB031C81112359F00E9487089FEF111632
:1050D0000CF491E0899F802D11248093AC03809182
:1050E000AB03882399F01091AC03112379F00E944F
:1050F000A708882309F4C5C08093AB03812F0E94C1
:10510000A708882309F4C0C08093AC038D819E81D9
:10511000892B09F447C08091A5039091A6030E94B2
:10512000F1129C019091A303992309F475C22135D2
:105130003105C0F19F3F19F09F5F9093A3031D813C
:10514000112359F00E9465089FEF11160CF491E0AD
:10515000899F802D11248093AD031E81112359F066
:105160000E9465089FEF11160CF491E0899F802D35
:1051700011248093AE038091AD03882399F01091A0
:10518000AE03112379F00E94A708882309F47FC099
:105190008093AD03812F0E94A708882309F47AC069
:1051A0008093AE0346E050E0BE016F5F7F4F89EA17
:1051B00093E00E944C2C892B61F48091AB03909179
:1051C000AC03892B9091AD03892B9091AE03892B71
:1051D00011F00E94601386E0FE013196A9EAB3E067
:1051E00001900D928A95E1F70E944B0690919703EA
:1051F000891721F0809397030E94C00580918E0546
:10520000843009F092CD83E08093E9008091E8003A
:1052100082FF8BCD8091E80090E085FF05C00E9461
:1052200082048823D1F191E08091E8008B7780930C
:10523000E800992309F479CD8981EFEFE80FE33194
:1052400008F052C0F0E0E65FF24D0C94362C89A7CE
:1052500044244394DDCD90E0FC01E155FC4FD9019D
:105260005C915183DB015C915187B9A5B18B880FAB
:10527000991FFC01E155FC4F128E118E91E0842F95
:105280000DCE7092AB033ACF7092AC033FCF7092C9
:10529000AD0380CF7092AE0385CF00E210E0CE0167
:1052A00001967C018091E80085FD0AC08091E800AC
:1052B0008B778093E8000E948204882399F3B3CF10
:1052C0008091F100D7018D937D010150110951F7B3
:1052D000AACF1A828CE08B831BC08A81823009F4AA
:1052E00092C128F4813061F08FEF898311C083303F
:1052F000C1F08430C9F71B821C821D821E8208C047
:105300000E94C0050E943C2C6B837C838D839E830E
:1053100040E250E0BE016F5F7F4F82E00E945C0C74
:1053200004CD2B81822F90E0FE013196225F8530E3
:10533000910570F7DC01AA0FBB1FA856BC4F3C912A
:1053400011964C9143833483019632962813EFCF04
:10535000DFCF8A81823059F0853031F68091E303C6
:10536000B1E08B278093E30310926A01D1CF6B8168
:105370007C818D819E810E943C2C88E290E00E947D
:10538000902CC6CF4C816B818A810E94840D982716
:10539000892798279E838D83BBCF2D813E8132271D
:1053A000232732274C816B818A810E94FD0CB0CF6C
:1053B0000E94230DADCF9A81933009F095CF8830AC
:1053C00009F441C0893009F46BC08B818230E9F067
:1053D00088F4813009F09CCF4C812FEF429F412D02
:1053E00011248091E40320E06091E50390E00E94A5
:1053F000EB068ECF833019F1843009F089CF8C8190
:1054000020E04091E6036D81F1CF8C819091E30320
:10541000292F2370811107C011F010926A019C7F1F
:105420009093E30375CF211102C010926A019C7F13
:1054300091609093E30360E00E94490769CF8C81FB
:105440008093E70365CF8B818230E1F078F481307F
:1054500009F05ECF8091E603EFEF8E9FC00111242B
:105460006FEF70E00E94D72B6C8352CF8330A9F08E
:10547000843009F04DCF8091E4038C838091E50363
:105480008D8346CF8091E303982F93708695869500
:10549000911101C080E08C833BCF8091E703FBCF6B
:1054A0000E94391035CF80E18A8332CF1A8289EE8B
:1054B00012CF0A811B811027012710279E012F5F21
:1054C0003F4F6901EC80A9014E0D511D7A01C801C1
:1054D000895E9C4FEC14FD0409F41ACF093E1105B6
:1054E00058F40E94722CD60114968C930F5F1F4FB4
:1054F000FFEFCF1ADF0AEBCFF6011482F7CF0A8154
:105500001B811027012710279E012F5F3F4F690144
:10551000EC80E00EF12EF11CC801895E9C4FE01674
:10552000F10609F4F5CE093E110528F4D6011496CA
:105530006C910E94902CBFEFCB1ADB0A0F5F1F4FBC
:10554000EBCF0E94ED0CE4CE85E0AECF0A811B814B
:10555000102701271027FE0131966F01EC809F0173
:105560002E0D311D7901C8018996CE14DF0409F48E
:10557000CFCE0E3E32E0130758F40E94722CD601B3
:1055800014968C930F5F1F4FFFEFCF1ADF0AEBCFFC
:10559000F6011482F7CF0A811B81102701271027FB
:1055A0009E012F5F3F4F6901EC80E00EF12EF11C50
:1055B000C80189960E151F0509F4AACE0E3E32E0E9
:1055C000130728F4D60114966C910E94902CBFEF1B
:1055D000CB1ADB0A0F5F1F4FEBCF09BD19BD09B412
:1055E00000FEFDCF8091D8008F7D8093D800809100
:1055F000E00082608093E0008091E00081FDFCCFBC
:105600000E94CA159CCB88E290E00E94722C1B82FB
:105610001C821D828E837CCE2B30310508F08CCD10
:10562000C1CD2B30310508F03BCD70CD1092B900C3
:105630008CE08093B8000895B0E0A0E0E2E2FBE2E5
:105640000C94F22BB82EEB010E9400136C01EE2497
:10565000E394F12CC431D10560F025E0E22EF12C69
:10566000CF3FDC0731F0CE0164E170E00E94D72B20
:105670007B0184EAA82E94E8992E1092BC00A09297
:10568000BC000E9400138C018091BC0087FF0DC0FC
:105690008091B900887F8830F9F08091B900887FC7
:1056A0008031D1F00FEF1FEF08C0C8010E94F11246
:1056B000E816F90648F70EEF1FEFCF3FDC07E9F2D7
:1056C000C6010E94F112C817D907B8F6C801CDB7B4
:1056D000DEB7EBE00C940E2CB092BB009092BC00B5
:1056E0000E9400138C018091BC0087FF0AC080914A
:1056F000B900887F883111F08034A1F610E000E015
:10570000E5CFC8010E94F112E816F90660F7D3CF81
:105710000F931F93CF93DF93EB018093BB0084E83B
:105720008093BC000E9400138C018091BC0087FF15
:1057300011C02091B900287F81E090E0283211F457
:1057400090E080E0919581959109DF91CF911F9133
:105750000F910895CF3FDC0741F3C8010E94F11279
:10576000C817D90710F78EEF9FEFEFCFB0E0A0E09A
:10577000ECEBFBE20C94F52B6B018A017901B9018A
:105780000E941C2BE6010C0D1D1DC017D10711F046
:1057900097FF08C024E92093BC00CDB7DEB7E8E04E
:1057A0000C94112CB70189910E94882BEECFAA1B73
:1057B000BB1B51E107C0AA1FBB1FA617B70710F0FC
:1057C000A61BB70B881F991F5A95A9F7809590952E
:1057D000BC01CD0108952F923F924F925F926F923C
:1057E0007F928F929F92AF92BF92CF92DF92EF9271
:1057F000FF920F931F93CF93DF93CDB7DEB7CA1BF2
:10580000DB0B0FB6F894DEBF0FBECDBF09942A881C
:10581000398848885F846E847D848C849B84AA84C4
:10582000B984C884DF80EE80FD800C811B81AA8151
:10583000B981CE0FD11D0FB6F894DEBF0FBECDBF1C
:10584000ED01089597FB072E16F4009407D077FD1D
:1058500009D00E94D72B07FC05D03EF49095819586
:105860009F4F0895709561957F4F0895EE0FFF1F2C
:105870000590F491E02D09946927962769277827E8
:10588000872778270895FB01DC0102C005900D925F
:1058900041505040D8F70895FB01DC0104C08D91C0
:1058A0000190801921F441505040C8F7881B990B92
:1058B0000895FB01DC0102C001900D92415050405F
:1058C000D8F70895DC01CB01FC01F999FECF06C0A1
:1058D000F2BDE1BDF89A319600B40D9241505040AE
:1058E000B8F70895F999FECF92BD81BDF89A99272E
:1058F00080B50895A8E1B0E042E050E00C94642C3B
:10590000DC01A40FB51F4150504048F0CB01840F7B
:10591000951F2E910E94912C41505040D0F7089530
:10592000262FF999FECF92BD81BDF89A019700B458
:10593000021639F01FBA20BD0FB6F894FA9AF99AF8
:105940000FBE08950396272F0E94912C0E94902C41
:10595000252F0E94912C242F0C94912C0196272FF7
:105960000E94912C0C94902CF894FFCFDA16021719
:10597000A5180217A51835175617A5185418611839
:10598000A31FA31FDA1FDA1F8E20A82003200320E5
:10599000AD201A212B212B210F1E841E171EE11D65
:1059A000E51D1B1EE91D1F1E2B1EF51D7D1EF91D6D
:1059B0002F1EFD1D331E5B1E011E371E621E071E9D
:1059C0003D1E451EED1D231EF11D271E0B1E411EF3
:1059D000511E6B1E7B1EDB1D131E8B1EC21DC61DA2
:1059E000B71DBE1DCA1DCE1DD21DB91EC71ECE1E9F
:1059F000D31ED81EDD1EE21EE71EEC1EF11EF61E93
:105A0000FB1EFB1BFB1BFB1BFB1BFB1BFB1BFB1BE3
:105A1000FB1BFB1B69296D29A929C229CD29D8297E
:105A2000DB29DB29DB2974297429532A562A592AB0
:0A5A30007F2AA12AA42AA62ACB2A65
:105A3A008D017E016F0100004E004D004B004A00AF
:105A4A0001000100010001BD05A50C9E0C970C0088
:105A5A0000000000000000E11A410C0000000000F4
:105A6A0000000000002313320C00000000000000B8
:105A7A000000004213390C00000000000000001B67
:105A8A001B151BE4190C010000000000001B1B156C
:105A9A001BE4190801FFFF00FF00030100FFFF2DAF
:105AAA000010FF00104502070000000000002E0051
:105ABA0010FF00104504070000000000002A002221
:105ACA00FF00224C0007000000000000818283E2F0
