:100000000C940C040C9444040C9444040C94440488
:100010000C9444040C9444040C9444040C94440440
:100020000C9444040C9444040C9409290C94F12974
:100030000C94D8110C9444040C9444040C9444047F
:100040000C9444040C9444040C9444040C94440410
:100050000C9444040C94E5280C9444040C9444043B
:100060000C9444040C9444040C9444040C944404F0
:100070000C9444040C9444040C9444040C944404E0
:100080000C9444040C9444040C9444040C944404D0
:100090000C9444040C9444040C9444040C944404C0
:1000A0000C9444040C9444040C9444040501090287
:1000B000A10185020901A1000509190129081500FE
:1000C0002501950875018102050109300931158165
:1000D000257F95027508810609381581257F9501D0
:1000E00075088106050C0A38021581257F95017572
:1000F000088106C0C005010980A101850319012AF4
:10010000B700150126B700950175108100C0050CD8
:100110000901A101850419012AA002150126A002E6
:10012000950175108100C005010906A1018506052C
:100130000719E029E71500250195087501810205D9
:1001400007190029EF1500250195F07501810205B9
:10015000081901290595057501910295017503910D
:1001600001C00660FF0961A1010962150026FF00B8
:100170009520750881020963150026FF00952075FA
:10018000089102C005010906A101050719E029E748
:1001900015002501950875018102950175088101F9
:1001A0000507190029FF150026FF0095067508812F
:1001B000000508190129051500250195057501910E
:1001C00002950175039101C009025B00030100A0C3
:1001D000FA090400000103010100092111010001D5
:1001E00022440007058103080001090401000203FD
:1001F00000000009211101000122220007058203ED
:100200002000010705030320000109040200010387
:1002100000000009211101000122B6000705840336
:100220002000011201000200000008424B251202CA
:10023000000102000120036B0062006400360037F9
:10024000006D006B006900690072006700620020A9
:100250000076003200000010034B004200440066AC
:100260000061006E007300000004030904167C1E88
:10027000001F00200021002200230024002500266A
:100280000027002D002E002A004C002B0014001A1D
:10029000000800150017001C0018000C00120013C5
:1002A000002F0030003100035700570400160007EC
:1002B0000009000A000B000D000E000F003300348F
:1002C00000000028000457E1001D001B0006001973
:1002D00000050011001000360037003800E500006E
:1002E0000052000157E000E300E200000000002C93
:1002F000000000000002570000E400500000005120
:10030000004F0035003A003B003C003D003E003FFE
:10031000004000410042004300440045004C0049B9
:100320000001004A0052004D004B00010001000195
:100330000001000100010001000100010046000170
:1003400000500051004F004E0001005009500A4F6C
:100350000A4F09010001000000010001000100B680
:10036000002A00B70001000100110A290301000161
:10037000000100010000000100A8000100010001CF
:1003800000000000004C00000000000100000065BB
:1003900021010000000100010035001E001F0020A7
:1003A0000001000100010001000100010001000145
:1003B0000001004C02A60001002100220023004B96
:1003C0000001000100010001000100010001000125
:1003D000000100010001002400250026004E00015C
:1003E000005009500A4F0A4F0901000100000001A6
:1003F000000100010027000100B20001000100011E
:10040000002903010001000100010000002A000191
:100410000001000B7001000000000001000000005E
:1004200000010000000100B60000003E00B70020FF
:10043000782B78010001001370AA00A900AE00A873
:100440000001000100010001000100257801000108
:100450000001000100010001000100010001000194
:1004600000010001000100007C267801000100016C
:100470000001000100010001000100010001000174
:100480000001000000037C2378010001000100014D
:100490000001000100010010030100010001000142
:1004A0007C00002178247801000100010000000098
:1004B00000010000000000005200000452287800F3
:1004C0000022782778167C1E001F002000210022C1
:1004D00000230024002500260027002D002E002ADE
:1004E00000A8002B0014001A000800150017001CBB
:1004F0000018000C00120013002F003000310068BB
:1005000000390004001600070009000A000B000D66
:10051000000E000F0033003400000028006900E1E5
:10052000001D001B00060019000500110010003618
:100530000037003800E50000005200E300E0000052
:1005400000E200000000002C00000000000052004B
:1005500000E4005000000051004F00007767570092
:10056000876656008676550085756500847464003C
:100570008373630082726200817161008070600029
:10058000182838000829390009193A000A1A2A00DF
:100590000C1C2C000D1D2D0006162600051525002F
:1005A000041424000313230002122200011132005C
:1005B00000213100102030008878680089796900B6
:1005C0008A7A6A008B7B6B008C7C6C008D7D6D0061
:1005D0000E1E2E00071727018575650184746401BE
:1005E00083736301827262018171610180706001B5
:1005F000182838010829390109193A010A1A2A016B
:100600000B1B2B010C1C2C000F1F2F0187665601A2
:1006100004142401031323010212220101113201E7
:100620000021310188786801897969018A7A6A0133
:100630008B7B6B010D1D2D010E1E2E010F1F2F0038
:100640008E7E5D0177675701071727010616260181
:10065000102030018D7D6D018E7E5D017F6F5F000A
:100660007F6F5F008F6E5E000101010101010101DA
:100670000102020202020202020203030303030355
:100680000303040404040404040505050505060623
:1006900006060607070707070808080809090909E1
:1006A0000A0A0A0B0B0B0C0C0C0D0D0D0E0E0E0F87
:1006B0000F0F101011111112121313141415151617
:1006C000161717181819191A1A1B1B1C1D1D1E1E88
:1006D0001F202021222223242425262627282929D9
:1006E0002A2B2C2D2D2E2F30313232333435363704
:1006F00038393A3B3C3D3E3F404142434445464702
:1007000048494A4C4D4E4F50515354555658595ADA
:100710005B5D5E5F616264656668696B6C6D6F707E
:1007200072737577787A7B7D7E8082838587888AED
:100730008C8E8F91939596989A9C9EA0A2A3A5A724
:10074000A9ABADAFB1B3B5B7BABCBEC0C2C4C6C920
:10075000CBCDCFD1D4D6D8DBDDDFE2E4E7E9EBEED9
:10076000F0F3F5F8FAFDFF000000000000000000C3
:100770000000000000000000000000000000000079
:1007800000000000000000000000007E0F00D4FF09
:10079000FFFFC70000007800000000000000002AF2
:1007A0002B280000000000000000000000000000F6
:1007B000000029000000002C1E34202122243426B1
:1007C00027252E362D3738271E1F202122232425AA
:1007D000263333362E37381F0405060708090A0B5F
:1007E0000C0D0E0F101112131415161718191A1BD1
:1007F0001C1D2F3130232D350405060708090A0B6F
:100800000C0D0E0F101112131415161718191A1BB0
:100810001C1D2F3130354C0011241FBECFEFDAE004
:10082000DEBFCDBF04B603FE18C08091D7059091FE
:10083000D805A091D905B091DA058730904BA74033
:10084000B04B59F41092D7051092D8051092D905E3
:100850001092DA05E0E0F8E3099513E0A0E0B1E0DA
:10086000E8EDF8E502C005900D92A035B107D9F783
:1008700025E0A0E5B3E001C01D92A73DB207E1F776
:100880000E94C7230C94ED2B0C940000FC01828184
:10089000813021F4858181708E5F0895823011F45A
:1008A00084E0089581E008959C019A9581159F4107
:1008B00018F5F32FF270EE27832F8170732F747069
:1008C0006627532F5870442734FF0CC08295807FD1
:1008D000EF2B09F08062672B09F08064452B69F0EB
:1008E00080680895EF2B09F08260672B09F084601F
:1008F000452B19F08860089580E00895CF93DF9329
:10090000EB010E945404FE010995DF91CF910895F7
:10091000982F92959F7024E0911102C020E0982FAB
:10092000892F86958695811511F02E5F982F892F36
:100930008695820F089580938C0508958093D6053F
:10094000089521E030E001C0220F8A95EAF78091F6
:10095000D605822B0E949E04089521E030E0A90173
:1009600002C0440F551F8A95E2F7CA018095909105
:10097000D60589230E949E040895809172018330D8
:1009800019F481E00E94AD041092720108958091E3
:100990007001833019F482E00E94AD0408958091C3
:1009A0006E01833011F40E94AD040895292F953013
:1009B00090F58F3080F590E03FE0239F800D911DF2
:1009C0001124282F277041E001C0440F2A95EAF72F
:1009D00023E0969587952A95E1F7FC01EE0FFF1F1E
:1009E000E80FF91FE15BFA4F20E030E070E0519131
:1009F000DF01CB01022E02C0969587950A94E2F79B
:100A0000817081958527842385278E932F5F3F4FA3
:100A10002330310561F70895292F953078F58F300F
:100A200068F590E03FE0239F800D911D1124682F11
:100A3000677023E0969587952A95E1F7FC01EE0F04
:100A4000FF1FE80FF91FE15BFA4F40E050E080E044
:100A5000219130E0062E02C0369527950A94E2F7E0
:100A600021703327042E01C0220F0A94EAF7822B4B
:100A70004F5F5F4F4330510559F7089580E0089567
:100A80009091D60521E030E0F90101C0EE0F8A9582
:100A9000EAF7D90102C0AA0FBB1F6A95E2F7EA2B59
:100AA00001C0220F4A95EAF7892F8E23E81305C06B
:100AB000892F822B0E949E0408952095822F8923DE
:100AC000F9CF8091940590919305981301C00895F2
:100AD0008F5F8770FACF90918E05809589238093E0
:100AE0008E05282F2770211111C0891779F0909158
:100AF000D50592FF0BC08695869586950E94AD041C
:100B000010928E051092900510928F050895982FDF
:100B10009095809189058923809389050895809116
:100B20008A05811531F010928A0510929205109273
:100B3000910508959C01803E910509F448C0D8F4C0
:100B40008133910509F47DC048F48932910509F497
:100B50006DC08A9709F47CC0C90108958933910555
:100B600051F18238910539F1C597B1F78091D405DB
:100B700085FFF2CF29C0843E910509F447C048F4AF
:100B8000823E910599F1833E9105A9F121EE30E075
:100B9000E3CF863E910509F444C0873E9105E1F616
:100BA0008091D40583FD61C09091D50591FF2BC044
:100BB00024EE30E0D1CF8091D4058370811152C0F2
:100BC0008091D50583FFC8CF29E230E0C5CF809161
:100BD000D40580FD33C09091D50590FFBDCF23EEA5
:100BE00030E084FFB9CF20E030E0B6CF8091D4056B
:100BF00082FDF5CFB1CF8091D40582FD30C09091B8
:100C0000D50590FD2FC084FFA7CFEDCF8091D505EE
:100C100081FFA2CF8091D40527EE30E084FDE3CFA1
:100C20009BCF8091D40583FDF7CF96CF8091D405DB
:100C300085FD1EC08091D50583FF8ECF29E330E06E
:100C40008BCF8091D40586FF87CF2AE230E084CF16
:100C50008091D40586FF80CF21E330E07DCF22EE66
:100C600030E07ACF20EE30E077CF26EE30E074CF60
:100C700025E330E071CF9091D40592FF10C041E0A0
:100C8000282F2471243009F040E031E0282F28710A
:100C9000283009F030E0431711F02CE0822793FF51
:100CA00010C041E0282F2471243109F040E031E0E8
:100CB000282F2871283109F030E0431711F02CE07B
:100CC00082273091D50530FF10C051E0282F2171C7
:100CD000213009F050E041E0282F2871283009F038
:100CE00040E0541711F029E0822731FF10C041E0A5
:100CF000282F2171213109F040E031E0282F28719F
:100D0000283109F030E0431711F029E0822794FDE3
:100D1000877E08951F93CF93DF930E949A05EC017D
:100D2000811522E5920708F055C0811540E594072A
:100D300008F0D1C0803E910520F58D3C910508F06A
:100D4000A4C0883A910570F4853A910508F09AC0DC
:100D500081309105D1F10497813A9105B0F1C0E05D
:100D6000D0E033C0885A91094B97C8F7C85AD0E0F1
:100D7000CC0FDD1FC452DD4F0990D881C02DD46443
:100D800024C0811550E49507C0F4C11580E2D8074E
:100D900008F0B7C0C83ED105C0F0CE019A958115C4
:100DA0009F41E8F68D2F0E943B06182FCE01992710
:100DB0000E949A05EC01D12B08C099270E949A0540
:100DC000CC27DF70C82BD92BD06ACE01DF91CF9111
:100DD0001F910895803842E59407C8F5803652E5A2
:100DE000950708F05BC0C03482E5D807D0F4C03264
:100DF00092E5D90708F04BC08C2F8695869520E2A6
:100E0000829FC0011124C37021E030E0A90102C01B
:100E1000440F551FCA95E2F7EA01C82BD92BDD68AC
:100E2000D4CF8C2F86958695877050E2859FC00120
:100E30001124C37021E030E0A90102C0440F551F06
:100E4000CA95E2F7EA01C82BD92BDC68BECF803CFB
:100E500052E5950758F48F71C03AD245A0F590E05D
:100E6000982F8827EC01C46FD06AAFCF805C924581
:100E7000809708F074CFDC2FCC27CC27DF71C06FB0
:100E8000D06AA3CFA497D064A0CFD0659ECFCF71F6
:100E9000D0E0DC2FCC27C16FD06A97CF869586959E
:100EA000877020E2829FC0011124C37021E030E0EE
:100EB000A90102C0440F551FCA95E2F7EA01C82BE9
:100EC000D92BDA6882CF0E943B06C82FD0E0DC2FF6
:100ED000CC27D0627ACF8F710E943B0693E0CC0F73
:100EE000DD1F9A95E1F7CC27DF70282F30E084FFD3
:100EF00004C050E1859F90011124C22BD32BD069EF
:100F000064CF8D2F8F710E943B06182FCE01992739
:100F10000E949A05EC01D12BDCCF80E00895F89473
:100F2000E82FE295EF70F0E041A18F7021E030E012
:100F3000B90102C0660F771F8A95E2F7CB01962FA1
:100F40009095942391A392A1892B82A378940895DC
:100F5000CF92DF92EF92FF921F93CF93DF93172FE1
:100F6000E82FF0E0E959F94F71110CC0E4918E2F90
:100F70007E2F6E2FDF91CF911F91FF90EF90DF902A
:100F8000CF900895E62EF12CC72ED12CF491EF2F9F
:100F900086E0689F90011124CFEFD0E0C901BE0127
:100FA0000E94192BAB01EE0CFF1C65E5649FC0018C
:100FB000659F900D1124E81AF90A6E2D660F6E0DCB
:100FC0007E01EC18FD08FE9DD001FF9DB00D11249F
:100FD0008B2F169F70011124EF2CFF246E01CE1869
:100FE000DF087601FE9D6001FF9DD00C11247E017B
:100FF000E61AF108B701169F7001179FF00C112433
:10100000EF2CFF24CE19DF09FC9F7001FD9FF00C2F
:1010100011247F2D43305105C1F02C3F334058F44B
:1010200041305105B1F04230510509F0A2CFEB2F0C
:101030008F2D7F2F9ECF4430510571F046305105E2
:1010400009F497CF7B2F8D2D94CF7D2DEB2F8F2FF4
:1010500090CF7F2FED2D8DCFEF2D7B2FF8CFEF92FF
:101060000F93CF93DF93D72FC82FDA01F9010E1911
:101070009B2F90783097C9F037FF04C02227332781
:101080002E1B3F0BBD01620F731FB7FD17C0CD01B3
:10109000821B930B55E0880F991F5A95E1F70E9428
:1010A000642B90E2961BF7FD9195602F691B7D2FB5
:1010B0008C2FDF91CF910F91EF900895CB0145E0F8
:1010C000880F991F4A95E1F7B9016A1B7B0B0E94B3
:1010D000642B90E6E7CF9091F404982B9093F4045E
:1010E00008950E946C1108950E94BF110895A0E018
:1010F000B0E0EDE7F8E00C94352B182F8091170144
:1011000081132CC09091100593702091160130E04E
:1011100081E09217130609F480E080930A01809120
:10112000150590910901981739F08093090140E065
:1011300060E080E00E947408113091F0123009F4F0
:1011400054C0111109C080910A01811529F040E0B5
:1011500060E080E00E94740880E01EC081E0DDCF86
:10116000C0910801CC0FCC0F04E00C0FB02E04345A
:1011700010F053E4B52E6091110570911205809125
:1011800013050E94A807F62ED72EC82ED0E0CB1547
:10119000D8F081E0033400F7909108019F5F9093AD
:1011A000080181110CC082E08093150180910A0131
:1011B000811105C0111103C083E080931501CDB7E3
:1011C000DEB7EAE00C94512BFE01EB57FD4F808116
:1011D000909109018923811531F02C2D4D2D6F2D12
:1011E000CE010E9471082196D2CFC0910801CC0F88
:1011F000CC0F44E0B42EBC0EAB2C34E4B31610F08C
:1012000033E4A32E4091E6045091E70420911405A5
:10121000269580E090E0429F812D529F800D911D88
:101220001124F82ED0E0CE01880F991FDC01A150C7
:10123000BE4F6D01CA1520F081E0F3E4BF16ABCFBD
:10124000FE01EB57FD4F80819091090189238115A3
:1012500009F44DC0F60140814057550B21812052C1
:10126000330B449FC001459F900D900D1124229F88
:10127000B001239F700D700D1124860F971F082F4A
:101280008230910520F1EFEF813EFEE19F0738F4B7
:10129000FC01B5E0F695E795BA95E1F7E85FF1E076
:1012A000AF2FAE0FBB27BB1FBD0175956795062FEE
:1012B000669FD001679FB00DB00D11248A179B0760
:1012C000D8F4EFEFE60FEF1758F70FEF0F0F60911D
:1012D00011057091120580911305EF2C0E942F08C3
:1012E0000E94A807472F282FCE010E94710821963F
:1012F000B2E0CB0ED11C9ECF6F3F49F3F1E0F60F69
:10130000E2CFE0E1F5E0908121E092279083109216
:1013100015010E946B08089580911005837081115A
:1013200002C010921501809110058C7F816080931E
:101330001005089580911005837081111092150198
:10134000809110058C7F809310050895982F862F2B
:10135000209110052370211589F0911581F09330AB
:1013600080F49F73990F990F209110052370922B91
:1013700090931005109215010E946B08089591E05A
:10138000F1CF92E0EFCF80911005869586958F5F23
:10139000833008F081E061E00E94A6090895809101
:1013A0001005869586958A9509F482E061E00E9491
:1013B000A6090895982F822F2091100523702115DA
:1013C00041F09093110560931205409313050E941C
:1013D0006B080895E0E1F5E0818190E021E0438130
:1013E000628108960E94DA090895E0E1F5E08181C2
:1013F00021E0438162818850990B0E94DA090895A7
:10140000E0E1F5E0628120E1620F08F46FEF818195
:1014100021E0438190E00E94DA090895E0E1F5E0DF
:10142000628120E1621B08F460E0818121E0438158
:1014300090E00E94DA090895E0E1F5E0438120E1BF
:10144000420F08F44FEF818121E0628190E00E9419
:10145000DA090895E0E1F5E0438120E1421B08F458
:1014600040E0818121E0628190E00E94DA090895E4
:10147000E0E1F5E0248130E1230F08F42FEF24832D
:1014800081E00E946B080895E0E1F5E0248130E1FD
:10149000231B08F420E0248381E00E946B08089558
:1014A000FC018481862381110AC082818115B9F0F3
:1014B0006823908593FF05C081E061110FC080E033
:1014C0000895282F22952F708F70282B962F929594
:1014D0009F706F70962B81E02913F1CF089581E002
:1014E0000895282F35EB2303C001112497FF04C072
:1014F00080589109892F089580589F4FFBCF809184
:101500006F0580FD14C081FD14C082FD16C080915E
:101510006E05811581F08E3180F420E5829FC00137
:1015200011246EE170E00E94642B862F089584E1FF
:10153000089588E2089588E0089580E508958091EF
:101540006F0580FD17C081FD17C082FD19C0809115
:101550006D05811599F0883298F428E0829FC001CA
:10156000112468E270E00E94642B6115710551F04E
:10157000862F089562E0FCCF64E0FACF61E0F8CFF7
:1015800068E0F6CF81E00895FA01309709F00995F7
:101590000895E0914505F0914605309729F00190B6
:1015A000F081E02D0995089580E00895A3E0B0E072
:1015B000ECEDFAE00C943D2B9C0180919803909106
:1015C000990382179307A1F030939903209398030E
:1015D000E0914505F0914605309751F083E089830D
:1015E0003B832A830084F185E02DCE010196099585
:1015F0002396E2E00C94592BA3E0B0E0E2E0FBE09C
:101600000C943D2B9C018091960390919703821737
:101610009307A1F03093970320939603E09145053B
:10162000F0914605309751F084E089833B832A830B
:101630000084F185E02DCE01019609952396E2E024
:101640000C94592B90911A01913091F0A4E5B3E0DC
:10165000EFEF90E02D91821751F0EF3F19F4211137
:1016600001C0E92F9F5F9630A9F7EF3FC9F40895B5
:101670009091D40597FFEACFE82FE695E695E69599
:10168000803FA8F7F0E0E65AFC4F877021E030E099
:1016900001C0220F8A95EAF78281822B8283089506
:1016A0000E2E000CFF0BEE5AFC4FF8CF90911A0152
:1016B000913021F49091D40597FD0CC0E4E5F3E05E
:1016C0009191891302C0DF011E9253E0EA35F507BC
:1016D000B9F70895E82FE695E695E695803FC8F7B7
:1016E000F0E0E65AFC4F877021E030E0A90102C02B
:1016F000440F551F8A95E2F7CA018095928189238C
:10170000828308958091190108952FB7F89460910C
:1017100092037091930380919403909195032FBF4E
:101720000895CF92DF92EF92FF92CF93DF93D82F5D
:10173000C92FC0907D05D0907E05E0907F05F09088
:1017400080050E94850B6C197D098E099F09643FF5
:1017500071408105910518F10E94850B6B017C0198
:1017600082E390E0A0E0B0E0C0920705D0920805C7
:10177000E0920905F0920A05809303059093040511
:10178000A0930505B0930605D0937B05C0937C0517
:10179000DF91CF91FF90EF90DF90CF90089584EF8D
:1017A00091E0A0E0B0E0E0CFFC019B0180918803D4
:1017B000909189038617970740F0672B29F4809151
:1017C000E8008E778093E800C90140E0009741F47B
:1017D000411106C08091E80082FF2FC080E008958B
:1017E000209122052115A9F12530A9F12091E800C9
:1017F00023FD2DC02091E80022FDECCF2091E800D0
:1018000020FFE4CF3091F3002091F200009719F00F
:101810002830310558F041E02830310509F040E02A
:101820002091E8002E772093E800D0CF419140939B
:10183000F10001972F5F3F4FE9CF8091220581157D
:1018400041F0853041F08091E80083FFC3CF81E013
:10185000089582E0089583E008958091820387FFD0
:1018600013C08091E80082FF06C08091E8008B776A
:101870008093E8000895809122058111F2CF0895A8
:10188000809122058115D9F38091E80080FFF8CF7F
:101890008091E8008E77ECCF2091E4003091E50054
:1018A00095E6A9012091EC00822F817020FF06C0EF
:1018B0008091E80080FF06C080E008952091E80054
:1018C00022FD1AC080912205811589F0853089F0AA
:1018D0008091EB0085FD0FC02091E4003091E50080
:1018E00042175307F9F29A95E1F684E0089582E0F1
:1018F000089583E0089581E00895E8EDF0E08081A7
:101900008E7F80831092E2001092DA001092E10044
:10191000A0EEB0E08C9181608C9380818F77808382
:1019200019BCA7EDB0E08C918E7F8C9380818F7E67
:101930008083109281030895982F9093E90089176E
:1019400071F07091EC002091ED005091F00021FDBC
:1019500009C09F5F973089F78093E9000895762F3B
:10196000242F50E03091EB003E7F3093EB0030911C
:10197000ED003D7F3093ED003091EB00316030930E
:10198000EB007093EC002093ED005093F000209159
:10199000EE0027FDDECF0895A0E0B0E0E2EDFCE030
:1019A0000C94372BC8EDD0E088818F7E8883E7EDDB
:1019B000F0E080818160808384E082BF81E0809359
:1019C000810388818E7F888302EE10E0F801108207
:1019D0001092DA0081EEC82ED12CF6011082888197
:1019E0008F77888388818068888388818F7D8883CA
:1019F00019BC10922205109280031092F7041092E5
:101A00007F0390EEE92EF12CF70180818B7F80839C
:101A100088818160888342E060E080E00E949C0CC5
:101A2000F60180818E7F8083F801808181608083D0
:101A3000808188608083F70180818E7F80838881A8
:101A400080618883CDB7DEB7E8E00C94532BE0913A
:101A500094059091930527E0E91302C080E0089572
:101A6000AE2FB0E02E9FF0011124EB56FA4F3181DA
:101A7000361306C03081381303C03581341304C0D7
:101A8000FD013196E770E8CF81E0089581E0809311
:101A9000E00080E28093D8001092C9008FE19EE4BC
:101AA0000197F1F700C0000087E090EBDC01809324
:101AB000D7059093D805A093D905B093DA0588E1AE
:101AC0009CE00FB6F894A895809360000FBE9093A9
:101AD0006000FFCF0F931F93CF93DF938B01EA0139
:101AE00090912205943059F58093E9008FEF909101
:101AF000E80095FD06C095ED9A95F1F700008A95EE
:101B0000B1F78091E80085FF1AC00E944C0C81114A
:101B100011C08091E80085FD06C08091E8008E77B5
:101B20008093E800F2CFF80181918F018093F1005A
:101B3000219779F78091E8008E778093E800DF9114
:101B4000CF911F910F910895CF93DF93D82FC92F75
:101B500048E050E0682F792F81E00E946A0D88E00C
:101B6000ED2FFC2FAAE8B3E001900D928A95E1F7E2
:101B7000DF91CF910895BC0140E250E084E00E94E3
:101B80006A0D0895BC0146E050E084E00E946A0DB1
:101B90000895BC0143E050E084E00E946A0D08957E
:101BA0009091D50592FB222720F9281779F080FB28
:101BB00092F99093D5056091D4057091D50584E094
:101BC00090E00E94E72B82E00E946B0508951F932E
:101BD000CF93DF93962F122F632F8530D8F4953053
:101BE000C8F44F30B8F4C42FD0E0CC0FDD1F2EE185
:101BF000929FC00DD11D112496E9899FC00DD11D62
:101C00001124CE0188960E94C92B612FCE0189969E
:101C10000E94C92BDF91CF911F910895AF92BF927F
:101C2000CF92DF92FF920F931F93CF93DF93A12C5C
:101C3000B12C00E0650110E013C0FE012591349144
:101C40004F2D612F802F0E94E70D2296F3948FE095
:101C5000F812F3CF8FE0C80ED11C1F5F153039F09A
:101C6000E601CC0FDD1FC359DD4FF12CE6CF0F5F2E
:101C70008BE4A80EB11C0530E9F6DF91CF911F91DE
:101C80000F91FF90DF90CF90BF90AF900895CF93CA
:101C9000DF93C6E1D3E060E0CE010E94C92B21961C
:101CA000C11584E0D807B9F7DF91CF910895CF939C
:101CB000C82F65E2811101C06FEF84E290E00E94BD
:101CC000C92BC11569F0C3E06C2F85E290E00E943A
:101CD000C92B6C2F86E290E00E94C92BCF9108950A
:101CE000CFEFF2CF80E00E94570E60E087E290E0F5
:101CF0000E94C92B0E940E0E0E94470E81E00E9496
:101D0000570E08950F931F93CF93DF93853030F5CF
:101D1000653020F54F3010F5C42FD0E0CC0FDD1F1B
:101D20002EE1629FC00DD11D112436E9839FC00DA5
:101D3000D11D1124CE0188960E94AB2B082F10E0F4
:101D4000102F0027CE0189960E94AB2B9801282BDB
:101D5000C901DF91CF911F910F91089580E090E02C
:101D6000F8CF462F672F753038F44F3028F4853080
:101D700018F40E94820E089580E090E00895A0E09B
:101D8000B0E0E5ECFEE00C94382B7C010091D60528
:101D900080918C05082BC4E0D0E010E0C8010C2E27
:101DA00002C0959587950A94E2F780FD09C02197B6
:101DB000A8F7D12C8D2DCDB7DEB7E7E00C94542BCE
:101DC000DC2EB7018C2F0E94B10E0E948A0601976B
:101DD00071F3F0CF0F931F93CF93FC0185810081A6
:101DE0001181811591F0611581F0C8010E94BF0E2B
:101DF000C82F682FC8010E94D604B8018C2F0E94FA
:101E0000B10ECF911F910F910895C8010E940C054A
:101E1000C82FF3CFCF93DF93D82FC92F0E94BF0EC7
:101E20006D2F7C2F0E94B10E0E948A06DF91CF9108
:101E30000895FC0184818115A1F0808191810E9427
:101E40000A0F282F92959F70963099F060F4925F58
:101E50009F70923030F4203FB1F038F481E0283E9A
:101E600038F080E008959A5FF3CF81E0243FC9F70E
:101E7000089591E0213F09F090E081E0283E08F0CC
:101E800080E0892B089581E008950F931F93CF93ED
:101E9000DF938C01FC01C081D181CE010E94AB2B6C
:101EA0002196F801D183C083DF91CF911F910F91CB
:101EB000089584E290E00E94AB2B853289F485E29C
:101EC00090E00E94AB2B833059F486E290E00E94B0
:101ED000AB2B91E0833009F090E0892F8170089559
:101EE00080E0FCCF48E050E067E170E080E195E001
:101EF0000E94B92B1092F4040895CF92DF92EF92D2
:101F0000FF92CF930E94850B6093E2047093E304E9
:101F10008093E4049093E5042091F604C0E021113D
:101F200009C020911005C22FC370C11519F0C22F2E
:101F3000C695C69520911501223009F464C080F43D
:101F4000211117C0109208016093E6047093E70412
:101F50008093E8049093E90481E08093150103C025
:101F6000233009F45BC0CF91FF90EF90DF90CF90CA
:101F700008958C2F0E947708C115A9F3809115014F
:101F8000823059F40E94C90A81FF07C02FEF4FEF3A
:101F90006FEF8EE190E00E9471088091D6050E945B
:101FA0008804823021F1A0F421E245EA69ED811133
:101FB00021C00E94C90A2FEF4FEF60E081FD1AC0D7
:101FC00021E040E060E080E090E00E94DA09CBCFC1
:101FD0008330A9F0843039F623E343E36EEE8BE3DC
:101FE00090E00E94710823E343E36EEE03C020E01B
:101FF0004FEF60E88DE390E00E947108B4CF2DE4CC
:102000004CE76FEFF7CFC0931701809110058370F5
:10201000809316010E94441083E09FCF8091F404C6
:1020200081110E94720FC090E604D090E704E09006
:10203000E804F090E9040E94850B6C197D098E0973
:102040009F096A3171058105910508F48CCF1092C2
:10205000150189CFA1E0B0E0E0E3F0E10C943B2B67
:102060004983E82FF0E0EE54FE4F808104E610E053
:1020700021E030E0AE014F5F5F4F880F0E94C72A1A
:102080002196E4E00C94572BA3E0B0E0EAE4F0E101
:102090000C94372B8AE294E09B838A8382EBE82EB0
:1020A00081E0F82EEA81FB8180818115D9F0E05929
:1020B000F1096F0124E22983F701808104E610E031
:1020C00020E130E0A6016981880F0E94C72AF981CA
:1020D000F05FF98320E1C20ED11CF43B69F7EA817D
:1020E000FB8110828A819B818C559F4F9B838A83C1
:1020F0009FEFE91AF90AEA81FB81E257F54091F670
:102100002396E8E00C94532BA4E0B0E0EAE8F0E179
:102110000C94372B0E94912A10E04BE06DEF812F39
:102120000E942A1040E06AE0812F0E942A108FE36B
:102130009CE90197F1F700C0000040E060E0812FCA
:102140000E942A1040E061E0812F0E942A1040E0A6
:1021500066E0812F0E942A1040E06DEF812F0E94DF
:102160002A1000E040E0602F812F0E942A100F5FAC
:102170000231C1F740E0602F812F0E942A100F5FCB
:102180000432C1F740E0602F812F0E942A100F5FB8
:10219000043BC1F74BE06DEF812F0E942A1041E014
:1021A0006AE0812F0E942A1040E06DEF812F0E948B
:1021B0002A1081E0810F11E0823009F0AECF0BE5EB
:1021C00015E024EAC22EEE24E394F12CDD24D3940E
:1021D00044E050E0B801CE0101960E94852B6A814F
:1021E0004B812C8189818370E62FE695E695E695F3
:1021F000C89EC001112486569C4FE80FF92FF11D8F
:10220000EF56FF4F6770D70102C0AA0FBB1F6A9538
:10221000E2F730813A2B3083E42FE695E695E69598
:10222000E80FF92FF11DEF56FF4F4770B70102C0BD
:10223000660F771F4A95E2F73081362B3083E22F05
:10224000E695E695E695E80FF92FF11DEF56FF4F5D
:102250002770D70102C0AA0FBB1F2A95E2F79D0184
:102260003081232B20838D559F4FFC01D0820C5F42
:102270001F4FF6E007361F0709F0AACF80913D04F3
:10228000811589F09BE2E92E94E0F92E10E0D70148
:102290004D917D01612F80E00E942A101F5F123155
:1022A000B1F710923D048091E104811589F08FEC23
:1022B000E82E84E0F82E10E0F70141917F01612FB4
:1022C00081E00E942A101F5F1231B1F71092E104E1
:1022D0002496E8E00C94532BA4E0B0E0E2E7F1E1AF
:1022E0000C943A2BFC01F62E042F122F8334910507
:1022F00008F041C0EE0FFF1FEE0FFF1FBF01655A30
:102300007A4F44E050E0CE0101960E94852B8981EE
:102310008370AA814A2F50E02B8130E0EC81F0E0FD
:1023200064EA869FC0011124BC0166567C4FA60F4B
:10233000B72FB11DAC91AF110CC0DB01A20FB31FC1
:10234000AC91A01306C0DB01AE0FBF1F6C916117EB
:1023500091F086569C4FDC01A40FB51FFC92280F0C
:10236000391FD9010C93E80FF91F108380579F4F35
:1023700021E0FC0120832496E5E00C94562BFF928B
:102380000F931F93CF93DF93182F062FF42EC0E0E7
:10239000D0E02F2D402F612FCE010E946C1121968D
:1023A000C334D105B1F7CDB7DEB7E5E00C94562BB9
:1023B0001F921FB61F9211248F939F93AF93BF93C9
:1023C0008091F504811113C0809192039091930341
:1023D000A0919403B09195034196A11DB11D8093E6
:1023E000920390939303A0939403B0939503BF91AA
:1023F000AF919F918F911F901FBE1F9018952FB77F
:10240000F8948091920390919303A0919403B091DA
:1024100095032FBF0895CF93DF93C09189058091D5
:102420008D05C82B80918A05811509F10E94FF1145
:102430002091910530919205821B930B8C3D954024
:1024400010F00E948F05D0918A0580911A01813089
:1024500021F48091D40587FD14C086E024E533E0A3
:1024600090E0815090F491110E948F05CD2B8091C6
:10247000770580958C2390917605892BDF91CF91FC
:1024800008958EE12CE533E0EBCFF90141919F01F6
:10249000411539F39F5FE5CF80911A01813059F5DD
:1024A0008091D40587FF27C00E940B1280935B03A5
:1024B00040E250E065E275E08AE593E00E948E2BF1
:1024C000892BC1F080E2EAE5F3E0A5E2B5E00190F6
:1024D0000D928A95E1F7E0914505F0914605309718
:1024E00049F086E080935A030480F581E02D8AE567
:1024F00093E0099508950E940B128093520348E0DF
:1025000050E067E475E082E593E00E948E2B892B12
:1025100089F388E0E2E5F3E0A7E4B5E001900D92ED
:102520008A95E1F7E0914505F0914605309711F362
:102530000280F381E02D82E593E0DBCF811539F055
:1025400090918905892B809389050E944C120895EA
:10255000811539F090918D05892B80938D050E940E
:102560004C120895811521F00E9487050E944C129B
:102570000895811541F0809590918D058923809370
:102580008D050E944C120895CF93DF93EC014A858C
:102590005B856E857F850E94C40A9B8190958091A2
:1025A0008D05892380938D058C810E9487050E946B
:1025B0004C1286E0FE0111928A95E9F7DF91CF91E6
:1025C0000895CF93DF93EC018D8181FD17C0826068
:1025D0008D8380918D059B81892B80938D058091C2
:1025E00089059C81892B809389050E944C1248851E
:1025F00059856E857F85CE010E94C40A109284059C
:10260000109283058D8180FD03C0CE010E94C4120B
:10261000DF91CF910895CF93DF93EC010E94FF11DA
:102620008C1B9D0BDF91CF9108950E94FF1120918B
:10263000720530917305232B211521F080930D0530
:1026400090930E052091740530917505232B21156B
:1026500021F080930B0590930C05E0914505F091D6
:102660004605309749F082E0809370050680F78137
:10267000E02D80E795E009950895611509F44BC0B8
:10268000E3E3E80FE33150F4F0E0E151F44D0C9452
:10269000782B0E947F0A8195809373050E94151301
:1026A00008950E947F0AF8CF0E947F0A8195809347
:1026B0007205F4CF0E947F0AFACF0E949F0A80938E
:1026C0007405ECCF0E949F0A8195F9CF0E949F0A62
:1026D000819580937505E2CF0E949F0AFACF815DB4
:1026E000990B21E030E001C0220F8A95EAF7809132
:1026F0007105822B80937105D1CF80916F05816028
:1027000080936F05CBCF80916F058260F9CF809168
:102710006F058460F5CF409172058D3C59F480912E
:10272000730587FF0DC010927305411559F410927F
:102730006E0508C08E3C81F48091730518169CF3D9
:10274000411581F08091740590917505892B811157
:10275000A5CF10926D05A2CF8F3C41F447FFF0CF7B
:1027600010927205809173058115E0CF803D19F4B8
:102770001416B4F3E5CF90917405893D29F4191628
:10278000FCF610927405DCCF8A3D19F497FFD8CF80
:10279000F8CF909175058B3D29F497FFD1CF10921A
:1027A0007505CECF8C3D19F41916CCF3C9CF9FE235
:1027B000980F983090F4815D990B21E030E0B901D9
:1027C00002C0660F771F8A95E2F7CB018095909142
:1027D0007105892380937105B3CF8D3D31F48091CC
:1027E0006F058E7F80936F05ABCF8E3D21F4809176
:1027F0006F058D7FF7CF8F3D09F0A2CF80916F05D8
:102800008B7FF0CFCF93C82F8115D1F08CEF8C0F39
:10281000813AA0F580911A01813021F48091D4058C
:1028200087FD10C0E4E5F3E08191C81709F123E0CA
:10283000EA35F207C9F78C2F0E94220B0E944C1236
:10284000CF910895EC2FE695E695E695F0E0E65AEF
:10285000FC4F828190E04C2F477021E030E002C0B5
:10286000220F331F4A95E2F782239323892B19F312
:102870008C2F0E94560B0E944C12DDCF80E28C0FF1
:10288000883068F4C77081E090E001C0880FCA9575
:10289000EAF7C0918905C82BC0938905CFCF8BE596
:1028A0008C0F833038F42C2F2452330BC9010E9433
:1028B000D60AC6CFE8E5EC0FEB3150F4F0E0EE0FAE
:1028C000FF1FEE5EFC4F808191810E94FC0AB8CF11
:1028D00083E38C0F833108F0B3CF61E08C2F0E942B
:1028E0003D13AECFCF93DF93EC01805E9109089743
:1028F00020F068EA72E1209711F46EE972E1CE01EE
:102900000E947E048C2F0E940214DF91CF910895C3
:10291000CF93DF93EC01FB018A81823039F482810D
:1029200093810E9472148D8182608D83DF91CF919B
:102930000895FB01808191810E9472140895811590
:1029400081F19CEF980F913A28F40E94560B0E9457
:102950004C12089590E2980F983050F4877091E0EF
:1029600001C0990F8A95EAF7892F0E948705EFCF5A
:102970009BE5980F933028F480E090E00E94D60AFF
:10298000089598E5980F9B3128F480E090E00E942C
:10299000FC0A089593E3980F933118F460E00E94C5
:1029A0003D130895CF93DF93EC010E949F14CE0155
:1029B000805E9109089720F069EB72E1209711F48D
:1029C00062EB72E1CE010E947E04DF91CF91089507
:1029D000FB01DC0112968C91813029F48081918178
:1029E0000E94D21408958230E9F782819381F8CF52
:1029F0000F931F93CF93C82F8B010E9402140115D0
:102A0000110539F48C2F0E949F14CF911F910F91C3
:102A100008958FE99FE00197F1F700C00000015091
:102A20001109EDCF0E944604809372018330A1F01A
:102A3000843041F0823099F460E570E089E30E94CF
:102A4000F81408958091D605811531F081FF04C0F6
:102A500081E00E94AD04089581E00E94A1040895E0
:102A60001F93CF93DF93182FA0917905B0917A052A
:102A7000109709F44AC010927C0510927B051092C1
:102A80007705109276051696CD91DC911797CE01B9
:102A90009A9581159F4108F4D07ED1E0C11101C003
:102AA000D0E01996ED91FC911A97309731F01B9672
:102AB0006D917C9180E00995D823D11539F08CEF88
:102AC0008C0F813A30F58C2F0E94560B1115A9F00E
:102AD000E0917905F0917A05808584FD0EC08091A2
:102AE0007805811551F0808191819C012150310937
:102AF0002F333E4710F40E94910B0E944C1210920B
:102B00007A051092790510927805DF91CF911F9187
:102B100008950E944C128C2F0E949F14D7CF1092C0
:102B2000890580911A01813039F58091D40587FF9C
:102B300023C0ECE5F3E08EE1DF011D928A95E9F711
:102B400080E090E00E94D60A80E090E00E94FC0ABB
:102B500010928D050E944C1286E0E0E7F5E0DF015F
:102B60001D928A95E9F710926E0510926D051092EC
:102B70006F050E9415130895E4E5F3E086E0DCCFCD
:102B80000E948F152FEF84E39CE0215080409040FD
:102B9000E1F700C0000088E19CE00FB6F894A8952A
:102BA000809360000FBE90936000FFCFAAE2B0E078
:102BB000ECEDF5E10C943C2B82E893E0FC010196EE
:102BC0002091F100208323E08A389207B9F78091A1
:102BD0008303893009F45AC0C8F4823009F4B7C0BD
:102BE000833009F486C0813091F18091E80083FF41
:102BF000EBC080918203909183039A3008F0E4C087
:102C0000E92FF0E0EE5FF34D0C94782B8A3009F455
:102C10008DC08B3051F780918203813231F78091E2
:102C2000860390918703892B01F78091E800877FC5
:102C30008093E8000E942D0C81E090918403911113
:102C400001C080E080931A010E948F15CECF809141
:102C50008203813A51F68091E800877F8093E800F3
:102C60008091860390918703892B61F060E080E07A
:102C700090E070E00E94D40B8091E8008B77809305
:102C8000E800B3CF68E08AE893E0F3CF8091820355
:102C9000813209F0AACF80918603909187038D7FBE
:102CA000892B09F0A2CF8091E800877F8093E8000C
:102CB0008091E80082FF18C09091F3008091F200AB
:102CC000029731F48091F100813011F0863021F4C7
:102CD0008091F100809319018091E8008B778093B7
:102CE000E8000E942D0C81CF809122058111E0CF58
:102CF0007CCF80918203813A09F077CF809186035F
:102D000090918703892B09F070CF8091E800877F2D
:102D10008093E8008091E80080FFFCCF80911A0149
:102D20008093F1008091E8008E77D9CF8091820363
:102D3000813209F05ACF8091E800877F8093E800C4
:102D40000E942D0C80918503809318014ECF8091B5
:102D50008203813A09F049CF8091E800877F809310
:102D6000E8008091E80080FFFCCF80911801D8CF67
:102D7000803889F0823841F5809186038F708730E2
:102D800018F58093E9008091EB0085FB882780F996
:102D90001092E90006C08091F704880F90917F039C
:102DA000892B9091E800977F9093E8008093F10041
:102DB0001092F1008091E8008E7723C0811116C037
:102DC00080918403813011F18091E80083FF0AC073
:102DD0008091E800877F8093E8008091EB0080621B
:102DE0008093EB00AA96E3E00C94582B823061F7B5
:102DF00080918403811589F01092E9008091E800A8
:102E0000877F8093E8000E942D0CDECF81E0933015
:102E100009F080E08093F704EFCF809186038F70F4
:102E20002FEF280F263080F68093E9002091EB00E9
:102E300020FFE2CF933031F48091EB0080628093E9
:102E4000EB00DACF9091EB0090619093EB0021E0E2
:102E500030E0A90102C0440F551F8A95E2F7409364
:102E6000EA001092EA008091EB008860E8CF8111BF
:102E7000ABCF109184031F778091E3008078812B82
:102E80008093E3008091E800877F8093E8000E94B0
:102E90002D0C8091E80080FFFCCF8091E3008068DA
:102EA0008093E30083E0111101C082E0809322054A
:102EB0008BCF8058823008F087CF80918403909127
:102EC00085038C3D53E0950799F583E08A838AE278
:102ED00089834FB7F894DE01139620E03EE051E27B
:102EE000E32FF0E050935700849120FF03C08295B8
:102EF0008F703F5F8F708A30C8F0895C90E08D934F
:102F00009D932F5F243161F74FBF8091E800877F49
:102F10008093E8006AE270E0CE0101960E94D40B33
:102F20008091E8008B778093E8004ECF805DE6CFFC
:102F3000292F33272330310509F44EC078F521308D
:102F4000310509F47DC08BE590E0E8ECF1E022303A
:102F5000310509F039CF2091E800277F2093E80060
:102F600020918803309189038217930708F49C010C
:102F700040E02115310509F068C0411166C080911B
:102F8000E80082FDCDCF80912205811549F2853080
:102F900039F28091E80083FFF2CFC2CF809186039F
:102FA000909187032132310509F43BC0223231056B
:102FB00009F00ACF8330910508F006CFFC01EE0F2F
:102FC000FF1FEA55FE4F0190F081E02D8D559E4F79
:102FD000DC018C9190E011C09C013327813089F095
:102FE00022303105B1F0232B09F0EECEE9E6F2E014
:102FF000E4918E2F90E0E9E6F2E0009709F4E4CE48
:10300000AACFE7E5F2E0E4918E2F90E0E7E5F2E069
:10301000F4CFE5E3F2E0E4918E2F90E0E5E3F2E017
:10302000ECCF8330910508F0CFCEFC01EE0FFF1FEF
:10303000E455FE4F0190F081E02D89E090E08BCFC8
:1030400082E190E0E3E2F2E086CF809122058115F3
:1030500009F466CF853009F463CF8091E80083FDE1
:103060005FCF8091E80082FD8ACF8091E80080FFE9
:1030700080CF9091F3008091F2002115310519F075
:103080008830910550F041E0089709F040E08091C8
:10309000E8008E778093E8006CCF44914093F10074
:1030A0003196215031090196E8CF803809F08CCE55
:1030B0008091E800877F8093E8008091800380936F
:1030C000F10078CE811180CE10918403123008F087
:1030D0007BCE8091E800877F8093E8001093800387
:1030E0000E942D0C1115F9F084E08093220542E036
:1030F00061EC81E00E949C0C42E261EC84E00E9461
:103100009C0C42E261EC82E00E949C0C42E260EC8A
:1031100083E00E949C0C80912205843051F482E06F
:1031200080931B0151CE8091E30087FDDDCF81E0CC
:10313000DCCF81E0F5CF9091D50592FF10C0982F9C
:10314000990F990F990F936090938E050E94A10497
:103150000E94FF119093900580938F0508950E941F
:10316000A10408950E944604809370018330A1F069
:10317000843041F0823099F40E949B1881E00E94D3
:103180006B0508958091D605811531F082FF04C04A
:1031900082E00E94AD04089582E00E94A104089597
:1031A0000E94460480936E018330A9F0843049F078
:1031B0008230A1F483E00E949B1881E00E946B059D
:1031C00008958091D605811531F083FF04C083E016
:1031D0000E94AD04089583E00E94A1040895EF9237
:1031E000FF920F931F93CF93DF93C62FD42F122FED
:1031F0008115A9F0609387050E94FF1190937E03CB
:1032000080937D03C77081E001C0880FCA95EAF7FB
:103210000E949E12CDB7DEB7E6E00C94552B80914C
:103220008705681334C0E0907D03F0907E030E9410
:10323000FF118E199F09883C910548F500E20D0F9A
:10324000CD17A9F0C770FF24F3948F2D01C0880F0C
:10325000CA95EAF70E94B212083048F48D2F8770A1
:1032600001C0FF0C8A95EAF78F2D0E949E1260E044
:1032700070E0812F0E94F814083060F6D77081E06A
:1032800001C0880FDA95EAF70E94B212C3CFC77067
:1032900081E001C0880FCA95EAF7F6CFA8E0B0E058
:1032A000E4E5F9E10C942E2B7C01DC0114968C9161
:1032B000811509F4AFC061E0C7010E94EA0E8C01DC
:1032C000F7018581811521F1809183059091840515
:1032D0000097F1F008171907D9F0FC01FF27853096
:1032E00008F052C064E0EE0FFF1F6A95E1F7E35E5D
:1032F000FE4F85818460858311830083CF010E9406
:10330000E11210928D0561E0C7010E94EA0E8C0166
:10331000D70115963C90311409F40DC1C801975797
:103320008038910508F0EDC0D02EB0E10B1708F001
:1033300060C08FEF93E00E94AB2B81115AC006E171
:1033400013E0D11024C01A8309838E010F5F1F4F31
:10335000C8010E94450FA02E912E811509F449C085
:10336000813009F072C0C8010E94450F8130E1F43C
:10337000C8010E94450F60E570E0893311F060E0FC
:1033800070E00E94F814E4CFE0E0F0E0B2CF011565
:10339000E4E01E0771F1C8010E94AB2B0F5F1F4FC5
:1033A0008111F5CFDA94CDCF823031F4C8010E947B
:1033B000450F0E940214CCCF833031F4C8010E9423
:1033C000450F0E949F14C4CF843089F4C8010E9425
:1033D000450FC12CD12C5AE0B52E482F4053550B28
:1033E0009A014A305105D0F0C114D10421F5811160
:1033F000AFCF80918E058770811561F0D70115964A
:103400008C91811539F08091D50582FF03C082E04F
:103410000E946B052896E1E10C944A2BBC9CC001EC
:10342000BD9C900D11246901C80ED91E8A2D992DBD
:103430000E94450FD2CFAFE9BFE01197F1F700C06E
:103440000000B1E0CB1AD108CFCFE82FF0E0E95669
:10345000F84F7490282F26952695269530E0F9018F
:10346000E957F84FC4908770D12C082E02C0D5942C
:10347000C7940A94E2F7C0FACC24DD24C0F8F9011D
:10348000E958F84FA490B12C082E02C0B594A79427
:103490000A94E2F7A0FAAA24BB24A0F8F901E9599A
:1034A000F84F8490912C02C0959487948A95E2F706
:1034B00080FA8824992480F8C114D10419F081EE8F
:1034C0000E940214A114B10419F086EE0E940214A5
:1034D00060E070E0872D0E94F814A114B10419F087
:1034E00086EE0E949F14C114D10419F081EE0E944F
:1034F0009F148114910409F42BCF60E070E08CE2FA
:1035000040CF0E35ECE71E0791F00F35FCE71F07A3
:1035100041F00D352CE7120771F480911C018115E3
:1035200031F010921C0180E00E94301562CF81E0E2
:1035300080931C015ECF80911C01811146C0C8019F
:1035400097558115914008F0F1C1F801FF2705302A
:1035500008F04FCF34E0EE0FFF1F3A95E1F79F01DF
:10356000235E3E4F6901D70115968C91EE5DFE4FAB
:10357000908180FB90F99083811509F4BAC10E9473
:10358000FF119093860580938505F60182818F5FF8
:10359000828380918D0590918905892B8383809109
:1035A0008A0584834681578166857785C6010E9496
:1035B000C40AD60115968C9181FD98C1902F812F58
:1035C00090938305809384059FC0480140EE841A40
:1035D000910850908B0580918905582A80918A0521
:1035E000582A58E08516910408F061C098012770A8
:1035F000332781E090E001C0880F2A95EAF7311463
:1036000009F452C0582AD7018D919C910E940C0553
:1036100021E030E0F90102C0EE0FFF1F8A95E2F7CA
:10362000F887EF832091790530917A053C832B83CD
:1036300040918105509182055E834D8348E4642E5C
:1036400043E0742ED301CD90DD903D01C114D1042F
:1036500009F446C0511004C0F601828181111EC0D8
:10366000D60113968C91139790E0EF81F8858E2305
:103670009F23892B99F018968C91982F9770911110
:1036800001C087E0F8E08F16910408F075C031148E
:1036900009F46EC086958170811173C0A0E5B3E016
:1036A000A615B70579F61CC080955822ACCF31100D
:1036B0004CC080918105909182050817190781F40B
:1036C000109282051092810510927D0510927E0560
:1036D00010927F051092800510927C0510927B0558
:1036E0008091790590917A05009709F428CFB8E088
:1036F0008B16910408F0E3C0652D0E94500A8111D9
:1037000003C081E00E943015D70115969C91911558
:1037100009F415C5109287059801305723323105F9
:1037200008F0FBC484E090E00E94B32B9093D50591
:103730008093D405F801E150F047E232F10508F03A
:103740001FC1E45FF34D0C94782B10938205009316
:1037500081050E94850B60937D0570937E058093A3
:103760007F059093800510927C0510927B054BCFCE
:1037700082FB882780F990CF311409F48FCF80FF26
:103780008DCFD601AD90BC900A151B0519F43114EC
:1037900009F484CFEB81FC81EC15FD0509F47ECFA3
:1037A000D6011D96ED91FC91309721F08081811515
:1037B00009F474CF652DC6010E94500A811509F4E1
:1037C0006DCF81E00A151B0509F080E0482E4320EB
:1037D000A114B10441F0411006C0ED81FE81AE1686
:1037E000BF0609F05BCF80E00E943015D0927A05C9
:1037F000C092790581E080937805D60115968C9169
:1038000015978093770541100CC0AB2851F08D912E
:103810009C919C0124503109213A3105A0F50E9468
:10382000560BF601A680B780C5019A9581159F4178
:1038300010F420EEB22277247394C50101978F33E0
:103840009E4708F0712CD6011996ED91FC911A97BC
:10385000309731F01B966D917C9181E0099578222B
:10386000711471F0F601868197810E94540480934F
:103870007605C501F8E08F16910440F40E94910B83
:103880000E944C120AC00E949F14CBCF0497813A29
:10389000910548F48A2D0E94220B411409F44FCE61
:1038A0000E944C12A6CD0E944C128FE39CE9019716
:1038B000F1F700C000008A2D0E940214EECFFC0137
:1038C000208131810217130741F4311009C0109291
:1038D000780580E00E94301532CE311409F42FCEE5
:1038E000DC0118968C9185FD2ACEF3CF90E080E024
:1038F00067CEF9014485558566857785C9010E94A3
:10390000C40AD60115968C9181FFFECEC6010E9495
:10391000C41280918305909184050817190709F056
:10392000F3CE1092840510928305EECEF7018581C7
:10393000F801E851FC47E730F10508F0E5CEE25D1B
:10394000F34D0C94782B26E241EE61EE0E94EF18C5
:1039500050CD27E245EE65EEF9CF26E241EE60EE6E
:10396000F5CF27E245EE64EEF1CF26E241EE62EEBE
:10397000EDCF27E245EE66EEE9CF28E241E0EBCF5E
:103980008091D40581608093D4056091D4057091B5
:10399000D50584E090E00E94E72B0E948F1529CD89
:1039A0008091D50588608093D505EFCF8091D405AF
:1039B0008260E9CF8091D4058460E5CF8091D40501
:1039C0008860E1CF8091D5058160EDCF8091D505EC
:1039D0008260E9CF8091D4058061D5CF8091D405F4
:1039E0008062D1CF8091D4058064CDCF0E948F15A5
:1039F0008091D4058068C7CF8091D4058C60C3CFF7
:103A00008091D5058360CFCF8091D4058E7FBBCFC9
:103A10008091D505877FC7CF8091D4058D7FB3CFA7
:103A20008091D4058B7FAFCF8091D405877FABCFBA
:103A30008091D5058E7FB7CF8091D5058D7FB3CF8F
:103A40008091D4058F7E9FCF8091D4058F7D9BCFB1
:103A50008091D4058F7B97CF0E948F158091D405DC
:103A60008F7791CF8091D405837F8DCF8091D505BD
:103A70008C7F99CF8091D405992782FF939590FBF5
:103A800082F990FB83F97FCF8091D505982F90958F
:103A900090FB80F990FB81F986CF9091D405892F16
:103AA0008F7B96FF80646FCF0E948F159091D40515
:103AB000892F97FB87F9805866CF61E08EE090E010
:103AC0000E94C92B62CF60E0F9CF9091D405892F75
:103AD0008F7E94FF806157CF9091D405892F8E7F80
:103AE00090FF816050CF9091D505892F877F93FFFC
:103AF000886059CF89E23CC380918805811521F007
:103B000085E30E94560BCCCE89E2FBCF81E00E9478
:103B100081096FCC811579F10E94CF096ACC81159A
:103B200079F10E94F50965CC811579F10E940E0AA0
:103B300060CC811579F10E942A0A5BCC811579F15C
:103B40000E94440A56CC809189058272F801E054A3
:103B5000F847ED30F10530F5EB5CF34D0C94782B24
:103B60000E948C0981E00E946B0843CC0E949A0954
:103B7000F9CF811589F20E94C3093BCC811589F2E6
:103B80000E94EA0936CC811589F20E94000A31CCE4
:103B9000811589F20E941C0A2CCC811589F20E94A1
:103BA000380A27CC0737BCE71B07F9F00837ECE7E2
:103BB0001E0731F19801205E32452032310528F58B
:103BC00091113AC00F7181E090E09C0102C0220F78
:103BD000331F0A95E2F78901622F83E090E00E948B
:103BE000C92B802F0E949B0404CC81E0911551F0D9
:103BF0000E94A10443E062E081E00E944005F9CB0D
:103C000082E0F4CF0E94AD04F5CF9115A9F00A35FA
:103C10003CE7130709F486C008F05EC001305CE79A
:103C2000150709F47DC003308CE7180709F472C04A
:103C300001151C4709F461C0F7018581C080D1805E
:103C4000811509F473C0C6010E94BF0E182F682F9A
:103C5000C6010E94D604B601812F0E94B10E0E94B7
:103C60008A068C01D7011596BC9015971696AC90D4
:103C7000A2942FE0A22280918E058770811501F118
:103C8000CB2CB114F1F0812F807F803461F080E281
:103C9000800F8830A8F0812F807E803221F402309E
:103CA00078F0A11469F08091D50582FF09C082E007
:103CB0000E946B0580918E058770CC24C39481117E
:103CC000C12CE12FE295EF70103C08F09AC0F0E0B3
:103CD000EE5BF34D0C94782B0B35ACE71A0721F112
:103CE0008091D505002482FF0394802D0C351C475C
:103CF00009F0A2CF0E94D00D9FCF0E948F15EFEF49
:103D0000F4E32CE0E150F0402040E1F700C0000077
:103D10000E94460D6FEF7FEF80E090E00E94E72B5E
:103D20000E94C01581E0E6CF80E0E4CFC6010E948A
:103D30000C05182F90CFB12FBF70DB2E103118F06B
:103D4000D29490EFD922B114B9F0D11469F080E285
:103D5000800F883010F0011109C0809189058D29EC
:103D6000809389050E944C12802F43C080918D055D
:103D70008D2980938D05F6CF802F0E949F14D1143A
:103D800009F43FC080E2800F883010F0011104C0B8
:103D90008D2D0E94870506C0D09480918D058D21C0
:103DA00080938D050E944C122CC0E12FEF70DE2E07
:103DB000107F103219F0D29480EFD822011549F00B
:103DC000013009F47AC0B11409F486C0A114B9F124
:103DD000CBCF8091D50582FD2EC0B11469F0D114EE
:103DE00039F0809189058D29809389050E944C12B4
:103DF00080E00E94021405C080E00E949F14D11050
:103E0000C7CFC11409F4C8C080918E0580FDC4C01D
:103E1000D70115961C928695869586950E94A104D9
:103E2000C7010E944E1980918E05869586958695CC
:103E30000E94AD04B1C0B114C9F0A11004C08D2D11
:103E40000E949E12DECFF1E0AF12DBCF10918A0507
:103E50008D2D8123D816A9F20E94FF11909392050F
:103E6000809391051D2910938A05CBCFA110C9CF4E
:103E70008D2D0E94B21290918A058D2D8923811576
:103E800069F08D2D8095892380938A05811591F0A5
:103E90000E94FF11809391059093920580918B056C
:103EA0009D2D9823911509F4ACCFD094D822D092AF
:103EB0008B05A7CF80E090E0EDCFB11429F023E08F
:103EC000A21608F09ECFBBCF32E0A31608F099CF20
:103ED0008D2D0E94B21295CFA114D1F3093349F46C
:103EE0004FEF57EE83E0415050408040E1F700C073
:103EF0000000802F0E949F1484CF812F8695869585
:103F00008370811561F0813009F07BCFC801937017
:103F1000B11002C080E090E00E94FC0A72CFC8019C
:103F20009370B11002C080E090E00E94D60A69CF81
:103F30006B2D802F0E943D1364CF812F83708111E0
:103F400038C0B11027C0402F429546954770440FA6
:103F5000440F802F8F70042E01C0880F0A94EAF757
:103F6000202F207104FF07C02FE030E001C0220F96
:103F70004A95EAF720951695169513701230A1F020
:103F8000133081F030918C05113059F0822B83234E
:103F90000E949B040E94C90A60E0C7010E94EA0EC9
:103FA00039CA832B822BF4CF822B90918C058927E1
:103FB000EFCFB11451F110FFEDCF402F4295469550
:103FC0004770440F440F802F8F70042E01C0880F5C
:103FD0000A94EAF7202F207104FF07C02FE030E099
:103FE00001C0220F4A95EAF7209516951695137091
:103FF000123089F0133069F03091D605113041F05C
:10400000822B83230E949E04C5CF823018F2D5CF25
:10401000832B822BF7CF822B9091D6058927F2CF65
:104020001F70B11439F0812F0E94A104802F0E94CB
:104030009E12B0CF802F0E94B212812F0E94AD0439
:10404000A9CF023F71F170F4003FC9F0013F91F038
:10405000B11409F44EC0A11409F448C0802F0E9485
:10406000021498CF033F21F1043F91F78091D505C9
:1040700082FD2AC0812F8F71B11401F316C0B114D3
:1040800069F092E0A91608F085CF1F7181E090E0F9
:10409000012E01C0880F0A94EAF7BECFA3E0AA164A
:1040A000F2CF812F8F71B110C9CF0E94A10472CFBE
:1040B00080E0B11409F4A6CF1F7181E0012E01C088
:1040C000880F0A94EAF79ECFB11429F0812F8F71DF
:1040D0000E949B185FCF81E00E946B05B2E0AB1697
:1040E00008F458CF82E00E946B0554CF812F8F7166
:1040F000DCCFA11479F0093349F4EFEFF7EE23E0B8
:10410000E150F0402040E1F700C00000802F0E9405
:104110009F1440CF812F8F7191CF0631BCE71B07D1
:1041200099F0809189058272F801E052F847EB30EE
:10413000F10508F037CDE25BF34D0C94782B063196
:10414000ECE71E0709F0FFCC80918905282F21712B
:104150008A7A211180E0911509F4CECC91E0811189
:1041600001C090E090938805811509F4C3CC85E3E4
:104170000E94220B95CB8091D305803178F48091F9
:10418000D205811559F0E091940520919305309165
:10419000CE054091CD0557E02E1301C008956E2F36
:1041A00070E05E9FF0011124DF01AB56BA4F149608
:1041B0008C911497811561F111968C91119783134D
:1041C00027C08C91841324C015968C91159781116A
:1041D0001FC012968D919C91A091CF05B091D005F2
:1041E0008A1B9B0B883C910598F48091D3058F70B6
:1041F00080618093D305E556FA4F80818F7080618E
:1042000080838DEC95E00E944E190E94610508950F
:10421000FB013196E770C0CFADE0B0E0E2E1F1E242
:104220000C94312B8C0186E0F801DE011896019088
:104230000D928A95E1F7F801F58084819DEC892E35
:1042400095E0992E6090D105611018C0811599F004
:10425000F11409F415C1C8010E94190F811509F460
:104260000FC187E0F801ADECB5E001900D928A95A1
:10427000E1F70E94BB20FF24F39456C07080A28017
:10428000B380D090D2052091CF053091D005A50103
:10429000421B530BD11409F4C3C0483C510508F02C
:1042A00079C0811541F38091CE05C180E090D3059E
:1042B00050E1E51608F059C0C81215C08091CD052F
:1042C000871111C0F1104BC08E2D8F7080618093CB
:1042D000D3058DEC95E00E944E198091D305F8012D
:1042E0008683F12C21C0F1103AC040E06C2D872D5F
:1042F0000E94270D40E06C2D872D0E94270DF82E7F
:104300008111EFCF888599850E940A0F292F229568
:104310002F70903470F49F702230A0F09115B1F09E
:10432000F8019681903190F48F2D2D96EEE00C944B
:104330004D2B2A5F2F70223068F0C8010E944E1961
:10434000FD2CF2CF911511F0811571F3805E88304C
:1043500058F3F3CF803F40F3815F8330F9CF8091F2
:10436000D30581608093D305BCCFC8123BC0809138
:10437000CD05871137C0F11035C0E682C8010E9413
:104380004E1987E0F801ADECB5E001900D928A95E9
:10439000E1F771CFE090D305F0E1EF1650F48DEC2A
:1043A00095E00E944E1987E0F40111928A95E9F791
:1043B00098CF811509F45FCF9091CE05F8018181E6
:1043C000981310C08091CD0587110CC0F1100AC060
:1043D000E682C8010E944E1987E0F40111928A9585
:1043E000E9F749CFC8010E94190F811509F448C0A7
:1043F000F11409F445C08091D305803208F431CF1F
:104400008091CD059091CE059A838983BC82AB8241
:104410006D821E82EF82CE0101960E944E1921CF3D
:10442000483C510508F0BFCF811509F424CFF114A1
:1044300039F19091CE058181981318C08091CD05F6
:10444000871114C08091D30580FD9BCF803108F483
:1044500098CF8683807F803F09F490CF8681982F04
:10446000907F905F8F70892B868388CFC8010E94D0
:10447000190F8111F6CE8091D30581608093D30509
:10448000C8010E944E19F7CEABE1B0E0EAE4F2E2D7
:104490000C943B2B4E8B5F8B688F798F8A8F192FF3
:1044A0009B8F911110928D051D8A86E0FE017696F4
:1044B000DE011F9601900D928A95E1F70A8D809199
:1044C000D50582FF1FC00E94FF1120918F053091FA
:1044D0009005821B930B8C3D954038F080918E05A2
:1044E00082FD03C082E00E946B050E94FF112091B3
:1044F000910530919205821B930B8C3D954010F0F5
:104500000E948F05011561F00B8B1C8B61E0CE01C1
:104510000F960E94EA0E61E0CE010F960E94EA0E0D
:104520000B8B1C8B87E0FE013F96DE0118960190F5
:104530000D928A95E1F7CE0108960E940C21811117
:1045400010C0209193053091940587E0FE013896C4
:10455000DE01119601900D928A95E1F78C8581110B
:104560000BC017E0809194059091930589132BC09F
:104570006B96E4E00C94572B822F90E001968770A5
:1045800099273817190671F40E948F151092930518
:104590001092940587E0EDECF5E0DF011D928A951D
:1045A000E9F7DFCF97E0929FD0011124AB56BA4FC5
:1045B000FE01319601900D929A95E1F78093930553
:1045C0000E946105CECF189FC00111248B569A4FCF
:1045D0000E940C21811561F28091940590E0019672
:1045E0008770992780939405BDCFA6E0B0E0EBEFEC
:1045F000F2E20C943B2B0E94FF118C018091230569
:10460000909124058017910779F019821A820E94EF
:10461000FF11BC0149815A8180E090E00E94442250
:1046200010932405009323052696E4E00C94572B61
:10463000AAE0B0E0EEE1F3E20C942F2BFE013196FC
:104640008AE0DF011D928A95E9F798ECC92E92E085
:10465000D92E8F012F0166246394712C3CED832E9B
:1046600032E0932EF60181916F018F3F09F445C02E
:10467000F894E82FE295EF70F0E021A18F70A3018C
:1046800002C0440F551F8A95E2F7CA01922F982B5A
:1046900091A392A18095892382A3789400C0EDEC28
:1046A000F2E021E030E0A12CB12C41914F3F81F0AC
:1046B000A42FA295AF70A05EB0E08C9190E04F70F7
:1046C00002C0959587954A95E2F7790180FF02C06F
:1046D000E12CF12CAE28BF28220F331F8E169F0627
:1046E00021F7F60182918F3F11F00E948F0750EA67
:1046F0005A95F1F7D801AD92BC920E5F1F4FBDECF9
:10470000CB16B2E0DB0609F0ADCF4AE050E0B201D3
:104710008AEE94E00E948E2B892BA9F08AE0F201A8
:10472000AAEEB4E001900D928A95E1F781E08093C2
:104730007C030E94FF1190937B0380937A032A9657
:10474000E0E10C944B2B80917C038115C1F3009127
:104750007A0310917B030E94FF11801B910B03973A
:1047600070F34AE050E06AEE74E088E195E00E9460
:104770008E2B892B49F08AE0EAEEF4E0A8E1B5E05F
:1047800001900D928A95E1F710927C03D8CFCDB7B6
:10479000DEB7A0970FB6F894DEBF0FBECDBF85B7CA
:1047A000806885BF85B7806885BF84B7877F84BFF1
:1047B0000FB6F894A895809160008861809360009E
:1047C000109260000FBE80E890E00FB6F8948093DE
:1047D0006100909361000FBE81E080931B018DE822
:1047E00097E090935103809350030E947D0C0E94A8
:1047F000CC0C8091E20084608093E20078948091F8
:104800002205811599F08091E9001091EC008F70DC
:10481000179511271795182B1092E9008091E80041
:1048200083FD0E94D6151F701093E90082E084BDBD
:1048300093E095BD9AEF97BD80936E000E94590F4B
:10484000811102C00E94720E08EC12E0D8018D9115
:104850008D018F3F11F00E948F07B2E00D3C1B07C6
:10486000A9F70DEC12E0F80181918F018F3F11F053
:104870000E948F07F2E00C3D1F07A9F78AE0E8E1EC
:10488000F5E0DF01282F1D922A95E9F7EAEEF4E022
:10489000DF011D928A95E9F780E090E00E94B32B3A
:1048A000853E9E4F21F40E94590F811163C065EE31
:1048B0007EEF80E090E00E94E72B60E082E090E0F5
:1048C0000E94C92B81E080938C0561E083E090E039
:1048D0000E94C92B60E074E184E090E00E94E72B25
:1048E00060E086E090E00E94C92B60E087E090E005
:1048F0000E94C92B40E050E0BA0188E090E00E949D
:10490000DB2B60E083E290E00E94C92B60E08CE04A
:1049100090E00E94C92B60E08DE090E00E94C92BDE
:1049200019821A821B821C821D821E821F82188697
:1049300048E050E067E170E0CE0101960E94B92B9B
:1049400040E050E0BA018FE190E00E94DB2B80E074
:104950000E94570E0E94720E40E050E0BA018FE0B4
:1049600090E00E94DB2B40E050E0BA0183E190E050
:104970000E94DB2B82E090E00E94AB2B8093F80436
:1049800084E090E00E94B32B9093D5058093D405EA
:104990000E941823EFEBFDE53197F1F700C000000E
:1049A0000E9418238091180580FF08C06FEF7FEFE9
:1049B00080E090E00E94E72B0E94460D83E090E0AB
:1049C0000E94AB2B0E949B040E94841081E0809384
:1049D000F40448E050E067E170E080E195E00E9477
:1049E0009B2B1092F404809110058430B8F489E078
:1049F000809310058091730190917401A0917501CD
:104A00008093110590931205A09313058FE780936F
:104A100014058FEF809315050E94720F21E040E08E
:104A200060E080E090E00E94DA098BE091E09093F2
:104A3000460580934505F2E24F2EF5E05F2EA3E098
:104A40006A2EA5E07A2E8091220510E403E08530DD
:104A500009F49FC00E94182379EFA72E74E0B72EA7
:104A6000E8E18E2EE5E09E2ED401F50121913191F1
:104A70008D919D916E167F0609F497C0281739070E
:104A8000A9F3312CF401019111914F01D501CD9081
:104A9000DD905D01C016D10659F1C026D126212C2A
:104AA000EE24E394F12CC6018E219F21892BB9F0CD
:104AB00029823A820E94FF119C838B83B1E0BD83DF
:104AC00091E098012E213F21232B09F490E09E8351
:104AD00049815A816B817C818D810E94442223947B
:104AE000EE0CFF1CEFE02E12DECFF50112930293C5
:104AF0003394F5E03F12C6CF0E94850B5CC08091D5
:104B00002205843009F439C00E947D0F8091F6049B
:104B100081110DC00E947708109217018091100535
:104B20008370809316010E94441000931501F1E0F8
:104B3000F093F6041092F50488E190E00FB6F89433
:104B4000A895809360000FBE1093600083B7817FAB
:104B5000846083BF83B7816083BF7894889583B76F
:104B60008E7F83BF0FB6F894A8958091600088610E
:104B700080936000109260000FBE0E941823E8E14D
:104B8000F5E081919191892B09F002C34E165F06E1
:104B9000C1F780912205853009F4B1CF0E948F15AD
:104BA0000E94C90A1092F60455CF2817390709F058
:104BB00068CF0E94F52200917B0510917C050115BC
:104BC000110591F1C0900705D0900805E090090506
:104BD000F0900A050E94850B6C197D098E099F09CA
:104BE000C0900305D0900405E0900505F0900605FF
:104BF0006C157D058E059F05B8F0C8010E947214E2
:104C000010927C0510927B05109207051092080502
:104C10001092090510920A051092030510920405DE
:104C20001092050510920605E0908305F09084052A
:104C3000E114F104F1F000918505109186050E94C0
:104C4000FF11801B910B893C910598F0C7019927B2
:104C500025E0E21608F016C144E0880F991F4A9536
:104C6000E1F7835E9E4FDC0115962C9122FF0E9496
:104C7000E1120E947D0F86E0E0E7F5E0DE0111968B
:104C800001900D928A95E1F7B0907105D090720570
:104C900010917305C090740500917505109272050E
:104CA000109273051092740510927505812F8D294D
:104CB000811509F441C0E0900D05F0900E050E94A9
:104CC000FF119C012E193F0990916E05911509F471
:104CD0005AC22531310580F19F3F19F09F5F9093B3
:104CE0006E05D11459F00E947F0A91E01D140CF05A
:104CF0009FEF899F802D112480937205111559F023
:104D00000E947F0A91E011160CF09FEF899F802D81
:104D100011248093730580917205811569F0F090DC
:104D20007305F11449F00E94710A809372058F2D6A
:104D30000E94710A809373058C2D802B811509F4D4
:104D400041C0E0900B05F0900C050E94FF119C0102
:104D50002E193F0990916D05911509F40FC2213567
:104D6000310580F19F3F19F09F5F90936D05C1144D
:104D700059F00E949F0A91E01C140CF09FEF899F4C
:104D8000802D112480937405011559F00E949F0A0B
:104D900091E010160CF09FEF899F802D11248093D5
:104DA000750580917405811569F0F0907505F11411
:104DB00049F00E94710A809374058F2D0E94710A38
:104DC00080937505809171058B1119C080917205D2
:104DD000811511F08D1113C020917305211511F06B
:104DE00021130DC090917505911511F0901307C016
:104DF00030917405311103C0822B892B81110E94DF
:104E0000151386E0FE013196A0E7B5E001900D9202
:104E10008A95E1F70E94C90A90910F05891721F040
:104E200080930F050E94850B80912205843009F044
:104E30000ACE83E08093E9008091E80082FF03CEF0
:104E40008091E80090E085FF0BC00E944C0C30E29E
:104E5000E32EF12C8E010F5F1F4F8115F9F091E0C9
:104E60008091E8008B778093E800911509F4EBCDF1
:104E70008981EFEFE80FE33158F5F0E0E75AF34DA1
:104E80000C94782B80E090E0EECE8091F100F80158
:104E900081938F01F1E0EF1AF10809F38091E800A6
:104EA00085FDF3CF8091E8008B778093E8000E9426
:104EB0004C0C811599F3D3CF1A828CE08B831AC0E6
:104EC0008A81833049F138F4813061F08230D9F041
:104ED0008FEF89830FC08430D9F71B821C821D821B
:104EE0001E8208C00E94850B0E947E2B6B837C83F0
:104EF0008D839E8340E250E0BE016F5F7F4F82E072
:104F00000E946A0DA0CD87E290E00E94AB2B1B822D
:104F10001C821D828E83EECF8B8190E0FE01319644
:104F200032968530910534F7DC01AA0FBB1FA85ECD
:104F3000BA4F2C9111963C91318322830196F0CF88
:104F40008A81823031F0853019F680E00E94810933
:104F5000D1CF6B817C818D819E810E947E2B87E2E7
:104F600090E00E94C92BC6CF4C816B818A810E9440
:104F7000820E9827892798279E838D83BBCF2D810A
:104F80003E813227232732274C816B818A810E9400
:104F9000E70DB0CF0E940E0EADCF9A81933009F08D
:104FA00097CF8830B9F1893009F458C08B818330AC
:104FB00051F158F4813091F0823009F09BCF8C810F
:104FC00081111AC00E949A0995CF843009F092CFBE
:104FD0008C8120E0409113056D810AC04C812FEF38
:104FE000429F412D11248091110520E0609112050E
:104FF00090E00E94DA097ECF0E948C0960E08C81EB
:105000000E94A60977CF8C818093140580E00E94CE
:105010006B0870CF8B818330F1F078F48130B9F078
:10502000823009F067CF80911005982F9370869594
:10503000869591110EC080E00CC0843009F05ACFE3
:10504000809111058C83809112058D8353CF8091BF
:1050500013058C834FCF80911405FBCF0E94720FF4
:1050600049CF80E18A8346CF1A828AEE27CF0A8110
:105070001B811027012710278C816801C80ED11CC5
:105080007E0125E0E20EF11CC016D10609F432CFF4
:1050900080E00A3E110528F4C8018A5E9C4F0E94F8
:1050A000AB2BD7018D937D010F5F1F4FEDCF0A8191
:1050B0001B81102701271027FE0131967F018C816B
:1050C0006F01C80ED11CCE14DF0409F413CF0A3EC1
:1050D000110540F4D70114966C91C8018A5E9C4F6B
:1050E0000E94C92B0F5F1F4FBFEFEB1AFB0AEBCFDC
:1050F0000E94470EFFCE85E0B5CF0A811B811027A5
:10510000012710278C816801C80ED11C7E01E5E0C3
:10511000EE0EF11CC016D10609F4ECCE80E00E3E76
:10512000F2E01F0720F4C80188960E94AB2BD7013C
:105130008D937D010F5F1F4FEDCF0A811B811027DB
:1051400001271027FE0131967F018C816F01C80E67
:10515000D11CCE14DF0409F4CDCE0E3EF2E01F07C1
:1051600038F4D70114966C91C80188960E94C92B17
:105170000F5F1F4FBFEFEB1AFB0AEBCF2B30310550
:1051800008F0F2CD1FCE2B30310508F0A7CDD4CDDD
:105190008091F704811509F4FCCC90E199BDA2E15E
:1051A000A9BD09B400FEFDCF8091D8008F7D80930A
:1051B000D8008091E00082608093E0008091E00060
:1051C00081FDFCCF0E948F15E4CC78941F921FB60E
:1051D0001F9211248F939F93AF93BF93809192035B
:1051E00090919303A0919403B09195030196A11D12
:1051F000B11D8093920390939303A0939403B09373
:105200009503BF91AF919F918F911F901FBE1F90EB
:1052100018951F920F920FB60F9211242F933F9360
:105220004F935F936F937F938F939F93AF93BF93AE
:10523000EF93FF938091E10082FF09C08091E2002B
:1052400082FF05C08091E1008B7F8093E100809117
:10525000DA0080FF24C08091D80080FF20C08091B8
:10526000DA008E7F8093DA008091D90080FFA9C098
:1052700080E189BD82E189BD09B400FEFDCF81E0F6
:105280008093220580918103811109C00E947D0CC9
:105290000E94CC0C8091E20084608093E2008091B7
:1052A000E10080FF1AC08091E20080FF16C080916B
:1052B000E2008E7F8093E2008091E2008061809323
:1052C000E2008091D80080628093D80019BC85E00C
:1052D0008093220583E080931B018091E10084FF8D
:1052E0002FC08091E20084FF2BC080E189BD82E164
:1052F00089BD09B400FEFDCF8091D8008F7D8093D9
:10530000D8008091E1008F7E8093E1008091E200DF
:105310008F7E8093E2008091E20081608093E200C2
:1053200080918003811509F452C084E080932205A6
:1053300080912205843009F052C082E080931B01E5
:105340008091E10083FF2CC08091E20083FF28C0A0
:105350008091E100877F8093E10082E080932205C5
:10536000109280038091E1008E7F8093E100809114
:10537000E2008E7F8093E2008091E2008061809362
:10538000E20042E060E080E00E949C0C8091F0002E
:1053900088608093F00081E080931B0180931A0164
:1053A000FF91EF91BF91AF919F918F917F916F91FD
:1053B0005F914F913F912F910F900FBE0F901F90D3
:1053C000189519BC109222051092810368CF809124
:1053D000E30087FF02C083E0A9CF81E0A7CF81E08F
:1053E000ADCF1F920F920FB60F921124EF92FF9242
:1053F0000F931F932F933F934F935F936F937F93DD
:105400008F939F93AF93BF93CF93EF93FF9309EE47
:1054100010E0F8018081C091EC008F70C795CC2717
:10542000C795C82B108280EFE82EF12CF701808100
:10543000877F808378940E94D615F8011082F70147
:10544000808188608083CF70F801C083FF91EF91E5
:10545000CF91BF91AF919F918F917F916F915F910C
:105460004F913F912F911F910F91FF90EF900F90CF
:105470000FBE0F901F901895FF920F931F93CF931D
:10548000DF93182FEB011092BC0084EA8093BC00DC
:105490000E94FF11082FF92E8091BC0087FF28C0C1
:1054A0008091B900887F883029F08091B900887F89
:1054B0008031A1F51093BB0084E88093BC000E946A
:1054C000FF11182F092F8091BC0087FF1FC020916A
:1054D000B900287F80E090E0283199F081E090E0E9
:1054E000203411F480E090E091958195910909C0F4
:1054F000802F9F2D0E940B13C817D90768F68EEFD7
:105500009FEFCDB7DEB7E5E00C94562B812F902F9F
:105510000E940B13C817D907B0F6F1CF8FEF9FEF9A
:10552000F0CF1092B9008CE08093B80008950F93EB
:105530001F93CF93DF93EB018093BB0084E88093AC
:10554000BC000E94FF11182F092F8091BC0087FF1B
:1055500011C02091B900287F81E090E0283211F439
:1055600080E090E0919581959109DF91CF911F9115
:105570000F910895CF3FDC0741F3812F902F0E94B8
:105580000B13C817D90708F78EEF9FEFEECFA0E0F7
:10559000B0E0EDECFAE20C94312B682E962E5A0115
:1055A000690178010E94FF11782E892E04311105BE
:1055B00030F10F3F100731F1C80164E170E00E9443
:1055C000192B162F072F612F702F862D0E943C2A32
:1055D000EC01892BC9F0FFEFEF16FF06A1F3872D31
:1055E000982D0E940B13E816F90668F784E980935A
:1055F000BC00CE01CDB7DEB7EEE00C944D2B11E030
:1056000000E0E1CF15E0FCCFB701892D0E94972A79
:10561000EC018501CA0CDB1C0C151D0539F3209724
:1056200029F7B701F80181918F010E94972AEC01B7
:10563000F3CFAA1BBB1B51E107C0AA1FBB1FA617B4
:10564000B70710F0A61BB70B881F991F5A95A9F72B
:1056500080959095BC01CD0108952F923F924F9275
:105660005F926F927F928F929F92AF92BF92CF92F2
:10567000DF92EF92FF920F931F93CF93DF93CDB7FB
:10568000DEB7CA1BDB0B0FB6F894DEBF0FBECDBF73
:1056900009942A88398848885F846E847D848C8444
:1056A0009B84AA84B984C884DF80EE80FD800C814D
:1056B0001B81AA81B981CE0FD11D0FB6F894DEBF30
:1056C0000FBECDBFED01089597FB072E16F4009491
:1056D00007D077FD09D00E94192B07FC05D03EF4B6
:1056E000909581959F4F0895709561957F4F08958E
:1056F000EE0FFF1F0590F491E02D0994692796277E
:1057000069277827872778270895FB01DC0102C0E5
:1057100005900D9241505040D8F70895FB01DC01EF
:1057200004C08D910190801921F441505040C8F778
:10573000881B990B0895DC01CB01FC01F999FECF80
:1057400006C0F2BDE1BDF89A319600B40D92415009
:105750005040B8F70895F999FECF92BD81BDF89AEF
:10576000992780B50895A8E1B0E042E050E00C949C
:105770009D2BDC01A40FB51F4150504048F0CB01D8
:10578000840F951F2E910E94CA2B41505040D0F794
:105790000895262FF999FECF92BD81BDF89A019701
:1057A00000B4021639F01FBA20BD0FB6F894FA9A69
:1057B000F99A0FBE08950396272F0E94CA2B0E94C4
:1057C000C92B252F0E94CA2B242F0C94CA2B01967B
:1057D000272F0E94CA2B0C94C92BF894FFCF491392
:1057E000511354135A136F136F136F136F136F13F7
:1057F0006F136F136F135D13621366136C137D13B6
:1058000083138713B816DE16E416DE16E416371770
:105810005917E41655186218041D6C1D0C1DD61C72
:10582000DA1C101DDE1C141D201DEA1C651DEE1C5B
:10583000241DF21C281D4D1DF61C2C1D541DFC1C86
:10584000321D3A1DE21C181DE61C1C1D001D361DD4
:10585000441D5D1D631DD01C081D731DAD1CB11CB6
:10586000A31CA91CB51CB91CBD1CB01DB61D861DF2
:105870008A1DB91D8F1DBE1D941DC31D991DC81DF8
:105880009E1DCD1D9B1E9B1ED51ED51E7D1F981FC8
:10589000011F011F9D1F102021202120861D8A1D10
:1058A000B91D8F1DBE1D941DC31D991DC81D9E1DB4
:1058B000CD1D5C276027A027B427BF27CA27CD2787
:1058C000CD27CD276827682731283428372857283F
:0858D00078287B287D289D2823
:1058D8004E004D004B004A0000FF00820BA40DBB98
:1058E8000DC20DC90D03FFFF0000010001000000FB
:1058F80000000000001215BD0400000000000000B8
:105908000000000000D018CF0400000000000000D4
:105918000000000000B218C70400000000000000EA
:1059280000000088149914E8140000040100000025
:1059380000000088149914E8140000000101000117
:1059480000010000FFFF2D0010FF001045020700B6
:1059580000000000002E0010FF00104504070000A2
:10596800000000002A0022FF00224C00070000006F
:105978000000004422B684016201AC00DA01F301A0
:1059880013027477000102030405060708090A0BCD
:105998000C0D0E0F101112131415161718191A1BC7
:1059A8001C1D1E1F20212223242526272829FF2AE3
:1059B8002B2C2D2E2F3031323334353637FF3839F2
:1059C8003A3B3CFFFF3DFFFF3EFF3F40FF414200A7
:1059D800000F001E002D003C004B005A00690078A3
:1059E8000087009600A500B400CB00E00004101763
:1059F8001026103510441053106210711080108F4B
:105A0800109E10AD10BC10CE10E01006201A2029F0
:105A1800203820472056206520742083209220A11A
:105A280020B020C920E02009302230313040304FEA
:105A3800305E306D307C308B309A30A930BD30D23A
:105A480030E03002401540274060409840AB40C3EA
:105A580040D240E0400104040404040404040404A3
:105A680004040401010404040404040404040404F4
:105A780004040101040404040404040404040404E4
:105A880001010404040404040404040404040101DA
:105A98000101040101010101F0F1F4C666F7F6F510
:105AA800673031323334979694959392E200E90047
:105AB800EA00B500B600B700CD008301CC008A012A
:105AC80092019401210223022402250226022702C0
