:100000000C940A040C9442040C9442040C94420490
:100010000C9442040C9442040C9442040C94420448
:100020000C9442040C9442040C945D110C94061838
:100030000C947A240C9442040C9442040C944204D0
:100040000C9442040C9442040C9442040C94420418
:100050000C9442040C9436120C9442040C94420406
:100060000C9442040C9442040C9442040C944204F8
:100070000C9442040C9442040C9442040C944204E8
:100080000C9442040C9442040C9442040C944204D8
:100090000C9442040C9442040C9442040C944204C8
:1000A0000C9442040C9442040C944204050109028D
:1000B000A10185020901A1000509190129081500FE
:1000C0002501950875018102050109300931158165
:1000D000257F95027508810609381581257F9501D0
:1000E00075088106050C0A38021581257F95017572
:1000F000088106C0C005010980A101850319012AF4
:10010000B700150126B700950175108100C0050CD8
:100110000901A101850419012AA002150126A002E6
:10012000950175108100C005010906A1018506052C
:100130000719E029E71500250195087501810205D9
:1001400007190029EF1500250195F07501810205B9
:10015000081901290595057501910295017503910D
:1001600001C00660FF0961A1010962150026FF00B8
:100170009520750881020963150026FF00952075FA
:10018000089102C005010906A101050719E029E748
:1001900015002501950875018102950175088101F9
:1001A0000507190029FF150026FF0095067508812F
:1001B000000508190129059505750191029501753C
:1001C000039101C0000000000000000000000000DA
:1001D000000000000000000000000000000000001F
:1001E00000000000000000007E0F00D4FFFFFFC7EA
:1001F0000000007800000000000000002A2B28000A
:1002000000000000000000000000000000000029C5
:10021000000000002C1E3420212224342627252E05
:10022000362D3738271E1F2021222324252633333D
:10023000362E37381F0405060708090A0B0C0D0E69
:100240000F101112131415161718191A1B1C1D2F35
:100250003130232D350405060708090A0B0C0D0E55
:100260000F101112131415161718191A1B1C1D2F15
:100270003130354C0001010101010101010102028F
:100280000202020202020203030303030303030444
:10029000040404040404050505050506060606060F
:1002A000070707070708080808090909090A0A0AC9
:1002B0000B0B0B0C0C0C0D0D0D0E0E0E0F0F0F106B
:1002C00010111111121213131414151516161717F5
:1002D000181819191A1A1B1B1C1D1D1E1E1F202061
:1002E000212222232424252626272829292A2B2CAB
:1002F0002D2D2E2F30313232333435363738393ACE
:100300003B3C3D3E3F404142434445464748494AC5
:100310004C4D4E4F50515354555658595A5B5D5E93
:100320005F616264656668696B6C6D6F707273752E
:1003300077787A7B7D7E8082838587888A8C8E8F92
:1003400091939596989A9C9EA0A2A3A5A7A9ABADC0
:10035000AFB1B3B5B7BABCBEC0C2C4C6C9CBCDCFAE
:10036000D1D4D6D8DBDDDFE2E4E7E9EBEEF0F3F55C
:10037000F8FAFDFF009B8B7B00AB8A7A00AA9A7982
:1003800000A9998900A8988800A7978700A6968653
:1003900000A5958500A49484003C4C5C002C4D5D28
:1003A000002D3D5E002E3E4E003040500031415148
:1003B000002A3A4A00293949002838480027374797
:1003C0000026364600253556002445550034445451
:1003D00000AC9C8C00AD9D8D00AE9E8E00AF9F8FBB
:1003E00000B0A09000B1A19100324252002B3B4BD3
:1003F00001A9998901A8988801A7978701A69686DF
:1004000001A5958501A49484013C4C5C012C4D5DB3
:10041000012D3D5E012E3E4E012F3F4F01304050D9
:100420000033435301AB8A7A012838480127374704
:1004300001263646012535560124455501AC9C8CD4
:1004400001AD9D8D01AE9E8E01AF9F8F0131415157
:10045000013242520133435300B2A281019B8B7B94
:10046000012B3B4B012A3A4A0134445401B1A1917A
:1004700001B2A28101A3938300A3938300B392826C
:10048000167C1E001F0020002100220023002400F3
:100490002500260027002D002E002A004A002B00F0
:1004A00014001A000800150017001C0018000C00AA
:1004B000120013002F00300031004B0000570400E1
:1004C0001600070009000A000B000D000E000F00C7
:1004D00033003400000028004E00E1001D001B0026
:1004E0000600190005001100100036003700380022
:1004F0000157000052004D00E000E300E200000060
:1005000000002C000000000002570000E400500032
:10051000000051004F0035003A003B003C003D0018
:100520003E003F00400041004200430044004500BF
:100530004C00490001004A0052004D004B000100F0
:1005400001000100010001000100010001000100A3
:1005500046000100500051004F004E000100010014
:100560000100010001000100010000000100010084
:10057000010001000100B20001000100110A29037D
:100580000100010001000100000001000100010064
:1005900001000100000000004C000000000001000C
:1005A000000065210100000001000100350001008C
:1005B000010001000100010001005F006000610016
:1005C0000100560057004C02A60001004A005200EC
:1005D0004D004B00010001005C005D005E00010069
:1005E00055005400010001000100500051004F006F
:1005F0004E000100010059005A005B00010001009B
:10060000000001000100010001000100B200010032
:10061000010001006200620063005300010000005D
:100620000100010001000B7001000000000001004A
:1006300000000000010000000100010000000100B6
:10064000010020782B78010001001370AA00A90096
:10065000AE00A800010001000100010001002578A2
:100660000100010001000100010001000100010082
:1006700001000100010001000100007C267801005A
:100680000100010001000100010001000100010062
:100690000100010001000000037C2378010001003B
:1006A0000100010001000100010010030100010030
:1006B0000100010000002178247801000100010000
:1006C0000000000001000000000000520000045281
:1006D0002878000022782778167C1E001F00200052
:1006E00021002200230024002500260027002D00E1
:1006F0002E002A00A8002B0014001A000800150084
:1007000017001C0018000C00120013002F0030000E
:1007100031006800390004001600070009000A00D3
:100720000B000D000E000F00330034000000280005
:100730006900E1001D001B00060019000500110002
:100740001000360037003800E50000005200E300DA
:10075000E0000000E200000000002C0000000000AB
:1007600000520000E4005000000051004F00090258
:100770005B00030100A0FA0904000001030101006D
:100780000921110100012240000705810308000131
:1007900009040100020300000009211101000122E7
:1007A0002200070582032000010705030320000142
:1007B00009040200010300000009211101000122C7
:1007C000B6000705840320000112010002000000AA
:1007D00008424B251202000102000120036B006257
:1007E000006400360037006D006B0069006900721C
:1007F0000067006200200076003200000010034B0A
:100800000042004400660061006E007300000004B6
:100810000309040011241FBECFEFDAE0DEBFCDBF15
:1008200004B603FE18C08091A6059091A705A0917B
:10083000A805B091A9058730904BA740B04B59F45B
:100840001092A6051092A7051092A8051092A9056E
:10085000E0E0F8E3099512E0A0E0B1E0E8E0F9E5B6
:1008600002C005900D92A43EB107D9F725E0A4EE91
:10087000B2E001C01D92A63AB207E1F70E94A1249E
:100880000C941B2C0C940000E8EDF0E080818E7F2E
:1008900080831092E2001092DA001092E100A0EE44
:1008A000B0E08C9181608C9380818F77808319BCBC
:1008B000A7EDB0E08C918E7F8C9380818F7E8083BA
:1008C00010926E0508952091E4003091E50095E6C0
:1008D000A9012091EC00822F817020FF06C0809139
:1008E000E80080FF06C080E008952091E80022FD26
:1008F0001AC080919305882389F0853089F0809112
:10090000EB0085FD0FC02091E4003091E500421717
:100910005307F9F29150E1F684E0089582E00895DA
:1009200083E0089581E008958091950587FF13C0C5
:100930008091E80082FF06C08091E8008B77809369
:10094000E80004C0809193058111F2CF0895809151
:1009500093058823D9F38091E80080FFF8CF809138
:10096000E8008E77ECCF982F9093E900242F762F14
:1009700050E0891731F07091EC002091ED0050911A
:10098000F00021FD07C09F5F973071F78093E90069
:1009900081E008953091EB003E7F3093EB00309181
:1009A000ED003D7F3093ED003091EB0031603093EE
:1009B000EB007093EC002093ED005093F000209139
:1009C000EE0027FDE0CF80E00895B0E0A0E0EBEE80
:1009D000F4E00C945C2BC8EDD0E088818F7E888396
:1009E000E7EDF0E080818160808384E082BF81E078
:1009F00080936E0588818E7F888302EE10E0F80177
:100A000010821092DA0081EEC82ED12CF6011082ED
:100A100088818F77888388818068888388818F7DAB
:100A2000888319BC10929305109294051092920538
:100A30001092910590EEE92EF12CF70180818B7FC9
:100A4000808388818160888342E060E080E00E944A
:100A5000B304F60180818E7F8083F80180818160FC
:100A60008083808188608083F70180818E7F80838E
:100A7000888180618883CDB7DEB7E8E00C94782B5D
:100A8000FC0180919B0590919C0586179707A0F02B
:100A90006115710529F49091E8009E779093E80024
:100AA00090E06115710551F4911108C08091E80042
:100AB00082FF34C080E00895BC01F2CF809193059D
:100AC0008823C1F18530C1F18091E80083FD30C0F9
:100AD0008091E80082FDEACF8091E80080FFE1CFBD
:100AE0008091F3002091F200382F6115710519F003
:100AF0002830310558F091E02830310509F090E0B8
:100B00002091E8002E772093E800CBCF819180934D
:100B1000F100615071092F5F3F4FE7CF809193053E
:100B2000882341F0853041F08091E80083FFBECFFB
:100B300081E0089582E0089583E008958091700532
:100B400008952FB7F89460916A0570916B058091B4
:100B50006C0590916D052FBF0895209147012223C8
:100B6000C1F02091A40527FF14C0E62FE695E69575
:100B7000E695EE31F8F4E80FF92FF11D677021E0EA
:100B800030E001C0220F6A95EAF78281822B8283CE
:100B90000895FC0132962FEF30E04191641751F037
:100BA0002F3F19F4411101C0232F3F5F3630A9F7C1
:100BB0002F3F09F40895820F911D27FD9A95FC019E
:100BC00062830895A3E0B0E0E8EEF5E00C94622BB8
:100BD000209167053091680528173907A1F0909397
:100BE000680580936705E0916505F091660530978B
:100BF00051F024E029839B838A830680F781E02DCE
:100C0000CE01019609952396E2E00C947E2BA3E099
:100C1000B0E0EDE0F6E00C94622B2091630530919A
:100C2000640528173907A1F0909364058093630544
:100C3000E0916505F0916605309751F023E0298336
:100C40009B838A830680F781E02DCE01019609956A
:100C50002396E2E00C947E2BE0916505F091660509
:100C6000309729F00190F081E02D0995089580E0FA
:100C70000895CF93DF93EC014091540550915505B1
:100C800060915605709157052FB7F89480916A05C9
:100C900090916B05A0916C05B0916D052FBF841BE1
:100CA000950BA60BB70B843F9140A105B10518F534
:100CB0008091540590915505A0915605B091570526
:100CC0008093500590935105A0935205B09353051E
:100CD00084EF91E0A0E0B0E080934C0590934D0547
:100CE000A0934E05B0934F05D0935C05C0935B0570
:100CF000DF91CF9108950E94A105609350057093F4
:100D00005105809352059093530582E390E0A0E053
:100D1000B0E0E2CFFC018481862351F492819923D3
:100D2000B9F06923808583FF05C081E061110FC0A0
:100D300080E00895892F8F7092959F70982B862F51
:100D40008F7062956F70682B81E09613F1CF0895D4
:100D500081E0FDCFFA01811101C0FB0109950895E1
:100D6000EAEEF3E0248130E1231B08F420E0248341
:100D70008091E90381608093E9030895EAEEF3E04E
:100D8000248130E1230F08F42FEF24838091E903BD
:100D900081608093E90308959091EA03937059F07C
:100DA0008093EB036093EC034093ED038091E903A0
:100DB000822B8093E9030895EAEEF3E0438120E17A
:100DC000421B08F440E0818121E0628190E00E94B2
:100DD000CC060895EAEEF3E0438120E1420F08F4E7
:100DE0004FEF818121E0628190E00E94CC0608955E
:100DF000EAEEF3E0628120E1621B08F460E08181A9
:100E000021E0438190E00E94CC060895EAEEF3E0F1
:100E1000628120E1620F08F46FEF818121E043815C
:100E200090E00E94CC060895EAEEF3E0818121E093
:100E3000438162818850990B0E94CC060895EAEEA6
:100E4000F3E0818190E021E04381628108960E9475
:100E5000CC0608958091EA03837051F084608093FA
:100E6000EA03109246018091E903862B8093E903FF
:100E700008958091EA0386958695815009F481E072
:100E800061E00E942A07089561E081E00E942A073C
:100E900008950E943A0E08950E94FC0D0895B0E056
:100EA000A0E0E5E5F7E00C94572B182F8091420164
:100EB000811321C09091EA0393702091410130E0A9
:100EC00081E09217130609F480E081708093450158
:100ED0008091EF0390914401981739F08093440179
:100EE00040E060E080E00E944907112331F01130BA
:100EF00071F080E02DC081E0E8CF8091450188232A
:100F000039F140E060E080E00E944907F2CF909024
:100F10004301990C990C04E0090D802E043410F063
:100F200023E4822E4091EB03D090EC03E091ED039B
:100F3000F0E0EC58FD4FD11023C0F490DF2DCF2D01
:100F4000C92CD12CC81408F48FC081E0033488F672
:100F5000909143019F5F9093430181110CC082E007
:100F60008093460180914501811105C0111103C094
:100F700083E080934601CDB7DEB7EDE00C94732B90
:100F8000ED2CF12CC4917C2EEC2FF0E026E0429F5A
:100F9000C00111242FEF30E0B9010E943E2B842FB5
:100FA00090E0880F991FA5E5A69FA001A79F500D6F
:100FB0001124841B950BC82ECC0CC80ED901AE1978
:100FC000BF09AE9FA001AF9F500DBE9F500D1124D1
:100FD000D52FDC9CD0011124AB2FBB27C9018A1B64
:100FE0009B0B8E9FD0018F9FB00D9E9FB00D112443
:100FF0005901AC18B108AE9C6001AF9CD00CBE9CEE
:10100000D00C1124CD2CDD242C193D092E9FC001BC
:101010002F9F900D3E9F900D1124F92E6230710587
:10102000A1F050F46115710509F48ACF61307105A2
:1010300081F0F52EDB2F84CF6430710569F080F0EC
:101040006630710509F47CCFF4CFFC2EC52FD92F63
:1010500077CFFC2ECB2F74CFF52EDC2FC92F70CF7E
:10106000C52FD72DFB2E6CCFF601EE56FD4F80819C
:1010700090914401892331F02D2F4F2D6C2FC60103
:101080000E944C078FEFC81AD80A5CCF8091AC033E
:1010900080FD16C081FD16C082FD16C08091AB0395
:1010A0008823A1F0883280F428E0829FC0011124B7
:1010B00068E270E00E94892B862F672B39F0089533
:1010C00082E0089584E0089588E0089581E008951D
:1010D0008091AC0380FD14C081FD14C082FD16C058
:1010E0008091AA03882381F08E3180F420E5829FCD
:1010F000C00111246EE170E00E94892B862F0895B3
:1011000084E1089588E2089588E0089580E50895CF
:1011100080E00895F894E82FE295EF70F0E031A1B7
:10112000282F2F7081E090E001C0880F2A95EAF700
:10113000982F9095932391A392A1892B82A37894C1
:1011400008959091A40592FF06C0282F2871283099
:10115000F9F4877F846093FF06C0282F2871283117
:10116000F1F4877E84612091A50520FF06C0382F09
:1011700038713830D9F4877F816021FF06C0282F6D
:1011800028712831D1F4877E816194FD877E08958E
:10119000282F24712430F9F68B7F8860DCCF282F2C
:1011A0002471243101F78B7E8861DDCF382F3171B6
:1011B000313019F78E7F8860E0CF282F21712131DF
:1011C00021F78E7E8861E1CFCF93DF93EC018238E7
:1011D0009105B9F108F041C08133910509F49FC030
:1011E00050F58932910509F48FC08A9709F49EC0A1
:1011F000C11520E5D20708F0BDC0C11530E4D30702
:1012000008F00AC1C03ED10508F0A5C0CD3CD1050B
:1012100008F000C1C83AD10508F08FC0C53AD10521
:1012200008F0F0C0C130D10539F1209729F1C43060
:10123000D10510F546C08533910509F460C0C99702
:10124000B9F68091A405837009F044C18091A50589
:1012500083FF12C0C9E2D0E00FC0833E9105A1F127
:1012600078F4803E910509F1823E910509F0C0CFE6
:101270008091A40582FD21C0CE01DF91CF91089518
:10128000863E910561F1873E910571F1843E91059D
:1012900009F0AECF8091A50581FFEECF8091A40526
:1012A000C7EED0E084FD0DC0E7CF8091A40580FD9E
:1012B00033C09091A50590FFDFCFC3EED0E084FF4F
:1012C000DBCFD0E0C0E0D8CF8091A40582FDFFC085
:1012D0009091A50590FDFEC084FFCECFF2CF809106
:1012E000A40583FDDDCFC8CF8091A40583FDF5C0A3
:1012F0009091A50591FFF0CFC4EED0E0BDCF8091D5
:10130000A40585FFB9CFA6CF8091A40585FDE8C0CF
:101310008091A50583FFB0CFC9E3D0E0ADCF809128
:10132000A40586FFA9CFCAE2D0E0A6CF8091A4058C
:1013300086FFA2CFC1E3D0E09FCFC13CD10508F624
:10134000C85AD0E0CC0FDD1FC558DE4F0990D881B8
:10135000C02DD46491CFC11540E2D40708F0AAC0D3
:10136000C11581E0D80708F087CFC83ED10508F441
:1013700083CFA7CFC03622E5D20718F5C03432E5B7
:10138000D30708F053C0C03242E5D40708F047C085
:10139000C11582E5D80708F47FC02C2F2695269525
:1013A00040E2249F900111248C2F8370C1E0D0E093
:1013B00002C0CC0FDD1F8A95E2F7C22BD32BDD686C
:1013C0005BCFC03A22E5D20760F4C03832E5D307DC
:1013D00008F441C0CF71D0E0DC2FCC27C46FD06AB5
:1013E0004BCFC03C42E5D40708F44AC0C03E82E57A
:1013F000D80708F066CFDC2FCC27CC27DF71C06F71
:10140000D06A3ACFC55AD0E0C858DE4FC881D0E084
:10141000D06432CFD06530CFDF70D06A2DCFCF719E
:10142000D0E0DC2FCC27C16FD06A26CF2C2F269599
:101430002695277080E2289F900111248C2F8370BD
:10144000C1E0D0E002C0CC0FDD1F8A95E2F7C22BCD
:10145000D32BDC6811CF2C2F26952695277040E2E0
:10146000249F900111248C2F8370C1E0D0E002C032
:10147000CC0FDD1F8A95E2F7C22BD32BDA68FCCEA6
:101480008C2F8F710E94A108C82FD0E0DC2FCC27B1
:10149000CC27DF71D062F0CE8C2F8F710E94A10813
:1014A00035E0D695C7953A95E1F7CF709C2FEC01C2
:1014B000D069E2CE8D2F8F710E94A10890E0982F05
:1014C000882788279F719C012C2BE901E3CFC2EE6E
:1014D000D0E0D2CEC0EED0E0CFCEC6EED0E0CCCEC3
:1014E000C5E3D0E0C9CE80918103882331F010920A
:1014F00081031092800310927F030895809590914C
:101500006005982390936005089590914701992371
:10151000D1F09091A40597FF16C0E82FE695E695C7
:10152000E695EE31E0F4F0E0EA51FD4F282F277008
:1015300081E090E001C0880F2A95EAF780959281BA
:10154000892382830895E8EEF2E09191891303C024
:10155000DF0111971C9292E0EE3EF907B1F7089572
:1015600020915E0390912D0356E0291302C080E084
:10157000089530E0529FF001539FF00D1124E25D79
:10158000FC4F7181761306C07081781303C072819D
:10159000741304C02F5F3F4F2770E7CF81E0089599
:1015A00080915E0390912D03981301C008958F5F81
:1015B0008770FACF292F953078F58F3068F590E055
:1015C0003FE0239F800D911D1124682F677023E059
:1015D000969587952A95E1F7FC01EE0FFF1FE80F1E
:1015E000F91FE75FFC4F50E040E080E0219130E0E0
:1015F000062E02C0369527950A94E2F7217033270C
:10160000042E01C0220F0A94EAF7822B4F5F5F4F2E
:101610004330510559F7089580E00895292F9530FA
:1016200098F58F3088F590E03FE0239F800D911D65
:101630001124282F277041E001C0440F2A95EAF7B2
:1016400023E0969587952A95E1F7FC01EE0FFF1FA1
:10165000E80FF91FE75FFC4F30E020E070E05191A8
:10166000DF011197CB01022E02C0969587950A944F
:10167000E2F7817081958527842385278C932F5FDE
:101680003F4F2330310559F708958093A005089501
:101690008091A005982F9670963021F488600E9462
:1016A000450B0895877FFBCF21E030E001C0220F7A
:1016B0008A95EAF720958091A00582230E94450B28
:1016C00008959091A305809589238093A305282FE1
:1016D0002770B1F4282F082E000C330B9217130635
:1016E00079F09091A50592FF0BC08595859585951C
:1016F0000E94540B1092A3051092A2051092A1050E
:10170000089521E030E001C0220F8A95EAF7809128
:10171000A005822B0E94450B0895809382030895B3
:10172000982F92959F7011F0892F94E0282F26957D
:10173000269511F09E5F822F869509F09F5F892F75
:1017400008959C013A9521153F4150F5FC01EE2783
:10175000F170BC0166277270AC01442754709C0183
:101760002227387094FF0EC080E1EF2B09F480E04F
:10177000672B09F08062452B09F08064232B89F0E8
:101780008068089581E0EF2B09F480E0672B09F071
:101790008260452B09F08460232B19F0886008953E
:1017A00080E0089580910B01833019F482E00E945B
:1017B000540B089580910901833019F481E00E944F
:1017C000540B109209010895FC019281913029F483
:1017D000858180FF06C083E00895923021F081E08A
:1017E000089582E0089584E008950F931F93CF93A6
:1017F000DF938B01EA0190919305943061F580931A
:10180000E9008FEF9091E800815095FD06C095EDBD
:101810009A95F1F700008111F5CF8091E80085FFDE
:101820001AC00E946304811111C08091E80085FDF7
:1018300006C08091E8008E778093E800F2CFF8012F
:1018400081918F018093F100219779F78091E800D1
:101850008E778093E800DF91CF911F910F910895CB
:1018600043E050E0BC0184E00E94F50B089546E09F
:1018700050E0BC0184E00E94F50B0895CF93DF9304
:10188000EC0180914701811111C048E050E0BE0198
:1018900081E00E94F50B80E2FE01A1E7B5E0019036
:1018A0000D928A95E1F7DF91CF9108958091A4057B
:1018B00087FF05C040E284E050E0BE01EACF48E087
:1018C00081E0FACF81E08093E00080E28093D8004D
:1018D0001092C9008FE19EE40197F1F700C000006B
:1018E00087E090EBDC018093A6059093A705A09379
:1018F000A805B093A90588E19CE00FB6F894A895D7
:10190000809360000FBE90936000FFCFCF93DF9372
:10191000C4E1D3E060E0CE010E94F72B2196C1150F
:1019200084E0D807B9F7DF91CF9108951F93CF9343
:10193000DF93122F8530E0F46530D0F44F30C0F4DF
:10194000C42FD0E0CC0FDD1F9EE1699FC00DD11DDB
:10195000112496E9899FC00DD11D1124632FCE015A
:1019600086960E94F72B612FCE0187960E94F72B57
:10197000DF91CF911F910895AF92BF92CF92DF92E6
:10198000EF92FF921F93CF93DF9380E8C82E84E0FD
:10199000D82ED0E07601C0E014C0F5012591349135
:1019A000412F6C2F8D2F0E94960C82E0A80EB11C47
:1019B0001F5F1F3091F78EE1E80EF11CCF5FC5303D
:1019C00019F0570110E0E9CFDF5F86E9C80ED11C9E
:1019D000D53001F7DF91CF911F91FF90EF90DF900D
:1019E000CF90BF90AF900895CF93C82F6FEF811124
:1019F00063E282E290E00E94F72B6FEFC11161E099
:101A000083E290E00E94F72B6FEFC11164E184E262
:101A100090E00E94F72BCF91089580E00E94F40C93
:101A200060E085E290E00E94F72B0E94BC0C0E94CF
:101A3000860C81E00E94F40C08950F931F93CF93BE
:101A4000DF93853030F5653020F54F3010F5C42F29
:101A5000D0E0CC0FDD1F2EE1629FC00DD11D1124FF
:101A600036E9839FC00DD11D1124CE0186960E94B8
:101A7000D92B082F10E0102F0027CE0187960E9447
:101A8000D92B9801282BC901DF91CF911F910F917C
:101A9000089590E080E0F8CF462F753040F46F3025
:101AA00030F4853020F4672F0E941D0D089590E0DA
:101AB00080E00895CF92DF92FF920F931F93CF9310
:101AC000DF936C010091A00580918203082BC4E094
:101AD000D0E010E0FC2EC8010C2E02C09595879531
:101AE0000A94E2F780FD0CC02197A0F7F12C8F2D0E
:101AF000DF91CF911F910F91FF90DF90CF900895CC
:101B0000B6018C2F0E944C0D0E94E408019761F3EE
:101B1000EECFCF93DF93EC010E945A0DBE010E94DD
:101B20004C0D0E94E408DF91CF910895FC01838160
:101B30009481892B29F08081918189238F3F51F4F1
:101B400080E00895843FE1F717C0883EA8F0813F08
:101B5000B9F712C0808191810E94890D92959F7082
:101B6000963099F358F4925F9F70923048F7803F17
:101B700019F040F7883E20F781E008959A5FF4CF8E
:101B8000A5E0B0E0E6ECFDE00C94612B49835A83BC
:101B900089819A81662399F0222389F00E945A0D47
:101BA000182F682F89819A810E940E0B69817A8192
:101BB000812F0E944C0D2596E3E00C947D2B0E9412
:101BC000DA0A182FF3CF82E290E00E94D92B8332F9
:101BD00089F483E290E00E94D92B813059F484E2A9
:101BE00090E00E94D92B91E0843109F090E0892F98
:101BF0008170089580E0FCCFA4E0B0E0E2E0FEE078
:101C00000C945F2BF62E042F122F8334910570F560
:101C1000880F991F880F991FBC016C587C4F44E0B6
:101C200050E0CE0101960E94AA2B89818370EA813F
:101C3000282F30E040E9849FC00111248A5F9B4F28
:101C4000E80FF92FF11DB497F082EB81E80FF92F1F
:101C5000F11DB4970083EC81E80FF92FF11DB497C3
:101C600010832C5F3B4F81E0F90180832496E5E0EF
:101C70000C947B2BFF920F931F93CF93DF93182F1E
:101C8000062FF42ED0E0C0E02F2D402F612FCE0183
:101C90000E94FC0D2196C334D105B1F7CDB7DEB754
:101CA000E5E00C947B2B0F931F93CF93DF93082FCA
:101CB000000FEB0114E21093F003E1EFF3E0DE011B
:101CC0008D91819384E0E130F807D1F724E630E08C
:101CD00041E150E060EF73E0802F0E941D2B105F08
:101CE0006096143B41F7DF91CF911F910F910895BA
:101CF00080910404882329F066E074E084E70E9460
:101D0000530E1092040480910504882329F066E99B
:101D100074E087E70E94530E109205040895E0EFE7
:101D2000F3E06083418324E630E042E050E0BF010D
:101D3000880F0E941D2B0895EF92FF920F931F931F
:101D4000CF93DF93E82E062F10E0065B1A4FF801C1
:101D50008081882381F0F2E16F9FE0011124CA5D48
:101D6000DA4FF12C49916F2D8E2D0E948F0EF39436
:101D700082E1F812F7CFF8011082CDB7DEB7E6E0C6
:101D80000C947A2BCF93DF93C82F4BE06DEF0E941A
:101D90008F0E40E06AE08C2F0E948F0E8FE39CE94B
:101DA0000197F1F700C0000040E060E08C2F0E9436
:101DB0008F0E40E061E08C2F0E948F0E40E066E0C5
:101DC0008C2F0E948F0E40E06DEF8C2F0E948F0EA3
:101DD000D0E040E06D2F8C2F0E948F0EDF5FD2315C
:101DE000C1F740E06D2F8C2F0E948F0EDF5FD43241
:101DF000C1F740E06D2F8C2F0E948F0EDF5FD43B28
:101E0000C1F74BE06DEF8C2F0E948F0E41E06AE02E
:101E10008C2F0E948F0E40E06DEF8C2F0E948F0E52
:101E2000DF91CF910895A4E0B0E0E9E1FFE00C94E8
:101E3000562B0E947D2A84E70E94C20E87E70E94EB
:101E4000C20E04E713E052E1752E68E0C62ED12CD5
:101E5000EE24E394F12C6624639444E050E0B8014E
:101E6000CE0101960E94AA2B4A8150E0CA018497B4
:101E70002B81622F6452770B4B012C81E22FE452AD
:101E8000FF0B5F012981237030E0FC0197FD37963D
:101E900043E0F595E7954A95E1F7729EA001739EA0
:101EA000500D11244A5D5A4FE40FF52FF11DB60174
:101EB0000E94892BA70101C0440F8A95EAF780810F
:101EC000842B8083F40197FC379693E0F595E79592
:101ED0009A95E1F7729EC001739E900D11248A5D60
:101EE0009A4FE80FF92FF11DC401B6010E94892B0A
:101EF000A70101C0440F8A95EAF78081842B808373
:101F0000F501B7FC379683E0F595E7958A95E1F7FB
:101F1000729EC001739E900D11248A5D9A4FE80F46
:101F2000F92FF11DC501B6010E94892BA70101C03F
:101F3000440F8A95EAF78081842B8083265B3A4F91
:101F4000F90160820C5F1F4FF4E000381F0709F0B1
:101F500084CF60E084E70E949C0E61E087E70E94E6
:101F60009C0E2496EEE00C94722B46E050E06CE15F
:101F700070E08AEE93E00E94E72B1092E903089547
:101F80004F925F926F927F928F929F92AF92BF9289
:101F9000CF92DF92EF92FF92CF93C090E003D09068
:101FA000E103E090E203F090E3038FB7F8944090F0
:101FB0006A0550906B0560906C0570906D058FBF41
:101FC000530142018C189D08AE08BF080E94A1056C
:101FD0006093E0037093E1038093E2039093E30343
:101FE000A091B703E7EBF3E02A2F30E04FEFC40EE8
:101FF000D41EE11CF11CC418D508E608F708A31389
:1020000029C02093B7032091E803C0E0211108C044
:102010002091EA03C22FC37019F0C22FC695C6954E
:10202000209146012130B9F1222339F1223009F4FF
:102030007CC0233009F484C0CF91FF90EF90DF90F3
:10204000CF90BF90AF909F908F907F906F905F9058
:102050004F900895418D528D2A01712C612CC4142A
:10206000D504E604F70420F421503F5F3296C7CF31
:10207000480D591D528F418FF8CF10924301609344
:10208000E4037093E5038093E6039093E70381E014
:1020900080934601D1CF8C2F0E944F07CC2361F251
:1020A0000E942C0681FF07C02FEF4FEF6FEF8EE1EC
:1020B00090E00E944C078091A0050E94900B823016
:1020C00061F168F48823D1F021E14CEC6AEA8130B7
:1020D00009F0B2CF8DE390E00E944C07ADCF833082
:1020E00001F1843009F0A8CF23E343E36EEE8BE3E4
:1020F00090E00E944C0723E343E315C00E942C06A6
:102100002BEB46E660E081FDE5CF21E040E060E0BA
:1021100090E080E00E94CC068FCF20E049E96FEF8D
:10212000D9CF27E740E06EEED5CFC0934201809132
:10213000EA038370809341010E94780E83E0A8CF68
:102140008091E90381110E94B50F4091E403509101
:10215000E5036091E6037091E7032FB7F89480914F
:102160006A0590916B05A0916C05B0916D052FBF2C
:10217000841B950BA60BB70B4A97A105B10508F474
:102180005BCF1092460158CFEAEEF3E085E0808302
:102190008091480190914901A0914A0181839283E5
:1021A000A3838FE784838FEF85830E94B50F089503
:1021B0009091A50592FB222720F9281779F080FB42
:1021C00092F99093A5056091A4057091A50584E00E
:1021D00090E00E94152C82E00E94610B089590E02F
:1021E00080E00E94E12B873E9E4F19F40E94E30D90
:1021F000089580E0089567EE7EEF90E080E00E9411
:10220000152C60E082E090E00E94F72B60E083E014
:1022100090E00E94F72B1092820360E074E184E06A
:1022200090E00E94152C60E086E090E00E94F72B81
:102230006FEF87E090E00E94F72B40E050E0BA019A
:1022400088E090E00E94092C60E08DE090E00E9420
:10225000F72B40E050E0BA0188E190E00E94092CA1
:1022600060E087E190E00E94F72B40E050E0BA0187
:102270008CE190E00E94092C70E060E080E290E048
:102280000E94152C40E050E0BA0188E190E00E94E5
:10229000092C80E00E94F40C0E940D0D40E050E0FB
:1022A000BA018FE090E00E94092C40E050E0BA01B2
:1022B00083E190E00E94092C08951F920F920FB6BF
:1022C0000F9211242F933F934F935F936F937F93BC
:1022D0008F939F93AF93BF93EF93FF938091E10010
:1022E00082FF09C08091E20082FF05C08091E10079
:1022F0008B7F8093E1008091DA0080FF24C0809181
:10230000D80080FF20C08091DA008E7F8093DA00B1
:102310008091D90080FF9DC080E189BD82E189BDA7
:1023200009B400FEFDCF81E08093930580916E0596
:10233000811109C00E9444040E94E5048091E200DA
:1023400084608093E2008091E10080FF17C080915B
:10235000E20080FF13C08091E2008E7F8093E20054
:102360008091E20080618093E2008091D8008062D9
:102370008093D80019BC85E0809393058091E1009B
:1023800084FF2BC08091E20084FF27C080E189BDDB
:1023900082E189BD89B5982F917080FFFBCF809134
:1023A000D8008F7D8093D8008091E1008F7E80934C
:1023B000E1008091E2008F7E8093E2008091E20054
:1023C00081608093E20080919405882309F447C0DE
:1023D00084E080939305809193058091E10083FFD1
:1023E00027C08091E20083FF23C08091E100877FB6
:1023F0008093E10082E08093930510929405809190
:10240000E1008E7F8093E1008091E2008E7F8093D7
:10241000E2008091E20080618093E20042E060E0AF
:1024200080E00E94B3048091F00088608093F00007
:10243000FF91EF91BF91AF919F918F917F916F919C
:102440005F914F913F912F910F900FBE0F901F9072
:10245000189519BC1092930510926E0574CF809157
:10246000E30087FD93E090939305B5CF78941F9296
:102470001FB61F9211248F939F93AF93BF938091A8
:102480006A0590916B05A0916C05B0916D05019660
:10249000A11DB11D80936A0590936B05A0936C05F7
:1024A000B0936D05BF91AF919F918F911F901FBE0B
:1024B0001F9018959C014FB7F89480916A059091F0
:1024C0006B05A0916C05B0916D054FBF821B930BFE
:1024D00008952FB7F89480916A0590916B05A091AB
:1024E0006C05B0916D052FBF08959091A50592FFE1
:1024F00010C098E0899F9001112423602093A305C8
:102500000E94810B0E9469129093A2058093A105FD
:1025100008950E94810B08950E94E40B80930B01A3
:102520008330A1F0843041F0823099F40E9475121A
:1025300081E00E94610B08958091A005882331F00D
:1025400082FF04C082E00E94540B089582E00E9442
:10255000810B08950E9469129C019091B3038091B0
:10256000B403982B21F03093B0032093AF039091E4
:10257000B5038091B603982B21F03093AE032093DE
:10258000AD03E0916505F0916605309749F082E072
:102590008093B1030480F581E02D81EB93E00995F0
:1025A0000895662309F45DC08D3C41F40E946808DB
:1025B00081958093B4030E94AA1208958E3C19F469
:1025C0000E946808F6CF8F3C31F40E94680881951C
:1025D0008093B303F0CF803D19F40E946808F8CFD0
:1025E000893D29F40E9446088093B503E4CF8A3DD3
:1025F00021F40E9446088195F7CF8B3D31F40E946B
:10260000460881958093B603D6CF8C3D19F40E947D
:102610004608F8CF9FE2980F983070F4815D990BCF
:1026200021E030E001C0220F8A95EAF78091B203E1
:10263000822B8093B203BFCF8D3D31F48091AC03E8
:1026400081608093AC03B7CF8E3D21F48091AC03C1
:102650008260F7CF8F3D09F0AECF8091AC038460EC
:10266000F0CF4091B3038D3C59F48091B40387FFC0
:102670000DC01092B40341110BC01092AA0308C000
:102680008E3C81F48091B40318169CF3442381F0AE
:102690008091B5039091B603892B09F08CCF1092ED
:1026A000AB0389CF8F3C49F447FFF0CF1092B303BF
:1026B0008091B4038111ECCFE0CF803D19F4141662
:1026C000ACF3E4CF9091B503893D29F41916F4F6E3
:1026D0001092B503DBCF8A3D19F497FFD7CFF8CF1F
:1026E0009091B6038B3D29F497FFD0CF1092B6039B
:1026F000CDCF8C3D19F41916CCF3C8CF9FE2980FBB
:10270000983090F4815D990B21E030E0B90102C06E
:10271000660F771F8A95E2F7CB0180959091B203FF
:1027200089238093B203B2CF8D3D31F48091AC0305
:102730008E7F8093AC03AACF8E3D21F48091AC03B1
:102740008D7FF7CF8F3D09F0A1CF8091AC038B7FB8
:10275000F0CFAAE0B0E0EFEAF3E10C94582B8E0141
:102760000F5F1F4F8AE0F80111928A95E9F79DEA01
:10277000E92E91E0F92E6801AA24A394B12CF70167
:1027800081917F018F3F09F446C0F894E82FE295CC
:10279000EF70F0E021A18F70A50102C0440F551F1A
:1027A0008A95E2F7CA01922F982B91A392A1809566
:1027B000892382A3789400C0E2EBF1E021E030E0CD
:1027C000912C812C41914F3F09F467C0A42FA29511
:1027D000AF70B0E090968C9190E04F7002C09595EC
:1027E00087954A95E2F780FD58C0C901882A992A41
:1027F000220F331F51E0E13CF50721F7F701319734
:1028000080818F3F11F00E948A0880EA8A95F1F753
:10281000F60191828082F2E0CF0ED11C42EBE416E9
:1028200041E0F40609F0ABCF4AE050E0B80186E899
:1028300093E00E94B32B892B99F18AE0F801A6E876
:10284000B3E001900D928A95E1F781E080938503D2
:102850000E94691290938403809383038091830381
:10286000909184030E945A120397F0F04AE050E0DE
:1028700066E873E080EA93E00E94B32B892BC9F0ED
:102880008AE0E6E8F3E0A0EAB3E001900D928A95D1
:10289000E1F781E01092850308C090E080E0A6CFC8
:1028A000809185038111DACF80E02A96ECE00C94C8
:1028B000742B80E0EFCFCF938091600590915F05FE
:1028C000892B8093E60280918103882339F10E944D
:1028D000691220917F0330918003821B930B8C3D02
:1028E000954010F00E94730A8091E6029091810356
:1028F000892B8093E60280914701882309F447C021
:102900008091A40587FF43C08EE1E8EEF2E090E0FD
:10291000815008F03EC091110E94730AC091580581
:10292000C0958091E602C82380915905C82BC093B9
:10293000E60240E250E06FE573E086EE92E00E942E
:10294000B32B892B11F180E2E6EEF2E0AFE5B3E0C4
:1029500001900D928A95E1F7E0916505F091660589
:10296000309799F080914701882349F08091A40520
:1029700087FF05C0C093E70286E08093E6020280ED
:10298000F381E02D86EE92E00995CF91089586E0DF
:10299000BCCF2191222309F4BBCF9F5FB9CFCF9346
:1029A000DF93EC01EA85FB85309719F06C857D8516
:1029B00009958B81982F909580915F05892380934D
:1029C0005F058C810E947E0A0E945B1486E0FE01F6
:1029D00011928A95E9F7DF91CF910895CF93DF9314
:1029E000EC018D8181FD18C082608D8380915F052F
:1029F0009B81892B80935F05809160059C81892B49
:102A0000809360050E945B14E885F985309721F07A
:102A10006C857D85CE010995109262051092610545
:102A20008D8180FD03C0CE010E94CF14DF91CF9134
:102A300008951092600580914701E8EEF2E0882346
:102A400029F18091A40587FF21C08EE1DF011D924D
:102A50008A95E9F790E080E00E94070690E080E028
:102A60000E94E20510925F050E945B1486E0E1EB94
:102A7000F3E0DF011D928A95E9F71092AA03109204
:102A8000AB031092AC030E94AA12089586E0DECF39
:102A9000AAE2B0E0EEE4F5E10C94612B85E995E063
:102AA0002091F100DC012D93CD01B5E08D399B071C
:102AB000B9F780919605833009F472C0B8F481307B
:102AC00009F449C0823009F4B3C08091E80083FF63
:102AD0008BC280919505909196059A3008F084C23A
:102AE000E92FF0E0E35EF34D0C949D2B8A3009F45E
:102AF0008EC08B3009F471C0893039F7809195050B
:102B0000813219F78091990590919A05009711F0FB
:102B10000297D9F68091E800877F8093E800809142
:102B2000E80082FF38C09091F3008091F200029794
:102B300031F48091F100813011F0863021F48091E0
:102B4000F100809370058091E8008B778093E80016
:102B50000E949404BACF80919505813A09F0B5CFCF
:102B60008091E800877F8093E8008091990590919B
:102B70009A05892B61F460E281E795E070E00E949C
:102B800040058091E8008B778093E8009ECF60E05D
:102B900090E080E0F3CF809193058111C0CF95CF75
:102BA00080919505813A09F090CF80919905909197
:102BB0009A05892B09F089CF8091E800877F80935F
:102BC000E8008091E80080FFFCCF8091470180936E
:102BD000F1008091E8008E77B9CF80919505813220
:102BE00009F073CF8091990590919A05892B09F08E
:102BF0006CCF8091E800877F8093E8000E94940466
:102C000080919705809347010E9419155ECF8091AE
:102C10009505813209F059CF8091E800877F809334
:102C2000E8000E9494048091980580936F054DCF31
:102C300080919505813A09F048CF8091E800877F1F
:102C40008093E8008091E80080FFFCCF80916F05C1
:102C5000BECF803899F0823809F0C6C180919905BD
:102C60008F70873008F0C0C18093E9008091EB003D
:102C700085FB882780F91092E90006C080919105B4
:102C800090919205911182609091E800977F9093C6
:102C9000E8008093F1001092F1008091E8008E77B7
:102CA0009FC1882309F48DC1823009F09DC18091B4
:102CB0009705811190C1809199058F702FEF280F92
:102CC000263008F091C18093E9002091EB0020FFAD
:102CD00082C1933031F48091EB0080628093EB00ED
:102CE0007AC19091EB0090619093EB0021E030E08D
:102CF00001C0220F8A95EAF72093EA001092EA00B9
:102D00008091EB008860EACF81116EC11091970528
:102D10001F778091E3008078812B8093E30080917E
:102D2000E800877F8093E8000E9494048091E80087
:102D300080FFFCCF8091E30080688093E30082E015
:102D4000111183E0809393054FC18058823008F0C1
:102D50004BC120919705309198052C3DE3E03E074B
:102D6000A1F583E08A838AE289834FB7F894DE0174
:102D7000139620E03EE051E2E32FF0E0509357003D
:102D8000E49120FF03C0E295EF703F5FEF708E2F5C
:102D900090E0EA30C0F0C7968D939D932F5F243169
:102DA00059F74FBF8091E800877F8093E8006AE27F
:102DB00070E0CE0101960E9440058091E8008B777B
:102DC0008093E80011C1C096E7CF8091990590915A
:102DD0009A05432F55274330510509F44AC078F529
:102DE0004130510509F47AC08BE590E0EEE6F7E05A
:102DF0004230510509F0F8C02091E800277F209368
:102E0000E80020919B0530919C058217930708F4F8
:102E10009C0140E02115310509F065C0411163C0F6
:102E20008091E80082FDC9CF80919305882329F223
:102E3000853019F28091E80083FFF2CFBECF413296
:102E4000510509F43CC04232510509F0CDC0833030
:102E5000910508F0C9C0FC01EE0FFF1FE852FD4FBD
:102E60000190F081E02D8B529D4FDC018C9190E020
:102E70001AC0332721303105D1F02115310561F019
:102E80002230310509F0B0C0EBEDF7E0E4918E2F70
:102E900090E0EBEDF7E007C0EFE0F8E0E4918E2F73
:102EA00090E0EFE0F8E0009709F49EC0A5CFEDEFC9
:102EB000F7E0E4918E2F90E0EDEFF7E0F4CF833070
:102EC000910508F091C0880F991FFC01E252FD4F57
:102ED0000190F081E02D89E090E08ECF82E190E0DA
:102EE000E9ECF7E089CF80919305882309F465CF59
:102EF000853009F462CF8091E80083FD5ECF809138
:102F0000E80082FD8DCF8091E80080FF83CF909113
:102F1000F3008091F2002115310519F088309105F8
:102F200050F041E0089709F040E08091E8008E778A
:102F30008093E8006FCF44914093F1003196215087
:102F400031090196E8CF803809F04EC08091E80041
:102F5000877F8093E800809194058093F1009DCE57
:102F6000811142C0109197051230F0F58091E80070
:102F7000877F8093E800109394050E9494041123A6
:102F800011F084E005C08091E30087FDFACF81E075
:102F90008093930542E061EC81E00E94B30442E239
:102FA00061EC84E00E94B30442E261EC82E00E94A2
:102FB000B30442E260EC83E00E94B3048091930585
:102FC00013C080919705813079F481E0933009F046
:102FD00080E0809392051092E9008091E800877F5D
:102FE0008093E8000E9494048091E80083FF0AC067
:102FF0008091E800877F8093E8008091EB008062F9
:103000008093EB00AA96E3E00C947D2B1F920F9225
:103010000FB60F9211242F933F934F935F936F93AB
:103020007F938F939F93AF93BF93CF93DF93EF9350
:10303000FF93D091E900DF708091EC00C82FC17040
:1030400080FDC0E81092E9008091F000877F8093B6
:10305000F00078940E9448151092E9008091F000E9
:1030600088608093F000CD2BCF70C093E900FF9172
:10307000EF91DF91CF91BF91AF919F918F917F9110
:103080006F915F914F913F912F910F900FBE0F90D5
:103090001F9018950E9419152FEF84E39CE0215092
:1030A00080409040E1F700C0000088E19CE00FB64E
:1030B000F894A895809360000FBE90936000FFCFB6
:1030C000882339F090915F05982B90935F050E94BB
:1030D0005B140895882321F00E947E0A0E945B14ED
:1030E0000895882339F090916005982B909360059E
:1030F0000E945B140895882381F19CEF980F913A08
:1031000028F40E94850A0E945B14089590E2980FAB
:10311000983050F4877091E001C0990F8A95EAF7D2
:10312000892F0E947E0AEFCF9BE5980F933028F4F9
:1031300090E080E00E940706089598E5980F993185
:1031400028F490E080E00E94E205089593E3980F50
:10315000933118F460E00E94D1120895FF920F930A
:103160001F93CF93DF93F82E00915D0510915E05BC
:103170000115110509F449C010925C0510925B0518
:103180001092580510925905D8011696CD91DC91F0
:103190009E013A9521153F4108F4D07ED1E0C1113E
:1031A00001C0D0E0D8011996ED91FC911A973097A3
:1031B00031F01B966D917C9180E00995D823DD2339
:1031C00039F08CEF8C0F813A30F58C2F0E94850AF4
:1031D000FF2099F0E0915D05F0915E05808584FD0A
:1031E0000CC080915A05882341F0808191819C0117
:1031F000215031092F3F3D47A0F00E945B141092EF
:103200005E0510925D0510925A05C801CDB7DEB774
:10321000E5E00C947B2B0E945B148C2F0E947B18A2
:10322000D7CF0E943906E9CF80910D01833019F480
:1032300085EE0E947B180895CF93C82F8823C1F193
:103240008CEF8C0F813AB0F580914701882301F112
:103250008091A40587FF1CC0EC2FE695E695E695C6
:10326000F0E0EA51FD4F828190E04C2F477021E061
:1032700030E002C0220F331F4A95E2F782239323E6
:10328000892B79F08C2F0E94850A0E945B1409C05B
:10329000E8EEF2E08191C817A9F382E0EE3EF8076C
:1032A000C9F76C2F86EE92E00E94AD050E945B1478
:1032B000CF91089580E28C0F883068F4C77021E0C8
:1032C00030E001C0220FCA95EAF780916005822B99
:1032D00080936005EBCFEBE5EC0FE33040F4F0E0DA
:1032E000E858FE4F808190E00E940706E1CFE8E5B4
:1032F000EC0FE93150F4F0E0EE0FFF1FE558FE4F00
:10330000808191810E94E205D3CF83E38C0F8331CA
:1033100078F661E08C2F0E94D112CACF1F93CF9311
:10332000DF93182FD0E0C0E0893311F4C0E5D0E07E
:10333000812F0E941C19209739F4812F0E947B183D
:10334000DF91CF911F9108958FE99FE00197F1F7E9
:1033500000C000002197EFCF0F931F93CF93DF930F
:10336000C62FD42F022FFC0182818823A9F06093FD
:103370009F050E94691290939E0580939D05C770DA
:1033800081E001C0880FCA95EAF70E947118DF91A9
:10339000CF911F910F91089580919F05681332C0BE
:1033A00080919D0590919E050E945A12883C91053E
:1033B00048F510E21D0FCD17B9F080E28C0F883070
:1033C00040F4C77081E001C0880FCA95EAF70E94F7
:1033D0006A18183048F481E09D2F977001C0880F5B
:1033E0009A95EAF70E947118802F0E948E19183062
:1033F00070F6D77081E001C0880FDA95EAF70E9475
:103400006A18C5CFC77081E001C0880FCA95EAF776
:10341000F6CF0E94E40B80930901833091F0843051
:1034200031F0823089F489E30E948E1908958091E9
:10343000A005882331F081FF04C081E00E94540B75
:10344000089581E00E94810B08950E94E40B80930F
:103450000D01833059F0843069F08230C1F483E08B
:103460000E94751281E00E94610B089585EE0E9412
:103470001C1908958091A005882331F083FF04C0B2
:1034800083E00E94540B089583E00E94810B08950D
:10349000ABE0B0E0EEE4FAE10C94522B8C01DC01DD
:1034A00013968D919C911497892B49F04C9111960C
:1034B0005C911197842F85238F3F09F096C62B9638
:1034C000E2E10C946E2BA114F4E0BF0699F1C50162
:1034D0000E94D92B811101C0EA942FEFA21AB20ADF
:1034E000D8C65601843009F009C752E0E52EF12C08
:1034F00056012FEFA21AB20AC6010E94D92BE1E0B1
:10350000F0E0EC0FFD1FEE0DFF1D8083882391F08E
:103510008C3741F4E2E0F0E0EC0FFD1FEE0DFF1DF3
:103520001082ECC63FEFE31AF30A650147E0E416A8
:10353000F104F1F68091A305877009F4C0CFF8017A
:103540008281882309F4BBCF8091A50582FFB7CF84
:1035500082E00E94610BB3CF5701D0C6923049F48C
:10356000E2E0EE0EF11C0E941C198FEFE81AF80A37
:10357000C8C6933031F4F2E0EF0EF11C0E947B18C4
:10358000F4CF943021F02FEFE21AF20AEECF32E0BE
:10359000E30EF11C30E020E0B7016F5F7F4FD701F1
:1035A00011964C918053990B8A30910550F021501F
:1035B0003109D8F2EFE9FFE03197F1F700C00000E0
:1035C000F6CF429EF001439EF00D11249C012E0F78
:1035D0003F1F842F7B01E0CFE22FF0E0EC50FE4F45
:1035E0005490822F86958695869590E0FC01EC514B
:1035F000FE4F64902770712C022E02C07594679460
:103600000A94E2F731E063227724FC01EC52FE4F8A
:103610008490912C022E02C0959487940A94E2F72C
:1036200041E084229924FC01EC53FE4FC490D12C3C
:1036300002C0D594C7942A95E2F751E0C522DD2453
:103640006114710419F081EE0E941C198114910417
:1036500019F086EE0E941C19852D0E948E19811486
:10366000910419F086EE0E947B186114710419F020
:1036700081EE0E947B18C114D10409F476CF8CE24C
:1036800052C681E00E94810B0E94480B53CF81E01B
:103690000E94540BF9CF82E0F5CF82E0F9CF81E0B0
:1036A00080930E0147CF8095482229C5552009F403
:1036B0008AC4F0920703E09206030E94A10560937A
:1036C00054057093550580935605909357051092B5
:1036D0005C0510925B0513C582FB882780F954C5F1
:1036E000552001F1817050C50E947B1864C6049773
:1036F000813A910558F46A2D86EE92E00E94AD055C
:10370000552009F413C40E945B1414CF0E945B146B
:103710008FE39CE90197F1F700C000008A2D0E9419
:103720001C19EECF99859F5F998701C5FC01208107
:103730003181E216F30609F0F2C35110F2C3109280
:103740005A0580E00E94AE18F1C39E2D8F2D36C41D
:10375000F901858181FF62C4C9010E94CF145EC452
:1037600026E241EE61EEC8010E94AC19E3CE27E2E9
:1037700045EE65EEF8CF26E241EE60EEF4CF27E2AB
:1037800045EE64EEF0CF26E241EE62EEECCF27E2AA
:1037900045EE66EEE8CF28E241E0EBCF8091A4054C
:1037A00081608093A40595C08091A5058860809371
:1037B000A5058FC08091A4058260F3CF8091A405F8
:1037C0008460EFCF8091A4058860EBCF8091A50540
:1037D0008160EDCF8091A5058260E9CF8091A4053D
:1037E0008061DFCF8091A4058062DBCF8091A4054A
:1037F0008064D7CF0E9419158091A4058068D1CF2D
:103800008091A4058C60CDCF8091A5058360CFCF3A
:103810008091A4058E7FC5CF8091A505877FC7CFF6
:103820008091A4058D7FBDCF8091A4058B7FB9CFFA
:103830008091A405877FB5CF8091A5058E7FB7CFF6
:103840008091A5058D7FB3CF8091A4058F7EA9CFF0
:103850008091A4058F7DA5CF8091A4058F7BA1CFFA
:103860000E9419158091A4058F779BCF8091A405A4
:10387000837F97CF8091A5058C7F99CF8091A405F8
:1038800082FB992790F921E0922790FB82F990FB27
:1038900083F987CF8091A505982F909591708E7FA1
:1038A000892B90FB81F983CF9091A405892F8F7B81
:1038B00096FF806476CF0E9419159091A405892FF8
:1038C00097FB87F980586DCF61E08EE090E00E9411
:1038D000F72B6091A4057091A50584E090E00E940B
:1038E000152C0E94191526CE60E0EFCF9091A4050B
:1038F000892F8F7E94FF806154CF9091A405892FEA
:103900008E7F90FF81604DCF9091A505892F877F95
:1039100093FF88604CCFB6E1EB16BCE7FB0609F0DD
:103920006DC080916005982F9474A9F4982F9A7AAD
:10393000817109F090E0222381F081E0911101C0B2
:1039400080E08093080369E2911165E386EE92E0DE
:103950000E94AD05D8CE90E0EBCF80910803811195
:1039600004C089E20E94850ACECE85E3FBCF809118
:10397000EA0391E089278093EA031092460180913F
:10398000E90381608093E903D5CD49E357E064E41E
:1039900077E00E94AA06CECD44E457E069E377E0E1
:1039A000F8CF44E157E06FE177E0F3CF4FE157E024
:1039B00064E177E0EECF48EF56E066E077E0E9CFEC
:1039C00046E057E068EF76E0E4CF4CED56E06AEE73
:1039D00076E0DFCF4AEE56E06CED76E0DACF40EBF2
:1039E00056E06EEB76E0D5CF4EEB56E060EB76E03E
:1039F000D0CF61E081E00E942A079CCDE3E0EE1683
:103A0000ECE7FE0609F47CC008F05BC0E1142CE78B
:103A1000F20609F468C031E0E3163CE7F30609F466
:103A200075C0D80112968C911297ED90FC90882366
:103A300009F47AC0C7010E945A0DD82E682FC70119
:103A40000E940E0BB7018D2D0E944C0D0E94E408C0
:103A50007C01882EF801D280B580B2943FE0B32279
:103A60008091A3058770F1F0AD2CDD20E1F08F2D62
:103A7000807F803451F080E28E0D883098F0B11054
:103A800004C08F2D807E803269F08091A50582FF71
:103A900009C082E00E94610B8091A3058770AA246F
:103AA000A3948111A12C9F2C92942FE09222FBE0F1
:103AB000F91508F4A8C0E92DF0E0E95DF34D0C9488
:103AC0009D2B4BE5E4164CE7F40661F15CE5E51649
:103AD0005CE7F506E9F08AE5E8168CE7F80609F0F8
:103AE000A0CF81E01CC00E9419159FEFA4E3BCE0A9
:103AF0009150A040B040E1F700C000000E94620C6D
:103B00006FEF7FEF90E080E00E94152C0E944A1832
:103B10008091A50582FB882780F991E089270E9482
:103B2000D8107FCF80E0FBCFC7010E94DA0AD82EE1
:103B300089CF2F2D2F70C22E8F2D807F19F0C29428
:103B400090EFC922DD20B9F0CC2069F080E28E0D23
:103B5000883010F0811009C080916005C82AC09299
:103B600060050E945B148E2D4CC080915F05C82AB1
:103B7000C0925F05F6CF8E2D0E947B18CC2009F4F1
:103B800042C080E28E0D883010F0811004C08C2D70
:103B90000E947E0A06C0C09480915F05C822C09230
:103BA0005F050E945B142FC03F2D3F70C32E8F2DE9
:103BB000807F803219F0C29480EFC822882089F07B
:103BC00041E0841609F47CC0DD2009F485C0BB20E7
:103BD00009F44FC0F801858180FFC5CF8F708583C0
:103BE00048C09091A50592FD3DC0DD20A9F1CC20F3
:103BF00039F080916005C82AC09260050E945B146C
:103C000080E00E941C19E92DE850FF0B349710F456
:103C10000E942C06AA20B1F08091A30580FD12C05D
:103C2000D80112961C928595859585950E94810BE9
:103C3000C8010E94481A8091A305859585958595B0
:103C40000E94540B20E0F801408151816281738110
:103C500084810E94C00D33CC80E00E947B18CC2070
:103C600091F295CFDD20D1F080918103C82AB11067
:103C700004C08C2D0E947118C6CF51E0B512F9CF47
:103C800092FFC1CF8C1509F4BECF0E9469129093A8
:103C9000800380937F03C0928103B5CFB11006C02B
:103CA0000E94730A8C2D0E946A18ADCF81E0B8166D
:103CB00009F4A9CF8C2D0E946A180E94730AA3CF21
:103CC000DD2029F092E09B1508F49DCFD2CFA1E032
:103CD000AB1508F498CFE6CFBB2021F3F9E38F12A0
:103CE00009C02FEF37EE43E0215030404040E1F76C
:103CF00000C000008E2D0E947B1885CF8F2D8695E9
:103D00008695837061F0813009F07DCFC701937093
:103D1000D11002C080E090E00E94E20574CFC7019C
:103D20009370D11002C080E090E00E9407066BCF34
:103D30006D2D8E2D0E94D11266CF8F2D837091F53F
:103D4000D11061CF4E2D429546954770440F440FD8
:103D50008E2D8F70042E01C0880F0A94EAF72E2D45
:103D60002071E4FE07C02FE030E001C0220F4A9529
:103D7000EAF720953F2D369536953370323069F04D
:103D800050F440918203313029F0822B84230E9429
:103D90008D0B39CF842B822BFACF282B8091820375
:103DA0008227F5CF8695DD2011F08F2D8170882335
:103DB00009F429CF4E2D429546954770440F440F84
:103DC0008E2D8F70042E01C0880F0A94EAF72E2DD5
:103DD0002071E4FE07C02FE030E001C0220F4A95B9
:103DE000EAF720953F2D369536953370323069F0DD
:103DF00050F44091A005313029F0822B84230E9499
:103E0000450B01CF842B822BFACF282B8091A00564
:103E10008227F5CF5F2D5F70F52EDD2029F0852FED
:103E20000E94810B8E2D26CF8E2D0E946A188F2D19
:103E30000E94540BE8CE8E2D92EF8916B1F19815A1
:103E400070F0A0EF8A16D1F0B1EF8B1691F0DD2063
:103E500009F455C0B11087CE8F2D8F712AC0E3EFC2
:103E60008E1651F1F4EF8F12F2CF8091A50582FDED
:103E70002FC08F2D8F71DD20D9F21BC0DD2081F086
:103E800021E02B1508F4BFCE2F2D2F7181E090E09B
:103E900001C0880F2A95EAF79091A0058927AFCF36
:103EA00032E03B1508F4AFCEEFCF8F2D8F71D110DC
:103EB000BFCF0E94810BA7CE80E0DD2009F49FCF09
:103EC0009F2D9F7181E001C0880F9A95EAF797CFE7
:103ED000DD2051F04F2D4F71F42E842F0E94810B65
:103EE0008F2D0E9475128FCE81E00E94610B51E0F0
:103EF0005B1508F088CE82E00E94610B84CEBB2067
:103F000059F0893309F0F6CE8FEF97EEA3E0815098
:103F10009040A040E1F7ECCE8F2D8F7189CF5520D6
:103F200029F0DC0118968C9185FF0BCCC7019755C1
:103F30008F3F910511F008F0F9C15701BB24BEE095
:103F4000EB9EF00111249F01295E3E4F6901D801CB
:103F500012968C91E45EFE4F908180FB90F99083E5
:103F6000882309F4F5CB0E94691290939E038093F5
:103F70009D03F60182818F5F828380915F0590911E
:103F80006005892B83838091810384830680F78178
:103F9000E02D309731F0D6011C966D917C91C601D1
:103FA00009958EE08A9DF0018B9DF00D1124E95E4C
:103FB000FE4F858181FFC9CB90E080E09093610541
:103FC000809362052BC08091060390910703E81649
:103FD000F90681F41092070310920603109254051B
:103FE00010925505109256051092570510925C05D7
:103FF00010925B0580915D0590915E05009709F434
:1040000095CFA8E08A16910408F090CB642D0E9409
:104010008A06811103C081E00E94AE18D801129671
:104020002C91222309F48DC110929F05C70190574E
:10403000839708F070CC84E090E00E94E12B90938D
:10404000A5058093A405F701E150F047E232F105A0
:1040500008F0A4CBED5CF34D0C949D2BE114B7E775
:10406000FB0609F40ECBE1E0EE16E7E7FE0609F4E5
:1040700012CB9EE5E9169CE7F90609F410CBAFE5F3
:10408000EA16ACE7FA0651F0BDE5EB16BCE7FB0615
:10409000B1F480910E01882309F401CB10920E0136
:1040A00080E00E94AE1846CAE114F7E7FF0609F463
:1040B000EECA21E0E21627E7F20609F4EECA809183
:1040C0000E01882309F432CF4701E0EE8E1A9108E1
:1040D0004090810380916005482AF8E08F16910492
:1040E00008F0E4CA97012770332781E090E001C00F
:1040F000880F2A95EAF7552009F4D5CA482AD8012D
:104100008D919C910E94DA0A21E030E0F90102C011
:10411000EE0FFF1F8A95E2F7FB87EA8720905D0587
:1041200030905E056090060370900703198629851C
:10413000E22FF0E0EE0FFF1FE050FF4FC080D18074
:10414000C114D10409F456CF411005C0D60112960E
:104150008C918111E7CAF601838190E02A853B8525
:1041600082239323892B09F4DDCA8085982F9770C9
:1041700009F487E038E08316910408F0B1CA5520AD
:1041800009F4AACA86958170882309F4CBCAD6019E
:10419000AD90BC90EA14FB0419F4552009F4C2CA8E
:1041A000C214D30409F4BECAD6011D96ED91FC9148
:1041B000309721F08081882309F4B4CA642DC601A8
:1041C0000E948A06882309F4ADCAEA14FB0409F0A8
:1041D000CCC0E114F10409F4CDC05110CDC0A61437
:1041E000B70409F09FCA512CC7C021E012966C9108
:1041F000129713967C91139714968C910E94C00D80
:104200007C01F8018281882369F180916105909198
:104210006205009739F18E159F0521F1BEE08B9F55
:10422000C0011124FC01E45EFE4F20812460208344
:10423000895E9E4FFC01F182E0820E94EE14109292
:104240005F0521E0D8014C9111965C91119712966F
:104250006C91129713967C91139714968C910E94EF
:10426000C00D7C01F8015280552009F41DCFC70113
:1042700082509747409708F0F1CE8FEF93E00E946D
:10428000D92B811157C9EA94EA9474E1A72E73E0FF
:10429000B72EE11018C9FE01339686E0DF011D92AA
:1042A0008A95E9F76AE0462E7501BFEFEB1AFB0A23
:1042B000C5010E94D92B89831A82882309F43AC93F
:1042C000813009F049C96501E2E0CE0ED11CC70179
:1042D0000E94D92B8A83882309F42CC99FEF980F59
:1042E000933008F0FEC8F3E0AF0EB11CC6010E9487
:1042F000D92B8B83882309F41DC91C82CE0101961A
:104300007C01D7012C91222379F2213009F064C974
:1043100011969C91119712968C91913009F01EC9BB
:10432000B2E0EB0EF11C0E948E191FC9F701E85193
:10433000FC47E730F10508F071CEEB5AF34D0C94D1
:104340009D2BF6E1EF16FCE7FF0609F4EACA80911F
:1043500060058272F701E052F847E531F10508F097
:1043600060CBE45AF34D0C949D2BA114B10409F0D9
:1043700036CF512CB12CA12C80E00E94AE18D092E7
:104380005E05C0925D0581E080935A05D6011596C1
:104390008C918093580551100EC0AB2861F0F60146
:1043A000808191819C0124503109213A310508F026
:1043B0009BC90E94850AD6011696AD90BC90C50196
:1043C0009A9581159F4110F4E0EEBE2277247394F4
:1043D000C50101978F3F9D4708F0712CD6011996B2
:1043E000ED91FC911A97309731F01B966D917C916D
:1043F00081E009957822772079F0F601868197810E
:104400000E94A10B80935905C501F8E08F16910415
:1044100008F06DC90E9439060E945B1471C91F9390
:10442000CF93DF9380912C03807F09F04BC0809164
:104430002903882309F446C080915E03C0912D03AF
:10444000409127035091280360912A0370912B0318
:10445000D42FD52316E0C817A9F190E06115710596
:10446000A9F1DF3F99F1189FF001199FF00D112478
:10447000DF01A25DBC4F11962C911197251326C028
:104480002C91241323C012962C91129721111EC037
:1044900013962D913C91261B370B283C3105B0F427
:1044A00080912C038F70806180932C03ED5CFC4F16
:1044B00080818F708061808387E293E00E94481A38
:1044C0000E94D00ADF91CF911F91089501968770C5
:1044D000C2CFA1E1B0E0EFE6F2E20C94582B8C01E0
:1044E00085E0F801DE011D9601900D928A95E1F7B5
:1044F000F801E28087E2882E83E0982E40912A031B
:1045000050912B034115510509F430C190912703B7
:1045100020912803892F82238F3F09F427C1D0805F
:10452000C180A380B480F0902903B501641B750B92
:10453000FF2009F4E7C080912C03382F307F683CBE
:10454000710508F0ABC0311178C0FE2C2C1114C0DD
:104550009D1112C0E11010C08F70806180932C03F8
:10456000C4010E94481A80912C03F80185838F2D85
:104570006196ECE00C94742BA114B104C9F18D2D5B
:104580008C218F3FA9F181E08E2580FF05C04E2D43
:104590006C2D8D2D0E94B00AA114B10459F18D2DFE
:1045A0008C218F3F39F181E08E25F82FF170BF2EDD
:1045B00080FF39C04E2D6C2D8D2D0E94B00AA82E83
:1045C000811131C0DD86CE868D859E850E94890D44
:1045D000292F22952F70243078F49F702230A8F074
:1045E0009923B9F0F8019581907F99F4FA2CBFCF07
:1045F00080E0CBCF80E0D9CF2A5F2F70223068F0E7
:10460000C8010E94481AAB2CF1CF992311F08823DE
:1046100069F3805E883050F3F3CF803F38F3815FD9
:10462000833070F7E3CFEE2009F4A1CF80912C0303
:10463000816080932C03F12C9ACF2C1105C09D1121
:1046400003C0EE2009F477C0C8010E94960D8823AC
:1046500009F1EE20F9F080912C03803270F0209166
:1046600027033091280338872F831986BB86AA86B3
:104670008C87CE0107960E94481A86E0F801A7E2CF
:10468000B3E001900D928A95E1F70E940F22FF247A
:10469000F3946DCFC8010E94481AF9CF31110AC0B6
:1046A00087E293E00E94481A86E0F40111928A950D
:1046B000E9F7C1CF2C110EC09D110CC0E1100AC04A
:1046C0008583C8010E94481A86E0F40111928A95F8
:1046D000E9F74DCFC8010E94960D8823D9F2EE204C
:1046E000C9F280912C03803240F22091270330914F
:1046F00028033A8329831B82BD82AC828E83CE013C
:104700000196B9CF683C7105F8F6FE2CEE2011F247
:104710002C111EC09D111CC080912C0380FD0FC068
:10472000982F907F61F08583903F31F0982F907F94
:10473000905F8F70892B8583C8010E94481A86E09C
:10474000F801A7E2B3E001900D928A95E1F70FCF4F
:10475000C8010E94960D811190CF80912C03816039
:1047600080932C03C8010E94481A01CFEE2009F45F
:1047700091CFC8010E94960DF82E882309F48ACFA4
:1047800086E0F801A7E2B3E001900D928A95E1F787
:1047900080912703909128030E94890D0E940F2287
:1047A000E6CEA7E1B0E0E7EDF3E20C94612B4B8B92
:1047B0005C8B6D8B7E8B8F8B611110925F051A8ADB
:1047C000198A85E0FE017396DE011D9601900D9217
:1047D0008A95E1F78091A50582FF1CC00E946912AD
:1047E0002091A1053091A205821B930B8C3D954031
:1047F00020F08091A30582FF79C00E946912209168
:104800007F0330918003821B930B8C3D954010F009
:104810000E94730A86E0FE013D96DE011796019024
:104820000D928A95E1F7CE0107960E9469228823AE
:1048300059F016E080915E0390912D03891343C0D7
:104840006796E3E00C947D2B86E0FE013796DE014F
:10485000119601900D928A95E1F78A859B85892BA7
:1048600041F38F81988589238F3F19F320912D0380
:1048700030E0C90101968770992740915E0348177F
:10488000190671F40E94191510922D0310925E03FF
:1048900086E0E7E2F3E0DF011D928A95E9F7C9CFF0
:1048A00096E0929FD001939FB00D1124A25DBC4F62
:1048B000FE01319601900D929A95E1F780932D03B8
:1048C0000E94D00AB6CF819FC0011124825D9C4F07
:1048D0000E946922882309F4B3CF80915E0390E09F
:1048E00001968770992780935E03A4CF82E00E948F
:1048F000610B83CF1F921FB61F9211248F939F933A
:10490000AF93BF9380916905811113C080916A05AF
:1049100090916B05A0916C05B0916D054196A11D1C
:10492000B11D80936A0590936B05A0936C05B093BD
:104930006D05BF91AF919F918F911F901FBE1F90EA
:104940001895CDB7DEB7E1970FB6F894DEBF0FBE6E
:10495000CDBF85B7806885BF85B7806885BF84B7C0
:10496000877F84BF0FB6F894A89580916000886116
:1049700080936000109260000FBE80E890E00FB658
:10498000F89480936100909361000FBE88E898E0EE
:104990009093E5028093E4020E9444040E94E5049F
:1049A0008091E20084608093E20078948091930586
:1049B0008823A1F01091E9001F709091EC00892FDD
:1049C000817090FD80E8182B1092E9008091E8003A
:1049D00083FD0E9448151F701093E90082E084BD9A
:1049E00093E095BD9AEF97BD80936E000E94E30D12
:1049F000811102C00E940D0D0DEA11E092EBE92E2B
:104A000091E0F92ED8018D918D018F3F11F00E9418
:104A10008A08E016F106B1F702EB11E0F801819186
:104A20008F018F3F11F00E948A08F1E0013C1F07BF
:104A3000A9F78AE0E0EAF3E0DF01282F1D922A952A
:104A4000E9F7E6E8F3E0DF011D928A95E9F70E94B5
:104A5000EF10811102C00E94FB1082E090E00E94E2
:104A6000D92B8093920384E090E00E94E12B9093F5
:104A7000A5058093A4050E94A913EFEBFDE53197EE
:104A8000F1F700C000000E94A9138091A00380FFED
:104A900008C06FEF7FEF90E080E00E94152C0E942D
:104AA000620C83E090E00E94D92B0E948D0B0E9443
:104AB000130F1092B7038FEF9FEF9093D103809362
:104AC000D0039093D3038093D2039093D503809324
:104AD000D4039093D7038093D6039093D903809304
:104AE000D8039093DB038093DA039093DD038093E4
:104AF000DC039093DF038093DE030E94EF108111AB
:104B000004C00E94FB100E94C41081E08093E9035E
:104B100046E050E06CE170E08AEE93E00E94C92B21
:104B20001092E9038091EA038C7F11F40E94C41073
:104B300021E040E060E090E080E00E94CC060E942E
:104B40002C0680FF03C083E50E948E198FE091E060
:104B500090936605809365057724739480919305FF
:104B6000853089F400E4F02E83E0E82E00E112E1C4
:104B700080919305853009F4C9C00E9419150E94DF
:104B80002C061092E8030E94A91343E953E05CA7A6
:104B90004BA780EA93E09FA78EA7DC01FA01219141
:104BA00031918D919D914DE953E04E175F0709F4C6
:104BB000FEC02817390799F311EC812E11E0912ED0
:104BC000612CAEA5BFA5ED90FD90BFA7AEA7EBA54C
:104BD000FCA581919191FCA7EBA78E159F0509F487
:104BE0008BC09C012E253F2539AB28AB1401512CDD
:104BF000CC24C394D12C88A999A98C219D21892BDF
:104C000009F46CC087010C211D215EA26FA281E016
:104C10000115110509F480E088A70E9469128160DE
:104C2000782F9AA789A74EA15FA168A58AA50E949F
:104C3000D123012B29F0D1018C918F3F09F052C271
:104C4000412C042D10E08091B703800F912F911D0E
:104C500009976CF1E8E0AE2EB12CA01AB10AB801A8
:104C600068547C4FA50188EB93E00E94C02BB801EB
:104C700060547C4FA50180EC93E00E94C02BA501FD
:104C8000440F551FB801660F771F60537C4F80EDAE
:104C900093E00E94C02BB80168537C4FA50188ECBB
:104CA00093E00E94C02B88E084198093B703809121
:104CB000B70390E0EDA5AE2FB0E09D01220F331FAA
:104CC000245F3D4FAA0FBB1FBD01635F7D4F41E0D5
:104CD000480F941508F40AC28093B7035394CC0C80
:104CE000DD1CEFEF2E1A3E0AFFE05F1284CFEBA52A
:104CF000FCA53297F182E08263942FE0820E911C32
:104D000035E063125ECF0E94A10573C080919305C8
:104D1000843009F439C00E94C00F8091E8038111EA
:104D20000DC00E944F07109242018091EA038370E8
:104D3000809341010E94780EE0924601F1E0F093E9
:104D4000E8031092690528E130E00FB6F894A895C1
:104D5000209360000FBEF092600083B7817F846073
:104D600083BF83B7816083BF7894889583B78E7F34
:104D700083BF0FB6F894A8958091600088618093F6
:104D80006000109260000FBE80919205882309F4A4
:104D9000EFCE0E94A913E0EAF3E081919191892B73
:104DA00009F082C333E0EA3AF307B9F7E1CE2817F6
:104DB000390709F001CF0E9469128C01809190039C
:104DC0009091910308171907A1F08FEF89A38AA387
:104DD0001BA20E9469128160782F9DA38CA349A118
:104DE0005AA16BA18DA10E94D1231093910300932E
:104DF000900380915B0590915C05892B09F44EC06E
:104E000040915005509151056091520570915305A4
:104E10002FB7F89480916A0590916B05A0916C056D
:104E2000B0916D052FBF841B950BA60BB70B40915E
:104E30004C0550914D0560914E0570914F058417BA
:104E40009507A607B70750F100915B0510915C0527
:104E5000C8010E94A10B9801205E3109283031055C
:104E600020F00115110509F057C10E947118802F1B
:104E70000E941C1910925C0510925B05109250055F
:104E800010925105109252051092530510924C0544
:104E900010924D0510924E0510924F05009161053C
:104EA0001091620501151105B9F080919D03909153
:104EB0009E030E945A12893C910570F04EE0049FB7
:104EC000C0011124FC01E45EFE4F208122FD04C0DC
:104ED000895E9E4F0E94EE140E94C00F86E0E1EBB7
:104EE000F3E0DE01119601900D928A95E1F71092A0
:104EF000B3031092B4031092B5031092B6038B81E2
:104F00009C81892B09F44AC08091AF039091B00332
:104F10000E945A129C019091AA03992309F4E8C2B5
:104F200025313105D8F19F3F19F09F5F9093AA0377
:104F30001B81112359F00E9468089FEF11160CF491
:104F400091E0899F802D11248093B3031C8111234C
:104F500059F00E9468089FEF11160CF491E0899FA8
:104F6000802D11248093B4033091B3033323B1F027
:104F70002091B403222391F055EB3503C001112495
:104F8000992309F4CCC09093B30345EB240390011B
:104F90001124332309F4C6C03093B4038D819E815C
:104FA000892B09F44AC08091AD039091AE030E9411
:104FB0005A129C019091AB03992309F494C22135B4
:104FC0003105D8F19F3F19F09F5F9093AB031D818E
:104FD000112359F00E9446089FEF11160CF491E03E
:104FE000899F802D11248093B5031E81112359F0D0
:104FF0000E9446089FEF11160CF491E0899F802DC6
:1050000011248093B6033091B5033323B1F020917E
:10501000B603222391F055EB3503C00111249923E7
:1050200009F483C09093B50345EB24039001112448
:10503000332309F47DC03093B60346E050E0BE014F
:105040006F5F7F4F81EB93E00E94B32B892B61F45C
:105050008091B3039091B403892B9091B503892B70
:105060009091B603892B11F00E94AA1286E0FE01EE
:105070003196A1EBB3E001900D928A95E1F70E9481
:105080002C0690919F03891721F080939F030E9423
:10509000A10580919305843009F060CD83E0809371
:1050A000E9008091E80082FF59CD8091E80090E00E
:1050B00085FF05C00E9463048823E9F191E0809197
:1050C000E8008B778093E800992309F447CD898124
:1050D000EFEFE80FE33108F057C0F0E0EF58F34D81
:1050E0000C949D2B8DA744244394ABCD90E0FC0100
:1050F000E954FC4FD9015C915183DB015C915187EC
:10510000BDA5B18B880F991FFC01E954FC4F128E8D
:10511000118E91E0842FDBCD0E946018A8CE709292
:10512000B30333CF7092B40339CF7092B5037CCF01
:105130007092B60382CF80E2E82EF12C8E010F5FD1
:105140001F4F8091E80085FD0AC08091E8008B77B1
:105150008093E8000E946304882399F3AFCF809185
:10516000F100D8018D938D01B1E0EB1AF10849F7F8
:10517000A5CF1A828BE08B831BC08A81823009F411
:10518000A9C128F4813061F08FEF898311C0833089
:10519000C1F08430C9F71B821C821D821E8208C0A8
:1051A0000E94A1050E94A32B6B837C838D839E8329
:1051B00040E250E0BE016F5F7F4F82E00E94F50B3E
:1051C000CDCC8091A0039091A1039827892798279F
:1051D0009C838B838091A2039091A30398278927B6
:1051E00098279E838D838091A4039091A50398278F
:1051F0008927982798878F838091A6039091A7038A
:105200009827892798279A8789878091A803909162
:10521000A9039827892798279C878B87C9CF8A81DC
:10522000823061F0853009F0AFCF8091EA03E1E090
:105230008E278093EA0310924601BACF6B817C815E
:105240008D819E810E94A32B85E290E00E94F72B26
:10525000AFCF4C816B818A810E941D0D98278927D1
:1052600098279E838D83A4CF2D813E8132272327CB
:1052700032274C816B818A810E94960C99CF0E94C3
:10528000BC0C96CF9A81933009F07ECF883009F418
:1052900041C0893009F46BC08B818230E9F088F419
:1052A000813009F085CF4C812FEF429F412D112491
:1052B0008091EB0320E06091EC0390E00E94CC062B
:1052C00077CF833019F1843009F072CF8C8120E0E0
:1052D0004091ED036D81F1CF8C819091EA03292FEC
:1052E0002370811107C011F0109246019C7F9093AA
:1052F000EA035ECF211102C0109246019C7F9160AB
:105300009093EA0360E00E942A0752CF8C81809339
:10531000EE034ECF8B818230E1F078F4813009F0DA
:1053200047CF8091ED03FFEF8F9FC00111246FEFF6
:1053300070E00E943E2B6C833BCF8330A9F0843019
:1053400009F036CF8091EB038C838091EC038D8341
:105350002FCF8091EA03982F9370869586959111AF
:1053600001C080E08C8324CF8091EE03FBCF0E94AC
:10537000B50F1ECF80E18A831BCF1A828CEEFBCE45
:105380000A811B811027012710279E012F5F3F4FA5
:105390006901EC80A9014E0D511D7A01C8018C5E96
:1053A0009C4FCE14DF0409F403CF0C3E110558F4D2
:1053B0000E94D92BD60114968C930F5F1F4FFFEFDD
:1053C000CF1ADF0AEBCFF6011482F7CF0A811B81D7
:1053D0001027012710279E012F5F3F4F6901EC80A6
:1053E000E00EF12EF11CC8018C5E9C4F0E151F05BE
:1053F00009F4DECE0C3E110528F4D60114966C910A
:105400000E94F72BBFEFCB1ADB0A0F5F1F4FEBCFCA
:105410000E94860CCDCE85E0AECF0A811B8110277D
:1054200001271027FE0131966F01EC809F012E0DA0
:10543000311D7901C8018696EC14FD0409F4B8CE3B
:105440000E3E32E0130758F40E94D92BD601149671
:105450008C930F5F1F4FFFEFCF1ADF0AEBCFF601E0
:105460001482F7CF0A811B811027012710279E0184
:105470002F5F3F4F6901EC80E00EF12EF11CC80157
:1054800086960E151F0509F493CE0E3E32E01307E3
:1054900028F4D60114966C910E94F72BBFEFCB1A1B
:1054A000DB0A0F5F1F4FEBCF09BD19BD09B400FE2A
:1054B000FDCF8091D8008F7D8093D8008091E0004F
:1054C00082608093E0008091E00081FDFCCF0E942B
:1054D00019154ECB85E290E00E94D92B1B821C82CD
:1054E0001D828E8365CE2B30310508F06DCDA5CDA4
:1054F0002B30310508F019CD51CD1092B9008CE058
:105500008093B8000895B0E0A0E0E9E8FAE20C94D6
:10551000592BB82EEB010E9469126C01EE24E39422
:10552000F12CC431D10560F025E0E22EF12CCF3F03
:10553000DC0731F0CE0164E170E00E943E2B7B017C
:1055400084EAA82E94E8992E1092BC00A092BC0088
:105550000E9469128C018091BC0087FF0DC0809170
:10556000B900887F8830F9F08091B900887F803158
:10557000D1F00FEF1FEF08C0C8010E945A12E816C1
:10558000F90648F70EEF1FEFCF3FDC07E9F2C6013F
:105590000E945A12C817D907B8F6C801CDB7DEB7AE
:1055A000EBE00C94752BB092BB009092BC000E9473
:1055B00069128C018091BC0087FF0AC08091B900FC
:1055C000887F883111F08034A1F610E000E0E5CF4B
:1055D000C8010E945A12E816F90660F7D3CF0F935C
:1055E0001F93CF93DF93EB018093BB0084E88093FC
:1055F000BC000E9469128C018091BC0087FF11C021
:105600002091B900287F81E090E0283211F490E0E9
:1056100080E0919581959109DF91CF911F910F9134
:105620000895CF3FDC0741F3C8010E945A12C81702
:10563000D90710F78EEF9FEFEFCFB0E0A0E0E3E2E5
:10564000FBE20C945C2B6B018A017901B9010E9489
:10565000832AE6010C0D1D1DC017D10711F097FF1D
:1056600008C024E92093BC00CDB7DEB7E8E00C9475
:10567000782BB70189910E94EF2AEECFAA1BBB1BA2
:1056800051E107C0AA1FBB1FA617B70710F0A61B42
:10569000B70B881F991F5A95A9F780959095BC0163
:1056A000CD0108952F923F924F925F926F927F9219
:1056B0008F929F92AF92BF92CF92DF92EF92FF9222
:1056C0000F931F93CF93DF93CDB7DEB7CA1BDB0BCE
:1056D0000FB6F894DEBF0FBECDBF09942A88398873
:1056E00048885F846E847D848C849B84AA84B9847A
:1056F000C884DF80EE80FD800C811B81AA81B98186
:10570000CE0FD11D0FB6F894DEBF0FBECDBFED0199
:10571000089597FB072E16F4009407D077FD09D063
:105720000E943E2B07FC05D03EF4909581959F4F3B
:105730000895709561957F4F0895EE0FFF1F0590B6
:10574000F491E02D09946927962769277827872700
:1057500078270895FB01DC0102C005900D924150AD
:105760005040D8F70895FB01DC0104C08D910190F1
:10577000801921F441505040C8F7881B990B0895B7
:10578000FB01DC0102C001900D9241505040D8F75E
:105790000895DC01CB01FC01F999FECF06C0F2BDF2
:1057A000E1BDF89A319600B40D9241505040B8F7DF
:1057B0000895F999FECF92BD81BDF89A992780B5D9
:1057C0000895A8E1B0E042E050E00C94CB2BDC015E
:1057D000A40FB51F4150504048F0CB01840F951FD6
:1057E0002E910E94F82B41505040D0F70895262F5B
:1057F000F999FECF92BD81BDF89A019700B40216C7
:1058000039F01FBA20BD0FB6F894FA9AF99A0FBE74
:1058100008950396272F0E94F82B0E94F72B252F1F
:105820000E94F82B242F0C94F82B0196272F0E940E
:10583000F82B0C94F72BF894FFCF29165116F41778
:105840005116F4178416A516F417A317B017991D4F
:10585000991DD41DD41D7E1E981E031E031E9D1E61
:105860000A1F1B1F1B1F081C7D1C101CDA1BDE1BC4
:10587000141CE21B181C241CEE1B761CF21B281C9B
:10588000F61B2C1C541CFA1B301C5B1C001C361C09
:105890003E1CE61B1C1CEA1B201C041C3A1C4A1C58
:1058A000641C741CD41B0C1C841CBB1BBF1BB01BB6
:1058B000B71BC31BC71BCB1BB71CC51CCC1CD11CE7
:1058C000D61CDB1CE01CE51CEA1CEF1CF41CF91CBC
:1058D0009A1A9A1A9A1A9A1A9A1A9A1A9A1A9A1A28
:1058E0009A1AB928BD280F29292934293F29422984
:1058F00042294229C428C428BA29BD29C029E62939
:08590000082A0B2A0D2A322AA5
:1059080069015A014B010000010001000100019EDC
:10591800053E0C370C300C000000000000000009A8
:105928001ADA0B00000000000000000000251A141D
:1059380019000000000000000000008C12D20B00CB
:1059480000FFFF00FF00030100FFFF2D0010FF0014
:10595800104502070000000000002E0010FF001094
:105968004504070000000000002A0022FF00224C26
:105978000007000000000000818283E200E900EADD
:1059880000B500B600B700CD008301CC008A0192B3
:105998000194012102230224022502260227022A59
:1059A80002B300B4006F0070009F01CB01F0F1F466
:1059B800C666F7F6F5673031323334979694959387
:1059C80092000102030405060708090A0B0C0D0ED4
:1059D8000F101112131415161718191A1B1C1D1E57
:1059E8001F20212223242526272829FF2A2B2C2D76
:1059F8002E2F3031323334353637FF38393A3B3C85
:105A0800FFFF3DFFFF3EFF3F40FF414200000F0008
:105A18001E002D003C004B005A00690078008700EA
:105A28009600A500B400CB00E00004101710261063
:105A38003510441053106210711080108F109E1092
:105A4800AD10BC10CE10E01006201A2029203820F6
:105A5800472056206520742083209220A120B02062
:105A6800C920E02009302230313040304F305E30DC
:105A78006D307C308B309A30A930BD30D230E03078
:105A880002401540274060409840AB40C340D24098
:105A9800E0400104040404040404040404040404A9
:105AA80001010404040404040404040404040401B7
:105AB80001040404040404040404040404010104A7
:105AC800040404040404040404040401010101049A
