:100000000C94BF030C9406040C9406040C94060490
:100010000C9406040C9406040C9406040C94060438
:100020000C9406040C9406040C9427170C94861C5C
:100030000C94992B0C9406040C9406040C9406045E
:100040000C9406040C9406040C9406040C94060408
:100050000C9406040C94FE170C9406040C940604ED
:100060000C9406040C9406040C9406040C940604E8
:100070000C9406040C9406040C9406040C940604D8
:100080000C9406040C9406040C9406040C940604C8
:100090000C9406040C9406040C9406040C940604B8
:1000A0000C9406040C9406040C9406040501090241
:1000B000A10185020901A1000509190129081500FE
:1000C0002501950875018102050109300931158165
:1000D000257F95027508810609381581257F9501D0
:1000E00075088106050C0A38021581257F95017572
:1000F000088106C0C005010980A101850319012AF4
:10010000B700150126B700950175108100C0050CD8
:100110000901A101850419012AA002150126A002E6
:10012000950175108100C005010906A1018505052D
:100130000719E029E71500250195087501810205D9
:1001400007190029EF1500250195F07501810205B9
:10015000081901290595057501910295017503910D
:1001600001C00660FF0961A1010962150026FF00B8
:100170009520750881020963150026FF00952075FA
:10018000089102C005010906A101050719E029E748
:1001900015002501950875018102950175088101F9
:1001A0000507190029FF150026FF0095067508812F
:1001B000000508190129059505750191029501753C
:1001C000039101C0000000000000000000000000DA
:1001D000000000000000000000000000000000001F
:1001E00000000000000000007E0F00D4FFFFFFC7EA
:1001F0000000007800000000000000002A2B28000A
:1002000000000000000000000000000000000029C5
:10021000000000002C1E3420212224342627252E05
:10022000362D3738271E1F2021222324252633333D
:10023000362E37381F0405060708090A0B0C0D0E69
:100240000F101112131415161718191A1B1C1D2F35
:100250003130232D350405060708090A0B0C0D0E55
:100260000F101112131415161718191A1B1C1D2F15
:100270003130354C0001010101010101010102028F
:100280000202020202020203030303030303030444
:10029000040404040404050505050506060606060F
:1002A000070707070708080808090909090A0A0AC9
:1002B0000B0B0B0C0C0C0D0D0D0E0E0E0F0F0F106B
:1002C00010111111121213131414151516161717F5
:1002D000181819191A1A1B1B1C1D1D1E1E1F202061
:1002E000212222232424252626272829292A2B2CAB
:1002F0002D2D2E2F30313232333435363738393ACE
:100300003B3C3D3E3F404142434445464748494AC5
:100310004C4D4E4F50515354555658595A5B5D5E93
:100320005F616264656668696B6C6D6F707273752E
:1003300077787A7B7D7E8082838587888A8C8E8F92
:1003400091939596989A9C9EA0A2A3A5A7A9ABADC0
:10035000AFB1B3B5B7BABCBEC0C2C4C6C9CBCDCFAE
:10036000D1D4D6D8DBDDDFE2E4E7E9EBEEF0F3F55C
:10037000F8FAFDFF009B8B7B00AB8A7A00AA9A7982
:1003800000A9998900A8988800A7978700A6968653
:1003900000A5958500A49484003C4C5C002C4D5D28
:1003A000002D3D5E002E3E4E003040500031415148
:1003B000002A3A4A00293949002838480027374797
:1003C0000026364600253556002445550034445451
:1003D00000AC9C8C00AD9D8D00AE9E8E00AF9F8FBB
:1003E00000B0A09000B1A19100324252002B3B4BD3
:1003F00001A9998901A8988801A7978701A69686DF
:1004000001A5958501A49484013C4C5C012C4D5DB3
:10041000012D3D5E012E3E4E012F3F4F01304050D9
:100420000033435301AB8A7A012838480127374704
:1004300001263646012535560124455501AC9C8CD4
:1004400001AD9D8D01AE9E8E01AF9F8F0131415157
:10045000013242520133435300B2A281019B8B7B94
:10046000012B3B4B012A3A4A0134445401B1A1917A
:1004700001B2A28101A3938300A3938300B392826C
:10048000165C1E001F002000210022002300240013
:100490002500260027002D002E002A004A002B00F0
:1004A00014001A000800150017001C0018000C00AA
:1004B000120013002F00300031004B0000570400E1
:1004C0001600070009000A000B000D000E000F00C7
:1004D00033003400000028004E00E1001D001B0026
:1004E0000600190005001100100036003700380022
:1004F0000157000052004D00E000E300E200000060
:1005000000002C000000000002580000E400500031
:10051000000051004F0035003A003B003C003D0018
:100520003E003F00400041004200430044004500BF
:100530004C00490001004A0052004D004B000100F0
:1005400001000100010001000100010001000100A3
:1005500046000100500051004F004E000100010014
:100560000100010001000100010000000100010084
:10057000010001000100B200010001000100290397
:100580000100010001000100000001000100010064
:100590000100010000000000010000000000010057
:1005A000000065610100000001000100350001004C
:1005B000010001000100010001005F006000610016
:1005C0000100560057000100A60001004A00520039
:1005D0004D004B00010001005C005D005E00010069
:1005E00055005400010001000100500051004F006F
:1005F0004E000100010059005A005B00010001009B
:10060000000001000100010001000100B200010032
:10061000010001006200620063005300010000005D
:1006200001000100010001000100000000000100C4
:1006300000000000010000000100010000000100B6
:100640000100C25CCD5C01000100145CAA00A9009D
:10065000AE00A80001000100010001000100C75C1C
:100660000100010001000100010001000100010082
:1006700001000100010001000100005CC85C0100F4
:100680000100010001000100010001000100010062
:100690000100010001000000DE5CC55C01000100FA
:1006A0000100010001000100010001000100010042
:1006B000010001000000C35CC65C010001000100F4
:1006C0000000000001000000000001000000010027
:1006D000CA5C0000C45CC95C09025B00030100A0A5
:1006E000FA090400000103010100092111010001C0
:1006F0002240000705810308000A090401000203E3
:1007000000000009211101000122220007058203D7
:100710002000010705030320000109040200010372
:1007200000000009211101000122B6000705840321
:1007300020000A1201000200000008424B251202AC
:10074000000102000120036B0062006400360037E4
:10075000006D006B00690069007200670062002094
:100760000076003200000010034B00420044006697
:100770000061006E007300000004030904001124EE
:100780001FBECFEFDAE0DEBFCDBF04B603FE27C049
:1007900080919B0590919C05A0919D05B0919E052F
:1007A0008730904BA740B04BD1F410929B0510922C
:1007B0009C0510929D0510929E0514BE84B7877FFC
:1007C00084BF0FB6F894A8958091600088618093EB
:1007D0006000109260000FBEE0E0F8E3099512E0BF
:1007E000A0E0B1E0EAEAF5E602C005900D92AC3C6B
:1007F000B107D9F725E0ACECB2E001C01D92AB39EE
:10080000B207E1F70E94C02B0C9485320C940000D3
:1008100090919405937051F0811109C09460909368
:1008200094051092490181E08093930508958731E2
:1008300010F09865F4CF880F880F982BF0CF909127
:100840009405937049F080939505609396054093C5
:10085000970581E0809393050895E8EDF0E08081AD
:100860008E7F80831092E2001092DA001092E100F5
:10087000A0EEB0E08C9181608C9380818F77808333
:1008800019BCA7EDB0E08C918E7F8C9380818F7E18
:10089000808310925D0508952091E4003091E50079
:1008A00095E6A9012091EC00822F817020FF06C0FF
:1008B0008091E80080FF06C080E008952091E80064
:1008C00022FD1AC080918205882389F0853089F045
:1008D0008091EB0085FD0FC02091E4003091E50090
:1008E00042175307F9F29150E1F684E0089582E04F
:1008F000089583E0089581E00895EF92FF920F93A9
:100900001F93CF937C018B010E944C04C82F81114F
:1009100017C08091E80085FD0BC08091E8008E77BC
:100920008093E8000E944C04882399F3C82F08C0E4
:10093000F70181917F018093F1000150110949F77E
:100940008C2FCF911F910F91FF90EF900895809180
:10095000840587FF13C08091E80082FF06C0809164
:10096000E8008B778093E80004C0809182058111B4
:10097000F2CF0895809182058823D9F38091E80011
:1009800080FFF8CF8091E8008E77ECCF982F90937E
:10099000E900242F762F50E0891731F07091EC0098
:1009A0002091ED005091F00021FD07C09F5F97302E
:1009B00071F78093E90081E008953091EB003E7F6C
:1009C0003093EB003091ED003D7F3093ED0030919E
:1009D000EB0031603093EB007093EC002093ED005E
:1009E0005093F0002091EE0027FDE0CF80E00895C5
:1009F000CF92DF92EF92FF920F931F93CF93DF93EB
:100A0000C8EDD0E088818F7E8883E7EDF0E08081BB
:100A10008160808384E082BF81E080935D0588816E
:100A20008E7F888302EE10E0F80110821092DA00C7
:100A300081EEC82ED12CF601108288818F778883B1
:100A400088818068888388818F7D888319BC109213
:100A5000820510928305109281051092800590EE18
:100A6000E92EF12CF70180818B7F80838881816062
:100A7000888342E060E080E00E94C604F601808145
:100A80008E7F8083F801808181608083808188608F
:100A90008083F70180818E7F808388818061888355
:100AA000DF91CF911F910F91FF90EF90DF90CF904A
:100AB0000895FC0180918A0590918B058617970710
:100AC000A0F06115710529F49091E8009E7790934C
:100AD000E80090E06115710551F4911108C0809112
:100AE000E80082FF34C080E00895BC01F2CF80911D
:100AF00082058823C1F18530C1F18091E80083FD32
:100B000030C08091E80082FDEACF8091E80080FF4C
:100B1000E1CF8091F3002091F200382F611571052B
:100B200019F02830310558F091E02830310509F0EE
:100B300090E02091E8002E772093E800CBCF8191C0
:100B40008093F100615071092F5F3F4FE7CF809193
:100B50008205882341F0853041F08091E80083FFD1
:100B6000BECF81E0089582E0089583E008958091EA
:100B70005F0508952FB7F89460915405709155055D
:100B800080915605909157052FBF089520914501FA
:100B90002223C1F02091580527FF14C0E62FE695C7
:100BA000E695E695EE31F8F4E80FF92FF11D677040
:100BB00021E030E001C0220F6A95EAF78281822BA2
:100BC00082830895FC0132962FEF30E04191641743
:100BD00051F02F3F19F4411101C0232F3F5F3630F0
:100BE000A9F72F3F09F40895820F911D27FD9A95CB
:100BF000FC01628308952091510530915205281718
:100C0000390771F09093520580935105E0914F059B
:100C1000F0915005309721F00084F185E02D099482
:100C2000089520914D0530914E052817390771F030
:100C300090934E0580934D05E0914F05F09150053E
:100C4000309721F00680F781E02D09940895E09116
:100C50004F05F0915005309721F00190F081E02D83
:100C6000099480E00895CF93DF93EC0140913E0515
:100C700050913F0560914005709141052FB7F89460
:100C80008091540590915505A0915605B091570556
:100C90002FBF841B950BA60BB70B843F9140A1057A
:100CA000B10518F580913E0590913F05A091400552
:100CB000B091410580933A0590933B05A0933C0584
:100CC000B0933D0584EF91E0A0E0B0E0809336055D
:100CD00090933705A0933805B0933905D093460516
:100CE000C0934505DF91CF9108950E94BA056093A6
:100CF0003A0570933B0580933C0590933D0582E354
:100D000090E0A0E0B0E0E2CFFC018481862351F4C2
:100D100092819923B9F06923808583FF05C081E022
:100D200061110FC080E00895892F8F7092959F7098
:100D3000982B862F8F7062956F70682B81E09613C9
:100D4000F1CF089581E0FDCFFA01811101C0FB01CF
:100D500009948334910570F5FC01EE0FFF1FEE0F2F
:100D6000FF1FDF01AC58BC4FCD010296FC0154912E
:100D70000196FC013491FD0185918370E491A82FC7
:100D8000B0E0F0E98F9FC001112480519C4FE80F23
:100D9000F92FF11DB4976083FC01E50FF11DB497A5
:100DA0004083830F911DFC01B4972083A251BC4F57
:100DB00081E08C930895FF920F931F93CF93DF935D
:100DC000182F062FF42ED0E0C0E02F2D402F612FDA
:100DD000CE010E94A9062196C334D105B1F7DF9157
:100DE000CF911F910F91FF900895E4E9F5E02481E0
:100DF00030E1231B08F420E0248381E080939305F5
:100E00000895E4E9F5E0248130E1230F08F42FEFA1
:100E1000248381E0809393050895E4E9F5E043811C
:100E200020E1421B08F440E08181628190E00C9453
:100E30001F04E4E9F5E0438120E1420F08F44FEF9D
:100E40008181628190E00C941F04E4E9F5E0628105
:100E500020E1621B08F460E08181438190E00C9402
:100E60001F04E4E9F5E0628120E1620F08F46FEF0E
:100E70008181438190E00C941F04E4E9F5E08181D5
:100E8000438162818850990B0C941F04E4E9F5E0DA
:100E9000818190E04381628108960C941F048091C7
:100EA000940586958695815009F486E10C94080492
:100EB00080919405869586958F5F873108F081E053
:100EC0000C940804E42FF0E0EE0FFF1FED5FFD4FE0
:100ED0009081921B97FD9195292F38E1239F212D19
:100EE0001124620F08950F931F9310E0F801EE0F85
:100EF000FF1FED5FFD4F9081905797FD9195000F7B
:100F0000111FF801EC5FFD4F00810052110B20030F
:100F1000F001219FF00D112408E310E0091B1109D5
:100F200097FD139540039001419F300D1124E20F6E
:100F3000F31F9F01220F331F2E0F3F1F37FF02C0E9
:100F400021583F4F220F232F221F330B620F1F9177
:100F50000F9108950F931F93522F10E0F801EE0F99
:100F6000FF1FEC5FFD4FA081A052BB0B9D01520300
:100F7000F001539FF00D1124000F111FD801AD5F38
:100F8000BD4F0C910057110B40039001419F300D54
:100F900011242E0F3F1F37FF02C0215C3F4F96E008
:100FA000359527959A95E1F7620F1F910F91089556
:100FB0000F931F93522F10E0F801EE0FFF1FEC5F0D
:100FC000FD4FA081A052BB0B9D015203F001539F26
:100FD000F00D1124000F111FD801AD5FBD4F0C9112
:100FE0000057110B40039001419F300D11242E0F2B
:100FF0003F1F37FF02C021583F4F220F232F221FD0
:10100000330B620F1F910F910895EF920F93972F5B
:1010100023E0029FB0011124759567956E0D792F1D
:101020000F91EF900895322F50E0FA01EE0FFF1F5D
:10103000EC5FFD4F9081905297FD9195440F551FA5
:10104000FA01ED5FFD4F2081231B330B290F311D6A
:1010500097FD3A95620F0895E42FF0E0EE0FFF1F21
:10106000EC5FFD4F6081621B0895E42FF0E0EE0F0E
:10107000FF1FED5FFD4F6081621B0895622F089591
:10108000E42FF0E0EE0FFF1FED5FFD4F408134EEE7
:10109000439F412D1124E82FF0E050E0445E5F4F64
:1010A000DA01A21BB1099D01B7FF03C0319521955B
:1010B000310993E0220F331F9A95E1F7AF01421BEC
:1010C000530B9A0157FD20E0582F259F212D112405
:1010D000822F08950C94DB060C94A90622E8241BA9
:1010E00008F420E0620F0895FC019B01009729F4A9
:1010F00080E077FF2BC080E80895AC0197FF04C023
:1011000044275527481B590BB901640F751F37FD3C
:1011100010C0241B350BC901A5E0880F991FAA95A3
:10112000E1F70E94BB3180E2861BF7FF0FC081957B
:101130000895CB0165E0880F991F6A95E1F7BA0120
:10114000621B730B0E94BB3180E6EECF0895EF92D5
:101150000F93CF93DF93D72FC82FC9010E19BA0170
:101160000E947408602F681B7D2F8C2FDF91CF9118
:101170000F91EF9008950F93CF93DF93D72FC82F40
:10118000C901BA010E947408682F600F7D2F8C2F4F
:10119000DF91CF910F910895EF920F931F93CF930B
:1011A000DF93D62FC72F182FC9010E19010FBA01CF
:1011B0000E947408081B202F219F212D1124822FAB
:1011C0006D2F7C2FDF91CF911F910F91EF9008959C
:1011D0000F931F93CF93DF93D62FC72F182FC901DB
:1011E000212F201B022FBA010E947408982F990FFB
:1011F000990F891B800F282F219F212D1124822FC9
:101200006D2F7C2FDF91CF911F910F910895E82FC3
:1012100086FDE0952E2F2F7086FD2F5FE695E695D3
:10122000E695E670F0E0EF55FE4F9181929F902D8C
:10123000212D112492959F702295207F922B208141
:10124000920F87FD919580E8890F08950F931F9362
:10125000CF93DF938B01D82FC42F822F0E940709D1
:10126000EC2FF0E0EE0FFF1FED5FFD4F90819058E7
:10127000890F87FD8195880F682F2CE0629F612D73
:101280001124600F712F8D2FDF91CF911F910F913E
:101290000895AC018230910508F408959FEF413E16
:1012A0008EE1580740F49A0195E0369527959A9576
:1012B000E1F798E0920F61E0E62FE90FFF27FF1FAB
:1012C0009F0135952795822F229FF001239FF00DD6
:1012D000F00D11244E175F0738F49FEF920F961709
:1012E00058F78FEF860F08952F3FE9F361E0620F03
:1012F000F6CF0F93CF93DF93D72FC82F47FD41959C
:1013000088E390E0841B910947FD9395889FB00185
:10131000899F700D700D1124229FC001239F900D95
:10132000900D1124860F971F0E944909982F990F3D
:10133000890F682F600F7D2F8C2FDF91CF910F9138
:10134000089530E020E0869F212D969F200D311DCD
:101350001124C9010895AF92BF92CF92DF92FF92FC
:101360000F931F93CF93DF93362F472FE82FF0E093
:10137000EC58FD4F71110FC0E4918E2F2E2F6E2F60
:10138000722FDF91CF911F910F91FF90DF90CF903F
:10139000BF90AF900895C72FD0E02491F22E022F76
:1013A00010E056E0659FC0011124EFEFF0E0BF01AF
:1013B0000E94A731832F90E0880F991F35E5369F53
:1013C000D001379FB00D11248A1B9B0B982F990FCA
:1013D000980F6F01CC1ADD0AC09ED001C19EB00DDE
:1013E000D09EB00D11248B2F499FA0011124452FB1
:1013F00055276F01C41AD50AC09EA001C19E500D89
:10140000D09E500D11245F01A91AB108AC9E600155
:10141000AD9ED00CBC9ED00C1124CD2CDD24EC193B
:10142000FD09E09FE001E19FD00DF09FD00D112458
:10143000ED2F62307105A1F050F46115710509F4CA
:101440009ECF6130710581F0EB2F852F98CF6430EE
:10145000710569F080F06630710509F490CFF4CF22
:10146000E22F2B2F8D2F8BCFE22F252F88CFEB2F25
:10147000822F2D2F84CF2B2F8F2DE52F80CFDF9222
:10148000EF92FF920F931F93CF93DF937C01C09154
:101490004601CC0FCC0F14E01C0F012F143408F0C0
:1014A00003E4609198056695669521E0620F08F463
:1014B0006FEF80918C0590918D050E94A109D82E27
:1014C000D0E0C01760F081E0133408F080E0DF91D5
:1014D000CF911F910F91FF90EF90DF900895FE0143
:1014E000E757FD4F808190914701892391F06091EA
:1014F000950570919605809197052D2D4C2FF7013C
:1015000009950E94AB09462F282F672FCE010E9414
:101510006C082196D6CF9F92AF92BF92CF92DF9266
:10152000EF92FF920F931F93CF93DF936C01C091C3
:101530004601CC0FCC0F14E01C0FB12E143410F068
:1015400033E4B32E609198056695669580918C057D
:1015500090918D050E94A109F82E80E48F0D0E94C4
:10156000070990E8A92EA80E8F2D0E94070920E8F0
:10157000922E980ED0E0CB1580F081E0133408F065
:1015800080E0DF91CF911F910F91FF90EF90DF905E
:10159000CF90BF90AF909F900895FE01E757FD4F09
:1015A0008081909147018923A1F060919505709108
:1015B000960580919705EF2C0C2F292D4A2DF601C9
:1015C00009950E94AB09462F282F672FCE010E9454
:1015D0006C082196D0CF7F928F929F92AF92BF924C
:1015E000CF92DF92EF92FF920F931F93CF93DF93EF
:1015F0005C01C0914601CC0FCC0F14E01C0FF12E02
:10160000143410F033E4F32E6091980566958091C0
:101610008C0590918D050E94A109782ED0E0CF1500
:1016200090F081E0133408F080E0DF91CF911F91BA
:101630000F91FF90EF90DF90CF90BF90AF909F9071
:101640008F907F900895FE01E757FD4F8081909124
:1016500047018923C9F1CE01880F991F88549E4FF5
:10166000FC01E55BFF4F2081422F4057550B6A017B
:10167000845B9F4FFC018081282F2052330B49014E
:10168000449F9001459F300D300D1124889CC0016E
:10169000899C900D900D1124820F931F0E9449097F
:1016A000082F609195057091960580919705E72C1C
:1016B0009401A601F50109950E94AB09462F282F38
:1016C000672FCE010E946C082196A9CFCF92DF929E
:1016D000EF92FF920F931F93CF93DF937C01C09102
:1016E0004601CC0FCC0F14E01C0FD12E143410F097
:1016F00033E4D32E60919805669580918C05909186
:101700008D050E94A109C82ED0E0CD1568F081E0BA
:10171000133408F080E0DF91CF911F910F91FF907B
:10172000EF90DF90CF900895FE01E757FD4F808145
:1017300090914701892311F1CE01880F991F885498
:101740009E4FFC01E45BFF4F20812052330B855BF1
:101750009F4FFC0140814057550B6091950570915A
:101760009605809197050C2DF70109950E94AB090C
:10177000462F282F672FCE010E946C082196C5CFD7
:101780009F92AF92BF92CF92DF92EF92FF920F9310
:101790001F93CF93DF93182F80911801811323C0DB
:1017A0009091940593702091170130E081E0921799
:1017B000130609F480E081708093480180919905B7
:1017C00090914701981739F08093470140E060E01D
:1017D00080E00E946A08173190F4E12FF0E0E957A9
:1017E000FD4C0C94EE3181E0E6CF809148018823D6
:1017F00009F4FDC040E060E080E00E946A0880E0FB
:10180000F6C0C0914601CC0FCC0F04E00C0FF02EB7
:10181000043410F0F3E4FF2E609195057091960565
:10182000809197050E94AB09E62ED72EC82ED0E0F6
:10183000CF1528F081E0033408F4D9C0E0CFFE01D1
:10184000E757FD4F808190914701892331F02C2D7E
:101850004E2D6D2DCE010E946C082196E9CFC091CE
:101860004601CC0FCC0F04E00C0FF02E043410F026
:10187000E3E4FE2ED0909605E0909705D091950573
:101880006D2F7D2D8E2D0E94AB09C62EB72EA82E52
:10189000609198056D0F7D2D8E2D0E94AB09E62E6F
:1018A000D72E982ED0E0CF1528F6FE01E757FD4F32
:1018B000908180914701892359F0292D4E2D6D2D5E
:1018C00090FD03C02A2D4C2D6B2DCE010E946C087B
:1018D0002196E9CFC0914601CC0FCC0F04E00C0F4C
:1018E000E02E043410F073E4E72ED0909605C090FB
:1018F00097052091980560E4F62E3F2D329F312DFB
:101900001124F32ED0E0CE1508F094CFFE01E75756
:10191000FD4F8081909147018923D9F0FE01EE0FA0
:10192000FF1FED5FFD4F6081F69EB001112455E071
:10193000759567955A95E1F780919505680F7D2D0E
:101940008C2D0E94AB09462F282F672FCE010E94B5
:101950006C082196D8CFC0914601CC0FCC0F04E083
:101960000C0FF02E043410F033E4F32EE0909505C4
:10197000D0919605D09097056091980566956695EB
:10198000669580918C0590918D050E94A1090E9419
:101990000709805887FD8195880F282F3D2D239FAB
:1019A000212D1124822F6E2D7D2F0E94AB09E62E52
:1019B000D72EC82ED0E0CF1508F03CCFFE01E75758
:1019C000FD4F808190914701892331F02C2D4E2DC0
:1019D0006D2DCE010E946C082196EDCF80E498E039
:1019E0000E943F0A04C088EE98E00E94660B909126
:1019F00046019F5F9093460181110CC082E0809365
:101A0000490180914801811105C0111103C083E093
:101A100080934901DF91CF911F910F91FF90EF903B
:101A2000DF90CF90BF90AF909F9008958CEC98E09E
:101A30000E94EB0ADCCF8EE398E0D2CF85E398E0FA
:101A4000CFCF8CE298E0CCCF83E198E0C9CF85E09E
:101A500098E0EECF89E799E0C8CF8BEB98E0C5CF4F
:101A600087EA98E0E5CF88ED97E00E948B0ABFCF28
:101A70008AEA97E0FACF83E797E0F7CFC091460173
:101A8000CC0FCC0F04E00C0FF02E043410F023E444
:101A9000F22ED0909605E0909705D0919505609133
:101AA000980566956695669580918C0590918D0553
:101AB0000E94A1090E940709805887FD8195880F1F
:101AC000682F2CE0629F612D11246D0F7D2D8E2DCE
:101AD0000E94AB09E62ED72EC82ED0E0CF1508F015
:101AE000A9CEFE01E757FD4F8081909147018923E0
:101AF00031F02C2D4E2D6D2DCE010E946C082196BB
:101B0000EDCF86E299E06CCF82E697E069CFC09195
:101B10004601CC0FCC0F04E00C0FD02E043410F093
:101B200093E4D92E2091980531E0230F08F42FEF8C
:101B300030E050E040E06FEF7FEF80E090E00E9407
:101B4000CF317901D0E02C2FCD1508F073CEFE01F6
:101B5000E757FD4F808190914701892311F1409112
:101B6000A8034150042E000C550B47FF1CC0C701B1
:101B70006091980531E0630F08F46FEF0E94A109AE
:101B8000AC016091950570919605809197050E9432
:101B90006E080E94AB09462F282F672FCE010E94A6
:101BA0006C082196D0CFFA01E855FC4F8189821349
:101BB0000AC0FA01EE0FFF1FE855FC4F818D928D90
:101BC0008E159F05A8F241505109CFCF40917B035C
:101BD000803F59F480917C0387FF0DC010927C03F5
:101BE00041110BC01092730308C0813F81F48091B2
:101BF0007C0318169CF3442381F080917D0390911F
:101C00007E03892B09F05AC0109272030895823F17
:101C100049F447FFF0CF10927B0380917C03811140
:101C2000ECCFE0CF833F19F41416ACF3E4CF9091DE
:101C30007D03893F29F41916F4F610927D03DBCF5A
:101C40008A3F19F497FFD7CFF8CF90917E038B3F4F
:101C500029F497FFD0CF10927E03CDCF8C3F19F49B
:101C60001916CCF3C8CF9CE0980F953090F4845FA0
:101C7000990B21E030E0B90102C0660F771F8A9509
:101C8000E2F7CB01809590917A03892380937A03C0
:101C9000B2CF8D3F31F4809174038E7F80937403B3
:101CA000AACF8E3F21F4809174038D7FF7CF8F3FB1
:101CB00009F0A1CF809174038B7FF0CF08958091BC
:101CC000740380FD16C081FD16C082FD16C0809190
:101CD00072038823A1F0883280F428E0829FC0013B
:101CE000112468E270E00E94BB31862F672B39F027
:101CF000089582E0089584E0089588E0089581E0E1
:101D000008958091740380FD14C081FD14C082FD8C
:101D100016C080917303882381F0843180F422E31C
:101D2000829FC001112464E170E00E94BB31862FC4
:101D300008958CE0089589E1089585E0089582E38F
:101D40000895803F31F40E94810E819580937C0339
:101D50000895813F19F40E94810EF8CF823F31F43B
:101D60000E94810E819580937B030895833F19F42F
:101D70000E94810EF8CF893F29F40E945F0E809364
:101D80007D0308958A3F21F40E945F0E8195F7CF6D
:101D90008B3F31F40E945F0E819580937E030895FE
:101DA0008C3F19F40E945F0EF8CF9CE0980F95309D
:101DB00070F4845F990B21E030E001C0220F8A9516
:101DC000EAF780917A03822B80937A0308958D3FFE
:101DD00031F48091740381608093740308958E3F81
:101DE00021F4809174038260F7CF8F3FB9F780911F
:101DF00074038460F1CF80E00895F894E82FE295B1
:101E0000EF70F0E031A1282F2F7081E090E001C049
:101E1000880F2A95EAF7982F9095932391A392A182
:101E2000892B82A3789408959091580592FF06C05B
:101E3000282F28712830F9F4877F846093FF06C02B
:101E4000282F28712831F1F4877E8461209159056B
:101E500020FF06C0382F38713830D9F4877F816071
:101E600021FF06C0282F28712831D1F4877E816197
:101E700094FD877E0895282F24712430F9F68B7FF6
:101E80008860DCCF282F2471243101F78B7E886194
:101E9000DDCF382F3171313019F78E7F8860E0CF78
:101EA000282F2171213121F78E7E8861E1CFCF93D8
:101EB000DF93EC0182389105A9F1D8F581339105C2
:101EC00009F496C048F58932910509F48AC08A97C9
:101ED00009F495C0C11521E5D20708F0BCC0C115B1
:101EE00030E5D30708F014C1C83ED10508F09CC006
:101EF000C03ED10560F5C83AD10508F087C0C53AA3
:101F0000D10508F0FDC0C130D10509F12097F9F0E5
:101F1000C430D105E0F440C08533910509F45AC0BE
:101F2000C997C1F680915805837089F0C0EED0E062
:101F30000EC0833E910599F170F4803E910501F148
:101F4000823E910539F68091580582FD21C0CE016F
:101F5000DF91CF910895863E910561F1873E91050D
:101F600071F1843E910509F0B5CF8091590581FF4B
:101F7000EECF80915805C7EED0E084FD0DC0E7CFCD
:101F80008091580580FD12C19091590590FFDFCFD7
:101F9000C3EED0E084FFDBCFD0E0C0E0D8CF8091AB
:101FA000580582FD06C19091590590FDBFCF84FF71
:101FB000CECFF2CF8091580583FDDDCFC8CF809181
:101FC000580583FDF9C09091590591FFF0CFC4EEFB
:101FD000D0E0BDCF8091580585FFB9CFC9E2D0E0F0
:101FE000B6CF8091580585FFB2CFC5E3D0E0AFCF23
:101FF0008091580586FFABCFCAE2D0E0A8CF809190
:10200000580586FFA4CFC1E3D0E0A1CFCF3BD105D7
:1020100018F6C85AD0E0CC0FDD1FC15ADE4F099028
:10202000D881C02DD46493CFC11540E2D40758F4B1
:10203000C11581E0D80708F08ACFC03FD10508F468
:10204000ABCFD06584CFC11590E4D90708F4A4CFF5
:10205000DF70D06A7CCFC11525E5D20700F5C11528
:1020600034E5D30708F08AC0C11543E5D40708F06A
:1020700071C0C11582E5D80708F467C0CE0183702E
:10208000992721E030E002C0220F331F8A95E2F742
:10209000C695C69580E2C89FE001112452C0C115C3
:1020A00099E5D907A8F4C11528E5D20708F06BC057
:1020B000C11536E5D30708F06FCF8C2F0E94140F9F
:1020C000C82FD0E0DC2FCC27CC27DF71D0623FCFE8
:1020D000C1154AE5D40708F45BC0CE0190568115BE
:1020E000904208F059CF8D2F8F710E94140F90E00D
:1020F000982F882788279F719C012C2BE901E6CF18
:10210000C55AD0E0C45ADE4FC881D0E0D0641FCF9A
:10211000CE01E4E096958795EA95E1F783702C2F40
:1021200026952695237040E2249F90011124382B98
:102130008C2F8370C1E0D0E002C0CC0FDD1F8A95E8
:10214000E2F7C22BD32BDC6802CFDC2FCC27C16F88
:10215000D06AFDCECE018370992721E030E002C025
:10216000220F331F8A95E2F7C695C69590E2C99F64
:10217000E0011124C22BD32BDA68E9CEDC2FCC2767
:10218000C46FD06AE4CEDC2FCC27C06FD06ADFCE1C
:102190008C2F8F700E94140F34E0D695C7953A9516
:1021A000E1F7CF709C2FEC01D069D1CEC9E3D0E02C
:1021B000CECEC2EED0E0CBCEC6EED0E0C8CE80917F
:1021C0004D03882331F010924D0310924C0310926E
:1021D0004B030895809590914C05982390934C055E
:1021E0000895909145019923D1F09091580597FF5A
:1021F00016C0E82FE695E695E695EE31E0F4F0E0BE
:10220000E253FD4F282F277081E090E001C0880F36
:102210002A95EAF780959281892382830895E0EDDB
:10222000F2E09191891303C0DF0111971C9292E0B3
:10223000E63DF907B1F708958091460390911503A3
:10224000981301C008958F5F8770FACF2FE0929F97
:10225000800D1124982F977086958695869523E09A
:10226000829FF0011124EF50FD4F50E040E080E0EC
:10227000219130E0092E02C0369527950A94E2F7A5
:1022800021703327042E01C0220F0A94EAF7822B13
:102290004F5F5F4F4330510559F708952FE0929FEC
:1022A000800D1124982F977041E001C0440F9A953A
:1022B000EAF786958695869593E0899FF00111242B
:1022C000EF50FD4F90E080E070E05191DF011197F9
:1022D0009B01082E02C0369527950A94E2F72170DB
:1022E00021952527242325272C93019683309105BA
:1022F00061F70895982F92959F7011F0892F94E0BF
:10230000282F2695269511F09E5F822F869509F03D
:102310009F5F892F08959C013A9521153F4150F503
:10232000FC01EE27F170BC0166277270AC014427F6
:1023300054709C012227387094FF0EC080E1EF2B6F
:1023400009F480E0672B09F08062452B09F0806476
:10235000232B89F08068089581E0EF2B09F480E059
:10236000672B09F08260452B09F08460232B19F05C
:102370008860089580E0089590918205943029F551
:1023800080935A0570935C0560935B059093E90018
:102390008FEF9091E800815095FD06C095ED9A95DC
:1023A000F1F700008111F5CF8091E80085FF0DC0A5
:1023B00050E040E063E070E08AE595E00E947D0433
:1023C0008091E8008E778093E8000895BC0184E056
:1023D0000C94BC11BC0183E00C94BC119C0184E002
:1023E0008093E9009FEF8091E800915085FD06C041
:1023F00085ED8A95F1F700009111F5CF8091E80005
:1024000085FF0CC050E040E066E070E0C9010E942A
:102410007D048091E8008E778093E8000895CF9343
:10242000DF93EC01809145018823B1F1809158053B
:1024300087FF32C060E284E08093E9008FEF9091E3
:10244000E800815095FD06C095ED9A95F1F70000E2
:102450008111F5CF8091E80085FF1BC08091450177
:1024600070E050E040E0811104C050E040E068E0DE
:1024700070E0CE010E947D048091E8008E77809309
:10248000E80080E2FE01A0E6B5E001900D928A9599
:10249000E1F7DF91CF91089568E081E0CDCF81E051
:1024A0008093E00080E28093D8001092C9008FE111
:1024B0009EE40197F1F700C0000087E090EBDC019B
:1024C00080939B0590939C05A0939D05B0939E05DA
:1024D00088E19CE00FB6F894A895809360000FBE49
:1024E00090936000FFCFCF93DF93CFE7D2E060E01F
:1024F000CE010E944B322196C11584E0D807B9F76E
:10250000DF91CF9108956F927F928F929F92AF92B9
:10251000BF92CF92DF92EF92FF920F931F93CF93D0
:10252000DF9380E8C82E84E0D82E9BEDE92EF12CB5
:10253000E701C659D10936011BC0F5018590949079
:10254000692DC8010E944B32682DC80101960E9476
:102550004B3282E0A80EB11C0E5F1F4FC017D1078F
:1025600061F78EE1680E711C6E96CE15DF0529F0BD
:102570008E010E5111095301E0CF7E0186E9E80E6C
:10258000F11C86E9C80ED11C83E3E81683E0F80647
:1025900079F6DF91CF911F910F91FF90EF90DF902F
:1025A000CF90BF90AF909F908F907F906F90089545
:1025B000CF93C82F6FEF811161E283E290E00E9418
:1025C0004B326FEFC11169E084E290E00E944B3220
:1025D0006FEFC11160E285E290E0CF910C944B3235
:1025E00080E00E94D81260E086E290E00E944B32C8
:1025F0000E9483120E94731281E00C94D812CF9330
:10260000C0915905C2FB992790F9981781F080FB7A
:10261000C2F9C09359056091580584E090E00E948A
:102620004B326C2F82E290E0CF910C944B32CF91E1
:1026300008950F931F93CF93DF93C42FD0E0CC0F57
:10264000DD1F2EE1629FC00DD11D112436E9839F4D
:10265000C00DD11D1124CE0187960E942D32082F66
:1026600010E0102F0027CE0188960E942D3298018D
:10267000282BC901DF91CF911F910F910895462F0B
:10268000843038F4753028F46F3018F4672F0C94C8
:10269000191390E080E00895CF92DF92FF920F939C
:1026A0001F93CF93DF936C0100919A0580914E03A5
:1026B000082BC7E0D0E010E0FC2EC8010C2E02C0B1
:1026C000959587950A94E2F780FD0CC02197A0F7B5
:1026D000F12C8F2DDF91CF911F910F91FF90DF9003
:1026E000CF900895B6018C2F0E943F130E94570F80
:1026F000019761F3EECFCF93DF93EC010E944C136F
:10270000BE010E943F13DF91CF910C94570FFC0143
:10271000808191810E947B13292F2F7092959F7049
:1027200092509E3078F4E92FF0E0E256FD4C0C9484
:10273000EE31803F19F020F4883E20F481E00895C6
:10274000843FE1F380E00895883EC0F3813FD1F7F4
:10275000F5CF822F869586958695089583E290E041
:102760000E942D32813289F484E290E00E942D3261
:10277000893059F485E290E00E942D3291E0803258
:1027800009F090E0892F8170089580E0FCCFCF930D
:1027900084E090E00E942D32C82F82E290E00E94F7
:1027A0002D32982F8C2FCF9108950F931F93CF9395
:1027B000DF93082F000FEB0114E21093DA03EBED27
:1027C000F3E0DE018D91819383E0EB3EF807D1F7D2
:1027D00024E630E041E150E06AED73E0802F0E9492
:1027E0008031105F6096143B41F7DF91CF911F91CC
:1027F0000F9108958091EE03882329F060EF73E034
:1028000084E70E94D5131092EE038091EF03882392
:1028100029F060E874E087E70E94D5131092EF0377
:102820000895EAEDF3E06083418324E630E042E07E
:1028300050E0BF01880F0C948031EF92FF920F930C
:102840001F93CF93DF93E82E062F10E00C5C1A4FF6
:10285000F8018081882381F0F2E16F9FE00111246B
:10286000C05FDA4FF12C49916F2D8E2D0E9411140B
:10287000F39482E1F812F7CFF8011082DF91CF9143
:102880001F910F91FF90EF900895CF93DF93C82F82
:102890004BE06DEF0E94111440E06AE08C2F0E9423
:1028A00011148FE39CE90197F1F700C0000040E0AC
:1028B00060E08C2F0E94111440E061E08C2F0E9498
:1028C000111440E066E08C2F0E94111440E06DEF7F
:1028D0008C2F0E941114D0E040E06D2F8C2F0E94AD
:1028E0001114DF5FD231C1F740E06D2F8C2F0E94B1
:1028F0001114DF5FD432C1F740E06D2F8C2F0E949E
:102900001114DF5FD43BC1F74BE06DEF8C2F0E94B9
:10291000111441E06AE08C2F0E94111440E06DEF29
:102920008C2FDF91CF910C9411146F927F928F9224
:102930009F92AF92BF92CF92DF92EF92FF920F934E
:102940001F93CF93DF930E94D13084E70E944514F8
:1029500087E70E94451464E7E62E63E0F62ED12C4B
:10296000C12C72E1772EE8E08E2E912CAA24A3943C
:10297000B12C66246394F7013196449150E0CA016A
:102980008497319604910452110B3196C491C4522C
:10299000DD0BF601EE0FFF1FEE0FFF1FEC58FC4F93
:1029A0002491237030E0FC0197FD379643E0F595C4
:1029B000E7954A95E1F7729EA001739E500D112490
:1029C000405F5A4FE40FF52FF11DB4010E94BB3157
:1029D000A50101C0440F8A95EAF78081842B80838A
:1029E000F80117FD379693E0F595E7959A95E1F78D
:1029F000729EC001739E900D1124805F9A4FE80F64
:102A0000F92FF11DC801B4010E94BB31A50101C01D
:102A1000440F8A95EAF78081842B8083FE01D7FDDD
:102A2000379683E0F595E7958A95E1F7729EC001A8
:102A3000739E900D1124805F9A4FE80FF92FF11DBE
:102A4000CE01B4010E94BB31A50101C0440F8A959B
:102A5000EAF78081842B80832C5C3A4FF9016082F5
:102A6000FFEFCF1ADF0A84E0E80EF11CE3E4CE1694
:102A7000D10409F080CF60E084E70E941D1461E07A
:102A800087E7DF91CF911F910F91FF90EF90DF903B
:102A9000CF90BF90AF909F908F907F906F900C944D
:102AA0001D144F925F926F927F928F929F92AF927E
:102AB000BF92CF92DF92EF92FF920F931F93CF932B
:102AC000C090D103D090D203E090D303F090D40310
:102AD0008FB7F89440905405509055056090560576
:102AE000709057058FBF530142018C189D08AE08A6
:102AF000BF080E94BA05AB01BC014093D1035093BB
:102B0000D2036093D3037093D4038091D503909143
:102B1000D603A091D703B091D8038F3F2FEF920730
:102B2000A207B207B9F09501840100951095209590
:102B30003095081719072A073B0708F054C08FEF94
:102B40009FEFDC018093D5039093D603A093D70326
:102B5000B093D803A0917F03EFE7F3E02A2F30E092
:102B60008FEFC80ED81EE11CF11CC418D508E6086A
:102B7000F708A3133DC020937F038091D9038111EF
:102B80004AC08091D5039091D603A091D703B0910C
:102B9000D80381309E47AF45B044E8F58091940555
:102BA000C82FC37019F0C82FC695C69580914901EA
:102BB000813009F449C0882381F1823009F482C050
:102BC000833009F48AC0CF911F910F91FF90EF904D
:102BD000DF90CF90BF90AF909F908F907F906F903D
:102BE0005F904F900895880D991DAA1DBB1DAACF17
:102BF000818D928D2C01712C612CC414D504E604B6
:102C0000F70420F421503F5F3296B3CF880D991D11
:102C1000928F818FF8CFC0E0C9CF109246014093C8
:102C20008C0550938D0560938E0570938F0589E216
:102C3000EFE7F3E0A8EAB3E001900D928A95E1F79F
:102C400081E080934901BFCF8C2F0E94C00BCC2321
:102C500009F4B9CF0E94270681FF07C02FEF4FEF7D
:102C60006FEF8EE190E00E946C0880919A050E94BF
:102C70007A118230D9F08330F9F0813009F0A3CF96
:102C800021E14CEC6AEA8EE090E0CF911F910F9128
:102C9000FF90EF90DF90CF90BF90AF909F908F907C
:102CA0007F906F905F904F900C946C0820E049E902
:102CB0006FEF8DE190E0E9CF27E740E06EEE8BE229
:102CC00090E0E3CFC09318018091940583708093C6
:102CD00017010E94FA1383E0B4CF809193058823F3
:102CE00041F046E050E06CE170E084E995E00E943C
:102CF0003B321092930540918C0550918D05609167
:102D00008E0570918F052FB7F8948091540590919E
:102D10005505A0915605B09157052FBF841B950B03
:102D2000A60BB70B4A97A105B10508F44CCF10923A
:102D3000490149CFE4E9F5E081E2808380914A01CD
:102D400090914B01A0914C0181839283A3838FE7E3
:102D500084838FEF858346E050E06CE170E0CF0123
:102D60000C943B3290E080E00E943532893E9E4FC9
:102D700011F40C94AE1380E0089569EE7EEF90E0BC
:102D800080E00E94693260E082E090E00E944B3275
:102D900060E083E090E00E944B3210924E0360E0CE
:102DA00084E090E00E944B3260E082E290E00E947A
:102DB0004B3260E085E090E00E944B3260E086E0BC
:102DC00090E00E944B326FEF87E090E00E944B3220
:102DD00040E050E0BA0188E090E00E945D3260E09F
:102DE0008DE090E00E944B3240E050E0BA0188E173
:102DF00090E00E945D3260E087E190E00E944B32FB
:102E000040E050E0BA018CE190E00E945D3270E059
:102E100060E080E290E00E94693240E050E0BA0158
:102E200088E190E00E945D3280E00E94D8120E940A
:102E3000F01240E050E0BA018FE090E00E945D3275
:102E400040E050E0BA0183E190E00C945D321F92C3
:102E50000F920FB60F9211242F933F934F935F93CE
:102E60006F937F938F939F93AF93BF93EF93FF9352
:102E70008091E10082FF09C08091E20082FF05C0DD
:102E80008091E1008B7F8093E1008091DA0080FFE8
:102E900024C08091D80080FF20C08091DA008E7F0E
:102EA0008093DA008091D90080FF9BC080E189BDCA
:102EB00082E189BD09B400FEFDCF81E080938205E7
:102EC00080915D05811109C00E942D040E94F804C3
:102ED0008091E20084608093E2008091E10080FFB5
:102EE00017C08091E20080FF13C08091E2008E7FC6
:102EF0008093E2008091E20080618093E200809103
:102F0000D80080628093D80019BC85E08093820548
:102F10008091E10084FF29C08091E20084FF25C0F8
:102F200080E189BD82E189BD89B5982F917080FFCC
:102F3000FBCF8091D8008F7D8093D8008091E100F5
:102F40008F7E8093E1008091E2008F7E8093E2008B
:102F50008091E20081608093E20080918305882364
:102F600009F445C084E0809382058091E10083FFED
:102F700027C08091E20083FF23C08091E100877F1A
:102F80008093E10082E08093820510928305809116
:102F9000E1008E7F8093E1008091E2008E7F80933C
:102FA000E2008091E20080618093E20042E060E014
:102FB00080E00E94C6048091F00088608093F00059
:102FC000FF91EF91BF91AF919F918F917F916F9101
:102FD0005F914F913F912F910F900FBE0F901F90D7
:102FE000189519BC1092820510925D0576CF8091DC
:102FF000E30087FD93E090938205B7CF78941F920A
:103000001FB61F9211248F939F93AF93BF9380910C
:10301000540590915505A0915605B091570501961C
:10302000A11DB11D8093540590935505A09356059D
:10303000B0935705BF91AF919F918F911F901FBE85
:103040001F9018959C014FB7F8948091540590916A
:103050005505A0915605B09157054FBF821B930BA4
:1030600008952FB7F8948091540590915505A0913B
:103070005605B09157052FBF08950E9431189C0145
:1030800090917B0380917C03982B21F030937803FF
:103090002093770390917D0380917E03982B21F0FC
:1030A0003093760320937503E0914F05F09150051E
:1030B000309749F082E0809379030480F581E02D18
:1030C00089E793E00994089580914C0590914B0510
:1030D000892B90914A03892B8093CE0280914D03D6
:1030E000882329F10E94311820914B0330914C0321
:1030F000821B930B8838934110F00E94DF1080915F
:10310000CE0290914D03892B8093CE028091450190
:10311000882389F18091580587FF2DC08EE1E0ED6D
:10312000F2E090E0815048F591110E94DF1080910B
:10313000420580959091CE02892390914305892B79
:103140008093CE02E0914F05F09150053097D1F079
:1031500090914501992349F09091580597FF05C03A
:103160008093CF0285E08093CE020280F381E02D30
:103170008EEC92E0099486E0D2CF2191222391F245
:103180009F5FD0CF0895CF93DF93EC0181E0898BCF
:1031900080914C059F81892B80934C0580914B0534
:1031A0009885892B80934B050E946418EA81FB81E6
:1031B000309739F06C897D89CE010696DF91CF91E9
:1031C0000994DF91CF910895EF92FF920F931F938F
:1031D000CF93DF93EC018A85811139C0EB80FC80AD
:1031E00087E5F81A26E12E9DC0012F9D900D112430
:1031F000DC01A75EBE4F1496ED91FC9115973097B8
:1032000031F054966D917C91815E9E4F099586E1D7
:103210008E9D80018F9D100D1124075E1E4FF801B9
:1032200087810E94EA10F8018085982F90958091FF
:103230004B05892380934B050E94641818821986D8
:103240001B861E821D8210924A0510924905DF914D
:10325000CF911F910F91FF90EF90089590E080E043
:103260000E94110690E080E00E94FB0510924B0541
:1032700010924A030E94641886E0E9E7F3E0DF0158
:103280001D928A95E9F710927303109272031092BF
:1032900074030C943D1880939A050C942E19809118
:1032A0009A05982F9670963019F488600C944B19F3
:1032B000877FFCCF21E030E001C0220F8A95EAF73A
:1032C00080919A0582270C944B1921E030E001C0CF
:1032D000220F8A95EAF7209580919A0582230C9413
:1032E0004B19909149038095892380934903282F96
:1032F000277039F4282F082E000C330B9217130671
:1033000021F49091590592FF0BC08595859585957F
:103310000E946519109249031092480310924703C6
:10332000089580910A01833019F481E00E946519A3
:1033300010920A01089521E030E001C0220F8A9521
:10334000EAF780919A05822B0C944B1980934E03D7
:103350000C942E1910924C0580914501E0EDF2E09D
:10336000882359F08091580587FF07C08EE1DF015F
:103370001D928A95E9F70C942E1986E0F8CF1F93D9
:10338000CF93DF93CDB7DEB7AA970FB6F894DEBF21
:103390000FBECDBF84E895E02091F100DC012D93B4
:1033A000CD01B5E08C389B07B9F780918505833056
:1033B00009F471C0B8F4813009F448C0823009F4CE
:1033C000B2C08091E80083FF3AC18091840590915A
:1033D00085059A3008F033C1E92FF0E0E455FD4C43
:1033E0000C94EE318A3009F48DC08B3009F470C032
:1033F000893039F780918405813219F780918805E9
:1034000090918905009711F00297D9F68091E80014
:10341000877F8093E8008091E80082FF37C0909119
:10342000F3008091F200029729F48091F1008B7FE4
:10343000813021F48091F10080935F058091E80054
:103440008B778093E8000E94A704BBCF809184050E
:10345000813A09F0B6CF8091E800877F8093E80039
:103460008091880590918905892B61F460E280E65E
:1034700095E070E00E9459058091E8008B77809379
:10348000E8009FCF60E090E080E0F3CF809182057C
:103490008111C1CF96CF80918405813A09F091CFF7
:1034A0008091880590918905892B09F08ACF8091B8
:1034B000E800877F8093E8008091E80080FFFCCFE0
:1034C000809145018093F1008091E8008E77B9CF1B
:1034D00080918405813209F074CF809188059091A4
:1034E0008905892B09F06DCF8091E800877F809353
:1034F000E8000E94A70480918605809345010E9400
:10350000AA195FCF80918405813209F05ACF80914A
:10351000E800877F8093E8000E94A70480918705D8
:1035200080935E054ECF80918405813A09F049CFA2
:103530008091E800877F8093E8008091E80080FF19
:10354000FCCF80915E05BECF803899F0823809F0BB
:1035500076C0809188058F70873008F070C08093A6
:10356000E9008091EB0085FB882780F91092E90043
:1035700006C08091800590918105911182609091A3
:10358000E800977F9093E8008093F1001092F1009B
:103590008091E8008E77B5C1882309F4A2C18230FA
:1035A00009F04DC0809186058111A6C180918805E2
:1035B0008F702FEF280F263008F041C08093E9006C
:1035C0002091EB0020FF98C1933031F48091EB0003
:1035D00080628093EB0090C19091EB00906190939A
:1035E000EB0021E030E001C0220F8A95EAF720933A
:1035F000EA001092EA008091EB008860EACF811126
:103600001EC0109186051F778091E3008078812B82
:103610008093E3008091E800877F8093E8000E9418
:10362000A7048091E80080FFFCCF8091E3008068D0
:103630008093E30082E0111183E080938205809102
:10364000E80083FF0AC08091E800877F8093E8004C
:103650008091EB0080628093EB00AA960FB6F894FD
:10366000DEBF0FBECDBFDF91CF911F91089580586F
:10367000823028F720918605309187052C3DE3E0C4
:103680003E07A1F583E08A838AE289834FB7F894E5
:10369000DE01139620E03EE051E2E32FF0E050938C
:1036A0005700E49120FF03C0E295EF703F5FEF7099
:1036B0008E2F90E0EA30C0F0C7968D939D932F5FD8
:1036C000243159F74FBF8091E800877F8093E8004D
:1036D0006AE270E0CE0101960E9459058091E800EF
:1036E0008B778093E800ABCFC096E7CF80918805B9
:1036F00090918905432F55274330510509F44AC05D
:1037000078F54130510509F47AC08BE590E0E8ED99
:10371000F6E04230510509F092CF2091E800277F72
:103720002093E80020918A0530918B05821793073A
:1037300008F49C0140E02115310509F065C04111F4
:1037400063C08091E80082FDC9CF80918205882303
:1037500029F2853019F28091E80083FFF2CFBECFC5
:103760004132510509F43CC04232510509F067CF9E
:103770008330910508F063CFFC01EE0FFF1FE45585
:10378000FE4F0190F081E02D87559E4FDC018C911A
:1037900090E01AC0332721303105D1F021153105D1
:1037A00061F02230310509F04ACFE5E4F7E0E49119
:1037B0008E2F90E0E5E4F7E007C0E9E7F7E0E49159
:1037C0008E2F90E0E9E7F7E0009709F438CFA5CF16
:1037D000E7E6F7E0E4918E2F90E0E7E6F7E0F4CF3C
:1037E0008330910508F02BCF880F991FFC01EE5410
:1037F000FE4F0190F081E02D89E090E08ECF82E1D4
:1038000090E0E3E3F7E089CF80918205882309F413
:1038100065CF853009F462CF8091E80083FD5ECFEB
:103820008091E80082FD8DCF8091E80080FF83CFFA
:103830009091F3008091F2002115310519F0883044
:10384000910550F041E0089709F040E08091E800D0
:103850008E778093E8006FCF44914093F1003196CA
:10386000215031090196E8CF803809F0E8CE8091E7
:10387000E800877F8093E800809183058093F100C2
:1038800087CE8111DCCE10918605123008F0D7CE9C
:103890008091E800877F8093E800109383050E9461
:1038A000A704112311F084E005C08091E30087FD97
:1038B000FACF81E08093820542E061EC81E00E94D2
:1038C000C60442E261EC84E00E94C60442E261EC7C
:1038D00082E00E94C60442E260EC83E00E94C604DB
:1038E000AECE80918605813009F0A9CE81E093307B
:1038F00009F080E0809381051092E9008091E80052
:10390000877F8093E8000E94A70499CE1F920F92B0
:103910000FB60F9211242F933F934F935F936F93A2
:103920007F938F939F93AF93BF93CF93DF93EF9347
:10393000FF93D091E900DF708091EC00C82FC17037
:1039400080FDC0E81092E9008091F000877F8093AD
:10395000F00078940E94BF191092E9008091F00065
:1039600088608093F000CD2BCF70C093E900FF9169
:10397000EF91DF91CF91BF91AF919F918F917F9107
:103980006F915F914F913F912F910F900FBE0F90CC
:103990001F901895882341F0809590914B058923BD
:1039A00080934B050C9464180895882339F0909106
:1039B0004B05982B90934B050C946418089588231D
:1039C00021F00E94EA100C9464180895882339F0BD
:1039D00090914C05982B90934C050C946418089585
:1039E000882361F19CEF980F913A20F40E94F11026
:1039F0000C94641890E2980F983050F4877091E01E
:103A000001C0990F8A95EAF7892F0E94EA10F0CF3A
:103A10009BE5980F933020F490E080E00C94110621
:103A200098E5980F973120F490E080E00C94FB0526
:103A3000803F20F00E94E60D0C943D180895CF932E
:103A4000DF93FC0180818130C9F4FB01C081D18109
:103A50008C2F0E94F01CCE010E948B119E01205ED3
:103A600031092830310510F0CD2B21F4DF91CF91B1
:103A70000C94DF1CDF91CF910C94CA1CDF91CF9185
:103A80000895FF920F931F93CF93DF93F82E009129
:103A90004705109148050115110509F449C0109218
:103AA0004605109245051092420510924305D80133
:103AB0001696CD91DC919E013A9521153F4108F46F
:103AC000D07ED1E0C11101C0D0E0D8011996ED91AE
:103AD000FC911A97309731F01B966D917C9180E0A4
:103AE0000995D823DD2339F08CEF8C0F813A38F516
:103AF0008C2F0E94F110FF2099F0E0914705F09182
:103B00004805808584FD0CC080914405882341F0E0
:103B1000808191819C012150310921363D45A8F0D9
:103B20000E946418109248051092470510924405AF
:103B3000C801DF91CF911F910F91FF9008950E94CE
:103B400064188C2F0E94F01CD6CF0E943306E8CF59
:103B5000CF93C82F882309F46CC08CEF8C0F813A67
:103B6000A8F580914501882301F18091580587FFD0
:103B70001CC0EC2FE695E695E695F0E0E253FD4F8C
:103B8000828190E04C2F477021E030E002C0220F8C
:103B9000331F4A95E2F782239323892B79F08C2FE8
:103BA0000E94F1100E94641809C0E0EDF2E08191DA
:103BB000C817A9F382E0E63DF807C9F76C2F8EEC31
:103BC00092E00E94C605CF910C94641880E28C0F9D
:103BD000883068F4C77021E030E001C0220FCA9538
:103BE000EAF780914C05822B80934C05ECCFEBE5F6
:103BF000EC0FE33040F4F0E0E45AFE4F808190E0B7
:103C0000CF910C941106E8E5EC0FE73150F4F0E0A9
:103C1000EE0FFF1FE15AFE4F80819181CF910C94EE
:103C2000FB05C03F30F08C2F0E94A10ECF910C9469
:103C30003D18CF9108951F93CF93DF93182FD0E0B5
:103C4000C0E0893311F4C0E5D0E0812F0E94A81DA7
:103C5000209731F4812FDF91CF911F910C94F01CAC
:103C60008FE99FE00197F1F700C000002197F0CFA6
:103C70000F931F93CF93DF93C62FD42F022FFC01F6
:103C800082818823A1F0609392050E94311890935D
:103C9000910580939005C77081E001C0880FCA9597
:103CA000EAF7DF91CF911F910F910C94E61C809160
:103CB0009205681335C080919005909191050E94FE
:103CC0002218883C910560F510E21D0FCD17B9F060
:103CD00080E28C0F883040F4C77081E001C0880F0B
:103CE000CA95EAF70E94DF1C183048F481E09D2F46
:103CF000977001C0880F9A95EAF70E94E61C802F02
:103D00000E941B1E183098F4D77081E001C0880F04
:103D1000DA95EAF7DF91CF911F910F910C94DF1C98
:103D2000C77081E001C0880FCA95EAF7F3CFDF9131
:103D3000CF911F910F910895FC019081913049F42A
:103D40008285811116C082E080930A0189E30C9478
:103D50001B1E923021F081E080930A01089584E0D7
:103D600080930A0180919A05811107C081E00C942B
:103D70009B1983E080930A01F9CF81FFF7CF81E09F
:103D80000C946519CF93DF93EC010E948B119E0177
:103D9000205E31092830310510F0209739F40E9457
:103DA000E61C8C2FDF91CF910C94A81D0E94D51C8E
:103DB000F8CFDB01FC018081813021F48D919C9151
:103DC0000C94C21E823039F41396ED91FC91149735
:103DD00012968C91099408956F927F928F929F9280
:103DE000AF92BF92CF92DF92EF92FF920F931F9309
:103DF000CF93DF93CDB7DEB72A970FB6F894DEBF27
:103E00000FBECDBF8E010F5F1F4F8AE0F8011192E8
:103E10008A95E9F72DE8E22E21E0F22E680132E9D9
:103E2000632E31E0732E88248394912CF7018191C5
:103E30007F018F3F09F44BC0F894E82FE295EF70B3
:103E4000F0E021A18F70A40102C0440F551F8A9594
:103E5000E2F7CA01922F982B91A392A18095892312
:103E600082A3789400C0E2E9F1E030E020E0B12CD8
:103E7000A12C81918F3F09F484C0A82FA295AF7027
:103E8000B0E090964C9150E08F7002C055954795E8
:103E90008A95E2F740FD75C0C401022E02C0880F6A
:103EA000991F0A94E2F7A82AB92A2F5F3F4F2F30B3
:103EB0003105F9F6F701319780818F3F11F00E94AB
:103EC000FD0E50EA5A95F1F7F601B182A082F2E0B8
:103ED000CF0ED11C6E147F0409F0A8CF4AE050E049
:103EE000B80182E593E00E946F32FF24F3940097BB
:103EF00009F4F12C892B09F447C08AE0F801A2E506
:103F0000B3E001900D928A95E1F781E0809351032F
:103F10000E9431189093500380934F0380914F0378
:103F2000909150030E942218039790F180915203C0
:103F30009091530390936903809368038091540395
:103F40009091550390936B0380936A03809156037D
:103F50009091570390936D0380936C038091580365
:103F60009091590390936F0380936E0380915A034D
:103F700090915B03909371038093700310925103AF
:103F800007C090E080E08FCF809151038111C6CFB0
:103F90008091450590914605892B09F43EC04091DA
:103FA0003A0550913B0560913C0570913D052FB756
:103FB000F8948091540590915505A0915605B091C3
:103FC00057052FBF841B950BA60BB70B40913605E9
:103FD0005091370560913805709139058417950720
:103FE000A607B707D0F080914505909146050E943D
:103FF000C21E109246051092450510923A05109285
:104000003B0510923C0510923D051092360510922A
:104010003705109238051092390580910C018F3FB9
:1040200009F054C08F2D2A960FB6F894DEBF0FBE4C
:10403000CDBFDF91CF911F910F91FF90EF90DF9057
:10404000CF90BF90AF909F908F907F906F9008958A
:10405000D29EF001D39EF00D1124E75EFE4FA288A0
:10406000B388A114B10419F498ECA92EB12CD29EF6
:104070008001D39E100D1124075E1E4FF80186812A
:104080008823C1F0858596850E942218A816B90656
:1040900088F4ED9C50011124F8018189811105C03B
:1040A000C501875E9E4F0E94C318C501815E9E4F69
:1040B0000E94E418E3942E2D30E080910C01082E2C
:1040C000000C990B821793071CF6ACCFE12C86E10C
:1040D000D82EF1CF2F923F924F925F926F927F92A4
:1040E0008F929F92AF92BF92CF92DF92EF92FF9208
:1040F0000F931F93CF93DF93CDB7DEB728970FB6FB
:10410000F894DEBF0FBECDBF8C01DC0113968D91FC
:104110009C911497892B39F08C9111969C9189234D
:104120008F3F09F078C728960FB6F894DEBF0FBE10
:10413000CDBFDF91CF911F910F91FF90EF90DF9056
:10414000CF90BF90AF909F908F907F906F905F9037
:104150004F903F902F9008950E944C13F82E682F97
:1041600089819A810E944E1169817A818F2D0E94E6
:104170003F137C01F80182818111A7C0D8011296FA
:104180005C905110E4C0F0E1EF16FFE5FF0609F482
:10419000F2C121E1E2162FE5F20609F4F2C18091A5
:1041A0000B01882309F43FC6470180EE881A910865
:1041B00040904D0380914C05482A98E0891691045F
:1041C00008F0E8C197012770332781E090E001C033
:1041D000880F2A95EAF7552009F4D9C1482AD80151
:1041E0008D919C910E94261121E030E0390102C09E
:1041F000660C771C8A95E2F7E0914705F091480537
:10420000F887EF832090EE023090EF021E822E811D
:10421000E22FF0E0EE0FFF1FE050FF4FC080D18093
:10422000C114D10409F4BAC6411005C0D6011296D2
:104230008C918111EBC1F601838190E08621972159
:10424000892B09F4E3C18085982F977009F487E0E2
:10425000F8E08F16910408F0B7C1552009F4B0C1F9
:1042600086958170882309F4D1C1D601AD90BC90A8
:10427000EA14FB0419F4552009F4C8C1EF81F8854C
:10428000CE16DF0609F4C2C1D6011D96ED91FC9150
:10429000309721F08081882309F4B8C1642DC601CC
:1042A0000E948406882309F4B1C1EA14FB0409F0D2
:1042B000E7C6E114F10409F4E8C65110E8C6A214F7
:1042C000B30409F0A3C1512CE2C680910C018F3FC9
:1042D00009F454CF79E1C72E71E0D72EB12CA12C6F
:1042E0009924939480910C01082E000C990B8A1547
:1042F0009B050CF443CFF6018681882309F1818563
:1043000092858E159F0539F48091490590914A0553
:104310008E159F05A9F0D6011F969C921F971C969B
:10432000FC92EE921B9751968C91811103C0C601AD
:104330000E94C318C60106960E94E41810924B050D
:10434000BFEFAB1ABB0AE6E1CE0ED11CCBCFC70143
:1043500082519F45409708F036C68FEF93E00E9448
:104360002D32FEEEEF0E6FE7862E62E0962E88234A
:1043700091F180914903877009F4D5CEF8018281CB
:10438000882309F4D0CE82E028960FB6F894DEBFD9
:104390000FBECDBFDF91CF911F910F91FF90EF9096
:1043A000DF90CF90BF90AF909F908F907F906F9055
:1043B0005F904F903F902F900C947119811424E0DE
:1043C0009206B9F2C4010E942D32811101C0EA9413
:1043D0003FEF831A930AE110F1CF1C821B82442421
:1043E00043945AE0352E74018FEFE81AF80AC4019D
:1043F0000E942D3289831A82882309F4BACF9FEF55
:10440000980F933000F58A83498292E0890E911CBF
:10441000C7010E942D328B83882309F4AACFDE01C5
:1044200011967D01F70120812223E9F2213009F064
:104430004AC091818281913041F4F2E0EF0EF11C8B
:104440000E941B1E09C04701EACF923049F422E0C6
:10445000E20EF11C0E94A81DEFEFEE1AFE0AE2CF59
:10446000933031F432E0E30EF11C0E94F01CF4CFE3
:10447000943021F08FEFE81AF80AEECF92E0E90EBF
:10448000F11C30E020E0B7016F5F7F4FD70111963C
:104490004C918053990B8A30910550F0215031098D
:1044A000D8F2EFE9FFE03197F1F700C00000F6CF56
:1044B000329EF001339EF00D11249C012E0F3F1F00
:1044C000842F7B01E0CFE22FF0E0EC50FE4F5490C0
:1044D000822F86958695869590E0FC01EC51FE4FE3
:1044E00064902770712C022E02C0759467940A9410
:1044F000E2F731E063227724FC01EC52FE4FA490F6
:10450000B12C022E02C0B594A7940A94E2F7A1E060
:10451000AA22BB24FC01EC53FE4FC490D12C02C054
:10452000D594C7942A95E2F7B1E0CB22DD2461143B
:10453000710419F081EE0E94A81DA114B10419F0B4
:1045400086EE0E94A81D852D0E941B1EAB2819F027
:1045500086EE0E94F01C672819F081EE0E94F01C84
:10456000CD2809F479CF8CE26BCF81E00E949B19B2
:104570000E944F19FECE81E00E946519F9CF82E0BA
:10458000F5CF82E0F9CF81E080930B01F2CE8095E8
:10459000482225CE552009F4EAC4F092EF02E092B9
:1045A000EE020E94BA0560933E0570933F0580932A
:1045B00040059093410510924605109245050FCE97
:1045C00082FB882780F94ECE552001F181704ACEBA
:1045D0000E94F01C7BC50497813A910558F46A2D1E
:1045E0008EEC92E00E94C605552009F41CC40E947E
:1045F0006418BFCE0E9464188FE39CE90197F1F71D
:1046000000C000008A2D0E94A81DEECF9E819F5FF2
:104610009E83FDCDFC0120813181E216F30609F075
:10462000FBC35110FBC31092440580E0C9C488232A
:1046300009F447C4F6018189882309F442C4C501FD
:10464000815E9E4F0E94E4183CC4F3EFEF16FCE538
:10465000FF0661F1A0F438EDE3163CE5F30611F135
:1046600089EDE8168CE5F80669F197EDE9169CE509
:10467000F90609F026C426E241EE61EE0FC0A5EF6F
:10468000EA16ACE5FA06D1F0A8F027E245EE66EEB0
:10469000E6EFEE16ECE5FE0609F013C4C8010E9431
:1046A000381E67CE27E245EE65EEF8CF26E241EEF2
:1046B00060EEF4CF27E245EE64EEF0CF26E241EE65
:1046C00062EEECCF28E241E0EFCF809158058061A7
:1046D000F6E0EF16FCE5FF0609F49FC0809158054F
:1046E000886027E0E2162CE5F20608F496C0809177
:1046F0005805806292C0809158058D7F3CE0E3169A
:104700003CE5F30609F489C078F4809158058C6083
:104710009AE0E9169CE5F90609F47FC008F48CC01C
:10472000809158058E7F79C080915805877FBEE0C3
:10473000EB16BCE5FB0609F470C0809158058B7F31
:10474000EFE0EE16ECE5FE0608F467C08091580530
:104750008F7E63C0FBEFEF16FCE5FF0609F464C033
:1047600068F533E1E3163CE5F30609F477C090F40D
:1047700091E1E9169CE5F90609F46CC0A2E1EA169C
:10478000ACE5FA0609F0E3C30E94AA198091580526
:104790008F7743C0B5E1EB16BCE5FB0609F466C0B4
:1047A00008F47AC0809159058160FAEFEF16FCE5B4
:1047B000FF0609F0CCC380935905C9C32FEFE21659
:1047C0002CE5F20609F44EC088F48DEFE8168CE56E
:1047D000F806C1F1809159058E7F9EEFE9169CE5A0
:1047E000F90648F3809159058360E5CFA1E0EA1608
:1047F000ADE5FA0609F459C008F444C060E0E2E00F
:10480000EE16EDE5FE0609F0A2C38EE090E00E94F0
:104810004B329DC38091580581608093580597C3A2
:10482000809158058460F9CF809159058260C3CF8B
:10483000809158058064F1CF0E94AA198091580593
:104840008068EBCF809159058D7FB5CF8091580559
:104850008F7DE3CF809158058F7BDFCF8091580506
:10486000837FDBCF809159058C7FA5CF8091580540
:1048700082FB992790F921E0922790FB82F990FB27
:1048800083F9CBCF80915905982F909591708E7FA9
:10489000892B90FB81F98FCF0E94AA19909158051E
:1048A000892F97FB87F98058B8CF61E0AECF90E0B1
:1048B000D3C38091F002811104C089E20E94F110FB
:1048C00096CE85E3FBCFF7ECEF16FCE5FF0609F487
:1048D00065C008F45EC038ECE3163CE5F30609F465
:1048E00062C04DE057E069E177E099ECE9169CE59C
:1048F000F90609F046C40E94A4063BCDAFECEA16C7
:10490000ACE5FA0609F465C0C0F4ECECEE16ECE593
:10491000FE0609F457C008F450C02DECE2162CE551
:10492000F20609F454C084E03EECE3163CE5F306DD
:1049300009F027C40E9408041CCD86EDE8168CE51A
:10494000F80638F48EE091EDE9169CE5F90690F34F
:1049500010CDADE5EA16FA0609F40BCD12C480912C
:10496000940591E0892780939405109249019093D2
:104970009305FFCC4FE457E068E577E0BCCF48E50E
:1049800057E06FE477E0B7CF4DE357E066E477E0B8
:10499000B2CF46E457E06DE377E0ADCF45E257E0B4
:1049A00061E377E0A8CF41E357E065E277E0A3CF8A
:1049B00049E157E06DE077E09ECF45EF56E061E0DA
:1049C00077E099CF41E057E065EF76E094CF81E062
:1049D000B1CF89E0AFCF3BE5E3163DE5F30611F13A
:1049E0008CE5E8168DE5F80609F0DEC380915905DF
:1049F00082FB882780F991E089270E94FF12D4C3A7
:104A00000E94AA199FEFA4E3BCE09150A040B040DF
:104A1000E1F700C000000E944F120E94BD16A9CC11
:104A200081E0EBCF80E0E9CFC7010E942611D82EAC
:104A3000CCC32F2D2F70C22E8F2D807F19F0C294E2
:104A400090EFC922DD20C9F0CC2069F080E28E0D04
:104A5000883010F081100BC080914C05C82AC0929C
:104A60004C050E9464188E2D0E94A81D16C08091CE
:104A70004B05C82AC0924B05F4CF8E2D0E94F01C26
:104A8000CC2059F080E28E0D883010F081103CC0AF
:104A90008C2D0E94EA100E946418A92DA850BB0B0F
:104AA000149710F40E942706AA2009F43CCB8091A9
:104AB000490380FD38CBF80112828595859585954F
:104AC0000E949B19C8010E946A2080914903859524
:104AD0008595859528960FB6F894DEBF0FBECDBF9D
:104AE000DF91CF911F910F91FF90EF90DF90CF90CA
:104AF000BF90AF909F908F907F906F905F904F90FE
:104B00003F902F900C946519C09480914B05C8225A
:104B1000C0924B05C0CF3F2D3F70B32E8F2D807FAD
:104B2000803219F0B29480EFB822882091F081E0B1
:104B30008816D1F1DD2009F443C0CC2089F0D801DA
:104B400015968C91159780FF8ECF8F7015968C934C
:104B500007C0DD20E1F080914D03B82AC11004C0E8
:104B60008B2D0E94E61C99CF91E0C912F9CF90914C
:104B7000590592FD92CFB81609F48FCF0E943118D3
:104B800090934C0380934B03B0924D0386CFC1109A
:104B900006C00E94DF108B2D0E94DF1C7ECFA1E09B
:104BA000CA1609F47ACFF5CFDD2029F0B2E0BC15A2
:104BB00008F473CFD5CFE1E0EC1508F46ECFEBCF5E
:104BC000CC2049F3B9E38B1220C1EFEFF7EE23E0DD
:104BD000E150F0402040E1F700C0000016C18F2DE9
:104BE00086958695837061F0813009F056CFC701B4
:104BF0009370D11002C090E080E00E94FB054DCF81
:104C0000C7019370D11002C090E080E00E941106AD
:104C100044CF8E2DDD2029F00E94A10E0E943D1868
:104C20003CCF0E94E60DFACF8F2D837091F5D11005
:104C300034CF4E2D429546954770440F440F8E2D2C
:104C40008F70042E01C0880F0A94EAF72E2D207170
:104C5000E4FE07C02FE030E001C0220F4A95EAF7DA
:104C600020953F2D369536953370323069F050F4EB
:104C700040914E03313029F0822B84230E94A619E3
:104C80000CCF842B822BFACF282B80914E038227C6
:104C9000F5CF8695DD2011F08F2D8170882309F4E2
:104CA000FCCE4E2D429546954770440F440F8E2DF5
:104CB0008F70042E01C0880F0A94EAF72E2D207100
:104CC000E4FE07C02FE030E001C0220F4A95EAF76A
:104CD00020953F2D369536953370323069F050F47B
:104CE00040919A05313029F0822B84230E944B1980
:104CF000D4CE842B822BFACF282B80919A05822741
:104D0000F5CF3F2D3F70F32EDD2029F0832F0E9439
:104D10009B198E2D26CF8E2D0E94DF1C8F2D0E9479
:104D20006519BBCE8E2D92EF891609F44BC09815EC
:104D300070F0A0EF8A1671F1B1EF8B16D9F1DD207A
:104D400009F45EC0C1108FCE8F2D8F7138C0E3EF94
:104D50008E16E9F1F4EF8F12F2CFDD2009F445C091
:104D60008F2D8F71F82E0E949B198091590582FD1D
:104D70003AC0A8E0FA9EC0011124836080934903E1
:104D80008F2D0E949B190E943118909348038093A5
:104D9000470383CEDD2049F021E02C1508F47DCEB9
:104DA0008F2D8F710E945A1978CE32E03C1508F48D
:104DB00074CEF6CF8F2D8F71DD2009F4B0CF0E9415
:104DC0009B196BCE8F2D8F71DD20C9F3A8CF80E0AA
:104DD000DD2009F48BCF9F2D9F7181E001C0880FEA
:104DE0009A95EAF783CF8F2DEACF81E00E9471195F
:104DF000B1E0BC1508F051CE82E00E9471194DCE91
:104E0000CC2039F0893309F4E0CE8E2D0E94F01CBD
:104E100044CE8F2D8F7183CF552029F0DC01189659
:104E20008C9185FF02CCC70197558F3F910511F0FA
:104E300008F00BCC20910C01022E000C330B28172C
:104E4000390714F480930C01F801228136E1389F70
:104E50005001399FB00C1124C501875E9E4F6C0133
:104E6000DC0150962C935097928116968C91169750
:104E7000992309F4DCCB1A96FC92EE9219978F5F76
:104E800016968C930E943118F6019687858780913B
:104E90004D03878380914B0590914C05892B80872A
:104EA0000190F081E02D309741F0D60154966D913C
:104EB0007C91C501815E9E4F0995F0924A05E09272
:104EC0004905D80112962C91222309F4B7C01092FB
:104ED0009205B2E0EB16BCE5FB0608F42BC1E6E157
:104EE000EE16ECE5FE0630F0C7018A5F9C45099797
:104EF00008F020C10E94C71390935905809358056C
:104F0000F0E1EF16FCE5FF0609F4A0CC08F022CC96
:104F100038E0E3163CE5F30609F48ACC08F0EBCB65
:104F200094E0E9169CE5F90609F47ACC08F0CDCBBB
:104F3000B2E0EB16BCE5FB0609F46CCC8091580599
:104F40008260E3E0EE16ECE5FE0609F466CC6091C3
:104F50005805F090590584E090E00E944B326F2D87
:104F600082E290E00E944B320E94AA1902CA80910C
:104F7000EE029091EF02E816F90681F41092EF022A
:104F80001092EE0210923E0510923F0510924005DD
:104F900010924105109246051092450580914705F3
:104FA00090914805009709F43ECFA8E08A16910435
:104FB00008F030CB642D0E948406811134CF81E04B
:104FC0000E94411D30CFB0E1EB16BFE5FB0609F4AE
:104FD000CCCAE1E1EE16EFE5FE0609F4D0CAFFE522
:104FE000EF16FDE5FF0609F4CECA20E6E2162DE530
:104FF000F20659F03EE5E3163DE5F30609F0CFC8A9
:1050000080910B01882309F4BECA10920B0180E045
:105010000E94411DAEC985E0F801DE0111960190A4
:105020000D928A95E1F7D80112962C9189819A8187
:10503000211192C80E942611F82E96C8B6E1EB16EF
:10504000BCE5FB0609F0B0C080914C05982F947424
:1050500009F02DCC982F9A7A817109F090E02223E3
:1050600009F427CC81E0911101C080E08093F00227
:1050700069E2911165E38EEC92E00E94C605B7CA21
:10508000A114B10409F01BC9512CB12CA12C80E052
:105090000E94411DD0924805C092470581E080934F
:1050A0004405D60115968C918093420551100EC08F
:1050B000AB2861F0F601808191819C012450310977
:1050C000213A310508F084CA0E94F110D6011696E3
:1050D000AD90BC90C5019A9581159F4110F4E0EE0A
:1050E000BE2277247394C501019781369D4508F04F
:1050F000712CD6011996ED91FC911A97309731F0E9
:105100001B966D917C9181E009957822772079F04A
:10511000F601868197810E948B1180934305C5011A
:10512000F8E08F16910408F056CA0E9433060E94D8
:1051300064185ACAE6E1EE16ECE5FE0609F484CFDF
:1051400080914C058272FAECEF16FCE5FF0609F43B
:105150002FCC08F0D3CB35ECE3163CE5F30609F48D
:1051600013CC08F0B0CBA3ECEA16ACE5FA0609F4D0
:1051700001CC08F004CCE2ECEE16ECE5FE0609F4F6
:10518000EECBBAE5EB16BDE5FB0609F449CC08F019
:1051900022CCE114FCE5FF0609F432CC2EEDE21638
:1051A0002CE5F20609F439CCD80112968C911297AD
:1051B000ED90FC90882309F437CCC7010E944C1372
:1051C000D82E682FC7010E944E11B7018D2D0E9465
:1051D0003F130E94570F7C01882EF801D280C580B2
:1051E000C2943FE0C322809149038770A1F0AD2CA7
:1051F000DD2091F08F2D807F803421F080E28E0DB4
:10520000883048F082E00E947119809149038770CC
:10521000AA24A3948111A12C9F2C92942FE0922276
:10522000FBE0F91508F439CCE92DF0E0EA54FD4C27
:105230000C94EE311F93CF93DF9380911403807F02
:10524000A9F480911103882389F080914603D091BD
:10525000150360910F0370911003A0911203B09198
:105260001303C62FC72316E0D81304C0DF91CF91D4
:105270001F91089590E0109711F0CF3F19F4019617
:105280008770F2CF189F9001199F300D1124F901FA
:10529000EA5EFC4F41814713F2CF40814613EFCFC6
:1052A00042814111ECCF438154814A1B5B0B483C46
:1052B000510528F7809114038F7080618093140347
:1052C000F901E55EFC4F80818F70806180838FE003
:1052D00093E00E946A20DF91CF911F910C941C11E2
:1052E000AF92BF92CF92DF92EF92FF920F931F93F4
:1052F000CF93DF93CDB7DEB761970FB6F894DEBFDB
:105300000FBECDBF8C0185E0F801DE011D96019036
:105310000D928A95E1F7F801E2808FE0A82E83E0F4
:10532000B82E60911203709113036115710509F491
:1053300032C190910F0340911003892F84238F3F36
:1053400009F429C120813181C380D480F0901103F8
:10535000F601E61BF70BFF2009F4E8C08091140367
:10536000582F507FE83CF10508F0ABC0511177C0D1
:10537000FE2C431321C092131FC0E1101DC08F707B
:10538000806180931403C5010E946A2080911403F8
:10539000F80185838F2D61960FB6F894DEBF0FBE9E
:1053A000CDBFDF91CF911F910F91FF90EF90DF90D4
:1053B000CF90BF90AF900895CD2829F0822F8323FE
:1053C0008F3F09F003C180E0F82FF170DF2E80FFDE
:1053D0003CC0809146034091150356E0841315C0EC
:1053E0002D873E878D859E850E947B13292F2295D0
:1053F0002F702230F0F0243018F59F70F1F0F80192
:105400009581907FD1F4D12C1EC090E0589FF0017F
:10541000599FF00D1124EA5EFC4F6181361306C0DE
:105420006081261303C06281E6120FC00196877067
:10543000D5CF9F7011F0882331F3805E883018F348
:10544000C8010E946A20FD2CA5CFEE2009F4A2CF4E
:1054500080911403816080931403F12C9BCF43133C
:1054600006C0921304C0F801EE2009F479C0C80107
:105470000E948713882309F1EE20F9F0809114032C
:10548000803270F020910F033091100338872F8302
:105490001986DB86CA868C87CE0107960E946A2011
:1054A00086E0F801AFE0B3E001900D928A95E1F754
:1054B0000E941A29FF24F3946DCFC8010E946A202C
:1054C000F9CF51110AC08FE093E00E946A2086E074
:1054D000F50111928A95E9F7C0CF43130FC09213DB
:1054E0000DC0E1100BC0F8018583C8010E946A203D
:1054F00086E0F50111928A95E9F74CCFC8010E9428
:1055000087138823D1F2EE20C1F2809114038032F8
:1055100038F220910F03309110033A8329831B82C4
:10552000DD82CC828E83CE010196B8CFE83CF105B6
:10553000F8F6FE2CEE2009F243131FC092131DC093
:105540008091140380FD10C0982F907F69F0F801BE
:105550008583903F31F0982F907F905F8F70892BDB
:105560008583C8010E946A2086E0F801AFE0B3E0BD
:1055700001900D928A95E1F70DCFC8010E94871323
:1055800081118ECF80911403816080931403C80130
:105590000E946A20FFCEEE2009F48FCFC8010E943E
:1055A0008713F82E882309F488CF86E0F801AFE04E
:1055B000B3E001900D928A95E1F780910F039091ED
:1055C00010030E947B130E941A29E4CE81E08E25ED
:1055D000FBCE1F93CF93DF93CDB7DEB767970FB6A0
:1055E000F894DEBF0FBECDBF4B8B5C8B6D8B7E8B7B
:1055F0008F8B611110924B051A8A198A85E0FE0182
:105600007396DE011D9601900D928A95E1F70E9436
:1056100031182091470330914803821B930B88383F
:10562000934120F08091490382FF7FC00E9431188E
:1056300020914B0330914C03821B930B883893418C
:1056400010F00E94DF1086E0FE013D96DE01179605
:1056500001900D928A95E1F7CE0107960E9470297C
:10566000882389F016E080914603909115038913F1
:1056700049C067960FB6F894DEBF0FBECDBFDF916D
:10568000CF911F91089586E0FE013796DE011196B5
:1056900001900D928A95E1F78A859B85892B11F3FC
:1056A0008F81988589238F3FE9F22091150330E09F
:1056B000C90101968770992740914603481719063A
:1056C00071F40E94AA19109215031092460386E005
:1056D000EFE0F3E0DF011D928A95E9F7C3CF96E092
:1056E000929FD001939FB00D1124AA5EBC4FFE0182
:1056F000319601900D929A95E1F7809315030E94DF
:105700001C11B0CF819FC00111248A5E9C4F0E9462
:105710007029882309F4ADCF8091460390E001966B
:1057200087709927809346039ECF82E00E9471196B
:105730007DCF1F921FB61F9211248F939F93AF931B
:10574000BF9380915305811113C0809154059091AE
:105750005505A0915605B09157054196A11DB11D63
:105760008093540590935505A0935605B093570523
:10577000BF91AF919F918F911F901FBE1F90189561
:10578000CDB7DEB7AA970FB6F894DEBF0FBECDBF78
:1057900084B7877F84BF0FB6F894A8958091600086
:1057A000886180936000109260000FBE80E890E0F6
:1057B0000FB6F89480936100909361000FBE85B797
:1057C000806885BF85B7806885BF8BEF9EE090932A
:1057D000CD028093CC020E942D040E94F804809197
:1057E000E20084608093E2007894809182058823AF
:1057F000A1F01091E9001F709091EC00892F817049
:1058000090FD80E8182B1092E9008091E80083FD5C
:105810000E94BF191F701093E90082E084BD93E0DD
:1058200095BD9AEF97BD80936E000E94AE138111D3
:1058300002C00E94F0120DE811E0D8018D918D0197
:105840008F3F11F00E94FD0EB1E002391B07A9F74E
:1058500002E911E0F80181918F018F3F11F00E9460
:10586000FD0EF1E0013A1F07A9F7109253031092C1
:10587000520310926903109268031092550310921C
:10588000540310926B0310926A0310925703109204
:10589000560310926D0310926C03109259031092EC
:1058A000580310926F0310926E0310925B031092D4
:1058B0005A0310927103109270030E94B216811164
:1058C00002C00E94BD1682E090E00E942D328093BB
:1058D0005D030E94C71390935905809358050E9459
:1058E000EC1E8FEB9DE50197F1F700C000000E94D0
:1058F000EC1E8091680380FF08C06FEF7FEF90E09F
:1059000080E00E9469320E944F1283E090E00E9482
:105910002D320E94A6190E9495141092A8038FEFB1
:105920009FEF9093C2038093C1039093C40380932D
:10593000C3039093C6038093C5039093C8038093D9
:10594000C7039093CA038093C9039093CC038093B9
:10595000CB039093CE038093CD039093D003809399
:10596000CF0310927F0390939903809398039093B1
:105970009B0380939A0390939D0380939C03909341
:105980009F0380939E039093A1038093A003909321
:10599000A3038093A2039093A5038093A403909301
:1059A000A7038093A6030E94B216811104C00E942F
:1059B000BD160E949A1646E050E06CE170E084E962
:1059C00095E00E941D32809194058C7F11F40E9415
:1059D0009A160E94270680FF03C083E50E941B1EC3
:1059E0008DE091E09093500580934F0538E1432E70
:1059F000512CDD24D39442E7642E43E0742E2224FC
:105A0000239458E0A52EB12C80918205853089F42D
:105A100090E4F92E23E0E22E00E112E1809182056C
:105A2000853009F4ADC10E94AA190E942706109280
:105A3000D9030E94EC1E81110E94BA05A8E6B3E0CA
:105A4000EEE5F3E010E000E0602FED90FD90219195
:105A500031912E153F0509F4FFC12E253F25C12C9C
:105A600088248394912CA90148215921452B09F4BC
:105A7000EDC1C9A26AA3E820F92081E0E114F10494
:105A800009F480E08BA30E9431188160782F9DA3D8
:105A90008CA349A15AA16BA18DA10E94E92AF8010A
:105AA000EE0FFF1FE25AFC4F8081918188269926D4
:105AB000918280821092D5031092D6031092D70360
:105AC0001092D803EF2871F08FE0809FF001819F42
:105AD000F00D1124E854FE4FEC0DF11D80818F3F35
