:100000000C94BF030C94F7030C94F7030C94F703C0
:100010000C94F7030C94F7030C94F7030C94F70378
:100020000C94F7030C94F7030C946E100C94921735
:100030000C94E0240C94F7030C94F7030C94F7034E
:100040000C94F7030C94F7030C94F7030C94F70348
:100050000C94F7030C9447110C94F7030C94F703DA
:100060000C94F7030C94F7030C94F7030C94F70328
:100070000C94F7030C94F7030C94F7030C94F70318
:100080000C94F7030C94F7030C94F7030C94F70308
:100090000C94F7030C94F7030C94F7030C94F703F8
:1000A0000C94F7030C94F7030C94F7030501090271
:1000B000A10185020901A1000509190129081500FE
:1000C0002501950875018102050109300931158165
:1000D000257F95027508810609381581257F9501D0
:1000E00075088106050C0A38021581257F95017572
:1000F000088106C0C005010980A101850319012AF4
:10010000B700150126B700950175108100C0050CD8
:100110000901A101850419012AA002150126A002E6
:10012000950175108100C005010906A1018506052C
:100130000719E029E71500250195087501810205D9
:1001400007190029EF1500250195F07501810205B9
:10015000081901290595057501910295017503910D
:1001600001C00660FF0961A1010962150026FF00B8
:100170009520750881020963150026FF00952075FA
:10018000089102C005010906A101050719E029E748
:1001900015002501950875018102950175088101F9
:1001A0000507190029FF150026FF0095067508812F
:1001B000000508190129059505750191029501753C
:1001C000039101C0000000000000000000000000DA
:1001D000000000000000000000000000000000001F
:1001E00000000000000000007E0F00D4FFFFFFC7EA
:1001F0000000007800000000000000002A2B28000A
:1002000000000000000000000000000000000029C5
:10021000000000002C1E3420212224342627252E05
:10022000362D3738271E1F2021222324252633333D
:10023000362E37381F0405060708090A0B0C0D0E69
:100240000F101112131415161718191A1B1C1D2F35
:100250003130232D350405060708090A0B0C0D0E55
:100260000F101112131415161718191A1B1C1D2F15
:100270003130354C0001010101010101010102028F
:100280000202020202020203030303030303030444
:10029000040404040404050505050506060606060F
:1002A000070707070708080808090909090A0A0AC9
:1002B0000B0B0B0C0C0C0D0D0D0E0E0E0F0F0F106B
:1002C00010111111121213131414151516161717F5
:1002D000181819191A1A1B1B1C1D1D1E1E1F202061
:1002E000212222232424252626272829292A2B2CAB
:1002F0002D2D2E2F30313232333435363738393ACE
:100300003B3C3D3E3F404142434445464748494AC5
:100310004C4D4E4F50515354555658595A5B5D5E93
:100320005F616264656668696B6C6D6F707273752E
:1003300077787A7B7D7E8082838587888A8C8E8F92
:1003400091939596989A9C9EA0A2A3A5A7A9ABADC0
:10035000AFB1B3B5B7BABCBEC0C2C4C6C9CBCDCFAE
:10036000D1D4D6D8DBDDDFE2E4E7E9EBEEF0F3F55C
:10037000F8FAFDFF009B8B7B00AB8A7A00AA9A7982
:1003800000A9998900A8988800A7978700A6968653
:1003900000A5958500A49484003C4C5C002C4D5D28
:1003A000002D3D5E002E3E4E003040500031415148
:1003B000002A3A4A00293949002838480027374797
:1003C0000026364600253556002445550034445451
:1003D00000AC9C8C00AD9D8D00AE9E8E00AF9F8FBB
:1003E00000B0A09000B1A19100324252002B3B4BD3
:1003F00001A9998901A8988801A7978701A69686DF
:1004000001A5958501A49484013C4C5C012C4D5DB3
:10041000012D3D5E012E3E4E012F3F4F01304050D9
:100420000033435301AB8A7A012838480127374704
:1004300001263646012535560124455501AC9C8CD4
:1004400001AD9D8D01AE9E8E01AF9F8F0131415157
:10045000013242520133435300B2A281019B8B7B94
:10046000012B3B4B012A3A4A0134445401B1A1917A
:1004700001B2A28101A3938300A3938300B392826C
:10048000165C1E001F002000210022002300240013
:100490002500260027002D002E002A004A002B00F0
:1004A00014001A000800150017001C0018000C00AA
:1004B000120013002F00300031004B0000570400E1
:1004C0001600070009000A000B000D000E000F00C7
:1004D00033003400000028004E00E1001D001B0026
:1004E0000600190005001100100036003700380022
:1004F0000157000052004D00E000E300E200000060
:1005000000002C000000000002570000E400500032
:10051000000051004F0035003A003B003C003D0018
:100520003E003F00400041004200430044004500BF
:100530004C00490001004A0052004D004B000100F0
:1005400001000100010001000100010001000100A3
:1005500046000100500051004F004E000100010014
:100560000100010001000100010000000100010084
:10057000010001000100B20001000100110A29037D
:100580000100010001000100000001000100010064
:1005900001000100000000004C000000000001000C
:1005A000000065610100000001000100350001004C
:1005B000010001000100010001005F006000610016
:1005C0000100560057000100A60001004A00520039
:1005D0004D004B00010001005C005D005E00010069
:1005E00055005400010001000100500051004F006F
:1005F0004E000100010059005A005B00010001009B
:10060000000001000100010001000100B200010032
:10061000010001006200620063005300010000005D
:10062000010001000100615D010000000000010007
:1006300000000000010000000100010000000100B6
:100640000100C25CCD5C01000100145CAA00A9009D
:10065000AE00A80001000100010001000100C75C1C
:100660000100010001000100010001000100010082
:1006700001000100010001000100005CC85C0100F4
:100680000100010001000100010001000100010062
:100690000100010001000000DE5CC55C01000100FA
:1006A0000100010001000100010010030100010030
:1006B000010001000000C35CC65C010001000100F4
:1006C00000000000010000000000005000000100D8
:1006D000CA5C0000C45CC95C09025B00030100A0A5
:1006E000FA090400000103010100092111010001C0
:1006F00022400007058103080001090401000203EC
:1007000000000009211101000122220007058203D7
:100710002000010705030320000109040200010372
:1007200000000009211101000122B6000705840321
:100730002000011201000200000008424B251202B5
:10074000000102000120036B0062006400360037E4
:10075000006D006B00690069007200670062002094
:100760000076003200000010034B00420044006697
:100770000061006E007300000004030904001124EE
:100780001FBECFEFDAE0DEBFCDBF04B603FE18C058
:100790008091880590918905A0918A05B0918B057B
:1007A0008730904BA740B04B59F4109288051092B7
:1007B000890510928A0510928B05E0E0F8E309950F
:1007C00012E0A0E0B1E0EEE2F9E502C005900D9282
:1007D000A63CB107D9F725E0A6ECB2E001C01D9216
:1007E000A838B207E1F70E9407250C946C2C0C94F2
:1007F0000000E8EDF0E080818E7F80831092E200BF
:100800001092DA001092E100A0EEB0E08C918160CD
:100810008C9380818F77808319BCA7EDB0E08C9199
:100820008E7F8C9380818F7E8083109250050895F7
:100830002091E4003091E50095E6A9012091EC00BB
:10084000822F817020FF06C08091E80080FF06C0E3
:1008500080E008952091E80022FD1AC0809175057E
:10086000882389F0853089F08091EB0085FD0FC0E9
:100870002091E4003091E50042175307F9F29150BE
:10088000E1F684E0089582E0089583E0089581E030
:1008900008958091770587FF13C08091E80082FF5B
:1008A00006C08091E8008B778093E80004C08091B7
:1008B00075058111F2CF0895809175058823D9F3CC
:1008C0008091E80080FFF8CF8091E8008E77ECCF30
:1008D000982F9093E900242F762F50E0891731F05C
:1008E0007091EC002091ED005091F00021FD07C0C7
:1008F0009F5F973071F78093E90081E00895309110
:10090000EB003E7F3093EB003091ED003D7F309364
:10091000ED003091EB0031603093EB007093EC0010
:100920002093ED005093F0002091EE0027FDE0CFE2
:1009300080E00895B0E0A0E0E0EAF4E00C94AD2B94
:10094000C8EDD0E088818F7E8883E7EDF0E080817C
:100950008160808384E082BF81E08093500588813C
:100960008E7F888302EE10E0F80110821092DA0088
:1009700081EEC82ED12CF601108288818F77888372
:1009800088818068888388818F7D888319BC1092D4
:10099000750510927605109274051092730590EE0D
:1009A000E92EF12CF70180818B7F80838881816023
:1009B000888342E060E080E00E946804F601808164
:1009C0008E7F8083F8018081816080838081886050
:1009D0008083F70180818E7F808388818061888316
:1009E000CDB7DEB7E8E00C94C92BFC0180917D0502
:1009F00090917E0586179707A0F06115710529F47F
:100A00009091E8009E779093E80090E06115710561
:100A100051F4911108C08091E80082FF34C080E059
:100A20000895BC01F2CF809175058823C1F185300E
:100A3000C1F18091E80083FD30C08091E80082FD23
:100A4000EACF8091E80080FFE1CF8091F300209110
:100A5000F200382F6115710519F02830310558F072
:100A600091E02830310509F090E02091E8002E77E0
:100A70002093E800CBCF81918093F1006150710900
:100A80002F5F3F4FE7CF80917505882341F0853078
:100A900041F08091E80083FFBECF81E0089582E0BD
:100AA000089583E008958091520508952FB7F89432
:100AB00060914C0570914D0580914E0590914F05C8
:100AC0002FBF0895209143012223C1F02091860574
:100AD00027FF14C0E62FE695E695E695EE31F8F48B
:100AE000E80FF92FF11D677021E030E001C0220FFF
:100AF0006A95EAF78281822B82830895FC013296FF
:100B00002FEF30E04191641751F02F3F19F441115C
:100B100001C0232F3F5F3630A9F72F3F09F4089516
:100B2000820F911D27FD9A95FC0162830895A3E031
:100B3000B0E0EDE9F5E00C94B32B2091490530913C
:100B40004A0528173907A1F090934A058093490573
:100B5000E0914705F0914805309751F024E0298352
:100B60009B838A830680F781E02DCE01019609954B
:100B70002396E2E00C94CF2BA3E0B0E0E2ECF5E0AA
:100B80000C94B32B20914505309146052817390761
:100B9000A1F09093460580934505E0914705F091BB
:100BA0004805309751F023E029839B838A83068090
:100BB000F781E02DCE01019609952396E2E00C9491
:100BC000CF2BE0914705F0914805309729F001902F
:100BD000F081E02D0995089580E00895CF93DF938B
:100BE000EC014091360550913705609138057091C0
:100BF00039052FB7F89480914C0590914D05A0913F
:100C00004E05B0914F052FBF841B950BA60BB70B5C
:100C1000843F9140A105B10518F58091360590916A
:100C20003705A0913805B09139058093320590932E
:100C30003305A0933405B093350584EF91E0A0E02F
:100C4000B0E080932E0590932F05A0933005B093CC
:100C50003105D0933E05C0933D05DF91CF910895B6
:100C60000E945605609332057093330580933405D6
:100C70009093350582E390E0A0E0B0E0E2CFFC0184
:100C80008481862351F492819923B9F06923808568
:100C900083FF05C081E061110FC080E00895892FB6
:100CA0008F7092959F70982B862F8F7062956F70C2
:100CB000682B81E09613F1CF089581E0FDCFFA0112
:100CC000811101C0FB0109950895ECECF3E024814A
:100CD00030E1231B08F420E024838091CB03816062
:100CE0008093CB030895ECECF3E0248130E1230FF3
:100CF00008F42FEF24838091CB0381608093CB0392
:100D000008959091CC03937059F08093CD03609334
:100D1000CE034093CF038091CB03822B8093CB03F0
:100D20000895ECECF3E0438120E1421B08F440E03D
:100D3000818121E0628190E00E9481060895ECECBF
:100D4000F3E0438120E1420F08F44FEF818121E07D
:100D5000628190E00E9481060895ECECF3E06281EC
:100D600020E1621B08F460E0818121E0438190E092
:100D70000E9481060895ECECF3E0628120E1620FAD
:100D800008F46FEF818121E0438190E00E948106A9
:100D90000895ECECF3E0818121E043816281885089
:100DA000990B0E9481060895ECECF3E0818190E0BC
:100DB00021E04381628108960E9481060895809116
:100DC000CC03837051F084608093CC031092420175
:100DD0008091CB03862B8093CB0308958091CC0325
:100DE00086958695815009F481E061E00E94DF06D6
:100DF000089561E081E00E94DF0608950E946D0D74
:100E00000895B0E0A0E0E7E0F7E00C94A82B182FDD
:100E100080913E01811321C09091CC039370209169
:100E20003D0130E081E09217130609F480E0817003
:100E3000809341018091D10390914001981739F03E
:100E40008093400140E060E080E00E94FE061123B4
:100E500031F0113071F080E02DC081E0E8CF809159
:100E60004101882339F140E060E080E00E94FE0605
:100E7000F2CF90903F01990C990C04E0090D802E5F
:100E8000043410F023E4822E4091CD03D090CE03A1
:100E9000E091CF03F0E0EC58FD4FD11023C0F49067
:100EA000DF2DCF2DC92CD12CC81408F48FC081E0C0
:100EB000033488F690913F019F5F90933F01811129
:100EC0000CC082E08093420180914101811105C0F4
:100ED000111103C083E080934201CDB7DEB7EDE08E
:100EE0000C94C42BED2CF12CC4917C2EEC2FF0E053
:100EF00026E0429FC00111242FEF30E0B9010E948B
:100F00008F2B842F90E0880F991FA5E5A69FA00145
:100F1000A79F500D1124841B950BC82ECC0CC80E16
:100F2000D901AE19BF09AE9FA001AF9F500DBE9F62
:100F3000500D1124D52FDC9CD0011124AB2FBB27E1
:100F4000C9018A1B9B0B8E9FD0018F9FB00D9E9F66
:100F5000B00D11245901AC18B108AE9C6001AF9CD2
:100F6000D00CBE9CD00C1124CD2CDD242C193D09B5
:100F70002E9FC0012F9F900D3E9F900D1124F92EA2
:100F800062307105A1F050F46115710509F48ACF42
:100F90006130710581F0F52EDB2F84CF643071054F
:100FA00069F080F06630710509F47CCFF4CFFC2E37
:100FB000C52FD92F77CFFC2ECB2F74CFF52EDC2F5A
:100FC000C92F70CFC52FD72DFB2E6CCFF601EC5853
:100FD000FD4F808190914001892331F02D2F4F2DBD
:100FE0006C2FC6010E942F0D8FEFC81AD80A5CCF54
:100FF00080918E0380FD16C081FD16C082FD16C053
:1010000080918D038823A1F0883280F428E0829FAC
:10101000C001112468E270E00E94DA2B862F672B52
:1010200039F0089582E0089584E0089588E00895F5
:1010300081E0089580918E0380FD14C081FD14C06D
:1010400082FD16C080918C03882381F08E3180F45C
:1010500020E5829FC00111246EE170E00E94DA2B2E
:10106000862F089584E1089588E2089588E0089520
:1010700080E5089580E00895F894E82FE295EF70F8
:10108000F0E031A1282F2F7081E090E001C0880F9F
:101090002A95EAF7982F9095932391A392A1892BF3
:1010A00082A3789408959091860592FF06C0282F18
:1010B00028712830F9F4877F846093FF06C0282FB9
:1010C00028712831F1F4877E84612091870520FF03
:1010D00006C0382F38713830D9F4877F816021FFFE
:1010E00006C0282F28712831D1F4877E816194FDB4
:1010F000877E0895282F24712430F9F68B7F88602D
:10110000DCCF282F2471243101F78B7E8861DDCF5D
:10111000382F3171313019F78E7F8860E0CF282F5A
:101120002171213121F78E7E8861E1CFCF93DF934A
:10113000EC0182389105B1F108F040C0813391058E
:1011400009F49DC048F58932910509F48DC08A974C
:1011500009F49CC0C11521E5D20708F0C3C0C11530
:1011600030E5D30708F01EC1C83ED10508F0A3C082
:10117000C13ED10588F5C83AD10508F08EC0C53A00
:10118000D10508F007C1C130D10531F1209721F117
:10119000C430D10508F545C08533910509F45FC019
:1011A000C997C1F680918605837009F043C180918B
:1011B000870583FF11C0C9E2D0E00EC0833E9105D0
:1011C00099F170F4803E910501F1823E910511F68E
:1011D0008091860582FD21C0CE01DF91CF910895D7
:1011E000863E910561F1873E910571F1843E91053E
:1011F00009F0B0CF8091870581FFEECF8091860501
:10120000C7EED0E084FD0DC0E7CF8091860580FD5C
:1012100033C09091870590FFDFCFC3EED0E084FF0D
:10122000DBCFD0E0C0E0D8CF8091860582FDFFC043
:101230009091870590FDFEC084FFCECFF2CF8091C4
:10124000860583FDDDCFC8CF8091860583FDF5C07F
:101250009091870591FFF0CFC4EED0E0BDCF809193
:10126000860585FFB9CFA7CF8091860585FDE8C0AB
:101270008091870583FFB0CFC9E3D0E0ADCF8091E7
:10128000860586FFA9CFCAE2D0E0A6CF8091860569
:1012900086FFA2CFC1E3D0E09FCFC13CD10508F6C5
:1012A000C85AD0E0CC0FDD1FC75ADE4F0990D88155
:1012B000C02DD46491CFC11540E2D40758F4C115B4
:1012C00081E0D80708F088CFC03FD10508F4A9CF46
:1012D000D06582CFC11520E4D20708F4A2CFDF7019
:1012E000D06A7ACFC11535E5D30718F5C11544E5A5
:1012F000D40708F084C0C11583E5D80708F06BC097
:10130000C11522E5D20708F461C0CE018370992788
:1013100021E030E002C0220F331F8A95E2F7C69524
:10132000C69580E2C89FE0011124C22BD32BDC6854
:1013300053CFC11539E5D307A8F4C11548E5D40743
:1013400008F062C0C11586E5D80708F06ACF8C2F77
:101350000E945308C82FD0E0DC2FCC27CC27DF71A8
:10136000D0623ACFC1152AE5D20708F452C0CE01A7
:1013700090568115904208F054CF8D2F8F710E94A6
:10138000530890E0982F882788279F719C012C2B69
:10139000E901E6CFC55AD0E0CA5ADE4FC881D0E095
:1013A000D0641ACFCE018370992721E030E002C0CB
:1013B000220F331F8A95E2F7C695C69540E2C49F77
:1013C000E0011124C22BD32BDD6806CFDC2FCC2704
:1013D000C16FD06A01CFCE018370992721E030E040
:1013E00002C0220F331F8A95E2F7C695C69540E2E8
:1013F000C49FE0011124C22BD32BDA68EDCEDC2F81
:10140000CC27C46FD06AE8CEDC2FCC27C06FD06A5F
:10141000E3CE8C2F8F700E94530834E0D695C79589
:101420003A95E1F7CF709C2FEC01D069D5CEC2EE92
:10143000D0E0D2CEC0EED0E0CFCEC6EED0E0CCCE63
:10144000C5E3D0E0C9CE80916303882331F01092C8
:101450006303109262031092610308958095909146
:101460004205982390934205089590914301992352
:10147000D1F09091860597FF16C0E82FE695E69586
:10148000E695EE31E0F4F0E0E853FD4F282F2770A9
:1014900081E090E001C0880F2A95EAF7809592815B
:1014A000892382830895EAECF2E09191891303C0C5
:1014B000DF0111971C9292E0E03DF907B1F7089522
:1014C0008091400390910F03981301C008958F5F9E
:1014D0008770FACF292F953078F58F3068F590E036
:1014E0003FE0239F800D911D1124682F677023E03A
:1014F000969587952A95E1F7FC01EE0FFF1FE80FFF
:10150000F91FE551FD4F50E040E080E0219130E0CF
:10151000062E02C0369527950A94E2F721703327EC
:10152000042E01C0220F0A94EAF7822B4F5F5F4F0F
:101530004330510559F7089580E00895292F9530DB
:1015400098F58F3088F590E03FE0239F800D911D46
:101550001124282F277041E001C0440F2A95EAF793
:1015600023E0969587952A95E1F7FC01EE0FFF1F82
:10157000E80FF91FE551FD4F30E020E070E0519198
:10158000DF011197CB01022E02C0969587950A9430
:10159000E2F7817081958527842385278C932F5FBF
:1015A0003F4F2330310559F70895982F92959F703A
:1015B00011F0892F94E0282F2695269511F09E5F33
:1015C000822F869509F09F5F892F08959C013A9597
:1015D00021153F4150F5FC01EE27F170BC01662753
:1015E0007270AC01442754709C012227387094FF1C
:1015F0000EC080E1EF2B09F480E0672B09F08062D8
:10160000452B09F08064232B89F08068089581E0E0
:10161000EF2B09F480E0672B09F08260452B09F07D
:101620008460232B19F08860089580E00895FC0100
:101630009281913029F4858180FF06C083E008956E
:10164000923021F081E0089582E0089584E00895C9
:101650000F931F93CF93DF938B01EA019091750550
:10166000943061F58093E9008FEF9091E80081500C
:1016700095FD06C095ED9A95F1F700008111F5CF23
:101680008091E80085FF1AC00E941804811111C0E2
:101690008091E80085FD06C08091E8008E778093F8
:1016A000E800F2CFF80181918F018093F10021973A
:1016B00079F78091E8008E778093E800DF91CF91F1
:1016C0001F910F91089543E050E0BC0184E00E9417
:1016D000280B089546E050E0BC0184E00E94280BEE
:1016E0000895CF93DF93EC0180914301811111C0E4
:1016F00048E050E0BE0181E00E94280B80E2FE013C
:10170000A3E5B5E001900D928A95E1F7DF91CF91C5
:1017100008958091860587FF05C040E284E050E08F
:10172000BE01EACF48E081E0FACF81E08093E0009B
:1017300080E28093D8001092C9008FE19EE4019767
:10174000F1F700C0000087E090EBDC018093880592
:1017500090938905A0938A05B0938B0588E19CE05E
:101760000FB6F894A895809360000FBE9093600028
:10177000FFCFCF93DF93CEE7D2E060E0CE010E94AF
:10178000482C2196C11584E0D807B9F7DF91CF9195
:1017900008951F93CF93DF93122F8430E0F46530C8
:1017A000D0F44F30C0F4C42FD0E0CC0FDD1F9EE149
:1017B000699FC00DD11D112496E9899FC00DD11DCF
:1017C0001124632FCE0186960E94482C612FCE01F2
:1017D00087960E94482CDF91CF911F910895AF9278
:1017E000BF92CF92DF92EF92FF921F93CF93DF933E
:1017F00080E8C82E84E0D82ED0E07601C0E014C086
:10180000F50125913491412F6C2F8D2F0E94C90B2A
:1018100082E0A80EB11C1F5F1F3091F78EE1E80E29
:10182000F11CCF5FC53019F0570110E0E9CFDF5F41
:1018300086E9C80ED11CD43001F7DF91CF911F91FA
:10184000FF90EF90DF90CF90BF90AF900895CF932F
:10185000C82F6FEF811161E282E290E00E94482C74
:101860006FEFC11167E083E290E00E94482C6FEFB8
:10187000C11165E184E290E00E94482CCF91089567
:1018800080E00E94270C60E085E290E00E94482CF6
:101890000E94EF0B0E94B90B81E00E94270C089573
:1018A0000F931F93CF93DF93843030F5653020F58D
:1018B0004F3010F5C42FD0E0CC0FDD1F2EE1629F1A
:1018C000C00DD11D112436E9839FC00DD11D1124F7
:1018D000CE0186960E942A2C082F10E0102F002798
:1018E000CE0187960E942A2C9801282BC901DF91EE
:1018F000CF911F910F91089590E080E0F8CF462F8F
:10190000753040F46F3030F4843020F4672F0E943B
:10191000500C089590E080E00895CF92DF92FF92FE
:101920000F931F93CF93DF936C01009182058091F9
:101930006403082BC7E0D0E010E0FC2EC8010C2E99
:1019400002C0959587950A94E2F780FD0CC0219717
:10195000A0F7F12C8F2DDF91CF911F910F91FF9068
:10196000DF90CF900895B6018C2F0E947F0C0E94CB
:101970009608019761F3EECFCF93DF93EC010E94BD
:101980008D0CBE010E947F0C0E949608DF91CF91C2
:101990000895FC0183819481892B29F080819181B4
:1019A00089238F3F51F480E00895843FE1F717C009
:1019B000883EA8F0813FB9F712C0808191810E94D2
:1019C000BC0C92959F70963099F358F4925F9F707B
:1019D000923048F7803F19F040F7883E20F781E0C9
:1019E00008959A5FF4CFA5E0B0E0E9EFFCE00C9435
:1019F000B22B49835A8389819A81662399F02223E5
:101A000089F00E948D0C182F682F89819A810E947D
:101A10009E0A69817A81812F0E947F0C2596E3E0DE
:101A20000C94CE2B0E946A0A182FF3CF82E290E02A
:101A30000E942A2C813289F483E290E00E942A2CB1
:101A4000873059F484E290E00E942A2C91E085319D
:101A500009F090E0892F8170089580E0FCCFA4E028
:101A6000B0E0E5E3FDE00C94B02BF62E042F122F2E
:101A70008334910570F5880F991F880F991FBC0159
:101A80006C587C4F44E050E0CE0101960E94FB2B45
:101A900089818370EA81282F30E040E9849FC0016A
:101AA000112488519C4FE80FF92FF11DB497F08253
:101AB000EB81E80FF92FF11DB4970083EC81E80F5B
:101AC000F92FF11DB49710832A513C4F81E0F901A1
:101AD00080832496E5E00C94CC2BFF920F931F9308
:101AE000CF93DF93182F062FF42ED0E0C0E02F2DD8
:101AF000402F612FCE010E942F0D2196C334D105B6
:101B0000B1F7CDB7DEB7E5E00C94CC2B0F931F9364
:101B1000CF93DF93082F000FEB0114E21093D20351
:101B2000E3EDF3E0DE018D91819383E0E33EF8077E
:101B3000D1F724E630E041E150E062ED73E0802F20
:101B40000E946E2B105F6096143B41F7DF91CF919E
:101B50001F910F9108958091E603882329F068EE84
:101B600073E084E70E94860D1092E6038091E703FC
:101B7000882329F068E774E087E70E94860D1092B9
:101B8000E7030895E2EDF3E06083418324E630E06B
:101B900042E050E0BF01880F0E946E2B0895EF9243
:101BA000FF920F931F93CF93DF93E82E062F10E041
:101BB000045D1A4FF8018081882381F0F2E16F9F64
:101BC000E0011124C85FDA4FF12C49916F2D8E2D61
:101BD0000E94C20DF39482E1F812F7CFF80110824F
:101BE000CDB7DEB7E6E00C94CB2BCF93DF93C82FB5
:101BF0004BE06DEF0E94C20D40E06AE08C2F0E9426
:101C0000C20D8FE39CE90197F1F700C0000040E0AE
:101C100060E08C2F0E94C20D40E061E08C2F0E949A
:101C2000C20D40E066E08C2F0E94C20D40E06DEFD7
:101C30008C2F0E94C20DD0E040E06D2F8C2F0E94AF
:101C4000C20DDF5FD231C1F740E06D2F8C2F0E94B3
:101C5000C20DDF5FD432C1F740E06D2F8C2F0E94A0
:101C6000C20DDF5FD43BC1F74BE06DEF8C2F0E94BC
:101C7000C20D41E06AE08C2F0E94C20D40E06DEF82
:101C80008C2F0E94C20DDF91CF910895A4E0B0E0A7
:101C9000ECE4FEE00C94A72B0E94CE2A84E70E947D
:101CA000F50D87E70E94F50D04E713E052E1752E6C
:101CB00068E0C62ED12CEE24E394F12C66246394C4
:101CC00044E050E0B801CE0101960E94FB2B4A810E
:101CD00050E0CA0184972B81622F6452770B4B012D
:101CE0002C81E22FE452FF0B5F012981237030E049
:101CF000FC0197FD379643E0F595E7954A95E1F7A6
:101D0000729EA001739E500D1124485F5A4FE40F3C
:101D1000F52FF11DB6010E94DA2BA70101C0440F77
:101D20008A95EAF78081842B8083F40197FC3796AB
:101D300093E0F595E7959A95E1F7729EC001739E41
:101D4000900D1124885F9A4FE80FF92FF11DC401FF
:101D5000B6010E94DA2BA70101C0440F8A95EAF769
:101D60008081842B8083F501B7FC379683E0F5955D
:101D7000E7958A95E1F7729EC001739E900D11243C
:101D8000885F9A4FE80FF92FF11DC501B6010E9437
:101D9000DA2BA70101C0440F8A95EAF78081842BD2
:101DA0008083245D3A4FF90160820C5F1F4FF4E09D
:101DB00000381F0709F084CF60E084E70E94CF0D50
:101DC00061E087E70E94CF0D2496EEE00C94C32BD0
:101DD00046E050E06CE170E08CEC93E00E94382C1F
:101DE0001092CB0308954F925F926F927F928F92E1
:101DF0009F92AF92BF92CF92DF92EF92FF92CF93DA
:101E0000C090C203D090C303E090C403F090C50318
:101E10008FB7F89440904C0550904D0560904E055A
:101E200070904F058FBF530142018C189D08AE087A
:101E3000BF080E9456056093C2037093C30380934A
:101E4000C4039093C503A0919903E9E9F3E02A2F15
:101E500030E04FEFC40ED41EE11CF11CC418D508AD
:101E6000E608F708A31329C0209399032091CA0319
:101E7000C0E0211108C02091CC03C22FC37019F01B
:101E8000C22FC695C695209142012130B9F1222377
:101E900039F1223009F471C0233009F479C0CF91AF
:101EA000FF90EF90DF90CF90BF90AF909F908F907A
:101EB0007F906F905F904F900895418D528D2A01D1
:101EC000712C612CC414D504E604F70420F42150CD
:101ED0003F5F3296C7CF480D591D528F418FF8CFC3
:101EE00010923F016093C6037093C7038093C803A9
:101EF0009093C90381E080934201D1CF8C2F0E943F
:101F00000107CC2361F20E94E10581FF07C02FEF9A
:101F10004FEF6FEF8EE190E00E942F0D80918205D0
:101F20000E94D50A8130F9F0882349F0823009F106
:101F3000833009F0B4CF47E760E08EEE17C00E940F
:101F4000E10581FF08C02BEB46E660E08DE390E001
:101F50000E942F0DA4CF21E040E060E090E080E0FF
:101F60000E9481069CCF41E16CEC8AEA0E94FE0649
:101F700096CF40E069E98FEFF9CFC0933E018091A1
:101F8000CC03837080933D010E94AB0D83E0B3CFFF
:101F90008091CB0381110E94E80E4091C6035091BD
:101FA000C7036091C8037091C9032FB7F89480915B
:101FB0004C0590914D05A0914E05B0914F052FBF56
:101FC000841B950BA60BB70B4A97A105B10508F426
:101FD00066CF1092420163CFECECF3E085E08083A2
:101FE0008091440190914501A091460181839283A3
:101FF000A3838FE784838FEF85830E94E80E089583
:1020000090E080E00E94322C873E9E4F19F40E949F
:10201000160D089580E0089567EE7EEF90E080E071
:102020000E94662C60E082E090E00E94482C60E014
:1020300083E090E00E94482C1092640360E074E119
:1020400084E090E00E94662C60E086E090E00E94D0
:10205000482C6FEF87E090E00E94482C40E050E071
:10206000BA0188E090E00E945A2C60E08DE090E098
:102070000E94482C40E050E0BA0188E190E00E94C4
:102080005A2C60E087E190E00E94482C40E050E04C
:10209000BA018CE190E00E945A2C70E060E080E28E
:1020A00090E00E94662C40E050E0BA0188E190E0A8
:1020B0000E945A2C80E00E94270C0E94400C40E0B5
:1020C00050E0BA018FE090E00E945A2C40E050E0CE
:1020D000BA0183E190E00E945A2C08951F920F925A
:1020E0000FB60F9211242F933F934F935F936F93EB
:1020F0007F938F939F93AF93BF93EF93FF938091C1
:10210000E10082FF09C08091E20082FF05C080915A
:10211000E1008B7F8093E1008091DA0080FF24C092
:102120008091D80080FF20C08091DA008E7F80935C
:10213000DA008091D90080FF9DC080E189BD82E1F5
:1021400089BD09B400FEFDCF81E0809375058091C3
:102150005005811109C00E94F9030E949A048091E0
:10216000E20084608093E2008091E10080FF17C06C
:102170008091E20080FF13C08091E2008E7F809307
:10218000E2008091E20080618093E2008091D800BB
:1021900080628093D80019BC85E08093750580919A
:1021A000E10084FF2BC08091E20084FF27C080E122
:1021B00089BD82E189BD89B5982F917080FFFBCFE1
:1021C0008091D8008F7D8093D8008091E1008F7E30
:1021D0008093E1008091E2008F7E8093E200809105
:1021E000E20081608093E20080917605882309F403
:1021F00047C084E080937505809175058091E1006A
:1022000083FF27C08091E20083FF23C08091E1001B
:10221000877F8093E10082E08093750510927605B8
:102220008091E1008E7F8093E1008091E2008E7FBB
:102230008093E2008091E20080618093E20042E0BE
:1022400060E080E00E9468048091F00088608093E4
:10225000F000FF91EF91BF91AF919F918F917F918E
:102260006F915F914F913F912F910F900FBE0F9003
:102270001F90189519BC109275051092500574CFD7
:102280008091E30087FD93E090937505B5CF789436
:102290001F921FB61F9211248F939F93AF93BF93EA
:1022A00080914C0590914D05A0914E05B0914F0540
:1022B0000196A11DB11D80934C0590934D05A093EF
:1022C0004E05B0934F05BF91AF919F918F911F9095
:1022D0001FBE1F9018959C014FB7F89480914C0534
:1022E00090914D05A0914E05B0914F054FBF821BB7
:1022F000930B08952FB7F89480914C0590914D055C
:10230000A0914E05B0914F052FBF08950E947A11FC
:102310009C019091950380919603982B21F0309326
:102320009203209391039091970380919803982BA7
:1023300021F03093900320938F03E0914705F091B3
:102340004805309749F082E0809393030480F5813B
:10235000E02D83E993E009950895662309F45DC0B3
:10236000803F41F40E941A088195809396030E9451
:1023700086110895813F19F40E941A08F6CF823F12
:1023800031F40E941A08819580939503F0CF833F22
:1023900019F40E941A08F8CF893F29F40E94F8071F
:1023A00080939703E4CF8A3F21F40E94F807819538
:1023B000F7CF8B3F31F40E94F80781958093980303
:1023C000D6CF8C3F19F40E94F807F8CF9CE0980F05
:1023D000953070F4845F990B21E030E001C0220F4A
:1023E0008A95EAF780919403822B80939403BFCF60
:1023F0008D3F31F480918E03816080938E03B7CF3F
:102400008E3F21F480918E038260F7CF8F3F09F0D9
:10241000AECF80918E038460F0CF40919503803FD2
:1024200059F48091960387FF0DC0109296034111D5
:102430000BC010928C0308C0813F81F480919603F9
:1024400018169CF3442381F0809197039091980390
:10245000892B09F08CCF10928D0389CF823F49F4EC
:1024600047FFF0CF10929503809196038111ECCF36
:10247000E0CF833F19F41416ACF3E4CF90919703A7
:10248000893F29F41916F4F610929703DBCF8A3F9F
:1024900019F497FFD7CFF8CF909198038B3F29F489
:1024A00097FFD0CF10929803CDCF8C3F19F4191617
:1024B000CCF3C8CF9CE0980F953090F4845F990BD3
:1024C00021E030E0B90102C0660F771F8A95E2F77C
:1024D000CB01809590919403892380939403B2CF8C
:1024E0008D3F31F480918E038E7F80938E03AACF2F
:1024F0008E3F21F480918E038D7FF7CF8F3F09F0BF
:10250000A1CF80918E038B7FF0CFAAE0B0E0EBE803
:10251000F2E10C94A92B8E010F5F1F4F8AE0F801A6
:1025200011928A95E9F79BE8E92E91E0F92E68016E
:10253000AA24A394B12CF70181917F018F3F09F464
:1025400046C0F894E82FE295EF70F0E021A18F707B
:10255000A50102C0440F551F8A95E2F7CA01922FC8
:10256000982B91A392A18095892382A3789400C08F
:10257000E0E9F1E021E030E0912C812C41914F3FE6
:1025800009F467C0A42FA295AF70B0E090968C912B
:1025900090E04F7002C0959587954A95E2F780FDCF
:1025A00058C0C901882A992A220F331F51E0EF39F8
:1025B000F50721F7F701319780818F3F11F00E94D5
:1025C0003C0880EA8A95F1F7F60191828082F2E078
:1025D000CF0ED11C40E9E41641E0F40609F0ABCF80
:1025E0004AE050E0B80188E693E00E94042C892B71
:1025F00099F18AE0F801A8E6B3E001900D928A957E
:10260000E1F781E0809367030E947A11909366035B
:102610008093650380916503909166030E946B111E
:102620000397F0F04AE050E068E673E082E893E058
:102630000E94042C892BC9F08AE0E8E6F3E0A2E8C6
:10264000B3E001900D928A95E1F781E01092670363
:1026500008C090E080E0A6CF809167038111DACFB7
:1026600080E02A96ECE00C94C52B80E0EFCFCF936E
:102670008091420590914105892B8093C8028091F9
:102680006303882339F10E947A112091610330910C
:102690006203821B930B8C3D954010F00E94230A2D
:1026A0008091C80290916303892B8093C802809126
:1026B0004301882309F447C08091860587FF43C002
:1026C0008EE1EAECF2E090E0815008F03EC091111A
:1026D0000E94230AC0913A05C0958091C802C82380
:1026E00080913B05C82BC093C80240E250E061E4F2
:1026F00073E088EC92E00E94042C892B11F180E2B7
:10270000E8ECF2E0A1E4B3E001900D928A95E1F7E4
:10271000E0914705F0914805309799F08091430189
:10272000882349F08091860587FF05C0C093C902C0
:1027300086E08093C8020280F381E02D88EC92E06D
:102740000995CF91089586E0BCCF2191222309F409
:10275000BBCF9F5FB9CFCF93DF93EC01EA85FB85B9
:10276000309719F06C857D8509958B81982F909510
:10277000809141058923809341058C810E942E0A16
:102780000E94371386E0FE0111928A95E9F7DF91E6
:10279000CF910895CF93DF93EC018D8181FD18C017
:1027A00082608D83809141059B81892B80934105B7
:1027B000809142059C81892B809342050E943713AA
:1027C000E885F985309721F06C857D85CE010995E6
:1027D00010924405109243058D8180FD03C0CE0107
:1027E0000E94AB13DF91CF91089590E080E00E94AA
:1027F000BC0590E080E00E949705109241050E9480
:10280000371386E0E3E9F3E0DF011D928A95E9F7EB
:1028100010928C0310928D0310928E030E948611E9
:102820000895809382050E94F51308958091820592
:10283000982F9670963021F488600E9411140895A4
:10284000877FFBCF21E030E001C0220F8A95EAF7B5
:1028500020958091820582230E9411140895909101
:1028600085058095892380938505282F2770B1F4ED
:10287000282F082E000C330B9217130679F0909135
:10288000870592FF0BC08595859585950E9422143A
:1028900010928505109284051092830508959091F9
:1028A000870592FB222720F9281779F080FB92F9FF
:1028B00090938705609186057091870584E090E08C
:1028C0000E94662C82E00E942F14089580910701D7
:1028D000833019F482E00E9422140895809105014A
:1028E000833019F481E00E942214109205010895AA
:1028F00021E030E001C0220F8A95EAF7809182053D
:10290000822B0E94111408959091870592FF10C0A8
:1029100098E0899F900111242360209385050E94EF
:1029200078140E947A11909384058093830508950A
:102930000E94781408950E94170B8093070183303A
:10294000A1F0843041F0823099F40E94841481E037
:102950000E942F14089580918205882331F082FF10
:1029600004C082E00E942214089582E00E9478143C
:102970000895809364030E94F51308951092420510
:1029800080914301EAECF2E0882361F080918605B2
:1029900087FF08C08EE1DF011D928A95E9F70E944A
:1029A000F513089586E0F7CFAAE2B0E0EAEDF4E18E
:1029B0000C94B22B87E795E02091F100DC012D9378
:1029C000CD01B5E08F379B07B9F78091780583304B
:1029D00009F472C0B8F4813009F449C0823009F4B6
:1029E000B3C08091E80083FF8BC2809177059091FE
:1029F00078059A3008F084C2E92FF0E0E259F34DEF
:102A00000C94EE2B8A3009F48EC08B3009F471C01F
:102A1000893039F780917705813219F780917B05EC
:102A200090917C05009711F00297D9F68091E8000B
:102A3000877F8093E8008091E80082FF38C0909102
:102A4000F3008091F200029731F48091F10081301F
:102A500011F0863021F48091F1008093520580912D
:102A6000E8008B778093E8000E944904BACF8091F8
:102A70007705813A09F0B5CF8091E800877F809390
:102A8000E80080917B0590917C05892B61F460E2E0
:102A900083E595E070E00E94F5048091E8008B7773
:102AA0008093E8009ECF60E090E080E0F3CF8091DB
:102AB00075058111C0CF95CF80917705813A09F0D6
:102AC00090CF80917B0590917C05892B09F089CF6F
:102AD0008091E800877F8093E8008091E80080FF84
:102AE000FCCF809143018093F1008091E8008E77C4
:102AF000B9CF80917705813209F073CF80917B0542
:102B000090917C05892B09F06CCF8091E800877F3C
:102B10008093E8000E9449048091790580934301E5
:102B20000E94BE145ECF80917705813209F059CFA3
:102B30008091E800877F8093E8000E94490480919B
:102B40007A05809351054DCF80917705813A09F040
:102B500048CF8091E800877F8093E8008091E8006B
:102B600080FFFCCF80915105BECF803899F082382C
:102B700009F0C6C180917B058F70873008F0C0C115
:102B80008093E9008091EB0085FB882780F9109203
:102B9000E90006C0809173059091740591118260DF
:102BA0009091E800977F9093E8008093F100109255
:102BB000F1008091E8008E779FC1882309F48DC1D0
:102BC000823009F09DC180917905811190C1809179
:102BD0007B058F702FEF280F263008F091C180936E
:102BE000E9002091EB0020FF82C1933031F4809105
:102BF000EB0080628093EB007AC19091EB009061D2
:102C00009093EB0021E030E001C0220F8A95EAF7B3
:102C10002093EA001092EA008091EB008860EACFEE
:102C200081116EC1109179051F778091E300807842
:102C3000812B8093E3008091E800877F8093E800F8
:102C40000E9449048091E80080FFFCCF8091E3005E
:102C500080688093E30082E0111183E08093750522
:102C60004FC18058823008F04BC1209179053091D6
:102C70007A052C3DE3E03E07A1F583E08A838AE2F2
:102C800089834FB7F894DE01139620E03EE051E2CD
:102C9000E32FF0E050935700E49120FF03C0E2954A
:102CA000EF703F5FEF708E2F90E0EA30C0F0C79674
:102CB0008D939D932F5F243159F74FBF8091E8008A
:102CC000877F8093E8006AE270E0CE0101960E945F
:102CD000F5048091E8008B778093E80011C1C096DD
:102CE000E7CF80917B0590917C05432F552743309A
:102CF000510509F44AC078F54130510509F47AC00C
:102D00008BE590E0E8EDF6E04230510509F0F8C0BF
:102D10002091E800277F2093E80020917D053091E5
:102D20007E058217930708F49C0140E021153105C8
:102D300009F065C0411163C08091E80082FDC9CFF0
:102D400080917505882329F2853019F28091E80079
:102D500083FFF2CFBECF4132510509F43CC042326D
:102D6000510509F0CDC08330910508F0C9C0FC01C0
:102D7000EE0FFF1FE654FD4F0190F081E02D8954C6
:102D80009D4FDC018C9190E01AC033272130310532
:102D9000D1F02115310561F02230310509F0B0C0C4
:102DA000E5E4F7E0E4918E2F90E0E5E4F7E007C07A
:102DB000E9E7F7E0E4918E2F90E0E9E7F7E000978C
:102DC00009F49EC0A5CFE7E6F7E0E4918E2F90E0EE
:102DD000E7E6F7E0F4CF8330910508F091C0880F63
:102DE000991FFC01E054FD4F0190F081E02D89E036
:102DF00090E08ECF82E190E0E3E3F7E089CF80912D
:102E00007505882309F465CF853009F462CF809178
:102E1000E80083FD5ECF8091E80082FD8DCF809138
:102E2000E80080FF83CF9091F3008091F20021159C
:102E3000310519F08830910550F041E0089709F00C
:102E400040E08091E8008E778093E8006FCF449156
:102E50004093F1003196215031090196E8CF803836
:102E600009F04EC08091E800877F8093E800809150
:102E700076058093F1009DCE811142C010917905B5
:102E80001230F0F58091E800877F8093E80010937E
:102E900076050E944904112311F084E005C0809159
:102EA000E30087FDFACF81E08093750542E061EC95
:102EB00081E00E94680442E261EC84E00E946804C0
:102EC00042E261EC82E00E94680442E260EC83E04E
:102ED0000E9468048091750513C080917905813046
:102EE00079F481E0933009F080E0809374051092CA
:102EF000E9008091E800877F8093E8000E94490400
:102F00008091E80083FF0AC08091E800877F80936A
:102F1000E8008091EB0080628093EB00AA96E3E0EA
:102F20000C94CE2B1F920F920FB60F9211242F9359
:102F30003F934F935F936F937F938F939F93AF9341
:102F4000BF93CF93DF93EF93FF93D091E900DF70AE
:102F50008091EC00C82FC17080FDC0E81092E9009C
:102F60008091F000877F8093F00078940E94D414C1
:102F70001092E9008091F00088608093F000CD2BE2
:102F8000CF70C093E900FF91EF91DF91CF91BF9196
:102F9000AF919F918F917F916F915F914F913F91F1
:102FA0002F910F900FBE0F901F9018950E94BE1486
:102FB0002FEF84E39CE0215080409040E1F700C077
:102FC000000088E19CE00FB6F894A895809360001B
:102FD0000FBE90936000FFCF882339F09091410598
:102FE000982B909341050E9437130895882321F070
:102FF0000E942E0A0E9437130895882339F0909179
:103000004205982B909342050E9437130895882318
:1030100071F19CEF980F913A28F40E94350A0E94B2
:103020003713089590E2980F983050F4877091E02C
:1030300001C0990F8A95EAF7892F0E942E0AEFCFD7
:103040009BE5980F933028F490E080E00E94BC0547
:10305000089598E5980F993128F490E080E00E9457
:1030600097050895803F18F060E00E94AD11089523
:10307000FF920F931F93CF93DF93F82E00913F059C
:10308000109140050115110509F449C010923E0543
:1030900010923D0510923A0510923B05D801169604
:1030A000CD91DC919E013A9521153F4108F4D07EE7
:1030B000D1E0C11101C0D0E0D8011996ED91FC9189
:1030C0001A97309731F01B966D917C9180E00995AD
:1030D000D823DD2339F08CEF8C0F813A30F58C2F1B
:1030E0000E94350AFF2099F0E0913F05F0914005DC
:1030F000808584FD0CC080913C05882341F080814F
:1031000091819C0121503109243B3D45A0F00E9452
:1031100037131092400510923F0510923C05C801EC
:10312000CDB7DEB7E5E00C94CC2B0E9437138C2F83
:103130000E940718D7CF0E94EE05E9CF80910901C0
:10314000833019F485EE0E9407180895CF93C82F95
:103150008823C1F18CEF8C0F813AB0F58091430147
:10316000882301F18091860587FF1CC0EC2FE6952E
:10317000E695E695F0E0E853FD4F828190E04C2F14
:10318000477021E030E002C0220F331F4A95E2F77A
:1031900082239323892B79F08C2F0E94350A0E9479
:1031A000371309C0EAECF2E08191C817A9F382E075
:1031B000E03DF807C9F76C2F88EC92E00E946205A9
:1031C0000E943713CF91089580E28C0F883068F405
:1031D000C77021E030E001C0220FCA95EAF7809164
:1031E0004205822B80934205EBCFEBE5EC0FE330F9
:1031F00040F4F0E0EA5AFE4F808190E00E94BC0566
:10320000E1CFE8E5EC0FE93150F4F0E0EE0FFF1FFD
:10321000E75AFE4F808191810E949705D3CFC03F2E
:1032200088F261E08C2F0E94AD11CCCF1F93CF9319
:10323000DF93182FD0E0C0E0893311F4C0E5D0E06F
:10324000812F0E94A618209739F4812F0E94071819
:10325000DF91CF911F9108958FE99FE00197F1F7DA
:1032600000C000002197EFCF0F931F93CF93DF9300
:10327000C62FD42F022FFC0182818823A9F06093EE
:1032800081050E947A119093800580937F05C77015
:1032900081E001C0880FCA95EAF70E94FD17DF910F
:1032A000CF911F910F91089580918105681332C0CD
:1032B00080917F05909180050E946B11883C91055B
:1032C00048F510E21D0FCD17B9F080E28C0F883061
:1032D00040F4C77081E001C0880FCA95EAF70E94E8
:1032E000F617183048F481E09D2F977001C0880FC1
:1032F0009A95EAF70E94FD17802F0E941619183040
:1033000070F6D77081E001C0880FDA95EAF70E9465
:10331000F617C5CFC77081E001C0880FCA95EAF7DC
:10332000F6CF0E94170B80930501833091F0843013
:1033300031F0823089F489E30E9416190895809152
:103340008205882331F081FF04C081E00E942214AD
:10335000089581E00E94781408950E94170B8093CD
:103360000901833059F0843069F08230C1F483E080
:103370000E94841481E00E942F14089585EE0E941B
:10338000A618089580918205882331F083FF04C038
:1033900083E00E942214089583E00E947814089527
:1033A000A7E0B0E0E6EDF9E10C94A32B8C01DC0181
:1033B00013968D919C911497892B49F04C911196FD
:1033C0005C911197842F85238F3F09F015C72796AD
:1033D000E2E10C94BF2B811424E0920609F483C728
:1033E000C4010E942A2C811101C0EA943FEF831A84
:1033F000930A56C74701DE0111967D01F70120812E
:10340000222309F455C7213009F048C091818281F7
:10341000913031F4F2E0EF0EF11C0E94161907C052
:10342000923049F422E0E20EF11C0E94A618EFEF60
:10343000EE1AFE0AE3CF933031F432E0E30EF11CD2
:103440000E940718F4CF943021F08FEFE81AF80AA1
:10345000EECF92E0E90EF11C30E020E0B7016F5FA3
:103460007F4FD70111964C918053990B8A3091056B
:1034700050F021503109D8F2EFE9FFE03197F1F730
:1034800000C00000F6CF329EF001339EF00D1124F3
:103490009C012E0F3F1F842F7B01E0CFE22FF0E035
:1034A000EC50FE4F5490822F86958695869590E03D
:1034B000FC01EC51FE4F64902770712C022E02C06B
:1034C000759467940A94E2F731E063227724FC0153
:1034D000EC52FE4FA490B12C022E02C0B594A794DA
:1034E0000A94E2F7A1E0AA22BB24FC01EC53FE4FB0
:1034F000C490D12C02C0D594C7942A95E2F7B1E0CC
:10350000CB22DD246114710419F081EE0E94A6180B
:10351000A114B10419F086EE0E94A618852D0E9410
:103520001619A114B10419F086EE0E94071861144F
:10353000710419F081EE0E940718C114D10409F436
:1035400076CF8CE26ACF81E00E9478140E94161434
:10355000CAC681E00E942214F9CF82E0F5CF82E052
:10356000F9CF81E080930A01BEC680954822CEC57E
:10357000552009F4F1C4F092E902E092E8020E94B9
:103580005605609336057093370580933805909300
:10359000390510923E0510923D05B8C582FB88277B
:1035A00080F9F7C5552001F18170F3C50E94071815
:1035B00074C70497813A910558F46A2D88EC92E01B
:1035C0000E946205552009F47AC40E9437138BC605
:1035D0000E9437138FE39CE90197F1F700C00000C8
:1035E0008A2D0E94A618EECF9D819F5F9D83A6C560
:1035F000FC0120813181E216F30609F059C4511013
:1036000059C410923C0580E00E94381858C49E2D81
:103610008F2D9DC4F901858181FFC9C4C9010E9414
:10362000AB13C5C427E245EE65EE8BC626E241EE3C
:1036300060EE87C627E245EE64EE83C626E241EEE1
:1036400062EE7FC628E241E0EFCF80EBE8168DE521
:10365000F80670F59DEAE9169DE5F90608F0C7C47D
:10366000A5EAEA16ADE5FA0609F4C1C436E1E316A7
:103670003CE5F30609F0DEC180914205982F947471
:1036800009F060C1982F9A7A817109F090E02223A5
:1036900009F45AC181E0911101C080E08093EA02EF
:1036A00069E2911165E388EC92E00E9462058DCF9A
:1036B000B4EBEB16BDE5FB06C9F699C4F7E0EF16CF
:1036C000FCE5FF0609F4D9C008F4D3C038E0E316DE
:1036D0003CE5F30609F4D5C089E0E8168CE5F80668
:1036E00009F0B6C40E94BE14809186058068B2C0FD
:1036F0009EE0E9169CE5F90609F4D3C0B0F4809188
:1037000086058D7FBCE0EB16BCE5FB0609F4A2C084
:10371000809186058E7FEDE0EE16ECE5FE0608F45E
:1037200099C0809186058B7F95C0F0E1EF16FCE58E
:10373000FF0609F4C6C008F4C0C031E1E3163CE559
:10374000F30609F4C2C082E1E8168CE5F80609F038
:103750007FC40E94BE14809186058F777BC0E114E0
:103760009DE5F90609F4C5C090F5BBEFEB16BCE585
:10377000FB0609F47AC0A0F4F5E1EF16FCE5FF06BC
:1037800009F4ABC008F4BFC08091870581603AEFAF
:10379000E3163CE5F30609F05BC48093870558C443
:1037A0008DEFE8168CE5F80609F483C008F47DC0B7
:1037B000AEEFEA16ACE5FA0609F46BC08091870516
:1037C0008C7FBFEFEB16BCE5FB0639F341C4E5EA9D
:1037D000EE16EDE5FE0609F4A7C0A8F422E0E21615
:1037E0002DE5F20609F49EC008F496C081E6E816BD
:1037F0008DE5F80609F02CC490918605892F8F7EFF
:1038000094FF806127C09EEAE9169DE5F90609F458
:1038100044C050F4809187058860BDEAEB16BDE591
:10382000FB0609F4BACF14C4EFEAEE16EDE5FE0686
:1038300009F481C0F4EBEF16FDE5FF0609F008C4BA
:1038400090918605892F8F7B96FF806403C08091BD
:103850008605826080938605FBC38091860584601F
:10386000F9CF809186058860F5CF809187058260C9
:1038700094CF809186058061EDCF8091860580622E
:10388000E9CF809186058064E5CF809186058C60C4
:10389000E1CF80918705836080CF80918705877F06
:1038A0007CCF80918605877FD5CF809187058E7FDD
:1038B00074CF809187058D7F70CF809186058F7E34
:1038C000C9CF809186058F7DC5CF809186058F7B7E
:1038D000C1CF80918605837FBDCF8091860582FB15
:1038E000992790F921E0922790FB82F990FB83F9C8
:1038F000B1CF80918705982F909591708E7F892BFD
:1039000090FB81F94ACF0E94BE1490918605892FC1
:1039100097FB87F980589ECF61E08EE090E00E948F
:10392000482C96C360E0F9CF90918605892F8E7F51
:1039300090FF81608FCF90918705892F877F93FFBC
:1039400088602BCF90E0A0CE8091EA02811104C064
:1039500089E20E94350A39CE85E3FBCF4DEA56E075
:103960006BEB76E097ECE9169CE5F90609F44BC0A1
:1039700044ED56E069EC76E0A8ECEA16ACE5FA0610
:1039800008F441C04BEB56E06DEA76E03CC0BDEC7C
:10399000EB16BCE5FB0609F448C0B8F445E656E072
:1039A00063E776E0FBECEF16FCE5FF0661F14FE91B
:1039B00056E061E976E02CECE2162CE5F20618F10F
:1039C00043E756E065E676E01EC036EDE3163CE5DB
:1039D000F30608F488C48DE5E816F80609F483C4F4
:1039E000ECC48091CC0391E089278093CC031092A2
:1039F00042018091CB0381608093CB0374C44EEE6F
:103A000056E069EF76E00E945F066DC449EF56E02C
:103A10006EEE76E0F8CF49EC56E064ED76E0F3CF59
:103A200041E956E06FE976E0EECF61E081E00E9487
:103A3000DF0659C49AE5E9169DE5F906B9F188F45F
:103A4000E114BCE5FB06D9F0EEEDEE16ECE5FE0662
:103A500009F0B3C46FEF7FEF90E080E00E94662C26
:103A60000CC0FCE5EF16FDE5FF06B1F008F137EA02
:103A7000E3163DE5F30609F0A0C40E94D6170E94A4
:103A8000BE148FEF94E3ACE081509040A040E1F78A
:103A900000C000000E94950B8091870582FB88275B
:103AA00080F991E089270E944F1487C481E0FBCF01
:103AB00080E0F9CFC7010E946A0AD82E8FC42F2D4B
:103AC0002F70C22E8F2D807F19F0C29490EFC922E3
:103AD000DD20B9F0CC2069F080E28E0D883010F046
:103AE000811009C080914205C82AC09242050E94F7
:103AF00037138E2D4FC080914105C82AC0924105D1
:103B0000F6CF8E2D0E940718CC2009F445C080E224
:103B10008E0D883010F0811004C08C2D0E942E0A6A
:103B200006C0C09480914105C822C09241050E9400
:103B3000371332C03F2D3F70C32E8F2D807F8032D0
:103B400019F0C29480EFC8228820A1F081E0881685
:103B500009F480C0DD2009F489C0BB2009F453C0FA
:103B6000D80115968C91159780FFC3CF8F7015964D
:103B70008C9349C09091870592FD3EC0DD20B1F144
:103B8000CC2039F080914205C82AC09242050E949B
:103B9000371380E00E94A618292D2850330B2430BB
:103BA000310510F40E94E105AA20B1F0809185054D
:103BB00080FD12C0D80112961C9285958595859539
:103BC0000E947814C8010E94D019809185058595BE
:103BD000859585950E94221420E0F801408151814D
:103BE0006281738184810E94F30CF1CB80E00E949A
:103BF0000718CC2089F291CFDD20D1F080916303AA
:103C0000C82AB11004C08C2D0E94FD17C5CFA1E0B9
:103C1000BA12F9CF92FFC0CF8C1509F4BDCF0E9424
:103C20007A119093620380936103C0926303B4CFCF
:103C3000B11006C00E94230A8C2D0E94F617ACCF4B
:103C4000B1E0BB1609F4A8CF8C2D0E94F6170E9494
:103C5000230AA2CFDD2029F0E2E0EB1508F49CCF87
:103C6000D2CFF1E0FB1508F497CFE6CFBB2021F3CC
:103C7000B9E38B1209C0EFEFF7EE23E0E150F0401B
:103C80002040E1F700C000008E2D0E94071884CF6D
:103C90008F2D86958695837061F0813009F07CCFF9
:103CA000C7019370D11002C080E090E00E94970598
:103CB00073CFC7019370D11002C080E090E00E94E2
:103CC000BC056ACF6D2D8E2D0E94AD1165CF8F2D55
:103CD000837091F5D11060CF4E2D42954695477077
:103CE000440F440F8E2D8F70042E01C0880F0A944C
:103CF000EAF72E2D2071E4FE07C02FE030E001C06E
:103D0000220F4A95EAF720953F2D36953695337068
:103D1000323069F050F440916403313029F0822B45
:103D200084230E94B91438CF842B822BFACF282BFE
:103D3000809164038227F5CF8695DD2011F08F2DC9
:103D40008170882309F428CF4E2D429546954770FF
:103D5000440F440F8E2D8F70042E01C0880F0A94DB
:103D6000EAF72E2D2071E4FE07C02FE030E001C0FD
:103D7000220F4A95EAF720953F2D369536953370F8
:103D8000323069F050F440918205313029F0822BB5
:103D900084230E94111400CF842B822BFACF282B6E
:103DA000809182058227F5CF3F2D3F70F32EDD20D5
:103DB00029F0832F0E9478148E2D26CF8E2D0E94FD
:103DC000F6178F2D0E942214E7CE8E2D92EF8916C2
:103DD000B1F1981570F0A0EF8A16D1F0B1EF8B1603
:103DE00091F0DD2009F454C0B11083CE8F2D8F7176
:103DF0002AC0E3EF8E1651F1F4EF8F12F2CF8091CB
:103E0000870582FD2FC08F2D8F71DD20D9F21BC059
:103E1000DD2081F021E02B1508F4BECE2F2D2F716F
:103E200081E090E001C0880F2A95EAF79091820521
:103E30008927AFCF32E03B1508F4AECEEFCF8F2D00
:103E40008F71D110BFCF0E947814A6CE80E0DD2004
:103E500009F49FCF9F2D9F7181E001C0880F9A9533
:103E6000EAF797CFDD2049F08F2D8F71F82E0E9451
:103E700078148F2D0E9484148FCE81E00E942F141D
:103E800091E09B1508F088CE82E00E942F1484CE2A
:103E9000BB2059F0893309F0F7CEAFEFB7EEE3E07E
:103EA000A150B040E040E1F7EDCE8F2D8F718ACF69
:103EB000552029F0DC0118968C9185FFA4CBC70111
:103EC00097558F3F910511F008F01FC25701BB2491
:103ED000BEE0EB9EF00111249F012D5E3E4F690173
:103EE000D80112968C91E85EFE4F908180FB90F98C
:103EF0009083882309F48ECB0E947A1190938003DB
:103F000080937F03F60182818F5F828380914105D8
:103F100090914205892B838380916303848306807B
:103F2000F781E02D309731F0D6011C966D917C9190
:103F3000C60109958EE08A9DF0018B9DF00D11243C
:103F4000ED5EFE4F858181FF62CB90E080E0909333
:103F50004305809344052BC08091E8029091E902CB
:103F6000E816F90681F41092E9021092E802109224
:103F700036051092370510923805109239051092C7
:103F80003E0510923D0580913F05909140050097B8
:103F900009F495CFA8E08A16910408F029CB642D86
:103FA0000E943F06811103C081E00E943818D801A9
:103FB00012962C91222309F4D9C110928105B1E601
:103FC000EB16BDE5FB0699F008F03FCBF2E0EF16EB
:103FD000FCE5FF0608F44ACB36E1E3163CE5F306C0
:103FE00030F0C7018A5F9C45099708F03FCB84E019
:103FF00090E00E94322C9093870580938605E3E140
:10400000EE16ECE5FE0609F464CC08F0A8CB2AE035
:10401000E2162CE5F20609F438CC08F069CB85E00D
:10402000E8168CE5F80609F41CCC08F047CBA3E0B1
:10403000EA16ACE5FA0609F40ACC08F00ECC809139
:1040400086058160E2E0EE16ECE5FE0609F402CC9E
:10405000609186057091870584E090E00E94662C4F
:104060000E94BE1440C1B0E1EB16BFE5FB0609F4A7
:104070006ACAE1E1EE16EFE5FE0609F46ECAFFE555
:10408000EF16FDE5FF0609F46CCA20E6E2162DE501
:10409000F20651F03EE5E3163DE5F306B9F48091F2
:1040A0000A01882309F45DCA10920A0180E00E9487
:1040B000381819C1F0E1EF16FFE5FF0609F449CA07
:1040C00021E1E2162FE5F20609F449CA80910A01BE
:1040D000882309F4F4CE470180EE881A91084090B5
:1040E000630380914205482A98E08916910408F0FC
:1040F0003FCA97012770332781E090E001C0880F05
:104100002A95EAF7552009F430CA482AD8018D913A
:104110009C910E946A0A21E030E0390102C0660CDD
:10412000771C8A95E2F7E0913F05F0914005FF8307
:10413000EE832090E8023090E9021D822D81E22F6B
:10414000F0E0EE0FFF1FE050FF4FC080D180C114A0
:10415000D10409F418CF411005C0D60112968C91F4
:10416000811142CAF601838190E086219721892B33
:1041700009F43ACA8085982F977009F487E0F8E02F
:104180008F16910408F00ECA552009F407CA8695C7
:104190008170882309F428CAD601AD90BC90EA1436
:1041A000FB0419F4552009F41FCAEE81FF81CE16D5
:1041B000DF0609F419CAD6011D96ED91FC913097DE
:1041C00021F08081882309F40FCA642DC6010E9462
:1041D0003F06882309F408CAEA14FB0409F037C132
:1041E000E114F10409F438C1511038C1A214B30428
:1041F00009F0FAC9512C32C121E012966C91129744
:1042000013967C91139714968C910E94F30C7C0169
:10421000F8018281882369F18091430590914405DA
:10422000009739F18E159F0521F1BEE08B9FC001EB
:104230001124FC01E85EFE4F2081246020838D5E06
:104240009E4FFC01F182E0820E94CA131092410548
:1042500021E0D8014C9111965C91119712966C91C6
:10426000129713967C91139714968C910E94F30CDD
:104270007C01F8015280552009F41CCFC7018251FE
:104280009F45409708F0EFCE8FEF93E00E942A2CD5
:10429000811129C0FEEEEF0E6EE7862E62E0962EAB
:1042A000E11099C81C821B82442443945AE0352EA5
:1042B00074018FEFE81AF80AC4010E942A2C89833E
:1042C0001A82882381F09FEF980F933008F092C8EC
:1042D0008A83498292E0890E911CC7010E942A2C90
:1042E0008B83811188C880918505877009F46FC818
:1042F000F8018281882309F46AC88091870582FFCA
:1043000066C882E00E942F1462C8F3EFEF16FCE546
:10431000FF0609F48BC9C8F438EDE3163CE5F30653
:1043200009F480C989EDE8168CE5F80609F48AC914
:1043300097EDE9169CE5F90609F039CE26E241EE43
:1043400061EEC8010E943419CECFA5EFEA16ACE5A4
:10435000FA0609F473C908F46DC927E245EE66EE62
:10436000E6EFEE16ECE5FE0661F321CEF6E1EF1680
:10437000FCE5FF0609F480C980914205827299EC40
:10438000E9169CE5F90609F44BCB08F000CBB5EC37
:10439000EB16BCE5FB0609F43ECB08F0DFCAF3ECF4
:1043A000EF16FCE5FF0609F42ACB08F02FCB32EC20
:1043B000E3163CE5F30609F414CBD80112968C9170
:1043C0001297ED90FC90882309F474CBC7010E94EA
:1043D0008D0CD82E682FC7010E949E0AB7018D2D23
:1043E0000E947F0C0E9496087C01882EF801D280E2
:1043F000B580B2943FE0B322809185058770C1F00B
:10440000AD2CDD20B1F08F2D807F803421F080E253
:104410008E0D883068F08091870582FF09C082E0A8
:104420000E942F14809185058770AA24A39481117E
:10443000A12C9F2C92942FE09222FBE0F91508F416
:10444000ABCBE92DF0E0E858F34D0C94EE2BA11422
:10445000B10409F0CBCE512CB12CA12C80E00E94EC
:104460003818D0924005C0923F0581E080933C050A
:10447000D60115968C9180933A0551100EC0AB2849
:1044800061F0F601808191819C0124503109213A2B
:10449000310508F08BC80E94350AD6011696AD90FA
:1044A000BC90C5019A9581159F4110F4E0EEBE22A3
:1044B00077247394C5010197843B9D4508F0712CC6
:1044C000D6011996ED91FC911A97309731F01B9611
:1044D0006D917C9181E009957822772079F0F60141
:1044E000868197810E94E60A80933B05C501F8E02A
:1044F0008F16910408F05DC80E94EE050E943713E4
:1045000061C81F93CF93DF9380910E03807F09F0E2
:1045100049C080910B03882309F444C08091400373
:10452000D0910F036091090370910A03A0910C03CD
:10453000B0910D03C62FC72316E0D81799F190E06C
:10454000109711F0CF3F19F401968770F6CF189F9E
:104550009001199F300D1124F901E05FFC4F41815A
:104560004713F2CF40814613EFCF42814111ECCF88
:10457000438154814A1B5B0B483C510528F78091CD
:104580000E038F70806180930E03F901EB5EFC4F88
:1045900080818F708061808389E093E00E94D019D0
:1045A0000E94600ADF91CF911F910895A1E1B0E0D0
:1045B000ECEDF2E20C94AB2B8C0185E0F801DE010E
:1045C0001D9601900D928A95E1F7F801E28089E04D
:1045D000A82E83E0B82E60910C0370910D03611535
:1045E000710509F426C19091090340910A03892FAE
:1045F00084238F3F09F41DC120813181C380D48081
:10460000F0900B03F601E61BF70BFF2009F4DCC06A
:1046100080910E03582F507FE83CF10508F09FC0B1
:1046200051116BC0FE2C431314C0921312C0E11041
:1046300010C08F70806180930E03C5010E94D01955
:1046400080910E03F80185838F2D6196EAE00C942A
:10465000C72BC114D10429F0822F83238F3F09F087
:1046600003C180E0F82FF170DF2E80FF3CC0809105
:10467000400340910F0356E0841315C02D873E87F9
:104680008D859E850E94BC0C292F22952F7022308B
:10469000F0F0243018F59F70F1F0F8019581907FCB
:1046A000D1F4D12C1EC090E0589FF001599FF00D1D
:1046B0001124E05FFC4F6181361306C06081261330
:1046C00003C06281E6120FC001968770D5CF9F703C
:1046D00011F0882331F3805E883018F3C8010E94FE
:1046E000D019FD2CB1CFEE2009F4AECF80910E038E
:1046F000816080930E03F12CA7CF431306C0921361
:1047000004C0F801EE2009F479C0C8010E94C90C68
:10471000882309F1EE20F9F080910E03803270F0C9
:104720002091090330910A0338872F831986DB868D
:10473000CA868C87CE0107960E94D01986E0F801C0
:10474000A9E0B3E001900D928A95E1F70E948122E1
:10475000FF24F39479CFC8010E94D019F9CF5111E9
:104760000AC089E093E00E94D01986E0F501119219
:104770008A95E9F7C0CF43130FC092130DC0E11023
:104780000BC0F8018583C8010E94D01986E0F501AD
:1047900011928A95E9F758CFC8010E94C90C882365
:1047A000D1F2EE20C1F280910E03803238F22091D6
:1047B000090330910A033A8329831B82DD82CC826C
:1047C0008E83CE010196B8CFE83CF105F8F6FE2CB9
:1047D000EE2009F243131FC092131DC080910E03F7
:1047E00080FD10C0982F907F69F0F8018583903F7D
:1047F00031F0982F907F905F8F70892B8583C8014F
:104800000E94D01986E0F801A9E0B3E001900D9272
:104810008A95E1F719CFC8010E94C90C81118ECF8A
:1048200080910E03816080930E03C8010E94D0190D
:104830000BCFEE2009F48FCFC8010E94C90CF82ECF
:10484000882309F488CF86E0F801A9E0B3E001905D
:104850000D928A95E1F78091090390910A030E94D5
:10486000BC0C0E948122F0CE81E08E25FBCEA7E118
:10487000B0E0EDE3F4E20C94B22B4B8B5C8B6D8BD0
:104880007E8B8F8B6111109241051A8A198A85E0FF
:10489000FE017396DE011D9601900D928A95E1F757
:1048A0008091870582FF1CC00E947A1120918305A8
:1048B00030918405821B930B8C3D954020F08091B4
:1048C000850582FF79C00E947A11209161033091A1
:1048D0006203821B930B8C3D954010F00E94230ACB
:1048E00086E0FE013D96DE01179601900D928A95B5
:1048F000E1F7CE0107960E94D622882359F016E0F0
:104900008091400390910F03891343C06796E3E0C1
:104910000C94CE2B86E0FE013796DE0111960190B5
:104920000D928A95E1F78A859B85892B41F38F81CA
:10493000988589238F3F19F320910F0330E0C90137
:10494000019687709927409140034817190671F422
:104950000E94BE1410920F031092400386E0E9E01B
:10496000F3E0DF011D928A95E9F7C9CF96E0929FA7
:10497000D001939FB00D1124A05FBC4FFE01319672
:1049800001900D929A95E1F780930F030E94600ABF
:10499000B6CF819FC0011124805F9C4F0E94D62218
:1049A000882309F4B3CF8091400390E0019687708B
:1049B000992780934003A4CF82E00E942F1483CFD5
:1049C0001F921FB61F9211248F939F93AF93BF9393
:1049D00080914B05811113C080914C0590914D053C
:1049E000A0914E05B0914F054196A11DB11D809338
:1049F0004C0590934D05A0934E05B0934F05BF9184
:104A0000AF919F918F911F901FBE1F901895CDB7AA
:104A1000DEB7E1970FB6F894DEBF0FBECDBF85B706
:104A2000806885BF85B7806885BF84B7877F84BF6E
:104A30000FB6F894A895809160008861809360001B
:104A4000109260000FBE80E890E00FB6F89480935B
:104A50006100909361000FBE8AE398E09093C702D3
:104A60008093C6020E94F9030E949A048091E2009A
:104A700084608093E2007894809175058823A1F08A
:104A80001091E9001F709091EC00892F817090FDCA
:104A900080E8182B1092E9008091E80083FD0E94C5
:104AA000D4141F701093E90082E084BD93E095BD9B
:104AB0009AEF97BD80936E000E94160D811102C07F
:104AC0000E94400C0BE811E090E9E92E91E0F92EEC
:104AD000D8018D918D018F3F11F00E943C08E016A6
:104AE000F106B1F700E911E0F80181918F018F3FE4
:104AF00011F00E943C08F1E00F391F07A9F78AE086
:104B0000E2E8F3E0DF01282F1D922A95E9F7E8E6B5
:104B1000F3E0DF011D928A95E9F721E040E060E0D3
:104B200090E080E00E9481060E940010811102C086
:104B30000E940C1082E090E00E942A2C8093740363
:104B400084E090E00E94322C909387058093860544
:104B50000E948512EFEBFDE53197F1F700C00000F0
:104B60000E9485128091820380FF08C06FEF7FEF63
:104B700090E080E00E94662C0E94950B83E090E01C
:104B80000E942A2C0E94B9140E94460E109299038A
:104B90008FEF9FEF9093B3038093B2039093B5038D
:104BA0008093B4039093B7038093B6039093B903B3
:104BB0008093B8039093BB038093BA039093BD0393
:104BC0008093BC039093BF038093BE039093C10373
:104BD0008093C0030E940010811104C00E940C1039
:104BE0000E94EC0F46E050E06CE170E08CEC93E04A
:104BF0000E941A2C1092CB038091CC038C7F11F46D
:104C00000E94EC0F0E94E10580FF03C083E50E9433
:104C100016198BE091E0909348058093470577241F
:104C2000739480917505853089F400E4F02E83E05B
:104C3000E82E00E112E180917505853009F4C7C0C6
:104C40000E94BE140E94E1051092CA030E948512C0
:104C500085E793E09CA78BA7A2E8B3E0BFA7AEA728
:104C6000FC01219131918D919D9143E0EF37F40743
:104C700009F4FFC028173907A1F313EA812E11E0C8
:104C8000912E612CAEA5BFA5ED90FD90BFA7AEA75C
:104C9000EBA5FCA581919191FCA7EBA78E159F0533
:104CA00009F48BC09C012E253F2539AB28AB14019C
:104CB000512CCC24C394D12C88A999A98C219D2155
:104CC000892B09F46CC087010C211D215EA26FA203
:104CD00081E00115110509F480E088A70E947A118E
:104CE0008160782F9AA789A74EA15FA168A58AA5A0
:104CF0000E943724012B29F0D1018C918F3F09F0BC
:104D000052C2412C042D10E080919903800F912F05
:104D1000911D09976CF1E8E0AE2EB12CA01AB10AF2
:104D2000B80166567C4FA5018AE993E00E94112CD8
:104D3000B8016E557C4FA50182EA93E00E94112CC8
:104D4000A501440F551FB801660F771F6E547C4FA5
:104D500082EB93E00E94112CB80166557C4FA501AF
:104D60008AEA93E00E94112C88E0841980939903C9
:104D70008091990390E0EDA5AE2FB0E09D01220F48
:104D8000331F22513E4FAA0FBB1FBD0161517E4F01
:104D900041E0480F941508F40AC280939903539494
:104DA000CC0CDD1CEFEF2E1A3E0AFFE05F1284CF21
:104DB000EBA5FCA53297F182E08263942FE0820E8E
:104DC000911C35E063125ECF0E94560574C080913D
:104DD0007505843009F439C00E94F30E8091CA032E
:104DE00081110DC00E94010710923E018091CC03F9
:104DF000837080933D010E94AB0DE0924201F1E08F
:104E0000F093CA0310924B0528E130E00FB6F894F6
:104E1000A895209360000FBEF092600083B7817F59
:104E2000846083BF83B7816083BF7894889583B79C
:104E30008E7F83BF0FB6F894A8958091600088613B
:104E400080936000109260000FBE809174058823EB
:104E500009F4F1CE0E948512E2E8F3E0819191918C
:104E6000892B09F072C34CE853E04E175F07B1F786
:104E7000E2CE2817390709F000CF0E947A118C0181
:104E8000809172039091730308171907A1F08FEFB7
:104E900089A38AA31BA20E947A118160782F9DA307
:104EA0008CA349A15AA16BA18DA10E943724109314
:104EB00073030093720380913D0590913E05892B09
:104EC00009F44EC04091320550913305609134058C
:104ED000709135052FB7F89480914C0590914D0550
:104EE000A0914E05B0914F052FBF841B950BA60BCB
:104EF000B70B40912E0550912F05609130057091B0
:104F0000310584179507A607B70750F100913D05B5
:104F100010913E05C8010E94E60A9801205E310901
:104F20002830310520F00115110509F056C10E9405
:104F3000FD17802F0E94A61810923E0510923D0585
:104F400010923205109233051092340510923505F7
:104F500010922E0510922F051092300510923105F7
:104F6000009143051091440501151105B9F0809198
:104F70007F03909180030E946B11893C910570F032
:104F80004EE0049FC0011124FC01E85EFE4F208129
:104F900022FD04C08D5E9E4F0E94CA130E94F30E34
:104FA00086E0E3E9F3E0DE01119601900D928A9527
:104FB000E1F71092950310929603109297031092C6
:104FC00098038B819C81892B09F44AC080919103BD
:104FD000909192030E946B119C0190918C039923F4
:104FE00009F4D7C225313105D8F19F3F19F09F5FF1
:104FF00090938C031B81112359F00E941A089FEF94
:1050000011160CF491E0899F802D11248093950353
:105010001C81112359F00E941A089FEF11160CF4FD
:1050200091E0899F802D1124809396033091950300
:105030003323B1F020919603222391F055EB3503F1
:10504000C0011124992309F4CBC09093950345EB3B
:10505000240390011124332309F4C5C0309396032F
:105060008D819E81892B09F44AC080918F03909194
:1050700090030E946B119C0190918D03992309F478
:1050800083C221353105D8F19F3F19F09F5F90937E
:105090008D031D81112359F00E94F8079FEF11160F
:1050A0000CF491E0899F802D1124809397031E8139
:1050B000112359F00E94F8079FEF11160CF491E0AC
:1050C000899F802D11248093980330919703332377
:1050D000B1F020919803222391F055EB3503C001E4
:1050E0001124992309F482C09093970345EB24037C
:1050F00090011124332309F47CC03093980346E0D7
:1051000050E0BE016F5F7F4F83E993E00E94042C63
:10511000892B61F48091950390919603892B90914E
:105120009703892B90919803892B11F00E94861187
:1051300086E0FE013196A3E9B3E001900D928A95D5
:10514000E1F70E94E10590918103891721F0809396
:1051500081030E94560580917505843009F061CD68
:1051600083E08093E9008091E80082FF5ACD80912E
:10517000E80090E085FF05C00E9418048823E1F153
:1051800091E08091E8008B778093E800992309F4FF
:1051900048CDE981E150E33108F0A4C0F0E0EC57DC
:1051A000F34D0C94EE2B8DA744244394ABCD90E0AB
:1051B000FC01E756FC4FD9015C915183DB015C9106
:1051C0005187BDA5B18B880F991FFC01E756FC4F95
:1051D000128E118E91E0842FDBCD0E94EC17A9CEA8
:1051E0007092950334CF709296033ACF70929703E2
:1051F0007DCF7092980383CF00E210E0CE0101963C
:105200007C018091E80085FD0AC08091E8008B77E1
:105210008093E8000E941804882399F3B1CF80910D
:10522000F100D7018D937D010150110951F7A8CFED
:105230001A828AE08B8311C08A81823009F49BC173
:105240008330A1F0813009F04DC00E9456050E94C4
:10525000F42B6B837C838D839E8340E250E0BE0100
:105260006F5F7F4F82E00E94280BDBCC809182032E
:10527000909183039827892798279C838B8380911B
:105280008403909185039827892798279E838D838F
:10529000809186039091870398278927982798877C
:1052A0008F83809188039091890398278927982775
:1052B0009A87898780918A0390918B039827892701
:1052C00098279C878B87C9CF8A81823059F46B815C
:1052D0007C818D819E810E94F42B85E290E00E946A
:1052E000482CBBCF8FEF8983B8CF4C816B818A81EB
:1052F0000E94500C9827892798279E838D83ADCFD5
:105300002D813E813227232732274C816B818A8170
:105310000E94C90BA2CF0E94EF0B9FCF8A818138D8
:10532000E9F088F4803809F098CF4B812FEF429F45
:10533000412D11248091CD0320E06091CE0390E0B7
:105340000E9481068ACF823819F1833809F085CF0F
:105350008B8120E04091CF036C81F1CF60E08B81A5
:105360000E94DF069B818091CC03911109C0982F88
:10537000937011F0109242018C7F8093CC036DCF1B
:10538000982F937011F4109242018C7F8160F5CFB9
:10539000EB818FE7E43020F4F0E0E156FE4F8081AE
:1053A0008093D0035ACF8A818138E1F078F4803835
:1053B00009F053CF8091CF03BFEF8B9FC001112421
:1053C0006FEF70E00E948F2B6B8347CF823879F0AC
:1053D000833809F042CF8091CD038B838091CE0337
:1053E0008C833BCF8091CC038695869523CF80918B
:1053F000D003873230F08F3530F08E3930F083E0D3
:1054000019CF80E017CF81E015CF82E013CF0E9443
:10541000E80E23CF80E18A8320CF7A8282E80ACF08
:105420000A811B81102701271027FE0131967F0179
:10543000CC809F012C0D311D6901C80182589D4F00
:10544000EC14FD0409F409CF023831E0130758F4D5
:105450000E942A2CD70114968C930F5F1F4FFFEFE9
:10546000EF1AFF0AEACFF7011482F7CF0A811B81F6
:105470001027012710279E012F5F3F4F6901EC8005
:10548000E00EF12EF11CC80182589D4F0E151F052C
:1054900009F4E3CE023831E0130728F4D60114965C
:1054A0006C910E94482CBFEFCB1ADB0A0F5F1F4F95
:1054B000EACF0E94B90BD1CE84E0ADCF0A811B8127
:1054C000102701271027FE0131967F01CC809F0114
:1054D0002C0D311D6901C8018696EC14FD0409F4F8
:1054E000BCCE083532E0130758F40E942A2CD701AD
:1054F00014968C930F5F1F4FFFEFEF1AFF0AEBCF4D
:10550000F7011482F7CF0A811B811027012710278A
:105510009E012F5F3F4F6901EC80E00EF12EF11CE0
:10552000C80186960E151F0509F497CE083532E09E
:10553000130728F4D60114966C910E94482CBFEFF3
:10554000CB1ADB0A0F5F1F4FEBCF09BD19BD09B4A2
:1055500000FEFDCF8091D8008F7D8093D800809190
:10556000E00082608093E0008091E00081FDFCCF4C
:105570000E94BE1460CB85E290E00E942A2C1B8220
:105580001C821D828E8369CE2B30310508F07ECDC2
:10559000B6CD2B30310508F02ACD62CD1092B9007E
:1055A0008CE08093B8000895B0E0A0E0EAEDFAE264
:1055B0000C94AA2BB82EEB010E947A116C01EE24F8
:1055C000E394F12CC431D10560F025E0E22EF12CFA
:1055D000CF3FDC0731F0CE0164E170E00E948F2BF9
:1055E0007B0184EAA82E94E8992E1092BC00A09228
:1055F000BC000E947A118C018091BC0087FF0DC015
:105600008091B900887F8830F9F08091B900887F57
:105610008031D1F00FEF1FEF08C0C8010E946B115D
:10562000E816F90648F70EEF1FEFCF3FDC07E9F267
:10563000C6010E946B11C817D907B8F6C801CDB7CB
:10564000DEB7EBE00C94C62BB092BB009092BC008E
:105650000E947A118C018091BC0087FF0AC0809162
:10566000B900887F883111F08034A1F610E000E0A5
:10567000E5CFC8010E946B11E816F90660F7D3CF99
:105680000F931F93CF93DF93EB018093BB0084E8CC
:105690008093BC000E947A118C018091BC0087FF2E
:1056A00011C02091B900287F81E090E0283211F4E8
:1056B00090E080E0919581959109DF91CF911F91C4
:1056C0000F910895CF3FDC0741F3C8010E946B1191
:1056D000C817D90710F78EEF9FEFEFCFB0E0A0E02B
:1056E000E4E7FBE20C94AD2B6B018A017901B9016F
:1056F0000E94D42AE6010C0D1D1DC017D10711F020
:1057000097FF08C024E92093BC00CDB7DEB7E8E0DE
:105710000C94C92BB70189910E94402BEECFAA1B94
:10572000BB1B51E107C0AA1FBB1FA617B70710F08C
:10573000A61BB70B881F991F5A95A9F780959095BE
:10574000BC01CD0108952F923F924F925F926F92CC
:105750007F928F929F92AF92BF92CF92DF92EF9201
:10576000FF920F931F93CF93DF93CDB7DEB7CA1B82
:10577000DB0B0FB6F894DEBF0FBECDBF09942A88AD
:10578000398848885F846E847D848C849B84AA8455
:10579000B984C884DF80EE80FD800C811B81AA81E2
:1057A000B981CE0FD11D0FB6F894DEBF0FBECDBFAD
:1057B000ED01089597FB072E16F4009407D077FDAE
:1057C00009D00E948F2B07FC05D03EF4909581955F
:1057D0009F4F0895709561957F4F0895EE0FFF1FBD
:1057E0000590F491E02D0994692796276927782779
:1057F000872778270895FB01DC0102C005900D92F0
:1058000041505040D8F70895FB01DC0104C08D9150
:105810000190801921F441505040C8F7881B990B22
:105820000895FB01DC0102C001900D9241505040EF
:10583000D8F70895DC01CB01FC01F999FECF06C031
:10584000F2BDE1BDF89A319600B40D92415050403E
:10585000B8F70895F999FECF92BD81BDF89A9927BE
:1058600080B50895A8E1B0E042E050E00C941C2C13
:10587000DC01A40FB51F4150504048F0CB01840F0C
:10588000951F2E910E94492C41505040D0F7089509
:10589000262FF999FECF92BD81BDF89A019700B4E9
:1058A000021639F01FBA20BD0FB6F894FA9AF99A89
:1058B0000FBE08950396272F0E94492C0E94482C62
:1058C000252F0E94492C242F0C94492C0196272F18
:1058D0000E94492C0C94482CF894FFCFB515DD1587
:1058E0008017DD1580171016311680172F173C17FB
:1058F0005F1D5F1D9A1D9A1D481E621ECC1DCC1D8A
:10590000671ED41EE51EE51E18291C296429752969
:1059100080298B298E29D329072A722972290A2ADC
:0E5920000D2A102A362A592A5C2A5E2A832A6A
:10592E0047010000010001000100015305710B6ADF
:10593E000B630B000000000000000091196E1400B4
:10594E00000000000000000000AD199E18000000CD
:10595E00000000000000009B1466140000FFFF0012
:10596E00FF00030100FFFF2A0022FF00224C000768
:10597E00000000000000818283E200E900EA00B529
:10598E0000B600B700CD008301CC008A01920194CD
:10599E00012102230224022502260227022A02B333
:1059AE0000B4006F0070009F01CB01F0F1F4C666E9
:1059BE00F7F6F56730313233349796949593920F0C
:1059CE003F7FBD000102030405060708090A0B0C00
:1059DE000D0E0F101112131415161718191A1B1C71
:1059EE001D1E1F20212223242526272829FF2A2B8E
:1059FE002C2D2E2F3031323334353637FF38393A9D
:105A0E003B3CFFFF3DFFFF3EFF3F40FF414200009A
:105A1E000F001E002D003C004B005A00690078005C
:105A2E0087009600A500B400CB00E000041017100C
:105A3E0026103510441053106210711080108F1004
:105A4E009E10AD10BC10CE10E01006201A2029209A
:105A5E003820472056206520742083209220A120D4
:105A6E00B020C920E02009302230313040304F3094
:105A7E005E306D307C308B309A30A930BD30D230F4
:105A8E00E03002401540274060409840AB40C34094
:105A9E00D240E04001040404040404040404040499
:105AAE0004040101040404040404040404040404AE
:105ABE0004010104040404040404040404040401A1
:105ACE000104040404040404040404040401010194
