:100000000C94B0020C94E8020C94E8020C94E80200
:100010000C94E8020C94E8020C94E8020C94E802B8
:100020000C94E8020C94E8020C942D240C94012505
:100030000C941E1F0C94E8020C94E8020C94E80245
:100040000C94E8020C94E8020C94E8020C94E80288
:100050000C94E8020C94C11F0C94E8020C94E80282
:100060000C94E8020C94E8020C94E8020C94E80268
:100070000C94E8020C94E8020C94E8020C94E80258
:100080000C94E8020C94E8020C94E8020C94E80248
:100090000C94E8020C94E8020C94E8020C94E80238
:1000A0000C94E8020C94E8020C94E802009B8B7B11
:1000B00000AB8A7A00AA9A7900A9998900A8988841
:1000C00000A7978700A6968600A5958500A494842E
:1000D000003C4C5C002C4D5D002D3D5E002E3E4EE4
:1000E0000030405000314151002A3A4A0029394934
:1000F0000028384800273747002636460025355661
:10010000002445550034445400AC9C8C00AD9D8DBA
:1001100000AE9E8E00AF9F8F00B0A09000B1A19165
:1001200000324252002B3B4B01A9998901A89888C3
:1001300001A7978701A6968601A5958501A49484B9
:10014000013C4C5C012C4D5D012D3D5E012E3E4E6F
:10015000012F3F4F013040500033435301AB8A7AA7
:1001600001283848012737470126364601253556EC
:100170000124455501AC9C8C01AD9D8D01AE9E8E38
:1001800001AF9F8F0131415101324252013343533C
:1001900000B2A281019B8B7B012B3B4B012A3A4A87
:1001A0000134445401B1A19101B2A28101A393830E
:1001B00000A3938300B39282167C1E001F002000D0
:1001C00021002200230024002500260027002D0006
:1001D0002E002A004A002B0014001A000800150007
:1001E00017001C0018000C00120013002F00300034
:1001F00031004B00392104001600070009000A00F5
:100200000B000D000E000F0033003400000028002A
:100210004E00E1001D001B00060019000500110042
:100220001000360037003800E500000052004D0095
:10023000E000E300E200000000002C0000000000ED
:10024000E600000021525000000051004F00167CD3
:100250003A003B003C003D003E003F0040004100B2
:1002600042004300440045004C004A000100207851
:100270002178237824782578267827782878010033
:10028000460047004800007C4B00392129782A7835
:100290000100010001000100010001000100010056
:1002A00001000000037C4E00E1000100010001009C
:1002B0000100010001000100010001000100010036
:1002C0000000A900A80001000100010000000000DA
:1002D000010000000000010000000100AC0000006F
:1002E000AA00AB00000101010101010101010202AC
:1002F00002020202020202030303030303030304D4
:10030000040404040404050505050506060606069E
:10031000070707070708080808090909090A0A0A58
:100320000B0B0B0C0C0C0D0D0D0E0E0E0F0F0F10FA
:100330001011111112121313141415151616171784
:10034000181819191A1A1B1B1C1D1D1E1E1F2020F0
:10035000212222232424252626272829292A2B2C3A
:100360002D2D2E2F30313232333435363738393A5D
:100370003B3C3D3E3F404142434445464748494A55
:100380004C4D4E4F50515354555658595A5B5D5E23
:100390005F616264656668696B6C6D6F70727375BE
:1003A00077787A7B7D7E8082838587888A8C8E8F22
:1003B00091939596989A9C9EA0A2A3A5A7A9ABAD50
:1003C000AFB1B3B5B7BABCBEC0C2C4C6C9CBCDCF3E
:1003D000D1D4D6D8DBDDDFE2E4E7E9EBEEF0F3F5EC
:1003E000F8FAFDFF20036B0062006400360037005E
:1003F0006D006B00690069007200670062002000F8
:1004000076003200000010034B00420044006600FA
:1004100061006E00730000000403090409023B0040
:10042000020100A0FA0904000001030101000921F2
:1004300011010001224000070581030800010904A1
:100440000100010300000009211101000122B60092
:10045000070582032000011201000200000008428B
:100460004B251202000102000105010902A10185CC
:10047000020901A1000509190129081500250195A6
:1004800008750181020501093009311581257F9523
:10049000027508810609381581257F950175088147
:1004A00006050C0A38021581257F9501750881061D
:1004B000C0C005010980A101850319012AB70015F3
:1004C0000126B700950175108100C0050C0901A136
:1004D00001850419012AA002150126A002950175C3
:1004E000108100C005010906A1018506050719E074
:1004F00029E71500250195087501810205071900F6
:1005000029EF1500250195F07501810205081901F3
:100510002905950575019102950175039101C005A5
:10052000010906A101050719E029E7150025019534
:1005300008750181029501750881010507190029D7
:10054000FF150026FF0095067508810005081901B2
:100550002905950575019102950175039101C0006A
:1005600011241FBECFEFDAE0DEBFCDBF04B603FE1D
:1005700018C080919E0590919F05A091A005B09113
:10058000A1058730904BA740B04B59F410929E05BF
:1005900010929F051092A0051092A105E0E0F8E3EB
:1005A000099512E0A0E0B1E0E8EAFFE402C005909E
:1005B0000D92A63BB107D9F725E0A6EBB2E001C04A
:1005C0001D92AE39B207E1F70E9404120C947E2707
:1005D0000C940000CF930E949F16C82F882359F0D7
:1005E0000E94971D81FF07C02FEF4FEF6FEF8EE145
:1005F00090E00E947B158C2FCF9108958230B8F443
:100600006530A8F44F3098F450E09FE0699F400DAA
:10061000511D1124FA019BE4899FE00DF11D112465
:10062000EE0FFF1FE854FE4F85919491089581E0ED
:1006300090E008950E94FE02089581E0089581E00F
:1006400008950E941F03089508950E9424030895A9
:10065000A5E0B0E0EEE2F3E00C94E52649835A838E
:100660003091BD0289819A81311119C0662399F0B8
:10067000222389F00E94DD08182F682F89819A8132
:100680000E94B90869817A81812F0E94780F25968E
:10069000E3E00C9401270E94CB08182FF3CF0E94AF
:1006A000DD0869817A81F1CFFC01262F40815181DB
:1006B0006281738184810E942803089581E00895F6
:1006C000CF93DF93EC0160E00E945403BE010E94CF
:1006D0002503DF91CF9108950E94A91008950E94EB
:1006E000AD10089508950E9488070E9472032FEFAD
:1006F00084E39CE0215080409040E1F700C000007E
:1007000008950E9473030E94E51F08950E947303D9
:100710000E94092008950F931F93CF93DF938C01BC
:1007200061E00E945403EC01B8010E942103811191
:1007300006C080E0DF91CF911F910F910895B8011D
:10074000CE010E947B1C8823A1F3B801CE010E9438
:10075000111B882371F3B801CE010E94ED1B882381
:1007600041F3B801CE010E94BA1A882311F3F801AF
:100770008281882361F0C330FCE7DF07E9F058F499
:10078000C115ECE7DE07A9F0C130DC47B9F0C801BC
:100790000E941D03CFCFCB358CE7D807A9F0CC350D
:1007A000ECE7DE0771F0CA35DC4789F70E940E0DD1
:1007B000EECF0E948103BDCF0E94160D0E948603DA
:1007C000B8CF0E94040DE3CF0E94120DE0CF0E942B
:1007D000FA1E0E94B3160E94160481E00E94D217EE
:1007E00008950E941A0480E00E94D2170E94FF1E02
:1007F0000895089581E008950895CF93DF93D82F49
:100800000E94FA03C82F882319F08D2F0E94FC0341
:100810008C2FDF91CF9108950895CF93C82F0E9418
:10082000F9038C2F0E94FD03CF91089580E00E9470
:100830000D0408950E948A1D0E940D040895CF930F
:100840000E948A1DC82F8091B8028C1779F0C0933E
:10085000B8020E948A1F6093B9027093BA02809313
:10086000BB029093BC028C2F0E940D04CF9108957F
:10087000ABE0B0E0EEE3F4E00C94E6264F8358875B
:1008800069877A878B8761110E944F0C1E821D82B7
:1008900085E0FE013796DE01119601900D928A9552
:1008A000E1F78C819D81892B61F449815A816B81AB
:1008B0007C818D819E810E94770B2B96E2E00C94C7
:1008C000022789819A8189238F3F79F3CE0101968E
:1008D0000E945E038111E9CFF0CFFC0180819181FC
:1008E0000E940F090895662329F00E9488120E9431
:1008F0005B1308950E94E212FACFCF93C82F88238A
:10090000B9F08CEF8C0F813AA8F46C2F809114020F
:10091000909115020E94201E882329F08C2F0E949E
:100920000F0C0E94700C8C2F0E94070C0E94700C00
:10093000CF91089580E28C0F883048F4C77081E031
:1009400001C0880FCA95EAF70E94320CEFCFEBE5A1
:10095000EC0FE33040F4F0E0EE59FD4F808190E081
:100960000E94C21DE5CFE8E5EC0FE93150F4F0E05C
:10097000EE0FFF1FE05DFD4F808191810E94E71D1A
:10098000D7CF83E38C0F833198F661E08C2F0E94E0
:100990007304CECF882381F19CEF980F913A28F40D
:1009A0000E940F0C0E94700C089590E2980F9830EE
:1009B00050F4877091E001C0990F8A95EAF7892F6A
:1009C0000E94380CEFCF9BE5980F933028F490E00D
:1009D00080E00E94C21D089598E5980F993128F48F
:1009E00090E080E00E94E71D089593E3980F933113
:1009F00018F460E00E94730408951F93CF93DF936F
:100A0000182FEB010E947D04209739F4812F0E945A
:100A1000CA04DF91CF911F9108958FE99FE001975C
:100A2000F1F700C000002197EFCF70E060E089335C
:100A300011F460E570E00E94FD040895882321F020
:100A40000E94320C0E94700C0895882321F00E94AD
:100A5000380C0E94700C0895B0E0A0E0E2E3F5E0ED
:100A60000C94DF266C01D62FC72FFC011281058163
:100A700002950F700E94280CE82E8823E9F0E12EE1
:100A80001123D1F08C2F807F803451F080E28D0FC4
:100A90008830F8F0011104C08C2F807E8032C9F0BC
:100AA0008091110482FF15C082E00E94D30C0E9445
:100AB000280C91E0E82EE926BC2EB2949FE0B922E2
:100AC000FBE0FB15B8F1EB2DF0E0E058F84D0C948D
:100AD000D026E12CF1CF0C2F0F70C07F11F00295C2
:100AE000007F112399F0002359F080E28D0F8830A8
:100AF00010F0D11107C0802F0E94320C0E94700CA0
:100B00008D2F63C0802F0E94420CF8CF8D2F0E9442
:100B1000CA04002379F080E28D0F883010F0D111E3
:100B200004C0802F0E94380C03C0802F0E94480C04
:100B30000E94700C2B2D2850330B2430310520F4EB
:100B40000E948A1D0E940D04EE2089F00E94240C50
:100B500080FD0DC0F60112820E941E0C0E94170833
:100B6000C6010E9448070E941E0C0E942708CDB7AC
:100B7000DEB7E9E00C94FB262C2F2F70F22EC07FFD
:100B8000C03219F0F29480EFF822DD2381F0D130E9
:100B900009F449C0112309F451C0002309F448C0E5
:100BA000F601858180FFACCF8F70858341C0809135
:100BB000110482FD15C0112359F0FF2029F08F2D5B
:100BC0000E94320C0E94700C80E00E947D04B2CF23
:100BD00080E00E94CA04FF2009F4ACCF8F2DA2CF81
:100BE000112381F0011106C00E94520C8F290E942E
:100BF0001E05A0CF0130C1F70E94520C8F290E9420
:100C0000590C98CF011106C00E94660C8F2D0E94CE
:100C1000250590CF013009F48DCF8F2D0E94250539
:100C20000E94660C87CF112329F0063008F082CF8E
:100C30008F2DDDCF053008F07DCFE8CF002331F3D5
:100C4000D93349F4FFEF27EE33E0F1502040304034
:100C5000E1F700C000008D2F0E94CA046BCF8C2FDB
:100C600086958695837069F0813009F063CF8D2F6A
:100C70009C2F9370111102C080E090E00E94E71D4C
:100C800059CF8D2F9C2F9370111102C080E090E0FE
:100C90000E94C21D4FCF612F8D2F0E9473044ACF37
:100CA0008C2F8370A1F5111145CF4D2F429546959C
:100CB0004770440F440F2D2F2F7030E0042E02C0D8
:100CC000220F331F0A94E2F790E080E0D4FF09C0BE
:100CD0008FE090E002C0880F991F4A95E2F7809557
:100CE0009095C695C695C370822B932BC23049F060
:100CF00058F4C13019F00E94E7071CCF0E94DE07AC
:100D000019CF0E94F00716CF0E94DB0713CF8695FC
:100D1000112311F08C2F8170882309F40BCF4D2FF4
:100D2000429546954770440F440F2D2F2F7030E0A9
:100D3000042E02C0220F331F0A94E2F790E080E0F5
:100D4000D4FF09C08FE090E002C0880F991F4A9538
:100D5000E2F780959095C695C695C370822B932B2C
:100D6000C23049F058F4C13019F00E945208E2CE66
:100D70000E944908DFCE0E945B08DCCE0E94FF077C
:100D8000D9CECF70112329F08C2F0E9417088D2FF8
:100D90002ECF8D2F0E9425058C2F0E942708CACEAA
:100DA000D23F41F160F4D03FB9F0D13F81F011233F
:100DB00009F446C00111A4CE8C2F8F711FC0D33F00
:100DC00001F1D43FA1F78091110482FD24C08C2F42
:100DD0008F71112311F312C0112341F0053008F077
:100DE000A9CE8C2F8F710E943908A4CE063008F04E
:100DF000A1CEF7CF8C2F8F711111CFCF0E94170882
:100E000099CE112329F08C2F8F710E940B0892CE5E
:100E10000E9406088FCE112349F0CF718C2F0E94BB
:100E2000170863E08C2F0E94B50C84CE81E00E94ED
:100E3000D30C023008F47ECE82E00E94D30C7ACE2E
:100E4000002359F0D93309F006CF8FEF97EEE3E096
:100E500081509040E040E1F7FCCE8C2F8F719DCF08
:100E60000F931F93CF93DF93EC01688179818A817F
:100E70000E941A098C010E9464080E94DA07B801D6
:100E8000CE010E942C05DF91CF911F910F91089503
:100E9000CF93DF93EC018B819C81892B29F0888192
:100EA000998189238F3F51F4DF91CF910895CE012D
:100EB0000E943007CE010E946003F6CFCE010E944F
:100EC0008B038111F4CF0E94280C882369F38A8157
:100ED000882351F38091110482FFE6CF82E00E94C3
:100EE000D30CE2CF90E080E00E94C21D90E080E051
:100EF0000E94E71D0E944F0C0E94700C0E94771305
:100F00000E945B1308950E94170C0E9472070895B7
:100F10000E943F0C0E948307089592959F7096301F
:100F200091F058F4925F9F70923058F4803F19F01E
:100F300030F4883E30F481E008959A5FF4CF843F26
:100F4000D1F380E00895883EB0F3813FD1F7F3CF2D
:100F5000FC0183819481892B29F0808191818923EF
:100F60008F3F11F480E00895808191810E940F09E4
:100F70000E948D070895A5E0B0E0E1ECF7E00C9445
:100F8000E6262596E2E00C940227A6E0B0E0EBEC22
:100F9000F7E00C94E6262696E2E00C9402270895EA
:100FA0000E94CF0708950E94D0079093E902809392
:100FB000E802089508950E94D30708952091E80259
:100FC0003091E902822B932B0E94D3070895209140
:100FD000E8023091E902822393230E94D307089507
:100FE0002091E8023091E902822793270E94D307DB
:100FF00008950E94CF0708950E94F90708950E945E
:10100000FC079093E7028093E602089590E080E069
:101010000E94FF07089521E030E0A90102C0440FBB
:10102000551F8A95E2F7CA010E94FF07089521E043
:1010300030E002C0220F331F8A95E2F78091E6026A
:101040009091E702822B932B0E94FF07089521E0E5
:1010500030E002C0220F331F8A95E2F720953095C9
:101060008091E6029091E702822393230E94FF077A
:10107000089521E030E002C0220F331F8A95E2F785
:101080008091E6029091E702822793270E94FF0752
:1010900008952091E6023091E702822B932B0E9463
:1010A000FF0708952091E6023091E70282239323FF
:1010B0000E94FF0708952091E6023091E7028227FF
:1010C00093270E94FF0708950895262F277091E027
:1010D00001C0990F2A95EAF723E0769567952A953E
:1010E000E1F7660F771F660F771FFA01E60FF71F0C
:1010F00050E040E0682F70E08191DF0111979B0183
:10110000042E02C0369527950A94E2F721702195A6
:101110002827292328272C934F5F5F4F4430510500
:1011200059F70895A82FA77023E0969587952A95DB
:10113000E1F7880F991F880F991FFB01E80FF91F2E
:1011400050E040E080E0219130E00A2E02C0369568
:1011500027950A94E2F721703327042E01C0220F4D
:101160000A94EAF7822B4F5F5F4F4430510559F7DD
:101170000895262F953070F48F3060F4682F70E05A
:101180008FE0989F600D711D11244EEB52E0822F6D
:101190000E9465080895292F953068F48F3058F41F
:1011A00090E06EEB72E03FE0239F800D911D1124D3
:1011B0000E949208089580E00895B0E0A0E0E3EE78
:1011C000F8E00C94DF267C010091E6021091E70222
:1011D0008091E8029091E902082B192BCFE0D0E032
:1011E000CC24C394D12CBC2EC6010C2E02C0880F77
:1011F000991F0A94E2F780239123892B49F42197C0
:1012000090F7B12C8B2DCDB7DEB7E9E00C94FB261F
:10121000B7018C2F0E94840F019789F3F3CFCF93EE
:10122000DF93EC010E94DD08BE010E94840FDF9174
:10123000CF9108951F93CF93DF93EB019091BD025F
:10124000992339F0CB010E940F09DF91CF911F91B3
:101250000895882369F0CB010E94DD08182F682FBC
:10126000CE010E94B908BE01812F0E94840FEDCFEC
:10127000CB010E94CB08182FF6CF1F93CF93DF939B
:10128000C091EA0216E08091EB028C1304C0DF915A
:10129000CF911F910895D0E01C9FF0011D9FF00D8C
:1012A0001124E451FD4F4081518162817381848119
:1012B00095810E94C5072196C770E5CF40911C0318
:1012C00050911D0360911E0370911F0380912003B4
:1012D000909121030E94C50708952091EA02909100
:1012E000EB0256E0291302C080E0089530E0529FDF
:1012F000F001539FF00D1124E451FD4F71817613DD
:1013000006C07081781303C07281741304C02F5F0C
:101310003F4F2770E7CF81E008951F93CF93DF936E
:1013200080912103807F09F04BC080911E038823A8
:1013300009F446C08091EA02C091EB0240911C037F
:1013400050911D0360911F0370912003D42FD5236A
:1013500016E0C817A9F190E061157105A9F1DF3F0A
:1013600099F1189FF001199FF00D1124DF01A4518C
:10137000BD4F11962C911197251326C02C91241343
:1013800023C012962C91129721111EC013962D91F5
:101390003C91261B370B283C3105B0F4809121038A
:1013A0008F70806180932103EF50FD4F80818F709B
:1013B000806180838CE193E00E9448070E943D0990
:1013C000DF91CF911F91089501968770C2CFA1E15F
:1013D000B0E0EDEEF9E00C94DC268C0185E0F8013C
:1013E000DE011D9601900D928A95E1F7F801F280D9
:1013F0008CE1A82E83E0B82E40911F03509120036A
:101400004115510509F45AC190911C0320911D0307
:10141000892F82238F3F09F451C1C080D1808380FE
:101420009480E0901E03B401641B750BEE2009F458
:10143000F6C080912103382F307F683C710508F099
:10144000AFC031117AC0EF2C2D1116C09C1114C001
:10145000F11012C08F708061809321030E945E0999
:10146000C5010E94480780912103F80185838E2DD4
:101470006196ECE00C94F82681149104C9F18C2D4E
:101480008D218F3FA9F181E08F2580FF05C04F2D71
:101490006D2D8C2D0E946D098114910459F18C2DB4
:1014A0008D218F3F39F181E08F25F82FF170BF2E0C
:1014B00080FF39C04F2D6D2D8C2D0E946D09A82EF7
:1014C000811131C0CD86DE868D859E850E940F09F3
:1014D000292F22952F70243078F49F702230A8F0A5
:1014E0009923B9F0F8019581907F99F4EA2CBFCF48
:1014F00080E0CBCF80E0D9CF2A5F2F70223068F018
:10150000C8010E944807AB2CF1CF992311F0882322
:1015100069F3805E883050F3F3CF803F38F3815F0A
:10152000833070F7E3CFFF2009F4A1CF809121032E
:10153000816080932103E12C9ACF2D1105C09C116D
:1015400003C0FF2009F486C0C8010E94A8078823B1
:1015500019F1FF2009F180912103803270F0209170
:101560001C0330911D0338872F8319869B868A863A
:101570008C87CE0107960E94480786E0F801ACE10F
:10158000B3E001900D928A95E1F70E948D090E94C7
:101590005E09EE24E3946BCFC8010E944807F9CF9F
:1015A000311114C0782D998A888AA6016F2D8989F6
:1015B0000E94BB078CE193E00E94480786E0F5019A
:1015C00011928A95E9F70E945E09B5CF2D110EC0E0
:1015D0009C110CC0F1100AC08583C8010E94480705
:1015E00086E0F50111928A95E9F741CFC8010E9482
:1015F000A807882389F2FF2079F2809121038032A5
:1016000008F4BBCF20911C0330911D033A8329833A
:101610001B829D828C828E83CE010196ACCF683C6A
:10162000710508F03DC0EF2CFF2009F4B5CF2D1156
:1016300029C09C1127C08091210380FD1AC0982FDA
:10164000907FB9F08583903F31F0982F907F905F25
:101650008F70892B8583C8010E94480786E0F801B6
:10166000ACE1B3E001900D928A95E1F70E945E092A
:10167000FECE86E0F801ACE1B3E001900D928A95D0
:10168000E1F7F5CEC8010E94A807811176CF8091BD
:101690002103816080932103C8010E944807E7CE9F
:1016A000782D998A888AA6016F2D89890E94BB07A7
:1016B00086E0F50111928A95E9F7D8CFFF2009F469
:1016C0006BCFC8010E94A807E82E882309F464CFD5
:1016D00086E0F801ACE1B3E001900D928A95E1F764
:1016E0008CE193E00E946D040E948D09BFCFACE0B5
:1016F000B0E0EDE7FBE00C94E5264F83588769875F
:101700007A878B879C87CE0107960E94E7098823FA
:10171000B1F08A859B85892B39F04F815885842FBC
:1017200085238F3F09F06CC016E08091EA0290910A
:10173000EB02891343C02C96E3E00C94012786E06A
:10174000FE013796DE01119601900D928A95E1F720
:101750008A859B85892B41F38F81988589238F3FCB
:1017600019F32091EB0230E0C901019687709927A7
:101770004091EA024817190671F40E9488071092F6
:10178000EB021092EA0286E0ECE1F3E0DF011D9249
:101790008A95E9F7C9CF96E0929FD001939FB00D4B
:1017A0001124A451BD4FFE01319601900D929A95DE
:1017B000E1F78093EB020E943D09B6CF819FC00103
:1017C000112484519D4F0E94E709882309F4B3CF67
:1017D000E091EA021E9FF0011124E451FD4F408187
:1017E000518162817381848195810E94C5078091B6
:1017F000EA0290E00196877099278093EA0295CFDC
:1018000069857A858B859C850E94C5078DCF682F59
:1018100080911402909115020E94A01E0895682FD5
:1018200080911402909115020E94AE1E089580913D
:101830001402909115020E94BC1E089580914203EB
:1018400085958595859508958091420387700895C3
:1018500090914203977081E009F480E008958091AF
:101860006503089590916503892B8093650308951E
:101870008095909165039823909365030895109245
:101880006503089590916403892B80936403089500
:101890008095909164039823909364030895109227
:1018A0006403089580914303089508950E94550CA0
:1018B00008959091110492FF08C0909143039817E6
:1018C00021F0809343030E94560C089580914303B6
:1018D000882329F01092430380E00E94560C08955B
:1018E000CF93DF93E0911402F0911502809165038C
:1018F0008083E0911402F09115028081909164033D
:10190000892B808390914303992381F0E091140205
:10191000F09115028081892B80838091140290912F
:1019200015020E940C1E81110E94660CC0911402C7
:10193000D091150240E250E062E273E0CE010E94D5
:101940001627892B59F080E2FE01A2E2B3E0019054
:101950000D928A95E1F7CE010E949A1DDF91CF91F9
:10196000089508950E94B10C08959091110492FF7A
:1019700011C098E0899F90011124622B609342036B
:101980000E941708809142038595859585950E9450
:10199000B20C08950E94170808951092420380E047
:1019A0000E94B20C08959091420380958923809300
:1019B0004203282F277091F4282F082E000C330B98
:1019C0009217130659F09091110492FF07C0859564
:1019D000859585950E9427080E94CD0C08959091C9
:1019E000110492FB222720F9281769F080FB92F955
:1019F0009093110480911004909111040E94370D6E
:101A000082E00E94D30C08958091110482FB882704
:101A100080F991E089270E94EF0C089581E00E94EF
:101A2000EF0C089580E00E94EF0C08956FEF7FEFB8
:101A300090E080E00E947827089590E080E00E9486
:101A4000442721E0873E9E4F09F020E0822F089531
:101A500082E090E00E943C27089583E090E00E949D
:101A60003C27089584E090E00E9444270895BC013B
:101A700084E090E00E9478270895AB01BC018FE0DC
:101A800090E00E946C270895AB01BC0183E190E0D7
:101A90000E946C27089560E070E0CB010E94440D25
:101AA000089560E070E0CB010E943D0D0E944B0D57
:101AB000089567EE7EEF90E080E00E94782760E076
:101AC00082E090E00E945A2760E083E090E00E946C
:101AD0005A271092E9021092E80260E074E184E073
:101AE00090E00E94782760E086E090E00E945A270C
:101AF0006FEF87E090E00E945A2740E050E0BA0183
:101B000088E090E00E946C2760E08DE090E00E9409
:101B10005A2740E050E0BA0188E190E00E946C272B
:101B200060E087E190E00E945A2740E050E0BA016F
:101B30008CE190E00E946C2770E060E080E290E031
:101B40000E94782740E050E0BA0188E190E00E94CE
:101B50006C270E94510D08950E94590D0895682F19
:101B60008EE090E00E945A2708950E948A1F609399
:101B7000760370937703809378039093790360934F
:101B800072037093730380937403909375030895A5
:101B9000089508950E94C90D089508950E94CD0DDD
:101BA00008958EE690E10E94801D0E94C80D0E945B
:101BB000CA0D089581E008950E94DA0D08950895F0
:101BC00008950E94DF0D0E94E00D08950E948A1082
:101BD0000E940C040E946B1708950E94751F0E94BA
:101BE00065110E94E60D0E94CE0D0895AAE0B0E0B6
:101BF000ECEFFDE00C94DA260E947B1128E6822EA1
:101C000023E0922E640110E0F601E190F1906F0163
:101C1000812F0E94B0101F5F153009F450C0E816E4
:101C2000F90691F380917A0381FD0E94B9100E9418
:101C3000DC0D682E10E0812F0E94B0107C01F401B1
:101C4000A190B1904F018A159B0591F1A826BF2460
:101C500000E0CC24C394D12CC5018C219D21892B7B
:101C6000F1F077247394C7018C219D21892B09F40D
:101C7000712C662079F00E831F8378860E947E1F68
:101C80008160782F9A8789874E815F8168858A85F0
:101C90000E943804472D602F812F0E94BF150F5FCF
:101CA000CC0CDD1C0F30C1F6F4013297F182E082DA
:101CB0001F5F153009F0BFCF0E94B50D22C0E81696
:101CC000F90609F0AFCF0E947E1F8C018091660358
:101CD0009091670308171907A1F08FEF89838A8312
:101CE0001B820E947E1F8160782F9D838C83498197
:101CF0005A816B818D810E94380410936703009391
:101D000066030E94B3160E9499130E941F042A962C
:101D1000EEE00C94F626CF93DF930E94890FEC013E
:101D2000811520E59207D0F5811530E4930708F07E
:101D300086C0803E910518F58D3C910508F07DC068
:101D4000883A910570F4853A910508F06EC08130AB
:101D5000910501F10097F1F00497E0F4D0E0C0E0C4
:101D600019C0813C9105D0F7C85AD0E0CC0FDD1FD7
:101D7000CB59DD4F0990D881C02DD4640BC081159B
:101D8000904208F0A8C0C11581E0D80718F4C83EF9
:101D9000D10520F7CE01DF91CF910895803622E55D
:101DA000920710F5803432E5930708F052C0803274
:101DB000924508F047C0C11582E5D80708F47DC0F8
:101DC0002C2F2695269540E2249F900111248C2FDC
:101DD0008370C1E0D0E002C0CC0FDD1F8A95E2F72E
:101DE000C22BD32BDD68D6CF803A22E5920760F470
:101DF000803832E5930708F441C0CF71D0E0DC2F82
:101E0000CC27C46FD06AC6CF803C42E5940708F463
:101E100049C0C03E82E5D80708F0A0CFDC2FCC2710
:101E2000CC27DF71C06FD06AB5CFC55AD0E0C95694
:101E3000DD4FC881D0E0D064ADCFD065ABCFDF70CF
:101E4000D06AA8CFCF71D0E0DC2FCC27C16FD06A89
:101E5000A1CF282F26952695277080E2289F9001F4
:101E600011248C2F8370C1E0D0E002C0CC0FDD1FA5
:101E70008A95E2F7C22BD32BDC688CCF282F2695CE
:101E80002695277040E2249F900111248370C1E0C1
:101E9000D0E002C0CC0FDD1F8A95E2F7C22BD32B16
:101EA000DA6878CF8F710E942B10C82FD0E0DC2F1A
:101EB000CC27CC27DF71D0626DCF8C2F8F710E9421
:101EC0002B1035E0D695C7953A95E1F7CF709C2F4A
:101ED000EC01D0695FCF8D2F8F710E942B1090E0A5
:101EE000982F882788279F719C012C2BE901E3CF2D
:101EF000462F753030F46F3020F4672F0E941A039C
:101F0000089590E080E008950E94780F0E948B0E63
:101F1000089582389105B9F1B0F48133910509F43F
:101F20007DC048F48932910509F46DC08A3291056B
:101F300009F47BC008958533910509F45FC08933A6
:101F4000910509F10895833E9105D9F138F4803E59
:101F5000910529F1823E910579F10895863E91051A
:101F6000D9F1873E910509F43EC0843E910541F5C3
:101F70002091110421FF24C08091100484FD19C018
:101F800087EE90E0089520911004237009F05AC064
:101F90002091110423FF14C089E290E0089520915C
:101FA000100420FD38C03091110430FF09C024FF17
:101FB00043C090E080E008952091100422FDF7CF07
:101FC00008952091100422FD3AC03091110430FD93
:101FD00039C024FFF5CFEDCF2091100423FFF0CFBF
:101FE00024FDE7CFCDCF2091100423FD2EC03091EA
:101FF000110431FFEECF84EE90E00895209110049B
:1020000025FFDECFC9CF2091100425FD21C02091EE
:10201000110423FFD5CF89E390E0D2CF20911004A3
:1020200026FFCECF8AE290E008952091100426FF8B
:10203000C7CF81E390E0089583EE90E0089582EEAB
:1020400090E0089580EE90E0089586EE90E0089587
:1020500085E390E008959091100492FF06C0282F28
:1020600028712830F9F4877F846093FF06C0282FF9
:1020700028712831F1F4877E84612091110420FFBA
:1020800006C0382F38713830D9F4877F816021FF3E
:1020900006C0282F28712831D1F4877E816194FDF4
:1020A000877E0895282F24712430F9F68B7F88606D
:1020B000DCCF282F2471243101F78B7E8861DDCF9E
:1020C000382F3171313019F78E7F8860E0CF282F9B
:1020D0002171213121F78E7E8861E1CF80E0089562
:1020E0000E94160D08950E947B118FEB9DE50197CC
:1020F000F1F700C000000E947B1180E00E94B01048
:1021000080FF04C00E9470100E94E51F08950E9485
:10211000731008950E941D0D811102C00E94AC0D24
:102120000E94280D80937A030E94320D909311042F
:10213000809310040E9487100E942D0D90E00E9451
:10214000DB078091E6029091E7020E94FC07089568
:1021500008950E94A810089508950E94AC10089553
:10216000E82FF0E0EE0FFF1FE45EFB4F80819181CE
:102170000895089580EA8A95F1F7089500C00895BA
:102180000E94BA100895F894E82FE295EF70F0E0FD
:1021900031A1282F2F7081E090E001C0880F2A958F
:1021A000EAF7982F9095932391A392A1892B82A36C
:1021B00078940895CF93DF93C9EAD2E089918F3F55
:1021C00011F00E94C31082E0CE3AD807B9F7CAE9ED
:1021D000D2E089918F3F11F00E94C31082E0C93A8A
:1021E000D807B9F7DF91CF910895AF92BF92DF92F0
:1021F000EF92FF920F931F93CF93DF938C01D62E14
:10220000C62FD0E0CE0187559D4F7C01FC01208177
:102210002F3F09F44DC0F894E22FE295EF70F0E003
:1022200031A12F7081E090E001C0880F2A95EAF774
:10223000932F982B91A392A18095892382A37894C0
:102240000E94BE10EAE9F2E049EA52E021E030E003
:10225000B12CA12C61916F3FA9F1A62FA295AF706F
:10226000B0E090968C9190E06F7002C09595879544
:102270006A95E2F780FD26C0C901A82AB92A220F73
:10228000331F4E175F0731F7F70180818F3F11F041
:102290000E94C31061E0A114B10409F460E08D2D27
:1022A0000E94C010CC0FDD1FC00FD11FB982A882C1
:1022B000DF91CF911F910F91FF90EF90DF90BF9032
:1022C000AF90089590E080E0D8CF0E94DA108AE0C5
:1022D000ECE1F4E0DF01982F1D929A95E9F7E2E135
:1022E000F4E0DF011D928A95E9F785E00E94B611BE
:1022F0000E946C030895AAE0B0E0E1E8F1E10C94DB
:10230000E3268E010F5F1F4F8AE0F80111928A9534
:10231000E9F7F12C6F2DC8010E94F510F394F5E058
:10232000FF12F8CF4AE050E0B80182E194E00E9449
:10233000162721E0009709F420E0892B41F08AE07C
:10234000F801A2E1B4E001900D928A95E1F745E031
:102350006CE174E082E194E00E94B711182F0E94B2
:102360006F03812F2A96E5E00C94FF260895CF9203
:10237000DF92EF92FF921F93CF93DF936C017B016B
:10238000C42F222349F081E080937D030E947E1FA9
:1023900090937C0380937B0310917D0311110AC0FD
:1023A00010E0812FDF91CF911F91FF90EF90DF9090
:1023B000CF90089580917B0390917C030E94961F9B
:1023C000039770F3D0E0CC0FDD1FAE01B601C7015B
:1023D0000E941627892B41F0AE01B601C7010E9469
:1023E000232710927D03DDCF10E0FBCF0E947E21DA
:1023F0000E94ED0D0E948B2108950E9490210E9461
:10240000F60D0E94AA2108950E94171F0E946421C0
:102410000E94D10D0E94F6110E94FD110E94E10D53
:10242000FBCF8091840380FF0DC060911B0270E0A0
:10243000660F771F6038710570F56115710569F1D8
:10244000862F089581FF07C060911B0284E0689F7A
:10245000B0011124EFCF60911B0282FD0AC0809170
:1024600083038823A9F020911A0260911B0282172E
:1024700010F088E0ECCF869FC001112433E0880F74
:10248000991F3A95E1F7622F70E00E94BC26D2CFE7
:1024900068E070E0D5CF8FE7089581E008958091DE
:1024A000840380FF0CC06091170270E075956795FA
:1024B000759567956115710549F1862F089581FF1E
:1024C00006C06091170270E075956795F3CF609133
:1024D000170282FD0BC0909182039923A1F06091B5
:1024E000160280911702961738F0682F70E0603856
:1024F000710500F38FE70895899FC001112470E0F2
:102500000E94BC26F4CF61E070E0D7CF81E008954F
:102510008D3C31F40E9411128195809388030895B7
:102520008E3C19F40E941112F8CF8F3C31F40E94B6
:1025300011128195809387030895803D19F40E94BC
:102540001112F8CF893D29F40E944F12809389031C
:1025500008958A3D21F40E944F128195F7CF8B3D5B
:1025600031F40E944F12819580938A0308958C3D27
:1025700019F40E944F12F8CF9FE2980F983070F430
:10258000815D990B21E030E001C0220F8A95EAF7C6
:1025900080918603822B8093860308958D3D31F4CC
:1025A0008091840381608093840308958E3D21F49B
:1025B000809184038260F7CF8F3DB9F780918403C7
:1025C0008460F1CF409187038D3C59F4809188035A
:1025D00087FF0DC01092880341110BC01092830336
:1025E00008C08E3C81F48091880318169CF3442324
:1025F00081F08091890390918A03892B09F05AC058
:102600001092820308958F3C49F447FFF0CF109257
:102610008703809188038111ECCFE0CF803D19F4CE
:102620001416ACF3E4CF90918903893D29F419166F
:10263000F4F610928903DBCF8A3D19F497FFD7CFC8
:10264000F8CF90918A038B3D29F497FFD0CF109259
:102650008A03CDCF8C3D19F41916CCF3C8CF9FE275
:10266000980F983090F4815D990B21E030E0B9012A
:1026700002C0660F771F8A95E2F7CB018095909193
:102680008603892380938603B2CF8D3D31F48091F8
:1026900084038E7F80938403AACF8E3D21F48091A2
:1026A00084038D7FF7CF8F3D09F0A1CF8091840304
:1026B0008B7FF0CF08950E947E1F9C01909187032D
:1026C00080918803982B21F030938103209380031D
:1026D0009091890380918A03982B21F030937F0396
:1026E00020937E0385E893E00E94B41D089586E060
:1026F000E5E8F3E0DF011D928A95E9F71092830384
:1027000010928203109284030895FC01828181114A
:102710000EC0838181110BC08481811108C091E0BA
:102720008581811101C090E0892F8170089581E039
:10273000FCCFA6E0B0E0EFE9F3E10C94E52686E0FB
:10274000E5E8F3E0DE01119601900D928A95E1F73C
:1027500010928703109288031092890310928A03C3
:102760008B819C81892B89F08091800390918103DA
:102770000E94961FAC01909183039923C9F1809127
:102780001C028417150608F440C08D819E81892B98
:1027900091F080917E0390917F030E94961FAC017F
:1027A00090918203992309F471C0809118028417D3
:1027B000150608F479C0BE016F5F7F4F85E893E08E
:1027C0000E94CE1E811105C085E893E00E9485130A
:1027D00081110E945B1386E0FE013196A5E8B3E00B
:1027E00001900D928A95E1F72696E3E00C9401277B
:1027F00020911D028AE0289F90011124241735079B
:1028000020F69F5F9093830302C09F3FD1F71B8107
:10281000112359F00E9411129FEF11160CF491E050
:10282000899F802D1124809387031C81112359F0E7
:102830000E9411129FEF11160CF491E0899F802DD8
:1028400011248093880330918703332309F49DCFAB
:1028500020918803222309F498CF45EB3403C0016B
:102860001124992359F09093870345EB2403900199
:102870001124332339F03093880387CF81E080938C
:102880008703F3CF81E0809388037FCF20911902E3
:102890008AE0289F900111242417350708F08BCF78
:1028A0009F5F9093820302C09F3FD1F71D81112348
:1028B00059F00E944F129FEF11160CF491E0899F7E
:1028C000802D1124809389031E81112359F00E94C9
:1028D0004F129FEF11160CF491E0899F802D112467
:1028E00080938A0330918903332309F464CF2091C4
:1028F0008A03222309F45FCF45EB3403C00111247E
:10290000992359F09093890345EB240390011124F6
:10291000332339F030938A034ECF81E080938903CB
:10292000F3CF81E080938A0346CFEF92FF920F931B
:102930001F93CF93DF93EB01E82FD1110EC04423F7
:1029400021F0F0E0EC51FD4FE4916E2F7E2F8E2FA1
:10295000CDB7DEB7E6E00C94FE260D2F10E0282F51
:1029600030E0442329F02C513D4FF901249130E00F
:10297000F6E0CF9FC0011124EFEFF0E0BF010E940D
:10298000A826AB018C2F90E0880F991FA5E5A49F86
:10299000B001A59F700D1124861B970B982F990FDE
:1029A000980FBF01601B710B629FD001639FB00D38
:1029B000729FB00D11248B2F9D9FB0011124672FA2
:1029C0007727EF01C61BD70BBE01629FE001639F13
:1029D000D00D729FD00D11247F01E91AF108E09EFD
:1029E000B001E19E700DF09E700D1124672F7727C6
:1029F000E61BF70BE29F8001E39F100DF29F100D85
:102A00001124E12F722F4230510599F048F44115FD
:102A1000510569F04130510581F0EB2F8D2F07C032
:102A20004430510569F080F046305105B1F76E2F02
:102A30008FCFE22F7B2F812FFACFE22F7D2FF7CF81
:102A4000EB2F822F712FF3CF7B2F822FED2FEFCF24
:102A500041E00E949514089590918B03892B8093F7
:102A60008B03089546E050E06CE170E086E294E06C
:102A70000E944A2710928B0308950E9428150895FA
:102A8000E6E2F4E085E0808380912D0290912E02B1
:102A9000A0912F0281839283A3838FE784838FEF9A
:102AA00085830E943215089580E008950F931F9347
:102AB000CF93DF93C82FD62F8A010E9454159FE031
:102AC000C99FB001112460507F4F6D0F711DFB0134
:102AD00090819F3F29F0F801E80FF11D90838F5FEF
:102AE000DF91CF911F910F910895E091B402F09181
:102AF000B50209950895E091B002F091B1020995EF
:102B00000895B0E0A0E0E7E8F5E10C94DF267C0151
:102B1000FC01C081CC0FCC0F14E01C0F012F14342A
:102B200008F003E46091270470912804809129043F
:102B30000E943D15D62EC72EB82ED0E0C01748F003
:102B400081E0133408F080E0CDB7DEB7E9E00C9403
:102B5000FB26FE01EF52FE4F8081F7019181892310
:102B600031F02B2D4D2D6C2DCE010E947B15219621
:102B7000E5CFE091B202F091B30209950895CF92AA
:102B8000DF92FF920F931F93CF93DF93CDB7DEB702
:102B900028970FB6F894DEBF0FBECDBF182F062FB3
:102BA000F42E0E94DA0D882309F44CC0FF2009F4AA
:102BB00057C0AE014F5F5F4F602F812F0E945615A7
:102BC000F82E0F2D10E080918C03800F912F911D16
:102BD00009976CF188E090E06C01C01AD10AB80145
:102BE00063577C4FA6018DE893E00E942327B8012C
:102BF0006B567C4FA60185E993E00E942327A6012E
:102C0000440F551FB801660F771F6B557C4F85EA3F
:102C100093E00E942327B80163567C4FA6018DE9FB
:102C200093E00E94232788E08F1980938C031091F2
:102C30008C03DE01119640E0842F810FF41212C044
:102C400080938C0328960FB6F894DEBF0FBECDBFDD
:102C5000DF91CF911F910F91FF90DF90CF9008955A
:102C6000F12CAFCF5D91252F30E090E0BC0164578F
:102C70007C4FF901EE0FFF1FE55BFE4F0081FB016A
:102C80000183220F331FF901E45BFE4F2081FB011A
:102C90002187518B880F991FFC01E457FC4F128E3E
:102CA000118E4F5FC9CFCF93C82F809122028C1312
:102CB00035C09091260493702091230230E081E08A
:102CC0009217130609F480E08170809321028091AD
:102CD0002B0490912002981739F08093200240E055
:102CE00060E080E00E94B915CC23D1F0C13011F131
:102CF00080E090911F029F5F90931F0281110CC092
:102D000082E080931E0280912102811105C0C111D1
:102D100003C083E080931E02CF91089581E0D4CF59
:102D200080912102882329F340E060E080E00E9446
:102D3000B915DECF8FE192E00E948115DACF81E0F4
:102D4000089581E008950E94A1160895FC018081F4
:102D5000815C880F880F64E0680F643408F063E4D6
:102D60000E94A31608954F925F926F927F928F9266
:102D70009F92AF92BF92CF92DF92EF92FF92CF934A
:102D80006091B5037091B6038091B7039091B80339
:102D90000E94A51F6B017C010E948A1F4B015C01F0
:102DA0008092B5039092B603A092B703B092B80395
:102DB000A0918C03ECE8F3E08A2F90E04FEF5FEFF7
:102DC00060E070E04C195D096E097F09A9132AC003
:102DD00080938C038091B903C0E0811108C0809179
:102DE0002604C82FC37019F0C82FC695C6958091C8
:102DF0001E02813009F440C0882339F1823009F481
:102E000047C0833009F44FC0CF91FF90EF90DF901F
:102E1000CF90BF90AF909F908F907F906F905F907A
:102E20004F900895218D328D2901712C612C44150C
:102E300055056605770520F481509F5F3296C6CF11
:102E40002C0D3D1D328F218FF8CF10921F028092E2
:102E50002C0490922D04A0922E04B0922F0489E2AB
:102E6000ECE8F3E0A0E3B4E001900D928A95E1F77D
:102E700081E080931E02C8CF8C2F0E945316CC2372
:102E800019F20E94EA028FE192E00E94A616BCCFDE
:102E9000C0932202809126048370809323020E94B3
:102EA000751583E0E6CF80918B0381110E94321566
:102EB00060912C0470912D0480912E0490912F0428
:102EC0000E94A51F6A3171058105910508F49CCF08
:102ED00010921E0299CFE091AE02F091AF020995D7
:102EE000109230048FEF9FEF90934A04809349042F
:102EF00090934C0480934B0490934E0480934D0424
:102F00009093500480934F04909352048093510403
:102F100090935404809353049093560480935504E3
:102F2000909358048093570410928C039093A603B7
:102F30008093A5039093A8038093A7039093AA037B
:102F40008093A9039093AC038093AB039093AE035B
:102F50008093AD039093B0038093AF039093B2033B
:102F60008093B1039093B4038093B3030E941D0D2B
:102F7000811104C00E94AC0D0E94401581E0809335
:102F80008B0346E050E06CE170E086E294E00E9442
:102F90002C2710928B03809126048C7F11F40E94C1
:102FA00040150895CF93C82F882391F08091B903DD
:102FB00081110EC00E9453161092220280912604A5
:102FC0008370809323020E94751583E080931E0214
:102FD000C093B903CF910895E6E2F4E0908121E037
:102FE0009227908310921E020E942C15089581E072
:102FF0000E94EC170895862F90912604937039F063
:1030000094609093260410921E020E942C1508953D
:1030100061E00E94FB170895682F81E00E94FB1772
:10302000089581E00E940C180895682F909126045D
:10303000969596958FEF890F09F481E00E94FB1712
:10304000089581E00E9415180895909126049370C8
:1030500049F0809327046093280440932904822F29
:103060000E942C150895A6E2B4E01196EC911197F8
:10307000F0E0282F13964C91139712966C91CF0184
:1030800008960E942518089581E00E94331808953B
:10309000E6E2F4E09181282F43816281E92FE85034
:1030A000FF0BCF010E942518089581E00E94481867
:1030B0000895E6E2F4E0628120E1620F08F46FEF28
:1030C0009181282F4381892F90E00E94251808952F
:1030D00081E00E9459180895E6E2F4E0628120E15F
:1030E000621B08F460E09181282F4381892F90E0D2
:1030F0000E942518089581E00E946C180895E6E268
:10310000F4E0438120E1420F08F44FEF9181282F32
:103110006281892F90E00E942518089581E00E9425
:103120007F180895E6E2F4E0438120E1421B08F4B1
:1031300040E09181282F6281892F90E00E9425181C
:10314000089581E00E9492180895E6E2F4E0248157
:1031500030E1230F08F42FEF24830E942C150895EB
:1031600081E00E94A5180895E6E2F4E0248130E1B0
:10317000231B08F420E024830E942C15089581E08D
:103180000E94B418089560E084E70E94791A61E013
:1031900087E70E94791A0895CF930E94BF1C84E7A5
:1031A0000E941B1987E70E941B19C0E021E041E043
:1031B00061E08C2F0E94C319CF5FC334B9F760E080
:1031C00084E70E948E1A61E087E70E948E1ACF91F1
:1031D0000895E9E7F5E06083418324E630E042E0CA
:1031E00050E0BF01880F0E945F1D08950F931F9349
:1031F000CF93DF93082F000FEB0114E210937905B2
:10320000EAE7F5E0DE018D91819385E0EA38F80781
:10321000D1F724E630E041E150E069E775E0802F26
:103220000E945F1D105F6096143B41F7DF91CF91C4
:103230001F910F910895CF93DF93C82F4BE06DEF4F
:103240000E94E91840E06AE08C2F0E94E9188FE3A1
:103250009CE90197F1F700C0000040E060E08C2F8E
:103260000E94E91840E061E08C2F0E94E91840E0DC
:1032700066E08C2F0E94E91840E06DEF8C2F0E94D1
:10328000E918D0E040E06D2F8C2F0E94E918DF5F35
:10329000D231C1F740E06D2F8C2F0E94E918DF5F1B
:1032A000D432C1F740E06D2F8C2F0E94E918DF5F08
:1032B000D43BC1F74BE06DEF8C2F0E94E91841E041
:1032C0006AE08C2F0E94E91840E06DEF8C2F0E947D
:1032D000E918DF91CF910895A4E0B0E0E2E7F9E1C9
:1032E0000C94E326F62E042F122F8334910570F5EB
:1032F000880F991F880F991FBC0164557F4F44E0C8
:1033000050E0CE0101960E940D2789818370EA81E9
:10331000282F30E040E9849FC0011124875A9B4F39
:10332000E80FF92FF11DB497F082EB81E80FF92F28
:10333000F11DB4970083EC81E80FF92FF11DB497CC
:10334000108320523C4F81E0F90180832496E5E010
:103350000C94FF26FF920F931F93CF93DF93182FA8
:10336000062FF42ED0E0C0E02F2D402F612FCE018C
:103370000E946C192196C334D105B1F7CDB7DEB7E1
:10338000E5E00C94FF26A4E0B0E0E9ECF9E10C9450
:10339000DB26762EA42EB22E24E0829FB0011124CB
:1033A00064557F4F44E050E0CE0101960E940D2706
:1033B0008A8190E06C0154E2C51AD1089601D7FECB
:1033C00002C0295F3F4F63E0359527956A95E1F785
:1033D0004B8150E0CA0184977C0197FF04C07A01B9
:1033E0006DE1E61AF10853E0F594E7945A95E1F798
:1033F0004C8150E04A01E4E28E1A9108840197FE64
:1034000002C0095F1F4F43E0159507954A95E1F704
:10341000E8E0F0E0BF010E94BC26482FC401BF01D4
:103420000E94BC26982EC601BF010E94BC2661E006
:1034300070E0FB0102C0EE0FFF1F8A95E2F7CF019B
:10344000E98133279E2F9370772009F440C0F2E181
:103450009F9F200D311D1124D901A454BC4F9C9174
:10346000892B8C93E3708E2F90E062E1E69FF00150
:103470001124E454FC4FEE0DF11D508121E030E0A9
:1034800001C0220F4A95EAF7AA2069F1252B208373
:1034900022E1289FF001299FF00D1124E454FC4FF4
:1034A000E00FF11D408121E030E0092C01C0220F26
:1034B0000A94EAF7BB20D1F0242B208386549C4F3A
:1034C00021E0FC0120832496EDE00C94F72652E1E4
:1034D000959F200D311D1124D901A454BC4F809516
:1034E0009C918923BECF20952523D1CF20952423DD
:1034F000E4CFCF93DF93C62FD0E0C052DC4F98814A
:10350000992341F090E9699FB0011124675A7B4FDC
:103510000E94F6181882DF91CF910895EF92FF92E2
:103520000F931F93CF93DF93E82E062F10E00654DE
:103530001C4FF8018081882381F0F2E16F9FE00148
:103540001124C454DC4FF12C49916F2D8E2D0E9413
:10355000E918F39482E1F812F7CFF8011082CDB7A1
:10356000DEB7E6E00C94FE26FA01811101C0FB01F2
:10357000099508951F93CF93DF93EC01FB0112810E
:10358000111110C00E942F0C8272FE01E052F84708
:10359000E531F10508F043C0E457F84D0C94D0260E
:1035A0000E94F717812FDF91CF911F91089541E27B
:1035B00058E161E178E10E94B41AF4CF41E158E1A9
:1035C00061E278E1F8CF45E558E164E478E1F3CFD2
:1035D00044E458E165E578E1EECF4BE758E168E671
:1035E00078E1E9CF48E658E16BE778E1E4CF41EADA
:1035F00058E16EE878E1DFCF4EE858E161EA78E122
:10360000DACF4FEB58E160EB78E1D5CF40EB58E1F2
:103610006FEB78E1D0CF81E00E940818C3CF11E0B2
:10362000C1CFCF93DF93EC01FB018281882309F4A2
:10363000D2C09E0130572332310508F0B2C00E943B
:10364000320D9093110480931004FE01E150F04775
:10365000E232F10520F4EF55F84D0C94D02680911C
:10366000100481608093100493C0809111048860DD
:10367000809311048DC0809110048260F3CF8091FB
:1036800010048460EFCF809110048860EBCF8091AC
:1036900011048160EDCF809111048260E9CF8091A7
:1036A00010048061DFCF809110048062DBCF8091B5
:1036B00010048064D7CF0E9488078091100480682E
:1036C000D1CF809110048C60CDCF809111048360A4
:1036D000CFCF809110048E7FC5CF80911104877F5A
:1036E000C7CF809110048D7FBDCF809110048B7F58
:1036F000B9CF80911004877FB5CF809111048E7F60
:10370000B7CF809111048D7FB3CF809110048F7E4D
:10371000A9CF809110048F7DA5CF809110048F7B5D
:10372000A1CF0E948807809110048F779BCF809152
:103730001004837F97CF809111048C7F99CF809163
:10374000100482FB992790F921E0922790FB82F9DF
:1037500090FB83F987CF80911104982F90959170F9
:103760008E7F892B90FB81F983CF90911004892F54
:103770008F7B96FF806476CF0E948807909110041B
:10378000892F97FB87F980586DCF81E00E94AF0D9C
:1037900080911004909111040E94370D0E948807B7
:1037A00080E0DF91CF91089580E0F0CF90911004F8
:1037B000892F8F7E94FF806155CF90911004892FBF
:1037C0008E7F90FF81604ECF90911104892F877F6B
:1037D00093FF88604DCF81E0E4CFCF93DF93EB017F
:1037E00086319C4711F50E942F0C9A81992399F0FC
:1037F0008A7A91E009F490E09093E203811109C084
:1038000089E20E94070C0E94700C80E0DF91CF914A
:10381000089585E3F6CF8091E203811104C089E227
:103820000E940F0CF0CF85E3FBCF81E0EFCF0F9329
:103830001F93CF93DF93C42FD22FFC018281882363
:10384000C9F04093E5030E947E1F9093E4038093A8
:10385000E30380E28C0F883040F4C77081E001C040
:10386000880FCA95EAF70E941E05DF91CF911F913C
:103870000F9108951091E503141332C08091E30372
:103880009091E4030E94961F883C910548F5C0E2A0
:10389000CD0F1D17B9F080E2810F883040F417700A
:1038A00081E001C0880F1A95EAF70E942505C8300B
:1038B00048F481E09D2F977001C0880F9A95EAF730
:1038C0000E941E05802F0E941505C83070F6D77023
:1038D00081E001C0880FDA95EAF70E942505C5CF7F
:1038E00080E28C0F883008F6C77081E001C0880F35
:1038F000CA95EAF7F2CF0F93DB0188519C478730D6
:103900009105A0F5FC01ED53F84D0C94D02606E28C
:1039100021EE41EE6AE17CE7CD010E94171C80E0B8
:103920000F91089507E225EE45EE6BE17CE7F4CFB9
:1039300006E221EE40EE68E17CE7EECF07E225EEFD
:1039400044EE69E17CE7E8CF06E221EE42EE6CE16D
:103950007CE7E2CF07E225EE46EE6DE17CE7DCCFC7
:1039600008E221E045EE6EE17CE7D6CF12968C911D
:10397000882319F01092E503D3CF81E0D1CF1092C4
:10398000B9008CE08093B8000895B0E0A0E0EBECC3
:10399000FCE10C94DD26B82EEB010E947E1F6C0129
:1039A000EE24E394F12CC431D10560F025E0E22E41
:1039B000F12CCF3FDC0731F0CE0164E170E00E94D2
:1039C000A8267B0184EAA82E94E8992E1092BC00C8
:1039D000A092BC000E947E1F8C018091BC0087FFDA
:1039E0000DC08091B900887F8830F9F08091B900CE
:1039F000887F8031D1F00FEF1FEF08C0C8010E940F
:103A0000961FE816F90648F70EEF1FEFCF3FDC07C9
:103A1000E9F2C6010E94961FC817D907B8F6C80177
:103A2000CDB7DEB7EBE00C94F926B092BB009092D4
:103A3000BC000E947E1F8C018091BC0087FF0AC0E1
:103A40008091B900887F883111F08034A1F610E0B0
:103A500000E0E5CFC8010E94961FE816F90660F75E
:103A6000D3CF0F931F93CF93DF93EB018093BB00D2
:103A700084E88093BC000E947E1F8C018091BC0072
:103A800087FF11C02091B900287F81E090E02832A3
:103A900011F490E080E0919581959109DF91CF91AB
:103AA0001F910F910895CF3FDC0741F3C8010E9499
:103AB000961FC817D90710F78EEF9FEFEFCFB0E032
:103AC000A0E0E5E6FDE10C94E0266B018A017901B6
:103AD000B9010E94C51CE6010C0D1D1DC017D107C0
:103AE00011F097FF08C024E92093BC00CDB7DEB7E2
:103AF000E8E00C94FC26B70189910E94311DEECFBD
:103B00009093B7028093B60208959093EB0380934D
:103B1000EA030895E091EA03F091EB03309729F06E
:103B20000190F081E02D0995089580E008950E94AC
:103B30008A1D0895E091EA03F091EB03309799F024
:103B400020912C02222359F02091100427FF07C056
:103B5000DC012C9111962C93119726E02C93028076
:103B6000F381E02D09950895E091EA03F091EB03CC
:103B7000309739F022E0DC012C930480F581E02DB0
:103B800009950895A3E0B0E0E8ECFDE10C94E62689
:103B90002091E8033091E90328173907A1F09093A9
:103BA000E9038093E803E091EA03F091EB03309797
:103BB00051F023E029839B838A830680F781E02DDF
:103BC000CE01019609952396E2E00C940227A3E02A
:103BD000B0E0EDEEFDE10C94E6262091E603309195
:103BE000E70328173907A1F09093E7038093E603D2
:103BF000E091EA03F091EB03309751F024E0298340
:103C00009B838A830680F781E02DCE01019609957A
:103C10002396E2E00C940227FC01329680912C025C
:103C2000882321F0809110049EE187FF96E080E0D8
:103C3000915008F4089521912223D1F38F5FF8CF9A
:103C4000662301F120912C022223F1F0209110042F
:103C500027FF1AC0462F4695469546954E3190F45B
:103C6000677021E030E002C0220F331F6A95E2F74F
:103C7000840F911DFC01828190E02823392381E08B
:103C8000232B69F480E00895FC0132960896219177
:103C9000261721F0E817F907D1F7F4CF81E008954E
:103CA0009C01FC0132969FEF80E04191461751F054
:103CB0009F3F19F4411101C0982F8F5F8630A9F7FB
:103CC0009F3F09F40895290F311D97FD3A95F90199
:103CD00062830895FC01329608962191261303C051
:103CE000DF0111971C92E817F907B9F70895E62F3D
:103CF000E695E695E695EE3168F4E80FF92FF11DAB
:103D0000677021E030E001C0220F6A95EAF78281F6
:103D1000822B82830895E62FE695E695E695EE31AF
:103D200070F4E80FF92FF11D677021E030E001C059
:103D3000220F6A95EAF7209582812823228308952D
:103D400020912C02222339F02091100427FF03C078
:103D50000E94771E08950E94501E089520912C0203
:103D6000222339F02091100427FF03C00E948B1EEC
:103D700008950E946A1E0895FC01329680912C02DB
:103D8000882351F08091100487FF06C08EE1DF0187
:103D90001D928A95E9F7089586E0F9CF46E050E054
:103DA0000E94162721E0892B09F420E0822F089534
:103DB00008950E94D81E0895811106C081E0809365
:103DC000EC030E94D91E089582E0F9CF83E080932E
:103DD000EC030E94D91E08950E94DC1E089581E024
:103DE0008093EC030E94D91E08950E94EF1E08954F
:103DF000089508950E94F91E0895089508950E9457
:103E0000F81E0895CF930E94FD1E0E947B110E9410
:103E1000FE1EC0E08C2F0E94B010892B31F4CF5FC2
:103E2000C530C1F780E0CF91089581E0FCCF85B720
:103E3000806885BF85B7806885BF08951F921FB6CB
:103E40001F9211248F939F93AF93BF938091ED03A3
:103E5000811113C080918D0590918E05A0918F05E1
:103E6000B09190054196A11DB11D80938D05909351
:103E70008E05A0938F05B0939005BF91AF919F9150
:103E80008F911F901FBE1F901895809195058430CB
:103E900031F10E94E7031092ED0388E190E020E405
:103EA0000FB6F894A895809360000FBE2093600031
:103EB00083B7817F846083BF83B7816083BF789439
:103EC000889583B78E7F83BF0FB6F894A8958091AD
:103ED0006000886180936000109260000FBE0895BA
:103EE0000E9488070E94F103089582E084BD93E058
:103EF00095BD9AEF97BD80936E0008952FB7F89403
:103F000080918D0590918E05A0918F05B0919005BF
:103F10002FBF08952FB7F89460918D0570918E058D
:103F200080918F05909190052FBF08959C014FB708
:103F3000F89480918D0590918E05A0918F05B09198
:103F400090054FBF821B930B0895CF92DF92EF92A3
:103F5000FF922FB7F894C0908D05D0908E05E09019
:103F60008F05F09090052FBFA7019601261B370BF8
:103F7000480B590BCA01B901FF90EF90DF90CF9029
:103F8000089578941F921FB61F9211248F939F93C8
:103F9000AF93BF9380918D0590918E05A0918F0571
:103FA000B09190050196A11DB11D80938D05909350
:103FB0008E05A0938F05B0939005BF91AF919F910F
:103FC0008F911F901FBE1F90189581E08093E00095
:103FD00080E28093D8001092C9008FE19EE401979F
:103FE000F1F700C0000087E090EBDC0180939E05B4
:103FF00090939F05A093A005B093A10588E19CE054
:104000000FB6F894A895809360000FBE909360005F
:10401000FFCF88E19CE00FB6F894A89580936000EC
:104020000FBE90936000FFCF80910E0408959B0116
:10403000BA01909195059430E9F48F708093E9006E
:104040009FEF8091E800915085FD06C085ED8A952F
:10405000F1F700009111F5CF8091E80085FF0AC0CB
:1040600050E040E0C9010E9421228091E8008E7753
:104070008093E800089543E050E0BC0182E00E9494
:104080001720089546E050E0BC0182E00E9417200E
:104090000895CF93DF93EC0180912C02811111C020
:1040A00048E050E0BE0181E00E94172080E2FE015E
:1040B000AEEEB3E001900D928A95E1F7DF91CF91DA
:1040C00008958091100487FF05C040E282E050E02F
:1040D000BE01EACF48E081E0FACF809194058111DA
:1040E00009C00E94B1230E940E248091E2008460E6
:1040F0008093E20008951092940508950E94EF1EA7
:1041000008956091910581E0611101C080E00E94F5
:10411000E61E08959091950581E0943009F080E0C5
:10412000609191050E94EC1E089542E061EC81E0EF
:104130000E942D2342E261EC82E00E942D239091A7
:10414000950581E0943009F080E0609191050E942E
:10415000DC1E089580919705833009F461C030F426
:104160008130D1F1823009F49EC008958A3009F47B
:104170008AC08B3009F46FC0893009F050C080913B
:104180009605813209F04BC080919A0590919B056C
:10419000029708F044C08091E800877F8093E80090
:1041A0008091E80082FF37C09091F3008091F20087
:1041B000029731F48091F100813011F0863021F4C2
:1041C0008091F10080930E048091E8008B778093BA
:1041D000E8000E94612323C080919605813AF9F49A
:1041E0008091E800877F8093E80080919A05909104
:1041F0009B05892B61F460E28EEE93E070E00E94F3
:1042000070228091E8008B778093E800089560E049
:1042100090E080E0F3CF809195058111C1CF0895A2
:1042200080919605813AD9F780919A0590919B05E6
:10423000892BA9F78091E800877F8093E80080911F
:10424000E80080FFFCCF80912C028093F1008091E8
:10425000E8008E77BCCF80919605813201F780917E
:104260009A0590919B05892BD1F68091E800877F74
:104270008093E8000E9461238091980580932C022E
:104280000E948807089580919605813241F68091B9
:10429000E800877F8093E8000E9461238091990560
:1042A00080930F04089580919605813A09F0B7CF65
:1042B0008091E800877F8093E8008091E80080FF8C
:1042C000FCCF80910F04C1CF84B7877F84BF0FB626
:1042D000F894A895809160008861809360001092A6
:1042E00060000FBE80E890E00FB6F8948093610004
:1042F000909361000FBE0E94F51E08950E94B123A5
:104300000E940E24E2EEF0E0808184608083789445
:104310000E948D26089584E292E00E94851D0895F2
:1043200080919505853031F480919505853019F09F
:104330000E94701F08950E94451F80919305882355
:1043400099F30E94021F882379F30E940B220E9496
:104350008807EACF08959A0140919C0550919D05E8
:104360000E94B3210895492F55274330510519F173
:1043700068F44130510509F444C04230510509F454
:1043800045C090E080E050E040E025C0413251055A
:1043900049F142325105A9F780E490E04FE155E040
:1043A00061157105C1F086EB90E049E654E061309B
:1043B000710589F0E6CF99278130910581F000974A
:1043C00029F00297F1F6E4EEF3E002C0E8E1F4E050
:1043D000849190E0AF01F901518340830895E6E0B4
:1043E000F4E0F6CF89E090E04EE254E0611571050B
:1043F00091F389E090E047E454E06130710559F3AE
:10440000C0CF82E190E047E554E0E5CF8BE390E058
:104410004CE154E0E0CF80E189BD82E189BD09B47F
:1044200000FEFDCF8091D8008F7D8093D8008091D1
:10443000E00082608093E0008091E00081FDFCCF8D
:104440000895AF92BF92CF92DF92FF920F931F9386
:10445000CF93DF936C01EB018A010E948023F82E39
:10446000811123C00115110539F0F8018081918176
:10447000C81BD90BC80ED91EB12CA12C2097A9F0AE
:104480008091E80085FD22C08091E8008E778093BE
:10449000E80001151105A1F0F80180819181A80EB5
:1044A000B91EB182A08285E0F82E8F2DDF91CF91C9
:1044B0001F910F91FF90DF90CF90BF90AF90089524
:1044C0000E9480238823D1F2F82EEFCFF60181914C
:1044D0006F018093F1002197FFEFAF1ABF0ACECF93
:1044E000FC0180919C0590919D0586179707A0F08F
:1044F0006115710529F49091E8009E779093E8008A
:1045000090E06115710551F4911108C08091E800A7
:1045100082FF34C080E00895BC01F2CF8091950500
:104520008823C1F18530C1F18091E80083FD30C05E
:104530008091E80082FDEACF8091E80080FFE1CF22
:104540008091F3002091F200382F6115710519F068
:104550002830310558F091E02830310509F090E01D
:104560002091E8002E772093E800CBCF81918093B3
:10457000F100615071092F5F3F4FE7CF80919505A2
:10458000882341F0853041F08091E80083FFBECF61
:1045900081E0089582E0089583E00895FC01809110
:1045A0009C0590919D0586179707A0F061157105F0
:1045B00029F48091E8008E778093E80090E06115FF
:1045C000710551F4911108C08091E80082FF35C057
:1045D00080E00895BC01F2CF809195058823C9F150
:1045E0008530C9F18091E80083FD31C08091E800F9
:1045F00082FDEACF8091E80080FFE1CF8091F30057
:104600002091F200382F6115710519F0283031051D
:1046100058F091E02830310509F090E08091E800F1
:104620008E778093E800CBCF84918093F100319610
:10463000615071092F5F3F4FE6CF80919505882328
:1046400041F0853041F08091E80083FFBDCF81E0EB
:10465000089582E0089583E00895982F973028F018
:104660008F708093E90081E008959093E900242FF2
:10467000762F50E0981731F07091EC002091ED000A
:104680005091F00021FD02C09F5FE8CF3091EB0018
:104690003E7F3093EB003091ED003D7F3093ED0095
:1046A0003091EB0031603093EB007093EC0020937D
:1046B000ED005093F0002091EE0027FDE5CF80E063
:1046C00008958091960587FF13C08091E80082FFCE
:1046D00006C08091E8008B778093E80004C0809149
:1046E00095058111F2CF0895809195058823D9F31E
:1046F0008091E80080FFF8CF8091E8008E77ECCFC2
:104700002091E4003091E50095E6A9012091EC00AC
:10471000822F817020FF06C08091E80080FF06C0D4
:1047200080E008952091E80022FD1AC0809195054F
:10473000882389F0853089F08091EB0085FD0FC0DA
:104740002091E4003091E50042175307F9F29150AF
:10475000E1F684E0089582E0089583E0089581E021
:1047600008950E9420240E942824E0EEF0E0808139
:1047700081608083E8EDF0E080818F77808319BCD1
:10478000A7EDB0E08C918E7F8C9380818F7E8083AB
:104790001092940508950F931F93CF93DF930E9477
:1047A00020240E942824C8EDD0E088818F77888358
:1047B00088818068888388818F7D888319BC109266
:1047C000950510929105109293051092920500EEB6
:1047D00010E0F80180818B7F8083888181608883ED
:1047E00042E060E080E00E942D23E1EEF0E0808175
:1047F0008E7F8083E2EEF0E0808181608083808123
:1048000088608083F80180818E7F808388818061C9
:104810008883DF91CF911F910F910895E8EDF0E02B
:1048200080818F7E8083E7EDF0E0808181608083EE
:1048300084E082BF81E0809394050E94CB23089599
:10484000E8EDF0E080818E7F80831092E200089591
:104850001092DA001092E10008951F920F920FB6A5
:104860000F9211242F933F934F935F936F937F93F6
:104870008F939F93AF93BF93EF93FF938091E1004A
:1048800082FF0BC08091E20082FF07C08091E100AF
:104890008B7F8093E1000E948C268091DA0080FF5C
:1048A00019C08091D80080FF15C08091DA008E7FFA
:1048B0008093DA008091D90080FF96C080E189BDA5
:1048C00082E189BD09B400FEFDCF81E080939505AA
:1048D0000E946D208091E10080FF19C08091E2006C
:1048E00080FF15C08091E2008E7F8093E20080916E
:1048F000E20080618093E2008091D8008062809322
:10490000D80019BC85E0809395050E948120809194
:10491000E10084FF2BC08091E20084FF27C080E18A
:1049200089BD82E189BD89B5982F917080FFFBCF49
:104930008091D8008F7D8093D8008091E1008F7E98
:104940008093E1008091E2008F7E8093E20080916D
:10495000E20081608093E20080919105882309F450
:1049600049C084E0809395050E948A208091E100EF
:1049700083FF29C08091E20083FF25C08091E10080
:10498000877F8093E10082E08093950510929105E6
:104990008091E1008E7F8093E1008091E2008E7F24
:1049A0008093E2008091E20080618093E20042E027
:1049B00060E080E00E942D238091F0008860809369
:1049C000F0000E947E20FF91EF91BF91AF919F91E7
:1049D0008F917F916F915F914F913F912F910F90A8
:1049E0000FBE0F901F90189519BC109295050E944C
:1049F0007B2070CF8091E30087FD93E09093950535
:104A0000B3CF1F920F920FB60F9211242F933F93A3
:104A10004F935F936F937F938F939F93AF93BF93C6
:104A2000CF93DF93EF93FF93D091E900DF708091F4
:104A3000EC00C82FC17080FDC0E81092E9008091A1
:104A4000F000877F8093F00078940E9445251092B3
:104A5000E9008091F00088608093F000CD2BCF704A
:104A6000C093E900FF91EF91DF91CF91BF91AF919A
:104A70009F918F917F916F915F914F913F912F9176
:104A80000F900FBE0F901F901895AAE2B0E0EBE4D4
:104A9000F5E20C94E52686E995E02091F100FC0111
:104AA0002193CF01F5E08E399F07B9F70E94AA2024
:104AB0008091E80083FF1EC1809196059091970533
:104AC0009A3008F017C1E92FF0E0E653F84D0C9446
:104AD000D026803899F0823809F00CC180919A056F
:104AE0008F70873008F006C18093E9008091EB0059
:104AF00085FB882780F91092E90006C08091920515
:104B000090919305911182609091E800977F909326
:104B1000E8008093F1001092F1008091E8008E7718
:104B2000E5C0882309F4D3C0823009F0E3C0809146
:104B300098058111D6C080919A058F702FEF280FAC
:104B4000263008F0D7C08093E9002091EB0020FFC9
:104B5000C8C0933031F48091EB0080628093EB0009
:104B6000C0C09091EB0090619093EB0021E030E0A9
:104B700001C0220F8A95EAF72093EA001092EA001A
:104B80008091EB008860EACF8111B4C01091980544
:104B90001F778091E3008078812B8093E3008091E0
:104BA000E800877F8093E8000E9461238091E800FD
:104BB00080FFFCCF8091E30080688093E30082E077
:104BC000111183E08093950595C08058823008F0DC
:104BD00091C080919805909199058C3D23E09207B2
:104BE000A1F583E08A838AE289834FB7F894DE01D6
:104BF000139620E03EE051E2E32FF0E0509357009F
:104C0000E49120FF03C0E295EF703F5FEF708E2FBD
:104C100090E0EA30C0F0C7968D939D932F5F2431CA
:104C200059F74FBF8091E800877F8093E8006AE2E0
:104C300070E0CE0101960E9470228091E8008B778F
:104C40008093E80057C0C096E7CF60919A057091B5
:104C50009B05AE014F5F5F4F0E94AB21BC01892BCA
:104C600009F448C09091E800977F9093E80089810B
:104C70009A810E94CE22E1CF8038E1F58091E80050
:104C8000877F8093E800809191058093F10045CF64
:104C9000811130C090919805923060F58091E800C4
:104CA000877F8093E800909391050E946123809113
:104CB0009105882311F084E005C08091E30087FD11
:104CC000FACF81E0809395050E94952013C08091D2
:104CD0009805813079F481E0933009F080E0809389
:104CE00093051092E9008091E800877F8093E800A7
:104CF0000E9461238091E80083FF0AC08091E80050
:104D0000877F8093E8008091EB0080628093EB00C6
:104D1000AA96E3E00C9401270895CF93809195051E
:104D20008823A1F0C091E900CF709091EC00892F09
:104D3000817090FD80E8C82B1092E9008091E80016
:104D400083FD0E944525CF70C093E900CF9108955F
:104D5000AA1BBB1B51E107C0AA1FBB1FA617B707A1
:104D600010F0A61BB70B881F991F5A95A9F78095BD
:104D70009095BC01CD01089597FB072E16F4009481
:104D800007D077FD09D00E94A82607FC05D03EF485
:104D9000909581959F4F0895709561957F4F0895E7
:104DA000EE0FFF1F0590F491E02D09942F923F9292
:104DB0004F925F926F927F928F929F92AF92BF922B
:104DC000CF92DF92EF92FF920F931F93CF93DF93D7
:104DD000CDB7DEB7CA1BDB0B0FB6F894DEBF0FBE34
:104DE000CDBF09942A88398848885F846E847D8481
:104DF0008C849B84AA84B984C884DF80EE80FD8083
:104E00000C811B81AA81B981CE0FD11D0FB6F894F8
:104E1000DEBF0FBECDBFED010895FB01DC0102C076
:104E200005900D9241505040D8F70895FB01DC01E8
:104E300004C08D910190801921F441505040C8F771
:104E4000881B990B0895FB01DC0102C001900D92B3
:104E500041505040D8F70895DC01CB01FC01F9998D
:104E6000FECF06C0F2BDE1BDF89A319600B40D92B6
:104E700041505040B8F70895F999FECF92BD81BDD9
:104E8000F89A992780B50895A8E1B0E042E050E093
:104E90000C942E27DC01A40FB51F4150504048F060
:104EA000CB01840F951F2E910E945B2741505040EB
:104EB000D0F70895262FF999FECF92BD81BDF89ABB
:104EC000019700B4021639F01FBA20BD0FB6F8944E
:104ED000FA9AF99A0FBE08950396272F0E945B272E
:104EE0000E945A27252F0E945B27242F0C945B27B2
:104EF0000196272F0E945B270C945A27F894FFCF26
:104F00006B056B05BC05BC052F064B069A059A057B
:104F10005006C106D006D006D01AD71ADE1AE31AF8
:104F2000E81AED1AF21AF71AFC1A011B061B0B1BE2
:104F3000D21AD21AD21AD21AD21AD21AD21AD21A11
:104F4000D21A691BDD1B711B3B1B3F1B751B431BCF
:104F5000791B851B4F1BD61B531B891B571B8D1B96
:104F6000B51B5B1B911BBC1B611B971B9F1B471B2E
:104F70007D1B4B1B811B651B9B1BAB1BC51BD41BCC
:104F8000351B6D1BE41B981C9E1C871C921CA41CCB
:104F9000AA1CB01C692591257A2691257A26C4255C
:084FA000E5257A263C2648268F
:104FA800000102030405060708090A0B0C0D0E0F81
:104FB800101112131415161718191A1B1C1D1E1F71
:104FC80020212223242526272829FF2A2B2C2D2E91
:104FD8002F3031323334353637FF38393A3B3CFFDE
:104FE800FF3DFFFF3EFF3F40FF414200000F001E14
:104FF800002D003C004B005A00690078008700969D
:1050080000A500B400CB00E00004101710261035EE
:1050180010441053106210711080108F109E10AD44
:1050280010BC10CE10E01006201A20292038204786
:105038002056206520742083209220A120B020C90A
:1050480020E02009302230313040304F305E306D62
:10505800307C308B309A30A930BD30D230E030020D
:10506800401540274060409840AB40C340D240E0E4
:1050780040010404040404040404040404040401B2
:1050880001040404040404040404040404040101E1
:1050980004040404040404040404040401010404CE
:1050A80004040404040404040404010101010401C7
:1050B800010101014403280850011E0A14010300DC
:1050C800FF00FFFF1420492042203B200100FFFF82
:1050D800E200E900EA00B500B600B700CD008301A0
:1050E800CC008A01920194012102230224022502A4
:1050F800260227022A02B300B4006F0070009F0145
:10510800CB01818283E200E900EA00B500B600B76E
:1051180000CD008301CC008A019201940121022371
:105128000224022502260227022A02B300B4006FD5
:105138000070009F01CB01818283F7F6F56730315B
:10514800323334979694959392F0F1F4C666CC185E
:065158006C19AA19C3182E
:00000001FF
