:100000000C94BF030C94F7030C94F7030C94F703C0
:100010000C94F7030C94F7030C94F7030C94F70378
:100020000C94F7030C94F7030C9450110C94A11743
:100030000C94C7240C94F7030C94F7030C94F70367
:100040000C94F7030C94F7030C94F7030C94F70348
:100050000C94F7030C9429120C94F7030C94F703F7
:100060000C94F7030C94F7030C94F7030C94F70328
:100070000C94F7030C94F7030C94F7030C94F70318
:100080000C94F7030C94F7030C94F7030C94F70308
:100090000C94F7030C94F7030C94F7030C94F703F8
:1000A0000C94F7030C94F7030C94F7030501090271
:1000B000A10185020901A1000509190129081500FE
:1000C0002501950875018102050109300931158165
:1000D000257F95027508810609381581257F9501D0
:1000E00075088106050C0A38021581257F95017572
:1000F000088106C0C005010980A101850319012AF4
:10010000B700150126B700950175108100C0050CD8
:100110000901A101850419012AA002150126A002E6
:10012000950175108100C005010906A1018506052C
:100130000719E029E71500250195087501810205D9
:1001400007190029EF1500250195F07501810205B9
:10015000081901290595057501910295017503910D
:1001600001C00660FF0961A1010962150026FF00B8
:100170009520750881020963150026FF00952075FA
:10018000089102C005010906A101050719E029E748
:1001900015002501950875018102950175088101F9
:1001A0000507190029FF150026FF0095067508812F
:1001B000000508190129059505750191029501753C
:1001C000039101C0000000000000000000000000DA
:1001D000000000000000000000000000000000001F
:1001E00000000000000000007E0F00D4FFFFFFC7EA
:1001F0000000007800000000000000002A2B28000A
:1002000000000000000000000000000000000029C5
:10021000000000002C1E3420212224342627252E05
:10022000362D3738271E1F2021222324252633333D
:10023000362E37381F0405060708090A0B0C0D0E69
:100240000F101112131415161718191A1B1C1D2F35
:100250003130232D350405060708090A0B0C0D0E55
:100260000F101112131415161718191A1B1C1D2F15
:100270003130354C0001010101010101010102028F
:100280000202020202020203030303030303030444
:10029000040404040404050505050506060606060F
:1002A000070707070708080808090909090A0A0AC9
:1002B0000B0B0B0C0C0C0D0D0D0E0E0E0F0F0F106B
:1002C00010111111121213131414151516161717F5
:1002D000181819191A1A1B1B1C1D1D1E1E1F202061
:1002E000212222232424252626272829292A2B2CAB
:1002F0002D2D2E2F30313232333435363738393ACE
:100300003B3C3D3E3F404142434445464748494AC5
:100310004C4D4E4F50515354555658595A5B5D5E93
:100320005F616264656668696B6C6D6F707273752E
:1003300077787A7B7D7E8082838587888A8C8E8F92
:1003400091939596989A9C9EA0A2A3A5A7A9ABADC0
:10035000AFB1B3B5B7BABCBEC0C2C4C6C9CBCDCFAE
:10036000D1D4D6D8DBDDDFE2E4E7E9EBEEF0F3F55C
:10037000F8FAFDFF009B8B7B00AB8A7A00AA9A7982
:1003800000A9998900A8988800A7978700A6968653
:1003900000A5958500A49484003C4C5C002C4D5D28
:1003A000002D3D5E002E3E4E003040500031415148
:1003B000002A3A4A00293949002838480027374797
:1003C0000026364600253556002445550034445451
:1003D00000AC9C8C00AD9D8D00AE9E8E00AF9F8FBB
:1003E00000B0A09000B1A19100324252002B3B4BD3
:1003F00001A9998901A8988801A7978701A69686DF
:1004000001A5958501A49484013C4C5C012C4D5DB3
:10041000012D3D5E012E3E4E012F3F4F01304050D9
:100420000033435301AB8A7A012838480127374704
:1004300001263646012535560124455501AC9C8CD4
:1004400001AD9D8D01AE9E8E01AF9F8F0131415157
:10045000013242520133435300B2A281019B8B7B94
:10046000012B3B4B012A3A4A0134445401B1A1917A
:1004700001B2A28101A3938300A3938300B392826C
:10048000165C1E001F002000210022002300240013
:100490002500260027002D002E002A004A002B00F0
:1004A00014001A000800150017001C0018000C00AA
:1004B000120013002F00300031004B0000570400E1
:1004C0001600070009000A000B000D000E000F00C7
:1004D00033003400000028004E00E1001D001B0026
:1004E0000600190005001100100036003700380022
:1004F0000157000052004D00E000E300E200000060
:1005000000002C000000000002570000E400500032
:10051000000051004F0035003A003B003C003D0018
:100520003E003F00400041004200430044004500BF
:100530004C00490001004A0052004D004B000100F0
:1005400001000100010001000100010001000100A3
:1005500046000100500051004F004E000100010014
:100560000100010001000100010000000100010084
:10057000010001000100B20001000100110A29037D
:100580000100010001000100000001000100010064
:1005900001000100000000004C000000000001000C
:1005A000000065610100000001000100350001004C
:1005B000010001000100010001005F006000610016
:1005C0000100560057000100A60001004A00520039
:1005D0004D004B00010001005C005D005E00010069
:1005E00055005400010001000100500051004F006F
:1005F0004E000100010059005A005B00010001009B
:10060000000001000100010001000100B200010032
:10061000010001006200620063005300010000005D
:10062000010001000100615D010000000000010007
:1006300000000000010000000100010000000100B6
:100640000100C25CCD5C01000100145CAA00A9009D
:10065000AE00A80001000100010001000100C75C1C
:100660000100010001000100010001000100010082
:1006700001000100010001000100005CC85C0100F4
:100680000100010001000100010001000100010062
:100690000100010001000000DE5CC55C01000100FA
:1006A0000100010001000100010010030100010030
:1006B000010001000000C35CC65C010001000100F4
:1006C00000000000010000000000105000000100C8
:1006D000CA5C0000C45CC95C09025B00030100A0A5
:1006E000FA090400000103010100092111010001C0
:1006F00022400007058103080001090401000203EC
:1007000000000009211101000122220007058203D7
:100710002000010705030320000109040200010372
:1007200000000009211101000122B6000705840321
:100730002000011201000200000008424B251202B5
:10074000000102000120036B0062006400360037E4
:10075000006D006B00690069007200670062002094
:100760000076003200000010034B00420044006697
:100770000061006E007300000004030904001124EE
:100780001FBECFEFDAE0DEBFCDBF04B603FE18C058
:100790008091890590918A05A0918B05B0918C0577
:1007A0008730904BA740B04B59F4109289051092B6
:1007B0008A0510928B0510928C05E0E0F8E309950C
:1007C00012E0A0E0B1E0E4EFF8E502C005900D9280
:1007D000A63CB107D9F725E0A6ECB2E001C01D9216
:1007E000A938B207E1F70E94EE240C944F2C0C9428
:1007F0000000E8EDF0E080818E7F80831092E200BF
:100800001092DA001092E100A0EEB0E08C918160CD
:100810008C9380818F77808319BCA7EDB0E08C9199
:100820008E7F8C9380818F7E8083109251050895F6
:100830002091E4003091E50095E6A9012091EC00BB
:10084000822F817020FF06C08091E80080FF06C0E3
:1008500080E008952091E80022FD1AC0809176057D
:10086000882389F0853089F08091EB0085FD0FC0E9
:100870002091E4003091E50042175307F9F29150BE
:10088000E1F684E0089582E0089583E0089581E030
:100890000895EF92FF920F931F93CF937C018B01EA
:1008A0000E941804C82F811117C08091E80085FDAF
:1008B0000BC08091E8008E778093E8000E941804B6
:1008C000882399F3C82F08C0F70181917F01809395
:1008D000F1000150110949F78C2FCF911F910F9111
:1008E000FF90EF9008958091780587FF13C0809165
:1008F000E80082FF06C08091E8008B778093E800D3
:1009000004C0809176058111F2CF0895809176051B
:100910008823D9F38091E80080FFF8CF8091E80028
:100920008E77ECCF982F9093E900242F762F50E00C
:10093000891731F07091EC002091ED005091F0009A
:1009400021FD07C09F5F973071F78093E90081E038
:1009500008953091EB003E7F3093EB003091ED0035
:100960003D7F3093ED003091EB0031603093EB0030
:100970007093EC002093ED005093F0002091EE0076
:1009800027FDE0CF80E00895B0E0A0E0EAECF4E0DD
:100990000C94902BC8EDD0E088818F7E8883E7EDA2
:1009A000F0E080818160808384E082BF81E0809379
:1009B000510588818E7F888302EE10E0F801108255
:1009C0001092DA0081EEC82ED12CF60110828881B7
:1009D0008F77888388818068888388818F7D8883EA
:1009E00019BC109276051092770510927505109239
:1009F000740590EEE92EF12CF70180818B7F8083C6
:100A000088818160888342E060E080E00E949204F7
:100A1000F60180818E7F8083F801808181608083F0
:100A2000808188608083F70180818E7F80838881C8
:100A300080618883CDB7DEB7E8E00C94AC2BFC0175
:100A400080917E0590917F0586179707A0F061152C
:100A5000710529F49091E8009E779093E80090E06A
:100A60006115710551F4911108C08091E80082FF71
:100A700034C080E00895BC01F2CF809176058823D0
:100A8000C1F18530C1F18091E80083FD30C08091D3
:100A9000E80082FDEACF8091E80080FFE1CF8091FD
:100AA000F3002091F200382F6115710519F02830FC
:100AB000310558F091E02830310509F090E020919F
:100AC000E8002E772093E800CBCF81918093F1004E
:100AD000615071092F5F3F4FE7CF809176058823E2
:100AE00041F0853041F08091E80083FFBECF81E086
:100AF000089582E0089583E0089508958091530554
:100B000008952FB7F89460914A0570914B05809134
:100B10004C0590914D052FBF089520914701222348
:100B2000C1F02091870527FF14C0E62FE695E695D2
:100B3000E695EE31F8F4E80FF92FF11D677021E02A
:100B400030E001C0220F6A95EAF78281822B82830E
:100B50000895FC0132962FEF30E04191641751F077
:100B60002F3F19F4411101C0232F3F5F3630A9F701
:100B70002F3F09F40895820F911D27FD9A95FC01DE
:100B80006283089520914705309148052817390759
:100B900071F09093480580934705E0914505F091E9
:100BA0004605309721F00084F185E02D09950895E0
:100BB00020914305309144052817390771F090932F
:100BC000440580934305E0914505F0914605309733
:100BD00021F00680F781E02D09950895E091450503
:100BE000F0914605309729F00190F081E02D0995AC
:100BF000089580E00895CF93DF93EC014091340590
:100C00005091350560913605709137052FB7F894EE
:100C100080914A0590914B05A0914C05B0914D05EE
:100C20002FBF841B950BA60BB70B843F9140A105EA
:100C3000B10518F58091340590913505A0913605E0
:100C4000B09137058093300590933105A09332051C
:100C5000B093330584EF91E0A0E0B0E080932C05E1
:100C600090932D05A0932E05B0932F05D0933C05AE
:100C7000C0933B05DF91CF9108950E948105609359
:100C8000300570933105809332059093330582E3EC
:100C900090E0A0E0B0E0E2CFFC018481862351F433
:100CA00092819923B9F06923808583FF05C081E093
:100CB00061110FC080E00895892F8F7092959F7009
:100CC000982B862F8F7062956F70682B81E096133A
:100CD000F1CF089581E0FDCFFA01811101C0FB0140
:100CE00009950895EAECF3E0248130E1231B08F430
:100CF00020E024838091C90381608093C903089513
:100D0000EAECF3E0248130E1230F08F42FEF248391
:100D10008091C90381608093C90308959091CA03AB
:100D2000937059F08093CB036093CC034093CD0331
:100D30008091C903822B8093C9030895EAECF3E004
:100D4000438120E1421B08F440E0818121E062817F
:100D500090E00E948E060895EAECF3E0438120E1E2
:100D6000420F08F44FEF818121E0628190E00E9400
:100D70008E060895EAECF3E0628120E1621B08F43C
:100D800060E0818121E0438190E00E948E06089519
:100D9000EAECF3E0628120E1620F08F46FEF8181F9
:100DA00021E0438190E00E948E060895EAECF3E092
:100DB000818121E0438162818850990B0E948E06D7
:100DC0000895EAECF3E0818190E021E043816281C3
:100DD00008960E948E0608958091CA03837051F090
:100DE00084608093CA03109246018091C903862BC8
:100DF0008093C90308958091CA0386958695815092
:100E000009F481E061E00E94EC06089561E081E070
:100E10000E94EC0608950E945C0E0895B0E0A0E0E8
:100E2000E4E1F7E00C948B2B182F809142018113A1
:100E300021C09091CA0393702091410130E081E07C
:100E40009217130609F480E0817080934501809128
:100E5000CF0390914401981739F08093440140E00A
:100E600060E080E00E940B07112331F0113071F037
:100E700080E02DC081E0E8CF80914501882339F1E1
:100E800040E060E080E00E940B07F2CF90904301C9
:100E9000990C990C04E0090D802E043410F023E421
:100EA000822E4091CB03D090CC03E091CD03F0E0B3
:100EB000EC58FD4FD11023C0F490DF2DCF2DC92C5D
:100EC000D12CC81408F48FC081E0033488F69091C7
:100ED00043019F5F9093430181110CC082E0809396
:100EE000460180914501811105C0111103C083E0C5
:100EF00080934601CDB7DEB7EDE00C94A72BED2C27
:100F0000F12CC4917C2EEC2FF0E026E0429FC00132
:100F100011242FEF30E0B9010E94722B842F90E052
:100F2000880F991FA5E5A69FA001A79F500D11242A
:100F3000841B950BC82ECC0CC80ED901AE19BF0965
:100F4000AE9FA001AF9F500DBE9F500D1124D52F15
:100F5000DC9CD0011124AB2FBB27C9018A1B9B0B42
:100F60008E9FD0018F9FB00D9E9FB00D112459010F
:100F7000AC18B108AE9C6001AF9CD00CBE9CD00CEC
:100F80001124CD2CDD242C193D092E9FC0012F9F4B
:100F9000900D3E9F900D1124F92E62307105A1F045
:100FA00050F46115710509F48ACF6130710581F043
:100FB000F52EDB2F84CF6430710569F080F0663048
:100FC000710509F47CCFF4CFFC2EC52FD92F77CF34
:100FD000FC2ECB2F74CFF52EDC2FC92F70CFC52F51
:100FE000D72DFB2E6CCFF601EC58FD4F80819091F0
:100FF0004401892331F02D2F4F2D6C2FC6010E9403
:101000001E0E8FEFC81AD80A5CCF40919303803F21
:1010100059F48091940387FF0DC0109294034111FD
:101020000BC010928B0308C0813F81F48091940320
:1010300018169CF3442381F08091950390919603B8
:10104000892B09F05AC010928A030895823F49F40F
:1010500047FFF0CF10929303809194038111ECCF5E
:10106000E0CF833F19F41416ACF3E4CF90919503CD
:10107000893F29F41916F4F610929503DBCF8A3FC5
:1010800019F497FFD7CFF8CF909196038B3F29F4AF
:1010900097FFD0CF10929603CDCF8C3F19F419163D
:1010A000CCF3C8CF9CE0980F953090F4845F990BF7
:1010B00021E030E0B90102C0660F771F8A95E2F7A0
:1010C000CB01809590919203892380939203B2CFB4
:1010D0008D3F31F480918C038E7F80938C03AACF57
:1010E0008E3F21F480918C038D7FF7CF8F3F09F0E5
:1010F000A1CF80918C038B7FF0CF089580918C03DA
:1011000080FD16C081FD16C082FD16C080918A0345
:101110008823A1F0883280F428E0829FC001112446
:1011200068E270E00E94BD2B862F672B39F008958E
:1011300082E0089584E0089588E0089581E00895AC
:1011400080918C0380FD14C081FD14C082FD16C007
:1011500080918B03882381F08E3180F420E5829F7B
:10116000C00111246EE170E00E94BD2B862F08950E
:1011700084E1089588E2089588E0089580E508955F
:10118000803F31F40E94A0088195809394030895D4
:10119000813F19F40E94A008F8CF823F31F40E94E9
:1011A000A0088195809393030895833F19F40E94CA
:1011B000A008F8CF893F29F40E947E088093950308
:1011C00008958A3F21F40E947E088195F7CF8B3FD6
:1011D00031F40E947E0881958093960308958C3F98
:1011E00019F40E947E08F8CF9CE0980F953070F4B7
:1011F000845F990B21E030E001C0220F8A95EAF765
:1012000080919203822B8093920308958D3F31F455
:1012100080918C03816080938C0308958E3F21F42C
:1012200080918C038260F7CF8F3FB9F780918C0358
:101230008460F1CF80E00895F894E82FE295EF7094
:10124000F0E031A1282F2F7081E090E001C0880FDD
:101250002A95EAF7982F9095932391A392A1892B31
:1012600082A3789408959091870592FF06C0282F55
:1012700028712830F9F4877F846093FF06C0282FF7
:1012800028712831F1F4877E84612091880520FF40
:1012900006C0382F38713830D9F4877F816021FF3C
:1012A00006C0282F28712831D1F4877E816194FDF2
:1012B000877E0895282F24712430F9F68B7F88606B
:1012C000DCCF282F2471243101F78B7E8861DDCF9C
:1012D000382F3171313019F78E7F8860E0CF282F99
:1012E0002171213121F78E7E8861E1CFCF93DF9389
:1012F000EC0182389105B1F108F040C081339105CD
:1013000009F49DC048F58932910509F48DC08A978A
:1013100009F49CC0C11521E5D20708F0C3C0C1156E
:1013200030E5D30708F01BC1C83ED10508F0A3C0C3
:10133000C03ED10588F5C83AD10508F08EC0C53A3F
:10134000D10508F004C1C130D10531F1209721F158
:10135000C430D10508F545C08533910509F45FC057
:10136000C997C1F680918705837009F049C18091C2
:10137000880583FF11C0C9E2D0E00EC0833E91050D
:1013800099F170F4803E910501F1823E910511F6CC
:101390008091870582FD21C0CE01DF91CF91089514
:1013A000863E910561F1873E910571F1843E91057C
:1013B00009F0B0CF8091880581FFEECF809187053D
:1013C000C7EED0E084FD0DC0E7CF8091870580FD9A
:1013D00033C09091880590FFDFCFC3EED0E084FF4B
:1013E000DBCFD0E0C0E0D8CF8091870582FD05C17A
:1013F0009091880590FD04C184FFCECFF2CF8091FB
:10140000870583FDDDCFC8CF8091870583FDFBC0B5
:101410009091880591FFF0CFC4EED0E0BDCF8091D0
:10142000870585FFB9CFA7CF8091870585FDEEC0E1
:101430008091880583FFB0CFC9E3D0E0ADCF809124
:10144000870586FFA9CFCAE2D0E0A6CF80918705A5
:1014500086FFA2CFC1E3D0E09FCFCF3BD10508F6F6
:10146000C85AD0E0CC0FDD1FC35ADE4F0990D88197
:10147000C02DD46491CFC11540E2D40758F4C115F2
:1014800081E0D80708F088CFC03FD10508F4A9CF84
:10149000D06582CFC11590E4D90708F4A2CFDF70E0
:1014A000D06A7ACFC11525E5D20700F5C11534E51C
:1014B000D30708F08AC0C11543E5D40708F071C00E
:1014C000C11582E5D80708F467C0CE01837099275B
:1014D00021E030E002C0220F331F8A95E2F7C69563
:1014E000C69580E2C89FE001112452C0C11599E55C
:1014F000D907A8F4C11528E5D20708F06BC0C115BB
:1015000036E5D30708F06DCF8C2F0E943309C82F22
:10151000D0E0DC2FCC27CC27DF71D0623DCFC115C6
:101520004AE5D40708F45BC0CE019056811590427D
:1015300008F057CF8D2F8F710E94330990E0982FBC
:10154000882788279F719C012C2BE901E6CFC55A7B
:10155000D0E0C65ADE4FC881D0E0D0641DCFCE01A6
:10156000E4E096958795EA95E1F783702C2F269510
:101570002695237040E2249F90011124382B8C2F54
:101580008370C1E0D0E002C0CC0FDD1F8A95E2F786
:10159000C22BD32BDC6800CFDC2FCC27C16FD06AE5
:1015A000FBCECE018370992721E030E002C0220FEC
:1015B000331F8A95E2F7C695C69590E2C99FE00170
:1015C0001124C22BD32BDA68E7CEDC2FCC27C46FD3
:1015D000D06AE2CEDC2FCC27C06FD06ADDCE8C2F54
:1015E0008F700E94330934E0D695C7953A95E1F79C
:1015F000CF709C2FEC01D069CFCEC2EED0E0CCCE24
:10160000C0EED0E0C9CEC6EED0E0C6CEC5E3D0E095
:10161000C3CE80916303882331F01092630310924C
:10162000620310926103089580959091400598237C
:10163000909340050895909147019923D1F090919E
:10164000870597FF16C0E82FE695E695E695EE31FB
:10165000E0F4F0E0E853FD4F282F277081E090E0A0
:1016600001C0880F2A95EAF78095928189238283A9
:101670000895EAECF2E09191891303C0DF0111971C
:101680001C9292E0E03DF907B1F708958091400384
:1016900090910F03981301C008958F5F8770FACF60
:1016A000292F953078F58F3068F590E03FE0239F43
:1016B000800D911D1124682F677023E09695879502
:1016C0002A95E1F7FC01EE0FFF1FE80FF91FE55126
:1016D000FD4F50E040E080E0219130E0062E02C056
:1016E000369527950A94E2F721703327042E01C01E
:1016F000220F0A94EAF7822B4F5F5F4F4330510568
:1017000059F7089580E00895292F953098F58F3086
:1017100088F590E03FE0239F800D911D1124282F34
:10172000277041E001C0440F2A95EAF723E096951F
:1017300087952A95E1F7FC01EE0FFF1FE80FF91FCF
:10174000E551FD4F30E020E070E05191DF0111974D
:10175000CB01022E02C0969587950A94E2F781701C
:1017600081958527842385278C932F5F3F4F2330D6
:10177000310559F70895982F92959F7011F0892F90
:1017800094E0282F2695269511F09E5F822F86954E
:1017900009F09F5F892F08959C013A9521153F41DB
:1017A00050F5FC01EE27F170BC0166277270AC01A8
:1017B000442754709C012227387094FF0EC080E1AA
:1017C000EF2B09F480E0672B09F08062452B09F0CC
:1017D0008064232B89F08068089581E0EF2B09F461
:1017E00080E0672B09F08260452B09F08460232B91
:1017F00019F08860089580E00895FC01928191308D
:1018000029F4858180FF06C083E00895923021F09D
:1018100081E0089582E0089584E0089580934E0564
:101820007093500560934F05809176058430F9F4EC
:101830008093E9008FEF9091E800815095FD06C0FC
:1018400095ED9A95F1F700008111F5CF8091E800B0
:1018500085FF0DC050E040E063E070E08EE495E06D
:101860000E9449048091E8008E778093E8000895F3
:10187000BC0184E00E940E0C0895BC0183E00E942C
:101880000E0C08959C0184E08093E9009FEF809105
:10189000E800915085FD06C085ED8A95F1F70000BE
:1018A0009111F5CF8091E80085FF0CC050E040E039
:1018B00066E070E0C9010E9449048091E8008E77DB
:1018C0008093E8000895CF93DF93EC018091470166
:1018D0008823B1F18091870587FF32C060E284E000
:1018E0008093E9008FEF9091E800815095FD06C04C
:1018F00095ED9A95F1F700008111F5CF8091E80000
:1019000085FF1BC08091470170E050E040E08111ED
:1019100004C050E040E068E070E0CE010E9449045D
:101920008091E8008E778093E80080E2FE01A4E5D4
:10193000B5E001900D928A95E1F7DF91CF9108957E
:1019400068E081E0CDCF81E08093E00080E2809389
:10195000D8001092C9008FE19EE40197F1F700C012
:10196000000087E090EBDC018093890590938A0565
:10197000A0938B05B0938C0588E19CE00FB6F8949A
:10198000A895809360000FBE90936000FFCFCF9327
:10199000DF93CFE7D2E060E0CE010E942B2C2196AE
:1019A000C11584E0D807B9F7DF91CF9108951F934F
:1019B000CF93DF93122F8430E0F46530D0F44F30B2
:1019C000C0F4C42FD0E0CC0FDD1F9EE1699FC00D95
:1019D000D11D112496E9899FC00DD11D1124632FBB
:1019E000CE0187960E942B2C612FCE0188960E94F3
:1019F0002B2CDF91CF911F910895AF92BF92CF9280
:101A0000DF92EF92FF921F93CF93DF9380E8C82E6F
:101A100084E0D82ED0E07601C0E014C0F501259115
:101A20003491412F6C2F8D2F0E94D70C82E0A80E8D
:101A3000B11C1F5F1F3091F78EE1E80EF11CCF5FE4
:101A4000C53019F0570110E0E9CFDF5F86E9C80E15
:101A5000D11CD43001F7DF91CF911F91FF90EF900F
:101A6000DF90CF90BF90AF900895CF93C82F6FEFC6
:101A7000811161E283E290E00E942B2C6FEFC11193
:101A800067E084E290E00E942B2C6FEFC11165E1CA
:101A900085E290E00E942B2CCF91089580E00E9477
:101AA000350D60E086E290E00E942B2C0E94FD0C38
:101AB0000E94C70C81E00E94350D08950F931F937B
:101AC000CF93DF93843030F5653020F54F3010F53B
:101AD000C42FD0E0CC0FDD1F2EE1629FC00DD11DC1
:101AE000112436E9839FC00DD11D1124CE018796A4
:101AF0000E940D2C082F10E0102F0027CE01889691
:101B00000E940D2C9801282BC901DF91CF911F91C4
:101B10000F91089590E080E0F8CF462F843040F494
:101B2000753030F46F3020F4672F0E945E0D0895F9
:101B300090E080E00895CF92DF92FF920F931F9381
:101B4000CF93DF936C010091830580916403082B90
:101B5000C7E0D0E010E0FC2EC8010C2E02C0959525
:101B600087950A94E2F780FD0CC02197A0F7F12C2D
:101B70008F2DDF91CF911F910F91FF90DF90CF902C
:101B80000895B6018C2F0E948D0D0E947609019751
:101B900061F3EECFCF93DF93EC010E949B0DBE016A
:101BA0000E948D0D0E947609DF91CF910895FC016E
:101BB000808191810E94CA0D92959F70963091F01C
:101BC00058F4925F9F70923058F4803F19F030F4CF
:101BD000883E30F481E008959A5FF4CF843FD1F3DA
:101BE00080E00895883EB0F3813FD1F7F3CF83E2E0
:101BF00090E00E940D2C813289F484E290E00E94F2
:101C00000D2C873059F485E290E00E940D2C91E074
:101C1000853109F090E0892F8170089580E0FCCF34
:101C2000CF9384E090E00E940D2CC82F82E290E0D8
:101C30000E940D2C982F8C2FCF910895A4E0B0E036
:101C4000E4E2FEE00C94932BF62E042F122F833443
:101C5000910570F5880F991F880F991FBC016C586A
:101C60007C4F44E050E0CE0101960E94DE2B89813A
:101C70008370EA81282F30E040E9849FC00111245D
:101C80008A519C4FE80FF92FF11DB497F082EB8138
:101C9000E80FF92FF11DB4970083EC81E80FF92FBD
:101CA000F11DB49710832C513C4F81E0F9018083E2
:101CB0002496E5E00C94AF2BFF920F931F93CF93E4
:101CC000DF93182F062FF42ED0E0C0E02F2D402FE9
:101CD000612FCE010E941E0E2196C334D105B1F7AB
:101CE000CDB7DEB7E5E00C94AF2B0F931F93CF93E6
:101CF000DF93082F000FEB0114E21093D003E1ED06
:101D0000F3E0DE018D91819383E0E13EF807D1F7A6
:101D100024E630E041E150E060ED73E0802F0E9466
:101D2000512B105F6096143B41F7DF91CF911F91CB
:101D30000F9108958091E403882329F066EE73E003
:101D400084E70E94750E1092E4038091E5038823D6
:101D500029F066E774E087E70E94750E1092E503AC
:101D60000895E0EDF3E06083418324E630E042E053
:101D700050E0BF01880F0E94512B0895EF92FF920F
:101D80000F931F93CF93DF93E82E062F10E0065D8D
:101D90001A4FF8018081882381F0F2E16F9FE00102
:101DA0001124CA5FDA4FF12C49916F2D8E2D0E94BC
:101DB000B10EF39482E1F812F7CFF8011082CDB79B
:101DC000DEB7E6E00C94AE2BCF93DF93C82F4BE049
:101DD0006DEF0E94B10E40E06AE08C2F0E94B10EC0
:101DE0008FE39CE90197F1F700C0000040E060E05C
:101DF0008C2F0E94B10E40E061E08C2F0E94B10E4A
:101E000040E066E08C2F0E94B10E40E06DEF8C2F19
:101E10000E94B10ED0E040E06D2F8C2F0E94B10ED9
:101E2000DF5FD231C1F740E06D2F8C2F0E94B10EE1
:101E3000DF5FD432C1F740E06D2F8C2F0E94B10ECE
:101E4000DF5FD43BC1F74BE06DEF8C2F0E94B10EEA
:101E500041E06AE08C2F0E94B10E40E06DEF8C2FC4
:101E60000E94B10EDF91CF910895A4E0B0E0EBE3C2
:101E7000FFE00C948A2B0E94B12A84E70E94E40EB2
:101E800087E70E94E40E04E713E052E1752E68E054
:101E9000C62ED12CEE24E394F12C6624639444E006
:101EA00050E0B801CE0101960E94DE2B4A8150E03D
:101EB000CA0184972B81622F6452770B4B012C81CE
:101EC000E22FE452FF0B5F012981237030E0FC0117
:101ED00097FD379643E0F595E7954A95E1F7729EB1
:101EE000A001739E500D11244A5F5A4FE40FF52F45
:101EF000F11DB6010E94BD2BA70101C0440F8A95B8
:101F0000EAF78081842B8083F40197FC379693E075
:101F1000F595E7959A95E1F7729EC001739E900D35
:101F200011248A5F9A4FE80FF92FF11DC401B60101
:101F30000E94BD2BA70101C0440F8A95EAF780815A
:101F4000842B8083F501B7FC379683E0F595E79500
:101F50008A95E1F7729EC001739E900D11248A5FED
:101F60009A4FE80FF92FF11DC501B6010E94BD2B54
:101F7000A70101C0440F8A95EAF78081842B8083F2
:101F8000265D3A4FF90160820C5F1F4FF4E0003884
:101F90001F0709F084CF60E084E70E94BE0E61E075
:101FA00087E70E94BE0E2496EEE00C94A62B46E036
:101FB00050E06CE170E08AEC93E00E941B2C1092E0
:101FC000C90308954F925F926F927F928F929F9272
:101FD000AF92BF92CF92DF92EF92FF92CF93C090D9
:101FE000C003D090C103E090C203F090C3038FB749
:101FF000F89440904A0550904B0560904C057090C5
:102000004D058FBF530142018C189D08AE08BF08D3
:102010000E9481056093C0037093C1038093C20343
:102020009093C303A0919703E7E9F3E02A2F30E0F0
:102030004FEFC40ED41EE11CF11CC418D508E608ED
:10204000F708A31329C0209397032091C803C0E089
:10205000211108C02091CA03C22FC37019F0C22FEA
:10206000C695C695209146012130B9F1222339F158
:10207000223009F45BC0233009F463C0CF91FF9094
:10208000EF90DF90CF90BF90AF909F908F907F9018
:102090006F905F904F900895418D528D2A01712C61
:1020A000612CC414D504E604F70420F421503F5FEA
:1020B0003296C7CF480D591D528F418FF8CF1092DD
:1020C00043016093C4037093C5038093C603909348
:1020D000C70381E080934601D1CF8C2F0E940E0769
:1020E000CC2361F20E94EE0581FF07C02FEF4FEF76
:1020F0006FEF8EE190E00E941E0E809183050E949A
:10210000BB0B823059F0833069F0813009F0B6CFD3
:1021100041E16CEC8AEA0E940B07B0CF40E069E92C
:102120008FEFF9CF47E760E08EEEF5CFC093420125
:102130008091CA038370809341010E949A0E83E0CC
:10214000C9CF8091C90381110E94D70F4091C40368
:102150005091C5036091C6037091C7032FB7F894DF
:1021600080914A0590914B05A0914C05B0914D0589
:102170002FBF841B950BA60BB70B4A97A105B10582
:1021800008F47CCF1092460179CFEAECF3E085E0C9
:1021900080838091480190914901A0914A018183F7
:1021A0009283A3838FE784838FEF85830E94D70F69
:1021B000089590E080E00E94152C883E9E4F19F40F
:1021C0000E94F70D089580E0089568EE7EEF90E09C
:1021D00080E00E94492C60E082E090E00E942B2C7D
:1021E00060E083E090E00E942B2C1092640360E09A
:1021F00084E090E00E942B2C64E082E290E00E9458
:102200002B2C60E085E090E00E942B2C60E086E0C3
:1022100090E00E942B2C6FEF87E090E00E942B2C27
:1022200040E050E0BA0188E090E00E943D2C60E080
:102230008DE090E00E942B2C40E050E0BA0188E154
:1022400090E00E943D2C60E087E190E00E942B2C02
:1022500040E050E0BA018CE190E00E943D2C70E03B
:1022600060E080E290E00E94492C40E050E0BA013A
:1022700088E190E00E943D2C80E00E94350D0E9494
:102280004E0D40E050E0BA018FE090E00E943D2CFE
:1022900040E050E0BA0183E190E00E943D2C0895B7
:1022A0001F920F920FB60F9211242F933F934F93CB
:1022B0005F936F937F938F939F93AF93BF93EF93AE
:1022C000FF938091E10082FF09C08091E20082FFCC
:1022D00005C08091E1008B7F8093E1008091DA005E
:1022E00080FF24C08091D80080FF20C08091DA0058
:1022F0008E7F8093DA008091D90080FF9DC080E1BD
:1023000089BD82E189BD09B400FEFDCF81E08093E3
:10231000760580915105811109C00E94F9030E9440
:10232000C4048091E20084608093E2008091E10027
:1023300080FF17C08091E20080FF13C08091E2000F
:102340008E7F8093E2008091E20080618093E200C2
:102350008091D80080628093D80019BC85E080937A
:1023600076058091E10084FF2BC08091E20084FF1C
:1023700027C080E189BD82E189BD89B5982F917020
:1023800080FFFBCF8091D8008F7D8093D800809113
:10239000E1008F7E8093E1008091E2008F7E809348
:1023A000E2008091E20081608093E20080917705F5
:1023B000882309F447C084E08093760580917605F0
:1023C0008091E10083FF27C08091E20083FF23C05A
:1023D0008091E100877F8093E10082E08093760521
:1023E000109277058091E1008E7F8093E1008091CB
:1023F000E2008E7F8093E2008091E2008061809312
:10240000E20042E060E080E00E9492048091F000EF
:1024100088608093F000FF91EF91BF91AF919F9101
:102420008F917F916F915F914F913F912F910F907D
:102430000FBE0F901F90189519BC10927605109240
:10244000510574CF8091E30087FD93E0909376056A
:10245000B5CF78941F921FB61F9211248F939F932C
:10246000AF93BF9380914A0590914B05A0914C0585
:10247000B0914D050196A11DB11D80934A05909321
:102480004B05A0934C05B0934D05BF91AF919F9123
:102490008F911F901FBE1F9018959C014FB7F89405
:1024A00080914A0590914B05A0914C05B0914D0546
:1024B0004FBF821B930B08952FB7F89480914A0564
:1024C00090914B05A0914C05B0914D052FBF0895FB
:1024D0000E945C129C019091930380919403982B2D
:1024E00021F03093900320938F0390919503809176
:1024F0009603982B21F030938E0320938D03E09167
:102500004505F0914605309749F082E080939103AC
:102510000480F581E02D81E993E009950895AAE012
:10252000B0E0E5E9F2E10C948C2B8E010F5F1F4FB8
:102530008AE0F80111928A95E9F79BE8E92E91E08B
:10254000F92E6801AA24A394B12CF70181917F018F
:102550008F3F09F446C0F894E82FE295EF70F0E061
:1025600021A18F70A50102C0440F551F8A95E2F783
:10257000CA01922F982B91A392A18095892382A3BF
:10258000789400C0E0E9F1E021E030E0912C812C6A
:1025900041914F3F09F467C0A42FA295AF70B0E0FE
:1025A00090968C9190E04F7002C0959587954A95D2
:1025B000E2F780FD58C0C901882A992A220F331FEB
:1025C00051E0EF39F50721F7F701319780818F3F0F
:1025D00011F00E941C0980EA8A95F1F7F6019182B8
:1025E0008082F2E0CF0ED11C40E9E41641E0F4060F
:1025F00009F0ABCF4AE050E0B80188E693E00E94D2
:10260000E72B892B99F18AE0F801A8E6B3E0019065
:102610000D928A95E1F781E0809367030E945C1236
:1026200090936603809365038091650390916603A0
:102630000E944D120397F0F04AE050E068E673E024
:1026400080E893E00E94E72B892BC9F08AE0E8E656
:10265000F3E0A0E8B3E001900D928A95E1F781E004
:102660001092670308C090E080E0A6CF80916703D6
:102670008111DACF80E02A96ECE00C94A82B80E060
:10268000EFCFCF938091400590913F05892B8093A8
:10269000C80280916303882339F10E945C12209163
:1026A000610330916203821B930B8C3D954010F0C7
:1026B0000E94090B8091C80290916303892B80933B
:1026C000C80280914701882309F447C0809187059B
:1026D00087FF43C08EE1EAECF2E090E0815008F021
:1026E0003EC091110E94090BC0913805C0958091A0
:1026F000C802C82380913905C82BC093C80240E2A4
:1027000050E061E473E088EC92E00E94E72B892BB3
:1027100011F180E2E8ECF2E0A1E4B3E001900D9267
:102720008A95E1F7E0914505F0914605309799F0DB
:1027300080914701882349F08091870587FF05C074
:10274000C093C90286E08093C8020280F381E02D25
:1027500088EC92E00995CF91089586E0BCCF219155
:10276000222309F4BBCF9F5FB9CFCF93DF93EC0156
:10277000EA85FB85309719F06C857D8509958B81FD
:10278000982F909580913F05892380933F058C81F8
:102790000E94140B0E94411386E0FE0111928A955B
:1027A000E9F7DF91CF910895CF93DF93EC018D810D
:1027B00081FD18C082608D8380913F059B81892BAC
:1027C00080933F05809140059C81892B8093400533
:1027D0000E944113E885F985309721F06C857D854D
:1027E000CE01099510924205109241058D8180FD20
:1027F00003C0CE010E94B513DF91CF91089590E000
:1028000080E00E94D80590E080E00E94C20510920E
:102810003F050E94411386E0E1E9F3E0DF011D92EC
:102820008A95E9F710928B0310928A0310928C0319
:102830000E9468120895809383050E94FF130895F3
:1028400080918305982F9670963021F488600E94BD
:102850001B140895877FFBCF21E030E001C0220FD9
:102860008A95EAF720958091830582230E941B14A4
:102870000895909186058095892380938605282F59
:102880002770B1F4282F082E000C330B9217130673
:1028900079F09091880592FF0BC085958595859577
:1028A0000E942C14109286051092850510928405C2
:1028B0000895CF93C0918805C2FB992790F9981786
:1028C00091F080FBC2F9C09388056091870584E090
:1028D00090E00E942B2C6C2F82E290E00E942B2C27
:1028E00082E00E943914CF910895809107018330CE
:1028F00019F482E00E942C14089580910501833020
:1029000019F481E00E942C1410920501089521E031
:1029100030E001C0220F8A95EAF780918305822B6F
:102920000E941B1408959091880592FF10C098E0B2
:10293000899F900111242360209386050E948714AB
:102940000E945C12909385058093840508950E94EF
:10295000871408950E94FD0B809307018330A1F036
:10296000843041F0823099F40E94931481E00E94F7
:102970003914089580918305882331F082FF04C0C3
:1029800082E00E942C14089582E00E94871408952A
:10299000809364030E94FF13089510924005809174
:1029A0004701EAECF2E0882361F08091870587FF18
:1029B00008C08EE1DF011D928A95E9F70E94FF139E
:1029C000089586E0F7CFAAE2B0E0E9EEF4E10C94D6
:1029D000952B88E795E02091F100DC012D93CD0146
:1029E000B5E080389B07B9F780917905833009F409
:1029F00072C0B8F4813009F449C0823009F4B3C020
:102A00008091E80083FF8BC28091780590917905D1
:102A10009A3008F084C2E92FF0E0EF5AF34D0C949D
:102A2000D12B8A3009F48EC08B3009F471C0893003
:102A300039F780917805813219F780917C05909162
:102A40007D05009711F00297D9F68091E800877F05
:102A50008093E8008091E80082FF38C09091F300F5
:102A60008091F200029731F48091F100813011F0F1
:102A7000863021F48091F100809353058091E80025
:102A80008B778093E8000E947304BACF8091780519
:102A9000813A09F0B5CF8091E800877F8093E80004
:102AA00080917C0590917D05892B61F460E284E53D
:102AB00095E070E00E941F058091E8008B7780937D
:102AC000E8009ECF60E090E080E0F3CF8091760553
:102AD0008111C0CF95CF80917805813A09F090CFD0
:102AE00080917C0590917D05892B09F089CF80919B
:102AF000E800877F8093E8008091E80080FFFCCFAA
:102B0000809147018093F1008091E8008E77B9CFE2
:102B100080917805813209F073CF80917C05909186
:102B20007D05892B09F06CCF8091E800877F809329
:102B3000E8000E94730480917A05809347010E9407
:102B4000CD145ECF80917805813209F059CF809104
:102B5000E800877F8093E8000E94730480917B05E2
:102B6000809352054DCF80917805813A09F048CF86
:102B70008091E800877F8093E8008091E80080FFE3
:102B8000FCCF80915205BECF803899F0823809F091
:102B9000C6C180917C058F70873008F0C0C18093DA
:102BA000E9008091EB0085FB882780F91092E9000D
:102BB00006C0809174059091750591118260909185
:102BC000E800977F9093E8008093F1001092F10065
:102BD0008091E8008E779FC1882309F48DC18230EF
:102BE00009F09DC180917A05811190C180917C0589
:102BF0008F702FEF280F263008F091C18093E900E5
:102C00002091EB0020FF82C1933031F48091EB00E2
:102C100080628093EB007AC19091EB009061909379
:102C2000EB0021E030E001C0220F8A95EAF7209303
:102C3000EA001092EA008091EB008860EACF8111EF
:102C40006EC110917A051F778091E3008078812B07
:102C50008093E3008091E800877F8093E8000E94E2
:102C600073048091E80080FFFCCF8091E3008068CE
:102C70008093E30082E0111183E0809376054FC1D9
:102C80008058823008F04BC120917A0530917B0545
:102C90002C3DE3E03E07A1F583E08A838AE2898345
:102CA0004FB7F894DE01139620E03EE051E2E32FA7
:102CB000F0E050935700E49120FF03C0E295EF70DD
:102CC0003F5FEF708E2F90E0EA30C0F0C7968D9393
:102CD0009D932F5F243159F74FBF8091E800877F84
:102CE0008093E8006AE270E0CE0101960E941F0521
:102CF0008091E8008B778093E80011C1C096E7CF00
:102D000080917C0590917D05432F552743305105D7
:102D100009F44AC078F54130510509F47AC08BE5D1
:102D200090E0E8EDF6E04230510509F0F8C020915E
:102D3000E800277F2093E80020917E0530917F05F1
:102D40008217930708F49C0140E02115310509F032
:102D500065C0411163C08091E80082FDC9CF8091B8
:102D60007605882329F2853019F28091E80083FFE7
:102D7000F2CFBECF4132510509F43CC04232510579
:102D800009F0CDC08330910508F0C9C0FC01EE0FF9
:102D9000FF1FE654FD4F0190F081E02D89549D4FB7
:102DA000DC018C9190E01AC0332721303105D1F03D
:102DB0002115310561F02230310509F0B0C0E5E49C
:102DC000F7E0E4918E2F90E0E5E4F7E007C0E9E753
:102DD000F7E0E4918E2F90E0E9E7F7E0009709F43F
:102DE0009EC0A5CFE7E6F7E0E4918E2F90E0E7E6FE
:102DF000F7E0F4CF8330910508F091C0880F991F58
:102E0000FC01E054FD4F0190F081E02D89E090E05D
:102E10008ECF82E190E0E3E3F7E089CF8091760501
:102E2000882309F465CF853009F462CF8091E800EA
:102E300083FD5ECF8091E80082FD8DCF8091E80018
:102E400080FF83CF9091F3008091F200211531052E
:102E500019F08830910550F041E0089709F040E002
:102E60008091E8008E778093E8006FCF4491409383
:102E7000F1003196215031090196E8CF803809F0F0
:102E80004EC08091E800877F8093E80080917705AD
:102E90008093F1009DCE811142C010917A051230CD
:102EA000F0F58091E800877F8093E8001093770524
:102EB0000E947304112311F084E005C08091E300A7
:102EC00087FDFACF81E08093760542E061EC81E0F6
:102ED0000E94920442E261EC84E00E94920442E289
:102EE00061EC82E00E94920442E260EC83E00E9486
:102EF00092048091760513C080917A05813079F42F
:102F000081E0933009F080E0809375051092E9002C
:102F10008091E800877F8093E8000E94730480918D
:102F2000E80083FF0AC08091E800877F8093E80073
:102F30008091EB0080628093EB00AA96E3E00C9412
:102F4000B12B1F920F920FB60F9211242F933F9324
:102F50004F935F936F937F938F939F93AF93BF93A1
:102F6000CF93DF93EF93FF93D091E900DF708091CF
:102F7000EC00C82FC17080FDC0E81092E90080917C
:102F8000F000877F8093F00078940E94E314109201
:102F9000E9008091F00088608093F000CD2BCF7025
:102FA000C093E900FF91EF91DF91CF91BF91AF9175
:102FB0009F918F917F916F915F914F913F912F9151
:102FC0000F900FBE0F901F9018950E94CD142FEFF9
:102FD00084E39CE0215080409040E1F700C0000075
:102FE00088E19CE00FB6F894A895809360000FBE2E
:102FF00090936000FFCF882339F090913F05982B84
:1030000090933F050E9441130895882321F00E9468
:10301000140B0E9441130895882339F090914005C4
:10302000982B909340050E9441130895882379F1CD
:103030009CEF980F913A28F40E941B0B0E944113B9
:10304000089590E2980F983050F4877091E001C095
:10305000990F8A95EAF7892F0E94140BEFCF9BE511
:10306000980F933028F490E080E00E94D8050895EE
:1030700098E5980F973128F490E080E00E94C2050F
:103080000895803F20F00E9405080E94681208956C
:10309000FF920F931F93CF93DF93F82E00913D057E
:1030A00010913E050115110509F449C010923C0527
:1030B00010923B051092380510923905D8011696EA
:1030C000CD91DC919E013A9521153F4108F4D07EC7
:1030D000D1E0C11101C0D0E0D8011996ED91FC9169
:1030E0001A97309731F01B966D917C9180E009958D
:1030F000D823DD2339F08CEF8C0F813A30F58C2FFB
:103100000E941B0BFF2099F0E0913D05F0913E05D8
:10311000808584FD0CC080913A05882341F0808130
:1031200091819C01215031092F3A3D45A0F00E9428
:10313000411310923E0510923D0510923A05C801C8
:10314000CDB7DEB7E5E00C94AF2B0E9441138C2F76
:103150000E941618D7CF0E94FB05E9CF8091090184
:10316000833019F485EE0E9416180895CF93C82F66
:103170008823C1F18CEF8C0F813AB0F58091470123
:10318000882301F18091870587FF1CC0EC2FE6950D
:10319000E695E695F0E0E853FD4F828190E04C2FF4
:1031A000477021E030E002C0220F331F4A95E2F75A
:1031B00082239323892B79F08C2F0E941B0B0E9472
:1031C000411309C0EAECF2E08191C817A9F382E04B
:1031D000E03DF807C9F76C2F88EC92E00E948D055E
:1031E0000E944113CF91089580E28C0F883068F4DB
:1031F000C77021E030E001C0220FCA95EAF7809144
:103200004005822B80934005EBCFEBE5EC0FE330DC
:1032100040F4F0E0E65AFE4F808190E00E94D8052D
:10322000E1CFE8E5EC0FE73150F4F0E0EE0FFF1FDF
:10323000E35AFE4F808191810E94C205D3CFC03FE7
:1032400088F28C2F0E94C0080E946812CBCF1F9377
:10325000CF93DF93182FD0E0C0E0893311F4C0E59D
:10326000D0E0812F0E94B618209739F4812F0E9458
:103270001618DF91CF911F9108958FE99FE0019774
:10328000F1F700C000002197EFCF0F931F93CF936A
:10329000DF93C62FD42F022FFC0182818823A9F04F
:1032A000609382050E945C12909381058093800553
:1032B000C77081E001C0880FCA95EAF70E940C1818
:1032C000DF91CF911F910F9108958091820568132E
:1032D00032C080918005909181050E944D12883CFA
:1032E000910548F510E21D0FCD17B9F080E28C0F63
:1032F000883040F4C77081E001C0880FCA95EAF7B2
:103300000E940518183048F481E09D2F977001C085
:10331000880F9A95EAF70E940C18802F0E942719AF
:10332000183070F6D77081E001C0880FDA95EAF79F
:103330000E940518C5CFC77081E001C0880FCA95EB
:10334000EAF7F6CF0E94FD0B80930501833091F0E0
:10335000843031F0823089F489E30E94271908957E
:1033600080918305882331F081FF04C081E00E94B1
:103370002C14089581E00E94871408950E94FD0B8B
:1033800080930901833059F0843069F08230C1F4B0
:1033900083E00E94931481E00E943914089585EE21
:1033A0000E94B618089580918305882331F083FF29
:1033B00004C083E00E942C14089583E00E948714C7
:1033C0000895A8E0B0E0E7EEF9E10C94862B8C01BB
:1033D000DC0113968D919C911497892B39F08C9177
:1033E00011969C9189238F3F09F064C72896E2E1EA
:1033F0000C94A22B0E949B0DF82E682F89819A8134
:103400000E94840B69817A818F2D0E948D0D7C0131
:10341000F80182818823E1F0809141059091420575
:103420000097B1F08E159F0599F0FEE08F9FC001C7
:103430001124FC01E45EFE4F208124602083895E1C
:103440009E4FDC01ED92FC920E94D41310923F0536
:10345000F8015280552009F48BC6C70182519F455F
:10346000409708F05EC68FEF93E00E940D2C81110B
:1034700028C0FEEEEF0E6FE7862E62E0962EE1107A
:1034800032C01C821B82442443945AE0352E7401BE
:103490008FEFE81AF80AC4010E940D2C89831A8262
:1034A000882379F09FEF980F933058F58A834982EB
:1034B00092E0890E911CC7010E940D2C8B83811113
:1034C00021C080918605877009F490CFF801828130
:1034D000882309F48BCF8091880582FF87CF82E013
:1034E0000E94391483CF811424E0920651F3C40161
:1034F0000E940D2C811101C0EA943FEF831A930AB8
:10350000BECF4701DE0111967D01F7012081222304
:1035100009F4BDCF213009F048C0918182819130FA
:1035200031F4F2E0EF0EF11C0E94271907C092302F
:1035300049F422E0E20EF11C0E94B618EFEFEE1AF9
:10354000FE0AE3CF933031F432E0E30EF11C0E9427
:103550001618F4CF943021F08FEFE81AF80AEECF66
:1035600092E0E90EF11C30E020E0B7016F5F7F4F81
:10357000D70111964C918053990B8A30910550F0E8
:1035800021503109D8F2EFE9FFE03197F1F700C09F
:103590000000F6CF329EF001339EF00D11249C0105
:1035A0002E0F3F1F842F7B01E0CFE22FF0E0EC5085
:1035B000FE4F5490822F86958695869590E0FC016B
:1035C000EC51FE4F64902770712C022E02C075944E
:1035D00067940A94E2F731E063227724FC01EC520D
:1035E000FE4FA490B12C022E02C0B594A7940A9469
:1035F000E2F7A1E0AA22BB24FC01EC53FE4FC490E9
:10360000D12C02C0D594C7942A95E2F7B1E0CB2221
:10361000DD246114710419F081EE0E94B618A11422
:10362000B10419F086EE0E94B618852D0E94271964
:10363000A114B10419F086EE0E94161861147104E9
:1036400019F081EE0E941618C114D10409F476CF46
:103650008CE26ACF81E00E9487140E94201431CF4F
:1036600081E00E942C14F9CF82E0F5CF82E0F9CFFF
:1036700081E080930A0125CF80954822A5C5552079
:1036800009F4CCC4F092E902E092E8020E948105BC
:103690006093340570933505809336059093370514
:1036A00010923C0510923B058FC582FB882780F95C
:1036B000CEC5552001F18170CAC50E941618D4C626
:1036C0000497813A910558F46A2D88EC92E00E94A3
:1036D0008D05552009F455C40E944113F2CE0E9475
:1036E00041138FE39CE90197F1F700C000008A2D98
:1036F0000E94B618EECF9E819F5F9E837DC5FC0120
:1037000020813181E216F30609F034C4511034C42B
:1037100010923A0580E00E94481833C49E2D8F2DE8
:1037200078C4F901858181FFA4C4C9010E94B51341
:10373000A0C427E245EE65EEECC526E241EE60EE60
:10374000E8C527E245EE64EEE4C526E241EE62EE0E
:10375000E0C528E241E0EFCFF5EAEF16FDE5FF0610
:1037600009F4A0C440F581E6E8168DE5F80609F4F1
:1037700099C496E1E9169CE5F90609F0C9C1809162
:103780004005982F947409F04BC1982F9A7A817153
:1037900009F090E0222309F445C181E0911101C0B4
:1037A00080E08093EA0269E2911165E388EC92E09F
:1037B0000E948D0591CFC7018D5A9D450397C8F68C
:1037C00071C4809187058062A7E0EA16ACE5FA062D
:1037D000F1F1809187058061B8E0EB16BCE5FB064E
:1037E000B0F180918705806432C0EDE0EE16ECE523
:1037F000FE0609F4D3C0A0F4809187058E7F2BE0EC
:10380000E2162CE5F20619F1809187058C603CE008
:10381000E3163CE5F306D8F0809187058D7F17C04D
:103820008FE0E8168CE5F80609F4C8C008F4BAC0C1
:10383000A0E1EA16ACE5FA0609F4C4C08091870558
:103840008F7BB1E1EB16BCE5FB0609F05AC480930F
:10385000870557C4EFEFEE16ECE5FE0609F4C0C08D
:10386000D8F52AEFE2162CE5F20609F485C0D0F46B
:1038700084E1E8168CE5F80609F4C0C008F4ACC091
:10388000A5E1EA16ACE5FA0609F03BC4809187058C
:1038900082FB992790F921E0922790FB82F990FB17
:1038A00083F9D5CFBCEFEB16BCE5FB0609F47EC06F
:1038B00008F466C0FDEFEF16FCE5FF0609F47AC0D8
:1038C0008091880583602EEFE2162CE5F20609F060
:1038D00018C48093880515C431E6E3163DE5F30668
:1038E00009F497C0A0F491E0E9169DE5F90609F402
:1038F0008EC008F479C060E0B2E0EB16BDE5FB06CF
:1039000009F0FFC38EE090E00E942B2CFAC3EDEA91
:10391000EE16EDE5FE0601F168F490918705892F1A
:103920008E7F90FF816025EAE2162DE5F20609F40C
:103930008ECFE7C33EEAE3163DE5F30659F18FEA81
:10394000E8168DE5F80609F0DCC390918805892F0B
:10395000877F93FF8860BDCF809188058860B9CF4D
:1039600080918705826073CF8091870584606FCFD7
:103970008091870588606BCF809188058160A9CF91
:10398000809188058260A5CF0E94CD148091870523
:1039900080685DCF80918805877F9BCF8091870568
:1039A0008B7F55CF80918705877F51CF8091880588
:1039B0008E7F8FCF809188058D7F8BCF80918705FB
:1039C0008F7E45CF809187058F7D41CF0E94CD149A
:1039D000809187058F773BCF80918705837F37CF95
:1039E000809188058C7F75CF80918805982F909560
:1039F00091708E7F892B90FB81F96BCF0E94CD1443
:103A000090918705892F97FB87F9805820CF61E037
:103A100079CF90918705892F8F7E94FF806117CF92
:103A200090E0B5CE8091EA02811104C089E20E9443
:103A30001B0B52CE85E3FBCF4AEB56E068EC76E0F9
:103A400097ECE9169CE5F90609F44BC041EE56E007
:103A500066ED76E0A8ECEA16ACE5FA0608F441C09B
:103A600048EC56E06AEB76E03CC0BDECEB16BCE5FA
:103A7000FB0609F448C0B8F442E756E060E876E097
:103A8000FBECEF16FCE5FF0661F14CEA56E06EE94F
:103A900076E02CECE2162CE5F20618F140E856E050
:103AA00062E776E01EC036EDE3163CE5F30608F467
:103AB00008CD8DE5E816F80609F403CD66C48091BB
:103AC000CA0391E089278093CA031092460180912E
:103AD000C90381608093C903F4CC4BEF56E066E0E4
:103AE00077E00E946C06EDCC46E057E06BEF76E0A5
:103AF000F8CF46ED56E061EE76E0F3CF4EE956E0C2
:103B00006CEA76E0EECF61E081E00E94EC06D9CC71
:103B10009AE5E9169DE5F90699F168F4E114BCE52A
:103B2000FB06B9F0EEEDEE16ECE5FE0609F02DC44D
:103B30000E94E5100CC0FCE5EF16FDE5FF06B1F0B4
:103B400008F137EAE3163DE5F30609F01EC40E94CA
:103B5000E5170E94CD148FEF94E3ACE081509040C4
:103B6000A040E1F700C000000E94A30C80918805EE
:103B700082FB882780F991E089270E94591405C4A7
:103B800081E0FBCF80E0F9CFC7010E94500BD82E17
:103B90000DC42F2D2F70C22E8F2D807F19F0C2944F
:103BA00090EFC922DD20B9F0CC2069F080E28E0DC3
:103BB000883010F0811009C080914005C82AC09259
:103BC00040050E9441138E2D4FC080913F05C82AA9
:103BD000C0923F05F6CF8E2D0E941618CC2009F416
:103BE00045C080E28E0D883010F0811004C08C2D0D
:103BF0000E94140B06C0C09480913F05C822C09259
:103C00003F050E94411332C03F2D3F70C32E8F2DC0
:103C1000807F803219F0C29480EFC8228820A1F002
:103C200081E0881609F472C0DD2009F47BC0BB2056
:103C300009F44BC0D80115968C91159780FFC3CF1E
:103C40008F7015968C9341C09091880592FD36C077
:103C5000DD2071F1CC2039F080914005C82AC09256
:103C600040050E94411380E00E94B618292D28507B
:103C7000330B2430310510F40E94EE05AA2009F41C
:103C8000B5CB8091860580FDB1CBD80112961C92F0
:103C90008595859585950E948714C8010E94E11934
:103CA000809186058595859585950E942C149ECBDF
:103CB00080E00E941618CC20C9F299CFDD20C9F00F
:103CC00080916303C82AB11004C08C2D0E940C1887
:103CD000CDCFA1E0BA12F9CF92FFC8CFC81631F20A
:103CE0000E945C129093620380936103C09263030D
:103CF000BDCFB11006C00E94090B8C2D0E94051883
:103D0000B5CFB1E0BB1609F4B1CFF5CFDD2029F076
:103D1000E2E0EB1508F4AACFD8CFF1E0FB1508F4E8
:103D2000A5CFEBCFBB2049F3B9E38B1209C0EFEF6E
:103D3000F7EE23E0E150F0402040E1F700C0000042
:103D40008E2D0E94161892CF8F2D869586958370A2
:103D500061F0813009F08ACFC7019370D11002C0A1
:103D600090E080E00E94C20581CFC7019370D1101E
:103D700002C090E080E00E94D80578CF8E2DDD2033
:103D800029F00E94C0080E94681270CF0E940508A6
:103D9000FACF8F2D837091F5D11068CF4E2D4295BB
:103DA00046954770440F440F8E2D8F70042E01C02E
:103DB000880F0A94EAF72E2D2071E4FE07C02FE049
:103DC00030E001C0220F4A95EAF720953F2D369545
:103DD00036953370323069F050F4409164033130DD
:103DE00029F0822B84230E94C81440CF842B822B7D
:103DF000FACF282B809164038227F5CF8695DD20AA
:103E000011F08F2D8170882309F430CF4E2D42950B
:103E100046954770440F440F8E2D8F70042E01C0BD
:103E2000880F0A94EAF72E2D2071E4FE07C02FE0D8
:103E300030E001C0220F4A95EAF720953F2D3695D4
:103E400036953370323069F050F44091830531304B
:103E500029F0822B84230E941B1408CF842B822BF1
:103E6000FACF282B809183058227F5CF3F2D3F7015
:103E7000F32EDD2029F0832F0E9487148E2D26CF6C
:103E80008E2D0E9405188F2D0E942C14EFCE8E2DA2
:103E900092EF8916B1F1981570F0A0EF8A16D1F063
:103EA000B1EF8B1691F0DD2009F454C0B1108BCE28
:103EB0008F2D8F712AC0E3EF8E1651F1F4EF8F1220
:103EC000F2CF8091880582FD2FC08F2D8F71DD206C
:103ED000D9F21BC0DD2081F021E02B1508F4C6CEFD
:103EE0002F2D2F7181E090E001C0880F2A95EAF70D
:103EF000909183058927AFCF32E03B1508F4B6CE09
:103F0000EFCF8F2D8F71D110BFCF0E948714AECE0F
:103F100080E0DD2009F49FCF9F2D9F7181E001C0DB
:103F2000880F9A95EAF797CFDD2049F08F2D8F7192
:103F3000F82E0E9487148F2D0E94931497CE81E053
:103F40000E94391491E09B1508F090CE82E00E9407
:103F500039148CCEBB2059F0893309F0F1CEAFEF84
:103F6000B7EEE3E0A150B040E040E1F7E7CE8F2D9F
:103F70008F718ACF552029F0DC0118968C9185FF2E
:103F8000C9CBC70197558F3F910511F008F0A5C126
:103F90005701BB24BEE0EB9EF00111249F01295E76
:103FA0003E4F6901D80112968C91E45EFE4F9081DC
:103FB00080FB90F99083882309F4B3CB0E945C12B4
:103FC00090937E0380937D03F60182818F5F8283CD
:103FD00080913F0590914005892B838380916303F5
:103FE00084830680F781E02D309731F0D6011C964E
:103FF0006D917C91C60109958EE08A9DF0018B9DA3
:10400000F00D1124E95EFE4F858181FF87CB90E0A2
:1040100080E090934105809342052BC08091E80297
:104020009091E902E816F90681F41092E9021092E3
:10403000E802109234051092350510923605109260
:10404000370510923C0510923B0580913D059091FB
:104050003E05009709F495CFA8E08A16910408F070
:104060004ECB642D0E944C06811103C081E00E945A
:104070004818D80112962C91222309F45FC110929E
:104080008205B3E0EB16BDE5FB0608F065CBEAEF71
:10409000EE16ECE5FE0630F4C70182509C454497CD
:1040A00008F067CB0E94100E9093880580938705D7
:1040B00092E1E9169CE5F90609F488CC08F0CACB30
:1040C000B9E0EB16BCE5FB0609F45ECC08F08DCB3D
:1040D000F5E0EF16FCE5FF0609F44ACC08F071CBD9
:1040E00033E0E3163CE5F30609F43ACC08F03CCCA7
:1040F00080918705816092E0E9169CE5F90609F454
:10410000A6CB60918705F090880584E090E00E943E
:104110002B2C6F2D82E290E00E942B2C0E94CD145C
:10412000D0C9F0E1EF16FFE5FF0609F493CA21E1DB
:10413000E2162FE5F20609F497CAFFE5EF16FDE552
:10414000FF0609F495CA20E6E2162DE5F20651F0C5
:104150003EE5E3163DE5F306B9F480910A018823B4
:1041600009F486CA10920A0180E00E944818A9C981
:1041700030E1E3163FE5F30609F472CA81E1E8167F
:104180008FE5F80609F472CA80910A01882309F4C0
:10419000F8CE470180EE881A910840906303809121
:1041A0004005482A98E08916910408F068CA9701EA
:1041B0002770332781E090E001C0880F2A95EAF745
:1041C000552009F459CA482AD8018D919C910E9422
:1041D000500B21E030E0390102C0660C771C8A9553
:1041E000E2F7E0913D05F0913E05F887EF832090DE
:1041F000E8023090E9021E822E81E22FF0E0EE0FFD
:10420000FF1FE050FF4FC080D180C114D10409F4DA
:104210001CCF411005C0D60112968C9181116BCA3A
:10422000F601838190E086219721892B09F463CAE6
:104230008085982F977009F487E0F8E08F16910435
:1042400008F037CA552009F430CA86958170882352
:1042500009F451CAD601AD90BC90EA14FB0419F4DC
:10426000552009F448CAEF81F885CE16DF0609F417
:1042700042CAD6011D96ED91FC91309721F08081C4
:10428000882309F438CA642DC6010E944C0688238D
:1042900009F431CAEA14FB0409F0C1C0E114F104C5
:1042A00009F4C2C05110C2C0A214B30409F023CA59
:1042B000512CBCC085E0F801DE01119601900D92F1
:1042C0008A95E1F7D80112962C9189819A81211162
:1042D00091C80E94500BF82E95C8B3EFEB16BCE5C1
:1042E000FB0609F42ACAC8F4F8EDEF16FCE5FF0650
:1042F00009F41FCA29EDE2162CE5F20609F429CAD1
:1043000037EDE3163CE5F30609F0B3CE26E241EEC5
:1043100061EEC8010E944519D4C885EFE8168CE506
:10432000F80609F412CA08F40CCA27E245EE66EE54
:10433000A6EFEA16ACE5FA0661F39BCEB6E1EB1602
:10434000BCE5FB0609F41BCA809140058272A9EC0A
:10435000EA16ACE5FA0609F4D1CB08F086CBE5EC19
:10436000EE16ECE5FE0609F4C4CB08F065CB23ECB1
:10437000E2162CE5F20609F4B0CB08F0B5CB82ECDE
:10438000E8168CE5F80609F49ACBD80112968C91C0
:104390001297ED90FC90882309F4F6CBC7010E9498
:1043A0009B0DD82E682FC7010E94840BB7018D2D5D
:1043B0000E948D0D0E9476097C01882EF801D28022
:1043C000B580B2943FE0B322809186058770C1F03A
:1043D000AD2CDD20B1F08F2D807F803421F080E284
:1043E0008E0D883068F08091880582FF09C082E0D8
:1043F0000E943914809186058770AA24A3948111A4
:10440000A12C9F2C92942FE09222FBE0F91508F446
:104410002DCCE92DF0E0E55AF34D0C94D12BA114ED
:10442000B10409F041CF512CB12CA12C80E00E94A5
:104430004818D0923E05C0923D0581E080933A0530
:10444000F60185818093380551100EC0AB2861F0CC
:10445000F601808191819C0124503109213A310576
:1044600008F02BC90E941B0BD6011696AD90BC908C
:10447000C5019A9581159F4110F4E0EEBE22772484
:104480007394C50101978F3A9D4508F0712CD601B0
:104490001996ED91FC911A97309731F01B966D911A
:1044A0007C9181E009957822772079F0F601868168
:1044B00097810E94CC0B80933905C501F8E08F16D7
:1044C000910408F0FDC80E94FB050E94411301C938
:1044D0001F93CF93DF9380910E03807F09F049C033
:1044E00080910B03882309F444C080914003D0914C
:1044F0000F036091090370910A03A0910C03B0911E
:104500000D03C62FC72316E0D81799F190E0109736
:1045100011F0CF3F19F401968770F6CF189F9001E4
:10452000199F300D1124F901E05FFC4F41814713C1
:10453000F2CF40814613EFCF42814111ECCF43814E
:1045400054814A1B5B0B483C510528F780910E03B0
:104550008F70806180930E03F901EB5EFC4F8081C8
:104560008F708061808389E093E00E94E1190E944E
:10457000460BDF91CF911F910895A1E1B0E0E3ECEC
:10458000F2E20C948E2B8C0185E0F801DE011D9681
:1045900001900D928A95E1F7F801E28089E0A82E5A
:1045A00083E0B82E60910C0370910D0361157105C5
:1045B00009F426C19091090340910A03892F8423AD
:1045C0008F3F09F41DC120813181C380D480F090D8
:1045D0000B03F601E61BF70BFF2009F4DCC080910A
:1045E0000E03582F507FE83CF10508F09FC0511191
:1045F0006BC0FE2C431314C0921312C0E11010C004
:104600008F70806180930E03C5010E94E119809133
:104610000E03F80185838F2D6196EAE00C94AA2B96
:10462000C114D10429F0822F83238F3F09F003C1E5
:1046300080E0F82FF170DF2E80FF3CC080914003B6
:1046400040910F0356E0841315C02D873E878D855A
:104650009E850E94CA0D292F22952F702230F0F0DE
:10466000243018F59F70F1F0F8019581907FD1F416
:10467000D12C1EC090E0589FF001599FF00D1124DD
:10468000E05FFC4F6181361306C06081261303C0D2
:104690006281E6120FC001968770D5CF9F7011F02E
:1046A000882331F3805E883018F3C8010E94E11935
:1046B000FD2CB1CFEE2009F4AECF80910E038160C6
:1046C00080930E03F12CA7CF431306C0921304C0AE
:1046D000F801EE2009F479C0C8010E94D70D8823A3
:1046E00009F1EE20F9F080910E03803270F02091F4
:1046F000090330910A0338872F831986DB86CA861F
:104700008C87CE0107960E94E11986E0F801A9E0A6
:10471000B3E001900D928A95E1F70E946822FF2490
:10472000F39479CFC8010E94E119F9CF51110AC061
:1047300089E093E00E94E11986E0F50111928A95E3
:10474000E9F7C0CF43130FC092130DC0E1100BC0A7
:10475000F8018583C8010E94E11986E0F5011192F4
:104760008A95E9F758CFC8010E94D70D8823D1F266
:10477000EE20C1F280910E03803238F220910903BD
:1047800030910A033A8329831B82DD82CC828E8397
:10479000CE010196B8CFE83CF105F8F6FE2CEE20EC
:1047A00009F243131FC092131DC080910E0380FDB8
:1047B00010C0982F907F69F0F8018583903F31F009
:1047C000982F907F905F8F70892B8583C8010E94FE
:1047D000E11986E0F801A9E0B3E001900D928A9515
:1047E000E1F719CFC8010E94D70D81118ECF8091BA
:1047F0000E03816080930E03C8010E94E1190BCF64
:10480000EE2009F48FCFC8010E94D70DF82E88231F
:1048100009F488CF86E0F801A9E0B3E001900D9299
:104820008A95E1F78091090390910A030E94CA0DCD
:104830000E946822F0CE81E08E25FBCEA7E1B0E099
:10484000E4E2F4E20C94952B4B8B5C8B6D8B7E8BAE
:104850008F8B611110923F051A8A198A85E0FE013B
:104860007396DE011D9601900D928A95E1F7809175
:10487000880582FF1CC00E945C1220918405309143
:104880008505821B930B8C3D954020F08091860519
:1048900082FF79C00E945C12209161033091620313
:1048A000821B930B8C3D954010F00E94090B86E013
:1048B000FE013D96DE01179601900D928A95E1F773
:1048C000CE0107960E94BD22882359F016E0809100
:1048D000400390910F03891343C06796E3E00C9463
:1048E000B12B86E0FE013796DE01119601900D9204
:1048F0008A95E1F78A859B85892B41F38F8198857D
:1049000089238F3F19F320910F0330E0C9010196ED
:1049100087709927409140034817190671F40E9447
:10492000CD1410920F031092400386E0E9E0F3E00B
:10493000DF011D928A95E9F7C9CF96E0929FD001D9
:10494000939FB00D1124A05FBC4FFE0131960190E2
:104950000D929A95E1F780930F030E94460BB6CF14
:10496000819FC0011124805F9C4F0E94BD2288233B
:1049700009F4B3CF8091400390E0019687709927A6
:1049800080934003A4CF82E00E94391483CF1F920A
:104990001FB61F9211248F939F93AF93BF93809163
:1049A0004905811113C080914A0590914B05A09152
:1049B0004C05B0914D054196A11DB11D80934A054E
:1049C00090934B05A0934C05B0934D05BF91AF91CB
:1049D0009F918F911F901FBE1F901895CDB7DEB786
:1049E000AA970FB6F894DEBF0FBECDBF85B780681B
:1049F00085BF85B7806885BF84B7877F84BF0FB6C2
:104A0000F894A8958091600088618093600010926E
:104A100060000FBE80E890E00FB6F89480936100CC
:104A2000909361000FBE8AE199E09093C702809352
:104A3000C6020E94F9030E94C4048091E2008460CF
:104A40008093E2007894809176058823A1F01091FC
:104A5000E9001F709091EC00892F817090FD80E833
:104A6000182B1092E9008091E80083FD0E94E31466
:104A70001F701093E90082E084BD93E095BD9AEF2A
:104A800097BD80936E000E94F70D811102C00E94B5
:104A90004E0D0BE811E070E9E72E71E0F72ED8011A
:104AA0008D918D018F3F11F00E941C09E016F106D7
:104AB000B1F700E911E06FE9E62E61E0F62EF801AA
:104AC00081918F018F3F11F00E941C09E016F106C1
:104AD000B1F78AE0E0E8F3E0DF01282F1D922A9584
:104AE000E9F7E8E6F3E0DF011D928A95E9F721E0B6
:104AF00040E060E090E080E00E948E060E94D910C5
:104B0000811102C00E94E51082E090E00E940D2C0D
:104B1000809372030E94100E9093880580938705FE
:104B20000E948F12EFEBFDE53197F1F700C0000016
:104B30000E948F128091800380FF08C06FEF7FEF8B
:104B400090E080E00E94492C0E94A30C83E090E05A
:104B50000E940D2C0E94C8140E94350F10929703DA
:104B60008FEF9FEF9093B1038093B0039093B303C3
:104B70008093B2039093B5038093B4039093B703EB
:104B80008093B6039093B9038093B8039093BB03CB
:104B90008093BA039093BD038093BC039093BF03AB
:104BA0008093BE030E94D910811104C00E94E510B9
:104BB0000E94C51046E050E06CE170E08AEC93E0A2
:104BC0000E94FD2B1092C9038091CA038C7F11F4BF
:104BD0000E94C5100E94EE0580FF03C083E50E947D
:104BE00027198BE091E0909346058093450538E1C5
:104BF000432E512CDD24D3944AE8642E43E0742ED6
:104C00002224239458E0852E912C809176058530BE
:104C100089F490E4F92E23E0E22E00E112E1809184
:104C20007605853009F41BC20E94CD140E94EE0562
:104C30001092C8030E948F1281110E948105E0E842
:104C4000F3E0A3E7B3E010E000E0602FE190F19023
:104C50002D913D912E153F0509F46DC22E253F255E
:104C6000C12CAA24A394B12CA50142235323452B84
:104C700009F45BC2C9A26AA3EA20FB2081E0E11427
:104C8000F10409F480E08BA30E945C128160782F0C
:104C90009DA38CA349A15AA16BA18DA10E941E24A2
:104CA000F801EE0FFF1FED58FC4F80819181A8267F
:104CB000B926B182A082EF2871F08FE0809FF001C9
:104CC000819FF00D1124ED55FE4FEC0DF11D8081FB
:104CD0008F3F09F011C2C12C0C2D10E08091970379
:104CE000800F912F911D09975CF17401E01AF10A70
:104CF000B80168567C4FA70188E993E00E94F42B25
:104D0000B80160567C4FA70180EA93E00E94F42B23
:104D1000A701440F551FB801660F771F60557C4FE0
:104D200080EB93E00E94F42BB80168557C4FA701FB
:104D300088EA93E00E94F42B88E08C198093970313
:104D40008091970390E0A32DB0E09D01220F331FC7
:104D500022513E4FAA0FBB1FBD0161517E4F41E062
:104D6000480F9C1508F4CCC18093970380913B05B4
:104D700090913C05892B09F44EC04091300550912B
:104D8000310560913205709133052FB7F894809109
:104D90004A0590914B05A0914C05B0914D052FBF50
:104DA000841B950BA60BB70B40912C0550912D053C
:104DB00060912E0570912F0584179507A607B707F8
:104DC00050F100913B0510913C05C8010E94CC0BAD
:104DD0009801205E31092830310520F001151105B8
:104DE00009F0C0C10E940C18802F0E94B6181092C2
:104DF0003C0510923B05109230051092310510923F
:104E000032051092330510922C0510922D05109248
:104E10002E0510922F0500914105109142050115B4
:104E20001105B9F080917D0390917E030E944D128F
:104E3000893C910570F0AEE00A9FC0011124FC018D
:104E4000E45EFE4F208122FD04C0895E9E4F0E94D9
:104E5000D4130E94E20F86E0E1E9F3E0DE0111964F
:104E600001900D928A95E1F71092930310929403AA
:104E700010929503109296038B819C81892B09F4E3
:104E80004AC080918F03909190030E944D129C0123
:104E900090918B03992309F45FC325313105D8F133
:104EA0009F3F19F09F5F90938B031B81112359F053
:104EB0000E94A0089FEF11160CF491E0899F802DAD
:104EC0001124809393031C81112359F00E94A008A0
:104ED0009FEF11160CF491E0899F802D112480938F
:104EE0009403309193033323B1F020919403222350
:104EF00091F045EB3403C0011124992309F435C125
:104F00009093930345EB240390011124332309F478
:104F10002FC1309394038D819E81892B09F44AC05F
:104F200080918D0390918E030E944D129C0190916F
:104F30008A03992309F40BC321353105D8F19F3F2A
:104F400019F09F5F90938A031D81112359F00E94ED
:104F50007E089FEF11160CF491E0899F802D11249B
:104F6000809395031E81112359F00E947E089FEFC4
:104F700011160CF491E0899F802D112480939603E3
:104F8000309195033323B1F020919603222391F0C1
:104F900045EB3403C0011124992309F4ECC090932C
:104FA000950345EB240390011124332309F4E6C053
:104FB0003093960346E050E0BE016F5F7F4F81E97A
:104FC00093E00E94E72B892B61F4809193039091E9
:104FD0009403892B90919503892B90919603892BAB
:104FE00011F00E94681286E0FE013196A1E9B3E05B
:104FF00001900D928A95E1F70E94EE0590917F0352
:10500000891721F080937F030E94810580917605A6
:10501000843009F0FACD83E08093E9008091E800C4
:1050200082FFF3CD8091E80090E085FF06C00E94EA
:105030001804882309F4A5C091E08091E8008B77DB
:105040008093E800992309F4E0CDE981E150E33150
:1050500008F02DC1F0E0E959F34D0C94D12B80916B
:105060007605843009F436C00E94E20F8091C803AF
:1050700081110DC00E940E07109242018091CA0357
:105080008370809341010E949A0EE0924601209223
:10509000C803109249050FB6F894A8954092600095
:1050A0000FBEF092600083B7817F846083BF83B7B7
:1050B000816083BF7894889583B78E7F83BF0FB656
:1050C000F894A895809160008861809360001092A8
:1050D00060000FBE80917505882309F4A0CD0E9461
:1050E0008F12E0E8F3E081919191892B09F010C2D1
:1050F0006E167F06C1F793CD382ECC24C394ECCD29
:1051000090E0FC01E956FC4FD9015C915183DB0131
:105110005C915187318A880F991FFC01E956FC4F39
:10512000128E118E91E0842F1ACEC394AA0CBB1C50
:105130004FE0C41299CD0F5F1F4F0530110509F0E4
:1051400084CD8FEF8EA38FA318A60E945C1281607E
:10515000782F9AA789A74EA15FA168A58AA50E946A
:105160001E2404CE0E94FB173FCED0929303CACEDA
:10517000D0929403D0CED092950313CFD0929603C1
:1051800019CF80E2E82EF12C8E010F5F1F4F809126
:10519000E80085FD0AC08091E8008B778093E800E5
:1051A0000E941804882399F347CF8091F100D80119
:1051B0008D938D01B1E0EB1AF10849F73DCF1A82CA
:1051C0008AE08B8311C08A81823009F4B7C18330B1
:1051D00091F1813009F06BC00E9481050E94D72BAC
:1051E0006B837C838D839E8380917605843009F068
:1051F0000CCD1091E9001F709091EC00892F817007
:1052000090FD80E8182B82E08093E9008091E8000F
:1052100080FF0DC050E040E060E270E0CE010196FA
:105220000E9449048091E8008E778093E8001F7007
:105230001093E900EACC8091800390918103982734
:10524000892798279C838B83809182039091830385
:105250009827892798279E838D8380918403909136
:10526000850398278927982798878F8380918603BD
:10527000909187039827892798279A878987809113
:105280008803909189039827892798279C878B8783
:10529000ABCF8A81823059F46B817C818D819E8174
:1052A0000E94D72B86E290E00E942B2C9DCF8FEF9F
:1052B00089839ACF4C816B818A810E945E0D9827E9
:1052C000892798279E838D838FCF2D813E8132271A
:1052D000232732274C816B818A810E94D70C84CF8F
:1052E0000E94FD0C81CF8A818138E9F088F48038F2
:1052F00009F07ACF4B812FEF429F412D11248091ED
:10530000CB0320E06091CC0390E00E948E066CCF2E
:10531000823819F1833809F067CF8B8120E0409102
:10532000CD036C81F1CF60E08B810E94EC069B8104
:105330008091CA03911109C0982F937011F01092B7
:1053400046018C7F8093CA034FCF982F937011F43E
:10535000109246018C7F8160F5CFEB818FE7E430BE
:1053600020F4F0E0E156FE4F80818093CE033CCFE5
:105370008A818138E1F078F4803809F035CF809166
:10538000CD03EFEF8E9FC00111246FEF70E00E94FC
:10539000722B6B8329CF823879F0833809F024CFC0
:1053A0008091CB038B838091CC038C831DCF809124
:1053B000CA038695869505CF8091CE03873230F05B
:1053C0008F3530F08E3930F083E0FBCE80E0F9CEBF
:1053D00081E0F7CE82E0F5CE0E94D70F05CF80E1C5
:1053E0008A8302CFDA8281E8ECCE0A811B81102702
:1053F00001271027CE0101965C01EC80DC01AE0D87
:10540000B11D7D01C80181589D4FEA14FB0409F4C8
:10541000EBCE0138B1E01B0750F40E940D2CF501D2
:1054200084830F5F1F4FBFEFAB1ABB0AEBCFD501D1
:1054300014961C92F6CF0A811B8110270127102792
:10544000FE0131965F01EC80E00EF12EF11CC801E7
:1054500081589D4FE016F10609F4C6CE0138F1E0FF
:105460001F0728F4D50114966C910E942B2CBFEFD6
:10547000AB1ABB0A0F5F1F4FEACF0E94C70CB4CE16
:1054800084E0AECF0A811B81102701271027FE017F
:1054900031965F01EC80CF018E0D911D7C01C8011A
:1054A0008796EA14FB0409F49FCE0835A2E01A0798
:1054B00050F40E940D2CF50184830F5F1F4FBFEF46
:1054C000AB1ABB0AECCFD50114961C92F6CF0A8119
:1054D0001B81102701271027FE0131965F01EC8008
:1054E000E00EF12EF11CC8018796E016F10609F4D2
:1054F0007BCE0835F2E01F0728F4D50114966C9195
:105500000E942B2CBFEFAB1ABB0A0F5F1F4FEBCFD4
:1055100009BD19BD09B400FEFDCF8091D8008F7D73
:105520008093D8008091E00082608093E0008091B9
:10553000E00081FDFCCF0E94CD1471CB86E290E0AB
:105540000E940D2C1B821C821D828E834DCE2B301F
:10555000310508F0F6CC2ECD2B30310508F0A2CC69
:10556000DACC1092B9008CE08093B8000895B0E0D6
:10557000A0E0EDEBFAE20C948D2BB82EEB010E942B
:105580005C126C01EE24E394F12CC431D10560F07F
:1055900025E0E22EF12CCF3FDC0731F0CE0164E1B3
:1055A00070E00E94722B7B0184EAA82E94E8992E69
:1055B0001092BC00A092BC000E945C128C018091F1
:1055C000BC0087FF0DC08091B900887F8830F9F05A
:1055D0008091B900887F8031D1F00FEF1FEF08C0B4
:1055E000C8010E944D12E816F90648F70EEF1FEFAA
:1055F000CF3FDC07E9F2C6010E944D12C817D90758
:10560000B8F6C801CDB7DEB7EBE00C94A92BB09289
:10561000BB009092BC000E945C128C018091BC0087
:1056200087FF0AC08091B900887F883111F08034EB
:10563000A1F610E000E0E5CFC8010E944D12E81687
:10564000F90660F7D3CF0F931F93CF93DF93EB014E
:105650008093BB0084E88093BC000E945C128C01A4
:105660008091BC0087FF11C02091B900287F81E0A4
:1056700090E0283211F490E080E0919581959109B5
:10568000DF91CF911F910F910895CF3FDC0741F338
:10569000C8010E944D12C817D90710F78EEF9FEF6F
:1056A000EFCFB0E0A0E0E7E5FBE20C94902B6B01BC
:1056B0008A017901B9010E94B72AE6010C0D1D1D6E
:1056C000C017D10711F097FF08C024E92093BC0050
:1056D000CDB7DEB7E8E00C94AC2BB70189910E94FE
:1056E000232BEECFAA1BBB1B51E107C0AA1FBB1F78
:1056F000A617B70710F0A61BB70B881F991F5A955E
:10570000A9F780959095BC01CD0108952F923F9205
:105710004F925F926F927F928F929F92AF92BF92C1
:10572000CF92DF92EF92FF920F931F93CF93DF936D
:10573000CDB7DEB7CA1BDB0B0FB6F894DEBF0FBECA
:10574000CDBF09942A88398848885F846E847D8417
:105750008C849B84AA84B984C884DF80EE80FD8019
:105760000C811B81AA81B981CE0FD11D0FB6F8948F
:10577000DEBF0FBECDBFED01089597FB072E16F4D7
:10578000009407D077FD09D00E94722B07FC05D04A
:105790003EF4909581959F4F0895709561957F4F48
:1057A0000895EE0FFF1F0590F491E02D09946927ED
:1057B000962769277827872778270895FB01DC013A
:1057C00002C005900D9241505040D8F70895FB015A
:1057D000DC0104C08D910190801921F441505040AA
:1057E000C8F7881B990B0895FB01DC0102C00190EA
:1057F0000D9241505040D8F70895DC01CB01FC01D7
:10580000F999FECF06C0F2BDE1BDF89A319600B419
:105810000D9241505040B8F70895F999FECF92BDCE
:1058200081BDF89A992780B50895A8E1B0E042E0DB
:1058300050E00C94FF2BDC01A40FB51F41505040E9
:1058400048F0CB01840F951F2E910E942C2C4150C3
:105850005040D0F70895262FF999FECF92BD81BD13
:10586000F89A019700B4021639F01FBA20BD0FB69E
:10587000F894FA9AF99A0FBE08950396272F0E947A
:105880002C2C0E942B2C252F0E942C2C242F0C9486
:105890002C2C0196272F0E942C2C0C942B2CF89446
:1058A000FFCFC415EC158F17EC158F171F16401678
:1058B0008F173E174B17C91DC91D041E041EA41EB9
:1058C000BE1E361E361EC91E361F471F471FDF2845
:1058D000E32849295A29652970297329B829EC290F
:1058E00057295729EF29F229F5291B2A3D2A402A51
:0458F000422A672AB7
:1058F4004B010000010001000100017E05630C4220
:105904000C3D0C380C7D050000000000000000A2D6
:10591400197D1400000000000000000000BE19AE54
:105924001800000000000000000000AA1475140014
:1059340000FFFF00FF00030100FFFF2A0022FF0019
:10594400224C0007000000000000818283E200E98D
:1059540000EA00B500B600B700CD008301CC008A90
:105964000192019401210223022402250226022726
:10597400022A02B300B4006F007000F0F1F4C666AE
:10598400F7F6F56730313233349796949593920F46
:105994003F7FBD000102030405060708090A0B0C3A
:1059A4000D0E0F101112131415161718191A1B1CAB
:1059B4001D1E1F20212223242526272829FF2A2BC8
:1059C4002C2D2E2F3031323334353637FF38393AD7
:1059D4003B3CFFFF3DFFFF3EFF3F40FF41420000D5
:1059E4000F001E002D003C004B005A006900780097
:1059F40087009600A500B400CB00E0000410171047
:105A040026103510441053106210711080108F103E
:105A14009E10AD10BC10CE10E01006201A202920D4
:105A24003820472056206520742083209220A1200E
:105A3400B020C920E02009302230313040304F30CE
:105A44005E306D307C308B309A30A930BD30D2302E
:105A5400E03002401540274060409840AB40C340CE
:105A6400D240E040010404040404040404040404D3
:105A740004040101040404040404040404040404E8
:105A840004010104040404040404040404040401DB
:105A940001040404040404040404040404010101CE
:105AA400010401010101014022B684016201AC003C
:065AB400EA0603072307C8
:00000001FF
